{
  "_format": "hh-sol-artifact-1",
  "contractName": "YieldEscrow",
  "sourceName": "src/YieldEscrow.sol",
  "abi": [
    {
      "inputs": [
        {
          "internalType": "address",
          "name": "admin",
          "type": "address"
        },
        {
          "internalType": "address",
          "name": "feeRecipient_",
          "type": "address"
        }
      ],
      "stateMutability": "nonpayable",
      "type": "constructor"
    },
    {
      "inputs": [],
      "name": "DailyLimitExceeded",
      "type": "error"
    },
    {
      "inputs": [],
      "name": "DepositAlreadyReleased",
      "type": "error"
    },
    {
      "inputs": [],
      "name": "DepositNotFound",
      "type": "error"
    },
    {
      "inputs": [],
      "name": "InsufficientBalance",
      "type": "error"
    },
    {
      "inputs": [],
      "name": "InvalidAddress",
      "type": "error"
    },
    {
      "inputs": [],
      "name": "InvalidAmount",
      "type": "error"
    },
    {
      "inputs": [],
      "name": "InvalidStrategy",
      "type": "error"
    },
    {
      "inputs": [],
      "name": "InvalidToken",
      "type": "error"
    },
    {
      "inputs": [],
      "name": "OnlyMerchantCanRelease",
      "type": "error"
    },
    {
      "inputs": [],
      "name": "PaymentAlreadyProcessed",
      "type": "error"
    },
    {
      "inputs": [],
      "name": "StrategyNotActive",
      "type": "error"
    },
    {
      "inputs": [],
      "name": "TokenNotSupported",
      "type": "error"
    },
    {
      "inputs": [],
      "name": "TransferFailed",
      "type": "error"
    },
    {
      "inputs": [],
      "name": "UserLimitExceeded",
      "type": "error"
    },
    {
      "inputs": [],
      "name": "YieldCalculationFailed",
      "type": "error"
    },
    {
      "anonymous": false,
      "inputs": [
        {
          "indexed": true,
          "internalType": "bytes32",
          "name": "paymentHash",
          "type": "bytes32"
        },
        {
          "indexed": true,
          "internalType": "address",
          "name": "user",
          "type": "address"
        },
        {
          "indexed": true,
          "internalType": "address",
          "name": "merchant",
          "type": "address"
        },
        {
          "indexed": false,
          "internalType": "address",
          "name": "token",
          "type": "address"
        },
        {
          "indexed": false,
          "internalType": "uint256",
          "name": "amount",
          "type": "uint256"
        },
        {
          "indexed": false,
          "internalType": "address",
          "name": "yieldStrategy",
          "type": "address"
        },
        {
          "indexed": false,
          "internalType": "uint256",
          "name": "depositIndex",
          "type": "uint256"
        }
      ],
      "name": "DepositCreated",
      "type": "event"
    },
    {
      "anonymous": false,
      "inputs": [
        {
          "indexed": true,
          "internalType": "bytes32",
          "name": "paymentHash",
          "type": "bytes32"
        },
        {
          "indexed": true,
          "internalType": "address",
          "name": "user",
          "type": "address"
        },
        {
          "indexed": false,
          "internalType": "uint256",
          "name": "amount",
          "type": "uint256"
        },
        {
          "indexed": false,
          "internalType": "string",
          "name": "reason",
          "type": "string"
        }
      ],
      "name": "EmergencyWithdrawal",
      "type": "event"
    },
    {
      "anonymous": false,
      "inputs": [
        {
          "indexed": false,
          "internalType": "address",
          "name": "account",
          "type": "address"
        }
      ],
      "name": "Paused",
      "type": "event"
    },
    {
      "anonymous": false,
      "inputs": [
        {
          "indexed": true,
          "internalType": "bytes32",
          "name": "paymentHash",
          "type": "bytes32"
        },
        {
          "indexed": true,
          "internalType": "address",
          "name": "user",
          "type": "address"
        },
        {
          "indexed": true,
          "internalType": "address",
          "name": "merchant",
          "type": "address"
        },
        {
          "indexed": false,
          "internalType": "uint256",
          "name": "amount",
          "type": "uint256"
        },
        {
          "indexed": false,
          "internalType": "uint256",
          "name": "yieldGenerated",
          "type": "uint256"
        },
        {
          "indexed": false,
          "internalType": "uint256",
          "name": "userYield",
          "type": "uint256"
        },
        {
          "indexed": false,
          "internalType": "uint256",
          "name": "merchantYield",
          "type": "uint256"
        },
        {
          "indexed": false,
          "internalType": "uint256",
          "name": "protocolYield",
          "type": "uint256"
        }
      ],
      "name": "PaymentReleased",
      "type": "event"
    },
    {
      "anonymous": false,
      "inputs": [
        {
          "indexed": false,
          "internalType": "uint256",
          "name": "oldFee",
          "type": "uint256"
        },
        {
          "indexed": false,
          "internalType": "uint256",
          "name": "newFee",
          "type": "uint256"
        }
      ],
      "name": "ProtocolFeeUpdated",
      "type": "event"
    },
    {
      "anonymous": false,
      "inputs": [
        {
          "indexed": true,
          "internalType": "bytes32",
          "name": "role",
          "type": "bytes32"
        },
        {
          "indexed": true,
          "internalType": "bytes32",
          "name": "previousAdminRole",
          "type": "bytes32"
        },
        {
          "indexed": true,
          "internalType": "bytes32",
          "name": "newAdminRole",
          "type": "bytes32"
        }
      ],
      "name": "RoleAdminChanged",
      "type": "event"
    },
    {
      "anonymous": false,
      "inputs": [
        {
          "indexed": true,
          "internalType": "bytes32",
          "name": "role",
          "type": "bytes32"
        },
        {
          "indexed": true,
          "internalType": "address",
          "name": "account",
          "type": "address"
        },
        {
          "indexed": true,
          "internalType": "address",
          "name": "sender",
          "type": "address"
        }
      ],
      "name": "RoleGranted",
      "type": "event"
    },
    {
      "anonymous": false,
      "inputs": [
        {
          "indexed": true,
          "internalType": "bytes32",
          "name": "role",
          "type": "bytes32"
        },
        {
          "indexed": true,
          "internalType": "address",
          "name": "account",
          "type": "address"
        },
        {
          "indexed": true,
          "internalType": "address",
          "name": "sender",
          "type": "address"
        }
      ],
      "name": "RoleRevoked",
      "type": "event"
    },
    {
      "anonymous": false,
      "inputs": [
        {
          "indexed": true,
          "internalType": "address",
          "name": "strategy",
          "type": "address"
        },
        {
          "indexed": true,
          "internalType": "address",
          "name": "token",
          "type": "address"
        },
        {
          "indexed": false,
          "internalType": "string",
          "name": "name",
          "type": "string"
        }
      ],
      "name": "StrategyAdded",
      "type": "event"
    },
    {
      "anonymous": false,
      "inputs": [
        {
          "indexed": true,
          "internalType": "address",
          "name": "strategy",
          "type": "address"
        },
        {
          "indexed": false,
          "internalType": "string",
          "name": "reason",
          "type": "string"
        }
      ],
      "name": "StrategyRemoved",
      "type": "event"
    },
    {
      "anonymous": false,
      "inputs": [
        {
          "indexed": true,
          "internalType": "address",
          "name": "token",
          "type": "address"
        },
        {
          "indexed": false,
          "internalType": "string",
          "name": "symbol",
          "type": "string"
        }
      ],
      "name": "TokenAdded",
      "type": "event"
    },
    {
      "anonymous": false,
      "inputs": [
        {
          "indexed": false,
          "internalType": "address",
          "name": "account",
          "type": "address"
        }
      ],
      "name": "Unpaused",
      "type": "event"
    },
    {
      "anonymous": false,
      "inputs": [
        {
          "indexed": true,
          "internalType": "bytes32",
          "name": "paymentHash",
          "type": "bytes32"
        },
        {
          "indexed": true,
          "internalType": "address",
          "name": "user",
          "type": "address"
        },
        {
          "indexed": false,
          "internalType": "uint256",
          "name": "yieldAmount",
          "type": "uint256"
        },
        {
          "indexed": false,
          "internalType": "uint256",
          "name": "newTotalYield",
          "type": "uint256"
        }
      ],
      "name": "YieldCalculated",
      "type": "event"
    },
    {
      "anonymous": false,
      "inputs": [
        {
          "indexed": true,
          "internalType": "address",
          "name": "user",
          "type": "address"
        },
        {
          "indexed": false,
          "internalType": "uint256",
          "name": "amount",
          "type": "uint256"
        },
        {
          "indexed": false,
          "internalType": "address",
          "name": "token",
          "type": "address"
        }
      ],
      "name": "YieldWithdrawn",
      "type": "event"
    },
    {
      "inputs": [],
      "name": "ADMIN_ROLE",
      "outputs": [
        {
          "internalType": "bytes32",
          "name": "",
          "type": "bytes32"
        }
      ],
      "stateMutability": "view",
      "type": "function"
    },
    {
      "inputs": [],
      "name": "BASIS_POINTS",
      "outputs": [
        {
          "internalType": "uint256",
          "name": "",
          "type": "uint256"
        }
      ],
      "stateMutability": "view",
      "type": "function"
    },
    {
      "inputs": [],
      "name": "DEFAULT_ADMIN_ROLE",
      "outputs": [
        {
          "internalType": "bytes32",
          "name": "",
          "type": "bytes32"
        }
      ],
      "stateMutability": "view",
      "type": "function"
    },
    {
      "inputs": [],
      "name": "MAX_DAILY_VOLUME",
      "outputs": [
        {
          "internalType": "uint256",
          "name": "",
          "type": "uint256"
        }
      ],
      "stateMutability": "view",
      "type": "function"
    },
    {
      "inputs": [],
      "name": "MAX_DEPOSIT_PER_TX",
      "outputs": [
        {
          "internalType": "uint256",
          "name": "",
          "type": "uint256"
        }
      ],
      "stateMutability": "view",
      "type": "function"
    },
    {
      "inputs": [],
      "name": "MERCHANT_ROLE",
      "outputs": [
        {
          "internalType": "bytes32",
          "name": "",
          "type": "bytes32"
        }
      ],
      "stateMutability": "view",
      "type": "function"
    },
    {
      "inputs": [],
      "name": "MERCHANT_YIELD_PERCENTAGE",
      "outputs": [
        {
          "internalType": "uint256",
          "name": "",
          "type": "uint256"
        }
      ],
      "stateMutability": "view",
      "type": "function"
    },
    {
      "inputs": [],
      "name": "MIN_DEPOSIT_AMOUNT",
      "outputs": [
        {
          "internalType": "uint256",
          "name": "",
          "type": "uint256"
        }
      ],
      "stateMutability": "view",
      "type": "function"
    },
    {
      "inputs": [],
      "name": "OPERATOR_ROLE",
      "outputs": [
        {
          "internalType": "bytes32",
          "name": "",
          "type": "bytes32"
        }
      ],
      "stateMutability": "view",
      "type": "function"
    },
    {
      "inputs": [],
      "name": "PROTOCOL_YIELD_PERCENTAGE",
      "outputs": [
        {
          "internalType": "uint256",
          "name": "",
          "type": "uint256"
        }
      ],
      "stateMutability": "view",
      "type": "function"
    },
    {
      "inputs": [],
      "name": "SECONDS_PER_DAY",
      "outputs": [
        {
          "internalType": "uint256",
          "name": "",
          "type": "uint256"
        }
      ],
      "stateMutability": "view",
      "type": "function"
    },
    {
      "inputs": [],
      "name": "STRATEGY_MANAGER_ROLE",
      "outputs": [
        {
          "internalType": "bytes32",
          "name": "",
          "type": "bytes32"
        }
      ],
      "stateMutability": "view",
      "type": "function"
    },
    {
      "inputs": [],
      "name": "USER_YIELD_PERCENTAGE",
      "outputs": [
        {
          "internalType": "uint256",
          "name": "",
          "type": "uint256"
        }
      ],
      "stateMutability": "view",
      "type": "function"
    },
    {
      "inputs": [
        {
          "internalType": "address",
          "name": "",
          "type": "address"
        }
      ],
      "name": "activeStrategies",
      "outputs": [
        {
          "internalType": "bool",
          "name": "",
          "type": "bool"
        }
      ],
      "stateMutability": "view",
      "type": "function"
    },
    {
      "inputs": [
        {
          "internalType": "address",
          "name": "strategy",
          "type": "address"
        },
        {
          "internalType": "address",
          "name": "token",
          "type": "address"
        },
        {
          "internalType": "string",
          "name": "name",
          "type": "string"
        }
      ],
      "name": "addStrategy",
      "outputs": [],
      "stateMutability": "nonpayable",
      "type": "function"
    },
    {
      "inputs": [
        {
          "internalType": "address",
          "name": "token",
          "type": "address"
        },
        {
          "internalType": "string",
          "name": "symbol",
          "type": "string"
        }
      ],
      "name": "addSupportedToken",
      "outputs": [],
      "stateMutability": "nonpayable",
      "type": "function"
    },
    {
      "inputs": [
        {
          "internalType": "address",
          "name": "user",
          "type": "address"
        },
        {
          "internalType": "uint256",
          "name": "depositIndex",
          "type": "uint256"
        }
      ],
      "name": "calculateYield",
      "outputs": [
        {
          "internalType": "uint256",
          "name": "yieldAmount",
          "type": "uint256"
        }
      ],
      "stateMutability": "view",
      "type": "function"
    },
    {
      "inputs": [
        {
          "internalType": "uint256",
          "name": "amount",
          "type": "uint256"
        },
        {
          "internalType": "address",
          "name": "token",
          "type": "address"
        },
        {
          "internalType": "address",
          "name": "merchant",
          "type": "address"
        },
        {
          "internalType": "address",
          "name": "yieldStrategy",
          "type": "address"
        },
        {
          "internalType": "bytes32",
          "name": "paymentHash",
          "type": "bytes32"
        },
        {
          "internalType": "string",
          "name": "metadata",
          "type": "string"
        }
      ],
      "name": "createDeposit",
      "outputs": [
        {
          "internalType": "uint256",
          "name": "depositIndex",
          "type": "uint256"
        }
      ],
      "stateMutability": "nonpayable",
      "type": "function"
    },
    {
      "inputs": [
        {
          "internalType": "uint256",
          "name": "",
          "type": "uint256"
        }
      ],
      "name": "dailyVolume",
      "outputs": [
        {
          "internalType": "uint256",
          "name": "",
          "type": "uint256"
        }
      ],
      "stateMutability": "view",
      "type": "function"
    },
    {
      "inputs": [],
      "name": "emergencyPause",
      "outputs": [],
      "stateMutability": "nonpayable",
      "type": "function"
    },
    {
      "inputs": [
        {
          "internalType": "uint256",
          "name": "depositIndex",
          "type": "uint256"
        },
        {
          "internalType": "string",
          "name": "reason",
          "type": "string"
        }
      ],
      "name": "emergencyWithdraw",
      "outputs": [],
      "stateMutability": "nonpayable",
      "type": "function"
    },
    {
      "inputs": [],
      "name": "feeRecipient",
      "outputs": [
        {
          "internalType": "address",
          "name": "",
          "type": "address"
        }
      ],
      "stateMutability": "view",
      "type": "function"
    },
    {
      "inputs": [
        {
          "internalType": "bytes32",
          "name": "role",
          "type": "bytes32"
        }
      ],
      "name": "getRoleAdmin",
      "outputs": [
        {
          "internalType": "bytes32",
          "name": "",
          "type": "bytes32"
        }
      ],
      "stateMutability": "view",
      "type": "function"
    },
    {
      "inputs": [
        {
          "internalType": "address",
          "name": "strategy",
          "type": "address"
        }
      ],
      "name": "getStrategyMetrics",
      "outputs": [
        {
          "components": [
            {
              "internalType": "uint256",
              "name": "totalDeposited",
              "type": "uint256"
            },
            {
              "internalType": "uint256",
              "name": "totalYieldGenerated",
              "type": "uint256"
            },
            {
              "internalType": "uint256",
              "name": "averageAPY",
              "type": "uint256"
            },
            {
              "internalType": "uint256",
              "name": "lastUpdateTime",
              "type": "uint256"
            }
          ],
          "internalType": "struct YieldEscrow.StrategyMetrics",
          "name": "metrics",
          "type": "tuple"
        }
      ],
      "stateMutability": "view",
      "type": "function"
    },
    {
      "inputs": [],
      "name": "getTotalValueLocked",
      "outputs": [
        {
          "internalType": "uint256",
          "name": "tvl",
          "type": "uint256"
        }
      ],
      "stateMutability": "view",
      "type": "function"
    },
    {
      "inputs": [
        {
          "internalType": "address",
          "name": "user",
          "type": "address"
        },
        {
          "internalType": "uint256",
          "name": "depositIndex",
          "type": "uint256"
        }
      ],
      "name": "getUserDeposit",
      "outputs": [
        {
          "components": [
            {
              "internalType": "uint256",
              "name": "amount",
              "type": "uint256"
            },
            {
              "internalType": "uint256",
              "name": "timestamp",
              "type": "uint256"
            },
            {
              "internalType": "address",
              "name": "token",
              "type": "address"
            },
            {
              "internalType": "address",
              "name": "merchant",
              "type": "address"
            },
            {
              "internalType": "address",
              "name": "yieldStrategy",
              "type": "address"
            },
            {
              "internalType": "uint256",
              "name": "yieldAccrued",
              "type": "uint256"
            },
            {
              "internalType": "uint256",
              "name": "lastYieldUpdate",
              "type": "uint256"
            },
            {
              "internalType": "bool",
              "name": "released",
              "type": "bool"
            },
            {
              "internalType": "bytes32",
              "name": "paymentHash",
              "type": "bytes32"
            },
            {
              "internalType": "string",
              "name": "metadata",
              "type": "string"
            }
          ],
          "internalType": "struct YieldEscrow.Deposit",
          "name": "deposit",
          "type": "tuple"
        }
      ],
      "stateMutability": "view",
      "type": "function"
    },
    {
      "inputs": [
        {
          "internalType": "address",
          "name": "user",
          "type": "address"
        }
      ],
      "name": "getUserDeposits",
      "outputs": [
        {
          "components": [
            {
              "internalType": "uint256",
              "name": "amount",
              "type": "uint256"
            },
            {
              "internalType": "uint256",
              "name": "timestamp",
              "type": "uint256"
            },
            {
              "internalType": "address",
              "name": "token",
              "type": "address"
            },
            {
              "internalType": "address",
              "name": "merchant",
              "type": "address"
            },
            {
              "internalType": "address",
              "name": "yieldStrategy",
              "type": "address"
            },
            {
              "internalType": "uint256",
              "name": "yieldAccrued",
              "type": "uint256"
            },
            {
              "internalType": "uint256",
              "name": "lastYieldUpdate",
              "type": "uint256"
            },
            {
              "internalType": "bool",
              "name": "released",
              "type": "bool"
            },
            {
              "internalType": "bytes32",
              "name": "paymentHash",
              "type": "bytes32"
            },
            {
              "internalType": "string",
              "name": "metadata",
              "type": "string"
            }
          ],
          "internalType": "struct YieldEscrow.Deposit[]",
          "name": "deposits",
          "type": "tuple[]"
        }
      ],
      "stateMutability": "view",
      "type": "function"
    },
    {
      "inputs": [
        {
          "internalType": "bytes32",
          "name": "role",
          "type": "bytes32"
        },
        {
          "internalType": "address",
          "name": "account",
          "type": "address"
        }
      ],
      "name": "grantRole",
      "outputs": [],
      "stateMutability": "nonpayable",
      "type": "function"
    },
    {
      "inputs": [
        {
          "internalType": "bytes32",
          "name": "role",
          "type": "bytes32"
        },
        {
          "internalType": "address",
          "name": "account",
          "type": "address"
        }
      ],
      "name": "hasRole",
      "outputs": [
        {
          "internalType": "bool",
          "name": "",
          "type": "bool"
        }
      ],
      "stateMutability": "view",
      "type": "function"
    },
    {
      "inputs": [
        {
          "internalType": "address",
          "name": "",
          "type": "address"
        }
      ],
      "name": "merchantBalances",
      "outputs": [
        {
          "internalType": "uint256",
          "name": "",
          "type": "uint256"
        }
      ],
      "stateMutability": "view",
      "type": "function"
    },
    {
      "inputs": [],
      "name": "paused",
      "outputs": [
        {
          "internalType": "bool",
          "name": "",
          "type": "bool"
        }
      ],
      "stateMutability": "view",
      "type": "function"
    },
    {
      "inputs": [
        {
          "internalType": "bytes32",
          "name": "",
          "type": "bytes32"
        }
      ],
      "name": "processedPaymentHashes",
      "outputs": [
        {
          "internalType": "bool",
          "name": "",
          "type": "bool"
        }
      ],
      "stateMutability": "view",
      "type": "function"
    },
    {
      "inputs": [],
      "name": "protocolBalance",
      "outputs": [
        {
          "internalType": "uint256",
          "name": "",
          "type": "uint256"
        }
      ],
      "stateMutability": "view",
      "type": "function"
    },
    {
      "inputs": [],
      "name": "protocolFeeRate",
      "outputs": [
        {
          "internalType": "uint256",
          "name": "",
          "type": "uint256"
        }
      ],
      "stateMutability": "view",
      "type": "function"
    },
    {
      "inputs": [
        {
          "internalType": "address",
          "name": "user",
          "type": "address"
        },
        {
          "internalType": "uint256",
          "name": "depositIndex",
          "type": "uint256"
        }
      ],
      "name": "releasePayment",
      "outputs": [],
      "stateMutability": "nonpayable",
      "type": "function"
    },
    {
      "inputs": [
        {
          "internalType": "address",
          "name": "strategy",
          "type": "address"
        },
        {
          "internalType": "string",
          "name": "reason",
          "type": "string"
        }
      ],
      "name": "removeStrategy",
      "outputs": [],
      "stateMutability": "nonpayable",
      "type": "function"
    },
    {
      "inputs": [
        {
          "internalType": "bytes32",
          "name": "role",
          "type": "bytes32"
        },
        {
          "internalType": "address",
          "name": "account",
          "type": "address"
        }
      ],
      "name": "renounceRole",
      "outputs": [],
      "stateMutability": "nonpayable",
      "type": "function"
    },
    {
      "inputs": [
        {
          "internalType": "bytes32",
          "name": "role",
          "type": "bytes32"
        },
        {
          "internalType": "address",
          "name": "account",
          "type": "address"
        }
      ],
      "name": "revokeRole",
      "outputs": [],
      "stateMutability": "nonpayable",
      "type": "function"
    },
    {
      "inputs": [
        {
          "internalType": "uint256",
          "name": "",
          "type": "uint256"
        }
      ],
      "name": "strategyList",
      "outputs": [
        {
          "internalType": "address",
          "name": "",
          "type": "address"
        }
      ],
      "stateMutability": "view",
      "type": "function"
    },
    {
      "inputs": [
        {
          "internalType": "address",
          "name": "",
          "type": "address"
        }
      ],
      "name": "strategyMetrics",
      "outputs": [
        {
          "internalType": "uint256",
          "name": "totalDeposited",
          "type": "uint256"
        },
        {
          "internalType": "uint256",
          "name": "totalYieldGenerated",
          "type": "uint256"
        },
        {
          "internalType": "uint256",
          "name": "averageAPY",
          "type": "uint256"
        },
        {
          "internalType": "uint256",
          "name": "lastUpdateTime",
          "type": "uint256"
        }
      ],
      "stateMutability": "view",
      "type": "function"
    },
    {
      "inputs": [
        {
          "internalType": "address",
          "name": "",
          "type": "address"
        }
      ],
      "name": "supportedStrategies",
      "outputs": [
        {
          "internalType": "contract IYieldStrategy",
          "name": "",
          "type": "address"
        }
      ],
      "stateMutability": "view",
      "type": "function"
    },
    {
      "inputs": [
        {
          "internalType": "address",
          "name": "",
          "type": "address"
        }
      ],
      "name": "supportedTokens",
      "outputs": [
        {
          "internalType": "bool",
          "name": "",
          "type": "bool"
        }
      ],
      "stateMutability": "view",
      "type": "function"
    },
    {
      "inputs": [
        {
          "internalType": "bytes4",
          "name": "interfaceId",
          "type": "bytes4"
        }
      ],
      "name": "supportsInterface",
      "outputs": [
        {
          "internalType": "bool",
          "name": "",
          "type": "bool"
        }
      ],
      "stateMutability": "view",
      "type": "function"
    },
    {
      "inputs": [
        {
          "internalType": "uint256",
          "name": "",
          "type": "uint256"
        }
      ],
      "name": "tokenList",
      "outputs": [
        {
          "internalType": "address",
          "name": "",
          "type": "address"
        }
      ],
      "stateMutability": "view",
      "type": "function"
    },
    {
      "inputs": [],
      "name": "unpause",
      "outputs": [],
      "stateMutability": "nonpayable",
      "type": "function"
    },
    {
      "inputs": [
        {
          "internalType": "uint256",
          "name": "newFeeRate",
          "type": "uint256"
        }
      ],
      "name": "updateProtocolFeeRate",
      "outputs": [],
      "stateMutability": "nonpayable",
      "type": "function"
    },
    {
      "inputs": [
        {
          "internalType": "address",
          "name": "",
          "type": "address"
        }
      ],
      "name": "userDailyVolume",
      "outputs": [
        {
          "internalType": "uint256",
          "name": "",
          "type": "uint256"
        }
      ],
      "stateMutability": "view",
      "type": "function"
    },
    {
      "inputs": [
        {
          "internalType": "address",
          "name": "",
          "type": "address"
        }
      ],
      "name": "userDepositCount",
      "outputs": [
        {
          "internalType": "uint256",
          "name": "",
          "type": "uint256"
        }
      ],
      "stateMutability": "view",
      "type": "function"
    },
    {
      "inputs": [
        {
          "internalType": "address",
          "name": "",
          "type": "address"
        },
        {
          "internalType": "uint256",
          "name": "",
          "type": "uint256"
        }
      ],
      "name": "userDeposits",
      "outputs": [
        {
          "internalType": "uint256",
          "name": "amount",
          "type": "uint256"
        },
        {
          "internalType": "uint256",
          "name": "timestamp",
          "type": "uint256"
        },
        {
          "internalType": "address",
          "name": "token",
          "type": "address"
        },
        {
          "internalType": "address",
          "name": "merchant",
          "type": "address"
        },
        {
          "internalType": "address",
          "name": "yieldStrategy",
          "type": "address"
        },
        {
          "internalType": "uint256",
          "name": "yieldAccrued",
          "type": "uint256"
        },
        {
          "internalType": "uint256",
          "name": "lastYieldUpdate",
          "type": "uint256"
        },
        {
          "internalType": "bool",
          "name": "released",
          "type": "bool"
        },
        {
          "internalType": "bytes32",
          "name": "paymentHash",
          "type": "bytes32"
        },
        {
          "internalType": "string",
          "name": "metadata",
          "type": "string"
        }
      ],
      "stateMutability": "view",
      "type": "function"
    },
    {
      "inputs": [
        {
          "internalType": "address",
          "name": "",
          "type": "address"
        }
      ],
      "name": "userYieldBalances",
      "outputs": [
        {
          "internalType": "uint256",
          "name": "",
          "type": "uint256"
        }
      ],
      "stateMutability": "view",
      "type": "function"
    },
    {
      "inputs": [
        {
          "internalType": "address",
          "name": "token",
          "type": "address"
        },
        {
          "internalType": "uint256",
          "name": "amount",
          "type": "uint256"
        }
      ],
      "name": "withdrawMerchantBalance",
      "outputs": [],
      "stateMutability": "nonpayable",
      "type": "function"
    },
    {
      "inputs": [
        {
          "internalType": "address",
          "name": "token",
          "type": "address"
        },
        {
          "internalType": "uint256",
          "name": "amount",
          "type": "uint256"
        }
      ],
      "name": "withdrawProtocolFees",
      "outputs": [],
      "stateMutability": "nonpayable",
      "type": "function"
    },
    {
      "inputs": [
        {
          "internalType": "address",
          "name": "token",
          "type": "address"
        }
      ],
      "name": "withdrawUserYield",
      "outputs": [],
      "stateMutability": "nonpayable",
      "type": "function"
    }
  ],
  "bytecode": "0x6080346200019d576200322e90601f38839003908101601f19168201906001600160401b03821183831017620001a257808391604095869485528339810103126200019d576200004f81620001b8565b906200005f6020809201620001b8565b906000906001825560ff199081600154166001558260105560018060a01b03809516918215801562000192575b620001815783805260028252868420838552825260ff8785205416156200014a575b7fa49807205ce4d355092ef5a8a18f56e8913cf4a201fbe287825b095693c217759182855260028152878520848652815260ff88862054161562000110575b601180546001600160a01b03191687891617905587516130409081620001ce8239f35b8285526002815287852090848652526001878520918254161790556000805160206200320e833981519152339380a43880808080620000ed565b8380526002825286842083855282528684206001828254161790553383856000805160206200320e8339815191528180a4620000ae565b865163e6c4247b60e01b8152600490fd5b50858516156200008c565b600080fd5b634e487b7160e01b600052604160045260246000fd5b51906001600160a01b03821682036200019d5756fe608080604052600436101561001357600080fd5b60003560e01c90816301ffc9a7146120ec5750806308f43333146120155780630bd6b07014611f7457806314ae9d7d14611f575780631a7a73c214611f035780631ea30fef14611ee5578063248a9ca314611eb65780632a5bf6d214611dc45780632c178bd014611d855780632f2ff15d14611cd257806336568abe14611c40578063392fe6b214611c1f5780633cbb4668146119f65780633f4ba83a1461196257806341f1c0d91461194257806346904840146119195780634c54ef841461187a57806351858e271461182157806358f85880146118035780635c975abb146117e0578063607110581461171557806361e98db8146116f75780636340d55c1461169957806368c4ac261461165a578063720138e81461163b578063729c3e0e1461160157806374f0314f146115e357806375b238fc146115a85780637f3f16011461156e578063877c79a814610dda5780638ea447e614610d3957806391d1485414610cec578063943ca3b914610cc0578063966ecf3b146108ac57806399fcfb431461087b5780639ead722214610820578063a217fddf14610804578063a267526b146107c2578063ab36cb6614610788578063abcbe0b21461074d578063b26025aa146106a9578063b3d358391461066e578063b6e8502614610612578063d547741f146105d1578063d6fbf61c14610503578063dacf3df9146104e6578063e1f1c4a7146104c9578063e7f5165a1461048f578063ee3be5f514610454578063f54b7fb414610425578063f5b541a6146103ea578063f6727092146103cd5763f939be111461026657600080fd5b346103c85760603660031901126103c85761027f61213f565b610287612155565b6044356001600160401b0381116103c8576102a690369060040161239f565b926102af612661565b6001600160a01b0390811692831580156103be575b6103ac5783600052600a60205260ff6040600020541661039a578360005260096020526040600020846001600160601b0360a01b825416179055600a6020526040600020600160ff19825416179055600b54600160401b811015610384577f0a6d61c25dd73692b246d702e41b676092851383053847152454787009572ca19361035782600161037f9401600b5561240f565b81549060031b908689831b921b19161790556040519384936020855216966020840191612eee565b0390a3005b634e487b7160e01b600052604160045260246000fd5b604051632711b74d60e11b8152600490fd5b60405163e6c4247b60e01b8152600490fd5b50818116156102c4565b600080fd5b346103c85760003660031901126103c85760206040516107d08152f35b346103c85760003660031901126103c85760206040517f97667070c54ef182b0f5858b034beac1b6f3089aa2d3188bb1e8929f4fa9b9298152f35b346103c85760403660031901126103c857602061044c61044361213f565b60243590612db6565b604051908152f35b346103c85760203660031901126103c85760206001600160a01b038061047861213f565b166000526009825260406000205416604051908152f35b346103c85760203660031901126103c8576001600160a01b036104b061213f565b1660005260076020526020604060002054604051908152f35b346103c85760003660031901126103c85760206040516127108152f35b346103c85760003660031901126103c85760206040516103e88152f35b346103c85760203660031901126103c85761051c61213f565b610524612ac1565b6001600160a01b03166000818152600c602052604090205460ff16156105bf573360005260076020526040600020549081156105ad5733600052600760205260006040812055610575823383612ced565b60405191825260208201527f2e440ef4db71c471feb663084d681b2e02de7fd708ef717172f488d50067d1a060403392a26001600055005b604051631e9acf1760e31b8152600490fd5b604051633dd1b30560e01b8152600490fd5b346103c85760403660031901126103c8576106106004356105f0612155565b9080600052600260205261060b6001604060002001546127a6565b6128b1565b005b346103c85760203660031901126103c8576001600160a01b0361063361213f565b166000526012602052608060406000208054906001810154906003600282015491015491604051938452602084015260408301526060820152f35b346103c85760003660031901126103c85760206040517f3c4a2d89ed8b4cf4347fec87df1c38410f8fc538bf9fd64c10f2717bc0feff368152f35b346103c85760003660031901126103c857600080600b54905b8181106106d457602083604051908152f35b6106dd8161240f565b9060018060a01b03809154600393841b1c16600052602091600a835260ff60406000205416610718575b50505061071390612a6e565b6106c2565b6107449284969260129261072e6107139761240f565b9054911b1c166000525260406000205490612927565b92908480610707565b346103c85760003660031901126103c85760206040517f4170d100a3a3728ae51207936ee755ecaa64a7f6e9383c642ab204a136f90b1b8152f35b346103c85760203660031901126103c8576001600160a01b036107a961213f565b16600052600f6020526020604060002054604051908152f35b346103c85760203660031901126103c857600435600b548110156103c8576107eb60209161240f565b905460405160039290921b1c6001600160a01b03168152f35b346103c85760003660031901126103c857602060405160008152f35b346103c85760203660031901126103c857600435600d548110156103c857600d6000527fd7b6990105719101dabeb77144f2a3385c8033acd3af97e9423a695e81ad1eb501546040516001600160a01b039091168152602090f35b346103c85760203660031901126103c8576004356000526005602052602060ff604060002054166040519015158152f35b346103c85760403660031901126103c8576108c561213f565b602435906108d1612ac1565b6108d9612a7d565b60018060a01b03918282169182600052602060048152604060002054831015610cae57836000526003815261091283604060002061216b565b509460038601938185541633141580610c6b575b610c5957600787019060ff825416610c4757600861095c8892836000526003875261095581604060002061216b565b5097612db6565b9586600582015542600682015501547ff3122f87791d6eff15d1abbfc04281db2f68fe1e63071cc87f02dfb207365549604080518881528888820152a3805460ff19166001179055821592611b588181029082820414851715610c3157612710809104906107d08084029084820414871715610c315704916109e7836109e28484612ce0565b612ce0565b936109f3848b54612927565b8189541660005260068752610a0e6040600020918254612927565b905588600052600786526040600020610a28848254612927565b9055610a3685600854612927565b600855610a44828b54612927565b60048b019060008884845416602460405180948193632e1a7d4d60e01b83528760048401525af160009181610c02575b50610a8b576040516303302af560e51b8152600490fd5b10610bf05781905416806000526012875260406000209760018901610ab1858254612927565b90554260038a015515610b16575b507f4fd5c0b26e24b2b00b557765b057c3c07d8a2fb298ea4b3d87fe809d5e6571de96509060a0959493929160088b0154985416995494604051958652850152604084015260608301526080820152a46001600055005b8660049160405192838092634b16524b60e11b82525afa60009181610b90575b50907f4fd5c0b26e24b2b00b557765b057c3c07d8a2fb298ea4b3d87fe809d5e6571de9860a098979695949392610b75575b5050909192939495610abf565b6002610b849101918254612927565b60011c90558b80610b68565b97809796959493925088813d8311610be9575b610bad818361220e565b810103126103c8577f4fd5c0b26e24b2b00b557765b057c3c07d8a2fb298ea4b3d87fe809d5e6571de9860a09851929394959697985098610b36565b503d610ba3565b6040516312171d8360e31b8152600490fd5b9091508981813d8311610c2a575b610c1a818361220e565b810103126103c85751908e610a74565b503d610c10565b634e487b7160e01b600052601160045260246000fd5b604051637408912960e11b8152600490fd5b604051635ed15cf960e01b8152600490fd5b507f97667070c54ef182b0f5858b034beac1b6f3089aa2d3188bb1e8929f4fa9b92960005260028352604060002033600052835260ff6040600020541615610926565b60405163411321ed60e01b8152600490fd5b346103c85760203660031901126103c857600435600052600e6020526020604060002054604051908152f35b346103c85760403660031901126103c857610d05612155565b600435600052600260205260406000209060018060a01b0316600052602052602060ff604060002054166040519015158152f35b346103c857610d47366123cc565b9091610d51612661565b6001600160a01b03166000818152600a602052604090205490929060ff1615610dc8577fa214ec724672a94bf6c67d879945ada3446bdd623baed4584c515309b8573a2c9183600052600a602052604060002060ff198154169055610dc3604051928392602084526020840191612eee565b0390a2005b604051631b92e95360e31b8152600490fd5b346103c85760c03660031901126103c857610df3612155565b604435906001600160a01b03821682036103c8576064356001600160a01b03811690036103c85760a4356001600160401b0381116103c857610e3990369060040161239f565b610e44929192612ac1565b610e4c612a7d565b620f424060043510801561155e575b61154c576001600160a01b03821615801561153b575b8015611528575b6103ac576001600160a01b0382166000908152600c602052604090205460ff16156105bf576064356001600160a01b03166000908152600a602052604090205460ff1615610dc857608435600052600560205260ff6040600020541661151657620151804204600052600e6020526509184e72a000610efe600435604060002054612927565b116114f2573360005260046020526103e860406000205410156115045733600052600f60205265048c27395000610f3c600435604060002054612927565b116114f2576040516323b872dd60e01b60208201523360248201523060448201526004356064820152606481528060a08101106001600160401b0360a0830111176103845760a08101604052610f9b906001600160a01b038416612b17565b33600052600460205260406000205492600360205260406000209060405192610fc3846121f2565b600435845242602085018190526001600160a01b0386811660408701528881166060870152606435166080860152600060a0860181905260c086019190915260e085015260843561010085015261101981612934565b91611027604051938461220e565b81835236828201116103c8578160009260209283860137830101526101208301528054600160401b811015610384576110659160018201815561216b565b9190916114dc578061012091518355602081015160018401556002830160018060a01b03604083015116906001600160601b0360a01b91828254161790556003840160018060a01b0360608401511682825416179055600484019060018060a01b036080840151169082541617905560a0810151600584015560c081015160068401556007830160e0820151151560ff80198354169116179055610100810151600884015501518051906001600160401b0382116103845761112a600984015461219d565b601f8111611495575b50602090601f831160011461142557600992916000918361141a575b50508160011b916000199060031b1c1916179101555b336000526004602052604060002061117d8154612a6e565b905560843560005260056020526040600020600160ff1982541617905560043515801561139e575b1561133a5760405163095ea7b360e01b6020820152606480356001600160a01b0316602483015260043560448084019190915282526111f891906111e9908261220e565b6001600160a01b038316612b17565b60405163b6b55f2560e01b8152600480359082015260208160248160006064356001600160a01b03165af1801561132e57611303575b50602092620151804204600052600e845260406000206112516004358254612927565b905533600052600f8452604060002061126d6004358254612927565b905560018060a01b03606435166000526012845260406000206112936004358254612927565b815542600390910155604080516001600160a01b03938416815260043586820152606435841691810191909152606081018490529116903390608435907f75ab645e4be4b4ec5b3feaf8e588258ecfc0e501fa619998920a13ac2a17248190608090a46001600055604051908152f35b602090813d8311611327575b611319818361220e565b810103126103c8578361122e565b503d61130f565b6040513d6000823e3d90fd5b60405162461bcd60e51b815260206004820152603660248201527f5361666545524332303a20617070726f76652066726f6d206e6f6e2d7a65726f60448201527520746f206e6f6e2d7a65726f20616c6c6f77616e636560501b6064820152608490fd5b50604051636eb1769f60e11b81523060048201526001600160a01b03606435811660248301526020908290604490829086165afa90811561132e576000916113e8575b50156111a5565b90506020813d602011611412575b816114036020938361220e565b810103126103c85751846113e1565b3d91506113f6565b01519050878061114f565b906009840160005260206000209160005b601f198516811061147d5750918391600193600995601f19811610611464575b505050811b01910155611165565b015160001960f88460031b161c19169055878080611456565b91926020600181928685015181550194019201611436565b600984016000526020600020601f840160051c8101602085106114d5575b601f830160051c820181106114c9575050611133565b600081556001016114b3565b50806114b3565b634e487b7160e01b600052600060045260246000fd5b604051630652f4c560e21b8152600490fd5b6040516361eea57560e11b8152600490fd5b60405163424e8d7160e01b8152600490fd5b506064356001600160a01b031615610e78565b506001600160a01b03841615610e71565b60405163162908e360e11b8152600490fd5b5064e8d4a5100060043511610e5b565b346103c85760203660031901126103c8576001600160a01b0361158f61213f565b1660005260066020526020604060002054604051908152f35b346103c85760003660031901126103c85760206040517fa49807205ce4d355092ef5a8a18f56e8913cf4a201fbe287825b095693c217758152f35b346103c85760003660031901126103c8576020604051620151808152f35b346103c85760203660031901126103c8576001600160a01b0361162261213f565b1660005260046020526020604060002054604051908152f35b346103c85761061061164c366123cc565b91611655612446565b612f0f565b346103c85760203660031901126103c8576001600160a01b0361167b61213f565b16600052600c602052602060ff604060002054166040519015158152f35b346103c85760203660031901126103c8576004356116b5612446565b6103e8811161154c5760407fb404cac19fb1cbeff98d325795b08886e3cd8fe8cb1a2f193aac66f13fb239c391601054908060105582519182526020820152a1005b346103c85760003660031901126103c8576020600854604051908152f35b346103c85760403660031901126103c8576117b861173161213f565b602435604051611740816121f2565b6000815260006020820152600060408201526000606082015260006080820152600060a0820152600060c0820152600060e0820152600061010082015260606101208201529160018060a01b0316600052600460205260406000205481106117bc575b5060405191829160208352602083019061231d565b0390f35b6117da91506117d4906003602052604060002061216b565b50612d2e565b826117a3565b346103c85760003660031901126103c857602060ff600154166040519015158152f35b346103c85760003660031901126103c8576020601054604051908152f35b346103c85760003660031901126103c85761183a612446565b611842612a7d565b600160ff19815416176001557f62e78cea01bee320cd4e420270b5ea74000d11b0c9f74754ebdbfc544b05a2586020604051338152a1005b346103c85760403660031901126103c85761189361213f565b6024359061189f612ac1565b6001600160a01b03166000818152600c602052604090205490919060ff16156105bf573360005260066020526040600020549081156105ad57806119135750805b81116105ad5761190c913360005260066020526040600020611903838254612ce0565b90553390612ced565b6001600055005b906118e0565b346103c85760003660031901126103c8576011546040516001600160a01b039091168152602090f35b346103c85760003660031901126103c857602060405164e8d4a510008152f35b346103c85760003660031901126103c85761197b612446565b60015460ff8116156119ba5760ff19166001557f5db9ee0a495bf2e6ff9c91a7834c1ba4fdd244a5e8aa4e537bd38aeae4b073aa6020604051338152a1005b60405162461bcd60e51b815260206004820152601460248201527314185d5cd8589b194e881b9bdd081c185d5cd95960621b6044820152606490fd5b346103c85760403660031901126103c8576004356024356001600160401b0381116103c857611a2990369060040161239f565b91611a32612ac1565b3360005260209060048252604060002054811015610cae57611a60903360005260038352604060002061216b565b509060078201805460ff8116610c475760ff191660011790556004828101548354604051631bfc726f60e21b815230938101939093526001600160a01b03929183169184816024816000875af160009181611bf0575b50611ba85750600091602485926040519485938492632e1a7d4d60e01b845260048401525af160009181611b59575b507ff9a641acc5c9067014d12a6d17ed1f5ebaa0c5756ebb3d4c26d9a2cbac5baeba94611b4492600892611b4e5750611b29600080955b3390600285015416612ced565b01549460408051948594855284015233966040840191612eee565b0390a36001600055005b611b29908095611b1c565b9091508381813d8311611ba1575b611b71818361220e565b810103126103c85751907ff9a641acc5c9067014d12a6d17ed1f5ebaa0c5756ebb3d4c26d9a2cbac5baeba611ae5565b503d611b67565b611b44925094611b296008927ff9a641acc5c9067014d12a6d17ed1f5ebaa0c5756ebb3d4c26d9a2cbac5baeba97818111600014611be957505b8095611b1c565b9050611be2565b9091508581813d8311611c18575b611c08818361220e565b810103126103c857519089611ab6565b503d611bfe565b346103c85760003660031901126103c85760206040516509184e72a0008152f35b346103c85760403660031901126103c857611c59612155565b336001600160a01b03821603611c7557610610906004356128b1565b60405162461bcd60e51b815260206004820152602f60248201527f416363657373436f6e74726f6c3a2063616e206f6e6c792072656e6f756e636560448201526e103937b632b9903337b91039b2b63360891b6064820152608490fd5b346103c85760403660031901126103c857600435611cee612155565b816000526002602052611d086001604060002001546127a6565b81600052600260205260406000209060018060a01b0316908160005260205260ff6040600020541615611d3757005b8160005260026020526040600020816000526020526040600020600160ff1982541617905533917f2f8788117e7eff1d82e926ec794901d17c78024a50270940304540a733656f0d600080a4005b346103c85760203660031901126103c8576001600160a01b03611da661213f565b16600052600a602052602060ff604060002054166040519015158152f35b346103c8576020806003193601126103c8576001600160a01b03611de661213f565b166000526003815260406000208054906001600160401b03821161038457829060405192611e19838260051b018561220e565b8084528284018092600052836000206000915b838310611e935750505050604051918083019381845251809452604083019360408160051b85010192916000955b828710611e675785850386f35b909192938280611e83600193603f198a8203018652885161231d565b9601920196019592919092611e5a565b600a86600192611ea5859a999a612d2e565b815201920192019190959495611e2c565b346103c85760203660031901126103c85760043560005260026020526020600160406000200154604051908152f35b346103c85760003660031901126103c8576020604051620f42408152f35b346103c85760403660031901126103c857611f1c61213f565b602435611f27612446565b600854918282116105ad57611f3f8261061094612ce0565b6008556011546001600160a01b039081169116612ced565b346103c85760003660031901126103c8576020604051611b588152f35b346103c85760203660031901126103c857611f8d61213f565b60006060604051611f9d816121d7565b828152826020820152826040820152015260018060a01b0316600052601260205260806040600020604051611fd1816121d7565b815491828252600181015460208301908152606060036002840154936040860194855201549301928352604051938452516020840152516040830152516060820152f35b346103c85760403660031901126103c85761202e61213f565b6001600160a01b0390811660009081526003602052604090208054602435908110156103c85761205d9161216b565b50906117b882549160018401549381600282015416918060038301541690600483015416600583015460068401549160ff600786015416936120a660096008880154970161222f565b966040519a8b9a8b5260208b015260408a01526060890152608088015260a087015260c0860152151560e0850152610100840152610140806101208501528301906122f8565b346103c85760203660031901126103c8576004359063ffffffff60e01b82168092036103c857602091637965db0b60e01b811490811561212e575b5015158152f35b6301ffc9a760e01b14905083612127565b600435906001600160a01b03821682036103c857565b602435906001600160a01b03821682036103c857565b805482101561218757600052600a602060002091020190600090565b634e487b7160e01b600052603260045260246000fd5b90600182811c921680156121cd575b60208310146121b757565b634e487b7160e01b600052602260045260246000fd5b91607f16916121ac565b608081019081106001600160401b0382111761038457604052565b61014081019081106001600160401b0382111761038457604052565b90601f801991011681019081106001600160401b0382111761038457604052565b90604051918260008254926122438461219d565b9081845260019485811690816000146122b2575060011461226f575b505061226d9250038361220e565b565b9093915060005260209081600020936000915b81831061229a57505061226d9350820101388061225f565b85548884018501529485019487945091830191612282565b91505061226d94506020925060ff191682840152151560051b820101388061225f565b60005b8381106122e85750506000910152565b81810151838201526020016122d8565b90602091612311815180928185528580860191016122d5565b601f01601f1916010190565b9061239c91805182526020810151602083015260018060a01b03806040830151166040840152806060830151166060840152608082015116608083015260a081015160a083015260c081015160c083015260e0810151151560e083015261010080820151908301526101208091015191610140809282015201906122f8565b90565b9181601f840112156103c8578235916001600160401b0383116103c857602083818601950101116103c857565b9060406003198301126103c8576004356001600160a01b03811681036103c85791602435906001600160401b0382116103c85761240b9160040161239f565b9091565b600b5481101561218757600b6000527f0175b7a638427703f0dbe7bb9bbf987a2551717b34e79f33b5b1008d1fa01db90190600090565b3360009081527fe5ebfa64fca8d502a8e50c1edffd2c31ef4dad5b396e65d9f397fb028f74abc5602090815260408083205490927fa49807205ce4d355092ef5a8a18f56e8913cf4a201fbe287825b095693c217759160ff16156124aa5750505050565b6124b333612960565b918451906124c0826121d7565b6042825284820192606036853782511561264d576030845382519060019182101561264d5790607860218501536041915b8183116125df5750505061259d57604861259993869361257d9361256e985198899376020b1b1b2b9b9a1b7b73a3937b61d1030b1b1b7bab73a1604d1b8a860152612545815180928c6037890191016122d5565b8401917001034b99036b4b9b9b4b733903937b6329607d1b6037840152518093868401906122d5565b0103602881018752018561220e565b5192839262461bcd60e51b8452600484015260248301906122f8565b0390fd5b60648486519062461bcd60e51b825280600483015260248201527f537472696e67733a20686578206c656e67746820696e73756666696369656e746044820152fd5b909192600f81166010811015612639576f181899199a1a9b1b9c1cb0b131b232b360811b901a61260f858761294f565b5360041c928015612625576000190191906124f1565b634e487b7160e01b82526011600452602482fd5b634e487b7160e01b83526032600452602483fd5b634e487b7160e01b81526032600452602490fd5b3360009081527f5a10db7eb5fb087477f68987ff09c6ebb13410247d1a97126552f0c97385b266602090815260408083205490927f4170d100a3a3728ae51207936ee755ecaa64a7f6e9383c642ab204a136f90b1b9160ff16156126c55750505050565b6126ce33612960565b918451906126db826121d7565b6042825284820192606036853782511561264d576030845382519060019182101561264d5790607860218501536041915b8183116127605750505061259d57604861259993869361257d9361256e985198899376020b1b1b2b9b9a1b7b73a3937b61d1030b1b1b7bab73a1604d1b8a860152612545815180928c6037890191016122d5565b909192600f81166010811015612639576f181899199a1a9b1b9c1cb0b131b232b360811b901a612790858761294f565b5360041c9280156126255760001901919061270c565b60009080825260209060028252604092838120338252835260ff8482205416156127d05750505050565b6127d933612960565b918451906127e6826121d7565b6042825284820192606036853782511561264d576030845382519060019182101561264d5790607860218501536041915b81831161286b5750505061259d57604861259993869361257d9361256e985198899376020b1b1b2b9b9a1b7b73a3937b61d1030b1b1b7bab73a1604d1b8a860152612545815180928c6037890191016122d5565b909192600f81166010811015612639576f181899199a1a9b1b9c1cb0b131b232b360811b901a61289b858761294f565b5360041c92801561262557600019019190612817565b906000918083526002602052604083209160018060a01b03169182845260205260ff6040842054166128e257505050565b8083526002602052604083208284526020526040832060ff1981541690557ff6391f5c32d9c69d2a47ea670b442974b53935d1edc7fd64eb21e047a839171b339380a4565b91908201809211610c3157565b6001600160401b03811161038457601f01601f191660200190565b908151811015612187570160200190565b60405190606082018281106001600160401b0382111761038457604052602a82526020820160403682378251156121875760309053815160019081101561218757607860218401536029905b808211612a005750506129bc5790565b606460405162461bcd60e51b815260206004820152602060248201527f537472696e67733a20686578206c656e67746820696e73756666696369656e746044820152fd5b9091600f81166010811015612a59576f181899199a1a9b1b9c1cb0b131b232b360811b901a612a2f848661294f565b5360041c918015612a445760001901906129ac565b60246000634e487b7160e01b81526011600452fd5b60246000634e487b7160e01b81526032600452fd5b6000198114610c315760010190565b60ff60015416612a8957565b60405162461bcd60e51b815260206004820152601060248201526f14185d5cd8589b194e881c185d5cd95960821b6044820152606490fd5b600260005414612ad2576002600055565b60405162461bcd60e51b815260206004820152601f60248201527f5265656e7472616e637947756172643a207265656e7472616e742063616c6c006044820152606490fd5b60018060a01b03169060405160408101908082106001600160401b0383111761038457612ba6916040526020938482527f5361666545524332303a206c6f772d6c6576656c2063616c6c206661696c6564858301526000808587829751910182855af13d15612c43573d91612b8b83612934565b92612b99604051948561220e565b83523d868885013e612c47565b805191821591848315612c18575b505050905015612bc15750565b6084906040519062461bcd60e51b82526004820152602a60248201527f5361666545524332303a204552433230206f7065726174696f6e20646964206e6044820152691bdd081cdd58d8d9595960b21b6064820152fd5b919381809450010312612c3f57820151908115158203612c3c575080388084612bb4565b80fd5b5080fd5b6060915b91929015612ca95750815115612c5b575090565b3b15612c645790565b60405162461bcd60e51b815260206004820152601d60248201527f416464726573733a2063616c6c20746f206e6f6e2d636f6e74726163740000006044820152606490fd5b825190915015612cbc5750805190602001fd5b60405162461bcd60e51b8152602060048201529081906125999060248301906122f8565b91908203918211610c3157565b60405163a9059cbb60e01b60208201526001600160a01b0392909216602483015260448083019390935291815261226d91612d2960648361220e565b612b17565b90604051612d3b816121f2565b610120612db160098395805485526001810154602086015260018060a01b038060028301541660408701528060038301541660608701526004820154166080860152600581015460a0860152600681015460c086015260ff600782015416151560e086015260088101546101008601520161222f565b910152565b6001600160a01b0390811660009081526004602090815260408220549194939091811015612ee9576117d4612df291600384526040872061216b565b9160e0830151612edf5790602491608084018282825116604051958680926337be4ce960e11b82523060048301525afa879481612eac575b50612e3b575050505060a001519150565b5116855260129052604084205490811580612ea15760a0840151935191828102928184041490151715612e8d57612e795761239c9394500490612927565b634e487b7160e01b85526012600452602485fd5b634e487b7160e01b86526011600452602486fd5b50505060a001519150565b9094508381813d8311612ed8575b612ec4818361220e565b81010312612ed457519338612e2a565b8780fd5b503d612eba565b505060a001519150565b505050565b908060209392818452848401376000828201840152601f01601f1916010190565b9192916001600160a01b03169081156103ac57600093828552600c60205260408520805460ff81166130015760ff19166001179055600d54600160401b811015612fed576001810180600d55811015612fd957600d7f7afee0f1b802cc0f66c67890e26b4566251859cf2cd8de79b86aed7251d9756a949596527fd7b6990105719101dabeb77144f2a3385c8033acd3af97e9423a695e81ad1eb501846001600160601b0360a01b825416179055612fd4604051928392602084526020840191612eee565b0390a2565b634e487b7160e01b86526032600452602486fd5b634e487b7160e01b86526041600452602486fd5b5050505050905056fea264697066735822122024908f8f4c82ee583b250887b15ebb158b500b262237b876e736e5f791aa91ea64736f6c634300081400332f8788117e7eff1d82e926ec794901d17c78024a50270940304540a733656f0d",
  "linkReferences": {},
  "deployedLinkReferences": {}
}