{
  "_format": "hh-sol-artifact-1",
  "contractName": "MockYieldStrategy",
  "sourceName": "src/mocks/MockYieldStrategy.sol",
  "abi": [
    {
      "inputs": [
        {
          "internalType": "address",
          "name": "_asset",
          "type": "address"
        }
      ],
      "stateMutability": "nonpayable",
      "type": "constructor"
    },
    {
      "anonymous": false,
      "inputs": [
        {
          "indexed": true,
          "internalType": "address",
          "name": "user",
          "type": "address"
        },
        {
          "indexed": false,
          "internalType": "uint256",
          "name": "amount",
          "type": "uint256"
        },
        {
          "indexed": false,
          "internalType": "uint256",
          "name": "shares",
          "type": "uint256"
        }
      ],
      "name": "Deposit",
      "type": "event"
    },
    {
      "anonymous": false,
      "inputs": [
        {
          "indexed": false,
          "internalType": "string",
          "name": "parameter",
          "type": "string"
        },
        {
          "indexed": false,
          "internalType": "uint256",
          "name": "oldValue",
          "type": "uint256"
        },
        {
          "indexed": false,
          "internalType": "uint256",
          "name": "newValue",
          "type": "uint256"
        }
      ],
      "name": "StrategyUpdated",
      "type": "event"
    },
    {
      "anonymous": false,
      "inputs": [
        {
          "indexed": true,
          "internalType": "address",
          "name": "user",
          "type": "address"
        },
        {
          "indexed": false,
          "internalType": "uint256",
          "name": "amount",
          "type": "uint256"
        },
        {
          "indexed": false,
          "internalType": "uint256",
          "name": "shares",
          "type": "uint256"
        }
      ],
      "name": "Withdrawal",
      "type": "event"
    },
    {
      "anonymous": false,
      "inputs": [
        {
          "indexed": false,
          "internalType": "uint256",
          "name": "yieldAmount",
          "type": "uint256"
        },
        {
          "indexed": false,
          "internalType": "uint256",
          "name": "newTotalAssets",
          "type": "uint256"
        }
      ],
      "name": "YieldHarvested",
      "type": "event"
    },
    {
      "inputs": [],
      "name": "asset",
      "outputs": [
        {
          "internalType": "address",
          "name": "",
          "type": "address"
        }
      ],
      "stateMutability": "view",
      "type": "function"
    },
    {
      "inputs": [
        {
          "internalType": "address",
          "name": "user",
          "type": "address"
        }
      ],
      "name": "balanceOf",
      "outputs": [
        {
          "internalType": "uint256",
          "name": "",
          "type": "uint256"
        }
      ],
      "stateMutability": "view",
      "type": "function"
    },
    {
      "inputs": [
        {
          "internalType": "address",
          "name": "user",
          "type": "address"
        }
      ],
      "name": "calculateUserYield",
      "outputs": [
        {
          "internalType": "uint256",
          "name": "",
          "type": "uint256"
        }
      ],
      "stateMutability": "view",
      "type": "function"
    },
    {
      "inputs": [
        {
          "internalType": "uint256",
          "name": "principal",
          "type": "uint256"
        },
        {
          "internalType": "uint256",
          "name": "timeInSeconds",
          "type": "uint256"
        }
      ],
      "name": "calculateYield",
      "outputs": [
        {
          "internalType": "uint256",
          "name": "",
          "type": "uint256"
        }
      ],
      "stateMutability": "view",
      "type": "function"
    },
    {
      "inputs": [
        {
          "internalType": "uint256",
          "name": "shares",
          "type": "uint256"
        }
      ],
      "name": "convertToAssets",
      "outputs": [
        {
          "internalType": "uint256",
          "name": "",
          "type": "uint256"
        }
      ],
      "stateMutability": "view",
      "type": "function"
    },
    {
      "inputs": [
        {
          "internalType": "uint256",
          "name": "assets",
          "type": "uint256"
        }
      ],
      "name": "convertToShares",
      "outputs": [
        {
          "internalType": "uint256",
          "name": "",
          "type": "uint256"
        }
      ],
      "stateMutability": "view",
      "type": "function"
    },
    {
      "inputs": [],
      "name": "currentAPY",
      "outputs": [
        {
          "internalType": "uint256",
          "name": "",
          "type": "uint256"
        }
      ],
      "stateMutability": "view",
      "type": "function"
    },
    {
      "inputs": [
        {
          "internalType": "uint256",
          "name": "amount",
          "type": "uint256"
        }
      ],
      "name": "deposit",
      "outputs": [
        {
          "internalType": "uint256",
          "name": "shares",
          "type": "uint256"
        }
      ],
      "stateMutability": "nonpayable",
      "type": "function"
    },
    {
      "inputs": [
        {
          "internalType": "address",
          "name": "user",
          "type": "address"
        }
      ],
      "name": "emergencyWithdraw",
      "outputs": [
        {
          "internalType": "uint256",
          "name": "amount",
          "type": "uint256"
        }
      ],
      "stateMutability": "nonpayable",
      "type": "function"
    },
    {
      "inputs": [],
      "name": "getCurrentAPY",
      "outputs": [
        {
          "internalType": "uint256",
          "name": "",
          "type": "uint256"
        }
      ],
      "stateMutability": "view",
      "type": "function"
    },
    {
      "inputs": [
        {
          "internalType": "uint256",
          "name": "",
          "type": "uint256"
        }
      ],
      "name": "getPerformanceData",
      "outputs": [
        {
          "internalType": "uint256",
          "name": "",
          "type": "uint256"
        }
      ],
      "stateMutability": "view",
      "type": "function"
    },
    {
      "inputs": [],
      "name": "getRiskScore",
      "outputs": [
        {
          "internalType": "uint256",
          "name": "",
          "type": "uint256"
        }
      ],
      "stateMutability": "pure",
      "type": "function"
    },
    {
      "inputs": [],
      "name": "getStrategyInfo",
      "outputs": [
        {
          "components": [
            {
              "internalType": "string",
              "name": "name",
              "type": "string"
            },
            {
              "internalType": "string",
              "name": "description",
              "type": "string"
            },
            {
              "internalType": "uint256",
              "name": "totalAssets",
              "type": "uint256"
            },
            {
              "internalType": "uint256",
              "name": "totalShares",
              "type": "uint256"
            },
            {
              "internalType": "uint256",
              "name": "currentAPY",
              "type": "uint256"
            },
            {
              "internalType": "uint256",
              "name": "riskScore",
              "type": "uint256"
            },
            {
              "internalType": "uint256",
              "name": "lastHarvest",
              "type": "uint256"
            },
            {
              "internalType": "bool",
              "name": "active",
              "type": "bool"
            }
          ],
          "internalType": "struct IYieldStrategy.StrategyInfo",
          "name": "",
          "type": "tuple"
        }
      ],
      "stateMutability": "view",
      "type": "function"
    },
    {
      "inputs": [],
      "name": "getTotalYieldGenerated",
      "outputs": [
        {
          "internalType": "uint256",
          "name": "",
          "type": "uint256"
        }
      ],
      "stateMutability": "view",
      "type": "function"
    },
    {
      "inputs": [],
      "name": "harvestYield",
      "outputs": [
        {
          "internalType": "uint256",
          "name": "",
          "type": "uint256"
        }
      ],
      "stateMutability": "nonpayable",
      "type": "function"
    },
    {
      "inputs": [],
      "name": "isProfitable",
      "outputs": [
        {
          "internalType": "bool",
          "name": "",
          "type": "bool"
        }
      ],
      "stateMutability": "pure",
      "type": "function"
    },
    {
      "inputs": [],
      "name": "maxCapacity",
      "outputs": [
        {
          "internalType": "uint256",
          "name": "",
          "type": "uint256"
        }
      ],
      "stateMutability": "pure",
      "type": "function"
    },
    {
      "inputs": [],
      "name": "name",
      "outputs": [
        {
          "internalType": "string",
          "name": "",
          "type": "string"
        }
      ],
      "stateMutability": "view",
      "type": "function"
    },
    {
      "inputs": [
        {
          "internalType": "uint256",
          "name": "apy",
          "type": "uint256"
        }
      ],
      "name": "setCurrentAPY",
      "outputs": [],
      "stateMutability": "nonpayable",
      "type": "function"
    },
    {
      "inputs": [
        {
          "internalType": "string",
          "name": "strategyName",
          "type": "string"
        }
      ],
      "name": "setName",
      "outputs": [],
      "stateMutability": "nonpayable",
      "type": "function"
    },
    {
      "inputs": [
        {
          "internalType": "bool",
          "name": "shouldFail",
          "type": "bool"
        }
      ],
      "name": "setShouldFail",
      "outputs": [],
      "stateMutability": "nonpayable",
      "type": "function"
    },
    {
      "inputs": [
        {
          "internalType": "uint256",
          "name": "amount",
          "type": "uint256"
        }
      ],
      "name": "setUserYield",
      "outputs": [],
      "stateMutability": "nonpayable",
      "type": "function"
    },
    {
      "inputs": [],
      "name": "totalAssets",
      "outputs": [
        {
          "internalType": "uint256",
          "name": "",
          "type": "uint256"
        }
      ],
      "stateMutability": "view",
      "type": "function"
    },
    {
      "inputs": [],
      "name": "totalDeposited",
      "outputs": [
        {
          "internalType": "uint256",
          "name": "",
          "type": "uint256"
        }
      ],
      "stateMutability": "view",
      "type": "function"
    },
    {
      "inputs": [],
      "name": "utilizationRate",
      "outputs": [
        {
          "internalType": "uint256",
          "name": "",
          "type": "uint256"
        }
      ],
      "stateMutability": "view",
      "type": "function"
    },
    {
      "inputs": [
        {
          "internalType": "uint256",
          "name": "shares",
          "type": "uint256"
        }
      ],
      "name": "withdraw",
      "outputs": [
        {
          "internalType": "uint256",
          "name": "amount",
          "type": "uint256"
        }
      ],
      "stateMutability": "nonpayable",
      "type": "function"
    }
  ],
  "bytecode": "0x60a03461011f57601f6110d538819003918201601f19168301916001600160401b038311848410176101245780849260209460405283398101031261011f57516001600160a01b038116810361011f5761019060045560ff1960055416600555608052600080546001908181811c91168015610115575b602082101461010157601f81116100d8575b7f4d6f636b2053747261746567790000000000000000000000000000000000001a8355604051610f9a908161013b82396080518181816103e0015281816108530152818161090c0152610efa0152f35b828052601f60208420910160051c8101905b8181106100f75750610088565b83815582016100ea565b634e487b7160e01b83526022600452602483fd5b90607f1690610076565b600080fd5b634e487b7160e01b600052604160045260246000fdfe6040608081526004908136101561001557600080fd5b600090813560e01c92836301e1d11414610aea578363043cbe5b14610aac57836306fdde03146109c657836307a2d13a146109a75783632b35f739146108825783632e1a7d4d1461089d5783633612ddda1461088257836338d52e0f1461083f57836339a243331461082557836339c1a8e8146108075783633fd18893146107ea57836359b6a0c9146107ce5783636c321c8a1461070c5783636f7c99d2146106975783636ff1c9bc1461066857836370a08231146106305783638b66268c146106165783639613092d146104c7578363962ca496146104c25783639a79d32b146104c2578363a5aa5c1214610493578363b6b55f2514610383578363c47f0027146101c2578363c6e6f5921461019957508263e8d991d11461014857505063ff50abdc1461014357600080fd5b610aea565b34610195578160031936011261019557602090600354907f3fb12fb590bb295327f3bfc48158ada0b1147f8f823e0c7a09b98b301d1867748160015481519085825286820152a151908152f35b5080fd5b91346101bf5760203660031901126101bf57506101b860209235610f29565b9051908152f35b80fd5b8290346101955760208060031936011261037f5767ffffffffffffffff91803583811161037b573660238201121561037b57808201359061020e61020583610bdc565b97519788610bba565b8187523660248383010111610377578186926024869301838a013787010152845192831161036457506102418354610bf8565b601f8111610303575b5080601f831160011461028457508293829392610279575b50508160011b916000199060031b1c191617815580f35b015190508380610262565b838052601f198316947f290decd9548b62a8d60345a988386fc84ba6bc95484008f6362f93160ef3e563929185905b8782106102eb5750508360019596106102d2575b505050811b01815580f35b015160001960f88460031b161c191690558380806102c7565b806001859682949686015181550195019301906102b3565b8380527f290decd9548b62a8d60345a988386fc84ba6bc95484008f6362f93160ef3e563601f840160051c81019183851061035a575b601f0160051c01905b81811061034f575061024a565b848155600101610342565b9091508190610339565b634e487b7160e01b845260419052602483fd5b8580fd5b8480fd5b8280fd5b92503461019557602036600319011261019557823581516323b872dd60e01b60208201523360248201523060448201528160648201526064815260a0810181811067ffffffffffffffff8211176104805783526020945061040d907f00000000000000000000000000000000000000000000000000000000000000006001600160a01b0316610c88565b8161041782610f29565b93338152600686522061042b848254610c7b565b905561043983600254610c7b565b60025561044881600154610c7b565b600155815190815282848201527f90890809c654f11d6e72a28fa60149770a0d11ec6c92319d6ceb2bb0a4ea1a15823392a251908152f35b634e487b7160e01b855260418652602485fd5b90503461019557602036600319011261019557358015158091036101955760ff80196005541691161760055580f35b610b4d565b903461037f578260031936011261037f5780516105d9936104e782610b6b565b6060825260e060209260608482015282858201528260608201528260808201528260a08201528260c0820152015260015491600254935481519461052a86610b6b565b825161053581610b9e565b600d81526c4d6f636b20537472617465677960981b85820152865282519161055c83610b9e565b601f83527f4d6f636b207969656c6420737472617465677920666f722074657374696e670085840152848701928352838701958652606087019182526080870190815260a0870191600183526105ec60c089019442865260e08a01966001885280519b8c9b8a8d52518c6101009b8c9101526101208d0190610b0d565b915190601f198c840301908c0152610b0d565b965160608901525160808801525160a08701525160c08601525160e0850152511515908301520390f35b905034610195576020366003190112610195573560035580f35b3461037f57602036600319011261037f57356001600160a01b0381169081900361037f57828291602094526006845220549051908152f35b3461037f57602036600319011261037f5735916001600160a01b03831683036101bf57506101b8602092610e9b565b82346101bf5760203660031901126101bf5781356001600160a01b038116036101bf575060ff600554166106d2576020826003549051908152f35b6020606492519162461bcd60e51b835282015260156024820152744d6f636b207374726174656779206661696c75726560581b6044820152fd5b91346101bf57806003193601126101bf57600154928315806107c2576127108086029586041417156107af576020835180926359b6a0c960e01b825281305afa9182156107a457809261076e575b50506101b890602093610c5b565b51908152f35b9091506020823d821161079c575b8161078960209383610bba565b810103126101bf575051826101b861075a565b3d915061077c565b8351903d90823e3d90fd5b634e487b7160e01b825260119052602490fd5b50506020925090610768565b5034610195578160031936011261019557516000198152602090f35b3461037f57602036600319011261037f5760209250549051908152f35b50346101955781600319360112610195576020906003549051908152f35b905034610195576020366003190112610195578035905580f35b5034610195578160031936011261019557517f00000000000000000000000000000000000000000000000000000000000000006001600160a01b03168152602090f35b50346101955781600319360112610195576020905160018152f35b925034610195576020928360031936011261037f578035903384526006855281838520541061096e5750816108d182610f4b565b9333815260068652206108e5828254610e3c565b90556108f381600254610e3c565b60025561090283600154610e3c565b60015561093983337f00000000000000000000000000000000000000000000000000000000000000006001600160a01b0316610e49565b815190838252848201527fdf273cb619d95419a9cd0ec88123a0538c85064229baa6363788f743fff90deb823392a251908152f35b825162461bcd60e51b81529081018590526013602482015272496e73756666696369656e742073686172657360681b6044820152606490fd5b91346101bf5760203660031901126101bf57506101b860209235610f4b565b50346101955781600319360112610195578051908280546109e681610bf8565b80855291600191808316908115610a845750600114610a28575b505050610a1282610a24940383610bba565b51918291602083526020830190610b0d565b0390f35b80809650527f290decd9548b62a8d60345a988386fc84ba6bc95484008f6362f93160ef3e5635b828610610a6c57505050610a12826020610a249582010194610a00565b80546020878701810191909152909501948101610a4f565b610a24975086935060209250610a1294915060ff191682840152151560051b82010194610a00565b91346101bf57816003193601126101bf57506301e13380610ae2602093612710610adc6024359280549035610c32565b04610c32565b049051908152f35b34610b08576000366003190112610b08576020600154604051908152f35b600080fd5b919082519283825260005b848110610b39575050826000602080949584010152601f8019910116010190565b602081830181015184830182015201610b18565b34610b08576000366003190112610b08576020600454604051908152f35b610100810190811067ffffffffffffffff821117610b8857604052565b634e487b7160e01b600052604160045260246000fd5b6040810190811067ffffffffffffffff821117610b8857604052565b90601f8019910116810190811067ffffffffffffffff821117610b8857604052565b67ffffffffffffffff8111610b8857601f01601f191660200190565b90600182811c92168015610c28575b6020831014610c1257565b634e487b7160e01b600052602260045260246000fd5b91607f1691610c07565b81810292918115918404141715610c4557565b634e487b7160e01b600052601160045260246000fd5b8115610c65570490565b634e487b7160e01b600052601260045260246000fd5b91908201809211610c4557565b60018060a01b031690610d05604051610ca081610b9e565b6020938482527f5361666545524332303a206c6f772d6c6576656c2063616c6c206661696c6564858301526000808587829751910182855af13d15610d9b573d91610cea83610bdc565b92610cf86040519485610bba565b83523d868885013e610d9f565b805191821591848315610d77575b505050905015610d205750565b6084906040519062461bcd60e51b82526004820152602a60248201527f5361666545524332303a204552433230206f7065726174696f6e20646964206e6044820152691bdd081cdd58d8d9595960b21b6064820152fd5b919381809450010312610195578201519081151582036101bf575080388084610d13565b6060915b91929015610e015750815115610db3575090565b3b15610dbc5790565b60405162461bcd60e51b815260206004820152601d60248201527f416464726573733a2063616c6c20746f206e6f6e2d636f6e74726163740000006044820152606490fd5b825190915015610e145750805190602001fd5b60405162461bcd60e51b815260206004820152908190610e38906024830190610b0d565b0390fd5b91908203918211610c4557565b60405163a9059cbb60e01b60208201526001600160a01b039092166024830152604480830193909352918152608081019167ffffffffffffffff831182841017610b8857610e9992604052610c88565b565b6001600160a01b03818116600081815260066020526040812054909390928315610f2257610ee684610ecf610f1f96610f4b565b968795815260066020526040812055600254610e3c565b600255610ef583600154610e3c565b6001557f000000000000000000000000000000000000000000000000000000000000000016610e49565b90565b5050505090565b6001548015610f4757610f42610f1f9260025490610c32565b610c5b565b5090565b6002548015610f4757610f42610f1f9260015490610c3256fea26469706673582212205aead6aa61a8b33ed75e86f933fed8c5f5a9239eb73f9d47710d96e9e11f9d5464736f6c63430008140033",
  "linkReferences": {},
  "deployedLinkReferences": {}
}