{
  "_format": "hh-sol-artifact-1",
  "contractName": "MockYieldStrategy",
  "sourceName": "src/mocks/MockYieldStrategy.sol",
  "abi": [
    {
      "inputs": [
        {
          "internalType": "address",
          "name": "_asset",
          "type": "address"
        }
      ],
      "stateMutability": "nonpayable",
      "type": "constructor"
    },
    {
      "anonymous": false,
      "inputs": [
        {
          "indexed": true,
          "internalType": "address",
          "name": "user",
          "type": "address"
        },
        {
          "indexed": false,
          "internalType": "uint256",
          "name": "amount",
          "type": "uint256"
        },
        {
          "indexed": false,
          "internalType": "uint256",
          "name": "shares",
          "type": "uint256"
        }
      ],
      "name": "Deposit",
      "type": "event"
    },
    {
      "anonymous": false,
      "inputs": [
        {
          "indexed": false,
          "internalType": "string",
          "name": "parameter",
          "type": "string"
        },
        {
          "indexed": false,
          "internalType": "uint256",
          "name": "oldValue",
          "type": "uint256"
        },
        {
          "indexed": false,
          "internalType": "uint256",
          "name": "newValue",
          "type": "uint256"
        }
      ],
      "name": "StrategyUpdated",
      "type": "event"
    },
    {
      "anonymous": false,
      "inputs": [
        {
          "indexed": true,
          "internalType": "address",
          "name": "user",
          "type": "address"
        },
        {
          "indexed": false,
          "internalType": "uint256",
          "name": "amount",
          "type": "uint256"
        },
        {
          "indexed": false,
          "internalType": "uint256",
          "name": "shares",
          "type": "uint256"
        }
      ],
      "name": "Withdrawal",
      "type": "event"
    },
    {
      "anonymous": false,
      "inputs": [
        {
          "indexed": false,
          "internalType": "uint256",
          "name": "yieldAmount",
          "type": "uint256"
        },
        {
          "indexed": false,
          "internalType": "uint256",
          "name": "newTotalAssets",
          "type": "uint256"
        }
      ],
      "name": "YieldHarvested",
      "type": "event"
    },
    {
      "inputs": [],
      "name": "asset",
      "outputs": [
        {
          "internalType": "address",
          "name": "",
          "type": "address"
        }
      ],
      "stateMutability": "view",
      "type": "function"
    },
    {
      "inputs": [
        {
          "internalType": "address",
          "name": "user",
          "type": "address"
        }
      ],
      "name": "balanceOf",
      "outputs": [
        {
          "internalType": "uint256",
          "name": "",
          "type": "uint256"
        }
      ],
      "stateMutability": "view",
      "type": "function"
    },
    {
      "inputs": [
        {
          "internalType": "address",
          "name": "user",
          "type": "address"
        }
      ],
      "name": "calculateUserYield",
      "outputs": [
        {
          "internalType": "uint256",
          "name": "",
          "type": "uint256"
        }
      ],
      "stateMutability": "view",
      "type": "function"
    },
    {
      "inputs": [
        {
          "internalType": "uint256",
          "name": "shares",
          "type": "uint256"
        }
      ],
      "name": "convertToAssets",
      "outputs": [
        {
          "internalType": "uint256",
          "name": "",
          "type": "uint256"
        }
      ],
      "stateMutability": "view",
      "type": "function"
    },
    {
      "inputs": [
        {
          "internalType": "uint256",
          "name": "assets",
          "type": "uint256"
        }
      ],
      "name": "convertToShares",
      "outputs": [
        {
          "internalType": "uint256",
          "name": "",
          "type": "uint256"
        }
      ],
      "stateMutability": "view",
      "type": "function"
    },
    {
      "inputs": [
        {
          "internalType": "uint256",
          "name": "amount",
          "type": "uint256"
        }
      ],
      "name": "deposit",
      "outputs": [
        {
          "internalType": "uint256",
          "name": "shares",
          "type": "uint256"
        }
      ],
      "stateMutability": "nonpayable",
      "type": "function"
    },
    {
      "inputs": [
        {
          "internalType": "address",
          "name": "user",
          "type": "address"
        }
      ],
      "name": "emergencyWithdraw",
      "outputs": [
        {
          "internalType": "uint256",
          "name": "amount",
          "type": "uint256"
        }
      ],
      "stateMutability": "nonpayable",
      "type": "function"
    },
    {
      "inputs": [],
      "name": "getCurrentAPY",
      "outputs": [
        {
          "internalType": "uint256",
          "name": "",
          "type": "uint256"
        }
      ],
      "stateMutability": "view",
      "type": "function"
    },
    {
      "inputs": [
        {
          "internalType": "uint256",
          "name": "",
          "type": "uint256"
        }
      ],
      "name": "getPerformanceData",
      "outputs": [
        {
          "internalType": "uint256",
          "name": "",
          "type": "uint256"
        }
      ],
      "stateMutability": "view",
      "type": "function"
    },
    {
      "inputs": [],
      "name": "getRiskScore",
      "outputs": [
        {
          "internalType": "uint256",
          "name": "",
          "type": "uint256"
        }
      ],
      "stateMutability": "pure",
      "type": "function"
    },
    {
      "inputs": [],
      "name": "getStrategyInfo",
      "outputs": [
        {
          "components": [
            {
              "internalType": "string",
              "name": "name",
              "type": "string"
            },
            {
              "internalType": "string",
              "name": "description",
              "type": "string"
            },
            {
              "internalType": "uint256",
              "name": "totalAssets",
              "type": "uint256"
            },
            {
              "internalType": "uint256",
              "name": "totalShares",
              "type": "uint256"
            },
            {
              "internalType": "uint256",
              "name": "currentAPY",
              "type": "uint256"
            },
            {
              "internalType": "uint256",
              "name": "riskScore",
              "type": "uint256"
            },
            {
              "internalType": "uint256",
              "name": "lastHarvest",
              "type": "uint256"
            },
            {
              "internalType": "bool",
              "name": "active",
              "type": "bool"
            }
          ],
          "internalType": "struct IYieldStrategy.StrategyInfo",
          "name": "",
          "type": "tuple"
        }
      ],
      "stateMutability": "view",
      "type": "function"
    },
    {
      "inputs": [],
      "name": "getTotalYieldGenerated",
      "outputs": [
        {
          "internalType": "uint256",
          "name": "",
          "type": "uint256"
        }
      ],
      "stateMutability": "view",
      "type": "function"
    },
    {
      "inputs": [],
      "name": "harvestYield",
      "outputs": [
        {
          "internalType": "uint256",
          "name": "",
          "type": "uint256"
        }
      ],
      "stateMutability": "nonpayable",
      "type": "function"
    },
    {
      "inputs": [],
      "name": "isProfitable",
      "outputs": [
        {
          "internalType": "bool",
          "name": "",
          "type": "bool"
        }
      ],
      "stateMutability": "pure",
      "type": "function"
    },
    {
      "inputs": [],
      "name": "maxCapacity",
      "outputs": [
        {
          "internalType": "uint256",
          "name": "",
          "type": "uint256"
        }
      ],
      "stateMutability": "pure",
      "type": "function"
    },
    {
      "inputs": [
        {
          "internalType": "uint256",
          "name": "apy",
          "type": "uint256"
        }
      ],
      "name": "setCurrentAPY",
      "outputs": [],
      "stateMutability": "nonpayable",
      "type": "function"
    },
    {
      "inputs": [
        {
          "internalType": "bool",
          "name": "shouldFail",
          "type": "bool"
        }
      ],
      "name": "setShouldFail",
      "outputs": [],
      "stateMutability": "nonpayable",
      "type": "function"
    },
    {
      "inputs": [
        {
          "internalType": "uint256",
          "name": "amount",
          "type": "uint256"
        }
      ],
      "name": "setUserYield",
      "outputs": [],
      "stateMutability": "nonpayable",
      "type": "function"
    },
    {
      "inputs": [],
      "name": "totalAssets",
      "outputs": [
        {
          "internalType": "uint256",
          "name": "",
          "type": "uint256"
        }
      ],
      "stateMutability": "view",
      "type": "function"
    },
    {
      "inputs": [],
      "name": "utilizationRate",
      "outputs": [
        {
          "internalType": "uint256",
          "name": "",
          "type": "uint256"
        }
      ],
      "stateMutability": "view",
      "type": "function"
    },
    {
      "inputs": [
        {
          "internalType": "uint256",
          "name": "shares",
          "type": "uint256"
        }
      ],
      "name": "withdraw",
      "outputs": [
        {
          "internalType": "uint256",
          "name": "amount",
          "type": "uint256"
        }
      ],
      "stateMutability": "nonpayable",
      "type": "function"
    }
  ],
  "bytecode": "0x60a03461008f57601f610cfe38819003918201601f19168301916001600160401b038311848410176100945780849260209460405283398101031261008f57516001600160a01b038116810361008f5761019060035560ff1960045416600455608052604051610c5390816100ab82396080518181816101e30152818161067f015281816107380152610b800152f35b600080fd5b634e487b7160e01b600052604160045260246000fdfe608060408181526004918236101561001657600080fd5b600092833560e01c91826301e1d114146107f35750816307a2d13a146107d35781632b35f739146106ae5781632e1a7d4d146106ca5781633612ddda146106ae57816338d52e0f1461066a57816339a243331461065057816339c1a8e8146106315781633fd188931461061157816359b6a0c9146105f45781636c321c8a146105325781636f7c99d2146104bc5781636ff1c9bc1461048b57816370a08231146104515781638b66268c146104375781639613092d146102e6578163962ca496146102c7578163a5aa5c1214610295578163b6b55f2514610186578163c6e6f5921461015c575063e8d991d11461010c57600080fd5b3461015857816003193601126101585790817f3fb12fb590bb295327f3bfc48158ada0b1147f8f823e0c7a09b98b301d186774602093600254935481519085825286820152a151908152f35b5080fd5b828434610183576020366003190112610183575061017c60209235610be2565b9051908152f35b80fd5b83833461015857602036600319011261015857823581516323b872dd60e01b60208201523360248201523060448201528160648201526064815260a0810181811067ffffffffffffffff82111761028257835260209450610210907f00000000000000000000000000000000000000000000000000000000000000006001600160a01b03166108e1565b61021981610be2565b923381526005855282812061022f85825461084d565b905561023d8460015461084d565b60015561024b82825461084d565b9055815190815282848201527f90890809c654f11d6e72a28fa60149770a0d11ec6c92319d6ceb2bb0a4ea1a15823392a251908152f35b634e487b7160e01b855260418652602485fd5b8390346101585760203660031901126101585780358015158091036102c35760ff8019835416911617905580f35b8280fd5b5050346101585781600319360112610158576020906003549051908152f35b50503461015857816003193601126101585780516103fa9261030782610870565b606082528060e060209360608582015282868201528260608201528260808201528260a08201528260c0820152015254906001549260035481519461034b86610870565b8251610356816108a3565b600d81526c4d6f636b20537472617465677960981b85820152865282519161037d836108a3565b601f83527f4d6f636b207969656c6420737472617465677920666f722074657374696e670085840152848701928352838701958652606087019182526080870190815260a08701916001835261040d60c089019442865260e08a01966001885280519b8c9b8a8d52518c6101009b8c9101526101208d019061080d565b915190601f198c840301908c015261080d565b965160608901525160808801525160a08701525160c08601525160e0850152511515908301520390f35b839034610158576020366003190112610158573560025580f35b9050346102c35760203660031901126102c357356001600160a01b038116908190036102c357828291602094526005845220549051908152f35b9050346102c35760203660031901126102c35735916001600160a01b0383168303610183575061017c602092610b21565b905082346101835760203660031901126101835781356001600160a01b03811603610183575060ff8154166104f8576020826002549051908152f35b6020606492519162461bcd60e51b835282015260156024820152744d6f636b207374726174656779206661696c75726560581b6044820152fd5b8284346101835780600319360112610183578054928315806105e8576127108086029586041417156105d5576020835180926359b6a0c960e01b825281305afa9182156105ca578092610594575b505061017c90602093610bc2565b51908152f35b9091506020823d82116105c2575b816105af602093836108bf565b810103126101835750518261017c610580565b3d91506105a2565b8351903d90823e3d90fd5b634e487b7160e01b825260119052602490fd5b5050602092509061058e565b505034610158578160031936011261015857516000198152602090f35b505034610158576020366003190112610158576020906003549051908152f35b5050346101585781600319360112610158576020906002549051908152f35b839034610158576020366003190112610158573560035580f35b505034610158578160031936011261015857517f00000000000000000000000000000000000000000000000000000000000000006001600160a01b03168152602090f35b5050346101585781600319360112610158576020905160018152f35b83833461015857602092836003193601126102c3578035903384526005855281838520541061079a57506106fd81610c04565b9233815260058552828120610713838254610ac2565b905561072182600154610ac2565b60015561072f848254610ac2565b905561076583337f00000000000000000000000000000000000000000000000000000000000000006001600160a01b0316610acf565b815190838252848201527fdf273cb619d95419a9cd0ec88123a0538c85064229baa6363788f743fff90deb823392a251908152f35b825162461bcd60e51b81529081018590526013602482015272496e73756666696369656e742073686172657360681b6044820152606490fd5b828434610183576020366003190112610183575061017c60209235610c04565b849034610158578160031936011261015857602091548152f35b919082519283825260005b848110610839575050826000602080949584010152601f8019910116010190565b602081830181015184830182015201610818565b9190820180921161085a57565b634e487b7160e01b600052601160045260246000fd5b610100810190811067ffffffffffffffff82111761088d57604052565b634e487b7160e01b600052604160045260246000fd5b6040810190811067ffffffffffffffff82111761088d57604052565b90601f8019910116810190811067ffffffffffffffff82111761088d57604052565b60018060a01b0316906040516108f6816108a3565b6020928382527f5361666545524332303a206c6f772d6c6576656c2063616c6c206661696c6564848301526000808486829651910182855af13d15610a1b573d9167ffffffffffffffff8311610a0757906109719392916040519261096488601f19601f84011601856108bf565b83523d868885013e610a25565b8051918215918483156109e3575b50505090501561098c5750565b6084906040519062461bcd60e51b82526004820152602a60248201527f5361666545524332303a204552433230206f7065726174696f6e20646964206e6044820152691bdd081cdd58d8d9595960b21b6064820152fd5b9193818094500103126101585782015190811515820361018357508038808461097f565b634e487b7160e01b85526041600452602485fd5b9061097192916060915b91929015610a875750815115610a39575090565b3b15610a425790565b60405162461bcd60e51b815260206004820152601d60248201527f416464726573733a2063616c6c20746f206e6f6e2d636f6e74726163740000006044820152606490fd5b825190915015610a9a5750805190602001fd5b60405162461bcd60e51b815260206004820152908190610abe90602483019061080d565b0390fd5b9190820391821161085a57565b60405163a9059cbb60e01b60208201526001600160a01b039092166024830152604480830193909352918152608081019167ffffffffffffffff83118284101761088d57610b1f926040526108e1565b565b6001600160a01b03818116600081815260056020526040812054909390928315610ba8578394610b6e610b56610ba596610c04565b96879583526005602052826040812055600154610ac2565b600155610b7c848254610ac2565b90557f000000000000000000000000000000000000000000000000000000000000000016610acf565b90565b5050505090565b8181029291811591840414171561085a57565b8115610bcc570490565b634e487b7160e01b600052601260045260246000fd5b6000548015610c0057610bfb610ba59260015490610baf565b610bc2565b5090565b6001548015610c0057610bfb610ba59260005490610baf56fea264697066735822122012d25b7e44b6ebd2e86131d5a15b35f4cfeb207dcfc24e11a19c54a5f8f16ac064736f6c63430008140033",
  "linkReferences": {},
  "deployedLinkReferences": {}
}