{"src/YieldEscrowUltra.sol":{"YieldEscrowUltra":{"abi":[{"inputs":[],"name":"DepositNotFound","type":"error"},{"inputs":[],"name":"InvalidAmount","type":"error"},{"inputs":[],"name":"PaymentProcessed","type":"error"},{"inputs":[],"name":"TokenNotSupported","type":"error"},{"inputs":[],"name":"Unauthorized","type":"error"},{"anonymous":false,"inputs":[{"indexed":true,"internalType":"bytes32","name":"paymentHash","type":"bytes32"},{"indexed":true,"internalType":"address","name":"user","type":"address"},{"indexed":false,"internalType":"uint256","name":"amount","type":"uint256"}],"name":"DepositCreated","type":"event"},{"anonymous":false,"inputs":[{"indexed":true,"internalType":"bytes32","name":"paymentHash","type":"bytes32"},{"indexed":true,"internalType":"address","name":"user","type":"address"},{"indexed":false,"internalType":"uint256","name":"amount","type":"uint256"}],"name":"PaymentReleased","type":"event"},{"anonymous":false,"inputs":[{"indexed":true,"internalType":"address","name":"token","type":"address"},{"indexed":false,"internalType":"bool","name":"supported","type":"bool"}],"name":"TokenSupported","type":"event"},{"inputs":[{"internalType":"uint256","name":"amount","type":"uint256"},{"internalType":"address","name":"token","type":"address"},{"internalType":"address","name":"merchant","type":"address"},{"internalType":"bytes32","name":"paymentHash","type":"bytes32"}],"name":"createDeposit","outputs":[{"internalType":"uint256","name":"depositIndex","type":"uint256"}],"stateMutability":"nonpayable","type":"function"},{"inputs":[{"internalType":"address","name":"","type":"address"},{"internalType":"uint256","name":"","type":"uint256"}],"name":"depositMeta","outputs":[{"internalType":"address","name":"token","type":"address"},{"internalType":"address","name":"merchant","type":"address"}],"stateMutability":"view","type":"function"},{"inputs":[{"internalType":"address","name":"user","type":"address"},{"internalType":"uint256","name":"depositIndex","type":"uint256"}],"name":"getDeposit","outputs":[{"internalType":"uint256","name":"amount","type":"uint256"},{"internalType":"uint256","name":"depositTimestamp","type":"uint256"},{"internalType":"bool","name":"released","type":"bool"},{"internalType":"address","name":"token","type":"address"},{"internalType":"address","name":"merchant","type":"address"}],"stateMutability":"view","type":"function"},{"inputs":[{"internalType":"address","name":"","type":"address"},{"internalType":"uint256","name":"","type":"uint256"}],"name":"packedDeposits","outputs":[{"internalType":"uint256","name":"","type":"uint256"}],"stateMutability":"view","type":"function"},{"inputs":[{"internalType":"bytes32","name":"","type":"bytes32"}],"name":"processedPaymentHashes","outputs":[{"internalType":"bool","name":"","type":"bool"}],"stateMutability":"view","type":"function"},{"inputs":[{"internalType":"address","name":"user","type":"address"},{"internalType":"uint256","name":"depositIndex","type":"uint256"}],"name":"releasePayment","outputs":[],"stateMutability":"nonpayable","type":"function"},{"inputs":[{"internalType":"address","name":"token","type":"address"},{"internalType":"bool","name":"supported","type":"bool"}],"name":"setSupportedToken","outputs":[],"stateMutability":"nonpayable","type":"function"},{"inputs":[{"internalType":"address","name":"","type":"address"}],"name":"supportedTokens","outputs":[{"internalType":"bool","name":"","type":"bool"}],"stateMutability":"view","type":"function"},{"inputs":[{"internalType":"address","name":"","type":"address"}],"name":"userDepositCount","outputs":[{"internalType":"uint256","name":"","type":"uint256"}],"stateMutability":"view","type":"function"}],"devdoc":{"details":"Ultra-minimal escrow for <100k gas deposits  EXTREME TRADE-OFFS FOR GAS EFFICIENCY: - No access control (public admin functions) - No reentrancy protection - No pause mechanism - Minimal validation - Assembly optimizations - Single storage slot deposits  ⚠️ WARNING: This is for gas benchmarking only! ⚠️ NOT recommended for production use due to security trade-offs!","kind":"dev","methods":{"createDeposit(uint256,address,address,bytes32)":{"details":"Ultra-minimal deposit function targeting <100k gas","params":{"amount":"Deposit amount (must be > 0 and < 2^128)","merchant":"Merchant address","paymentHash":"Unique payment hash","token":"Token address"},"returns":{"depositIndex":"The deposit index  EXTREME OPTIMIZATIONS: - Packed storage (amount + timestamp + status in single slot) - Minimal validation - Assembly for gas efficiency - No security modifiers"}},"getDeposit(address,uint256)":{"details":"Get unpacked deposit data"},"releasePayment(address,uint256)":{"details":"Release payment to merchant (ultra optimized)"},"setSupportedToken(address,bool)":{"details":"Set token support (no access control for gas savings)"}},"stateVariables":{"depositMeta":{"details":"Deposit metadata: user => depositId => (token, merchant)"},"packedDeposits":{"details":"Packed deposit data: user => depositId => packedData PackedData = amount(128) + timestamp(32) + released(8) + padding(88)"},"processedPaymentHashes":{"details":"Processed payment hashes (hash => processed)"},"supportedTokens":{"details":"Supported tokens (token => supported)"},"userDepositCount":{"details":"User deposit counts"}},"title":"YieldEscrowUltra","version":1},"evm":{"bytecode":{"linkReferences":{},"object":"6080806040523461001657610797908161001c8239f35b600080fdfe604060808152600436101561001357600080fd5b600090813560e01c9182632726b506146100ad575050806368c4ac26146100a8578063729c3e0e146100a357806384e9abca1461009e578063966ecf3b1461009957806399fcfb4314610094578063b63de29f1461008f578063e79864661461008a5763f1adff0a1461008557600080fd5b6106ae565b610637565b6105ef565b6105be565b610468565b610220565b6101e6565b6101a7565b3461015d578160031936011261015d57610159610105836100cc610160565b6001600160a01b031680855260026020908152828620602435808852908252838720549287526003825283872090875290529320610739565b805160209182015194516001600160801b0385168152608085811c63ffffffff169382019390935260a094851c60ff16151560408201526001600160a01b0391821660608201529416908401528291820190565b0390f35b80fd5b600435906001600160a01b038216820361017657565b600080fd5b602435906001600160a01b038216820361017657565b604435906001600160a01b038216820361017657565b34610176576020366003190112610176576001600160a01b036101c8610160565b166000526000602052602060ff604060002054166040519015158152f35b34610176576020366003190112610176576001600160a01b03610207610160565b1660005260046020526020604060002054604051908152f35b3461017657608036600319011261017657600480359061023e61017b565b91610247610191565b906064358115801561045a575b6104495761028561028161027a8760018060a01b03166000526000602052604060002090565b5460ff1690565b1590565b610438576102a061027a826000526001602052604060002090565b610427573360009081526004602052604090205493604093600080606487516323b872dd60e01b81523386820152306024820152876044820152828b5af11561017657610159966103606103af9263ffffffff60801b4260801b166001600160801b038816176103358a6103263360018060a01b03166000526002602052604060002090565b90600052602052604060002090565b55610350610341610703565b6001600160a01b039094168452565b6001600160a01b03166020830152565b33600090815260036020526040902061037a908890610326565b815181546001600160a01b039182166001600160a01b0319918216178355602090930151600190920180549093169116179055565b602084510190848220913390528480510152600181540190556103ec6103df826000526001602052604060002090565b805460ff19166001179055565b825191825233917f2fc7f61216f4b9da63724a7ccba484452205b7cf651334640e3cd1120178600690602090a3519081529081906020820190565b60405163ea0e906b60e01b81528490fd5b604051633dd1b30560e01b81528490fd5b60405163162908e360e11b81528490fd5b50600160801b821015610254565b346101765760408060031936011261017657610482610160565b90602435906104a7826103268560018060a01b03166000526002602052604060002090565b549283156105ad576104d76104d2846103268460018060a01b03166000526003602052604060002090565b610739565b9160208301946104fc6104f0875160018060a01b031690565b6001600160a01b031690565b330361059d5760ff8160a01c16610176576001600160801b038116946044600097888097819582958984526002602052888420908452602052600160a01b17878320555191519186519263a9059cbb60e01b845260048401528960248401525af11561059957519283526001600160a01b0316917f1e170c3b430cc6fdcdaa453c42619ac587e13793aa81a489fab9ebd7019c2efb90602090a380f35b8280fd5b81516282b42960e81b8152600490fd5b815163411321ed60e01b8152600490fd5b34610176576020366003190112610176576004356000526001602052602060ff604060002054166040519015158152f35b34610176576040366003190112610176576001600160a01b03610610610160565b16600052600260205260406000206024356000526020526020604060002054604051908152f35b3461017657604036600319011261017657610650610160565b602435908115158092036101765760207fd86c88b4a367d9b81a6e00c9d3f7d01657bffef358fa8968c91c045ae99f0d529160018060a01b0316928360005260008252604060002060ff1981541660ff8316179055604051908152a2005b346101765760403660031901126101765760406001600160a01b03806106d2610160565b1660005260036020528160002060243560005260205281600020906001818354169201541682519182526020820152f35b604051906040820182811067ffffffffffffffff82111761072357604052565b634e487b7160e01b600052604160045260246000fd5b90610742610703565b82546001600160a01b039081168252600190930154909216602083015256fea26469706673582212204eebf82e18431aee5fd1e64d44b23d1e4efcca5890269b6f9050d47856a08ee064736f6c63430008140033","opcodes":"PUSH1 0x80 DUP1 PUSH1 0x40 MSTORE CALLVALUE PUSH2 0x16 JUMPI PUSH2 0x797 SWAP1 DUP2 PUSH2 0x1C DUP3 CODECOPY RETURN JUMPDEST PUSH1 0x0 DUP1 REVERT INVALID PUSH1 0x40 PUSH1 0x80 DUP2 MSTORE PUSH1 0x4 CALLDATASIZE LT ISZERO PUSH2 0x13 JUMPI PUSH1 0x0 DUP1 REVERT JUMPDEST PUSH1 0x0 SWAP1 DUP2 CALLDATALOAD PUSH1 0xE0 SHR SWAP2 DUP3 PUSH4 0x2726B506 EQ PUSH2 0xAD JUMPI POP POP DUP1 PUSH4 0x68C4AC26 EQ PUSH2 0xA8 JUMPI DUP1 PUSH4 0x729C3E0E EQ PUSH2 0xA3 JUMPI DUP1 PUSH4 0x84E9ABCA EQ PUSH2 0x9E JUMPI DUP1 PUSH4 0x966ECF3B EQ PUSH2 0x99 JUMPI DUP1 PUSH4 0x99FCFB43 EQ PUSH2 0x94 JUMPI DUP1 PUSH4 0xB63DE29F EQ PUSH2 0x8F JUMPI DUP1 PUSH4 0xE7986466 EQ PUSH2 0x8A JUMPI PUSH4 0xF1ADFF0A EQ PUSH2 0x85 JUMPI PUSH1 0x0 DUP1 REVERT JUMPDEST PUSH2 0x6AE JUMP JUMPDEST PUSH2 0x637 JUMP JUMPDEST PUSH2 0x5EF JUMP JUMPDEST PUSH2 0x5BE JUMP JUMPDEST PUSH2 0x468 JUMP JUMPDEST PUSH2 0x220 JUMP JUMPDEST PUSH2 0x1E6 JUMP JUMPDEST PUSH2 0x1A7 JUMP JUMPDEST CALLVALUE PUSH2 0x15D JUMPI DUP2 PUSH1 0x3 NOT CALLDATASIZE ADD SLT PUSH2 0x15D JUMPI PUSH2 0x159 PUSH2 0x105 DUP4 PUSH2 0xCC PUSH2 0x160 JUMP JUMPDEST PUSH1 0x1 PUSH1 0x1 PUSH1 0xA0 SHL SUB AND DUP1 DUP6 MSTORE PUSH1 0x2 PUSH1 0x20 SWAP1 DUP2 MSTORE DUP3 DUP7 KECCAK256 PUSH1 0x24 CALLDATALOAD DUP1 DUP9 MSTORE SWAP1 DUP3 MSTORE DUP4 DUP8 KECCAK256 SLOAD SWAP3 DUP8 MSTORE PUSH1 0x3 DUP3 MSTORE DUP4 DUP8 KECCAK256 SWAP1 DUP8 MSTORE SWAP1 MSTORE SWAP4 KECCAK256 PUSH2 0x739 JUMP JUMPDEST DUP1 MLOAD PUSH1 0x20 SWAP2 DUP3 ADD MLOAD SWAP5 MLOAD PUSH1 0x1 PUSH1 0x1 PUSH1 0x80 SHL SUB DUP6 AND DUP2 MSTORE PUSH1 0x80 DUP6 DUP2 SHR PUSH4 0xFFFFFFFF AND SWAP4 DUP3 ADD SWAP4 SWAP1 SWAP4 MSTORE PUSH1 0xA0 SWAP5 DUP6 SHR PUSH1 0xFF AND ISZERO ISZERO PUSH1 0x40 DUP3 ADD MSTORE PUSH1 0x1 PUSH1 0x1 PUSH1 0xA0 SHL SUB SWAP2 DUP3 AND PUSH1 0x60 DUP3 ADD MSTORE SWAP5 AND SWAP1 DUP5 ADD MSTORE DUP3 SWAP2 DUP3 ADD SWAP1 JUMP JUMPDEST SUB SWAP1 RETURN JUMPDEST DUP1 REVERT JUMPDEST PUSH1 0x4 CALLDATALOAD SWAP1 PUSH1 0x1 PUSH1 0x1 PUSH1 0xA0 SHL SUB DUP3 AND DUP3 SUB PUSH2 0x176 JUMPI JUMP JUMPDEST PUSH1 0x0 DUP1 REVERT JUMPDEST PUSH1 0x24 CALLDATALOAD SWAP1 PUSH1 0x1 PUSH1 0x1 PUSH1 0xA0 SHL SUB DUP3 AND DUP3 SUB PUSH2 0x176 JUMPI JUMP JUMPDEST PUSH1 0x44 CALLDATALOAD SWAP1 PUSH1 0x1 PUSH1 0x1 PUSH1 0xA0 SHL SUB DUP3 AND DUP3 SUB PUSH2 0x176 JUMPI JUMP JUMPDEST CALLVALUE PUSH2 0x176 JUMPI PUSH1 0x20 CALLDATASIZE PUSH1 0x3 NOT ADD SLT PUSH2 0x176 JUMPI PUSH1 0x1 PUSH1 0x1 PUSH1 0xA0 SHL SUB PUSH2 0x1C8 PUSH2 0x160 JUMP JUMPDEST AND PUSH1 0x0 MSTORE PUSH1 0x0 PUSH1 0x20 MSTORE PUSH1 0x20 PUSH1 0xFF PUSH1 0x40 PUSH1 0x0 KECCAK256 SLOAD AND PUSH1 0x40 MLOAD SWAP1 ISZERO ISZERO DUP2 MSTORE RETURN JUMPDEST CALLVALUE PUSH2 0x176 JUMPI PUSH1 0x20 CALLDATASIZE PUSH1 0x3 NOT ADD SLT PUSH2 0x176 JUMPI PUSH1 0x1 PUSH1 0x1 PUSH1 0xA0 SHL SUB PUSH2 0x207 PUSH2 0x160 JUMP JUMPDEST AND PUSH1 0x0 MSTORE PUSH1 0x4 PUSH1 0x20 MSTORE PUSH1 0x20 PUSH1 0x40 PUSH1 0x0 KECCAK256 SLOAD PUSH1 0x40 MLOAD SWAP1 DUP2 MSTORE RETURN JUMPDEST CALLVALUE PUSH2 0x176 JUMPI PUSH1 0x80 CALLDATASIZE PUSH1 0x3 NOT ADD SLT PUSH2 0x176 JUMPI PUSH1 0x4 DUP1 CALLDATALOAD SWAP1 PUSH2 0x23E PUSH2 0x17B JUMP JUMPDEST SWAP2 PUSH2 0x247 PUSH2 0x191 JUMP JUMPDEST SWAP1 PUSH1 0x64 CALLDATALOAD DUP2 ISZERO DUP1 ISZERO PUSH2 0x45A JUMPI JUMPDEST PUSH2 0x449 JUMPI PUSH2 0x285 PUSH2 0x281 PUSH2 0x27A DUP8 PUSH1 0x1 DUP1 PUSH1 0xA0 SHL SUB AND PUSH1 0x0 MSTORE PUSH1 0x0 PUSH1 0x20 MSTORE PUSH1 0x40 PUSH1 0x0 KECCAK256 SWAP1 JUMP JUMPDEST SLOAD PUSH1 0xFF AND SWAP1 JUMP JUMPDEST ISZERO SWAP1 JUMP JUMPDEST PUSH2 0x438 JUMPI PUSH2 0x2A0 PUSH2 0x27A DUP3 PUSH1 0x0 MSTORE PUSH1 0x1 PUSH1 0x20 MSTORE PUSH1 0x40 PUSH1 0x0 KECCAK256 SWAP1 JUMP JUMPDEST PUSH2 0x427 JUMPI CALLER PUSH1 0x0 SWAP1 DUP2 MSTORE PUSH1 0x4 PUSH1 0x20 MSTORE PUSH1 0x40 SWAP1 KECCAK256 SLOAD SWAP4 PUSH1 0x40 SWAP4 PUSH1 0x0 DUP1 PUSH1 0x64 DUP8 MLOAD PUSH4 0x23B872DD PUSH1 0xE0 SHL DUP2 MSTORE CALLER DUP7 DUP3 ADD MSTORE ADDRESS PUSH1 0x24 DUP3 ADD MSTORE DUP8 PUSH1 0x44 DUP3 ADD MSTORE DUP3 DUP12 GAS CALL ISZERO PUSH2 0x176 JUMPI PUSH2 0x159 SWAP7 PUSH2 0x360 PUSH2 0x3AF SWAP3 PUSH4 0xFFFFFFFF PUSH1 0x80 SHL TIMESTAMP PUSH1 0x80 SHL AND PUSH1 0x1 PUSH1 0x1 PUSH1 0x80 SHL SUB DUP9 AND OR PUSH2 0x335 DUP11 PUSH2 0x326 CALLER PUSH1 0x1 DUP1 PUSH1 0xA0 SHL SUB AND PUSH1 0x0 MSTORE PUSH1 0x2 PUSH1 0x20 MSTORE PUSH1 0x40 PUSH1 0x0 KECCAK256 SWAP1 JUMP JUMPDEST SWAP1 PUSH1 0x0 MSTORE PUSH1 0x20 MSTORE PUSH1 0x40 PUSH1 0x0 KECCAK256 SWAP1 JUMP JUMPDEST SSTORE PUSH2 0x350 PUSH2 0x341 PUSH2 0x703 JUMP JUMPDEST PUSH1 0x1 PUSH1 0x1 PUSH1 0xA0 SHL SUB SWAP1 SWAP5 AND DUP5 MSTORE JUMP JUMPDEST PUSH1 0x1 PUSH1 0x1 PUSH1 0xA0 SHL SUB AND PUSH1 0x20 DUP4 ADD MSTORE JUMP JUMPDEST CALLER PUSH1 0x0 SWAP1 DUP2 MSTORE PUSH1 0x3 PUSH1 0x20 MSTORE PUSH1 0x40 SWAP1 KECCAK256 PUSH2 0x37A SWAP1 DUP9 SWAP1 PUSH2 0x326 JUMP JUMPDEST DUP2 MLOAD DUP2 SLOAD PUSH1 0x1 PUSH1 0x1 PUSH1 0xA0 SHL SUB SWAP2 DUP3 AND PUSH1 0x1 PUSH1 0x1 PUSH1 0xA0 SHL SUB NOT SWAP2 DUP3 AND OR DUP4 SSTORE PUSH1 0x20 SWAP1 SWAP4 ADD MLOAD PUSH1 0x1 SWAP1 SWAP3 ADD DUP1 SLOAD SWAP1 SWAP4 AND SWAP2 AND OR SWAP1 SSTORE JUMP JUMPDEST PUSH1 0x20 DUP5 MLOAD ADD SWAP1 DUP5 DUP3 KECCAK256 SWAP2 CALLER SWAP1 MSTORE DUP5 DUP1 MLOAD ADD MSTORE PUSH1 0x1 DUP2 SLOAD ADD SWAP1 SSTORE PUSH2 0x3EC PUSH2 0x3DF DUP3 PUSH1 0x0 MSTORE PUSH1 0x1 PUSH1 0x20 MSTORE PUSH1 0x40 PUSH1 0x0 KECCAK256 SWAP1 JUMP JUMPDEST DUP1 SLOAD PUSH1 0xFF NOT AND PUSH1 0x1 OR SWAP1 SSTORE JUMP JUMPDEST DUP3 MLOAD SWAP2 DUP3 MSTORE CALLER SWAP2 PUSH32 0x2FC7F61216F4B9DA63724A7CCBA484452205B7CF651334640E3CD11201786006 SWAP1 PUSH1 0x20 SWAP1 LOG3 MLOAD SWAP1 DUP2 MSTORE SWAP1 DUP2 SWAP1 PUSH1 0x20 DUP3 ADD SWAP1 JUMP JUMPDEST PUSH1 0x40 MLOAD PUSH4 0xEA0E906B PUSH1 0xE0 SHL DUP2 MSTORE DUP5 SWAP1 REVERT JUMPDEST PUSH1 0x40 MLOAD PUSH4 0x3DD1B305 PUSH1 0xE0 SHL DUP2 MSTORE DUP5 SWAP1 REVERT JUMPDEST PUSH1 0x40 MLOAD PUSH4 0x162908E3 PUSH1 0xE1 SHL DUP2 MSTORE DUP5 SWAP1 REVERT JUMPDEST POP PUSH1 0x1 PUSH1 0x80 SHL DUP3 LT ISZERO PUSH2 0x254 JUMP JUMPDEST CALLVALUE PUSH2 0x176 JUMPI PUSH1 0x40 DUP1 PUSH1 0x3 NOT CALLDATASIZE ADD SLT PUSH2 0x176 JUMPI PUSH2 0x482 PUSH2 0x160 JUMP JUMPDEST SWAP1 PUSH1 0x24 CALLDATALOAD SWAP1 PUSH2 0x4A7 DUP3 PUSH2 0x326 DUP6 PUSH1 0x1 DUP1 PUSH1 0xA0 SHL SUB AND PUSH1 0x0 MSTORE PUSH1 0x2 PUSH1 0x20 MSTORE PUSH1 0x40 PUSH1 0x0 KECCAK256 SWAP1 JUMP JUMPDEST SLOAD SWAP3 DUP4 ISZERO PUSH2 0x5AD JUMPI PUSH2 0x4D7 PUSH2 0x4D2 DUP5 PUSH2 0x326 DUP5 PUSH1 0x1 DUP1 PUSH1 0xA0 SHL SUB AND PUSH1 0x0 MSTORE PUSH1 0x3 PUSH1 0x20 MSTORE PUSH1 0x40 PUSH1 0x0 KECCAK256 SWAP1 JUMP JUMPDEST PUSH2 0x739 JUMP JUMPDEST SWAP2 PUSH1 0x20 DUP4 ADD SWAP5 PUSH2 0x4FC PUSH2 0x4F0 DUP8 MLOAD PUSH1 0x1 DUP1 PUSH1 0xA0 SHL SUB AND SWAP1 JUMP JUMPDEST PUSH1 0x1 PUSH1 0x1 PUSH1 0xA0 SHL SUB AND SWAP1 JUMP JUMPDEST CALLER SUB PUSH2 0x59D JUMPI PUSH1 0xFF DUP2 PUSH1 0xA0 SHR AND PUSH2 0x176 JUMPI PUSH1 0x1 PUSH1 0x1 PUSH1 0x80 SHL SUB DUP2 AND SWAP5 PUSH1 0x44 PUSH1 0x0 SWAP8 DUP9 DUP1 SWAP8 DUP2 SWAP6 DUP3 SWAP6 DUP10 DUP5 MSTORE PUSH1 0x2 PUSH1 0x20 MSTORE DUP9 DUP5 KECCAK256 SWAP1 DUP5 MSTORE PUSH1 0x20 MSTORE PUSH1 0x1 PUSH1 0xA0 SHL OR DUP8 DUP4 KECCAK256 SSTORE MLOAD SWAP2 MLOAD SWAP2 DUP7 MLOAD SWAP3 PUSH4 0xA9059CBB PUSH1 0xE0 SHL DUP5 MSTORE PUSH1 0x4 DUP5 ADD MSTORE DUP10 PUSH1 0x24 DUP5 ADD MSTORE GAS CALL ISZERO PUSH2 0x599 JUMPI MLOAD SWAP3 DUP4 MSTORE PUSH1 0x1 PUSH1 0x1 PUSH1 0xA0 SHL SUB AND SWAP2 PUSH32 0x1E170C3B430CC6FDCDAA453C42619AC587E13793AA81A489FAB9EBD7019C2EFB SWAP1 PUSH1 0x20 SWAP1 LOG3 DUP1 RETURN JUMPDEST DUP3 DUP1 REVERT JUMPDEST DUP2 MLOAD PUSH3 0x82B429 PUSH1 0xE8 SHL DUP2 MSTORE PUSH1 0x4 SWAP1 REVERT JUMPDEST DUP2 MLOAD PUSH4 0x411321ED PUSH1 0xE0 SHL DUP2 MSTORE PUSH1 0x4 SWAP1 REVERT JUMPDEST CALLVALUE PUSH2 0x176 JUMPI PUSH1 0x20 CALLDATASIZE PUSH1 0x3 NOT ADD SLT PUSH2 0x176 JUMPI PUSH1 0x4 CALLDATALOAD PUSH1 0x0 MSTORE PUSH1 0x1 PUSH1 0x20 MSTORE PUSH1 0x20 PUSH1 0xFF PUSH1 0x40 PUSH1 0x0 KECCAK256 SLOAD AND PUSH1 0x40 MLOAD SWAP1 ISZERO ISZERO DUP2 MSTORE RETURN JUMPDEST CALLVALUE PUSH2 0x176 JUMPI PUSH1 0x40 CALLDATASIZE PUSH1 0x3 NOT ADD SLT PUSH2 0x176 JUMPI PUSH1 0x1 PUSH1 0x1 PUSH1 0xA0 SHL SUB PUSH2 0x610 PUSH2 0x160 JUMP JUMPDEST AND PUSH1 0x0 MSTORE PUSH1 0x2 PUSH1 0x20 MSTORE PUSH1 0x40 PUSH1 0x0 KECCAK256 PUSH1 0x24 CALLDATALOAD PUSH1 0x0 MSTORE PUSH1 0x20 MSTORE PUSH1 0x20 PUSH1 0x40 PUSH1 0x0 KECCAK256 SLOAD PUSH1 0x40 MLOAD SWAP1 DUP2 MSTORE RETURN JUMPDEST CALLVALUE PUSH2 0x176 JUMPI PUSH1 0x40 CALLDATASIZE PUSH1 0x3 NOT ADD SLT PUSH2 0x176 JUMPI PUSH2 0x650 PUSH2 0x160 JUMP JUMPDEST PUSH1 0x24 CALLDATALOAD SWAP1 DUP2 ISZERO ISZERO DUP1 SWAP3 SUB PUSH2 0x176 JUMPI PUSH1 0x20 PUSH32 0xD86C88B4A367D9B81A6E00C9D3F7D01657BFFEF358FA8968C91C045AE99F0D52 SWAP2 PUSH1 0x1 DUP1 PUSH1 0xA0 SHL SUB AND SWAP3 DUP4 PUSH1 0x0 MSTORE PUSH1 0x0 DUP3 MSTORE PUSH1 0x40 PUSH1 0x0 KECCAK256 PUSH1 0xFF NOT DUP2 SLOAD AND PUSH1 0xFF DUP4 AND OR SWAP1 SSTORE PUSH1 0x40 MLOAD SWAP1 DUP2 MSTORE LOG2 STOP JUMPDEST CALLVALUE PUSH2 0x176 JUMPI PUSH1 0x40 CALLDATASIZE PUSH1 0x3 NOT ADD SLT PUSH2 0x176 JUMPI PUSH1 0x40 PUSH1 0x1 PUSH1 0x1 PUSH1 0xA0 SHL SUB DUP1 PUSH2 0x6D2 PUSH2 0x160 JUMP JUMPDEST AND PUSH1 0x0 MSTORE PUSH1 0x3 PUSH1 0x20 MSTORE DUP2 PUSH1 0x0 KECCAK256 PUSH1 0x24 CALLDATALOAD PUSH1 0x0 MSTORE PUSH1 0x20 MSTORE DUP2 PUSH1 0x0 KECCAK256 SWAP1 PUSH1 0x1 DUP2 DUP4 SLOAD AND SWAP3 ADD SLOAD AND DUP3 MLOAD SWAP2 DUP3 MSTORE PUSH1 0x20 DUP3 ADD MSTORE RETURN JUMPDEST PUSH1 0x40 MLOAD SWAP1 PUSH1 0x40 DUP3 ADD DUP3 DUP2 LT PUSH8 0xFFFFFFFFFFFFFFFF DUP3 GT OR PUSH2 0x723 JUMPI PUSH1 0x40 MSTORE JUMP JUMPDEST PUSH4 0x4E487B71 PUSH1 0xE0 SHL PUSH1 0x0 MSTORE PUSH1 0x41 PUSH1 0x4 MSTORE PUSH1 0x24 PUSH1 0x0 REVERT JUMPDEST SWAP1 PUSH2 0x742 PUSH2 0x703 JUMP JUMPDEST DUP3 SLOAD PUSH1 0x1 PUSH1 0x1 PUSH1 0xA0 SHL SUB SWAP1 DUP2 AND DUP3 MSTORE PUSH1 0x1 SWAP1 SWAP4 ADD SLOAD SWAP1 SWAP3 AND PUSH1 0x20 DUP4 ADD MSTORE JUMP INVALID LOG2 PUSH5 0x6970667358 0x22 SLT KECCAK256 0x4E 0xEB 0xF8 0x2E XOR NUMBER BYTE 0xEE PUSH0 0xD1 0xE6 0x4D PREVRANDAO 0xB2 RETURNDATASIZE 0x1E 0x4E 0xFC 0xCA PC SWAP1 0x26 SWAP12 PUSH16 0x9050D47856A08EE064736F6C63430008 EQ STOP CALLER "},"gasEstimates":{"creation":{"codeDepositCost":"388600","executionCost":"431","totalCost":"389031"},"external":{"createDeposit(uint256,address,address,bytes32)":"infinite","depositMeta(address,uint256)":"4810","getDeposit(address,uint256)":"7214","packedDeposits(address,uint256)":"2627","processedPaymentHashes(bytes32)":"2466","releasePayment(address,uint256)":"infinite","setSupportedToken(address,bool)":"26143","supportedTokens(address)":"2463","userDepositCount(address)":"2473"}},"methodIdentifiers":{"createDeposit(uint256,address,address,bytes32)":"84e9abca","depositMeta(address,uint256)":"f1adff0a","getDeposit(address,uint256)":"2726b506","packedDeposits(address,uint256)":"b63de29f","processedPaymentHashes(bytes32)":"99fcfb43","releasePayment(address,uint256)":"966ecf3b","setSupportedToken(address,bool)":"e7986466","supportedTokens(address)":"68c4ac26","userDepositCount(address)":"729c3e0e"}},"storageLayout":{"storage":[{"astId":86,"contract":"src/YieldEscrowUltra.sol:YieldEscrowUltra","label":"supportedTokens","offset":0,"slot":"0","type":"t_mapping(t_address,t_bool)"},{"astId":91,"contract":"src/YieldEscrowUltra.sol:YieldEscrowUltra","label":"processedPaymentHashes","offset":0,"slot":"1","type":"t_mapping(t_bytes32,t_bool)"},{"astId":98,"contract":"src/YieldEscrowUltra.sol:YieldEscrowUltra","label":"packedDeposits","offset":0,"slot":"2","type":"t_mapping(t_address,t_mapping(t_uint256,t_uint256))"},{"astId":106,"contract":"src/YieldEscrowUltra.sol:YieldEscrowUltra","label":"depositMeta","offset":0,"slot":"3","type":"t_mapping(t_address,t_mapping(t_uint256,t_struct(DepositMeta)116_storage))"},{"astId":111,"contract":"src/YieldEscrowUltra.sol:YieldEscrowUltra","label":"userDepositCount","offset":0,"slot":"4","type":"t_mapping(t_address,t_uint256)"}],"types":{"t_address":{"encoding":"inplace","label":"address","numberOfBytes":"20"},"t_bool":{"encoding":"inplace","label":"bool","numberOfBytes":"1"},"t_bytes32":{"encoding":"inplace","label":"bytes32","numberOfBytes":"32"},"t_mapping(t_address,t_bool)":{"encoding":"mapping","key":"t_address","label":"mapping(address => bool)","numberOfBytes":"32","value":"t_bool"},"t_mapping(t_address,t_mapping(t_uint256,t_struct(DepositMeta)116_storage))":{"encoding":"mapping","key":"t_address","label":"mapping(address => mapping(uint256 => struct YieldEscrowUltra.DepositMeta))","numberOfBytes":"32","value":"t_mapping(t_uint256,t_struct(DepositMeta)116_storage)"},"t_mapping(t_address,t_mapping(t_uint256,t_uint256))":{"encoding":"mapping","key":"t_address","label":"mapping(address => mapping(uint256 => uint256))","numberOfBytes":"32","value":"t_mapping(t_uint256,t_uint256)"},"t_mapping(t_address,t_uint256)":{"encoding":"mapping","key":"t_address","label":"mapping(address => uint256)","numberOfBytes":"32","value":"t_uint256"},"t_mapping(t_bytes32,t_bool)":{"encoding":"mapping","key":"t_bytes32","label":"mapping(bytes32 => bool)","numberOfBytes":"32","value":"t_bool"},"t_mapping(t_uint256,t_struct(DepositMeta)116_storage)":{"encoding":"mapping","key":"t_uint256","label":"mapping(uint256 => struct YieldEscrowUltra.DepositMeta)","numberOfBytes":"32","value":"t_struct(DepositMeta)116_storage"},"t_mapping(t_uint256,t_uint256)":{"encoding":"mapping","key":"t_uint256","label":"mapping(uint256 => uint256)","numberOfBytes":"32","value":"t_uint256"},"t_struct(DepositMeta)116_storage":{"encoding":"inplace","label":"struct YieldEscrowUltra.DepositMeta","members":[{"astId":113,"contract":"src/YieldEscrowUltra.sol:YieldEscrowUltra","label":"token","offset":0,"slot":"0","type":"t_address"},{"astId":115,"contract":"src/YieldEscrowUltra.sol:YieldEscrowUltra","label":"merchant","offset":0,"slot":"1","type":"t_address"}],"numberOfBytes":"64"},"t_uint256":{"encoding":"inplace","label":"uint256","numberOfBytes":"32"}}},"userdoc":{"kind":"user","methods":{},"version":1}}}}