{"src/YieldVault.sol":{"YieldVault":{"abi":[{"inputs":[{"internalType":"address","name":"_asset","type":"address"},{"internalType":"address","name":"_admin","type":"address"},{"internalType":"address","name":"_feeRecipient","type":"address"}],"stateMutability":"nonpayable","type":"constructor"},{"inputs":[],"name":"ExceedsRiskLimit","type":"error"},{"inputs":[],"name":"InsufficientBalance","type":"error"},{"inputs":[],"name":"InvalidAllocation","type":"error"},{"inputs":[],"name":"InvalidAmount","type":"error"},{"inputs":[],"name":"InvalidStrategy","type":"error"},{"inputs":[],"name":"InvalidTarget","type":"error"},{"inputs":[],"name":"MaxStrategiesReached","type":"error"},{"inputs":[],"name":"RebalanceCooldownActive","type":"error"},{"inputs":[],"name":"StrategyAlreadyExists","type":"error"},{"inputs":[],"name":"StrategyNotActive","type":"error"},{"inputs":[],"name":"TransferFailed","type":"error"},{"anonymous":false,"inputs":[{"indexed":true,"internalType":"address","name":"user","type":"address"},{"indexed":false,"internalType":"uint256","name":"assets","type":"uint256"},{"indexed":false,"internalType":"uint256","name":"shares","type":"uint256"}],"name":"Deposit","type":"event"},{"anonymous":false,"inputs":[{"indexed":true,"internalType":"address","name":"admin","type":"address"},{"indexed":false,"internalType":"string","name":"action","type":"string"},{"indexed":true,"internalType":"address","name":"strategy","type":"address"},{"indexed":false,"internalType":"uint256","name":"amount","type":"uint256"}],"name":"EmergencyAction","type":"event"},{"anonymous":false,"inputs":[{"indexed":false,"internalType":"address","name":"account","type":"address"}],"name":"Paused","type":"event"},{"anonymous":false,"inputs":[{"indexed":true,"internalType":"address","name":"strategy","type":"address"},{"indexed":false,"internalType":"uint256","name":"newAPY","type":"uint256"},{"indexed":false,"internalType":"uint256","name":"sharpeRatio","type":"uint256"}],"name":"PerformanceUpdated","type":"event"},{"anonymous":false,"inputs":[{"indexed":true,"internalType":"address","name":"rebalancer","type":"address"},{"indexed":false,"internalType":"address[]","name":"strategies","type":"address[]"},{"indexed":false,"internalType":"uint256[]","name":"oldAllocations","type":"uint256[]"},{"indexed":false,"internalType":"uint256[]","name":"newAllocations","type":"uint256[]"},{"indexed":false,"internalType":"uint256","name":"timestamp","type":"uint256"}],"name":"Rebalanced","type":"event"},{"anonymous":false,"inputs":[{"indexed":true,"internalType":"bytes32","name":"role","type":"bytes32"},{"indexed":true,"internalType":"bytes32","name":"previousAdminRole","type":"bytes32"},{"indexed":true,"internalType":"bytes32","name":"newAdminRole","type":"bytes32"}],"name":"RoleAdminChanged","type":"event"},{"anonymous":false,"inputs":[{"indexed":true,"internalType":"bytes32","name":"role","type":"bytes32"},{"indexed":true,"internalType":"address","name":"account","type":"address"},{"indexed":true,"internalType":"address","name":"sender","type":"address"}],"name":"RoleGranted","type":"event"},{"anonymous":false,"inputs":[{"indexed":true,"internalType":"bytes32","name":"role","type":"bytes32"},{"indexed":true,"internalType":"address","name":"account","type":"address"},{"indexed":true,"internalType":"address","name":"sender","type":"address"}],"name":"RoleRevoked","type":"event"},{"anonymous":false,"inputs":[{"indexed":true,"internalType":"address","name":"strategy","type":"address"},{"indexed":false,"internalType":"string","name":"name","type":"string"},{"indexed":false,"internalType":"uint256","name":"riskScore","type":"uint256"},{"indexed":false,"internalType":"uint256","name":"initialAllocation","type":"uint256"}],"name":"StrategyAdded","type":"event"},{"anonymous":false,"inputs":[{"indexed":true,"internalType":"address","name":"strategy","type":"address"},{"indexed":false,"internalType":"string","name":"reason","type":"string"},{"indexed":false,"internalType":"uint256","name":"fundsWithdrawn","type":"uint256"}],"name":"StrategyRemoved","type":"event"},{"anonymous":false,"inputs":[{"indexed":false,"internalType":"address","name":"account","type":"address"}],"name":"Unpaused","type":"event"},{"anonymous":false,"inputs":[{"indexed":true,"internalType":"address","name":"user","type":"address"},{"indexed":false,"internalType":"uint256","name":"assets","type":"uint256"},{"indexed":false,"internalType":"uint256","name":"shares","type":"uint256"}],"name":"Withdrawal","type":"event"},{"anonymous":false,"inputs":[{"indexed":true,"internalType":"address","name":"strategy","type":"address"},{"indexed":false,"internalType":"uint256","name":"yieldAmount","type":"uint256"},{"indexed":false,"internalType":"uint256","name":"newTotalYield","type":"uint256"}],"name":"YieldHarvested","type":"event"},{"inputs":[],"name":"ADMIN_ROLE","outputs":[{"internalType":"bytes32","name":"","type":"bytes32"}],"stateMutability":"view","type":"function"},{"inputs":[],"name":"BASIS_POINTS","outputs":[{"internalType":"uint256","name":"","type":"uint256"}],"stateMutability":"view","type":"function"},{"inputs":[],"name":"DEFAULT_ADMIN_ROLE","outputs":[{"internalType":"bytes32","name":"","type":"bytes32"}],"stateMutability":"view","type":"function"},{"inputs":[],"name":"MAX_ALLOCATION_PER_STRATEGY","outputs":[{"internalType":"uint256","name":"","type":"uint256"}],"stateMutability":"view","type":"function"},{"inputs":[],"name":"MAX_STRATEGIES","outputs":[{"internalType":"uint256","name":"","type":"uint256"}],"stateMutability":"view","type":"function"},{"inputs":[],"name":"MIN_REBALANCE_THRESHOLD","outputs":[{"internalType":"uint256","name":"","type":"uint256"}],"stateMutability":"view","type":"function"},{"inputs":[],"name":"MIN_STRATEGY_ALLOCATION","outputs":[{"internalType":"uint256","name":"","type":"uint256"}],"stateMutability":"view","type":"function"},{"inputs":[],"name":"PERFORMANCE_WINDOW","outputs":[{"internalType":"uint256","name":"","type":"uint256"}],"stateMutability":"view","type":"function"},{"inputs":[],"name":"REBALANCER_ROLE","outputs":[{"internalType":"bytes32","name":"","type":"bytes32"}],"stateMutability":"view","type":"function"},{"inputs":[],"name":"REBALANCE_COOLDOWN","outputs":[{"internalType":"uint256","name":"","type":"uint256"}],"stateMutability":"view","type":"function"},{"inputs":[],"name":"STRATEGY_MANAGER_ROLE","outputs":[{"internalType":"bytes32","name":"","type":"bytes32"}],"stateMutability":"view","type":"function"},{"inputs":[{"internalType":"address","name":"","type":"address"}],"name":"activeStrategies","outputs":[{"internalType":"bool","name":"","type":"bool"}],"stateMutability":"view","type":"function"},{"inputs":[{"internalType":"address","name":"strategy","type":"address"},{"internalType":"string","name":"name","type":"string"},{"internalType":"uint256","name":"riskScore","type":"uint256"},{"internalType":"uint256","name":"initialAllocation","type":"uint256"}],"name":"addStrategy","outputs":[],"stateMutability":"nonpayable","type":"function"},{"inputs":[],"name":"asset","outputs":[{"internalType":"contract IERC20","name":"","type":"address"}],"stateMutability":"view","type":"function"},{"inputs":[],"name":"autoRebalance","outputs":[],"stateMutability":"nonpayable","type":"function"},{"inputs":[],"name":"autoRebalanceEnabled","outputs":[{"internalType":"bool","name":"","type":"bool"}],"stateMutability":"view","type":"function"},{"inputs":[{"internalType":"address","name":"user","type":"address"}],"name":"balanceOf","outputs":[{"internalType":"uint256","name":"balance","type":"uint256"}],"stateMutability":"view","type":"function"},{"inputs":[{"internalType":"uint256","name":"shares","type":"uint256"}],"name":"convertToAssets","outputs":[{"internalType":"uint256","name":"assets","type":"uint256"}],"stateMutability":"view","type":"function"},{"inputs":[{"internalType":"uint256","name":"assets","type":"uint256"}],"name":"convertToShares","outputs":[{"internalType":"uint256","name":"shares","type":"uint256"}],"stateMutability":"view","type":"function"},{"inputs":[{"internalType":"uint256","name":"","type":"uint256"}],"name":"dailyYield","outputs":[{"internalType":"uint256","name":"","type":"uint256"}],"stateMutability":"view","type":"function"},{"inputs":[{"internalType":"uint256","name":"assets","type":"uint256"}],"name":"deposit","outputs":[{"internalType":"uint256","name":"shares","type":"uint256"}],"stateMutability":"nonpayable","type":"function"},{"inputs":[],"name":"emergencyPause","outputs":[],"stateMutability":"nonpayable","type":"function"},{"inputs":[],"name":"feeRecipient","outputs":[{"internalType":"address","name":"","type":"address"}],"stateMutability":"view","type":"function"},{"inputs":[],"name":"getCurrentAPY","outputs":[{"internalType":"uint256","name":"vaultAPY","type":"uint256"}],"stateMutability":"view","type":"function"},{"inputs":[{"internalType":"bytes32","name":"role","type":"bytes32"}],"name":"getRoleAdmin","outputs":[{"internalType":"bytes32","name":"","type":"bytes32"}],"stateMutability":"view","type":"function"},{"inputs":[{"internalType":"address","name":"strategy","type":"address"}],"name":"getStrategyInfo","outputs":[{"components":[{"internalType":"contract IYieldStrategy","name":"strategy","type":"address"},{"internalType":"uint256","name":"allocation","type":"uint256"},{"internalType":"uint256","name":"targetAllocation","type":"uint256"},{"internalType":"uint256","name":"totalDeposited","type":"uint256"},{"internalType":"uint256","name":"lastUpdate","type":"uint256"},{"internalType":"bool","name":"active","type":"bool"},{"internalType":"uint256","name":"riskScore","type":"uint256"},{"internalType":"string","name":"name","type":"string"}],"internalType":"struct YieldVault.StrategyInfo","name":"info","type":"tuple"}],"stateMutability":"view","type":"function"},{"inputs":[{"internalType":"address","name":"strategy","type":"address"}],"name":"getStrategyPerformance","outputs":[{"components":[{"internalType":"uint256","name":"totalYieldGenerated","type":"uint256"},{"internalType":"uint256","name":"averageAPY","type":"uint256"},{"internalType":"uint256","name":"lastAPY","type":"uint256"},{"internalType":"uint256[]","name":"apyHistory","type":"uint256[]"},{"internalType":"uint256","name":"lastPerformanceUpdate","type":"uint256"},{"internalType":"uint256","name":"sharpeRatio","type":"uint256"}],"internalType":"struct YieldVault.PerformanceData","name":"performance","type":"tuple"}],"stateMutability":"view","type":"function"},{"inputs":[{"internalType":"bytes32","name":"role","type":"bytes32"},{"internalType":"address","name":"account","type":"address"}],"name":"grantRole","outputs":[],"stateMutability":"nonpayable","type":"function"},{"inputs":[],"name":"harvestAll","outputs":[{"internalType":"uint256","name":"totalYieldHarvested","type":"uint256"}],"stateMutability":"nonpayable","type":"function"},{"inputs":[{"internalType":"bytes32","name":"role","type":"bytes32"},{"internalType":"address","name":"account","type":"address"}],"name":"hasRole","outputs":[{"internalType":"bool","name":"","type":"bool"}],"stateMutability":"view","type":"function"},{"inputs":[],"name":"lastRebalance","outputs":[{"internalType":"uint256","name":"","type":"uint256"}],"stateMutability":"view","type":"function"},{"inputs":[],"name":"managementFee","outputs":[{"internalType":"uint256","name":"","type":"uint256"}],"stateMutability":"view","type":"function"},{"inputs":[],"name":"maxTotalRisk","outputs":[{"internalType":"uint256","name":"","type":"uint256"}],"stateMutability":"view","type":"function"},{"inputs":[],"name":"paused","outputs":[{"internalType":"bool","name":"","type":"bool"}],"stateMutability":"view","type":"function"},{"inputs":[],"name":"performanceFee","outputs":[{"internalType":"uint256","name":"","type":"uint256"}],"stateMutability":"view","type":"function"},{"inputs":[{"internalType":"address[]","name":"strategyAddresses","type":"address[]"},{"internalType":"uint256[]","name":"newAllocations","type":"uint256[]"}],"name":"rebalance","outputs":[],"stateMutability":"nonpayable","type":"function"},{"inputs":[{"internalType":"address","name":"strategy","type":"address"},{"internalType":"string","name":"reason","type":"string"}],"name":"removeStrategy","outputs":[],"stateMutability":"nonpayable","type":"function"},{"inputs":[{"internalType":"bytes32","name":"role","type":"bytes32"},{"internalType":"address","name":"account","type":"address"}],"name":"renounceRole","outputs":[],"stateMutability":"nonpayable","type":"function"},{"inputs":[{"internalType":"bytes32","name":"role","type":"bytes32"},{"internalType":"address","name":"account","type":"address"}],"name":"revokeRole","outputs":[],"stateMutability":"nonpayable","type":"function"},{"inputs":[{"internalType":"address","name":"","type":"address"}],"name":"strategies","outputs":[{"internalType":"contract IYieldStrategy","name":"strategy","type":"address"},{"internalType":"uint256","name":"allocation","type":"uint256"},{"internalType":"uint256","name":"targetAllocation","type":"uint256"},{"internalType":"uint256","name":"totalDeposited","type":"uint256"},{"internalType":"uint256","name":"lastUpdate","type":"uint256"},{"internalType":"bool","name":"active","type":"bool"},{"internalType":"uint256","name":"riskScore","type":"uint256"},{"internalType":"string","name":"name","type":"string"}],"stateMutability":"view","type":"function"},{"inputs":[{"internalType":"uint256","name":"","type":"uint256"}],"name":"strategyList","outputs":[{"internalType":"address","name":"","type":"address"}],"stateMutability":"view","type":"function"},{"inputs":[{"internalType":"address","name":"","type":"address"}],"name":"strategyPerformance","outputs":[{"internalType":"uint256","name":"totalYieldGenerated","type":"uint256"},{"internalType":"uint256","name":"averageAPY","type":"uint256"},{"internalType":"uint256","name":"lastAPY","type":"uint256"},{"internalType":"uint256","name":"lastPerformanceUpdate","type":"uint256"},{"internalType":"uint256","name":"sharpeRatio","type":"uint256"}],"stateMutability":"view","type":"function"},{"inputs":[{"internalType":"bytes4","name":"interfaceId","type":"bytes4"}],"name":"supportsInterface","outputs":[{"internalType":"bool","name":"","type":"bool"}],"stateMutability":"view","type":"function"},{"inputs":[{"internalType":"address","name":"","type":"address"}],"name":"targetAllocations","outputs":[{"internalType":"uint256","name":"","type":"uint256"}],"stateMutability":"view","type":"function"},{"inputs":[],"name":"totalAssets","outputs":[{"internalType":"uint256","name":"","type":"uint256"}],"stateMutability":"view","type":"function"},{"inputs":[],"name":"totalShares","outputs":[{"internalType":"uint256","name":"","type":"uint256"}],"stateMutability":"view","type":"function"},{"inputs":[],"name":"unpause","outputs":[],"stateMutability":"nonpayable","type":"function"},{"inputs":[{"internalType":"uint256","name":"_managementFee","type":"uint256"},{"internalType":"uint256","name":"_performanceFee","type":"uint256"},{"internalType":"address","name":"_feeRecipient","type":"address"},{"internalType":"bool","name":"_autoRebalanceEnabled","type":"bool"}],"name":"updateVaultParameters","outputs":[],"stateMutability":"nonpayable","type":"function"},{"inputs":[{"internalType":"uint256","name":"shares","type":"uint256"}],"name":"withdraw","outputs":[{"internalType":"uint256","name":"assets","type":"uint256"}],"stateMutability":"nonpayable","type":"function"}],"devdoc":{"author":"YieldRails Team  Key Features: - Multi-strategy yield optimization - Automatic rebalancing based on APY and risk scores - Emergency withdrawal capabilities - Real-time performance tracking - Risk-adjusted allocation algorithms","details":"Manages multiple yield strategies and optimizes yield allocation","events":{"Paused(address)":{"details":"Emitted when the pause is triggered by `account`."},"RoleAdminChanged(bytes32,bytes32,bytes32)":{"details":"Emitted when `newAdminRole` is set as ``role``'s admin role, replacing `previousAdminRole` `DEFAULT_ADMIN_ROLE` is the starting admin for all roles, despite {RoleAdminChanged} not being emitted signaling this. _Available since v3.1._"},"RoleGranted(bytes32,address,address)":{"details":"Emitted when `account` is granted `role`. `sender` is the account that originated the contract call, an admin role bearer except when using {AccessControl-_setupRole}."},"RoleRevoked(bytes32,address,address)":{"details":"Emitted when `account` is revoked `role`. `sender` is the account that originated the contract call:   - if using `revokeRole`, it is the admin role bearer   - if using `renounceRole`, it is the role bearer (i.e. `account`)"},"Unpaused(address)":{"details":"Emitted when the pause is lifted by `account`."}},"kind":"dev","methods":{"addStrategy(address,string,uint256,uint256)":{"details":"Adds a new yield strategy to the vault","params":{"initialAllocation":"Initial allocation in basis points","name":"The strategy name","riskScore":"The risk score (1-10)","strategy":"The strategy contract address"}},"autoRebalance()":{"details":"Automatically rebalances based on performance and risk"},"balanceOf(address)":{"details":"Gets user's share balance","params":{"user":"The user address"},"returns":{"balance":"The user's share balance"}},"constructor":{"details":"Initialize the YieldVault","params":{"_admin":"The admin address","_asset":"The base asset for the vault (e.g., USDC)","_feeRecipient":"The fee recipient address"}},"convertToAssets(uint256)":{"details":"Converts shares to assets","params":{"shares":"The number of shares"},"returns":{"assets":"The equivalent assets"}},"convertToShares(uint256)":{"details":"Converts assets to shares","params":{"assets":"The amount of assets"},"returns":{"shares":"The equivalent shares"}},"deposit(uint256)":{"details":"Deposits assets into the vault and allocates to strategies","params":{"assets":"The amount of assets to deposit"},"returns":{"shares":"The number of shares minted"}},"emergencyPause()":{"details":"Emergency pause function"},"getCurrentAPY()":{"details":"Gets the current vault APY based on strategy performance","returns":{"vaultAPY":"The weighted average APY"}},"getRoleAdmin(bytes32)":{"details":"Returns the admin role that controls `role`. See {grantRole} and {revokeRole}. To change a role's admin, use {_setRoleAdmin}."},"getStrategyInfo(address)":{"details":"Gets strategy allocation data","params":{"strategy":"The strategy address"},"returns":{"info":"The strategy information"}},"getStrategyPerformance(address)":{"details":"Gets performance data for a strategy","params":{"strategy":"The strategy address"},"returns":{"performance":"The performance data"}},"grantRole(bytes32,address)":{"details":"Grants `role` to `account`. If `account` had not been already granted `role`, emits a {RoleGranted} event. Requirements: - the caller must have ``role``'s admin role. May emit a {RoleGranted} event."},"harvestAll()":{"details":"Harvests yield from all strategies","returns":{"totalYieldHarvested":"The total yield harvested"}},"hasRole(bytes32,address)":{"details":"Returns `true` if `account` has been granted `role`."},"paused()":{"details":"Returns true if the contract is paused, and false otherwise."},"rebalance(address[],uint256[])":{"details":"Rebalances allocations across strategies","params":{"newAllocations":"Array of new allocations (must sum to 10000)"}},"removeStrategy(address,string)":{"details":"Removes a strategy from the vault","params":{"reason":"The reason for removal","strategy":"The strategy to remove"}},"renounceRole(bytes32,address)":{"details":"Revokes `role` from the calling account. Roles are often managed via {grantRole} and {revokeRole}: this function's purpose is to provide a mechanism for accounts to lose their privileges if they are compromised (such as when a trusted device is misplaced). If the calling account had been revoked `role`, emits a {RoleRevoked} event. Requirements: - the caller must be `account`. May emit a {RoleRevoked} event."},"revokeRole(bytes32,address)":{"details":"Revokes `role` from `account`. If `account` had been granted `role`, emits a {RoleRevoked} event. Requirements: - the caller must have ``role``'s admin role. May emit a {RoleRevoked} event."},"supportsInterface(bytes4)":{"details":"See {IERC165-supportsInterface}."},"unpause()":{"details":"Resume operations"},"updateVaultParameters(uint256,uint256,address,bool)":{"details":"Updates vault parameters"},"withdraw(uint256)":{"details":"Withdraws assets from the vault","params":{"shares":"The number of shares to burn"},"returns":{"assets":"The amount of assets withdrawn"}}},"title":"YieldVault","version":1},"evm":{"bytecode":{"linkReferences":{},"object":"60a034620002f957601f620038f538819003918201601f191683019291906001600160401b03841183851017620002fe578160609284926040968752833981010312620002f957620000518162000314565b906020916200006f846200006785850162000314565b930162000314565b600160009481865560ff199283835416835560c8600e556103e8600f5560056011558284601254161760125560018060a01b0380951680158015620002ee575b8015620002e3575b620002d257608052601080546001600160a01b0319169186169190911790558580526002808252878720959094168087529481528686205460ff16156200029d575b7fa49807205ce4d355092ef5a8a18f56e8913cf4a201fbe287825b095693c21775808752848252878720868852825260ff88882054161562000267575b507f4170d100a3a3728ae51207936ee755ecaa64a7f6e9383c642ab204a136f90b1b808752848252878720868852825260ff88882054161562000231575b507fccc64574297998b6c3edf6078cc5e01268465ff116954e3af02ff3a70a730f4693848752808252878720868852825260ff888820541615620001f9575b8742600c55516135ab90816200032a82396080518181816104fc015281816106280152818161078501528181610d1f0152818161163501528181611e27015261220a0152f35b8487528152868620908587525285852091825416179055600080516020620038d5833981519152339380a438808080808080620001b3565b80875284825287872086885282528787208385825416179055853391600080516020620038d58339815191528980a43862000174565b80875284825287872086885282528787208385825416179055853391600080516020620038d58339815191528980a43862000136565b85805283815286862085875281528686208284825416179055338587600080516020620038d58339815191528180a4620000f9565b885163162908e360e11b8152600490fd5b5085821615620000b7565b5085871615620000af565b600080fd5b634e487b7160e01b600052604160045260246000fd5b51906001600160a01b0382168203620002f95756fe608080604052600436101561001357600080fd5b60003560e01c90816301e1d1141461265d5750806301ffc9a71461260757806307a2d13a146125e95780630e7bd23114610391578063106b9ca1146125cb578063248a9ca31461259c5780632be01190146122c65780632c178bd0146122875780632e1a7d4d146120305780632f2ff15d14611f7d578063357ad7ad14611ee857806336568abe14611e5657806338d52e0f14611e1157806339ebf82314611d705780633a98ef3914611d525780633f4ba83a14611cbe5780634690484014611c95578063490b48f814611c5a57806351858e2714611c01578063527f116f1461155757806354192ad514611423578063552829021461140557806358d1d42a146113e75780635c975abb146113c457806364d60a7d146113a75780636b5cc2941461134157806370a082311461130757806375b238fc146112cc578063767f06ae146112b05780637a6efd47146110d957806387788782146110bb5780638ea447e614610dc85780638ed955b914610b485780638faee2a814610b2b57806391d1485414610ade578063962ca49614610948578063a217fddf1461092c578063a267526b146108ea578063a5ac4dd1146108c7578063a6f7f5d6146108a9578063abcbe0b21461086e578063b6b55f2514610480578063c6e6f5921461045a578063d547741f14610419578063dcdf92fb146103ed578063e1f1c4a7146103d0578063e8f8080c14610396578063ef434d61146103915763f51381da1461023a57600080fd5b3461038c5760208060031936011261038c576102546126c4565b600060a060405161026481612746565b8281528285820152826040820152606080820152826080820152015260018060a01b0316600052600a815260406000206040516102a081612746565b8154815260019283830154928183019384526002810154916040840192835260038201604051908183825491828152019160005283600020908960005b8281106103795750505050816102f491038261277c565b6060850190815260056004840154936080870194855201549360a086019485526040519683885260e08801965184890152516040880152516060870152519360c06080870152845180915281610100870195019160005b82811061036657845160a0890152855160c089015287870388f35b835187529581019592810192880161034b565b83548552938601939281019281016102dd565b600080fd5b612678565b3461038c57602036600319011261038c576001600160a01b036103b76126c4565b16600052600d6020526020604060002054604051908152f35b3461038c57600036600319011261038c5760206040516127108152f35b3461038c57602036600319011261038c57600435600052600b6020526020604060002054604051908152f35b3461038c57604036600319011261038c576104586004356104386126da565b90806000526002602052610453600160406000200154612daa565b612eb5565b005b3461038c57602036600319011261038c576020610478600435613408565b604051908152f35b3461038c57602036600319011261038c57610499613166565b6104a1613122565b6004351561085c576104b4600435613408565b6040516323b872dd60e01b602082015233602482015230604482015260043560648201526064815260a08101908082106001600160401b0383111761084657610520916040527f00000000000000000000000000000000000000000000000000000000000000006131bc565b3360005260086020526040600020610539828254612f3e565b905561054781600454612f3e565b600455610558600435600354612f3e565b60035560005b60065481101561080357610571816128b8565b60018060a01b0391549060031b1c169081600052600760205260ff604060002054166105a7575b6105a29150613106565b61055e565b600560205260406000206127106105c46001830154600435612f2b565b04908115801590816105da575b50505050610598565b90610762575b156106fe5760405163095ea7b360e01b602082018190526001600160a01b0386166024830152604480830185905282526000959092909161064c9061062660648261277c565b7f00000000000000000000000000000000000000000000000000000000000000006131bc565b805460405163b6b55f2560e01b8152600481018690529660209188916024918391906001600160a01b03165af195866106d3575b506105a2956106ba57506106b192506040519160208301526024820152600060448201526044815261062681612761565b838080806105d1565b6106cc92506003915001918254612f3e565b90556106b1565b602090813d83116106f7575b6106e9818361277c565b8101031261038c5787610680565b503d6106df565b60405162461bcd60e51b815260206004820152603660248201527f5361666545524332303a20617070726f76652066726f6d206e6f6e2d7a65726f60448201527520746f206e6f6e2d7a65726f20616c6c6f77616e636560501b6064820152608490fd5b50604051636eb1769f60e11b8152306004820152602481018590526020816044817f00000000000000000000000000000000000000000000000000000000000000006001600160a01b03165afa9081156107f7576000916107c5575b50156105e0565b90506020813d6020116107ef575b816107e06020938361277c565b8101031261038c5751866107be565b3d91506107d3565b6040513d6000823e3d90fd5b602082604051600435815281838201527f90890809c654f11d6e72a28fa60149770a0d11ec6c92319d6ceb2bb0a4ea1a1560403392a26001600055604051908152f35b634e487b7160e01b600052604160045260246000fd5b60405163162908e360e11b8152600490fd5b3461038c57600036600319011261038c5760206040517f4170d100a3a3728ae51207936ee755ecaa64a7f6e9383c642ab204a136f90b1b8152f35b3461038c57600036600319011261038c576020600e54604051908152f35b3461038c57600036600319011261038c57602060ff601254166040519015158152f35b3461038c57602036600319011261038c5760043560065481101561038c576109136020916128b8565b905460405160039290921b1c6001600160a01b03168152f35b3461038c57600036600319011261038c57602060405160008152f35b3461038c57600036600319011261038c57600080600091600060068054915b82811061099457602085878681610983575b5050604051908152f35b61098d92506133fe565b8280610979565b61099d816128b8565b60018060a09493941b03809354600392831b1c16600052600760209080825260ff9081604060002054166109df575b505050506109da9150613106565b610967565b948291610a496004969760059283865260406000209060405194610a028661272a565b8683541686526001830154998887019a8b526002840154604088015283015460608701528a830154608087015282015416151560a08501528a81015460c08501520161279d565b60e0820152511660405194858092634b16524b60e11b82525afa928391600094610aae575b5050610a7f5750506109da90613106565b90610a9e6109da939896610a98610aa494518094612f2b565b90612f3e565b95612f3e565b95878080806109cc565b9080929450813d8311610ad7575b610ac6818361277c565b8101031261038c5751918980610a6e565b503d610abc565b3461038c57604036600319011261038c57610af76126da565b600435600052600260205260406000209060018060a01b0316600052602052602060ff604060002054166040519015158152f35b3461038c57600036600319011261038c576020604051610e108152f35b3461038c57600036600319011261038c57610b61613166565b6000805b600654821015610ca357610b78826128b8565b929060018060a01b03938491549060031b1c16806000526020936007855260ff60406000205416610bb7575b5050610bb1919250613106565b90610b65565b846000916005825260408320541660046040518094819363e8d991d160e01b83525af160009181610c74575b50610bf5575050610bb1919250613106565b80610c0b575b5050610bb1919250829184610ba4565b604081610c3c7ff343dfc1e44c65296fb907b287e6e12133eb7945ba79ec463d65ef129757c2ff93610bb197612f3e565b9684600052600a80825283600020610c55848254612f3e565b90558560005281528260002054908351928352820152a2829184610bfb565b9091508581813d8311610c9c575b610c8c818361277c565b8101031261038c57519086610be3565b503d610c82565b620151804204600052602090600b82526040600020610cc3828254612f3e565b905580151580610cdc575b506001600055604051908152f35b600f54908115159081610dc0575b5015610cce57610cfd6127109183612f2b565b6040516370a0823160e01b81523060048201526001600160a01b0392909104907f00000000000000000000000000000000000000000000000000000000000000009085816024818786165afa9081156107f757600091610d93575b50828015159182610d88575b5050610d72575b5050610cce565b610d80926010541690613385565b828080610d6b565b101590508287610d64565b90508581813d8311610db9575b610daa818361277c565b8101031261038c575186610d58565b503d610da0565b905084610cea565b3461038c57604036600319011261038c57610de16126c4565b60249081356001600160401b03811161038c57610e0290369060040161288b565b610e0a612c65565b60018060a01b0380931692836000526020906007825260ff60406000205416156110a95784600052600582526040600020600091600390818301548581610fd2575b50508760005260078552604060002060ff1990818154169055600584019081541690556000600180940155600d855260006040812055826000905b610ed2575b887ff2f3b6b9f2a3bdce56fa5fd5304960564a1d25405f97dec9260b1165ac72850089898989610ec96040519485946040865260408601916130e5565b918301520390a2005b6006805480831015610fcb578a84610ee9856128b8565b905490881b1c1614610f06575050610f0090613106565b83610e87565b9394509260001991828201918211610fb657610f3584610f28610f54946128b8565b905490891b1c16916128b8565b90919082549060031b9160018060a01b03809116831b921b1916179055565b82548015610fa1577ff2f3b6b9f2a3bdce56fa5fd5304960564a1d25405f97dec9260b1165ac728500999a500192610f8b846128b8565b81939154921b1b19169055558594878080610e8c565b8a634e487b7160e01b60005260316004526000fd5b8b634e487b7160e01b60005260116004526000fd5b5050610e8c565b6000918b84875416916040519485938492632e1a7d4d60e01b845260048401525af16000918161107a575b506110735750600085828554168b60405180948193631bfc726f60e21b83523060048401525af160009181611044575b5061103c575b505b8985610e4c565b935089611033565b9091508681813d831161106c575b61105c818361277c565b8101031261038c5751908b61102d565b503d611052565b9350611035565b9091508681813d83116110a2575b611092818361277c565b8101031261038c5751908b610ffd565b503d611088565b604051631b92e95360e31b8152600490fd5b3461038c57600036600319011261038c576020600f54604051908152f35b3461038c57600036600319011261038c576110f2612905565b60ff80601254161561129e57600c54610e1081018091116112885742106112765760068054611120816130b3565b906000805b8281106112265750801580156111b2575b50505060005b82548110156111a4578061115261117f926128b8565b60018060a01b0391549060031b1c16806000526020600781528660406000205416611184575b5050613106565b61113c565b600d9061119184876133ea565b5192600052526040600020558580611178565b6111ac61350a565b42600c55005b611210576127100460005b8281101561113657806111d26111fa926128b8565b60018060a01b0391549060031b1c16600052600760205286604060002054166111ff57613106565b6111bd565b8261120a82876133ea565b52613106565b634e487b7160e01b600052601260045260246000fd5b61122f816128b8565b60018060a01b0391549060031b1c1660005260076020528560406000205416611261575b61125c90613106565b611125565b9061126e61125c91613106565b919050611253565b604051630a7d506f60e31b8152600490fd5b634e487b7160e01b600052601160045260246000fd5b60405163416aebb560e11b8152600490fd5b3461038c57600036600319011261038c576020604051600a8152f35b3461038c57600036600319011261038c5760206040517fa49807205ce4d355092ef5a8a18f56e8913cf4a201fbe287825b095693c217758152f35b3461038c57602036600319011261038c576001600160a01b036113286126c4565b1660005260086020526020604060002054604051908152f35b3461038c57602036600319011261038c576001600160a01b036113626126c4565b16600052600a60205260a06040600020805490600181015490600281015460056004830154920154926040519485526020850152604084015260608301526080820152f35b3461038c57600036600319011261038c5760206040516113888152f35b3461038c57600036600319011261038c57602060ff600154166040519015158152f35b3461038c57600036600319011261038c576020601154604051908152f35b3461038c57600036600319011261038c57602060405162093a808152f35b3461038c5760208060031936011261038c5761143d6126c4565b90606060e060405161144e8161272a565b600081526000848201526000604082015260008382015260006080820152600060a0820152600060c0820152015260018060a01b0380921660005260058152611553604060002091604051926114a38461272a565b84815416845260018101548285019081526002820154604086019081526003830154606087019081526004840154916080880192835260ff6005860154169360a089019415158552611503600760068801549760c08c019889520161279d565b9660e08a019788526040519a8b9a828c525116908a01525160408901525160608801525160808701525160a086015251151560c08501525160e08401525161010080840152610120830190612866565b0390f35b3461038c57608036600319011261038c576115706126c4565b6024356001600160401b03811161038c5761158f90369060040161288b565b90611598612c65565b6001600160a01b03831615611b69576001600160a01b03831660009081526007602052604090205460ff16611bef57600a6006541015611bdd57604435158015611bd1575b61085c5761138860643511611bbf576040516338d52e0f60e01b81526020816004816001600160a01b0388165afa60009181611b7b575b5061162b57604051632711b74d60e11b8152600490fd5b6001600160a01b037f00000000000000000000000000000000000000000000000000000000000000008116911603611b69576040516116698161272a565b6001600160a01b038416815260643560208201819052604082015260006060820152426080820152600160a082015260443560c08201526116a983612f4b565b6116b6604051918261277c565b838152368484011161038c578383602083013760006020858301015260e082015260018060a01b038416600052600560205260e060406000209160018060a01b038151166bffffffffffffffffffffffff60a01b845416178355602081015160018401556040810151600284015560608101516003840155608081015160048401556005830160a0820151151560ff8019835416911617905560c0810151600684015501518051906001600160401b0382116108465761177960078401546126f0565b601f8111611b29575b50602090601f8311600114611ab9576007929160009183611aae575b50508160011b916000199060031b1c1916179101555b6001600160a01b0383166000908152600760205260409020805460ff19166001179055600654600160401b8110156108465783610f358260016117fa94016006556128b8565b60018060a01b038316600052600d6020526064356040600020556040518060208101106001600160401b0360208301111761084657602081016040526000815260405161184681612746565b60008152602081019160008352604082016000815260608301918252426080840152600060a084015260018060a01b038716600052600a60205260406000209383518555516001850155516002840155518051906001600160401b03821161084657600160401b8211610846576020906003850154836003870155808410611a8e575b500160038401600052602060002060005b838110611a7a575050505060a08160806005930151600485015501519101556000806000600654905b8181106119995750508161196e575b50507fa60bb03b49d64a590d05814bbe4dc62875c4fe9a09567dc78c6de9ea38663b259161194d6040519283926060845260608401916130e5565b604435602083015260643560408301526001600160a01b03909416930390a2005b90611978916133fe565b60115410611987578380611912565b6040516373687cd760e11b8152600490fd5b6119a2816128b8565b60018060a01b0391549060031b1c16600052600760205260ff604060002054166119d5575b6119d090613106565b611903565b92611a726119d09160056020526020611a69604060002096610a98604051986119fd8a61272a565b80546001600160a01b03168a526001810154858b0152600281015460408b0152600381015460608b0152600481015460808b0152600581015460ff16151560a08b0152600681015460c08b0190815290611a599060070161279d565b60e08b015251848a015190612f2b565b95015190612f3e565b9390506119c7565b6001906020845194019381840155016118da565b611aa8906003870160005284846000209182019101613085565b886118c9565b01519050878061179e565b906007840160005260206000209160005b601f1985168110611b115750918391600193600795601f19811610611af8575b505050811b019101556117b4565b015160001960f88460031b161c19169055878080611aea565b91926020600181928685015181550194019201611aca565b611b5990600785016000526020600020601f850160051c81019160208610611b5f575b601f0160051c0190613085565b86611782565b9091508190611b4c565b604051632711b74d60e11b8152600490fd5b9091506020813d602011611bb7575b81611b976020938361277c565b8101031261038c57516001600160a01b038116810361038c579085611614565b3d9150611b8a565b6040516305d7ba1960e11b8152600490fd5b50600a604435116115dd565b604051631f62ca4f60e21b8152600490fd5b60405163c45546f760e01b8152600490fd5b3461038c57600036600319011261038c57611c1a612b20565b611c22613122565b600160ff19815416176001557f62e78cea01bee320cd4e420270b5ea74000d11b0c9f74754ebdbfc544b05a2586020604051338152a1005b3461038c57600036600319011261038c5760206040517fccc64574297998b6c3edf6078cc5e01268465ff116954e3af02ff3a70a730f468152f35b3461038c57600036600319011261038c576010546040516001600160a01b039091168152602090f35b3461038c57600036600319011261038c57611cd7612b20565b60015460ff811615611d165760ff19166001557f5db9ee0a495bf2e6ff9c91a7834c1ba4fdd244a5e8aa4e537bd38aeae4b073aa6020604051338152a1005b60405162461bcd60e51b815260206004820152601460248201527314185d5cd8589b194e881b9bdd081c185d5cd95960621b6044820152606490fd5b3461038c57600036600319011261038c576020600454604051908152f35b3461038c57602036600319011261038c576001600160a01b0380611d926126c4565b1660005260056020526040600020908154166115536001830154926002810154906003810154600482015460ff60058401541691611dd760076006860154950161279d565b9460405198899889526020890152604088015260608701526080860152151560a085015260c08401526101008060e0850152830190612866565b3461038c57600036600319011261038c576040517f00000000000000000000000000000000000000000000000000000000000000006001600160a01b03168152602090f35b3461038c57604036600319011261038c57611e6f6126da565b336001600160a01b03821603611e8b5761045890600435612eb5565b60405162461bcd60e51b815260206004820152602f60248201527f416363657373436f6e74726f6c3a2063616e206f6e6c792072656e6f756e636560448201526e103937b632b9903337b91039b2b63360891b6064820152608490fd5b3461038c57608036600319011261038c576004356044356001600160a01b038116906024359082900361038c576064359283151580940361038c57611f2b612b20565b6103e881118015611f72575b61085c57821561085c57600e55600f556bffffffffffffffffffffffff60a01b601054161760105560ff801960125416911617601255600080f35b506107d08211611f37565b3461038c57604036600319011261038c57600435611f996126da565b816000526002602052611fb3600160406000200154612daa565b81600052600260205260406000209060018060a01b0316908160005260205260ff6040600020541615611fe257005b8160005260026020526040600020816000526020526040600020600160ff1982541617905533917f2f8788117e7eff1d82e926ec794901d17c78024a50270940304540a733656f0d600080a4005b3461038c5760208060031936011261038c5760043561204d613166565b801561085c573360005260088252806040600020541061227557612070816134f5565b8060005b60065481108061226c575b156121c85761208d816128b8565b60018060a09493941b03809354600392831b1c166000526007875260ff604060002054166120c6575b506120c19150613106565b612074565b60058752604060002092876127106120e2600187015489612f2b565b049285019283548088106000146121c35750865b808210156121bb5750915b8261210f575b5050506120b6565b600094955416602460405180968193632e1a7d4d60e01b83528660048401525af16000938161218c575b5061214a575050506120c190613106565b918161216b61217b946120c196979454908181106000146121855790613115565b9055818110156121855790613115565b9186808781612107565b5080613115565b9093508881813d83116121b4575b6121a4818361277c565b8101031261038c57519289612139565b503d61219a565b905091612101565b6120f6565b505090336000526008835260406000206121e3828254613115565b90556121f181600454613115565b60045561220082600354613115565b60035561222e82337f0000000000000000000000000000000000000000000000000000000000000000613385565b60405190828252838201527fdf273cb619d95419a9cd0ec88123a0538c85064229baa6363788f743fff90deb60403392a26001600055604051908152f35b5081151561207f565b604051631e9acf1760e31b8152600490fd5b3461038c57602036600319011261038c576001600160a01b036122a86126c4565b166000526007602052602060ff604060002054166040519015158152f35b3461038c57604036600319011261038c576001600160401b0360043581811161038c576122f7903690600401612694565b9160243590811161038c57612310903690600401612694565b92909161231b612905565b600c54610e1081018091116112885742106112765783820361085c576000805b8581106125365750600080600654905b8181106124e55750508303611bbf5761271003611bbf5761236b826130b3565b9360005b8381106124aa575060005b838110612466575061238a61350a565b42600c55604051928060808501608086525260a0840192906000905b80821061243c575050506020918381038385015282808751928381520196019060005b8181106124285750505082850360408401528085526001600160fb1b03811161038c577f7255fc1a6ed23f2388aeff823d30ab1eefc7cb342f1481762f8e7bada20c5f2993839160051b809184880137426060830152339501030190a2005b8251885296840196918401916001016123c9565b90919384359060018060a01b03821680920361038c576001918152602080910195019201906123a6565b806124756124a59284886133c6565b356001600160a01b0361249161248c8489896133c6565b6133d6565b16600052600d602052604060002055613106565b61237a565b6124e0906001600160a01b036124c461248c8388886133c6565b16600052600560205260016040600020015461120a82896133ea565b61236f565b6124ee816128b8565b60018060a01b0391549060031b1c16600052600760205260ff60406000205416612521575b61251c90613106565b61234b565b9161252e61251c91613106565b929050612513565b906001600160a01b0361254d61248c8487876133c6565b16600052600760205260ff60406000205416156110a9576113886125728388886133c6565b3511611bbf576125916125979161258a8489896133c6565b3590612f3e565b91613106565b61233b565b3461038c57602036600319011261038c5760043560005260026020526020600160406000200154604051908152f35b3461038c57600036600319011261038c576020600c54604051908152f35b3461038c57602036600319011261038c5760206104786004356134f5565b3461038c57602036600319011261038c5760043563ffffffff60e01b811680910361038c57602090637965db0b60e01b811490811561264c575b506040519015158152f35b6301ffc9a760e01b14905082612641565b3461038c57600036600319011261038c576020906003548152f35b3461038c57600036600319011261038c57602060405160648152f35b9181601f8401121561038c578235916001600160401b03831161038c576020808501948460051b01011161038c57565b600435906001600160a01b038216820361038c57565b602435906001600160a01b038216820361038c57565b90600182811c92168015612720575b602083101461270a57565b634e487b7160e01b600052602260045260246000fd5b91607f16916126ff565b61010081019081106001600160401b0382111761084657604052565b60c081019081106001600160401b0382111761084657604052565b608081019081106001600160401b0382111761084657604052565b90601f801991011681019081106001600160401b0382111761084657604052565b90604051918260008254926127b1846126f0565b90818452600194858116908160001461282057506001146127dd575b50506127db9250038361277c565b565b9093915060005260209081600020936000915b8183106128085750506127db935082010138806127cd565b855488840185015294850194879450918301916127f0565b9150506127db94506020925060ff191682840152151560051b82010138806127cd565b60005b8381106128565750506000910152565b8181015183820152602001612846565b9060209161287f81518092818552858086019101612843565b601f01601f1916010190565b9181601f8401121561038c578235916001600160401b03831161038c576020838186019501011161038c57565b6006548110156128ef5760066000527ff652222313e28459528d920b65115c16c04f3efc82aaedc97be59f3f377c0d3f0190600090565b634e487b7160e01b600052603260045260246000fd5b3360009081527fd190f20293c25cf866c072dd5acee973f736c2049fca83b655cd3f77af4eadae602090815260408083205490927fccc64574297998b6c3edf6078cc5e01268465ff116954e3af02ff3a70a730f469160ff16156129695750505050565b61297233612f77565b9184519061297f82612761565b60428252848201926060368537825115612b0c5760308453825190600191821015612b0c5790607860218501536041915b818311612a9e57505050612a5c576048612a58938693612a3c93612a2d985198899376020b1b1b2b9b9a1b7b73a3937b61d1030b1b1b7bab73a1604d1b8a860152612a04815180928c603789019101612843565b8401917001034b99036b4b9b9b4b733903937b6329607d1b603784015251809386840190612843565b0103602881018752018561277c565b5192839262461bcd60e51b845260048401526024830190612866565b0390fd5b60648486519062461bcd60e51b825280600483015260248201527f537472696e67733a20686578206c656e67746820696e73756666696369656e746044820152fd5b909192600f81166010811015612af8576f181899199a1a9b1b9c1cb0b131b232b360811b901a612ace8587612f66565b5360041c928015612ae4576000190191906129b0565b634e487b7160e01b82526011600452602482fd5b634e487b7160e01b83526032600452602483fd5b634e487b7160e01b81526032600452602490fd5b3360009081527fe5ebfa64fca8d502a8e50c1edffd2c31ef4dad5b396e65d9f397fb028f74abc5602090815260408083205490927fa49807205ce4d355092ef5a8a18f56e8913cf4a201fbe287825b095693c217759160ff1615612b845750505050565b612b8d33612f77565b91845190612b9a82612761565b60428252848201926060368537825115612b0c5760308453825190600191821015612b0c5790607860218501536041915b818311612c1f57505050612a5c576048612a58938693612a3c93612a2d985198899376020b1b1b2b9b9a1b7b73a3937b61d1030b1b1b7bab73a1604d1b8a860152612a04815180928c603789019101612843565b909192600f81166010811015612af8576f181899199a1a9b1b9c1cb0b131b232b360811b901a612c4f8587612f66565b5360041c928015612ae457600019019190612bcb565b3360009081527f5a10db7eb5fb087477f68987ff09c6ebb13410247d1a97126552f0c97385b266602090815260408083205490927f4170d100a3a3728ae51207936ee755ecaa64a7f6e9383c642ab204a136f90b1b9160ff1615612cc95750505050565b612cd233612f77565b91845190612cdf82612761565b60428252848201926060368537825115612b0c5760308453825190600191821015612b0c5790607860218501536041915b818311612d6457505050612a5c576048612a58938693612a3c93612a2d985198899376020b1b1b2b9b9a1b7b73a3937b61d1030b1b1b7bab73a1604d1b8a860152612a04815180928c603789019101612843565b909192600f81166010811015612af8576f181899199a1a9b1b9c1cb0b131b232b360811b901a612d948587612f66565b5360041c928015612ae457600019019190612d10565b60009080825260209060028252604092838120338252835260ff848220541615612dd45750505050565b612ddd33612f77565b91845190612dea82612761565b60428252848201926060368537825115612b0c5760308453825190600191821015612b0c5790607860218501536041915b818311612e6f57505050612a5c576048612a58938693612a3c93612a2d985198899376020b1b1b2b9b9a1b7b73a3937b61d1030b1b1b7bab73a1604d1b8a860152612a04815180928c603789019101612843565b909192600f81166010811015612af8576f181899199a1a9b1b9c1cb0b131b232b360811b901a612e9f8587612f66565b5360041c928015612ae457600019019190612e1b565b906000918083526002602052604083209160018060a01b03169182845260205260ff604084205416612ee657505050565b8083526002602052604083208284526020526040832060ff1981541690557ff6391f5c32d9c69d2a47ea670b442974b53935d1edc7fd64eb21e047a839171b339380a4565b8181029291811591840414171561128857565b9190820180921161128857565b6001600160401b03811161084657601f01601f191660200190565b9081518110156128ef570160200190565b60405190606082018281106001600160401b0382111761084657604052602a82526020820160403682378251156128ef576030905381516001908110156128ef57607860218401536029905b808211613017575050612fd35790565b606460405162461bcd60e51b815260206004820152602060248201527f537472696e67733a20686578206c656e67746820696e73756666696369656e746044820152fd5b9091600f81166010811015613070576f181899199a1a9b1b9c1cb0b131b232b360811b901a6130468486612f66565b5360041c91801561305b576000190190612fc3565b60246000634e487b7160e01b81526011600452fd5b60246000634e487b7160e01b81526032600452fd5b818110613090575050565b60008155600101613085565b6001600160401b0381116108465760051b60200190565b906130bd8261309c565b6130ca604051918261277c565b82815280926130db601f199161309c565b0190602036910137565b908060209392818452848401376000828201840152601f01601f1916010190565b60001981146112885760010190565b9190820391821161128857565b60ff6001541661312e57565b60405162461bcd60e51b815260206004820152601060248201526f14185d5cd8589b194e881c185d5cd95960821b6044820152606490fd5b600260005414613177576002600055565b60405162461bcd60e51b815260206004820152601f60248201527f5265656e7472616e637947756172643a207265656e7472616e742063616c6c006044820152606490fd5b60018060a01b03169060405160408101908082106001600160401b038311176108465761324b916040526020938482527f5361666545524332303a206c6f772d6c6576656c2063616c6c206661696c6564858301526000808587829751910182855af13d156132e8573d9161323083612f4b565b9261323e604051948561277c565b83523d868885013e6132ec565b8051918215918483156132bd575b5050509050156132665750565b6084906040519062461bcd60e51b82526004820152602a60248201527f5361666545524332303a204552433230206f7065726174696f6e20646964206e6044820152691bdd081cdd58d8d9595960b21b6064820152fd5b9193818094500103126132e4578201519081151582036132e1575080388084613259565b80fd5b5080fd5b6060915b9192901561334e5750815115613300575090565b3b156133095790565b60405162461bcd60e51b815260206004820152601d60248201527f416464726573733a2063616c6c20746f206e6f6e2d636f6e74726163740000006044820152606490fd5b8251909150156133615750805190602001fd5b60405162461bcd60e51b815260206004820152908190612a58906024830190612866565b60405163a9059cbb60e01b60208201526001600160a01b039290921660248301526044808301939093529181526127db916133c160648361277c565b6131bc565b91908110156128ef5760051b0190565b356001600160a01b038116810361038c5790565b80518210156128ef5760209160051b010190565b8115611210570490565b6003548015801561342b575b6134275760045461342492613435565b90565b5090565b5060045415613414565b9160001982840992828102928380861095039480860395146134e857848311156134ab578291096001821901821680920460028082600302188083028203028083028203028083028203028083028203028083028203028092029003029360018380600003040190848311900302920304170290565b60405162461bcd60e51b81526020600482015260156024820152744d6174683a206d756c446976206f766572666c6f7760581b6044820152606490fd5b50509061342492506133fe565b60045480156134275760035461342492613435565b60005b6006548110156135725780613524613551926128b8565b60018060a01b0391549060031b1c16600052602060078152604060ff816000205416613556575050613106565b61350d565b600190600d835260058160002054935260002001553880611178565b5056fea264697066735822122079d5d7082309c0384cb5020fea1d6f9ca02c7024155079c594df970477bb61a364736f6c634300081400332f8788117e7eff1d82e926ec794901d17c78024a50270940304540a733656f0d","opcodes":"PUSH1 0xA0 CALLVALUE PUSH3 0x2F9 JUMPI PUSH1 0x1F PUSH3 0x38F5 CODESIZE DUP2 SWAP1 SUB SWAP2 DUP3 ADD PUSH1 0x1F NOT AND DUP4 ADD SWAP3 SWAP2 SWAP1 PUSH1 0x1 PUSH1 0x1 PUSH1 0x40 SHL SUB DUP5 GT DUP4 DUP6 LT OR PUSH3 0x2FE JUMPI DUP2 PUSH1 0x60 SWAP3 DUP5 SWAP3 PUSH1 0x40 SWAP7 DUP8 MSTORE DUP4 CODECOPY DUP2 ADD SUB SLT PUSH3 0x2F9 JUMPI PUSH3 0x51 DUP2 PUSH3 0x314 JUMP JUMPDEST SWAP1 PUSH1 0x20 SWAP2 PUSH3 0x6F DUP5 PUSH3 0x67 DUP6 DUP6 ADD PUSH3 0x314 JUMP JUMPDEST SWAP4 ADD PUSH3 0x314 JUMP JUMPDEST PUSH1 0x1 PUSH1 0x0 SWAP5 DUP2 DUP7 SSTORE PUSH1 0xFF NOT SWAP3 DUP4 DUP4 SLOAD AND DUP4 SSTORE PUSH1 0xC8 PUSH1 0xE SSTORE PUSH2 0x3E8 PUSH1 0xF SSTORE PUSH1 0x5 PUSH1 0x11 SSTORE DUP3 DUP5 PUSH1 0x12 SLOAD AND OR PUSH1 0x12 SSTORE PUSH1 0x1 DUP1 PUSH1 0xA0 SHL SUB DUP1 SWAP6 AND DUP1 ISZERO DUP1 ISZERO PUSH3 0x2EE JUMPI JUMPDEST DUP1 ISZERO PUSH3 0x2E3 JUMPI JUMPDEST PUSH3 0x2D2 JUMPI PUSH1 0x80 MSTORE PUSH1 0x10 DUP1 SLOAD PUSH1 0x1 PUSH1 0x1 PUSH1 0xA0 SHL SUB NOT AND SWAP2 DUP7 AND SWAP2 SWAP1 SWAP2 OR SWAP1 SSTORE DUP6 DUP1 MSTORE PUSH1 0x2 DUP1 DUP3 MSTORE DUP8 DUP8 KECCAK256 SWAP6 SWAP1 SWAP5 AND DUP1 DUP8 MSTORE SWAP5 DUP2 MSTORE DUP7 DUP7 KECCAK256 SLOAD PUSH1 0xFF AND ISZERO PUSH3 0x29D JUMPI JUMPDEST PUSH32 0xA49807205CE4D355092EF5A8A18F56E8913CF4A201FBE287825B095693C21775 DUP1 DUP8 MSTORE DUP5 DUP3 MSTORE DUP8 DUP8 KECCAK256 DUP7 DUP9 MSTORE DUP3 MSTORE PUSH1 0xFF DUP9 DUP9 KECCAK256 SLOAD AND ISZERO PUSH3 0x267 JUMPI JUMPDEST POP PUSH32 0x4170D100A3A3728AE51207936EE755ECAA64A7F6E9383C642AB204A136F90B1B DUP1 DUP8 MSTORE DUP5 DUP3 MSTORE DUP8 DUP8 KECCAK256 DUP7 DUP9 MSTORE DUP3 MSTORE PUSH1 0xFF DUP9 DUP9 KECCAK256 SLOAD AND ISZERO PUSH3 0x231 JUMPI JUMPDEST POP PUSH32 0xCCC64574297998B6C3EDF6078CC5E01268465FF116954E3AF02FF3A70A730F46 SWAP4 DUP5 DUP8 MSTORE DUP1 DUP3 MSTORE DUP8 DUP8 KECCAK256 DUP7 DUP9 MSTORE DUP3 MSTORE PUSH1 0xFF DUP9 DUP9 KECCAK256 SLOAD AND ISZERO PUSH3 0x1F9 JUMPI JUMPDEST DUP8 TIMESTAMP PUSH1 0xC SSTORE MLOAD PUSH2 0x35AB SWAP1 DUP2 PUSH3 0x32A DUP3 CODECOPY PUSH1 0x80 MLOAD DUP2 DUP2 DUP2 PUSH2 0x4FC ADD MSTORE DUP2 DUP2 PUSH2 0x628 ADD MSTORE DUP2 DUP2 PUSH2 0x785 ADD MSTORE DUP2 DUP2 PUSH2 0xD1F ADD MSTORE DUP2 DUP2 PUSH2 0x1635 ADD MSTORE DUP2 DUP2 PUSH2 0x1E27 ADD MSTORE PUSH2 0x220A ADD MSTORE RETURN JUMPDEST DUP5 DUP8 MSTORE DUP2 MSTORE DUP7 DUP7 KECCAK256 SWAP1 DUP6 DUP8 MSTORE MSTORE DUP6 DUP6 KECCAK256 SWAP2 DUP3 SLOAD AND OR SWAP1 SSTORE PUSH1 0x0 DUP1 MLOAD PUSH1 0x20 PUSH3 0x38D5 DUP4 CODECOPY DUP2 MLOAD SWAP2 MSTORE CALLER SWAP4 DUP1 LOG4 CODESIZE DUP1 DUP1 DUP1 DUP1 DUP1 DUP1 PUSH3 0x1B3 JUMP JUMPDEST DUP1 DUP8 MSTORE DUP5 DUP3 MSTORE DUP8 DUP8 KECCAK256 DUP7 DUP9 MSTORE DUP3 MSTORE DUP8 DUP8 KECCAK256 DUP4 DUP6 DUP3 SLOAD AND OR SWAP1 SSTORE DUP6 CALLER SWAP2 PUSH1 0x0 DUP1 MLOAD PUSH1 0x20 PUSH3 0x38D5 DUP4 CODECOPY DUP2 MLOAD SWAP2 MSTORE DUP10 DUP1 LOG4 CODESIZE PUSH3 0x174 JUMP JUMPDEST DUP1 DUP8 MSTORE DUP5 DUP3 MSTORE DUP8 DUP8 KECCAK256 DUP7 DUP9 MSTORE DUP3 MSTORE DUP8 DUP8 KECCAK256 DUP4 DUP6 DUP3 SLOAD AND OR SWAP1 SSTORE DUP6 CALLER SWAP2 PUSH1 0x0 DUP1 MLOAD PUSH1 0x20 PUSH3 0x38D5 DUP4 CODECOPY DUP2 MLOAD SWAP2 MSTORE DUP10 DUP1 LOG4 CODESIZE PUSH3 0x136 JUMP JUMPDEST DUP6 DUP1 MSTORE DUP4 DUP2 MSTORE DUP7 DUP7 KECCAK256 DUP6 DUP8 MSTORE DUP2 MSTORE DUP7 DUP7 KECCAK256 DUP3 DUP5 DUP3 SLOAD AND OR SWAP1 SSTORE CALLER DUP6 DUP8 PUSH1 0x0 DUP1 MLOAD PUSH1 0x20 PUSH3 0x38D5 DUP4 CODECOPY DUP2 MLOAD SWAP2 MSTORE DUP2 DUP1 LOG4 PUSH3 0xF9 JUMP JUMPDEST DUP9 MLOAD PUSH4 0x162908E3 PUSH1 0xE1 SHL DUP2 MSTORE PUSH1 0x4 SWAP1 REVERT JUMPDEST POP DUP6 DUP3 AND ISZERO PUSH3 0xB7 JUMP JUMPDEST POP DUP6 DUP8 AND ISZERO PUSH3 0xAF JUMP JUMPDEST PUSH1 0x0 DUP1 REVERT JUMPDEST PUSH4 0x4E487B71 PUSH1 0xE0 SHL PUSH1 0x0 MSTORE PUSH1 0x41 PUSH1 0x4 MSTORE PUSH1 0x24 PUSH1 0x0 REVERT JUMPDEST MLOAD SWAP1 PUSH1 0x1 PUSH1 0x1 PUSH1 0xA0 SHL SUB DUP3 AND DUP3 SUB PUSH3 0x2F9 JUMPI JUMP INVALID PUSH1 0x80 DUP1 PUSH1 0x40 MSTORE PUSH1 0x4 CALLDATASIZE LT ISZERO PUSH2 0x13 JUMPI PUSH1 0x0 DUP1 REVERT JUMPDEST PUSH1 0x0 CALLDATALOAD PUSH1 0xE0 SHR SWAP1 DUP2 PUSH4 0x1E1D114 EQ PUSH2 0x265D JUMPI POP DUP1 PUSH4 0x1FFC9A7 EQ PUSH2 0x2607 JUMPI DUP1 PUSH4 0x7A2D13A EQ PUSH2 0x25E9 JUMPI DUP1 PUSH4 0xE7BD231 EQ PUSH2 0x391 JUMPI DUP1 PUSH4 0x106B9CA1 EQ PUSH2 0x25CB JUMPI DUP1 PUSH4 0x248A9CA3 EQ PUSH2 0x259C JUMPI DUP1 PUSH4 0x2BE01190 EQ PUSH2 0x22C6 JUMPI DUP1 PUSH4 0x2C178BD0 EQ PUSH2 0x2287 JUMPI DUP1 PUSH4 0x2E1A7D4D EQ PUSH2 0x2030 JUMPI DUP1 PUSH4 0x2F2FF15D EQ PUSH2 0x1F7D JUMPI DUP1 PUSH4 0x357AD7AD EQ PUSH2 0x1EE8 JUMPI DUP1 PUSH4 0x36568ABE EQ PUSH2 0x1E56 JUMPI DUP1 PUSH4 0x38D52E0F EQ PUSH2 0x1E11 JUMPI DUP1 PUSH4 0x39EBF823 EQ PUSH2 0x1D70 JUMPI DUP1 PUSH4 0x3A98EF39 EQ PUSH2 0x1D52 JUMPI DUP1 PUSH4 0x3F4BA83A EQ PUSH2 0x1CBE JUMPI DUP1 PUSH4 0x46904840 EQ PUSH2 0x1C95 JUMPI DUP1 PUSH4 0x490B48F8 EQ PUSH2 0x1C5A JUMPI DUP1 PUSH4 0x51858E27 EQ PUSH2 0x1C01 JUMPI DUP1 PUSH4 0x527F116F EQ PUSH2 0x1557 JUMPI DUP1 PUSH4 0x54192AD5 EQ PUSH2 0x1423 JUMPI DUP1 PUSH4 0x55282902 EQ PUSH2 0x1405 JUMPI DUP1 PUSH4 0x58D1D42A EQ PUSH2 0x13E7 JUMPI DUP1 PUSH4 0x5C975ABB EQ PUSH2 0x13C4 JUMPI DUP1 PUSH4 0x64D60A7D EQ PUSH2 0x13A7 JUMPI DUP1 PUSH4 0x6B5CC294 EQ PUSH2 0x1341 JUMPI DUP1 PUSH4 0x70A08231 EQ PUSH2 0x1307 JUMPI DUP1 PUSH4 0x75B238FC EQ PUSH2 0x12CC JUMPI DUP1 PUSH4 0x767F06AE EQ PUSH2 0x12B0 JUMPI DUP1 PUSH4 0x7A6EFD47 EQ PUSH2 0x10D9 JUMPI DUP1 PUSH4 0x87788782 EQ PUSH2 0x10BB JUMPI DUP1 PUSH4 0x8EA447E6 EQ PUSH2 0xDC8 JUMPI DUP1 PUSH4 0x8ED955B9 EQ PUSH2 0xB48 JUMPI DUP1 PUSH4 0x8FAEE2A8 EQ PUSH2 0xB2B JUMPI DUP1 PUSH4 0x91D14854 EQ PUSH2 0xADE JUMPI DUP1 PUSH4 0x962CA496 EQ PUSH2 0x948 JUMPI DUP1 PUSH4 0xA217FDDF EQ PUSH2 0x92C JUMPI DUP1 PUSH4 0xA267526B EQ PUSH2 0x8EA JUMPI DUP1 PUSH4 0xA5AC4DD1 EQ PUSH2 0x8C7 JUMPI DUP1 PUSH4 0xA6F7F5D6 EQ PUSH2 0x8A9 JUMPI DUP1 PUSH4 0xABCBE0B2 EQ PUSH2 0x86E JUMPI DUP1 PUSH4 0xB6B55F25 EQ PUSH2 0x480 JUMPI DUP1 PUSH4 0xC6E6F592 EQ PUSH2 0x45A JUMPI DUP1 PUSH4 0xD547741F EQ PUSH2 0x419 JUMPI DUP1 PUSH4 0xDCDF92FB EQ PUSH2 0x3ED JUMPI DUP1 PUSH4 0xE1F1C4A7 EQ PUSH2 0x3D0 JUMPI DUP1 PUSH4 0xE8F8080C EQ PUSH2 0x396 JUMPI DUP1 PUSH4 0xEF434D61 EQ PUSH2 0x391 JUMPI PUSH4 0xF51381DA EQ PUSH2 0x23A JUMPI PUSH1 0x0 DUP1 REVERT JUMPDEST CALLVALUE PUSH2 0x38C JUMPI PUSH1 0x20 DUP1 PUSH1 0x3 NOT CALLDATASIZE ADD SLT PUSH2 0x38C JUMPI PUSH2 0x254 PUSH2 0x26C4 JUMP JUMPDEST PUSH1 0x0 PUSH1 0xA0 PUSH1 0x40 MLOAD PUSH2 0x264 DUP2 PUSH2 0x2746 JUMP JUMPDEST DUP3 DUP2 MSTORE DUP3 DUP6 DUP3 ADD MSTORE DUP3 PUSH1 0x40 DUP3 ADD MSTORE PUSH1 0x60 DUP1 DUP3 ADD MSTORE DUP3 PUSH1 0x80 DUP3 ADD MSTORE ADD MSTORE PUSH1 0x1 DUP1 PUSH1 0xA0 SHL SUB AND PUSH1 0x0 MSTORE PUSH1 0xA DUP2 MSTORE PUSH1 0x40 PUSH1 0x0 KECCAK256 PUSH1 0x40 MLOAD PUSH2 0x2A0 DUP2 PUSH2 0x2746 JUMP JUMPDEST DUP2 SLOAD DUP2 MSTORE PUSH1 0x1 SWAP3 DUP4 DUP4 ADD SLOAD SWAP3 DUP2 DUP4 ADD SWAP4 DUP5 MSTORE PUSH1 0x2 DUP2 ADD SLOAD SWAP2 PUSH1 0x40 DUP5 ADD SWAP3 DUP4 MSTORE PUSH1 0x3 DUP3 ADD PUSH1 0x40 MLOAD SWAP1 DUP2 DUP4 DUP3 SLOAD SWAP2 DUP3 DUP2 MSTORE ADD SWAP2 PUSH1 0x0 MSTORE DUP4 PUSH1 0x0 KECCAK256 SWAP1 DUP10 PUSH1 0x0 JUMPDEST DUP3 DUP2 LT PUSH2 0x379 JUMPI POP POP POP POP DUP2 PUSH2 0x2F4 SWAP2 SUB DUP3 PUSH2 0x277C JUMP JUMPDEST PUSH1 0x60 DUP6 ADD SWAP1 DUP2 MSTORE PUSH1 0x5 PUSH1 0x4 DUP5 ADD SLOAD SWAP4 PUSH1 0x80 DUP8 ADD SWAP5 DUP6 MSTORE ADD SLOAD SWAP4 PUSH1 0xA0 DUP7 ADD SWAP5 DUP6 MSTORE PUSH1 0x40 MLOAD SWAP7 DUP4 DUP9 MSTORE PUSH1 0xE0 DUP9 ADD SWAP7 MLOAD DUP5 DUP10 ADD MSTORE MLOAD PUSH1 0x40 DUP9 ADD MSTORE MLOAD PUSH1 0x60 DUP8 ADD MSTORE MLOAD SWAP4 PUSH1 0xC0 PUSH1 0x80 DUP8 ADD MSTORE DUP5 MLOAD DUP1 SWAP2 MSTORE DUP2 PUSH2 0x100 DUP8 ADD SWAP6 ADD SWAP2 PUSH1 0x0 JUMPDEST DUP3 DUP2 LT PUSH2 0x366 JUMPI DUP5 MLOAD PUSH1 0xA0 DUP10 ADD MSTORE DUP6 MLOAD PUSH1 0xC0 DUP10 ADD MSTORE DUP8 DUP8 SUB DUP9 RETURN JUMPDEST DUP4 MLOAD DUP8 MSTORE SWAP6 DUP2 ADD SWAP6 SWAP3 DUP2 ADD SWAP3 DUP9 ADD PUSH2 0x34B JUMP JUMPDEST DUP4 SLOAD DUP6 MSTORE SWAP4 DUP7 ADD SWAP4 SWAP3 DUP2 ADD SWAP3 DUP2 ADD PUSH2 0x2DD JUMP JUMPDEST PUSH1 0x0 DUP1 REVERT JUMPDEST PUSH2 0x2678 JUMP JUMPDEST CALLVALUE PUSH2 0x38C JUMPI PUSH1 0x20 CALLDATASIZE PUSH1 0x3 NOT ADD SLT PUSH2 0x38C JUMPI PUSH1 0x1 PUSH1 0x1 PUSH1 0xA0 SHL SUB PUSH2 0x3B7 PUSH2 0x26C4 JUMP JUMPDEST AND PUSH1 0x0 MSTORE PUSH1 0xD PUSH1 0x20 MSTORE PUSH1 0x20 PUSH1 0x40 PUSH1 0x0 KECCAK256 SLOAD PUSH1 0x40 MLOAD SWAP1 DUP2 MSTORE RETURN JUMPDEST CALLVALUE PUSH2 0x38C JUMPI PUSH1 0x0 CALLDATASIZE PUSH1 0x3 NOT ADD SLT PUSH2 0x38C JUMPI PUSH1 0x20 PUSH1 0x40 MLOAD PUSH2 0x2710 DUP2 MSTORE RETURN JUMPDEST CALLVALUE PUSH2 0x38C JUMPI PUSH1 0x20 CALLDATASIZE PUSH1 0x3 NOT ADD SLT PUSH2 0x38C JUMPI PUSH1 0x4 CALLDATALOAD PUSH1 0x0 MSTORE PUSH1 0xB PUSH1 0x20 MSTORE PUSH1 0x20 PUSH1 0x40 PUSH1 0x0 KECCAK256 SLOAD PUSH1 0x40 MLOAD SWAP1 DUP2 MSTORE RETURN JUMPDEST CALLVALUE PUSH2 0x38C JUMPI PUSH1 0x40 CALLDATASIZE PUSH1 0x3 NOT ADD SLT PUSH2 0x38C JUMPI PUSH2 0x458 PUSH1 0x4 CALLDATALOAD PUSH2 0x438 PUSH2 0x26DA JUMP JUMPDEST SWAP1 DUP1 PUSH1 0x0 MSTORE PUSH1 0x2 PUSH1 0x20 MSTORE PUSH2 0x453 PUSH1 0x1 PUSH1 0x40 PUSH1 0x0 KECCAK256 ADD SLOAD PUSH2 0x2DAA JUMP JUMPDEST PUSH2 0x2EB5 JUMP JUMPDEST STOP JUMPDEST CALLVALUE PUSH2 0x38C JUMPI PUSH1 0x20 CALLDATASIZE PUSH1 0x3 NOT ADD SLT PUSH2 0x38C JUMPI PUSH1 0x20 PUSH2 0x478 PUSH1 0x4 CALLDATALOAD PUSH2 0x3408 JUMP JUMPDEST PUSH1 0x40 MLOAD SWAP1 DUP2 MSTORE RETURN JUMPDEST CALLVALUE PUSH2 0x38C JUMPI PUSH1 0x20 CALLDATASIZE PUSH1 0x3 NOT ADD SLT PUSH2 0x38C JUMPI PUSH2 0x499 PUSH2 0x3166 JUMP JUMPDEST PUSH2 0x4A1 PUSH2 0x3122 JUMP JUMPDEST PUSH1 0x4 CALLDATALOAD ISZERO PUSH2 0x85C JUMPI PUSH2 0x4B4 PUSH1 0x4 CALLDATALOAD PUSH2 0x3408 JUMP JUMPDEST PUSH1 0x40 MLOAD PUSH4 0x23B872DD PUSH1 0xE0 SHL PUSH1 0x20 DUP3 ADD MSTORE CALLER PUSH1 0x24 DUP3 ADD MSTORE ADDRESS PUSH1 0x44 DUP3 ADD MSTORE PUSH1 0x4 CALLDATALOAD PUSH1 0x64 DUP3 ADD MSTORE PUSH1 0x64 DUP2 MSTORE PUSH1 0xA0 DUP2 ADD SWAP1 DUP1 DUP3 LT PUSH1 0x1 PUSH1 0x1 PUSH1 0x40 SHL SUB DUP4 GT OR PUSH2 0x846 JUMPI PUSH2 0x520 SWAP2 PUSH1 0x40 MSTORE PUSH32 0x0 PUSH2 0x31BC JUMP JUMPDEST CALLER PUSH1 0x0 MSTORE PUSH1 0x8 PUSH1 0x20 MSTORE PUSH1 0x40 PUSH1 0x0 KECCAK256 PUSH2 0x539 DUP3 DUP3 SLOAD PUSH2 0x2F3E JUMP JUMPDEST SWAP1 SSTORE PUSH2 0x547 DUP2 PUSH1 0x4 SLOAD PUSH2 0x2F3E JUMP JUMPDEST PUSH1 0x4 SSTORE PUSH2 0x558 PUSH1 0x4 CALLDATALOAD PUSH1 0x3 SLOAD PUSH2 0x2F3E JUMP JUMPDEST PUSH1 0x3 SSTORE PUSH1 0x0 JUMPDEST PUSH1 0x6 SLOAD DUP2 LT ISZERO PUSH2 0x803 JUMPI PUSH2 0x571 DUP2 PUSH2 0x28B8 JUMP JUMPDEST PUSH1 0x1 DUP1 PUSH1 0xA0 SHL SUB SWAP2 SLOAD SWAP1 PUSH1 0x3 SHL SHR AND SWAP1 DUP2 PUSH1 0x0 MSTORE PUSH1 0x7 PUSH1 0x20 MSTORE PUSH1 0xFF PUSH1 0x40 PUSH1 0x0 KECCAK256 SLOAD AND PUSH2 0x5A7 JUMPI JUMPDEST PUSH2 0x5A2 SWAP2 POP PUSH2 0x3106 JUMP JUMPDEST PUSH2 0x55E JUMP JUMPDEST PUSH1 0x5 PUSH1 0x20 MSTORE PUSH1 0x40 PUSH1 0x0 KECCAK256 PUSH2 0x2710 PUSH2 0x5C4 PUSH1 0x1 DUP4 ADD SLOAD PUSH1 0x4 CALLDATALOAD PUSH2 0x2F2B JUMP JUMPDEST DIV SWAP1 DUP2 ISZERO DUP1 ISZERO SWAP1 DUP2 PUSH2 0x5DA JUMPI JUMPDEST POP POP POP POP PUSH2 0x598 JUMP JUMPDEST SWAP1 PUSH2 0x762 JUMPI JUMPDEST ISZERO PUSH2 0x6FE JUMPI PUSH1 0x40 MLOAD PUSH4 0x95EA7B3 PUSH1 0xE0 SHL PUSH1 0x20 DUP3 ADD DUP2 SWAP1 MSTORE PUSH1 0x1 PUSH1 0x1 PUSH1 0xA0 SHL SUB DUP7 AND PUSH1 0x24 DUP4 ADD MSTORE PUSH1 0x44 DUP1 DUP4 ADD DUP6 SWAP1 MSTORE DUP3 MSTORE PUSH1 0x0 SWAP6 SWAP1 SWAP3 SWAP1 SWAP2 PUSH2 0x64C SWAP1 PUSH2 0x626 PUSH1 0x64 DUP3 PUSH2 0x277C JUMP JUMPDEST PUSH32 0x0 PUSH2 0x31BC JUMP JUMPDEST DUP1 SLOAD PUSH1 0x40 MLOAD PUSH4 0xB6B55F25 PUSH1 0xE0 SHL DUP2 MSTORE PUSH1 0x4 DUP2 ADD DUP7 SWAP1 MSTORE SWAP7 PUSH1 0x20 SWAP2 DUP9 SWAP2 PUSH1 0x24 SWAP2 DUP4 SWAP2 SWAP1 PUSH1 0x1 PUSH1 0x1 PUSH1 0xA0 SHL SUB AND GAS CALL SWAP6 DUP7 PUSH2 0x6D3 JUMPI JUMPDEST POP PUSH2 0x5A2 SWAP6 PUSH2 0x6BA JUMPI POP PUSH2 0x6B1 SWAP3 POP PUSH1 0x40 MLOAD SWAP2 PUSH1 0x20 DUP4 ADD MSTORE PUSH1 0x24 DUP3 ADD MSTORE PUSH1 0x0 PUSH1 0x44 DUP3 ADD MSTORE PUSH1 0x44 DUP2 MSTORE PUSH2 0x626 DUP2 PUSH2 0x2761 JUMP JUMPDEST DUP4 DUP1 DUP1 DUP1 PUSH2 0x5D1 JUMP JUMPDEST PUSH2 0x6CC SWAP3 POP PUSH1 0x3 SWAP2 POP ADD SWAP2 DUP3 SLOAD PUSH2 0x2F3E JUMP JUMPDEST SWAP1 SSTORE PUSH2 0x6B1 JUMP JUMPDEST PUSH1 0x20 SWAP1 DUP2 RETURNDATASIZE DUP4 GT PUSH2 0x6F7 JUMPI JUMPDEST PUSH2 0x6E9 DUP2 DUP4 PUSH2 0x277C JUMP JUMPDEST DUP2 ADD SUB SLT PUSH2 0x38C JUMPI DUP8 PUSH2 0x680 JUMP JUMPDEST POP RETURNDATASIZE PUSH2 0x6DF JUMP JUMPDEST PUSH1 0x40 MLOAD PUSH3 0x461BCD PUSH1 0xE5 SHL DUP2 MSTORE PUSH1 0x20 PUSH1 0x4 DUP3 ADD MSTORE PUSH1 0x36 PUSH1 0x24 DUP3 ADD MSTORE PUSH32 0x5361666545524332303A20617070726F76652066726F6D206E6F6E2D7A65726F PUSH1 0x44 DUP3 ADD MSTORE PUSH22 0x20746F206E6F6E2D7A65726F20616C6C6F77616E6365 PUSH1 0x50 SHL PUSH1 0x64 DUP3 ADD MSTORE PUSH1 0x84 SWAP1 REVERT JUMPDEST POP PUSH1 0x40 MLOAD PUSH4 0x6EB1769F PUSH1 0xE1 SHL DUP2 MSTORE ADDRESS PUSH1 0x4 DUP3 ADD MSTORE PUSH1 0x24 DUP2 ADD DUP6 SWAP1 MSTORE PUSH1 0x20 DUP2 PUSH1 0x44 DUP2 PUSH32 0x0 PUSH1 0x1 PUSH1 0x1 PUSH1 0xA0 SHL SUB AND GAS STATICCALL SWAP1 DUP2 ISZERO PUSH2 0x7F7 JUMPI PUSH1 0x0 SWAP2 PUSH2 0x7C5 JUMPI JUMPDEST POP ISZERO PUSH2 0x5E0 JUMP JUMPDEST SWAP1 POP PUSH1 0x20 DUP2 RETURNDATASIZE PUSH1 0x20 GT PUSH2 0x7EF JUMPI JUMPDEST DUP2 PUSH2 0x7E0 PUSH1 0x20 SWAP4 DUP4 PUSH2 0x277C JUMP JUMPDEST DUP2 ADD SUB SLT PUSH2 0x38C JUMPI MLOAD DUP7 PUSH2 0x7BE JUMP JUMPDEST RETURNDATASIZE SWAP2 POP PUSH2 0x7D3 JUMP JUMPDEST PUSH1 0x40 MLOAD RETURNDATASIZE PUSH1 0x0 DUP3 RETURNDATACOPY RETURNDATASIZE SWAP1 REVERT JUMPDEST PUSH1 0x20 DUP3 PUSH1 0x40 MLOAD PUSH1 0x4 CALLDATALOAD DUP2 MSTORE DUP2 DUP4 DUP3 ADD MSTORE PUSH32 0x90890809C654F11D6E72A28FA60149770A0D11EC6C92319D6CEB2BB0A4EA1A15 PUSH1 0x40 CALLER SWAP3 LOG2 PUSH1 0x1 PUSH1 0x0 SSTORE PUSH1 0x40 MLOAD SWAP1 DUP2 MSTORE RETURN JUMPDEST PUSH4 0x4E487B71 PUSH1 0xE0 SHL PUSH1 0x0 MSTORE PUSH1 0x41 PUSH1 0x4 MSTORE PUSH1 0x24 PUSH1 0x0 REVERT JUMPDEST PUSH1 0x40 MLOAD PUSH4 0x162908E3 PUSH1 0xE1 SHL DUP2 MSTORE PUSH1 0x4 SWAP1 REVERT JUMPDEST CALLVALUE PUSH2 0x38C JUMPI PUSH1 0x0 CALLDATASIZE PUSH1 0x3 NOT ADD SLT PUSH2 0x38C JUMPI PUSH1 0x20 PUSH1 0x40 MLOAD PUSH32 0x4170D100A3A3728AE51207936EE755ECAA64A7F6E9383C642AB204A136F90B1B DUP2 MSTORE RETURN JUMPDEST CALLVALUE PUSH2 0x38C JUMPI PUSH1 0x0 CALLDATASIZE PUSH1 0x3 NOT ADD SLT PUSH2 0x38C JUMPI PUSH1 0x20 PUSH1 0xE SLOAD PUSH1 0x40 MLOAD SWAP1 DUP2 MSTORE RETURN JUMPDEST CALLVALUE PUSH2 0x38C JUMPI PUSH1 0x0 CALLDATASIZE PUSH1 0x3 NOT ADD SLT PUSH2 0x38C JUMPI PUSH1 0x20 PUSH1 0xFF PUSH1 0x12 SLOAD AND PUSH1 0x40 MLOAD SWAP1 ISZERO ISZERO DUP2 MSTORE RETURN JUMPDEST CALLVALUE PUSH2 0x38C JUMPI PUSH1 0x20 CALLDATASIZE PUSH1 0x3 NOT ADD SLT PUSH2 0x38C JUMPI PUSH1 0x4 CALLDATALOAD PUSH1 0x6 SLOAD DUP2 LT ISZERO PUSH2 0x38C JUMPI PUSH2 0x913 PUSH1 0x20 SWAP2 PUSH2 0x28B8 JUMP JUMPDEST SWAP1 SLOAD PUSH1 0x40 MLOAD PUSH1 0x3 SWAP3 SWAP1 SWAP3 SHL SHR PUSH1 0x1 PUSH1 0x1 PUSH1 0xA0 SHL SUB AND DUP2 MSTORE RETURN JUMPDEST CALLVALUE PUSH2 0x38C JUMPI PUSH1 0x0 CALLDATASIZE PUSH1 0x3 NOT ADD SLT PUSH2 0x38C JUMPI PUSH1 0x20 PUSH1 0x40 MLOAD PUSH1 0x0 DUP2 MSTORE RETURN JUMPDEST CALLVALUE PUSH2 0x38C JUMPI PUSH1 0x0 CALLDATASIZE PUSH1 0x3 NOT ADD SLT PUSH2 0x38C JUMPI PUSH1 0x0 DUP1 PUSH1 0x0 SWAP2 PUSH1 0x0 PUSH1 0x6 DUP1 SLOAD SWAP2 JUMPDEST DUP3 DUP2 LT PUSH2 0x994 JUMPI PUSH1 0x20 DUP6 DUP8 DUP7 DUP2 PUSH2 0x983 JUMPI JUMPDEST POP POP PUSH1 0x40 MLOAD SWAP1 DUP2 MSTORE RETURN JUMPDEST PUSH2 0x98D SWAP3 POP PUSH2 0x33FE JUMP JUMPDEST DUP3 DUP1 PUSH2 0x979 JUMP JUMPDEST PUSH2 0x99D DUP2 PUSH2 0x28B8 JUMP JUMPDEST PUSH1 0x1 DUP1 PUSH1 0xA0 SWAP5 SWAP4 SWAP5 SHL SUB DUP1 SWAP4 SLOAD PUSH1 0x3 SWAP3 DUP4 SHL SHR AND PUSH1 0x0 MSTORE PUSH1 0x7 PUSH1 0x20 SWAP1 DUP1 DUP3 MSTORE PUSH1 0xFF SWAP1 DUP2 PUSH1 0x40 PUSH1 0x0 KECCAK256 SLOAD AND PUSH2 0x9DF JUMPI JUMPDEST POP POP POP POP PUSH2 0x9DA SWAP2 POP PUSH2 0x3106 JUMP JUMPDEST PUSH2 0x967 JUMP JUMPDEST SWAP5 DUP3 SWAP2 PUSH2 0xA49 PUSH1 0x4 SWAP7 SWAP8 PUSH1 0x5 SWAP3 DUP4 DUP7 MSTORE PUSH1 0x40 PUSH1 0x0 KECCAK256 SWAP1 PUSH1 0x40 MLOAD SWAP5 PUSH2 0xA02 DUP7 PUSH2 0x272A JUMP JUMPDEST DUP7 DUP4 SLOAD AND DUP7 MSTORE PUSH1 0x1 DUP4 ADD SLOAD SWAP10 DUP9 DUP8 ADD SWAP11 DUP12 MSTORE PUSH1 0x2 DUP5 ADD SLOAD PUSH1 0x40 DUP9 ADD MSTORE DUP4 ADD SLOAD PUSH1 0x60 DUP8 ADD MSTORE DUP11 DUP4 ADD SLOAD PUSH1 0x80 DUP8 ADD MSTORE DUP3 ADD SLOAD AND ISZERO ISZERO PUSH1 0xA0 DUP6 ADD MSTORE DUP11 DUP2 ADD SLOAD PUSH1 0xC0 DUP6 ADD MSTORE ADD PUSH2 0x279D JUMP JUMPDEST PUSH1 0xE0 DUP3 ADD MSTORE MLOAD AND PUSH1 0x40 MLOAD SWAP5 DUP6 DUP1 SWAP3 PUSH4 0x4B16524B PUSH1 0xE1 SHL DUP3 MSTORE GAS STATICCALL SWAP3 DUP4 SWAP2 PUSH1 0x0 SWAP5 PUSH2 0xAAE JUMPI JUMPDEST POP POP PUSH2 0xA7F JUMPI POP POP PUSH2 0x9DA SWAP1 PUSH2 0x3106 JUMP JUMPDEST SWAP1 PUSH2 0xA9E PUSH2 0x9DA SWAP4 SWAP9 SWAP7 PUSH2 0xA98 PUSH2 0xAA4 SWAP5 MLOAD DUP1 SWAP5 PUSH2 0x2F2B JUMP JUMPDEST SWAP1 PUSH2 0x2F3E JUMP JUMPDEST SWAP6 PUSH2 0x2F3E JUMP JUMPDEST SWAP6 DUP8 DUP1 DUP1 DUP1 PUSH2 0x9CC JUMP JUMPDEST SWAP1 DUP1 SWAP3 SWAP5 POP DUP2 RETURNDATASIZE DUP4 GT PUSH2 0xAD7 JUMPI JUMPDEST PUSH2 0xAC6 DUP2 DUP4 PUSH2 0x277C JUMP JUMPDEST DUP2 ADD SUB SLT PUSH2 0x38C JUMPI MLOAD SWAP2 DUP10 DUP1 PUSH2 0xA6E JUMP JUMPDEST POP RETURNDATASIZE PUSH2 0xABC JUMP JUMPDEST CALLVALUE PUSH2 0x38C JUMPI PUSH1 0x40 CALLDATASIZE PUSH1 0x3 NOT ADD SLT PUSH2 0x38C JUMPI PUSH2 0xAF7 PUSH2 0x26DA JUMP JUMPDEST PUSH1 0x4 CALLDATALOAD PUSH1 0x0 MSTORE PUSH1 0x2 PUSH1 0x20 MSTORE PUSH1 0x40 PUSH1 0x0 KECCAK256 SWAP1 PUSH1 0x1 DUP1 PUSH1 0xA0 SHL SUB AND PUSH1 0x0 MSTORE PUSH1 0x20 MSTORE PUSH1 0x20 PUSH1 0xFF PUSH1 0x40 PUSH1 0x0 KECCAK256 SLOAD AND PUSH1 0x40 MLOAD SWAP1 ISZERO ISZERO DUP2 MSTORE RETURN JUMPDEST CALLVALUE PUSH2 0x38C JUMPI PUSH1 0x0 CALLDATASIZE PUSH1 0x3 NOT ADD SLT PUSH2 0x38C JUMPI PUSH1 0x20 PUSH1 0x40 MLOAD PUSH2 0xE10 DUP2 MSTORE RETURN JUMPDEST CALLVALUE PUSH2 0x38C JUMPI PUSH1 0x0 CALLDATASIZE PUSH1 0x3 NOT ADD SLT PUSH2 0x38C JUMPI PUSH2 0xB61 PUSH2 0x3166 JUMP JUMPDEST PUSH1 0x0 DUP1 JUMPDEST PUSH1 0x6 SLOAD DUP3 LT ISZERO PUSH2 0xCA3 JUMPI PUSH2 0xB78 DUP3 PUSH2 0x28B8 JUMP JUMPDEST SWAP3 SWAP1 PUSH1 0x1 DUP1 PUSH1 0xA0 SHL SUB SWAP4 DUP5 SWAP2 SLOAD SWAP1 PUSH1 0x3 SHL SHR AND DUP1 PUSH1 0x0 MSTORE PUSH1 0x20 SWAP4 PUSH1 0x7 DUP6 MSTORE PUSH1 0xFF PUSH1 0x40 PUSH1 0x0 KECCAK256 SLOAD AND PUSH2 0xBB7 JUMPI JUMPDEST POP POP PUSH2 0xBB1 SWAP2 SWAP3 POP PUSH2 0x3106 JUMP JUMPDEST SWAP1 PUSH2 0xB65 JUMP JUMPDEST DUP5 PUSH1 0x0 SWAP2 PUSH1 0x5 DUP3 MSTORE PUSH1 0x40 DUP4 KECCAK256 SLOAD AND PUSH1 0x4 PUSH1 0x40 MLOAD DUP1 SWAP5 DUP2 SWAP4 PUSH4 0xE8D991D1 PUSH1 0xE0 SHL DUP4 MSTORE GAS CALL PUSH1 0x0 SWAP2 DUP2 PUSH2 0xC74 JUMPI JUMPDEST POP PUSH2 0xBF5 JUMPI POP POP PUSH2 0xBB1 SWAP2 SWAP3 POP PUSH2 0x3106 JUMP JUMPDEST DUP1 PUSH2 0xC0B JUMPI JUMPDEST POP POP PUSH2 0xBB1 SWAP2 SWAP3 POP DUP3 SWAP2 DUP5 PUSH2 0xBA4 JUMP JUMPDEST PUSH1 0x40 DUP2 PUSH2 0xC3C PUSH32 0xF343DFC1E44C65296FB907B287E6E12133EB7945BA79EC463D65EF129757C2FF SWAP4 PUSH2 0xBB1 SWAP8 PUSH2 0x2F3E JUMP JUMPDEST SWAP7 DUP5 PUSH1 0x0 MSTORE PUSH1 0xA DUP1 DUP3 MSTORE DUP4 PUSH1 0x0 KECCAK256 PUSH2 0xC55 DUP5 DUP3 SLOAD PUSH2 0x2F3E JUMP JUMPDEST SWAP1 SSTORE DUP6 PUSH1 0x0 MSTORE DUP2 MSTORE DUP3 PUSH1 0x0 KECCAK256 SLOAD SWAP1 DUP4 MLOAD SWAP3 DUP4 MSTORE DUP3 ADD MSTORE LOG2 DUP3 SWAP2 DUP5 PUSH2 0xBFB JUMP JUMPDEST SWAP1 SWAP2 POP DUP6 DUP2 DUP2 RETURNDATASIZE DUP4 GT PUSH2 0xC9C JUMPI JUMPDEST PUSH2 0xC8C DUP2 DUP4 PUSH2 0x277C JUMP JUMPDEST DUP2 ADD SUB SLT PUSH2 0x38C JUMPI MLOAD SWAP1 DUP7 PUSH2 0xBE3 JUMP JUMPDEST POP RETURNDATASIZE PUSH2 0xC82 JUMP JUMPDEST PUSH3 0x15180 TIMESTAMP DIV PUSH1 0x0 MSTORE PUSH1 0x20 SWAP1 PUSH1 0xB DUP3 MSTORE PUSH1 0x40 PUSH1 0x0 KECCAK256 PUSH2 0xCC3 DUP3 DUP3 SLOAD PUSH2 0x2F3E JUMP JUMPDEST SWAP1 SSTORE DUP1 ISZERO ISZERO DUP1 PUSH2 0xCDC JUMPI JUMPDEST POP PUSH1 0x1 PUSH1 0x0 SSTORE PUSH1 0x40 MLOAD SWAP1 DUP2 MSTORE RETURN JUMPDEST PUSH1 0xF SLOAD SWAP1 DUP2 ISZERO ISZERO SWAP1 DUP2 PUSH2 0xDC0 JUMPI JUMPDEST POP ISZERO PUSH2 0xCCE JUMPI PUSH2 0xCFD PUSH2 0x2710 SWAP2 DUP4 PUSH2 0x2F2B JUMP JUMPDEST PUSH1 0x40 MLOAD PUSH4 0x70A08231 PUSH1 0xE0 SHL DUP2 MSTORE ADDRESS PUSH1 0x4 DUP3 ADD MSTORE PUSH1 0x1 PUSH1 0x1 PUSH1 0xA0 SHL SUB SWAP3 SWAP1 SWAP2 DIV SWAP1 PUSH32 0x0 SWAP1 DUP6 DUP2 PUSH1 0x24 DUP2 DUP8 DUP7 AND GAS STATICCALL SWAP1 DUP2 ISZERO PUSH2 0x7F7 JUMPI PUSH1 0x0 SWAP2 PUSH2 0xD93 JUMPI JUMPDEST POP DUP3 DUP1 ISZERO ISZERO SWAP2 DUP3 PUSH2 0xD88 JUMPI JUMPDEST POP POP PUSH2 0xD72 JUMPI JUMPDEST POP POP PUSH2 0xCCE JUMP JUMPDEST PUSH2 0xD80 SWAP3 PUSH1 0x10 SLOAD AND SWAP1 PUSH2 0x3385 JUMP JUMPDEST DUP3 DUP1 DUP1 PUSH2 0xD6B JUMP JUMPDEST LT ISZERO SWAP1 POP DUP3 DUP8 PUSH2 0xD64 JUMP JUMPDEST SWAP1 POP DUP6 DUP2 DUP2 RETURNDATASIZE DUP4 GT PUSH2 0xDB9 JUMPI JUMPDEST PUSH2 0xDAA DUP2 DUP4 PUSH2 0x277C JUMP JUMPDEST DUP2 ADD SUB SLT PUSH2 0x38C JUMPI MLOAD DUP7 PUSH2 0xD58 JUMP JUMPDEST POP RETURNDATASIZE PUSH2 0xDA0 JUMP JUMPDEST SWAP1 POP DUP5 PUSH2 0xCEA JUMP JUMPDEST CALLVALUE PUSH2 0x38C JUMPI PUSH1 0x40 CALLDATASIZE PUSH1 0x3 NOT ADD SLT PUSH2 0x38C JUMPI PUSH2 0xDE1 PUSH2 0x26C4 JUMP JUMPDEST PUSH1 0x24 SWAP1 DUP2 CALLDATALOAD PUSH1 0x1 PUSH1 0x1 PUSH1 0x40 SHL SUB DUP2 GT PUSH2 0x38C JUMPI PUSH2 0xE02 SWAP1 CALLDATASIZE SWAP1 PUSH1 0x4 ADD PUSH2 0x288B JUMP JUMPDEST PUSH2 0xE0A PUSH2 0x2C65 JUMP JUMPDEST PUSH1 0x1 DUP1 PUSH1 0xA0 SHL SUB DUP1 SWAP4 AND SWAP3 DUP4 PUSH1 0x0 MSTORE PUSH1 0x20 SWAP1 PUSH1 0x7 DUP3 MSTORE PUSH1 0xFF PUSH1 0x40 PUSH1 0x0 KECCAK256 SLOAD AND ISZERO PUSH2 0x10A9 JUMPI DUP5 PUSH1 0x0 MSTORE PUSH1 0x5 DUP3 MSTORE PUSH1 0x40 PUSH1 0x0 KECCAK256 PUSH1 0x0 SWAP2 PUSH1 0x3 SWAP1 DUP2 DUP4 ADD SLOAD DUP6 DUP2 PUSH2 0xFD2 JUMPI JUMPDEST POP POP DUP8 PUSH1 0x0 MSTORE PUSH1 0x7 DUP6 MSTORE PUSH1 0x40 PUSH1 0x0 KECCAK256 PUSH1 0xFF NOT SWAP1 DUP2 DUP2 SLOAD AND SWAP1 SSTORE PUSH1 0x5 DUP5 ADD SWAP1 DUP2 SLOAD AND SWAP1 SSTORE PUSH1 0x0 PUSH1 0x1 DUP1 SWAP5 ADD SSTORE PUSH1 0xD DUP6 MSTORE PUSH1 0x0 PUSH1 0x40 DUP2 KECCAK256 SSTORE DUP3 PUSH1 0x0 SWAP1 JUMPDEST PUSH2 0xED2 JUMPI JUMPDEST DUP9 PUSH32 0xF2F3B6B9F2A3BDCE56FA5FD5304960564A1D25405F97DEC9260B1165AC728500 DUP10 DUP10 DUP10 DUP10 PUSH2 0xEC9 PUSH1 0x40 MLOAD SWAP5 DUP6 SWAP5 PUSH1 0x40 DUP7 MSTORE PUSH1 0x40 DUP7 ADD SWAP2 PUSH2 0x30E5 JUMP JUMPDEST SWAP2 DUP4 ADD MSTORE SUB SWAP1 LOG2 STOP JUMPDEST PUSH1 0x6 DUP1 SLOAD DUP1 DUP4 LT ISZERO PUSH2 0xFCB JUMPI DUP11 DUP5 PUSH2 0xEE9 DUP6 PUSH2 0x28B8 JUMP JUMPDEST SWAP1 SLOAD SWAP1 DUP9 SHL SHR AND EQ PUSH2 0xF06 JUMPI POP POP PUSH2 0xF00 SWAP1 PUSH2 0x3106 JUMP JUMPDEST DUP4 PUSH2 0xE87 JUMP JUMPDEST SWAP4 SWAP5 POP SWAP3 PUSH1 0x0 NOT SWAP2 DUP3 DUP3 ADD SWAP2 DUP3 GT PUSH2 0xFB6 JUMPI PUSH2 0xF35 DUP5 PUSH2 0xF28 PUSH2 0xF54 SWAP5 PUSH2 0x28B8 JUMP JUMPDEST SWAP1 SLOAD SWAP1 DUP10 SHL SHR AND SWAP2 PUSH2 0x28B8 JUMP JUMPDEST SWAP1 SWAP2 SWAP1 DUP3 SLOAD SWAP1 PUSH1 0x3 SHL SWAP2 PUSH1 0x1 DUP1 PUSH1 0xA0 SHL SUB DUP1 SWAP2 AND DUP4 SHL SWAP3 SHL NOT AND OR SWAP1 SSTORE JUMP JUMPDEST DUP3 SLOAD DUP1 ISZERO PUSH2 0xFA1 JUMPI PUSH32 0xF2F3B6B9F2A3BDCE56FA5FD5304960564A1D25405F97DEC9260B1165AC728500 SWAP10 SWAP11 POP ADD SWAP3 PUSH2 0xF8B DUP5 PUSH2 0x28B8 JUMP JUMPDEST DUP2 SWAP4 SWAP2 SLOAD SWAP3 SHL SHL NOT AND SWAP1 SSTORE SSTORE DUP6 SWAP5 DUP8 DUP1 DUP1 PUSH2 0xE8C JUMP JUMPDEST DUP11 PUSH4 0x4E487B71 PUSH1 0xE0 SHL PUSH1 0x0 MSTORE PUSH1 0x31 PUSH1 0x4 MSTORE PUSH1 0x0 REVERT JUMPDEST DUP12 PUSH4 0x4E487B71 PUSH1 0xE0 SHL PUSH1 0x0 MSTORE PUSH1 0x11 PUSH1 0x4 MSTORE PUSH1 0x0 REVERT JUMPDEST POP POP PUSH2 0xE8C JUMP JUMPDEST PUSH1 0x0 SWAP2 DUP12 DUP5 DUP8 SLOAD AND SWAP2 PUSH1 0x40 MLOAD SWAP5 DUP6 SWAP4 DUP5 SWAP3 PUSH4 0x2E1A7D4D PUSH1 0xE0 SHL DUP5 MSTORE PUSH1 0x4 DUP5 ADD MSTORE GAS CALL PUSH1 0x0 SWAP2 DUP2 PUSH2 0x107A JUMPI JUMPDEST POP PUSH2 0x1073 JUMPI POP PUSH1 0x0 DUP6 DUP3 DUP6 SLOAD AND DUP12 PUSH1 0x40 MLOAD DUP1 SWAP5 DUP2 SWAP4 PUSH4 0x1BFC726F PUSH1 0xE2 SHL DUP4 MSTORE ADDRESS PUSH1 0x4 DUP5 ADD MSTORE GAS CALL PUSH1 0x0 SWAP2 DUP2 PUSH2 0x1044 JUMPI JUMPDEST POP PUSH2 0x103C JUMPI JUMPDEST POP JUMPDEST DUP10 DUP6 PUSH2 0xE4C JUMP JUMPDEST SWAP4 POP DUP10 PUSH2 0x1033 JUMP JUMPDEST SWAP1 SWAP2 POP DUP7 DUP2 DUP2 RETURNDATASIZE DUP4 GT PUSH2 0x106C JUMPI JUMPDEST PUSH2 0x105C DUP2 DUP4 PUSH2 0x277C JUMP JUMPDEST DUP2 ADD SUB SLT PUSH2 0x38C JUMPI MLOAD SWAP1 DUP12 PUSH2 0x102D JUMP JUMPDEST POP RETURNDATASIZE PUSH2 0x1052 JUMP JUMPDEST SWAP4 POP PUSH2 0x1035 JUMP JUMPDEST SWAP1 SWAP2 POP DUP7 DUP2 DUP2 RETURNDATASIZE DUP4 GT PUSH2 0x10A2 JUMPI JUMPDEST PUSH2 0x1092 DUP2 DUP4 PUSH2 0x277C JUMP JUMPDEST DUP2 ADD SUB SLT PUSH2 0x38C JUMPI MLOAD SWAP1 DUP12 PUSH2 0xFFD JUMP JUMPDEST POP RETURNDATASIZE PUSH2 0x1088 JUMP JUMPDEST PUSH1 0x40 MLOAD PUSH4 0x1B92E953 PUSH1 0xE3 SHL DUP2 MSTORE PUSH1 0x4 SWAP1 REVERT JUMPDEST CALLVALUE PUSH2 0x38C JUMPI PUSH1 0x0 CALLDATASIZE PUSH1 0x3 NOT ADD SLT PUSH2 0x38C JUMPI PUSH1 0x20 PUSH1 0xF SLOAD PUSH1 0x40 MLOAD SWAP1 DUP2 MSTORE RETURN JUMPDEST CALLVALUE PUSH2 0x38C JUMPI PUSH1 0x0 CALLDATASIZE PUSH1 0x3 NOT ADD SLT PUSH2 0x38C JUMPI PUSH2 0x10F2 PUSH2 0x2905 JUMP JUMPDEST PUSH1 0xFF DUP1 PUSH1 0x12 SLOAD AND ISZERO PUSH2 0x129E JUMPI PUSH1 0xC SLOAD PUSH2 0xE10 DUP2 ADD DUP1 SWAP2 GT PUSH2 0x1288 JUMPI TIMESTAMP LT PUSH2 0x1276 JUMPI PUSH1 0x6 DUP1 SLOAD PUSH2 0x1120 DUP2 PUSH2 0x30B3 JUMP JUMPDEST SWAP1 PUSH1 0x0 DUP1 JUMPDEST DUP3 DUP2 LT PUSH2 0x1226 JUMPI POP DUP1 ISZERO DUP1 ISZERO PUSH2 0x11B2 JUMPI JUMPDEST POP POP POP PUSH1 0x0 JUMPDEST DUP3 SLOAD DUP2 LT ISZERO PUSH2 0x11A4 JUMPI DUP1 PUSH2 0x1152 PUSH2 0x117F SWAP3 PUSH2 0x28B8 JUMP JUMPDEST PUSH1 0x1 DUP1 PUSH1 0xA0 SHL SUB SWAP2 SLOAD SWAP1 PUSH1 0x3 SHL SHR AND DUP1 PUSH1 0x0 MSTORE PUSH1 0x20 PUSH1 0x7 DUP2 MSTORE DUP7 PUSH1 0x40 PUSH1 0x0 KECCAK256 SLOAD AND PUSH2 0x1184 JUMPI JUMPDEST POP POP PUSH2 0x3106 JUMP JUMPDEST PUSH2 0x113C JUMP JUMPDEST PUSH1 0xD SWAP1 PUSH2 0x1191 DUP5 DUP8 PUSH2 0x33EA JUMP JUMPDEST MLOAD SWAP3 PUSH1 0x0 MSTORE MSTORE PUSH1 0x40 PUSH1 0x0 KECCAK256 SSTORE DUP6 DUP1 PUSH2 0x1178 JUMP JUMPDEST PUSH2 0x11AC PUSH2 0x350A JUMP JUMPDEST TIMESTAMP PUSH1 0xC SSTORE STOP JUMPDEST PUSH2 0x1210 JUMPI PUSH2 0x2710 DIV PUSH1 0x0 JUMPDEST DUP3 DUP2 LT ISZERO PUSH2 0x1136 JUMPI DUP1 PUSH2 0x11D2 PUSH2 0x11FA SWAP3 PUSH2 0x28B8 JUMP JUMPDEST PUSH1 0x1 DUP1 PUSH1 0xA0 SHL SUB SWAP2 SLOAD SWAP1 PUSH1 0x3 SHL SHR AND PUSH1 0x0 MSTORE PUSH1 0x7 PUSH1 0x20 MSTORE DUP7 PUSH1 0x40 PUSH1 0x0 KECCAK256 SLOAD AND PUSH2 0x11FF JUMPI PUSH2 0x3106 JUMP JUMPDEST PUSH2 0x11BD JUMP JUMPDEST DUP3 PUSH2 0x120A DUP3 DUP8 PUSH2 0x33EA JUMP JUMPDEST MSTORE PUSH2 0x3106 JUMP JUMPDEST PUSH4 0x4E487B71 PUSH1 0xE0 SHL PUSH1 0x0 MSTORE PUSH1 0x12 PUSH1 0x4 MSTORE PUSH1 0x24 PUSH1 0x0 REVERT JUMPDEST PUSH2 0x122F DUP2 PUSH2 0x28B8 JUMP JUMPDEST PUSH1 0x1 DUP1 PUSH1 0xA0 SHL SUB SWAP2 SLOAD SWAP1 PUSH1 0x3 SHL SHR AND PUSH1 0x0 MSTORE PUSH1 0x7 PUSH1 0x20 MSTORE DUP6 PUSH1 0x40 PUSH1 0x0 KECCAK256 SLOAD AND PUSH2 0x1261 JUMPI JUMPDEST PUSH2 0x125C SWAP1 PUSH2 0x3106 JUMP JUMPDEST PUSH2 0x1125 JUMP JUMPDEST SWAP1 PUSH2 0x126E PUSH2 0x125C SWAP2 PUSH2 0x3106 JUMP JUMPDEST SWAP2 SWAP1 POP PUSH2 0x1253 JUMP JUMPDEST PUSH1 0x40 MLOAD PUSH4 0xA7D506F PUSH1 0xE3 SHL DUP2 MSTORE PUSH1 0x4 SWAP1 REVERT JUMPDEST PUSH4 0x4E487B71 PUSH1 0xE0 SHL PUSH1 0x0 MSTORE PUSH1 0x11 PUSH1 0x4 MSTORE PUSH1 0x24 PUSH1 0x0 REVERT JUMPDEST PUSH1 0x40 MLOAD PUSH4 0x416AEBB5 PUSH1 0xE1 SHL DUP2 MSTORE PUSH1 0x4 SWAP1 REVERT JUMPDEST CALLVALUE PUSH2 0x38C JUMPI PUSH1 0x0 CALLDATASIZE PUSH1 0x3 NOT ADD SLT PUSH2 0x38C JUMPI PUSH1 0x20 PUSH1 0x40 MLOAD PUSH1 0xA DUP2 MSTORE RETURN JUMPDEST CALLVALUE PUSH2 0x38C JUMPI PUSH1 0x0 CALLDATASIZE PUSH1 0x3 NOT ADD SLT PUSH2 0x38C JUMPI PUSH1 0x20 PUSH1 0x40 MLOAD PUSH32 0xA49807205CE4D355092EF5A8A18F56E8913CF4A201FBE287825B095693C21775 DUP2 MSTORE RETURN JUMPDEST CALLVALUE PUSH2 0x38C JUMPI PUSH1 0x20 CALLDATASIZE PUSH1 0x3 NOT ADD SLT PUSH2 0x38C JUMPI PUSH1 0x1 PUSH1 0x1 PUSH1 0xA0 SHL SUB PUSH2 0x1328 PUSH2 0x26C4 JUMP JUMPDEST AND PUSH1 0x0 MSTORE PUSH1 0x8 PUSH1 0x20 MSTORE PUSH1 0x20 PUSH1 0x40 PUSH1 0x0 KECCAK256 SLOAD PUSH1 0x40 MLOAD SWAP1 DUP2 MSTORE RETURN JUMPDEST CALLVALUE PUSH2 0x38C JUMPI PUSH1 0x20 CALLDATASIZE PUSH1 0x3 NOT ADD SLT PUSH2 0x38C JUMPI PUSH1 0x1 PUSH1 0x1 PUSH1 0xA0 SHL SUB PUSH2 0x1362 PUSH2 0x26C4 JUMP JUMPDEST AND PUSH1 0x0 MSTORE PUSH1 0xA PUSH1 0x20 MSTORE PUSH1 0xA0 PUSH1 0x40 PUSH1 0x0 KECCAK256 DUP1 SLOAD SWAP1 PUSH1 0x1 DUP2 ADD SLOAD SWAP1 PUSH1 0x2 DUP2 ADD SLOAD PUSH1 0x5 PUSH1 0x4 DUP4 ADD SLOAD SWAP3 ADD SLOAD SWAP3 PUSH1 0x40 MLOAD SWAP5 DUP6 MSTORE PUSH1 0x20 DUP6 ADD MSTORE PUSH1 0x40 DUP5 ADD MSTORE PUSH1 0x60 DUP4 ADD MSTORE PUSH1 0x80 DUP3 ADD MSTORE RETURN JUMPDEST CALLVALUE PUSH2 0x38C JUMPI PUSH1 0x0 CALLDATASIZE PUSH1 0x3 NOT ADD SLT PUSH2 0x38C JUMPI PUSH1 0x20 PUSH1 0x40 MLOAD PUSH2 0x1388 DUP2 MSTORE RETURN JUMPDEST CALLVALUE PUSH2 0x38C JUMPI PUSH1 0x0 CALLDATASIZE PUSH1 0x3 NOT ADD SLT PUSH2 0x38C JUMPI PUSH1 0x20 PUSH1 0xFF PUSH1 0x1 SLOAD AND PUSH1 0x40 MLOAD SWAP1 ISZERO ISZERO DUP2 MSTORE RETURN JUMPDEST CALLVALUE PUSH2 0x38C JUMPI PUSH1 0x0 CALLDATASIZE PUSH1 0x3 NOT ADD SLT PUSH2 0x38C JUMPI PUSH1 0x20 PUSH1 0x11 SLOAD PUSH1 0x40 MLOAD SWAP1 DUP2 MSTORE RETURN JUMPDEST CALLVALUE PUSH2 0x38C JUMPI PUSH1 0x0 CALLDATASIZE PUSH1 0x3 NOT ADD SLT PUSH2 0x38C JUMPI PUSH1 0x20 PUSH1 0x40 MLOAD PUSH3 0x93A80 DUP2 MSTORE RETURN JUMPDEST CALLVALUE PUSH2 0x38C JUMPI PUSH1 0x20 DUP1 PUSH1 0x3 NOT CALLDATASIZE ADD SLT PUSH2 0x38C JUMPI PUSH2 0x143D PUSH2 0x26C4 JUMP JUMPDEST SWAP1 PUSH1 0x60 PUSH1 0xE0 PUSH1 0x40 MLOAD PUSH2 0x144E DUP2 PUSH2 0x272A JUMP JUMPDEST PUSH1 0x0 DUP2 MSTORE PUSH1 0x0 DUP5 DUP3 ADD MSTORE PUSH1 0x0 PUSH1 0x40 DUP3 ADD MSTORE PUSH1 0x0 DUP4 DUP3 ADD MSTORE PUSH1 0x0 PUSH1 0x80 DUP3 ADD MSTORE PUSH1 0x0 PUSH1 0xA0 DUP3 ADD MSTORE PUSH1 0x0 PUSH1 0xC0 DUP3 ADD MSTORE ADD MSTORE PUSH1 0x1 DUP1 PUSH1 0xA0 SHL SUB DUP1 SWAP3 AND PUSH1 0x0 MSTORE PUSH1 0x5 DUP2 MSTORE PUSH2 0x1553 PUSH1 0x40 PUSH1 0x0 KECCAK256 SWAP2 PUSH1 0x40 MLOAD SWAP3 PUSH2 0x14A3 DUP5 PUSH2 0x272A JUMP JUMPDEST DUP5 DUP2 SLOAD AND DUP5 MSTORE PUSH1 0x1 DUP2 ADD SLOAD DUP3 DUP6 ADD SWAP1 DUP2 MSTORE PUSH1 0x2 DUP3 ADD SLOAD PUSH1 0x40 DUP7 ADD SWAP1 DUP2 MSTORE PUSH1 0x3 DUP4 ADD SLOAD PUSH1 0x60 DUP8 ADD SWAP1 DUP2 MSTORE PUSH1 0x4 DUP5 ADD SLOAD SWAP2 PUSH1 0x80 DUP9 ADD SWAP3 DUP4 MSTORE PUSH1 0xFF PUSH1 0x5 DUP7 ADD SLOAD AND SWAP4 PUSH1 0xA0 DUP10 ADD SWAP5 ISZERO ISZERO DUP6 MSTORE PUSH2 0x1503 PUSH1 0x7 PUSH1 0x6 DUP9 ADD SLOAD SWAP8 PUSH1 0xC0 DUP13 ADD SWAP9 DUP10 MSTORE ADD PUSH2 0x279D JUMP JUMPDEST SWAP7 PUSH1 0xE0 DUP11 ADD SWAP8 DUP9 MSTORE PUSH1 0x40 MLOAD SWAP11 DUP12 SWAP11 DUP3 DUP13 MSTORE MLOAD AND SWAP1 DUP11 ADD MSTORE MLOAD PUSH1 0x40 DUP10 ADD MSTORE MLOAD PUSH1 0x60 DUP9 ADD MSTORE MLOAD PUSH1 0x80 DUP8 ADD MSTORE MLOAD PUSH1 0xA0 DUP7 ADD MSTORE MLOAD ISZERO ISZERO PUSH1 0xC0 DUP6 ADD MSTORE MLOAD PUSH1 0xE0 DUP5 ADD MSTORE MLOAD PUSH2 0x100 DUP1 DUP5 ADD MSTORE PUSH2 0x120 DUP4 ADD SWAP1 PUSH2 0x2866 JUMP JUMPDEST SUB SWAP1 RETURN JUMPDEST CALLVALUE PUSH2 0x38C JUMPI PUSH1 0x80 CALLDATASIZE PUSH1 0x3 NOT ADD SLT PUSH2 0x38C JUMPI PUSH2 0x1570 PUSH2 0x26C4 JUMP JUMPDEST PUSH1 0x24 CALLDATALOAD PUSH1 0x1 PUSH1 0x1 PUSH1 0x40 SHL SUB DUP2 GT PUSH2 0x38C JUMPI PUSH2 0x158F SWAP1 CALLDATASIZE SWAP1 PUSH1 0x4 ADD PUSH2 0x288B JUMP JUMPDEST SWAP1 PUSH2 0x1598 PUSH2 0x2C65 JUMP JUMPDEST PUSH1 0x1 PUSH1 0x1 PUSH1 0xA0 SHL SUB DUP4 AND ISZERO PUSH2 0x1B69 JUMPI PUSH1 0x1 PUSH1 0x1 PUSH1 0xA0 SHL SUB DUP4 AND PUSH1 0x0 SWAP1 DUP2 MSTORE PUSH1 0x7 PUSH1 0x20 MSTORE PUSH1 0x40 SWAP1 KECCAK256 SLOAD PUSH1 0xFF AND PUSH2 0x1BEF JUMPI PUSH1 0xA PUSH1 0x6 SLOAD LT ISZERO PUSH2 0x1BDD JUMPI PUSH1 0x44 CALLDATALOAD ISZERO DUP1 ISZERO PUSH2 0x1BD1 JUMPI JUMPDEST PUSH2 0x85C JUMPI PUSH2 0x1388 PUSH1 0x64 CALLDATALOAD GT PUSH2 0x1BBF JUMPI PUSH1 0x40 MLOAD PUSH4 0x38D52E0F PUSH1 0xE0 SHL DUP2 MSTORE PUSH1 0x20 DUP2 PUSH1 0x4 DUP2 PUSH1 0x1 PUSH1 0x1 PUSH1 0xA0 SHL SUB DUP9 AND GAS STATICCALL PUSH1 0x0 SWAP2 DUP2 PUSH2 0x1B7B JUMPI JUMPDEST POP PUSH2 0x162B JUMPI PUSH1 0x40 MLOAD PUSH4 0x2711B74D PUSH1 0xE1 SHL DUP2 MSTORE PUSH1 0x4 SWAP1 REVERT JUMPDEST PUSH1 0x1 PUSH1 0x1 PUSH1 0xA0 SHL SUB PUSH32 0x0 DUP2 AND SWAP2 AND SUB PUSH2 0x1B69 JUMPI PUSH1 0x40 MLOAD PUSH2 0x1669 DUP2 PUSH2 0x272A JUMP JUMPDEST PUSH1 0x1 PUSH1 0x1 PUSH1 0xA0 SHL SUB DUP5 AND DUP2 MSTORE PUSH1 0x64 CALLDATALOAD PUSH1 0x20 DUP3 ADD DUP2 SWAP1 MSTORE PUSH1 0x40 DUP3 ADD MSTORE PUSH1 0x0 PUSH1 0x60 DUP3 ADD MSTORE TIMESTAMP PUSH1 0x80 DUP3 ADD MSTORE PUSH1 0x1 PUSH1 0xA0 DUP3 ADD MSTORE PUSH1 0x44 CALLDATALOAD PUSH1 0xC0 DUP3 ADD MSTORE PUSH2 0x16A9 DUP4 PUSH2 0x2F4B JUMP JUMPDEST PUSH2 0x16B6 PUSH1 0x40 MLOAD SWAP2 DUP3 PUSH2 0x277C JUMP JUMPDEST DUP4 DUP2 MSTORE CALLDATASIZE DUP5 DUP5 ADD GT PUSH2 0x38C JUMPI DUP4 DUP4 PUSH1 0x20 DUP4 ADD CALLDATACOPY PUSH1 0x0 PUSH1 0x20 DUP6 DUP4 ADD ADD MSTORE PUSH1 0xE0 DUP3 ADD MSTORE PUSH1 0x1 DUP1 PUSH1 0xA0 SHL SUB DUP5 AND PUSH1 0x0 MSTORE PUSH1 0x5 PUSH1 0x20 MSTORE PUSH1 0xE0 PUSH1 0x40 PUSH1 0x0 KECCAK256 SWAP2 PUSH1 0x1 DUP1 PUSH1 0xA0 SHL SUB DUP2 MLOAD AND PUSH12 0xFFFFFFFFFFFFFFFFFFFFFFFF PUSH1 0xA0 SHL DUP5 SLOAD AND OR DUP4 SSTORE PUSH1 0x20 DUP2 ADD MLOAD PUSH1 0x1 DUP5 ADD SSTORE PUSH1 0x40 DUP2 ADD MLOAD PUSH1 0x2 DUP5 ADD SSTORE PUSH1 0x60 DUP2 ADD MLOAD PUSH1 0x3 DUP5 ADD SSTORE PUSH1 0x80 DUP2 ADD MLOAD PUSH1 0x4 DUP5 ADD SSTORE PUSH1 0x5 DUP4 ADD PUSH1 0xA0 DUP3 ADD MLOAD ISZERO ISZERO PUSH1 0xFF DUP1 NOT DUP4 SLOAD AND SWAP2 AND OR SWAP1 SSTORE PUSH1 0xC0 DUP2 ADD MLOAD PUSH1 0x6 DUP5 ADD SSTORE ADD MLOAD DUP1 MLOAD SWAP1 PUSH1 0x1 PUSH1 0x1 PUSH1 0x40 SHL SUB DUP3 GT PUSH2 0x846 JUMPI PUSH2 0x1779 PUSH1 0x7 DUP5 ADD SLOAD PUSH2 0x26F0 JUMP JUMPDEST PUSH1 0x1F DUP2 GT PUSH2 0x1B29 JUMPI JUMPDEST POP PUSH1 0x20 SWAP1 PUSH1 0x1F DUP4 GT PUSH1 0x1 EQ PUSH2 0x1AB9 JUMPI PUSH1 0x7 SWAP3 SWAP2 PUSH1 0x0 SWAP2 DUP4 PUSH2 0x1AAE JUMPI JUMPDEST POP POP DUP2 PUSH1 0x1 SHL SWAP2 PUSH1 0x0 NOT SWAP1 PUSH1 0x3 SHL SHR NOT AND OR SWAP2 ADD SSTORE JUMPDEST PUSH1 0x1 PUSH1 0x1 PUSH1 0xA0 SHL SUB DUP4 AND PUSH1 0x0 SWAP1 DUP2 MSTORE PUSH1 0x7 PUSH1 0x20 MSTORE PUSH1 0x40 SWAP1 KECCAK256 DUP1 SLOAD PUSH1 0xFF NOT AND PUSH1 0x1 OR SWAP1 SSTORE PUSH1 0x6 SLOAD PUSH1 0x1 PUSH1 0x40 SHL DUP2 LT ISZERO PUSH2 0x846 JUMPI DUP4 PUSH2 0xF35 DUP3 PUSH1 0x1 PUSH2 0x17FA SWAP5 ADD PUSH1 0x6 SSTORE PUSH2 0x28B8 JUMP JUMPDEST PUSH1 0x1 DUP1 PUSH1 0xA0 SHL SUB DUP4 AND PUSH1 0x0 MSTORE PUSH1 0xD PUSH1 0x20 MSTORE PUSH1 0x64 CALLDATALOAD PUSH1 0x40 PUSH1 0x0 KECCAK256 SSTORE PUSH1 0x40 MLOAD DUP1 PUSH1 0x20 DUP2 ADD LT PUSH1 0x1 PUSH1 0x1 PUSH1 0x40 SHL SUB PUSH1 0x20 DUP4 ADD GT OR PUSH2 0x846 JUMPI PUSH1 0x20 DUP2 ADD PUSH1 0x40 MSTORE PUSH1 0x0 DUP2 MSTORE PUSH1 0x40 MLOAD PUSH2 0x1846 DUP2 PUSH2 0x2746 JUMP JUMPDEST PUSH1 0x0 DUP2 MSTORE PUSH1 0x20 DUP2 ADD SWAP2 PUSH1 0x0 DUP4 MSTORE PUSH1 0x40 DUP3 ADD PUSH1 0x0 DUP2 MSTORE PUSH1 0x60 DUP4 ADD SWAP2 DUP3 MSTORE TIMESTAMP PUSH1 0x80 DUP5 ADD MSTORE PUSH1 0x0 PUSH1 0xA0 DUP5 ADD MSTORE PUSH1 0x1 DUP1 PUSH1 0xA0 SHL SUB DUP8 AND PUSH1 0x0 MSTORE PUSH1 0xA PUSH1 0x20 MSTORE PUSH1 0x40 PUSH1 0x0 KECCAK256 SWAP4 DUP4 MLOAD DUP6 SSTORE MLOAD PUSH1 0x1 DUP6 ADD SSTORE MLOAD PUSH1 0x2 DUP5 ADD SSTORE MLOAD DUP1 MLOAD SWAP1 PUSH1 0x1 PUSH1 0x1 PUSH1 0x40 SHL SUB DUP3 GT PUSH2 0x846 JUMPI PUSH1 0x1 PUSH1 0x40 SHL DUP3 GT PUSH2 0x846 JUMPI PUSH1 0x20 SWAP1 PUSH1 0x3 DUP6 ADD SLOAD DUP4 PUSH1 0x3 DUP8 ADD SSTORE DUP1 DUP5 LT PUSH2 0x1A8E JUMPI JUMPDEST POP ADD PUSH1 0x3 DUP5 ADD PUSH1 0x0 MSTORE PUSH1 0x20 PUSH1 0x0 KECCAK256 PUSH1 0x0 JUMPDEST DUP4 DUP2 LT PUSH2 0x1A7A JUMPI POP POP POP POP PUSH1 0xA0 DUP2 PUSH1 0x80 PUSH1 0x5 SWAP4 ADD MLOAD PUSH1 0x4 DUP6 ADD SSTORE ADD MLOAD SWAP2 ADD SSTORE PUSH1 0x0 DUP1 PUSH1 0x0 PUSH1 0x6 SLOAD SWAP1 JUMPDEST DUP2 DUP2 LT PUSH2 0x1999 JUMPI POP POP DUP2 PUSH2 0x196E JUMPI JUMPDEST POP POP PUSH32 0xA60BB03B49D64A590D05814BBE4DC62875C4FE9A09567DC78C6DE9EA38663B25 SWAP2 PUSH2 0x194D PUSH1 0x40 MLOAD SWAP3 DUP4 SWAP3 PUSH1 0x60 DUP5 MSTORE PUSH1 0x60 DUP5 ADD SWAP2 PUSH2 0x30E5 JUMP JUMPDEST PUSH1 0x44 CALLDATALOAD PUSH1 0x20 DUP4 ADD MSTORE PUSH1 0x64 CALLDATALOAD PUSH1 0x40 DUP4 ADD MSTORE PUSH1 0x1 PUSH1 0x1 PUSH1 0xA0 SHL SUB SWAP1 SWAP5 AND SWAP4 SUB SWAP1 LOG2 STOP JUMPDEST SWAP1 PUSH2 0x1978 SWAP2 PUSH2 0x33FE JUMP JUMPDEST PUSH1 0x11 SLOAD LT PUSH2 0x1987 JUMPI DUP4 DUP1 PUSH2 0x1912 JUMP JUMPDEST PUSH1 0x40 MLOAD PUSH4 0x73687CD7 PUSH1 0xE1 SHL DUP2 MSTORE PUSH1 0x4 SWAP1 REVERT JUMPDEST PUSH2 0x19A2 DUP2 PUSH2 0x28B8 JUMP JUMPDEST PUSH1 0x1 DUP1 PUSH1 0xA0 SHL SUB SWAP2 SLOAD SWAP1 PUSH1 0x3 SHL SHR AND PUSH1 0x0 MSTORE PUSH1 0x7 PUSH1 0x20 MSTORE PUSH1 0xFF PUSH1 0x40 PUSH1 0x0 KECCAK256 SLOAD AND PUSH2 0x19D5 JUMPI JUMPDEST PUSH2 0x19D0 SWAP1 PUSH2 0x3106 JUMP JUMPDEST PUSH2 0x1903 JUMP JUMPDEST SWAP3 PUSH2 0x1A72 PUSH2 0x19D0 SWAP2 PUSH1 0x5 PUSH1 0x20 MSTORE PUSH1 0x20 PUSH2 0x1A69 PUSH1 0x40 PUSH1 0x0 KECCAK256 SWAP7 PUSH2 0xA98 PUSH1 0x40 MLOAD SWAP9 PUSH2 0x19FD DUP11 PUSH2 0x272A JUMP JUMPDEST DUP1 SLOAD PUSH1 0x1 PUSH1 0x1 PUSH1 0xA0 SHL SUB AND DUP11 MSTORE PUSH1 0x1 DUP2 ADD SLOAD DUP6 DUP12 ADD MSTORE PUSH1 0x2 DUP2 ADD SLOAD PUSH1 0x40 DUP12 ADD MSTORE PUSH1 0x3 DUP2 ADD SLOAD PUSH1 0x60 DUP12 ADD MSTORE PUSH1 0x4 DUP2 ADD SLOAD PUSH1 0x80 DUP12 ADD MSTORE PUSH1 0x5 DUP2 ADD SLOAD PUSH1 0xFF AND ISZERO ISZERO PUSH1 0xA0 DUP12 ADD MSTORE PUSH1 0x6 DUP2 ADD SLOAD PUSH1 0xC0 DUP12 ADD SWAP1 DUP2 MSTORE SWAP1 PUSH2 0x1A59 SWAP1 PUSH1 0x7 ADD PUSH2 0x279D JUMP JUMPDEST PUSH1 0xE0 DUP12 ADD MSTORE MLOAD DUP5 DUP11 ADD MLOAD SWAP1 PUSH2 0x2F2B JUMP JUMPDEST SWAP6 ADD MLOAD SWAP1 PUSH2 0x2F3E JUMP JUMPDEST SWAP4 SWAP1 POP PUSH2 0x19C7 JUMP JUMPDEST PUSH1 0x1 SWAP1 PUSH1 0x20 DUP5 MLOAD SWAP5 ADD SWAP4 DUP2 DUP5 ADD SSTORE ADD PUSH2 0x18DA JUMP JUMPDEST PUSH2 0x1AA8 SWAP1 PUSH1 0x3 DUP8 ADD PUSH1 0x0 MSTORE DUP5 DUP5 PUSH1 0x0 KECCAK256 SWAP2 DUP3 ADD SWAP2 ADD PUSH2 0x3085 JUMP JUMPDEST DUP9 PUSH2 0x18C9 JUMP JUMPDEST ADD MLOAD SWAP1 POP DUP8 DUP1 PUSH2 0x179E JUMP JUMPDEST SWAP1 PUSH1 0x7 DUP5 ADD PUSH1 0x0 MSTORE PUSH1 0x20 PUSH1 0x0 KECCAK256 SWAP2 PUSH1 0x0 JUMPDEST PUSH1 0x1F NOT DUP6 AND DUP2 LT PUSH2 0x1B11 JUMPI POP SWAP2 DUP4 SWAP2 PUSH1 0x1 SWAP4 PUSH1 0x7 SWAP6 PUSH1 0x1F NOT DUP2 AND LT PUSH2 0x1AF8 JUMPI JUMPDEST POP POP POP DUP2 SHL ADD SWAP2 ADD SSTORE PUSH2 0x17B4 JUMP JUMPDEST ADD MLOAD PUSH1 0x0 NOT PUSH1 0xF8 DUP5 PUSH1 0x3 SHL AND SHR NOT AND SWAP1 SSTORE DUP8 DUP1 DUP1 PUSH2 0x1AEA JUMP JUMPDEST SWAP2 SWAP3 PUSH1 0x20 PUSH1 0x1 DUP2 SWAP3 DUP7 DUP6 ADD MLOAD DUP2 SSTORE ADD SWAP5 ADD SWAP3 ADD PUSH2 0x1ACA JUMP JUMPDEST PUSH2 0x1B59 SWAP1 PUSH1 0x7 DUP6 ADD PUSH1 0x0 MSTORE PUSH1 0x20 PUSH1 0x0 KECCAK256 PUSH1 0x1F DUP6 ADD PUSH1 0x5 SHR DUP2 ADD SWAP2 PUSH1 0x20 DUP7 LT PUSH2 0x1B5F JUMPI JUMPDEST PUSH1 0x1F ADD PUSH1 0x5 SHR ADD SWAP1 PUSH2 0x3085 JUMP JUMPDEST DUP7 PUSH2 0x1782 JUMP JUMPDEST SWAP1 SWAP2 POP DUP2 SWAP1 PUSH2 0x1B4C JUMP JUMPDEST PUSH1 0x40 MLOAD PUSH4 0x2711B74D PUSH1 0xE1 SHL DUP2 MSTORE PUSH1 0x4 SWAP1 REVERT JUMPDEST SWAP1 SWAP2 POP PUSH1 0x20 DUP2 RETURNDATASIZE PUSH1 0x20 GT PUSH2 0x1BB7 JUMPI JUMPDEST DUP2 PUSH2 0x1B97 PUSH1 0x20 SWAP4 DUP4 PUSH2 0x277C JUMP JUMPDEST DUP2 ADD SUB SLT PUSH2 0x38C JUMPI MLOAD PUSH1 0x1 PUSH1 0x1 PUSH1 0xA0 SHL SUB DUP2 AND DUP2 SUB PUSH2 0x38C JUMPI SWAP1 DUP6 PUSH2 0x1614 JUMP JUMPDEST RETURNDATASIZE SWAP2 POP PUSH2 0x1B8A JUMP JUMPDEST PUSH1 0x40 MLOAD PUSH4 0x5D7BA19 PUSH1 0xE1 SHL DUP2 MSTORE PUSH1 0x4 SWAP1 REVERT JUMPDEST POP PUSH1 0xA PUSH1 0x44 CALLDATALOAD GT PUSH2 0x15DD JUMP JUMPDEST PUSH1 0x40 MLOAD PUSH4 0x1F62CA4F PUSH1 0xE2 SHL DUP2 MSTORE PUSH1 0x4 SWAP1 REVERT JUMPDEST PUSH1 0x40 MLOAD PUSH4 0xC45546F7 PUSH1 0xE0 SHL DUP2 MSTORE PUSH1 0x4 SWAP1 REVERT JUMPDEST CALLVALUE PUSH2 0x38C JUMPI PUSH1 0x0 CALLDATASIZE PUSH1 0x3 NOT ADD SLT PUSH2 0x38C JUMPI PUSH2 0x1C1A PUSH2 0x2B20 JUMP JUMPDEST PUSH2 0x1C22 PUSH2 0x3122 JUMP JUMPDEST PUSH1 0x1 PUSH1 0xFF NOT DUP2 SLOAD AND OR PUSH1 0x1 SSTORE PUSH32 0x62E78CEA01BEE320CD4E420270B5EA74000D11B0C9F74754EBDBFC544B05A258 PUSH1 0x20 PUSH1 0x40 MLOAD CALLER DUP2 MSTORE LOG1 STOP JUMPDEST CALLVALUE PUSH2 0x38C JUMPI PUSH1 0x0 CALLDATASIZE PUSH1 0x3 NOT ADD SLT PUSH2 0x38C JUMPI PUSH1 0x20 PUSH1 0x40 MLOAD PUSH32 0xCCC64574297998B6C3EDF6078CC5E01268465FF116954E3AF02FF3A70A730F46 DUP2 MSTORE RETURN JUMPDEST CALLVALUE PUSH2 0x38C JUMPI PUSH1 0x0 CALLDATASIZE PUSH1 0x3 NOT ADD SLT PUSH2 0x38C JUMPI PUSH1 0x10 SLOAD PUSH1 0x40 MLOAD PUSH1 0x1 PUSH1 0x1 PUSH1 0xA0 SHL SUB SWAP1 SWAP2 AND DUP2 MSTORE PUSH1 0x20 SWAP1 RETURN JUMPDEST CALLVALUE PUSH2 0x38C JUMPI PUSH1 0x0 CALLDATASIZE PUSH1 0x3 NOT ADD SLT PUSH2 0x38C JUMPI PUSH2 0x1CD7 PUSH2 0x2B20 JUMP JUMPDEST PUSH1 0x1 SLOAD PUSH1 0xFF DUP2 AND ISZERO PUSH2 0x1D16 JUMPI PUSH1 0xFF NOT AND PUSH1 0x1 SSTORE PUSH32 0x5DB9EE0A495BF2E6FF9C91A7834C1BA4FDD244A5E8AA4E537BD38AEAE4B073AA PUSH1 0x20 PUSH1 0x40 MLOAD CALLER DUP2 MSTORE LOG1 STOP JUMPDEST PUSH1 0x40 MLOAD PUSH3 0x461BCD PUSH1 0xE5 SHL DUP2 MSTORE PUSH1 0x20 PUSH1 0x4 DUP3 ADD MSTORE PUSH1 0x14 PUSH1 0x24 DUP3 ADD MSTORE PUSH20 0x14185D5CD8589B194E881B9BDD081C185D5CD959 PUSH1 0x62 SHL PUSH1 0x44 DUP3 ADD MSTORE PUSH1 0x64 SWAP1 REVERT JUMPDEST CALLVALUE PUSH2 0x38C JUMPI PUSH1 0x0 CALLDATASIZE PUSH1 0x3 NOT ADD SLT PUSH2 0x38C JUMPI PUSH1 0x20 PUSH1 0x4 SLOAD PUSH1 0x40 MLOAD SWAP1 DUP2 MSTORE RETURN JUMPDEST CALLVALUE PUSH2 0x38C JUMPI PUSH1 0x20 CALLDATASIZE PUSH1 0x3 NOT ADD SLT PUSH2 0x38C JUMPI PUSH1 0x1 PUSH1 0x1 PUSH1 0xA0 SHL SUB DUP1 PUSH2 0x1D92 PUSH2 0x26C4 JUMP JUMPDEST AND PUSH1 0x0 MSTORE PUSH1 0x5 PUSH1 0x20 MSTORE PUSH1 0x40 PUSH1 0x0 KECCAK256 SWAP1 DUP2 SLOAD AND PUSH2 0x1553 PUSH1 0x1 DUP4 ADD SLOAD SWAP3 PUSH1 0x2 DUP2 ADD SLOAD SWAP1 PUSH1 0x3 DUP2 ADD SLOAD PUSH1 0x4 DUP3 ADD SLOAD PUSH1 0xFF PUSH1 0x5 DUP5 ADD SLOAD AND SWAP2 PUSH2 0x1DD7 PUSH1 0x7 PUSH1 0x6 DUP7 ADD SLOAD SWAP6 ADD PUSH2 0x279D JUMP JUMPDEST SWAP5 PUSH1 0x40 MLOAD SWAP9 DUP10 SWAP9 DUP10 MSTORE PUSH1 0x20 DUP10 ADD MSTORE PUSH1 0x40 DUP9 ADD MSTORE PUSH1 0x60 DUP8 ADD MSTORE PUSH1 0x80 DUP7 ADD MSTORE ISZERO ISZERO PUSH1 0xA0 DUP6 ADD MSTORE PUSH1 0xC0 DUP5 ADD MSTORE PUSH2 0x100 DUP1 PUSH1 0xE0 DUP6 ADD MSTORE DUP4 ADD SWAP1 PUSH2 0x2866 JUMP JUMPDEST CALLVALUE PUSH2 0x38C JUMPI PUSH1 0x0 CALLDATASIZE PUSH1 0x3 NOT ADD SLT PUSH2 0x38C JUMPI PUSH1 0x40 MLOAD PUSH32 0x0 PUSH1 0x1 PUSH1 0x1 PUSH1 0xA0 SHL SUB AND DUP2 MSTORE PUSH1 0x20 SWAP1 RETURN JUMPDEST CALLVALUE PUSH2 0x38C JUMPI PUSH1 0x40 CALLDATASIZE PUSH1 0x3 NOT ADD SLT PUSH2 0x38C JUMPI PUSH2 0x1E6F PUSH2 0x26DA JUMP JUMPDEST CALLER PUSH1 0x1 PUSH1 0x1 PUSH1 0xA0 SHL SUB DUP3 AND SUB PUSH2 0x1E8B JUMPI PUSH2 0x458 SWAP1 PUSH1 0x4 CALLDATALOAD PUSH2 0x2EB5 JUMP JUMPDEST PUSH1 0x40 MLOAD PUSH3 0x461BCD PUSH1 0xE5 SHL DUP2 MSTORE PUSH1 0x20 PUSH1 0x4 DUP3 ADD MSTORE PUSH1 0x2F PUSH1 0x24 DUP3 ADD MSTORE PUSH32 0x416363657373436F6E74726F6C3A2063616E206F6E6C792072656E6F756E6365 PUSH1 0x44 DUP3 ADD MSTORE PUSH15 0x103937B632B9903337B91039B2B633 PUSH1 0x89 SHL PUSH1 0x64 DUP3 ADD MSTORE PUSH1 0x84 SWAP1 REVERT JUMPDEST CALLVALUE PUSH2 0x38C JUMPI PUSH1 0x80 CALLDATASIZE PUSH1 0x3 NOT ADD SLT PUSH2 0x38C JUMPI PUSH1 0x4 CALLDATALOAD PUSH1 0x44 CALLDATALOAD PUSH1 0x1 PUSH1 0x1 PUSH1 0xA0 SHL SUB DUP2 AND SWAP1 PUSH1 0x24 CALLDATALOAD SWAP1 DUP3 SWAP1 SUB PUSH2 0x38C JUMPI PUSH1 0x64 CALLDATALOAD SWAP3 DUP4 ISZERO ISZERO DUP1 SWAP5 SUB PUSH2 0x38C JUMPI PUSH2 0x1F2B PUSH2 0x2B20 JUMP JUMPDEST PUSH2 0x3E8 DUP2 GT DUP1 ISZERO PUSH2 0x1F72 JUMPI JUMPDEST PUSH2 0x85C JUMPI DUP3 ISZERO PUSH2 0x85C JUMPI PUSH1 0xE SSTORE PUSH1 0xF SSTORE PUSH12 0xFFFFFFFFFFFFFFFFFFFFFFFF PUSH1 0xA0 SHL PUSH1 0x10 SLOAD AND OR PUSH1 0x10 SSTORE PUSH1 0xFF DUP1 NOT PUSH1 0x12 SLOAD AND SWAP2 AND OR PUSH1 0x12 SSTORE PUSH1 0x0 DUP1 RETURN JUMPDEST POP PUSH2 0x7D0 DUP3 GT PUSH2 0x1F37 JUMP JUMPDEST CALLVALUE PUSH2 0x38C JUMPI PUSH1 0x40 CALLDATASIZE PUSH1 0x3 NOT ADD SLT PUSH2 0x38C JUMPI PUSH1 0x4 CALLDATALOAD PUSH2 0x1F99 PUSH2 0x26DA JUMP JUMPDEST DUP2 PUSH1 0x0 MSTORE PUSH1 0x2 PUSH1 0x20 MSTORE PUSH2 0x1FB3 PUSH1 0x1 PUSH1 0x40 PUSH1 0x0 KECCAK256 ADD SLOAD PUSH2 0x2DAA JUMP JUMPDEST DUP2 PUSH1 0x0 MSTORE PUSH1 0x2 PUSH1 0x20 MSTORE PUSH1 0x40 PUSH1 0x0 KECCAK256 SWAP1 PUSH1 0x1 DUP1 PUSH1 0xA0 SHL SUB AND SWAP1 DUP2 PUSH1 0x0 MSTORE PUSH1 0x20 MSTORE PUSH1 0xFF PUSH1 0x40 PUSH1 0x0 KECCAK256 SLOAD AND ISZERO PUSH2 0x1FE2 JUMPI STOP JUMPDEST DUP2 PUSH1 0x0 MSTORE PUSH1 0x2 PUSH1 0x20 MSTORE PUSH1 0x40 PUSH1 0x0 KECCAK256 DUP2 PUSH1 0x0 MSTORE PUSH1 0x20 MSTORE PUSH1 0x40 PUSH1 0x0 KECCAK256 PUSH1 0x1 PUSH1 0xFF NOT DUP3 SLOAD AND OR SWAP1 SSTORE CALLER SWAP2 PUSH32 0x2F8788117E7EFF1D82E926EC794901D17C78024A50270940304540A733656F0D PUSH1 0x0 DUP1 LOG4 STOP JUMPDEST CALLVALUE PUSH2 0x38C JUMPI PUSH1 0x20 DUP1 PUSH1 0x3 NOT CALLDATASIZE ADD SLT PUSH2 0x38C JUMPI PUSH1 0x4 CALLDATALOAD PUSH2 0x204D PUSH2 0x3166 JUMP JUMPDEST DUP1 ISZERO PUSH2 0x85C JUMPI CALLER PUSH1 0x0 MSTORE PUSH1 0x8 DUP3 MSTORE DUP1 PUSH1 0x40 PUSH1 0x0 KECCAK256 SLOAD LT PUSH2 0x2275 JUMPI PUSH2 0x2070 DUP2 PUSH2 0x34F5 JUMP JUMPDEST DUP1 PUSH1 0x0 JUMPDEST PUSH1 0x6 SLOAD DUP2 LT DUP1 PUSH2 0x226C JUMPI JUMPDEST ISZERO PUSH2 0x21C8 JUMPI PUSH2 0x208D DUP2 PUSH2 0x28B8 JUMP JUMPDEST PUSH1 0x1 DUP1 PUSH1 0xA0 SWAP5 SWAP4 SWAP5 SHL SUB DUP1 SWAP4 SLOAD PUSH1 0x3 SWAP3 DUP4 SHL SHR AND PUSH1 0x0 MSTORE PUSH1 0x7 DUP8 MSTORE PUSH1 0xFF PUSH1 0x40 PUSH1 0x0 KECCAK256 SLOAD AND PUSH2 0x20C6 JUMPI JUMPDEST POP PUSH2 0x20C1 SWAP2 POP PUSH2 0x3106 JUMP JUMPDEST PUSH2 0x2074 JUMP JUMPDEST PUSH1 0x5 DUP8 MSTORE PUSH1 0x40 PUSH1 0x0 KECCAK256 SWAP3 DUP8 PUSH2 0x2710 PUSH2 0x20E2 PUSH1 0x1 DUP8 ADD SLOAD DUP10 PUSH2 0x2F2B JUMP JUMPDEST DIV SWAP3 DUP6 ADD SWAP3 DUP4 SLOAD DUP1 DUP9 LT PUSH1 0x0 EQ PUSH2 0x21C3 JUMPI POP DUP7 JUMPDEST DUP1 DUP3 LT ISZERO PUSH2 0x21BB JUMPI POP SWAP2 JUMPDEST DUP3 PUSH2 0x210F JUMPI JUMPDEST POP POP POP PUSH2 0x20B6 JUMP JUMPDEST PUSH1 0x0 SWAP5 SWAP6 SLOAD AND PUSH1 0x24 PUSH1 0x40 MLOAD DUP1 SWAP7 DUP2 SWAP4 PUSH4 0x2E1A7D4D PUSH1 0xE0 SHL DUP4 MSTORE DUP7 PUSH1 0x4 DUP5 ADD MSTORE GAS CALL PUSH1 0x0 SWAP4 DUP2 PUSH2 0x218C JUMPI JUMPDEST POP PUSH2 0x214A JUMPI POP POP POP PUSH2 0x20C1 SWAP1 PUSH2 0x3106 JUMP JUMPDEST SWAP2 DUP2 PUSH2 0x216B PUSH2 0x217B SWAP5 PUSH2 0x20C1 SWAP7 SWAP8 SWAP5 SLOAD SWAP1 DUP2 DUP2 LT PUSH1 0x0 EQ PUSH2 0x2185 JUMPI SWAP1 PUSH2 0x3115 JUMP JUMPDEST SWAP1 SSTORE DUP2 DUP2 LT ISZERO PUSH2 0x2185 JUMPI SWAP1 PUSH2 0x3115 JUMP JUMPDEST SWAP2 DUP7 DUP1 DUP8 DUP2 PUSH2 0x2107 JUMP JUMPDEST POP DUP1 PUSH2 0x3115 JUMP JUMPDEST SWAP1 SWAP4 POP DUP9 DUP2 DUP2 RETURNDATASIZE DUP4 GT PUSH2 0x21B4 JUMPI JUMPDEST PUSH2 0x21A4 DUP2 DUP4 PUSH2 0x277C JUMP JUMPDEST DUP2 ADD SUB SLT PUSH2 0x38C JUMPI MLOAD SWAP3 DUP10 PUSH2 0x2139 JUMP JUMPDEST POP RETURNDATASIZE PUSH2 0x219A JUMP JUMPDEST SWAP1 POP SWAP2 PUSH2 0x2101 JUMP JUMPDEST PUSH2 0x20F6 JUMP JUMPDEST POP POP SWAP1 CALLER PUSH1 0x0 MSTORE PUSH1 0x8 DUP4 MSTORE PUSH1 0x40 PUSH1 0x0 KECCAK256 PUSH2 0x21E3 DUP3 DUP3 SLOAD PUSH2 0x3115 JUMP JUMPDEST SWAP1 SSTORE PUSH2 0x21F1 DUP2 PUSH1 0x4 SLOAD PUSH2 0x3115 JUMP JUMPDEST PUSH1 0x4 SSTORE PUSH2 0x2200 DUP3 PUSH1 0x3 SLOAD PUSH2 0x3115 JUMP JUMPDEST PUSH1 0x3 SSTORE PUSH2 0x222E DUP3 CALLER PUSH32 0x0 PUSH2 0x3385 JUMP JUMPDEST PUSH1 0x40 MLOAD SWAP1 DUP3 DUP3 MSTORE DUP4 DUP3 ADD MSTORE PUSH32 0xDF273CB619D95419A9CD0EC88123A0538C85064229BAA6363788F743FFF90DEB PUSH1 0x40 CALLER SWAP3 LOG2 PUSH1 0x1 PUSH1 0x0 SSTORE PUSH1 0x40 MLOAD SWAP1 DUP2 MSTORE RETURN JUMPDEST POP DUP2 ISZERO ISZERO PUSH2 0x207F JUMP JUMPDEST PUSH1 0x40 MLOAD PUSH4 0x1E9ACF17 PUSH1 0xE3 SHL DUP2 MSTORE PUSH1 0x4 SWAP1 REVERT JUMPDEST CALLVALUE PUSH2 0x38C JUMPI PUSH1 0x20 CALLDATASIZE PUSH1 0x3 NOT ADD SLT PUSH2 0x38C JUMPI PUSH1 0x1 PUSH1 0x1 PUSH1 0xA0 SHL SUB PUSH2 0x22A8 PUSH2 0x26C4 JUMP JUMPDEST AND PUSH1 0x0 MSTORE PUSH1 0x7 PUSH1 0x20 MSTORE PUSH1 0x20 PUSH1 0xFF PUSH1 0x40 PUSH1 0x0 KECCAK256 SLOAD AND PUSH1 0x40 MLOAD SWAP1 ISZERO ISZERO DUP2 MSTORE RETURN JUMPDEST CALLVALUE PUSH2 0x38C JUMPI PUSH1 0x40 CALLDATASIZE PUSH1 0x3 NOT ADD SLT PUSH2 0x38C JUMPI PUSH1 0x1 PUSH1 0x1 PUSH1 0x40 SHL SUB PUSH1 0x4 CALLDATALOAD DUP2 DUP2 GT PUSH2 0x38C JUMPI PUSH2 0x22F7 SWAP1 CALLDATASIZE SWAP1 PUSH1 0x4 ADD PUSH2 0x2694 JUMP JUMPDEST SWAP2 PUSH1 0x24 CALLDATALOAD SWAP1 DUP2 GT PUSH2 0x38C JUMPI PUSH2 0x2310 SWAP1 CALLDATASIZE SWAP1 PUSH1 0x4 ADD PUSH2 0x2694 JUMP JUMPDEST SWAP3 SWAP1 SWAP2 PUSH2 0x231B PUSH2 0x2905 JUMP JUMPDEST PUSH1 0xC SLOAD PUSH2 0xE10 DUP2 ADD DUP1 SWAP2 GT PUSH2 0x1288 JUMPI TIMESTAMP LT PUSH2 0x1276 JUMPI DUP4 DUP3 SUB PUSH2 0x85C JUMPI PUSH1 0x0 DUP1 JUMPDEST DUP6 DUP2 LT PUSH2 0x2536 JUMPI POP PUSH1 0x0 DUP1 PUSH1 0x6 SLOAD SWAP1 JUMPDEST DUP2 DUP2 LT PUSH2 0x24E5 JUMPI POP POP DUP4 SUB PUSH2 0x1BBF JUMPI PUSH2 0x2710 SUB PUSH2 0x1BBF JUMPI PUSH2 0x236B DUP3 PUSH2 0x30B3 JUMP JUMPDEST SWAP4 PUSH1 0x0 JUMPDEST DUP4 DUP2 LT PUSH2 0x24AA JUMPI POP PUSH1 0x0 JUMPDEST DUP4 DUP2 LT PUSH2 0x2466 JUMPI POP PUSH2 0x238A PUSH2 0x350A JUMP JUMPDEST TIMESTAMP PUSH1 0xC SSTORE PUSH1 0x40 MLOAD SWAP3 DUP1 PUSH1 0x80 DUP6 ADD PUSH1 0x80 DUP7 MSTORE MSTORE PUSH1 0xA0 DUP5 ADD SWAP3 SWAP1 PUSH1 0x0 SWAP1 JUMPDEST DUP1 DUP3 LT PUSH2 0x243C JUMPI POP POP POP PUSH1 0x20 SWAP2 DUP4 DUP2 SUB DUP4 DUP6 ADD MSTORE DUP3 DUP1 DUP8 MLOAD SWAP3 DUP4 DUP2 MSTORE ADD SWAP7 ADD SWAP1 PUSH1 0x0 JUMPDEST DUP2 DUP2 LT PUSH2 0x2428 JUMPI POP POP POP DUP3 DUP6 SUB PUSH1 0x40 DUP5 ADD MSTORE DUP1 DUP6 MSTORE PUSH1 0x1 PUSH1 0x1 PUSH1 0xFB SHL SUB DUP2 GT PUSH2 0x38C JUMPI PUSH32 0x7255FC1A6ED23F2388AEFF823D30AB1EEFC7CB342F1481762F8E7BADA20C5F29 SWAP4 DUP4 SWAP2 PUSH1 0x5 SHL DUP1 SWAP2 DUP5 DUP9 ADD CALLDATACOPY TIMESTAMP PUSH1 0x60 DUP4 ADD MSTORE CALLER SWAP6 ADD SUB ADD SWAP1 LOG2 STOP JUMPDEST DUP3 MLOAD DUP9 MSTORE SWAP7 DUP5 ADD SWAP7 SWAP2 DUP5 ADD SWAP2 PUSH1 0x1 ADD PUSH2 0x23C9 JUMP JUMPDEST SWAP1 SWAP2 SWAP4 DUP5 CALLDATALOAD SWAP1 PUSH1 0x1 DUP1 PUSH1 0xA0 SHL SUB DUP3 AND DUP1 SWAP3 SUB PUSH2 0x38C JUMPI PUSH1 0x1 SWAP2 DUP2 MSTORE PUSH1 0x20 DUP1 SWAP2 ADD SWAP6 ADD SWAP3 ADD SWAP1 PUSH2 0x23A6 JUMP JUMPDEST DUP1 PUSH2 0x2475 PUSH2 0x24A5 SWAP3 DUP5 DUP9 PUSH2 0x33C6 JUMP JUMPDEST CALLDATALOAD PUSH1 0x1 PUSH1 0x1 PUSH1 0xA0 SHL SUB PUSH2 0x2491 PUSH2 0x248C DUP5 DUP10 DUP10 PUSH2 0x33C6 JUMP JUMPDEST PUSH2 0x33D6 JUMP JUMPDEST AND PUSH1 0x0 MSTORE PUSH1 0xD PUSH1 0x20 MSTORE PUSH1 0x40 PUSH1 0x0 KECCAK256 SSTORE PUSH2 0x3106 JUMP JUMPDEST PUSH2 0x237A JUMP JUMPDEST PUSH2 0x24E0 SWAP1 PUSH1 0x1 PUSH1 0x1 PUSH1 0xA0 SHL SUB PUSH2 0x24C4 PUSH2 0x248C DUP4 DUP9 DUP9 PUSH2 0x33C6 JUMP JUMPDEST AND PUSH1 0x0 MSTORE PUSH1 0x5 PUSH1 0x20 MSTORE PUSH1 0x1 PUSH1 0x40 PUSH1 0x0 KECCAK256 ADD SLOAD PUSH2 0x120A DUP3 DUP10 PUSH2 0x33EA JUMP JUMPDEST PUSH2 0x236F JUMP JUMPDEST PUSH2 0x24EE DUP2 PUSH2 0x28B8 JUMP JUMPDEST PUSH1 0x1 DUP1 PUSH1 0xA0 SHL SUB SWAP2 SLOAD SWAP1 PUSH1 0x3 SHL SHR AND PUSH1 0x0 MSTORE PUSH1 0x7 PUSH1 0x20 MSTORE PUSH1 0xFF PUSH1 0x40 PUSH1 0x0 KECCAK256 SLOAD AND PUSH2 0x2521 JUMPI JUMPDEST PUSH2 0x251C SWAP1 PUSH2 0x3106 JUMP JUMPDEST PUSH2 0x234B JUMP JUMPDEST SWAP2 PUSH2 0x252E PUSH2 0x251C SWAP2 PUSH2 0x3106 JUMP JUMPDEST SWAP3 SWAP1 POP PUSH2 0x2513 JUMP JUMPDEST SWAP1 PUSH1 0x1 PUSH1 0x1 PUSH1 0xA0 SHL SUB PUSH2 0x254D PUSH2 0x248C DUP5 DUP8 DUP8 PUSH2 0x33C6 JUMP JUMPDEST AND PUSH1 0x0 MSTORE PUSH1 0x7 PUSH1 0x20 MSTORE PUSH1 0xFF PUSH1 0x40 PUSH1 0x0 KECCAK256 SLOAD AND ISZERO PUSH2 0x10A9 JUMPI PUSH2 0x1388 PUSH2 0x2572 DUP4 DUP9 DUP9 PUSH2 0x33C6 JUMP JUMPDEST CALLDATALOAD GT PUSH2 0x1BBF JUMPI PUSH2 0x2591 PUSH2 0x2597 SWAP2 PUSH2 0x258A DUP5 DUP10 DUP10 PUSH2 0x33C6 JUMP JUMPDEST CALLDATALOAD SWAP1 PUSH2 0x2F3E JUMP JUMPDEST SWAP2 PUSH2 0x3106 JUMP JUMPDEST PUSH2 0x233B JUMP JUMPDEST CALLVALUE PUSH2 0x38C JUMPI PUSH1 0x20 CALLDATASIZE PUSH1 0x3 NOT ADD SLT PUSH2 0x38C JUMPI PUSH1 0x4 CALLDATALOAD PUSH1 0x0 MSTORE PUSH1 0x2 PUSH1 0x20 MSTORE PUSH1 0x20 PUSH1 0x1 PUSH1 0x40 PUSH1 0x0 KECCAK256 ADD SLOAD PUSH1 0x40 MLOAD SWAP1 DUP2 MSTORE RETURN JUMPDEST CALLVALUE PUSH2 0x38C JUMPI PUSH1 0x0 CALLDATASIZE PUSH1 0x3 NOT ADD SLT PUSH2 0x38C JUMPI PUSH1 0x20 PUSH1 0xC SLOAD PUSH1 0x40 MLOAD SWAP1 DUP2 MSTORE RETURN JUMPDEST CALLVALUE PUSH2 0x38C JUMPI PUSH1 0x20 CALLDATASIZE PUSH1 0x3 NOT ADD SLT PUSH2 0x38C JUMPI PUSH1 0x20 PUSH2 0x478 PUSH1 0x4 CALLDATALOAD PUSH2 0x34F5 JUMP JUMPDEST CALLVALUE PUSH2 0x38C JUMPI PUSH1 0x20 CALLDATASIZE PUSH1 0x3 NOT ADD SLT PUSH2 0x38C JUMPI PUSH1 0x4 CALLDATALOAD PUSH4 0xFFFFFFFF PUSH1 0xE0 SHL DUP2 AND DUP1 SWAP2 SUB PUSH2 0x38C JUMPI PUSH1 0x20 SWAP1 PUSH4 0x7965DB0B PUSH1 0xE0 SHL DUP2 EQ SWAP1 DUP2 ISZERO PUSH2 0x264C JUMPI JUMPDEST POP PUSH1 0x40 MLOAD SWAP1 ISZERO ISZERO DUP2 MSTORE RETURN JUMPDEST PUSH4 0x1FFC9A7 PUSH1 0xE0 SHL EQ SWAP1 POP DUP3 PUSH2 0x2641 JUMP JUMPDEST CALLVALUE PUSH2 0x38C JUMPI PUSH1 0x0 CALLDATASIZE PUSH1 0x3 NOT ADD SLT PUSH2 0x38C JUMPI PUSH1 0x20 SWAP1 PUSH1 0x3 SLOAD DUP2 MSTORE RETURN JUMPDEST CALLVALUE PUSH2 0x38C JUMPI PUSH1 0x0 CALLDATASIZE PUSH1 0x3 NOT ADD SLT PUSH2 0x38C JUMPI PUSH1 0x20 PUSH1 0x40 MLOAD PUSH1 0x64 DUP2 MSTORE RETURN JUMPDEST SWAP2 DUP2 PUSH1 0x1F DUP5 ADD SLT ISZERO PUSH2 0x38C JUMPI DUP3 CALLDATALOAD SWAP2 PUSH1 0x1 PUSH1 0x1 PUSH1 0x40 SHL SUB DUP4 GT PUSH2 0x38C JUMPI PUSH1 0x20 DUP1 DUP6 ADD SWAP5 DUP5 PUSH1 0x5 SHL ADD ADD GT PUSH2 0x38C JUMPI JUMP JUMPDEST PUSH1 0x4 CALLDATALOAD SWAP1 PUSH1 0x1 PUSH1 0x1 PUSH1 0xA0 SHL SUB DUP3 AND DUP3 SUB PUSH2 0x38C JUMPI JUMP JUMPDEST PUSH1 0x24 CALLDATALOAD SWAP1 PUSH1 0x1 PUSH1 0x1 PUSH1 0xA0 SHL SUB DUP3 AND DUP3 SUB PUSH2 0x38C JUMPI JUMP JUMPDEST SWAP1 PUSH1 0x1 DUP3 DUP2 SHR SWAP3 AND DUP1 ISZERO PUSH2 0x2720 JUMPI JUMPDEST PUSH1 0x20 DUP4 LT EQ PUSH2 0x270A JUMPI JUMP JUMPDEST PUSH4 0x4E487B71 PUSH1 0xE0 SHL PUSH1 0x0 MSTORE PUSH1 0x22 PUSH1 0x4 MSTORE PUSH1 0x24 PUSH1 0x0 REVERT JUMPDEST SWAP2 PUSH1 0x7F AND SWAP2 PUSH2 0x26FF JUMP JUMPDEST PUSH2 0x100 DUP2 ADD SWAP1 DUP2 LT PUSH1 0x1 PUSH1 0x1 PUSH1 0x40 SHL SUB DUP3 GT OR PUSH2 0x846 JUMPI PUSH1 0x40 MSTORE JUMP JUMPDEST PUSH1 0xC0 DUP2 ADD SWAP1 DUP2 LT PUSH1 0x1 PUSH1 0x1 PUSH1 0x40 SHL SUB DUP3 GT OR PUSH2 0x846 JUMPI PUSH1 0x40 MSTORE JUMP JUMPDEST PUSH1 0x80 DUP2 ADD SWAP1 DUP2 LT PUSH1 0x1 PUSH1 0x1 PUSH1 0x40 SHL SUB DUP3 GT OR PUSH2 0x846 JUMPI PUSH1 0x40 MSTORE JUMP JUMPDEST SWAP1 PUSH1 0x1F DUP1 NOT SWAP2 ADD AND DUP2 ADD SWAP1 DUP2 LT PUSH1 0x1 PUSH1 0x1 PUSH1 0x40 SHL SUB DUP3 GT OR PUSH2 0x846 JUMPI PUSH1 0x40 MSTORE JUMP JUMPDEST SWAP1 PUSH1 0x40 MLOAD SWAP2 DUP3 PUSH1 0x0 DUP3 SLOAD SWAP3 PUSH2 0x27B1 DUP5 PUSH2 0x26F0 JUMP JUMPDEST SWAP1 DUP2 DUP5 MSTORE PUSH1 0x1 SWAP5 DUP6 DUP2 AND SWAP1 DUP2 PUSH1 0x0 EQ PUSH2 0x2820 JUMPI POP PUSH1 0x1 EQ PUSH2 0x27DD JUMPI JUMPDEST POP POP PUSH2 0x27DB SWAP3 POP SUB DUP4 PUSH2 0x277C JUMP JUMPDEST JUMP JUMPDEST SWAP1 SWAP4 SWAP2 POP PUSH1 0x0 MSTORE PUSH1 0x20 SWAP1 DUP2 PUSH1 0x0 KECCAK256 SWAP4 PUSH1 0x0 SWAP2 JUMPDEST DUP2 DUP4 LT PUSH2 0x2808 JUMPI POP POP PUSH2 0x27DB SWAP4 POP DUP3 ADD ADD CODESIZE DUP1 PUSH2 0x27CD JUMP JUMPDEST DUP6 SLOAD DUP9 DUP5 ADD DUP6 ADD MSTORE SWAP5 DUP6 ADD SWAP5 DUP8 SWAP5 POP SWAP2 DUP4 ADD SWAP2 PUSH2 0x27F0 JUMP JUMPDEST SWAP2 POP POP PUSH2 0x27DB SWAP5 POP PUSH1 0x20 SWAP3 POP PUSH1 0xFF NOT AND DUP3 DUP5 ADD MSTORE ISZERO ISZERO PUSH1 0x5 SHL DUP3 ADD ADD CODESIZE DUP1 PUSH2 0x27CD JUMP JUMPDEST PUSH1 0x0 JUMPDEST DUP4 DUP2 LT PUSH2 0x2856 JUMPI POP POP PUSH1 0x0 SWAP2 ADD MSTORE JUMP JUMPDEST DUP2 DUP2 ADD MLOAD DUP4 DUP3 ADD MSTORE PUSH1 0x20 ADD PUSH2 0x2846 JUMP JUMPDEST SWAP1 PUSH1 0x20 SWAP2 PUSH2 0x287F DUP2 MLOAD DUP1 SWAP3 DUP2 DUP6 MSTORE DUP6 DUP1 DUP7 ADD SWAP2 ADD PUSH2 0x2843 JUMP JUMPDEST PUSH1 0x1F ADD PUSH1 0x1F NOT AND ADD ADD SWAP1 JUMP JUMPDEST SWAP2 DUP2 PUSH1 0x1F DUP5 ADD SLT ISZERO PUSH2 0x38C JUMPI DUP3 CALLDATALOAD SWAP2 PUSH1 0x1 PUSH1 0x1 PUSH1 0x40 SHL SUB DUP4 GT PUSH2 0x38C JUMPI PUSH1 0x20 DUP4 DUP2 DUP7 ADD SWAP6 ADD ADD GT PUSH2 0x38C JUMPI JUMP JUMPDEST PUSH1 0x6 SLOAD DUP2 LT ISZERO PUSH2 0x28EF JUMPI PUSH1 0x6 PUSH1 0x0 MSTORE PUSH32 0xF652222313E28459528D920B65115C16C04F3EFC82AAEDC97BE59F3F377C0D3F ADD SWAP1 PUSH1 0x0 SWAP1 JUMP JUMPDEST PUSH4 0x4E487B71 PUSH1 0xE0 SHL PUSH1 0x0 MSTORE PUSH1 0x32 PUSH1 0x4 MSTORE PUSH1 0x24 PUSH1 0x0 REVERT JUMPDEST CALLER PUSH1 0x0 SWAP1 DUP2 MSTORE PUSH32 0xD190F20293C25CF866C072DD5ACEE973F736C2049FCA83B655CD3F77AF4EADAE PUSH1 0x20 SWAP1 DUP2 MSTORE PUSH1 0x40 DUP1 DUP4 KECCAK256 SLOAD SWAP1 SWAP3 PUSH32 0xCCC64574297998B6C3EDF6078CC5E01268465FF116954E3AF02FF3A70A730F46 SWAP2 PUSH1 0xFF AND ISZERO PUSH2 0x2969 JUMPI POP POP POP POP JUMP JUMPDEST PUSH2 0x2972 CALLER PUSH2 0x2F77 JUMP JUMPDEST SWAP2 DUP5 MLOAD SWAP1 PUSH2 0x297F DUP3 PUSH2 0x2761 JUMP JUMPDEST PUSH1 0x42 DUP3 MSTORE DUP5 DUP3 ADD SWAP3 PUSH1 0x60 CALLDATASIZE DUP6 CALLDATACOPY DUP3 MLOAD ISZERO PUSH2 0x2B0C JUMPI PUSH1 0x30 DUP5 MSTORE8 DUP3 MLOAD SWAP1 PUSH1 0x1 SWAP2 DUP3 LT ISZERO PUSH2 0x2B0C JUMPI SWAP1 PUSH1 0x78 PUSH1 0x21 DUP6 ADD MSTORE8 PUSH1 0x41 SWAP2 JUMPDEST DUP2 DUP4 GT PUSH2 0x2A9E JUMPI POP POP POP PUSH2 0x2A5C JUMPI PUSH1 0x48 PUSH2 0x2A58 SWAP4 DUP7 SWAP4 PUSH2 0x2A3C SWAP4 PUSH2 0x2A2D SWAP9 MLOAD SWAP9 DUP10 SWAP4 PUSH23 0x20B1B1B2B9B9A1B7B73A3937B61D1030B1B1B7BAB73A1 PUSH1 0x4D SHL DUP11 DUP7 ADD MSTORE PUSH2 0x2A04 DUP2 MLOAD DUP1 SWAP3 DUP13 PUSH1 0x37 DUP10 ADD SWAP2 ADD PUSH2 0x2843 JUMP JUMPDEST DUP5 ADD SWAP2 PUSH17 0x1034B99036B4B9B9B4B733903937B6329 PUSH1 0x7D SHL PUSH1 0x37 DUP5 ADD MSTORE MLOAD DUP1 SWAP4 DUP7 DUP5 ADD SWAP1 PUSH2 0x2843 JUMP JUMPDEST ADD SUB PUSH1 0x28 DUP2 ADD DUP8 MSTORE ADD DUP6 PUSH2 0x277C JUMP JUMPDEST MLOAD SWAP3 DUP4 SWAP3 PUSH3 0x461BCD PUSH1 0xE5 SHL DUP5 MSTORE PUSH1 0x4 DUP5 ADD MSTORE PUSH1 0x24 DUP4 ADD SWAP1 PUSH2 0x2866 JUMP JUMPDEST SUB SWAP1 REVERT JUMPDEST PUSH1 0x64 DUP5 DUP7 MLOAD SWAP1 PUSH3 0x461BCD PUSH1 0xE5 SHL DUP3 MSTORE DUP1 PUSH1 0x4 DUP4 ADD MSTORE PUSH1 0x24 DUP3 ADD MSTORE PUSH32 0x537472696E67733A20686578206C656E67746820696E73756666696369656E74 PUSH1 0x44 DUP3 ADD MSTORE REVERT JUMPDEST SWAP1 SWAP2 SWAP3 PUSH1 0xF DUP2 AND PUSH1 0x10 DUP2 LT ISZERO PUSH2 0x2AF8 JUMPI PUSH16 0x181899199A1A9B1B9C1CB0B131B232B3 PUSH1 0x81 SHL SWAP1 BYTE PUSH2 0x2ACE DUP6 DUP8 PUSH2 0x2F66 JUMP JUMPDEST MSTORE8 PUSH1 0x4 SHR SWAP3 DUP1 ISZERO PUSH2 0x2AE4 JUMPI PUSH1 0x0 NOT ADD SWAP2 SWAP1 PUSH2 0x29B0 JUMP JUMPDEST PUSH4 0x4E487B71 PUSH1 0xE0 SHL DUP3 MSTORE PUSH1 0x11 PUSH1 0x4 MSTORE PUSH1 0x24 DUP3 REVERT JUMPDEST PUSH4 0x4E487B71 PUSH1 0xE0 SHL DUP4 MSTORE PUSH1 0x32 PUSH1 0x4 MSTORE PUSH1 0x24 DUP4 REVERT JUMPDEST PUSH4 0x4E487B71 PUSH1 0xE0 SHL DUP2 MSTORE PUSH1 0x32 PUSH1 0x4 MSTORE PUSH1 0x24 SWAP1 REVERT JUMPDEST CALLER PUSH1 0x0 SWAP1 DUP2 MSTORE PUSH32 0xE5EBFA64FCA8D502A8E50C1EDFFD2C31EF4DAD5B396E65D9F397FB028F74ABC5 PUSH1 0x20 SWAP1 DUP2 MSTORE PUSH1 0x40 DUP1 DUP4 KECCAK256 SLOAD SWAP1 SWAP3 PUSH32 0xA49807205CE4D355092EF5A8A18F56E8913CF4A201FBE287825B095693C21775 SWAP2 PUSH1 0xFF AND ISZERO PUSH2 0x2B84 JUMPI POP POP POP POP JUMP JUMPDEST PUSH2 0x2B8D CALLER PUSH2 0x2F77 JUMP JUMPDEST SWAP2 DUP5 MLOAD SWAP1 PUSH2 0x2B9A DUP3 PUSH2 0x2761 JUMP JUMPDEST PUSH1 0x42 DUP3 MSTORE DUP5 DUP3 ADD SWAP3 PUSH1 0x60 CALLDATASIZE DUP6 CALLDATACOPY DUP3 MLOAD ISZERO PUSH2 0x2B0C JUMPI PUSH1 0x30 DUP5 MSTORE8 DUP3 MLOAD SWAP1 PUSH1 0x1 SWAP2 DUP3 LT ISZERO PUSH2 0x2B0C JUMPI SWAP1 PUSH1 0x78 PUSH1 0x21 DUP6 ADD MSTORE8 PUSH1 0x41 SWAP2 JUMPDEST DUP2 DUP4 GT PUSH2 0x2C1F JUMPI POP POP POP PUSH2 0x2A5C JUMPI PUSH1 0x48 PUSH2 0x2A58 SWAP4 DUP7 SWAP4 PUSH2 0x2A3C SWAP4 PUSH2 0x2A2D SWAP9 MLOAD SWAP9 DUP10 SWAP4 PUSH23 0x20B1B1B2B9B9A1B7B73A3937B61D1030B1B1B7BAB73A1 PUSH1 0x4D SHL DUP11 DUP7 ADD MSTORE PUSH2 0x2A04 DUP2 MLOAD DUP1 SWAP3 DUP13 PUSH1 0x37 DUP10 ADD SWAP2 ADD PUSH2 0x2843 JUMP JUMPDEST SWAP1 SWAP2 SWAP3 PUSH1 0xF DUP2 AND PUSH1 0x10 DUP2 LT ISZERO PUSH2 0x2AF8 JUMPI PUSH16 0x181899199A1A9B1B9C1CB0B131B232B3 PUSH1 0x81 SHL SWAP1 BYTE PUSH2 0x2C4F DUP6 DUP8 PUSH2 0x2F66 JUMP JUMPDEST MSTORE8 PUSH1 0x4 SHR SWAP3 DUP1 ISZERO PUSH2 0x2AE4 JUMPI PUSH1 0x0 NOT ADD SWAP2 SWAP1 PUSH2 0x2BCB JUMP JUMPDEST CALLER PUSH1 0x0 SWAP1 DUP2 MSTORE PUSH32 0x5A10DB7EB5FB087477F68987FF09C6EBB13410247D1A97126552F0C97385B266 PUSH1 0x20 SWAP1 DUP2 MSTORE PUSH1 0x40 DUP1 DUP4 KECCAK256 SLOAD SWAP1 SWAP3 PUSH32 0x4170D100A3A3728AE51207936EE755ECAA64A7F6E9383C642AB204A136F90B1B SWAP2 PUSH1 0xFF AND ISZERO PUSH2 0x2CC9 JUMPI POP POP POP POP JUMP JUMPDEST PUSH2 0x2CD2 CALLER PUSH2 0x2F77 JUMP JUMPDEST SWAP2 DUP5 MLOAD SWAP1 PUSH2 0x2CDF DUP3 PUSH2 0x2761 JUMP JUMPDEST PUSH1 0x42 DUP3 MSTORE DUP5 DUP3 ADD SWAP3 PUSH1 0x60 CALLDATASIZE DUP6 CALLDATACOPY DUP3 MLOAD ISZERO PUSH2 0x2B0C JUMPI PUSH1 0x30 DUP5 MSTORE8 DUP3 MLOAD SWAP1 PUSH1 0x1 SWAP2 DUP3 LT ISZERO PUSH2 0x2B0C JUMPI SWAP1 PUSH1 0x78 PUSH1 0x21 DUP6 ADD MSTORE8 PUSH1 0x41 SWAP2 JUMPDEST DUP2 DUP4 GT PUSH2 0x2D64 JUMPI POP POP POP PUSH2 0x2A5C JUMPI PUSH1 0x48 PUSH2 0x2A58 SWAP4 DUP7 SWAP4 PUSH2 0x2A3C SWAP4 PUSH2 0x2A2D SWAP9 MLOAD SWAP9 DUP10 SWAP4 PUSH23 0x20B1B1B2B9B9A1B7B73A3937B61D1030B1B1B7BAB73A1 PUSH1 0x4D SHL DUP11 DUP7 ADD MSTORE PUSH2 0x2A04 DUP2 MLOAD DUP1 SWAP3 DUP13 PUSH1 0x37 DUP10 ADD SWAP2 ADD PUSH2 0x2843 JUMP JUMPDEST SWAP1 SWAP2 SWAP3 PUSH1 0xF DUP2 AND PUSH1 0x10 DUP2 LT ISZERO PUSH2 0x2AF8 JUMPI PUSH16 0x181899199A1A9B1B9C1CB0B131B232B3 PUSH1 0x81 SHL SWAP1 BYTE PUSH2 0x2D94 DUP6 DUP8 PUSH2 0x2F66 JUMP JUMPDEST MSTORE8 PUSH1 0x4 SHR SWAP3 DUP1 ISZERO PUSH2 0x2AE4 JUMPI PUSH1 0x0 NOT ADD SWAP2 SWAP1 PUSH2 0x2D10 JUMP JUMPDEST PUSH1 0x0 SWAP1 DUP1 DUP3 MSTORE PUSH1 0x20 SWAP1 PUSH1 0x2 DUP3 MSTORE PUSH1 0x40 SWAP3 DUP4 DUP2 KECCAK256 CALLER DUP3 MSTORE DUP4 MSTORE PUSH1 0xFF DUP5 DUP3 KECCAK256 SLOAD AND ISZERO PUSH2 0x2DD4 JUMPI POP POP POP POP JUMP JUMPDEST PUSH2 0x2DDD CALLER PUSH2 0x2F77 JUMP JUMPDEST SWAP2 DUP5 MLOAD SWAP1 PUSH2 0x2DEA DUP3 PUSH2 0x2761 JUMP JUMPDEST PUSH1 0x42 DUP3 MSTORE DUP5 DUP3 ADD SWAP3 PUSH1 0x60 CALLDATASIZE DUP6 CALLDATACOPY DUP3 MLOAD ISZERO PUSH2 0x2B0C JUMPI PUSH1 0x30 DUP5 MSTORE8 DUP3 MLOAD SWAP1 PUSH1 0x1 SWAP2 DUP3 LT ISZERO PUSH2 0x2B0C JUMPI SWAP1 PUSH1 0x78 PUSH1 0x21 DUP6 ADD MSTORE8 PUSH1 0x41 SWAP2 JUMPDEST DUP2 DUP4 GT PUSH2 0x2E6F JUMPI POP POP POP PUSH2 0x2A5C JUMPI PUSH1 0x48 PUSH2 0x2A58 SWAP4 DUP7 SWAP4 PUSH2 0x2A3C SWAP4 PUSH2 0x2A2D SWAP9 MLOAD SWAP9 DUP10 SWAP4 PUSH23 0x20B1B1B2B9B9A1B7B73A3937B61D1030B1B1B7BAB73A1 PUSH1 0x4D SHL DUP11 DUP7 ADD MSTORE PUSH2 0x2A04 DUP2 MLOAD DUP1 SWAP3 DUP13 PUSH1 0x37 DUP10 ADD SWAP2 ADD PUSH2 0x2843 JUMP JUMPDEST SWAP1 SWAP2 SWAP3 PUSH1 0xF DUP2 AND PUSH1 0x10 DUP2 LT ISZERO PUSH2 0x2AF8 JUMPI PUSH16 0x181899199A1A9B1B9C1CB0B131B232B3 PUSH1 0x81 SHL SWAP1 BYTE PUSH2 0x2E9F DUP6 DUP8 PUSH2 0x2F66 JUMP JUMPDEST MSTORE8 PUSH1 0x4 SHR SWAP3 DUP1 ISZERO PUSH2 0x2AE4 JUMPI PUSH1 0x0 NOT ADD SWAP2 SWAP1 PUSH2 0x2E1B JUMP JUMPDEST SWAP1 PUSH1 0x0 SWAP2 DUP1 DUP4 MSTORE PUSH1 0x2 PUSH1 0x20 MSTORE PUSH1 0x40 DUP4 KECCAK256 SWAP2 PUSH1 0x1 DUP1 PUSH1 0xA0 SHL SUB AND SWAP2 DUP3 DUP5 MSTORE PUSH1 0x20 MSTORE PUSH1 0xFF PUSH1 0x40 DUP5 KECCAK256 SLOAD AND PUSH2 0x2EE6 JUMPI POP POP POP JUMP JUMPDEST DUP1 DUP4 MSTORE PUSH1 0x2 PUSH1 0x20 MSTORE PUSH1 0x40 DUP4 KECCAK256 DUP3 DUP5 MSTORE PUSH1 0x20 MSTORE PUSH1 0x40 DUP4 KECCAK256 PUSH1 0xFF NOT DUP2 SLOAD AND SWAP1 SSTORE PUSH32 0xF6391F5C32D9C69D2A47EA670B442974B53935D1EDC7FD64EB21E047A839171B CALLER SWAP4 DUP1 LOG4 JUMP JUMPDEST DUP2 DUP2 MUL SWAP3 SWAP2 DUP2 ISZERO SWAP2 DUP5 DIV EQ OR ISZERO PUSH2 0x1288 JUMPI JUMP JUMPDEST SWAP2 SWAP1 DUP3 ADD DUP1 SWAP3 GT PUSH2 0x1288 JUMPI JUMP JUMPDEST PUSH1 0x1 PUSH1 0x1 PUSH1 0x40 SHL SUB DUP2 GT PUSH2 0x846 JUMPI PUSH1 0x1F ADD PUSH1 0x1F NOT AND PUSH1 0x20 ADD SWAP1 JUMP JUMPDEST SWAP1 DUP2 MLOAD DUP2 LT ISZERO PUSH2 0x28EF JUMPI ADD PUSH1 0x20 ADD SWAP1 JUMP JUMPDEST PUSH1 0x40 MLOAD SWAP1 PUSH1 0x60 DUP3 ADD DUP3 DUP2 LT PUSH1 0x1 PUSH1 0x1 PUSH1 0x40 SHL SUB DUP3 GT OR PUSH2 0x846 JUMPI PUSH1 0x40 MSTORE PUSH1 0x2A DUP3 MSTORE PUSH1 0x20 DUP3 ADD PUSH1 0x40 CALLDATASIZE DUP3 CALLDATACOPY DUP3 MLOAD ISZERO PUSH2 0x28EF JUMPI PUSH1 0x30 SWAP1 MSTORE8 DUP2 MLOAD PUSH1 0x1 SWAP1 DUP2 LT ISZERO PUSH2 0x28EF JUMPI PUSH1 0x78 PUSH1 0x21 DUP5 ADD MSTORE8 PUSH1 0x29 SWAP1 JUMPDEST DUP1 DUP3 GT PUSH2 0x3017 JUMPI POP POP PUSH2 0x2FD3 JUMPI SWAP1 JUMP JUMPDEST PUSH1 0x64 PUSH1 0x40 MLOAD PUSH3 0x461BCD PUSH1 0xE5 SHL DUP2 MSTORE PUSH1 0x20 PUSH1 0x4 DUP3 ADD MSTORE PUSH1 0x20 PUSH1 0x24 DUP3 ADD MSTORE PUSH32 0x537472696E67733A20686578206C656E67746820696E73756666696369656E74 PUSH1 0x44 DUP3 ADD MSTORE REVERT JUMPDEST SWAP1 SWAP2 PUSH1 0xF DUP2 AND PUSH1 0x10 DUP2 LT ISZERO PUSH2 0x3070 JUMPI PUSH16 0x181899199A1A9B1B9C1CB0B131B232B3 PUSH1 0x81 SHL SWAP1 BYTE PUSH2 0x3046 DUP5 DUP7 PUSH2 0x2F66 JUMP JUMPDEST MSTORE8 PUSH1 0x4 SHR SWAP2 DUP1 ISZERO PUSH2 0x305B JUMPI PUSH1 0x0 NOT ADD SWAP1 PUSH2 0x2FC3 JUMP JUMPDEST PUSH1 0x24 PUSH1 0x0 PUSH4 0x4E487B71 PUSH1 0xE0 SHL DUP2 MSTORE PUSH1 0x11 PUSH1 0x4 MSTORE REVERT JUMPDEST PUSH1 0x24 PUSH1 0x0 PUSH4 0x4E487B71 PUSH1 0xE0 SHL DUP2 MSTORE PUSH1 0x32 PUSH1 0x4 MSTORE REVERT JUMPDEST DUP2 DUP2 LT PUSH2 0x3090 JUMPI POP POP JUMP JUMPDEST PUSH1 0x0 DUP2 SSTORE PUSH1 0x1 ADD PUSH2 0x3085 JUMP JUMPDEST PUSH1 0x1 PUSH1 0x1 PUSH1 0x40 SHL SUB DUP2 GT PUSH2 0x846 JUMPI PUSH1 0x5 SHL PUSH1 0x20 ADD SWAP1 JUMP JUMPDEST SWAP1 PUSH2 0x30BD DUP3 PUSH2 0x309C JUMP JUMPDEST PUSH2 0x30CA PUSH1 0x40 MLOAD SWAP2 DUP3 PUSH2 0x277C JUMP JUMPDEST DUP3 DUP2 MSTORE DUP1 SWAP3 PUSH2 0x30DB PUSH1 0x1F NOT SWAP2 PUSH2 0x309C JUMP JUMPDEST ADD SWAP1 PUSH1 0x20 CALLDATASIZE SWAP2 ADD CALLDATACOPY JUMP JUMPDEST SWAP1 DUP1 PUSH1 0x20 SWAP4 SWAP3 DUP2 DUP5 MSTORE DUP5 DUP5 ADD CALLDATACOPY PUSH1 0x0 DUP3 DUP3 ADD DUP5 ADD MSTORE PUSH1 0x1F ADD PUSH1 0x1F NOT AND ADD ADD SWAP1 JUMP JUMPDEST PUSH1 0x0 NOT DUP2 EQ PUSH2 0x1288 JUMPI PUSH1 0x1 ADD SWAP1 JUMP JUMPDEST SWAP2 SWAP1 DUP3 SUB SWAP2 DUP3 GT PUSH2 0x1288 JUMPI JUMP JUMPDEST PUSH1 0xFF PUSH1 0x1 SLOAD AND PUSH2 0x312E JUMPI JUMP JUMPDEST PUSH1 0x40 MLOAD PUSH3 0x461BCD PUSH1 0xE5 SHL DUP2 MSTORE PUSH1 0x20 PUSH1 0x4 DUP3 ADD MSTORE PUSH1 0x10 PUSH1 0x24 DUP3 ADD MSTORE PUSH16 0x14185D5CD8589B194E881C185D5CD959 PUSH1 0x82 SHL PUSH1 0x44 DUP3 ADD MSTORE PUSH1 0x64 SWAP1 REVERT JUMPDEST PUSH1 0x2 PUSH1 0x0 SLOAD EQ PUSH2 0x3177 JUMPI PUSH1 0x2 PUSH1 0x0 SSTORE JUMP JUMPDEST PUSH1 0x40 MLOAD PUSH3 0x461BCD PUSH1 0xE5 SHL DUP2 MSTORE PUSH1 0x20 PUSH1 0x4 DUP3 ADD MSTORE PUSH1 0x1F PUSH1 0x24 DUP3 ADD MSTORE PUSH32 0x5265656E7472616E637947756172643A207265656E7472616E742063616C6C00 PUSH1 0x44 DUP3 ADD MSTORE PUSH1 0x64 SWAP1 REVERT JUMPDEST PUSH1 0x1 DUP1 PUSH1 0xA0 SHL SUB AND SWAP1 PUSH1 0x40 MLOAD PUSH1 0x40 DUP2 ADD SWAP1 DUP1 DUP3 LT PUSH1 0x1 PUSH1 0x1 PUSH1 0x40 SHL SUB DUP4 GT OR PUSH2 0x846 JUMPI PUSH2 0x324B SWAP2 PUSH1 0x40 MSTORE PUSH1 0x20 SWAP4 DUP5 DUP3 MSTORE PUSH32 0x5361666545524332303A206C6F772D6C6576656C2063616C6C206661696C6564 DUP6 DUP4 ADD MSTORE PUSH1 0x0 DUP1 DUP6 DUP8 DUP3 SWAP8 MLOAD SWAP2 ADD DUP3 DUP6 GAS CALL RETURNDATASIZE ISZERO PUSH2 0x32E8 JUMPI RETURNDATASIZE SWAP2 PUSH2 0x3230 DUP4 PUSH2 0x2F4B JUMP JUMPDEST SWAP3 PUSH2 0x323E PUSH1 0x40 MLOAD SWAP5 DUP6 PUSH2 0x277C JUMP JUMPDEST DUP4 MSTORE RETURNDATASIZE DUP7 DUP9 DUP6 ADD RETURNDATACOPY PUSH2 0x32EC JUMP JUMPDEST DUP1 MLOAD SWAP2 DUP3 ISZERO SWAP2 DUP5 DUP4 ISZERO PUSH2 0x32BD JUMPI JUMPDEST POP POP POP SWAP1 POP ISZERO PUSH2 0x3266 JUMPI POP JUMP JUMPDEST PUSH1 0x84 SWAP1 PUSH1 0x40 MLOAD SWAP1 PUSH3 0x461BCD PUSH1 0xE5 SHL DUP3 MSTORE PUSH1 0x4 DUP3 ADD MSTORE PUSH1 0x2A PUSH1 0x24 DUP3 ADD MSTORE PUSH32 0x5361666545524332303A204552433230206F7065726174696F6E20646964206E PUSH1 0x44 DUP3 ADD MSTORE PUSH10 0x1BDD081CDD58D8D95959 PUSH1 0xB2 SHL PUSH1 0x64 DUP3 ADD MSTORE REVERT JUMPDEST SWAP2 SWAP4 DUP2 DUP1 SWAP5 POP ADD SUB SLT PUSH2 0x32E4 JUMPI DUP3 ADD MLOAD SWAP1 DUP2 ISZERO ISZERO DUP3 SUB PUSH2 0x32E1 JUMPI POP DUP1 CODESIZE DUP1 DUP5 PUSH2 0x3259 JUMP JUMPDEST DUP1 REVERT JUMPDEST POP DUP1 REVERT JUMPDEST PUSH1 0x60 SWAP2 JUMPDEST SWAP2 SWAP3 SWAP1 ISZERO PUSH2 0x334E JUMPI POP DUP2 MLOAD ISZERO PUSH2 0x3300 JUMPI POP SWAP1 JUMP JUMPDEST EXTCODESIZE ISZERO PUSH2 0x3309 JUMPI SWAP1 JUMP JUMPDEST PUSH1 0x40 MLOAD PUSH3 0x461BCD PUSH1 0xE5 SHL DUP2 MSTORE PUSH1 0x20 PUSH1 0x4 DUP3 ADD MSTORE PUSH1 0x1D PUSH1 0x24 DUP3 ADD MSTORE PUSH32 0x416464726573733A2063616C6C20746F206E6F6E2D636F6E7472616374000000 PUSH1 0x44 DUP3 ADD MSTORE PUSH1 0x64 SWAP1 REVERT JUMPDEST DUP3 MLOAD SWAP1 SWAP2 POP ISZERO PUSH2 0x3361 JUMPI POP DUP1 MLOAD SWAP1 PUSH1 0x20 ADD REVERT JUMPDEST PUSH1 0x40 MLOAD PUSH3 0x461BCD PUSH1 0xE5 SHL DUP2 MSTORE PUSH1 0x20 PUSH1 0x4 DUP3 ADD MSTORE SWAP1 DUP2 SWAP1 PUSH2 0x2A58 SWAP1 PUSH1 0x24 DUP4 ADD SWAP1 PUSH2 0x2866 JUMP JUMPDEST PUSH1 0x40 MLOAD PUSH4 0xA9059CBB PUSH1 0xE0 SHL PUSH1 0x20 DUP3 ADD MSTORE PUSH1 0x1 PUSH1 0x1 PUSH1 0xA0 SHL SUB SWAP3 SWAP1 SWAP3 AND PUSH1 0x24 DUP4 ADD MSTORE PUSH1 0x44 DUP1 DUP4 ADD SWAP4 SWAP1 SWAP4 MSTORE SWAP2 DUP2 MSTORE PUSH2 0x27DB SWAP2 PUSH2 0x33C1 PUSH1 0x64 DUP4 PUSH2 0x277C JUMP JUMPDEST PUSH2 0x31BC JUMP JUMPDEST SWAP2 SWAP1 DUP2 LT ISZERO PUSH2 0x28EF JUMPI PUSH1 0x5 SHL ADD SWAP1 JUMP JUMPDEST CALLDATALOAD PUSH1 0x1 PUSH1 0x1 PUSH1 0xA0 SHL SUB DUP2 AND DUP2 SUB PUSH2 0x38C JUMPI SWAP1 JUMP JUMPDEST DUP1 MLOAD DUP3 LT ISZERO PUSH2 0x28EF JUMPI PUSH1 0x20 SWAP2 PUSH1 0x5 SHL ADD ADD SWAP1 JUMP JUMPDEST DUP2 ISZERO PUSH2 0x1210 JUMPI DIV SWAP1 JUMP JUMPDEST PUSH1 0x3 SLOAD DUP1 ISZERO DUP1 ISZERO PUSH2 0x342B JUMPI JUMPDEST PUSH2 0x3427 JUMPI PUSH1 0x4 SLOAD PUSH2 0x3424 SWAP3 PUSH2 0x3435 JUMP JUMPDEST SWAP1 JUMP JUMPDEST POP SWAP1 JUMP JUMPDEST POP PUSH1 0x4 SLOAD ISZERO PUSH2 0x3414 JUMP JUMPDEST SWAP2 PUSH1 0x0 NOT DUP3 DUP5 MULMOD SWAP3 DUP3 DUP2 MUL SWAP3 DUP4 DUP1 DUP7 LT SWAP6 SUB SWAP5 DUP1 DUP7 SUB SWAP6 EQ PUSH2 0x34E8 JUMPI DUP5 DUP4 GT ISZERO PUSH2 0x34AB JUMPI DUP3 SWAP2 MULMOD PUSH1 0x1 DUP3 NOT ADD DUP3 AND DUP1 SWAP3 DIV PUSH1 0x2 DUP1 DUP3 PUSH1 0x3 MUL XOR DUP1 DUP4 MUL DUP3 SUB MUL DUP1 DUP4 MUL DUP3 SUB MUL DUP1 DUP4 MUL DUP3 SUB MUL DUP1 DUP4 MUL DUP3 SUB MUL DUP1 DUP4 MUL DUP3 SUB MUL DUP1 SWAP3 MUL SWAP1 SUB MUL SWAP4 PUSH1 0x1 DUP4 DUP1 PUSH1 0x0 SUB DIV ADD SWAP1 DUP5 DUP4 GT SWAP1 SUB MUL SWAP3 SUB DIV OR MUL SWAP1 JUMP JUMPDEST PUSH1 0x40 MLOAD PUSH3 0x461BCD PUSH1 0xE5 SHL DUP2 MSTORE PUSH1 0x20 PUSH1 0x4 DUP3 ADD MSTORE PUSH1 0x15 PUSH1 0x24 DUP3 ADD MSTORE PUSH21 0x4D6174683A206D756C446976206F766572666C6F77 PUSH1 0x58 SHL PUSH1 0x44 DUP3 ADD MSTORE PUSH1 0x64 SWAP1 REVERT JUMPDEST POP POP SWAP1 PUSH2 0x3424 SWAP3 POP PUSH2 0x33FE JUMP JUMPDEST PUSH1 0x4 SLOAD DUP1 ISZERO PUSH2 0x3427 JUMPI PUSH1 0x3 SLOAD PUSH2 0x3424 SWAP3 PUSH2 0x3435 JUMP JUMPDEST PUSH1 0x0 JUMPDEST PUSH1 0x6 SLOAD DUP2 LT ISZERO PUSH2 0x3572 JUMPI DUP1 PUSH2 0x3524 PUSH2 0x3551 SWAP3 PUSH2 0x28B8 JUMP JUMPDEST PUSH1 0x1 DUP1 PUSH1 0xA0 SHL SUB SWAP2 SLOAD SWAP1 PUSH1 0x3 SHL SHR AND PUSH1 0x0 MSTORE PUSH1 0x20 PUSH1 0x7 DUP2 MSTORE PUSH1 0x40 PUSH1 0xFF DUP2 PUSH1 0x0 KECCAK256 SLOAD AND PUSH2 0x3556 JUMPI POP POP PUSH2 0x3106 JUMP JUMPDEST PUSH2 0x350D JUMP JUMPDEST PUSH1 0x1 SWAP1 PUSH1 0xD DUP4 MSTORE PUSH1 0x5 DUP2 PUSH1 0x0 KECCAK256 SLOAD SWAP4 MSTORE PUSH1 0x0 KECCAK256 ADD SSTORE CODESIZE DUP1 PUSH2 0x1178 JUMP JUMPDEST POP JUMP INVALID LOG2 PUSH5 0x6970667358 0x22 SLT KECCAK256 PUSH26 0xD5D7082309C0384CB5020FEA1D6F9CA02C7024155079C594DF97 DIV PUSH24 0xBB61A364736F6C634300081400332F8788117E7EFF1D82E9 0x26 0xEC PUSH26 0x4901D17C78024A50270940304540A733656F0D00000000000000 "},"gasEstimates":{"creation":{"codeDepositCost":"2747800","executionCost":"infinite","totalCost":"infinite"},"external":{"ADMIN_ROLE()":"749","BASIS_POINTS()":"1145","DEFAULT_ADMIN_ROLE()":"947","MAX_ALLOCATION_PER_STRATEGY()":"683","MAX_STRATEGIES()":"771","MIN_REBALANCE_THRESHOLD()":"1201","MIN_STRATEGY_ALLOCATION()":"233","PERFORMANCE_WINDOW()":"617","REBALANCER_ROLE()":"529","REBALANCE_COOLDOWN()":"881","STRATEGY_MANAGER_ROLE()":"1035","activeStrategies(address)":"2575","addStrategy(address,string,uint256,uint256)":"infinite","asset()":"infinite","autoRebalance()":"infinite","autoRebalanceEnabled()":"3106","balanceOf(address)":"2981","convertToAssets(uint256)":"4864","convertToShares(uint256)":"7884","dailyYield(uint256)":"3292","deposit(uint256)":"infinite","emergencyPause()":"infinite","feeRecipient()":"2634","getCurrentAPY()":"infinite","getRoleAdmin(bytes32)":"2440","getStrategyInfo(address)":"infinite","getStrategyPerformance(address)":"infinite","grantRole(bytes32,address)":"infinite","harvestAll()":"infinite","hasRole(bytes32,address)":"3238","lastRebalance()":"2346","managementFee()":"3116","maxTotalRisk()":"2742","paused()":"2776","performanceFee()":"2918","rebalance(address[],uint256[])":"infinite","removeStrategy(address,string)":"infinite","renounceRole(bytes32,address)":"29030","revokeRole(bytes32,address)":"infinite","strategies(address)":"infinite","strategyList(uint256)":"7412","strategyPerformance(address)":"11467","supportsInterface(bytes4)":"301","targetAllocations(address)":"3421","totalAssets()":"2250","totalShares()":"2566","unpause()":"infinite","updateVaultParameters(uint256,uint256,address,bool)":"infinite","withdraw(uint256)":"infinite"},"internal":{"_allocateToStrategies(uint256)":"infinite","_calculateOptimalAllocations()":"infinite","_collectFees(uint256)":"infinite","_executeRebalance()":"infinite","_getActiveStrategyCount()":"infinite","_validateRiskLimits()":"infinite","_validateTotalAllocations()":"infinite","_withdrawFromStrategies(uint256)":"infinite"}},"methodIdentifiers":{"ADMIN_ROLE()":"75b238fc","BASIS_POINTS()":"e1f1c4a7","DEFAULT_ADMIN_ROLE()":"a217fddf","MAX_ALLOCATION_PER_STRATEGY()":"64d60a7d","MAX_STRATEGIES()":"767f06ae","MIN_REBALANCE_THRESHOLD()":"ef434d61","MIN_STRATEGY_ALLOCATION()":"0e7bd231","PERFORMANCE_WINDOW()":"55282902","REBALANCER_ROLE()":"490b48f8","REBALANCE_COOLDOWN()":"8faee2a8","STRATEGY_MANAGER_ROLE()":"abcbe0b2","activeStrategies(address)":"2c178bd0","addStrategy(address,string,uint256,uint256)":"527f116f","asset()":"38d52e0f","autoRebalance()":"7a6efd47","autoRebalanceEnabled()":"a5ac4dd1","balanceOf(address)":"70a08231","convertToAssets(uint256)":"07a2d13a","convertToShares(uint256)":"c6e6f592","dailyYield(uint256)":"dcdf92fb","deposit(uint256)":"b6b55f25","emergencyPause()":"51858e27","feeRecipient()":"46904840","getCurrentAPY()":"962ca496","getRoleAdmin(bytes32)":"248a9ca3","getStrategyInfo(address)":"54192ad5","getStrategyPerformance(address)":"f51381da","grantRole(bytes32,address)":"2f2ff15d","harvestAll()":"8ed955b9","hasRole(bytes32,address)":"91d14854","lastRebalance()":"106b9ca1","managementFee()":"a6f7f5d6","maxTotalRisk()":"58d1d42a","paused()":"5c975abb","performanceFee()":"87788782","rebalance(address[],uint256[])":"2be01190","removeStrategy(address,string)":"8ea447e6","renounceRole(bytes32,address)":"36568abe","revokeRole(bytes32,address)":"d547741f","strategies(address)":"39ebf823","strategyList(uint256)":"a267526b","strategyPerformance(address)":"6b5cc294","supportsInterface(bytes4)":"01ffc9a7","targetAllocations(address)":"e8f8080c","totalAssets()":"01e1d114","totalShares()":"3a98ef39","unpause()":"3f4ba83a","updateVaultParameters(uint256,uint256,address,bool)":"357ad7ad","withdraw(uint256)":"2e1a7d4d"}},"storageLayout":{"storage":[{"astId":507,"contract":"src/YieldVault.sol:YieldVault","label":"_status","offset":0,"slot":"0","type":"t_uint256"},{"astId":406,"contract":"src/YieldVault.sol:YieldVault","label":"_paused","offset":0,"slot":"1","type":"t_bool"},{"astId":24,"contract":"src/YieldVault.sol:YieldVault","label":"_roles","offset":0,"slot":"2","type":"t_mapping(t_bytes32,t_struct(RoleData)19_storage)"},{"astId":6200,"contract":"src/YieldVault.sol:YieldVault","label":"totalAssets","offset":0,"slot":"3","type":"t_uint256"},{"astId":6202,"contract":"src/YieldVault.sol:YieldVault","label":"totalShares","offset":0,"slot":"4","type":"t_uint256"},{"astId":6207,"contract":"src/YieldVault.sol:YieldVault","label":"strategies","offset":0,"slot":"5","type":"t_mapping(t_address,t_struct(StrategyInfo)6272_storage)"},{"astId":6210,"contract":"src/YieldVault.sol:YieldVault","label":"strategyList","offset":0,"slot":"6","type":"t_array(t_address)dyn_storage"},{"astId":6214,"contract":"src/YieldVault.sol:YieldVault","label":"activeStrategies","offset":0,"slot":"7","type":"t_mapping(t_address,t_bool)"},{"astId":6218,"contract":"src/YieldVault.sol:YieldVault","label":"_balances","offset":0,"slot":"8","type":"t_mapping(t_address,t_uint256)"},{"astId":6224,"contract":"src/YieldVault.sol:YieldVault","label":"_allowances","offset":0,"slot":"9","type":"t_mapping(t_address,t_mapping(t_address,t_uint256))"},{"astId":6229,"contract":"src/YieldVault.sol:YieldVault","label":"strategyPerformance","offset":0,"slot":"10","type":"t_mapping(t_address,t_struct(PerformanceData)6287_storage)"},{"astId":6233,"contract":"src/YieldVault.sol:YieldVault","label":"dailyYield","offset":0,"slot":"11","type":"t_mapping(t_uint256,t_uint256)"},{"astId":6235,"contract":"src/YieldVault.sol:YieldVault","label":"lastRebalance","offset":0,"slot":"12","type":"t_uint256"},{"astId":6239,"contract":"src/YieldVault.sol:YieldVault","label":"targetAllocations","offset":0,"slot":"13","type":"t_mapping(t_address,t_uint256)"},{"astId":6242,"contract":"src/YieldVault.sol:YieldVault","label":"managementFee","offset":0,"slot":"14","type":"t_uint256"},{"astId":6245,"contract":"src/YieldVault.sol:YieldVault","label":"performanceFee","offset":0,"slot":"15","type":"t_uint256"},{"astId":6247,"contract":"src/YieldVault.sol:YieldVault","label":"feeRecipient","offset":0,"slot":"16","type":"t_address"},{"astId":6250,"contract":"src/YieldVault.sol:YieldVault","label":"maxTotalRisk","offset":0,"slot":"17","type":"t_uint256"},{"astId":6253,"contract":"src/YieldVault.sol:YieldVault","label":"autoRebalanceEnabled","offset":0,"slot":"18","type":"t_bool"}],"types":{"t_address":{"encoding":"inplace","label":"address","numberOfBytes":"20"},"t_array(t_address)dyn_storage":{"base":"t_address","encoding":"dynamic_array","label":"address[]","numberOfBytes":"32"},"t_array(t_uint256)dyn_storage":{"base":"t_uint256","encoding":"dynamic_array","label":"uint256[]","numberOfBytes":"32"},"t_bool":{"encoding":"inplace","label":"bool","numberOfBytes":"1"},"t_bytes32":{"encoding":"inplace","label":"bytes32","numberOfBytes":"32"},"t_contract(IYieldStrategy)8169":{"encoding":"inplace","label":"contract IYieldStrategy","numberOfBytes":"20"},"t_mapping(t_address,t_bool)":{"encoding":"mapping","key":"t_address","label":"mapping(address => bool)","numberOfBytes":"32","value":"t_bool"},"t_mapping(t_address,t_mapping(t_address,t_uint256))":{"encoding":"mapping","key":"t_address","label":"mapping(address => mapping(address => uint256))","numberOfBytes":"32","value":"t_mapping(t_address,t_uint256)"},"t_mapping(t_address,t_struct(PerformanceData)6287_storage)":{"encoding":"mapping","key":"t_address","label":"mapping(address => struct YieldVault.PerformanceData)","numberOfBytes":"32","value":"t_struct(PerformanceData)6287_storage"},"t_mapping(t_address,t_struct(StrategyInfo)6272_storage)":{"encoding":"mapping","key":"t_address","label":"mapping(address => struct YieldVault.StrategyInfo)","numberOfBytes":"32","value":"t_struct(StrategyInfo)6272_storage"},"t_mapping(t_address,t_uint256)":{"encoding":"mapping","key":"t_address","label":"mapping(address => uint256)","numberOfBytes":"32","value":"t_uint256"},"t_mapping(t_bytes32,t_struct(RoleData)19_storage)":{"encoding":"mapping","key":"t_bytes32","label":"mapping(bytes32 => struct AccessControl.RoleData)","numberOfBytes":"32","value":"t_struct(RoleData)19_storage"},"t_mapping(t_uint256,t_uint256)":{"encoding":"mapping","key":"t_uint256","label":"mapping(uint256 => uint256)","numberOfBytes":"32","value":"t_uint256"},"t_string_storage":{"encoding":"bytes","label":"string","numberOfBytes":"32"},"t_struct(PerformanceData)6287_storage":{"encoding":"inplace","label":"struct YieldVault.PerformanceData","members":[{"astId":6275,"contract":"src/YieldVault.sol:YieldVault","label":"totalYieldGenerated","offset":0,"slot":"0","type":"t_uint256"},{"astId":6277,"contract":"src/YieldVault.sol:YieldVault","label":"averageAPY","offset":0,"slot":"1","type":"t_uint256"},{"astId":6279,"contract":"src/YieldVault.sol:YieldVault","label":"lastAPY","offset":0,"slot":"2","type":"t_uint256"},{"astId":6282,"contract":"src/YieldVault.sol:YieldVault","label":"apyHistory","offset":0,"slot":"3","type":"t_array(t_uint256)dyn_storage"},{"astId":6284,"contract":"src/YieldVault.sol:YieldVault","label":"lastPerformanceUpdate","offset":0,"slot":"4","type":"t_uint256"},{"astId":6286,"contract":"src/YieldVault.sol:YieldVault","label":"sharpeRatio","offset":0,"slot":"5","type":"t_uint256"}],"numberOfBytes":"192"},"t_struct(RoleData)19_storage":{"encoding":"inplace","label":"struct AccessControl.RoleData","members":[{"astId":16,"contract":"src/YieldVault.sol:YieldVault","label":"members","offset":0,"slot":"0","type":"t_mapping(t_address,t_bool)"},{"astId":18,"contract":"src/YieldVault.sol:YieldVault","label":"adminRole","offset":0,"slot":"1","type":"t_bytes32"}],"numberOfBytes":"64"},"t_struct(StrategyInfo)6272_storage":{"encoding":"inplace","label":"struct YieldVault.StrategyInfo","members":[{"astId":6257,"contract":"src/YieldVault.sol:YieldVault","label":"strategy","offset":0,"slot":"0","type":"t_contract(IYieldStrategy)8169"},{"astId":6259,"contract":"src/YieldVault.sol:YieldVault","label":"allocation","offset":0,"slot":"1","type":"t_uint256"},{"astId":6261,"contract":"src/YieldVault.sol:YieldVault","label":"targetAllocation","offset":0,"slot":"2","type":"t_uint256"},{"astId":6263,"contract":"src/YieldVault.sol:YieldVault","label":"totalDeposited","offset":0,"slot":"3","type":"t_uint256"},{"astId":6265,"contract":"src/YieldVault.sol:YieldVault","label":"lastUpdate","offset":0,"slot":"4","type":"t_uint256"},{"astId":6267,"contract":"src/YieldVault.sol:YieldVault","label":"active","offset":0,"slot":"5","type":"t_bool"},{"astId":6269,"contract":"src/YieldVault.sol:YieldVault","label":"riskScore","offset":0,"slot":"6","type":"t_uint256"},{"astId":6271,"contract":"src/YieldVault.sol:YieldVault","label":"name","offset":0,"slot":"7","type":"t_string_storage"}],"numberOfBytes":"256"},"t_uint256":{"encoding":"inplace","label":"uint256","numberOfBytes":"32"}}},"userdoc":{"kind":"user","methods":{},"notice":"Central vault for yield generation across multiple DeFi protocols","version":1}}}}