{"src/mocks/MockYieldStrategy.sol":{"MockYieldStrategy":{"abi":[{"inputs":[{"internalType":"address","name":"_asset","type":"address"}],"stateMutability":"nonpayable","type":"constructor"},{"anonymous":false,"inputs":[{"indexed":true,"internalType":"address","name":"user","type":"address"},{"indexed":false,"internalType":"uint256","name":"amount","type":"uint256"},{"indexed":false,"internalType":"uint256","name":"shares","type":"uint256"}],"name":"Deposit","type":"event"},{"anonymous":false,"inputs":[{"indexed":false,"internalType":"string","name":"parameter","type":"string"},{"indexed":false,"internalType":"uint256","name":"oldValue","type":"uint256"},{"indexed":false,"internalType":"uint256","name":"newValue","type":"uint256"}],"name":"StrategyUpdated","type":"event"},{"anonymous":false,"inputs":[{"indexed":true,"internalType":"address","name":"user","type":"address"},{"indexed":false,"internalType":"uint256","name":"amount","type":"uint256"},{"indexed":false,"internalType":"uint256","name":"shares","type":"uint256"}],"name":"Withdrawal","type":"event"},{"anonymous":false,"inputs":[{"indexed":false,"internalType":"uint256","name":"yieldAmount","type":"uint256"},{"indexed":false,"internalType":"uint256","name":"newTotalAssets","type":"uint256"}],"name":"YieldHarvested","type":"event"},{"inputs":[],"name":"asset","outputs":[{"internalType":"address","name":"","type":"address"}],"stateMutability":"view","type":"function"},{"inputs":[{"internalType":"address","name":"user","type":"address"}],"name":"balanceOf","outputs":[{"internalType":"uint256","name":"","type":"uint256"}],"stateMutability":"view","type":"function"},{"inputs":[{"internalType":"address","name":"user","type":"address"}],"name":"calculateUserYield","outputs":[{"internalType":"uint256","name":"","type":"uint256"}],"stateMutability":"view","type":"function"},{"inputs":[{"internalType":"uint256","name":"shares","type":"uint256"}],"name":"convertToAssets","outputs":[{"internalType":"uint256","name":"","type":"uint256"}],"stateMutability":"view","type":"function"},{"inputs":[{"internalType":"uint256","name":"assets","type":"uint256"}],"name":"convertToShares","outputs":[{"internalType":"uint256","name":"","type":"uint256"}],"stateMutability":"view","type":"function"},{"inputs":[{"internalType":"uint256","name":"amount","type":"uint256"}],"name":"deposit","outputs":[{"internalType":"uint256","name":"shares","type":"uint256"}],"stateMutability":"nonpayable","type":"function"},{"inputs":[{"internalType":"address","name":"user","type":"address"}],"name":"emergencyWithdraw","outputs":[{"internalType":"uint256","name":"amount","type":"uint256"}],"stateMutability":"nonpayable","type":"function"},{"inputs":[],"name":"getCurrentAPY","outputs":[{"internalType":"uint256","name":"","type":"uint256"}],"stateMutability":"view","type":"function"},{"inputs":[{"internalType":"uint256","name":"","type":"uint256"}],"name":"getPerformanceData","outputs":[{"internalType":"uint256","name":"","type":"uint256"}],"stateMutability":"view","type":"function"},{"inputs":[],"name":"getRiskScore","outputs":[{"internalType":"uint256","name":"","type":"uint256"}],"stateMutability":"pure","type":"function"},{"inputs":[],"name":"getStrategyInfo","outputs":[{"components":[{"internalType":"string","name":"name","type":"string"},{"internalType":"string","name":"description","type":"string"},{"internalType":"uint256","name":"totalAssets","type":"uint256"},{"internalType":"uint256","name":"totalShares","type":"uint256"},{"internalType":"uint256","name":"currentAPY","type":"uint256"},{"internalType":"uint256","name":"riskScore","type":"uint256"},{"internalType":"uint256","name":"lastHarvest","type":"uint256"},{"internalType":"bool","name":"active","type":"bool"}],"internalType":"struct IYieldStrategy.StrategyInfo","name":"","type":"tuple"}],"stateMutability":"view","type":"function"},{"inputs":[],"name":"getTotalYieldGenerated","outputs":[{"internalType":"uint256","name":"","type":"uint256"}],"stateMutability":"view","type":"function"},{"inputs":[],"name":"harvestYield","outputs":[{"internalType":"uint256","name":"","type":"uint256"}],"stateMutability":"nonpayable","type":"function"},{"inputs":[],"name":"isProfitable","outputs":[{"internalType":"bool","name":"","type":"bool"}],"stateMutability":"pure","type":"function"},{"inputs":[],"name":"maxCapacity","outputs":[{"internalType":"uint256","name":"","type":"uint256"}],"stateMutability":"pure","type":"function"},{"inputs":[{"internalType":"uint256","name":"apy","type":"uint256"}],"name":"setCurrentAPY","outputs":[],"stateMutability":"nonpayable","type":"function"},{"inputs":[{"internalType":"bool","name":"shouldFail","type":"bool"}],"name":"setShouldFail","outputs":[],"stateMutability":"nonpayable","type":"function"},{"inputs":[{"internalType":"uint256","name":"amount","type":"uint256"}],"name":"setUserYield","outputs":[],"stateMutability":"nonpayable","type":"function"},{"inputs":[],"name":"totalAssets","outputs":[{"internalType":"uint256","name":"","type":"uint256"}],"stateMutability":"view","type":"function"},{"inputs":[],"name":"utilizationRate","outputs":[{"internalType":"uint256","name":"","type":"uint256"}],"stateMutability":"view","type":"function"},{"inputs":[{"internalType":"uint256","name":"shares","type":"uint256"}],"name":"withdraw","outputs":[{"internalType":"uint256","name":"amount","type":"uint256"}],"stateMutability":"nonpayable","type":"function"}],"devdoc":{"details":"Mock yield strategy for testing purposes","events":{"Deposit(address,uint256,uint256)":{"details":"Emitted when funds are deposited into the strategy","params":{"amount":"The amount deposited","shares":"The number of shares minted","user":"The address that deposited funds"}},"StrategyUpdated(string,uint256,uint256)":{"details":"Emitted when strategy parameters are updated","params":{"newValue":"The new value","oldValue":"The old value","parameter":"The parameter that was updated"}},"Withdrawal(address,uint256,uint256)":{"details":"Emitted when funds are withdrawn from the strategy","params":{"amount":"The amount withdrawn","shares":"The number of shares burned","user":"The address that withdrew funds"}},"YieldHarvested(uint256,uint256)":{"details":"Emitted when yield is harvested","params":{"newTotalAssets":"The new total assets under management","yieldAmount":"The amount of yield harvested"}}},"kind":"dev","methods":{"balanceOf(address)":{"details":"Gets the user's share balance","params":{"user":"The user address"},"returns":{"_0":"The user's share balance"}},"calculateUserYield(address)":{"details":"Calculates yield generated for a specific user","params":{"user":"The user address"},"returns":{"_0":"The amount of yield generated"}},"convertToAssets(uint256)":{"details":"Converts shares to assets","params":{"shares":"The number of shares"},"returns":{"_0":"The equivalent amount of assets"}},"convertToShares(uint256)":{"details":"Converts assets to shares","params":{"assets":"The amount of assets"},"returns":{"_0":"The equivalent number of shares"}},"deposit(uint256)":{"details":"Deposits assets into the yield strategy","params":{"amount":"The amount of assets to deposit"},"returns":{"shares":"The number of shares minted to the depositor"}},"emergencyWithdraw(address)":{"details":"Emergency withdrawal of all user funds (may incur penalties)","params":{"user":"The address to withdraw funds for"},"returns":{"amount":"The amount of assets withdrawn"}},"getCurrentAPY()":{"details":"Calculates the current APY of the strategy","returns":{"_0":"The current APY in basis points"}},"getRiskScore()":{"details":"Gets the strategy's risk score","returns":{"_0":"The risk score from 1-10 (1 = lowest risk)"}},"getStrategyInfo()":{"details":"Gets comprehensive strategy information","returns":{"_0":"The strategy information struct"}},"getTotalYieldGenerated()":{"details":"Calculates the total yield generated by the strategy","returns":{"_0":"The total yield generated"}},"harvestYield()":{"details":"Harvests yield from the underlying protocol","returns":{"_0":"The amount of yield harvested"}},"isProfitable()":{"details":"Checks if the strategy is profitable","returns":{"_0":"Whether the strategy is currently profitable"}},"maxCapacity()":{"details":"Gets the maximum capacity of the strategy","returns":{"_0":"The maximum amount of assets the strategy can handle"}},"totalAssets()":{"details":"Gets the total assets under management","returns":{"_0":"The total assets managed by this strategy"}},"utilizationRate()":{"details":"Gets the current utilization rate","returns":{"_0":"The utilization rate as a percentage (basis points)"}},"withdraw(uint256)":{"details":"Withdraws assets from the yield strategy","params":{"shares":"The number of shares to burn"},"returns":{"amount":"The amount of assets withdrawn"}}},"stateVariables":{"asset":{"details":"Gets the underlying asset address","return":"The address of the underlying asset (e.g., USDC)","returns":{"_0":"The address of the underlying asset (e.g., USDC)"}}},"title":"MockYieldStrategy","version":1},"evm":{"bytecode":{"linkReferences":{},"object":"60a03461008f57601f610cfe38819003918201601f19168301916001600160401b038311848410176100945780849260209460405283398101031261008f57516001600160a01b038116810361008f5761019060035560ff1960045416600455608052604051610c5390816100ab82396080518181816101e30152818161067f015281816107380152610b800152f35b600080fd5b634e487b7160e01b600052604160045260246000fdfe608060408181526004918236101561001657600080fd5b600092833560e01c91826301e1d114146107f35750816307a2d13a146107d35781632b35f739146106ae5781632e1a7d4d146106ca5781633612ddda146106ae57816338d52e0f1461066a57816339a243331461065057816339c1a8e8146106315781633fd188931461061157816359b6a0c9146105f45781636c321c8a146105325781636f7c99d2146104bc5781636ff1c9bc1461048b57816370a08231146104515781638b66268c146104375781639613092d146102e6578163962ca496146102c7578163a5aa5c1214610295578163b6b55f2514610186578163c6e6f5921461015c575063e8d991d11461010c57600080fd5b3461015857816003193601126101585790817f3fb12fb590bb295327f3bfc48158ada0b1147f8f823e0c7a09b98b301d186774602093600254935481519085825286820152a151908152f35b5080fd5b828434610183576020366003190112610183575061017c60209235610be2565b9051908152f35b80fd5b83833461015857602036600319011261015857823581516323b872dd60e01b60208201523360248201523060448201528160648201526064815260a0810181811067ffffffffffffffff82111761028257835260209450610210907f00000000000000000000000000000000000000000000000000000000000000006001600160a01b03166108e1565b61021981610be2565b923381526005855282812061022f85825461084d565b905561023d8460015461084d565b60015561024b82825461084d565b9055815190815282848201527f90890809c654f11d6e72a28fa60149770a0d11ec6c92319d6ceb2bb0a4ea1a15823392a251908152f35b634e487b7160e01b855260418652602485fd5b8390346101585760203660031901126101585780358015158091036102c35760ff8019835416911617905580f35b8280fd5b5050346101585781600319360112610158576020906003549051908152f35b50503461015857816003193601126101585780516103fa9261030782610870565b606082528060e060209360608582015282868201528260608201528260808201528260a08201528260c0820152015254906001549260035481519461034b86610870565b8251610356816108a3565b600d81526c4d6f636b20537472617465677960981b85820152865282519161037d836108a3565b601f83527f4d6f636b207969656c6420737472617465677920666f722074657374696e670085840152848701928352838701958652606087019182526080870190815260a08701916001835261040d60c089019442865260e08a01966001885280519b8c9b8a8d52518c6101009b8c9101526101208d019061080d565b915190601f198c840301908c015261080d565b965160608901525160808801525160a08701525160c08601525160e0850152511515908301520390f35b839034610158576020366003190112610158573560025580f35b9050346102c35760203660031901126102c357356001600160a01b038116908190036102c357828291602094526005845220549051908152f35b9050346102c35760203660031901126102c35735916001600160a01b0383168303610183575061017c602092610b21565b905082346101835760203660031901126101835781356001600160a01b03811603610183575060ff8154166104f8576020826002549051908152f35b6020606492519162461bcd60e51b835282015260156024820152744d6f636b207374726174656779206661696c75726560581b6044820152fd5b8284346101835780600319360112610183578054928315806105e8576127108086029586041417156105d5576020835180926359b6a0c960e01b825281305afa9182156105ca578092610594575b505061017c90602093610bc2565b51908152f35b9091506020823d82116105c2575b816105af602093836108bf565b810103126101835750518261017c610580565b3d91506105a2565b8351903d90823e3d90fd5b634e487b7160e01b825260119052602490fd5b5050602092509061058e565b505034610158578160031936011261015857516000198152602090f35b505034610158576020366003190112610158576020906003549051908152f35b5050346101585781600319360112610158576020906002549051908152f35b839034610158576020366003190112610158573560035580f35b505034610158578160031936011261015857517f00000000000000000000000000000000000000000000000000000000000000006001600160a01b03168152602090f35b5050346101585781600319360112610158576020905160018152f35b83833461015857602092836003193601126102c3578035903384526005855281838520541061079a57506106fd81610c04565b9233815260058552828120610713838254610ac2565b905561072182600154610ac2565b60015561072f848254610ac2565b905561076583337f00000000000000000000000000000000000000000000000000000000000000006001600160a01b0316610acf565b815190838252848201527fdf273cb619d95419a9cd0ec88123a0538c85064229baa6363788f743fff90deb823392a251908152f35b825162461bcd60e51b81529081018590526013602482015272496e73756666696369656e742073686172657360681b6044820152606490fd5b828434610183576020366003190112610183575061017c60209235610c04565b849034610158578160031936011261015857602091548152f35b919082519283825260005b848110610839575050826000602080949584010152601f8019910116010190565b602081830181015184830182015201610818565b9190820180921161085a57565b634e487b7160e01b600052601160045260246000fd5b610100810190811067ffffffffffffffff82111761088d57604052565b634e487b7160e01b600052604160045260246000fd5b6040810190811067ffffffffffffffff82111761088d57604052565b90601f8019910116810190811067ffffffffffffffff82111761088d57604052565b60018060a01b0316906040516108f6816108a3565b6020928382527f5361666545524332303a206c6f772d6c6576656c2063616c6c206661696c6564848301526000808486829651910182855af13d15610a1b573d9167ffffffffffffffff8311610a0757906109719392916040519261096488601f19601f84011601856108bf565b83523d868885013e610a25565b8051918215918483156109e3575b50505090501561098c5750565b6084906040519062461bcd60e51b82526004820152602a60248201527f5361666545524332303a204552433230206f7065726174696f6e20646964206e6044820152691bdd081cdd58d8d9595960b21b6064820152fd5b9193818094500103126101585782015190811515820361018357508038808461097f565b634e487b7160e01b85526041600452602485fd5b9061097192916060915b91929015610a875750815115610a39575090565b3b15610a425790565b60405162461bcd60e51b815260206004820152601d60248201527f416464726573733a2063616c6c20746f206e6f6e2d636f6e74726163740000006044820152606490fd5b825190915015610a9a5750805190602001fd5b60405162461bcd60e51b815260206004820152908190610abe90602483019061080d565b0390fd5b9190820391821161085a57565b60405163a9059cbb60e01b60208201526001600160a01b039092166024830152604480830193909352918152608081019167ffffffffffffffff83118284101761088d57610b1f926040526108e1565b565b6001600160a01b03818116600081815260056020526040812054909390928315610ba8578394610b6e610b56610ba596610c04565b96879583526005602052826040812055600154610ac2565b600155610b7c848254610ac2565b90557f000000000000000000000000000000000000000000000000000000000000000016610acf565b90565b5050505090565b8181029291811591840414171561085a57565b8115610bcc570490565b634e487b7160e01b600052601260045260246000fd5b6000548015610c0057610bfb610ba59260015490610baf565b610bc2565b5090565b6001548015610c0057610bfb610ba59260005490610baf56fea264697066735822122012d25b7e44b6ebd2e86131d5a15b35f4cfeb207dcfc24e11a19c54a5f8f16ac064736f6c63430008140033","opcodes":"PUSH1 0xA0 CALLVALUE PUSH2 0x8F JUMPI PUSH1 0x1F PUSH2 0xCFE CODESIZE DUP2 SWAP1 SUB SWAP2 DUP3 ADD PUSH1 0x1F NOT AND DUP4 ADD SWAP2 PUSH1 0x1 PUSH1 0x1 PUSH1 0x40 SHL SUB DUP4 GT DUP5 DUP5 LT OR PUSH2 0x94 JUMPI DUP1 DUP5 SWAP3 PUSH1 0x20 SWAP5 PUSH1 0x40 MSTORE DUP4 CODECOPY DUP2 ADD SUB SLT PUSH2 0x8F JUMPI MLOAD PUSH1 0x1 PUSH1 0x1 PUSH1 0xA0 SHL SUB DUP2 AND DUP2 SUB PUSH2 0x8F JUMPI PUSH2 0x190 PUSH1 0x3 SSTORE PUSH1 0xFF NOT PUSH1 0x4 SLOAD AND PUSH1 0x4 SSTORE PUSH1 0x80 MSTORE PUSH1 0x40 MLOAD PUSH2 0xC53 SWAP1 DUP2 PUSH2 0xAB DUP3 CODECOPY PUSH1 0x80 MLOAD DUP2 DUP2 DUP2 PUSH2 0x1E3 ADD MSTORE DUP2 DUP2 PUSH2 0x67F ADD MSTORE DUP2 DUP2 PUSH2 0x738 ADD MSTORE PUSH2 0xB80 ADD MSTORE RETURN JUMPDEST PUSH1 0x0 DUP1 REVERT JUMPDEST PUSH4 0x4E487B71 PUSH1 0xE0 SHL PUSH1 0x0 MSTORE PUSH1 0x41 PUSH1 0x4 MSTORE PUSH1 0x24 PUSH1 0x0 REVERT INVALID PUSH1 0x80 PUSH1 0x40 DUP2 DUP2 MSTORE PUSH1 0x4 SWAP2 DUP3 CALLDATASIZE LT ISZERO PUSH2 0x16 JUMPI PUSH1 0x0 DUP1 REVERT JUMPDEST PUSH1 0x0 SWAP3 DUP4 CALLDATALOAD PUSH1 0xE0 SHR SWAP2 DUP3 PUSH4 0x1E1D114 EQ PUSH2 0x7F3 JUMPI POP DUP2 PUSH4 0x7A2D13A EQ PUSH2 0x7D3 JUMPI DUP2 PUSH4 0x2B35F739 EQ PUSH2 0x6AE JUMPI DUP2 PUSH4 0x2E1A7D4D EQ PUSH2 0x6CA JUMPI DUP2 PUSH4 0x3612DDDA EQ PUSH2 0x6AE JUMPI DUP2 PUSH4 0x38D52E0F EQ PUSH2 0x66A JUMPI DUP2 PUSH4 0x39A24333 EQ PUSH2 0x650 JUMPI DUP2 PUSH4 0x39C1A8E8 EQ PUSH2 0x631 JUMPI DUP2 PUSH4 0x3FD18893 EQ PUSH2 0x611 JUMPI DUP2 PUSH4 0x59B6A0C9 EQ PUSH2 0x5F4 JUMPI DUP2 PUSH4 0x6C321C8A EQ PUSH2 0x532 JUMPI DUP2 PUSH4 0x6F7C99D2 EQ PUSH2 0x4BC JUMPI DUP2 PUSH4 0x6FF1C9BC EQ PUSH2 0x48B JUMPI DUP2 PUSH4 0x70A08231 EQ PUSH2 0x451 JUMPI DUP2 PUSH4 0x8B66268C EQ PUSH2 0x437 JUMPI DUP2 PUSH4 0x9613092D EQ PUSH2 0x2E6 JUMPI DUP2 PUSH4 0x962CA496 EQ PUSH2 0x2C7 JUMPI DUP2 PUSH4 0xA5AA5C12 EQ PUSH2 0x295 JUMPI DUP2 PUSH4 0xB6B55F25 EQ PUSH2 0x186 JUMPI DUP2 PUSH4 0xC6E6F592 EQ PUSH2 0x15C JUMPI POP PUSH4 0xE8D991D1 EQ PUSH2 0x10C JUMPI PUSH1 0x0 DUP1 REVERT JUMPDEST CALLVALUE PUSH2 0x158 JUMPI DUP2 PUSH1 0x3 NOT CALLDATASIZE ADD SLT PUSH2 0x158 JUMPI SWAP1 DUP2 PUSH32 0x3FB12FB590BB295327F3BFC48158ADA0B1147F8F823E0C7A09B98B301D186774 PUSH1 0x20 SWAP4 PUSH1 0x2 SLOAD SWAP4 SLOAD DUP2 MLOAD SWAP1 DUP6 DUP3 MSTORE DUP7 DUP3 ADD MSTORE LOG1 MLOAD SWAP1 DUP2 MSTORE RETURN JUMPDEST POP DUP1 REVERT JUMPDEST DUP3 DUP5 CALLVALUE PUSH2 0x183 JUMPI PUSH1 0x20 CALLDATASIZE PUSH1 0x3 NOT ADD SLT PUSH2 0x183 JUMPI POP PUSH2 0x17C PUSH1 0x20 SWAP3 CALLDATALOAD PUSH2 0xBE2 JUMP JUMPDEST SWAP1 MLOAD SWAP1 DUP2 MSTORE RETURN JUMPDEST DUP1 REVERT JUMPDEST DUP4 DUP4 CALLVALUE PUSH2 0x158 JUMPI PUSH1 0x20 CALLDATASIZE PUSH1 0x3 NOT ADD SLT PUSH2 0x158 JUMPI DUP3 CALLDATALOAD DUP2 MLOAD PUSH4 0x23B872DD PUSH1 0xE0 SHL PUSH1 0x20 DUP3 ADD MSTORE CALLER PUSH1 0x24 DUP3 ADD MSTORE ADDRESS PUSH1 0x44 DUP3 ADD MSTORE DUP2 PUSH1 0x64 DUP3 ADD MSTORE PUSH1 0x64 DUP2 MSTORE PUSH1 0xA0 DUP2 ADD DUP2 DUP2 LT PUSH8 0xFFFFFFFFFFFFFFFF DUP3 GT OR PUSH2 0x282 JUMPI DUP4 MSTORE PUSH1 0x20 SWAP5 POP PUSH2 0x210 SWAP1 PUSH32 0x0 PUSH1 0x1 PUSH1 0x1 PUSH1 0xA0 SHL SUB AND PUSH2 0x8E1 JUMP JUMPDEST PUSH2 0x219 DUP2 PUSH2 0xBE2 JUMP JUMPDEST SWAP3 CALLER DUP2 MSTORE PUSH1 0x5 DUP6 MSTORE DUP3 DUP2 KECCAK256 PUSH2 0x22F DUP6 DUP3 SLOAD PUSH2 0x84D JUMP JUMPDEST SWAP1 SSTORE PUSH2 0x23D DUP5 PUSH1 0x1 SLOAD PUSH2 0x84D JUMP JUMPDEST PUSH1 0x1 SSTORE PUSH2 0x24B DUP3 DUP3 SLOAD PUSH2 0x84D JUMP JUMPDEST SWAP1 SSTORE DUP2 MLOAD SWAP1 DUP2 MSTORE DUP3 DUP5 DUP3 ADD MSTORE PUSH32 0x90890809C654F11D6E72A28FA60149770A0D11EC6C92319D6CEB2BB0A4EA1A15 DUP3 CALLER SWAP3 LOG2 MLOAD SWAP1 DUP2 MSTORE RETURN JUMPDEST PUSH4 0x4E487B71 PUSH1 0xE0 SHL DUP6 MSTORE PUSH1 0x41 DUP7 MSTORE PUSH1 0x24 DUP6 REVERT JUMPDEST DUP4 SWAP1 CALLVALUE PUSH2 0x158 JUMPI PUSH1 0x20 CALLDATASIZE PUSH1 0x3 NOT ADD SLT PUSH2 0x158 JUMPI DUP1 CALLDATALOAD DUP1 ISZERO ISZERO DUP1 SWAP2 SUB PUSH2 0x2C3 JUMPI PUSH1 0xFF DUP1 NOT DUP4 SLOAD AND SWAP2 AND OR SWAP1 SSTORE DUP1 RETURN JUMPDEST DUP3 DUP1 REVERT JUMPDEST POP POP CALLVALUE PUSH2 0x158 JUMPI DUP2 PUSH1 0x3 NOT CALLDATASIZE ADD SLT PUSH2 0x158 JUMPI PUSH1 0x20 SWAP1 PUSH1 0x3 SLOAD SWAP1 MLOAD SWAP1 DUP2 MSTORE RETURN JUMPDEST POP POP CALLVALUE PUSH2 0x158 JUMPI DUP2 PUSH1 0x3 NOT CALLDATASIZE ADD SLT PUSH2 0x158 JUMPI DUP1 MLOAD PUSH2 0x3FA SWAP3 PUSH2 0x307 DUP3 PUSH2 0x870 JUMP JUMPDEST PUSH1 0x60 DUP3 MSTORE DUP1 PUSH1 0xE0 PUSH1 0x20 SWAP4 PUSH1 0x60 DUP6 DUP3 ADD MSTORE DUP3 DUP7 DUP3 ADD MSTORE DUP3 PUSH1 0x60 DUP3 ADD MSTORE DUP3 PUSH1 0x80 DUP3 ADD MSTORE DUP3 PUSH1 0xA0 DUP3 ADD MSTORE DUP3 PUSH1 0xC0 DUP3 ADD MSTORE ADD MSTORE SLOAD SWAP1 PUSH1 0x1 SLOAD SWAP3 PUSH1 0x3 SLOAD DUP2 MLOAD SWAP5 PUSH2 0x34B DUP7 PUSH2 0x870 JUMP JUMPDEST DUP3 MLOAD PUSH2 0x356 DUP2 PUSH2 0x8A3 JUMP JUMPDEST PUSH1 0xD DUP2 MSTORE PUSH13 0x4D6F636B205374726174656779 PUSH1 0x98 SHL DUP6 DUP3 ADD MSTORE DUP7 MSTORE DUP3 MLOAD SWAP2 PUSH2 0x37D DUP4 PUSH2 0x8A3 JUMP JUMPDEST PUSH1 0x1F DUP4 MSTORE PUSH32 0x4D6F636B207969656C6420737472617465677920666F722074657374696E6700 DUP6 DUP5 ADD MSTORE DUP5 DUP8 ADD SWAP3 DUP4 MSTORE DUP4 DUP8 ADD SWAP6 DUP7 MSTORE PUSH1 0x60 DUP8 ADD SWAP2 DUP3 MSTORE PUSH1 0x80 DUP8 ADD SWAP1 DUP2 MSTORE PUSH1 0xA0 DUP8 ADD SWAP2 PUSH1 0x1 DUP4 MSTORE PUSH2 0x40D PUSH1 0xC0 DUP10 ADD SWAP5 TIMESTAMP DUP7 MSTORE PUSH1 0xE0 DUP11 ADD SWAP7 PUSH1 0x1 DUP9 MSTORE DUP1 MLOAD SWAP12 DUP13 SWAP12 DUP11 DUP14 MSTORE MLOAD DUP13 PUSH2 0x100 SWAP12 DUP13 SWAP2 ADD MSTORE PUSH2 0x120 DUP14 ADD SWAP1 PUSH2 0x80D JUMP JUMPDEST SWAP2 MLOAD SWAP1 PUSH1 0x1F NOT DUP13 DUP5 SUB ADD SWAP1 DUP13 ADD MSTORE PUSH2 0x80D JUMP JUMPDEST SWAP7 MLOAD PUSH1 0x60 DUP10 ADD MSTORE MLOAD PUSH1 0x80 DUP9 ADD MSTORE MLOAD PUSH1 0xA0 DUP8 ADD MSTORE MLOAD PUSH1 0xC0 DUP7 ADD MSTORE MLOAD PUSH1 0xE0 DUP6 ADD MSTORE MLOAD ISZERO ISZERO SWAP1 DUP4 ADD MSTORE SUB SWAP1 RETURN JUMPDEST DUP4 SWAP1 CALLVALUE PUSH2 0x158 JUMPI PUSH1 0x20 CALLDATASIZE PUSH1 0x3 NOT ADD SLT PUSH2 0x158 JUMPI CALLDATALOAD PUSH1 0x2 SSTORE DUP1 RETURN JUMPDEST SWAP1 POP CALLVALUE PUSH2 0x2C3 JUMPI PUSH1 0x20 CALLDATASIZE PUSH1 0x3 NOT ADD SLT PUSH2 0x2C3 JUMPI CALLDATALOAD PUSH1 0x1 PUSH1 0x1 PUSH1 0xA0 SHL SUB DUP2 AND SWAP1 DUP2 SWAP1 SUB PUSH2 0x2C3 JUMPI DUP3 DUP3 SWAP2 PUSH1 0x20 SWAP5 MSTORE PUSH1 0x5 DUP5 MSTORE KECCAK256 SLOAD SWAP1 MLOAD SWAP1 DUP2 MSTORE RETURN JUMPDEST SWAP1 POP CALLVALUE PUSH2 0x2C3 JUMPI PUSH1 0x20 CALLDATASIZE PUSH1 0x3 NOT ADD SLT PUSH2 0x2C3 JUMPI CALLDATALOAD SWAP2 PUSH1 0x1 PUSH1 0x1 PUSH1 0xA0 SHL SUB DUP4 AND DUP4 SUB PUSH2 0x183 JUMPI POP PUSH2 0x17C PUSH1 0x20 SWAP3 PUSH2 0xB21 JUMP JUMPDEST SWAP1 POP DUP3 CALLVALUE PUSH2 0x183 JUMPI PUSH1 0x20 CALLDATASIZE PUSH1 0x3 NOT ADD SLT PUSH2 0x183 JUMPI DUP2 CALLDATALOAD PUSH1 0x1 PUSH1 0x1 PUSH1 0xA0 SHL SUB DUP2 AND SUB PUSH2 0x183 JUMPI POP PUSH1 0xFF DUP2 SLOAD AND PUSH2 0x4F8 JUMPI PUSH1 0x20 DUP3 PUSH1 0x2 SLOAD SWAP1 MLOAD SWAP1 DUP2 MSTORE RETURN JUMPDEST PUSH1 0x20 PUSH1 0x64 SWAP3 MLOAD SWAP2 PUSH3 0x461BCD PUSH1 0xE5 SHL DUP4 MSTORE DUP3 ADD MSTORE PUSH1 0x15 PUSH1 0x24 DUP3 ADD MSTORE PUSH21 0x4D6F636B207374726174656779206661696C757265 PUSH1 0x58 SHL PUSH1 0x44 DUP3 ADD MSTORE REVERT JUMPDEST DUP3 DUP5 CALLVALUE PUSH2 0x183 JUMPI DUP1 PUSH1 0x3 NOT CALLDATASIZE ADD SLT PUSH2 0x183 JUMPI DUP1 SLOAD SWAP3 DUP4 ISZERO DUP1 PUSH2 0x5E8 JUMPI PUSH2 0x2710 DUP1 DUP7 MUL SWAP6 DUP7 DIV EQ OR ISZERO PUSH2 0x5D5 JUMPI PUSH1 0x20 DUP4 MLOAD DUP1 SWAP3 PUSH4 0x59B6A0C9 PUSH1 0xE0 SHL DUP3 MSTORE DUP2 ADDRESS GAS STATICCALL SWAP2 DUP3 ISZERO PUSH2 0x5CA JUMPI DUP1 SWAP3 PUSH2 0x594 JUMPI JUMPDEST POP POP PUSH2 0x17C SWAP1 PUSH1 0x20 SWAP4 PUSH2 0xBC2 JUMP JUMPDEST MLOAD SWAP1 DUP2 MSTORE RETURN JUMPDEST SWAP1 SWAP2 POP PUSH1 0x20 DUP3 RETURNDATASIZE DUP3 GT PUSH2 0x5C2 JUMPI JUMPDEST DUP2 PUSH2 0x5AF PUSH1 0x20 SWAP4 DUP4 PUSH2 0x8BF JUMP JUMPDEST DUP2 ADD SUB SLT PUSH2 0x183 JUMPI POP MLOAD DUP3 PUSH2 0x17C PUSH2 0x580 JUMP JUMPDEST RETURNDATASIZE SWAP2 POP PUSH2 0x5A2 JUMP JUMPDEST DUP4 MLOAD SWAP1 RETURNDATASIZE SWAP1 DUP3 RETURNDATACOPY RETURNDATASIZE SWAP1 REVERT JUMPDEST PUSH4 0x4E487B71 PUSH1 0xE0 SHL DUP3 MSTORE PUSH1 0x11 SWAP1 MSTORE PUSH1 0x24 SWAP1 REVERT JUMPDEST POP POP PUSH1 0x20 SWAP3 POP SWAP1 PUSH2 0x58E JUMP JUMPDEST POP POP CALLVALUE PUSH2 0x158 JUMPI DUP2 PUSH1 0x3 NOT CALLDATASIZE ADD SLT PUSH2 0x158 JUMPI MLOAD PUSH1 0x0 NOT DUP2 MSTORE PUSH1 0x20 SWAP1 RETURN JUMPDEST POP POP CALLVALUE PUSH2 0x158 JUMPI PUSH1 0x20 CALLDATASIZE PUSH1 0x3 NOT ADD SLT PUSH2 0x158 JUMPI PUSH1 0x20 SWAP1 PUSH1 0x3 SLOAD SWAP1 MLOAD SWAP1 DUP2 MSTORE RETURN JUMPDEST POP POP CALLVALUE PUSH2 0x158 JUMPI DUP2 PUSH1 0x3 NOT CALLDATASIZE ADD SLT PUSH2 0x158 JUMPI PUSH1 0x20 SWAP1 PUSH1 0x2 SLOAD SWAP1 MLOAD SWAP1 DUP2 MSTORE RETURN JUMPDEST DUP4 SWAP1 CALLVALUE PUSH2 0x158 JUMPI PUSH1 0x20 CALLDATASIZE PUSH1 0x3 NOT ADD SLT PUSH2 0x158 JUMPI CALLDATALOAD PUSH1 0x3 SSTORE DUP1 RETURN JUMPDEST POP POP CALLVALUE PUSH2 0x158 JUMPI DUP2 PUSH1 0x3 NOT CALLDATASIZE ADD SLT PUSH2 0x158 JUMPI MLOAD PUSH32 0x0 PUSH1 0x1 PUSH1 0x1 PUSH1 0xA0 SHL SUB AND DUP2 MSTORE PUSH1 0x20 SWAP1 RETURN JUMPDEST POP POP CALLVALUE PUSH2 0x158 JUMPI DUP2 PUSH1 0x3 NOT CALLDATASIZE ADD SLT PUSH2 0x158 JUMPI PUSH1 0x20 SWAP1 MLOAD PUSH1 0x1 DUP2 MSTORE RETURN JUMPDEST DUP4 DUP4 CALLVALUE PUSH2 0x158 JUMPI PUSH1 0x20 SWAP3 DUP4 PUSH1 0x3 NOT CALLDATASIZE ADD SLT PUSH2 0x2C3 JUMPI DUP1 CALLDATALOAD SWAP1 CALLER DUP5 MSTORE PUSH1 0x5 DUP6 MSTORE DUP2 DUP4 DUP6 KECCAK256 SLOAD LT PUSH2 0x79A JUMPI POP PUSH2 0x6FD DUP2 PUSH2 0xC04 JUMP JUMPDEST SWAP3 CALLER DUP2 MSTORE PUSH1 0x5 DUP6 MSTORE DUP3 DUP2 KECCAK256 PUSH2 0x713 DUP4 DUP3 SLOAD PUSH2 0xAC2 JUMP JUMPDEST SWAP1 SSTORE PUSH2 0x721 DUP3 PUSH1 0x1 SLOAD PUSH2 0xAC2 JUMP JUMPDEST PUSH1 0x1 SSTORE PUSH2 0x72F DUP5 DUP3 SLOAD PUSH2 0xAC2 JUMP JUMPDEST SWAP1 SSTORE PUSH2 0x765 DUP4 CALLER PUSH32 0x0 PUSH1 0x1 PUSH1 0x1 PUSH1 0xA0 SHL SUB AND PUSH2 0xACF JUMP JUMPDEST DUP2 MLOAD SWAP1 DUP4 DUP3 MSTORE DUP5 DUP3 ADD MSTORE PUSH32 0xDF273CB619D95419A9CD0EC88123A0538C85064229BAA6363788F743FFF90DEB DUP3 CALLER SWAP3 LOG2 MLOAD SWAP1 DUP2 MSTORE RETURN JUMPDEST DUP3 MLOAD PUSH3 0x461BCD PUSH1 0xE5 SHL DUP2 MSTORE SWAP1 DUP2 ADD DUP6 SWAP1 MSTORE PUSH1 0x13 PUSH1 0x24 DUP3 ADD MSTORE PUSH19 0x496E73756666696369656E7420736861726573 PUSH1 0x68 SHL PUSH1 0x44 DUP3 ADD MSTORE PUSH1 0x64 SWAP1 REVERT JUMPDEST DUP3 DUP5 CALLVALUE PUSH2 0x183 JUMPI PUSH1 0x20 CALLDATASIZE PUSH1 0x3 NOT ADD SLT PUSH2 0x183 JUMPI POP PUSH2 0x17C PUSH1 0x20 SWAP3 CALLDATALOAD PUSH2 0xC04 JUMP JUMPDEST DUP5 SWAP1 CALLVALUE PUSH2 0x158 JUMPI DUP2 PUSH1 0x3 NOT CALLDATASIZE ADD SLT PUSH2 0x158 JUMPI PUSH1 0x20 SWAP2 SLOAD DUP2 MSTORE RETURN JUMPDEST SWAP2 SWAP1 DUP3 MLOAD SWAP3 DUP4 DUP3 MSTORE PUSH1 0x0 JUMPDEST DUP5 DUP2 LT PUSH2 0x839 JUMPI POP POP DUP3 PUSH1 0x0 PUSH1 0x20 DUP1 SWAP5 SWAP6 DUP5 ADD ADD MSTORE PUSH1 0x1F DUP1 NOT SWAP2 ADD AND ADD ADD SWAP1 JUMP JUMPDEST PUSH1 0x20 DUP2 DUP4 ADD DUP2 ADD MLOAD DUP5 DUP4 ADD DUP3 ADD MSTORE ADD PUSH2 0x818 JUMP JUMPDEST SWAP2 SWAP1 DUP3 ADD DUP1 SWAP3 GT PUSH2 0x85A JUMPI JUMP JUMPDEST PUSH4 0x4E487B71 PUSH1 0xE0 SHL PUSH1 0x0 MSTORE PUSH1 0x11 PUSH1 0x4 MSTORE PUSH1 0x24 PUSH1 0x0 REVERT JUMPDEST PUSH2 0x100 DUP2 ADD SWAP1 DUP2 LT PUSH8 0xFFFFFFFFFFFFFFFF DUP3 GT OR PUSH2 0x88D JUMPI PUSH1 0x40 MSTORE JUMP JUMPDEST PUSH4 0x4E487B71 PUSH1 0xE0 SHL PUSH1 0x0 MSTORE PUSH1 0x41 PUSH1 0x4 MSTORE PUSH1 0x24 PUSH1 0x0 REVERT JUMPDEST PUSH1 0x40 DUP2 ADD SWAP1 DUP2 LT PUSH8 0xFFFFFFFFFFFFFFFF DUP3 GT OR PUSH2 0x88D JUMPI PUSH1 0x40 MSTORE JUMP JUMPDEST SWAP1 PUSH1 0x1F DUP1 NOT SWAP2 ADD AND DUP2 ADD SWAP1 DUP2 LT PUSH8 0xFFFFFFFFFFFFFFFF DUP3 GT OR PUSH2 0x88D JUMPI PUSH1 0x40 MSTORE JUMP JUMPDEST PUSH1 0x1 DUP1 PUSH1 0xA0 SHL SUB AND SWAP1 PUSH1 0x40 MLOAD PUSH2 0x8F6 DUP2 PUSH2 0x8A3 JUMP JUMPDEST PUSH1 0x20 SWAP3 DUP4 DUP3 MSTORE PUSH32 0x5361666545524332303A206C6F772D6C6576656C2063616C6C206661696C6564 DUP5 DUP4 ADD MSTORE PUSH1 0x0 DUP1 DUP5 DUP7 DUP3 SWAP7 MLOAD SWAP2 ADD DUP3 DUP6 GAS CALL RETURNDATASIZE ISZERO PUSH2 0xA1B JUMPI RETURNDATASIZE SWAP2 PUSH8 0xFFFFFFFFFFFFFFFF DUP4 GT PUSH2 0xA07 JUMPI SWAP1 PUSH2 0x971 SWAP4 SWAP3 SWAP2 PUSH1 0x40 MLOAD SWAP3 PUSH2 0x964 DUP9 PUSH1 0x1F NOT PUSH1 0x1F DUP5 ADD AND ADD DUP6 PUSH2 0x8BF JUMP JUMPDEST DUP4 MSTORE RETURNDATASIZE DUP7 DUP9 DUP6 ADD RETURNDATACOPY PUSH2 0xA25 JUMP JUMPDEST DUP1 MLOAD SWAP2 DUP3 ISZERO SWAP2 DUP5 DUP4 ISZERO PUSH2 0x9E3 JUMPI JUMPDEST POP POP POP SWAP1 POP ISZERO PUSH2 0x98C JUMPI POP JUMP JUMPDEST PUSH1 0x84 SWAP1 PUSH1 0x40 MLOAD SWAP1 PUSH3 0x461BCD PUSH1 0xE5 SHL DUP3 MSTORE PUSH1 0x4 DUP3 ADD MSTORE PUSH1 0x2A PUSH1 0x24 DUP3 ADD MSTORE PUSH32 0x5361666545524332303A204552433230206F7065726174696F6E20646964206E PUSH1 0x44 DUP3 ADD MSTORE PUSH10 0x1BDD081CDD58D8D95959 PUSH1 0xB2 SHL PUSH1 0x64 DUP3 ADD MSTORE REVERT JUMPDEST SWAP2 SWAP4 DUP2 DUP1 SWAP5 POP ADD SUB SLT PUSH2 0x158 JUMPI DUP3 ADD MLOAD SWAP1 DUP2 ISZERO ISZERO DUP3 SUB PUSH2 0x183 JUMPI POP DUP1 CODESIZE DUP1 DUP5 PUSH2 0x97F JUMP JUMPDEST PUSH4 0x4E487B71 PUSH1 0xE0 SHL DUP6 MSTORE PUSH1 0x41 PUSH1 0x4 MSTORE PUSH1 0x24 DUP6 REVERT JUMPDEST SWAP1 PUSH2 0x971 SWAP3 SWAP2 PUSH1 0x60 SWAP2 JUMPDEST SWAP2 SWAP3 SWAP1 ISZERO PUSH2 0xA87 JUMPI POP DUP2 MLOAD ISZERO PUSH2 0xA39 JUMPI POP SWAP1 JUMP JUMPDEST EXTCODESIZE ISZERO PUSH2 0xA42 JUMPI SWAP1 JUMP JUMPDEST PUSH1 0x40 MLOAD PUSH3 0x461BCD PUSH1 0xE5 SHL DUP2 MSTORE PUSH1 0x20 PUSH1 0x4 DUP3 ADD MSTORE PUSH1 0x1D PUSH1 0x24 DUP3 ADD MSTORE PUSH32 0x416464726573733A2063616C6C20746F206E6F6E2D636F6E7472616374000000 PUSH1 0x44 DUP3 ADD MSTORE PUSH1 0x64 SWAP1 REVERT JUMPDEST DUP3 MLOAD SWAP1 SWAP2 POP ISZERO PUSH2 0xA9A JUMPI POP DUP1 MLOAD SWAP1 PUSH1 0x20 ADD REVERT JUMPDEST PUSH1 0x40 MLOAD PUSH3 0x461BCD PUSH1 0xE5 SHL DUP2 MSTORE PUSH1 0x20 PUSH1 0x4 DUP3 ADD MSTORE SWAP1 DUP2 SWAP1 PUSH2 0xABE SWAP1 PUSH1 0x24 DUP4 ADD SWAP1 PUSH2 0x80D JUMP JUMPDEST SUB SWAP1 REVERT JUMPDEST SWAP2 SWAP1 DUP3 SUB SWAP2 DUP3 GT PUSH2 0x85A JUMPI JUMP JUMPDEST PUSH1 0x40 MLOAD PUSH4 0xA9059CBB PUSH1 0xE0 SHL PUSH1 0x20 DUP3 ADD MSTORE PUSH1 0x1 PUSH1 0x1 PUSH1 0xA0 SHL SUB SWAP1 SWAP3 AND PUSH1 0x24 DUP4 ADD MSTORE PUSH1 0x44 DUP1 DUP4 ADD SWAP4 SWAP1 SWAP4 MSTORE SWAP2 DUP2 MSTORE PUSH1 0x80 DUP2 ADD SWAP2 PUSH8 0xFFFFFFFFFFFFFFFF DUP4 GT DUP3 DUP5 LT OR PUSH2 0x88D JUMPI PUSH2 0xB1F SWAP3 PUSH1 0x40 MSTORE PUSH2 0x8E1 JUMP JUMPDEST JUMP JUMPDEST PUSH1 0x1 PUSH1 0x1 PUSH1 0xA0 SHL SUB DUP2 DUP2 AND PUSH1 0x0 DUP2 DUP2 MSTORE PUSH1 0x5 PUSH1 0x20 MSTORE PUSH1 0x40 DUP2 KECCAK256 SLOAD SWAP1 SWAP4 SWAP1 SWAP3 DUP4 ISZERO PUSH2 0xBA8 JUMPI DUP4 SWAP5 PUSH2 0xB6E PUSH2 0xB56 PUSH2 0xBA5 SWAP7 PUSH2 0xC04 JUMP JUMPDEST SWAP7 DUP8 SWAP6 DUP4 MSTORE PUSH1 0x5 PUSH1 0x20 MSTORE DUP3 PUSH1 0x40 DUP2 KECCAK256 SSTORE PUSH1 0x1 SLOAD PUSH2 0xAC2 JUMP JUMPDEST PUSH1 0x1 SSTORE PUSH2 0xB7C DUP5 DUP3 SLOAD PUSH2 0xAC2 JUMP JUMPDEST SWAP1 SSTORE PUSH32 0x0 AND PUSH2 0xACF JUMP JUMPDEST SWAP1 JUMP JUMPDEST POP POP POP POP SWAP1 JUMP JUMPDEST DUP2 DUP2 MUL SWAP3 SWAP2 DUP2 ISZERO SWAP2 DUP5 DIV EQ OR ISZERO PUSH2 0x85A JUMPI JUMP JUMPDEST DUP2 ISZERO PUSH2 0xBCC JUMPI DIV SWAP1 JUMP JUMPDEST PUSH4 0x4E487B71 PUSH1 0xE0 SHL PUSH1 0x0 MSTORE PUSH1 0x12 PUSH1 0x4 MSTORE PUSH1 0x24 PUSH1 0x0 REVERT JUMPDEST PUSH1 0x0 SLOAD DUP1 ISZERO PUSH2 0xC00 JUMPI PUSH2 0xBFB PUSH2 0xBA5 SWAP3 PUSH1 0x1 SLOAD SWAP1 PUSH2 0xBAF JUMP JUMPDEST PUSH2 0xBC2 JUMP JUMPDEST POP SWAP1 JUMP JUMPDEST PUSH1 0x1 SLOAD DUP1 ISZERO PUSH2 0xC00 JUMPI PUSH2 0xBFB PUSH2 0xBA5 SWAP3 PUSH1 0x0 SLOAD SWAP1 PUSH2 0xBAF JUMP INVALID LOG2 PUSH5 0x6970667358 0x22 SLT KECCAK256 SLT 0xD2 JUMPDEST PUSH31 0x44B6EBD2E86131D5A15B35F4CFEB207DCFC24E11A19C54A5F8F16AC064736F PUSH13 0x63430008140033000000000000 "},"gasEstimates":{"creation":{"codeDepositCost":"631000","executionCost":"infinite","totalCost":"infinite"},"external":{"asset()":"infinite","balanceOf(address)":"2676","calculateUserYield(address)":"4693","convertToAssets(uint256)":"4595","convertToShares(uint256)":"4991","deposit(uint256)":"infinite","emergencyWithdraw(address)":"infinite","getCurrentAPY()":"2632","getPerformanceData(uint256)":"2456","getRiskScore()":"218","getStrategyInfo()":"infinite","getTotalYieldGenerated()":"2434","harvestYield()":"6119","isProfitable()":"262","maxCapacity()":"375","setCurrentAPY(uint256)":"22393","setShouldFail(bool)":"24793","setUserYield(uint256)":"22569","totalAssets()":"2268","utilizationRate()":"infinite","withdraw(uint256)":"infinite"}},"methodIdentifiers":{"asset()":"38d52e0f","balanceOf(address)":"70a08231","calculateUserYield(address)":"6f7c99d2","convertToAssets(uint256)":"07a2d13a","convertToShares(uint256)":"c6e6f592","deposit(uint256)":"b6b55f25","emergencyWithdraw(address)":"6ff1c9bc","getCurrentAPY()":"962ca496","getPerformanceData(uint256)":"3fd18893","getRiskScore()":"2b35f739","getStrategyInfo()":"9613092d","getTotalYieldGenerated()":"39c1a8e8","harvestYield()":"e8d991d1","isProfitable()":"3612ddda","maxCapacity()":"59b6a0c9","setCurrentAPY(uint256)":"39a24333","setShouldFail(bool)":"a5aa5c12","setUserYield(uint256)":"8b66268c","totalAssets()":"01e1d114","utilizationRate()":"6c321c8a","withdraw(uint256)":"2e1a7d4d"}},"storageLayout":{"storage":[{"astId":8248,"contract":"src/mocks/MockYieldStrategy.sol:MockYieldStrategy","label":"_totalAssets","offset":0,"slot":"0","type":"t_uint256"},{"astId":8250,"contract":"src/mocks/MockYieldStrategy.sol:MockYieldStrategy","label":"_totalShares","offset":0,"slot":"1","type":"t_uint256"},{"astId":8252,"contract":"src/mocks/MockYieldStrategy.sol:MockYieldStrategy","label":"_userYield","offset":0,"slot":"2","type":"t_uint256"},{"astId":8255,"contract":"src/mocks/MockYieldStrategy.sol:MockYieldStrategy","label":"_currentAPY","offset":0,"slot":"3","type":"t_uint256"},{"astId":8258,"contract":"src/mocks/MockYieldStrategy.sol:MockYieldStrategy","label":"_shouldFail","offset":0,"slot":"4","type":"t_bool"},{"astId":8262,"contract":"src/mocks/MockYieldStrategy.sol:MockYieldStrategy","label":"_balances","offset":0,"slot":"5","type":"t_mapping(t_address,t_uint256)"}],"types":{"t_address":{"encoding":"inplace","label":"address","numberOfBytes":"20"},"t_bool":{"encoding":"inplace","label":"bool","numberOfBytes":"1"},"t_mapping(t_address,t_uint256)":{"encoding":"mapping","key":"t_address","label":"mapping(address => uint256)","numberOfBytes":"32","value":"t_uint256"},"t_uint256":{"encoding":"inplace","label":"uint256","numberOfBytes":"32"}}},"userdoc":{"kind":"user","methods":{},"version":1}}}}