{"src/CrossChainBridge.sol":{"CrossChainBridge":{"abi":[{"inputs":[{"internalType":"address","name":"_yieldEscrow","type":"address"},{"internalType":"address","name":"_yieldVault","type":"address"},{"internalType":"address","name":"_feeCollector","type":"address"}],"stateMutability":"nonpayable","type":"constructor"},{"inputs":[],"name":"InsufficientValidations","type":"error"},{"inputs":[],"name":"InvalidAmount","type":"error"},{"inputs":[],"name":"InvalidFee","type":"error"},{"inputs":[],"name":"InvalidRecipient","type":"error"},{"inputs":[{"internalType":"enum CrossChainBridge.BridgeStatus","name":"current","type":"uint8"},{"internalType":"enum CrossChainBridge.BridgeStatus","name":"expected","type":"uint8"}],"name":"InvalidStatus","type":"error"},{"inputs":[{"internalType":"bytes32","name":"transactionId","type":"bytes32"}],"name":"TransactionAlreadyProcessed","type":"error"},{"inputs":[],"name":"UnauthorizedValidator","type":"error"},{"inputs":[{"internalType":"uint256","name":"chainId","type":"uint256"}],"name":"UnsupportedChain","type":"error"},{"inputs":[{"internalType":"address","name":"token","type":"address"}],"name":"UnsupportedToken","type":"error"},{"anonymous":false,"inputs":[{"indexed":true,"internalType":"bytes32","name":"transactionId","type":"bytes32"},{"indexed":true,"internalType":"address","name":"recipient","type":"address"},{"indexed":false,"internalType":"uint256","name":"amount","type":"uint256"},{"indexed":false,"internalType":"uint256","name":"yield","type":"uint256"}],"name":"BridgeCompleted","type":"event"},{"anonymous":false,"inputs":[{"indexed":true,"internalType":"bytes32","name":"transactionId","type":"bytes32"},{"indexed":false,"internalType":"string","name":"reason","type":"string"}],"name":"BridgeFailed","type":"event"},{"anonymous":false,"inputs":[{"indexed":true,"internalType":"bytes32","name":"transactionId","type":"bytes32"},{"indexed":true,"internalType":"address","name":"sender","type":"address"},{"indexed":false,"internalType":"uint256","name":"amount","type":"uint256"},{"indexed":false,"internalType":"uint256","name":"sourceChainId","type":"uint256"},{"indexed":false,"internalType":"uint256","name":"destinationChainId","type":"uint256"}],"name":"BridgeInitiated","type":"event"},{"anonymous":false,"inputs":[{"indexed":true,"internalType":"bytes32","name":"transactionId","type":"bytes32"},{"indexed":true,"internalType":"address","name":"validator","type":"address"},{"indexed":false,"internalType":"uint256","name":"timestamp","type":"uint256"}],"name":"BridgeValidated","type":"event"},{"anonymous":false,"inputs":[{"indexed":true,"internalType":"uint256","name":"chainId","type":"uint256"}],"name":"ChainAdded","type":"event"},{"anonymous":false,"inputs":[{"indexed":true,"internalType":"uint256","name":"chainId","type":"uint256"}],"name":"ChainRemoved","type":"event"},{"anonymous":false,"inputs":[{"indexed":false,"internalType":"address","name":"newCollector","type":"address"}],"name":"FeeCollectorUpdated","type":"event"},{"anonymous":false,"inputs":[{"indexed":false,"internalType":"uint256","name":"newFee","type":"uint256"}],"name":"FeeUpdated","type":"event"},{"anonymous":false,"inputs":[{"indexed":false,"internalType":"address","name":"account","type":"address"}],"name":"Paused","type":"event"},{"anonymous":false,"inputs":[{"indexed":true,"internalType":"bytes32","name":"role","type":"bytes32"},{"indexed":true,"internalType":"bytes32","name":"previousAdminRole","type":"bytes32"},{"indexed":true,"internalType":"bytes32","name":"newAdminRole","type":"bytes32"}],"name":"RoleAdminChanged","type":"event"},{"anonymous":false,"inputs":[{"indexed":true,"internalType":"bytes32","name":"role","type":"bytes32"},{"indexed":true,"internalType":"address","name":"account","type":"address"},{"indexed":true,"internalType":"address","name":"sender","type":"address"}],"name":"RoleGranted","type":"event"},{"anonymous":false,"inputs":[{"indexed":true,"internalType":"bytes32","name":"role","type":"bytes32"},{"indexed":true,"internalType":"address","name":"account","type":"address"},{"indexed":true,"internalType":"address","name":"sender","type":"address"}],"name":"RoleRevoked","type":"event"},{"anonymous":false,"inputs":[{"indexed":true,"internalType":"address","name":"token","type":"address"}],"name":"TokenAdded","type":"event"},{"anonymous":false,"inputs":[{"indexed":true,"internalType":"address","name":"token","type":"address"}],"name":"TokenRemoved","type":"event"},{"anonymous":false,"inputs":[{"indexed":false,"internalType":"address","name":"account","type":"address"}],"name":"Unpaused","type":"event"},{"inputs":[],"name":"ARBITRUM_CHAIN_ID","outputs":[{"internalType":"uint256","name":"","type":"uint256"}],"stateMutability":"view","type":"function"},{"inputs":[],"name":"BASE_CHAIN_ID","outputs":[{"internalType":"uint256","name":"","type":"uint256"}],"stateMutability":"view","type":"function"},{"inputs":[],"name":"BASIS_POINTS","outputs":[{"internalType":"uint256","name":"","type":"uint256"}],"stateMutability":"view","type":"function"},{"inputs":[],"name":"BRIDGE_OPERATOR_ROLE","outputs":[{"internalType":"bytes32","name":"","type":"bytes32"}],"stateMutability":"view","type":"function"},{"inputs":[],"name":"DEFAULT_ADMIN_ROLE","outputs":[{"internalType":"bytes32","name":"","type":"bytes32"}],"stateMutability":"view","type":"function"},{"inputs":[],"name":"ETHEREUM_CHAIN_ID","outputs":[{"internalType":"uint256","name":"","type":"uint256"}],"stateMutability":"view","type":"function"},{"inputs":[],"name":"POLYGON_CHAIN_ID","outputs":[{"internalType":"uint256","name":"","type":"uint256"}],"stateMutability":"view","type":"function"},{"inputs":[],"name":"SOLANA_CHAIN_ID","outputs":[{"internalType":"uint256","name":"","type":"uint256"}],"stateMutability":"view","type":"function"},{"inputs":[],"name":"VALIDATOR_ROLE","outputs":[{"internalType":"bytes32","name":"","type":"bytes32"}],"stateMutability":"view","type":"function"},{"inputs":[],"name":"XRPL_CHAIN_ID","outputs":[{"internalType":"uint256","name":"","type":"uint256"}],"stateMutability":"view","type":"function"},{"inputs":[{"internalType":"uint256","name":"chainId","type":"uint256"}],"name":"addSupportedChain","outputs":[],"stateMutability":"nonpayable","type":"function"},{"inputs":[{"internalType":"address","name":"token","type":"address"}],"name":"addSupportedToken","outputs":[],"stateMutability":"nonpayable","type":"function"},{"inputs":[],"name":"bridgeFee","outputs":[{"internalType":"uint256","name":"","type":"uint256"}],"stateMutability":"view","type":"function"},{"inputs":[{"internalType":"bytes32","name":"","type":"bytes32"}],"name":"bridgeTransactions","outputs":[{"internalType":"address","name":"sender","type":"address"},{"internalType":"address","name":"recipient","type":"address"},{"internalType":"uint256","name":"amount","type":"uint256"},{"internalType":"address","name":"token","type":"address"},{"internalType":"uint256","name":"sourceChainId","type":"uint256"},{"internalType":"uint256","name":"destinationChainId","type":"uint256"},{"internalType":"uint256","name":"timestamp","type":"uint256"},{"internalType":"uint256","name":"accruedYield","type":"uint256"},{"internalType":"bytes32","name":"transactionHash","type":"bytes32"},{"internalType":"enum CrossChainBridge.BridgeStatus","name":"status","type":"uint8"}],"stateMutability":"view","type":"function"},{"inputs":[{"internalType":"uint256","name":"amount","type":"uint256"},{"internalType":"uint256","name":"timeElapsed","type":"uint256"}],"name":"calculateBridgeYield","outputs":[{"internalType":"uint256","name":"","type":"uint256"}],"stateMutability":"view","type":"function"},{"inputs":[{"internalType":"uint256","name":"","type":"uint256"}],"name":"chainValidators","outputs":[{"internalType":"address","name":"","type":"address"}],"stateMutability":"view","type":"function"},{"inputs":[{"internalType":"bytes32","name":"transactionId","type":"bytes32"},{"internalType":"bytes","name":"sourceChainProof","type":"bytes"}],"name":"completeBridge","outputs":[],"stateMutability":"nonpayable","type":"function"},{"inputs":[{"internalType":"uint256","name":"amount","type":"uint256"}],"name":"estimateBridgeFee","outputs":[{"internalType":"uint256","name":"","type":"uint256"}],"stateMutability":"view","type":"function"},{"inputs":[],"name":"feeCollector","outputs":[{"internalType":"address","name":"","type":"address"}],"stateMutability":"view","type":"function"},{"inputs":[{"internalType":"bytes32","name":"transactionId","type":"bytes32"}],"name":"getBridgeTransaction","outputs":[{"components":[{"internalType":"address","name":"sender","type":"address"},{"internalType":"address","name":"recipient","type":"address"},{"internalType":"uint256","name":"amount","type":"uint256"},{"internalType":"address","name":"token","type":"address"},{"internalType":"uint256","name":"sourceChainId","type":"uint256"},{"internalType":"uint256","name":"destinationChainId","type":"uint256"},{"internalType":"uint256","name":"timestamp","type":"uint256"},{"internalType":"uint256","name":"accruedYield","type":"uint256"},{"internalType":"bytes32","name":"transactionHash","type":"bytes32"},{"internalType":"enum CrossChainBridge.BridgeStatus","name":"status","type":"uint8"}],"internalType":"struct CrossChainBridge.BridgeTransaction","name":"","type":"tuple"}],"stateMutability":"view","type":"function"},{"inputs":[{"internalType":"bytes32","name":"role","type":"bytes32"}],"name":"getRoleAdmin","outputs":[{"internalType":"bytes32","name":"","type":"bytes32"}],"stateMutability":"view","type":"function"},{"inputs":[{"internalType":"bytes32","name":"role","type":"bytes32"},{"internalType":"address","name":"account","type":"address"}],"name":"grantRole","outputs":[],"stateMutability":"nonpayable","type":"function"},{"inputs":[{"internalType":"bytes32","name":"role","type":"bytes32"},{"internalType":"address","name":"account","type":"address"}],"name":"hasRole","outputs":[{"internalType":"bool","name":"","type":"bool"}],"stateMutability":"view","type":"function"},{"inputs":[{"internalType":"address","name":"recipient","type":"address"},{"internalType":"uint256","name":"amount","type":"uint256"},{"internalType":"address","name":"token","type":"address"},{"internalType":"uint256","name":"destinationChainId","type":"uint256"}],"name":"initiateBridge","outputs":[{"internalType":"bytes32","name":"transactionId","type":"bytes32"}],"stateMutability":"nonpayable","type":"function"},{"inputs":[{"internalType":"uint256","name":"chainId","type":"uint256"}],"name":"isChainSupported","outputs":[{"internalType":"bool","name":"","type":"bool"}],"stateMutability":"view","type":"function"},{"inputs":[{"internalType":"address","name":"token","type":"address"}],"name":"isTokenSupported","outputs":[{"internalType":"bool","name":"","type":"bool"}],"stateMutability":"view","type":"function"},{"inputs":[],"name":"pause","outputs":[],"stateMutability":"nonpayable","type":"function"},{"inputs":[],"name":"paused","outputs":[{"internalType":"bool","name":"","type":"bool"}],"stateMutability":"view","type":"function"},{"inputs":[{"internalType":"bytes32","name":"","type":"bytes32"}],"name":"processedTransactions","outputs":[{"internalType":"bool","name":"","type":"bool"}],"stateMutability":"view","type":"function"},{"inputs":[{"internalType":"bytes32","name":"transactionId","type":"bytes32"},{"internalType":"string","name":"reason","type":"string"}],"name":"refundBridge","outputs":[],"stateMutability":"nonpayable","type":"function"},{"inputs":[{"internalType":"uint256","name":"chainId","type":"uint256"}],"name":"removeSupportedChain","outputs":[],"stateMutability":"nonpayable","type":"function"},{"inputs":[{"internalType":"address","name":"token","type":"address"}],"name":"removeSupportedToken","outputs":[],"stateMutability":"nonpayable","type":"function"},{"inputs":[{"internalType":"bytes32","name":"role","type":"bytes32"},{"internalType":"address","name":"account","type":"address"}],"name":"renounceRole","outputs":[],"stateMutability":"nonpayable","type":"function"},{"inputs":[{"internalType":"bytes32","name":"role","type":"bytes32"},{"internalType":"address","name":"account","type":"address"}],"name":"revokeRole","outputs":[],"stateMutability":"nonpayable","type":"function"},{"inputs":[{"internalType":"uint256","name":"","type":"uint256"}],"name":"supportedChains","outputs":[{"internalType":"bool","name":"","type":"bool"}],"stateMutability":"view","type":"function"},{"inputs":[{"internalType":"address","name":"","type":"address"}],"name":"supportedTokens","outputs":[{"internalType":"bool","name":"","type":"bool"}],"stateMutability":"view","type":"function"},{"inputs":[{"internalType":"bytes4","name":"interfaceId","type":"bytes4"}],"name":"supportsInterface","outputs":[{"internalType":"bool","name":"","type":"bool"}],"stateMutability":"view","type":"function"},{"inputs":[],"name":"unpause","outputs":[],"stateMutability":"nonpayable","type":"function"},{"inputs":[{"internalType":"uint256","name":"newFee","type":"uint256"}],"name":"updateBridgeFee","outputs":[],"stateMutability":"nonpayable","type":"function"},{"inputs":[{"internalType":"address","name":"newCollector","type":"address"}],"name":"updateFeeCollector","outputs":[],"stateMutability":"nonpayable","type":"function"},{"inputs":[{"internalType":"bytes32","name":"transactionId","type":"bytes32"}],"name":"validateBridgeTransaction","outputs":[],"stateMutability":"nonpayable","type":"function"},{"inputs":[],"name":"yieldEscrow","outputs":[{"internalType":"contract YieldEscrow","name":"","type":"address"}],"stateMutability":"view","type":"function"},{"inputs":[],"name":"yieldVault","outputs":[{"internalType":"contract YieldVault","name":"","type":"address"}],"stateMutability":"view","type":"function"}],"devdoc":{"details":"Manages cross-chain payment transfers with yield preservation","events":{"Paused(address)":{"details":"Emitted when the pause is triggered by `account`."},"RoleAdminChanged(bytes32,bytes32,bytes32)":{"details":"Emitted when `newAdminRole` is set as ``role``'s admin role, replacing `previousAdminRole` `DEFAULT_ADMIN_ROLE` is the starting admin for all roles, despite {RoleAdminChanged} not being emitted signaling this. _Available since v3.1._"},"RoleGranted(bytes32,address,address)":{"details":"Emitted when `account` is granted `role`. `sender` is the account that originated the contract call, an admin role bearer except when using {AccessControl-_setupRole}."},"RoleRevoked(bytes32,address,address)":{"details":"Emitted when `account` is revoked `role`. `sender` is the account that originated the contract call:   - if using `revokeRole`, it is the admin role bearer   - if using `renounceRole`, it is the role bearer (i.e. `account`)"},"Unpaused(address)":{"details":"Emitted when the pause is lifted by `account`."}},"kind":"dev","methods":{"addSupportedChain(uint256)":{"details":"Adds support for a new chain","params":{"chainId":"Chain ID to add"}},"addSupportedToken(address)":{"details":"Adds support for a new token","params":{"token":"Token address to add"}},"calculateBridgeYield(uint256,uint256)":{"details":"Calculates yield accrued during bridge transit","params":{"amount":"Principal amount","timeElapsed":"Time in seconds"},"returns":{"_0":"yield Calculated yield amount"}},"completeBridge(bytes32,bytes)":{"details":"Completes a bridge transaction on destination chain","params":{"sourceChainProof":"Proof from source chain (simplified for now)","transactionId":"Transaction to complete"}},"estimateBridgeFee(uint256)":{"details":"Estimates bridge fee for an amount","params":{"amount":"Amount to bridge"},"returns":{"_0":"fee Estimated fee"}},"getBridgeTransaction(bytes32)":{"details":"Gets bridge transaction details","params":{"transactionId":"Transaction ID"},"returns":{"_0":"Transaction details"}},"getRoleAdmin(bytes32)":{"details":"Returns the admin role that controls `role`. See {grantRole} and {revokeRole}. To change a role's admin, use {_setRoleAdmin}."},"grantRole(bytes32,address)":{"details":"Grants `role` to `account`. If `account` had not been already granted `role`, emits a {RoleGranted} event. Requirements: - the caller must have ``role``'s admin role. May emit a {RoleGranted} event."},"hasRole(bytes32,address)":{"details":"Returns `true` if `account` has been granted `role`."},"initiateBridge(address,uint256,address,uint256)":{"details":"Initiates a cross-chain bridge transaction","params":{"amount":"Amount to bridge","destinationChainId":"Target chain ID","recipient":"Address on destination chain","token":"Token address"},"returns":{"transactionId":"Unique bridge transaction identifier"}},"isChainSupported(uint256)":{"details":"Checks if a chain is supported","params":{"chainId":"Chain ID to check"},"returns":{"_0":"supported Whether the chain is supported"}},"isTokenSupported(address)":{"details":"Checks if a token is supported","params":{"token":"Token address to check"},"returns":{"_0":"supported Whether the token is supported"}},"pause()":{"details":"Emergency pause"},"paused()":{"details":"Returns true if the contract is paused, and false otherwise."},"refundBridge(bytes32,string)":{"details":"Refunds a failed bridge transaction","params":{"reason":"Failure reason","transactionId":"Transaction to refund"}},"removeSupportedChain(uint256)":{"details":"Removes support for a chain","params":{"chainId":"Chain ID to remove"}},"removeSupportedToken(address)":{"details":"Removes support for a token","params":{"token":"Token address to remove"}},"renounceRole(bytes32,address)":{"details":"Revokes `role` from the calling account. Roles are often managed via {grantRole} and {revokeRole}: this function's purpose is to provide a mechanism for accounts to lose their privileges if they are compromised (such as when a trusted device is misplaced). If the calling account had been revoked `role`, emits a {RoleRevoked} event. Requirements: - the caller must be `account`. May emit a {RoleRevoked} event."},"revokeRole(bytes32,address)":{"details":"Revokes `role` from `account`. If `account` had been granted `role`, emits a {RoleRevoked} event. Requirements: - the caller must have ``role``'s admin role. May emit a {RoleRevoked} event."},"supportsInterface(bytes4)":{"details":"See {IERC165-supportsInterface}."},"unpause()":{"details":"Resume from pause"},"updateBridgeFee(uint256)":{"details":"Updates bridge fee","params":{"newFee":"New fee in basis points"}},"updateFeeCollector(address)":{"details":"Updates fee collector address","params":{"newCollector":"New fee collector address"}},"validateBridgeTransaction(bytes32)":{"details":"Validates a bridge transaction (called by validators)","params":{"transactionId":"Transaction to validate"}}},"title":"CrossChainBridge","version":1},"evm":{"bytecode":{"linkReferences":{},"object":"60c034620002df57601f620023ee38819003918201601f191683019291906001600160401b03841183851017620002e4578160609284926040968752833981010312620002df576200005181620002fa565b9060206200006e8462000066838501620002fa565b9301620002fa565b9060019260009284845560ff19958660025416600255600a60095560018060a01b038091169283156200029b578116918215620002575716918215620002135760805260a052600a80546001600160a01b031916909117905581805282815284822033835281528482205485929160049160ff1615620001de575b7f7045adfe67d5f94dbfddcdb901e44bef55baacabb398c7cddda1bfd7620b1568808452858252848420338552825260ff858520541615620001a7575b5084835252818120838582541617905560028152818120838582541617905560038152818120838582541617905560898152818120838582541617905561a4b18152818120838582541617905561210581522091825416179055516120be908162000310823960805181610e84015260a05181818161096a0152611ff00152f35b8084528582528484203385528252848420868882541617905533903390600080516020620023ce8339815191528680a43862000126565b82805284815283832033845281528383208587825416179055333384600080516020620023ce8339815191528180a4620000e9565b875162461bcd60e51b815260048101859052601560248201527f496e76616c69642066656520636f6c6c6563746f7200000000000000000000006044820152606490fd5b885162461bcd60e51b815260048101869052601560248201527f496e76616c6964207661756c74206164647265737300000000000000000000006044820152606490fd5b885162461bcd60e51b815260048101869052601660248201527f496e76616c696420657363726f772061646472657373000000000000000000006044820152606490fd5b600080fd5b634e487b7160e01b600052604160045260246000fd5b51906001600160a01b0382168203620002df5756fe608080604052600436101561001357600080fd5b60003560e01c90816224a1b81461147c5750806301ffc9a714611426578063067bd07a1461140a5780630c4844aa146113b157806317606024146113885780631dac56d31461136c57806320eb563214611350578063248a9ca3146113215780632f2ff15d1461126e57806334284e4b1461103057806336568abe14610f9e5780633f4ba83a14610f0a57806348bf1c5114610eee5780634be40fd114610eb35780635221c1f014610e3d57806353e589ac14610e6e578063548d496f14610e3d5780635a1c036614610dd55780635c975abb14610db257806368c4ac2614610b695780636c5556b714610cb95780636c63f97114610c115780636d69fcaf14610ba857806375151b6314610b695780637631919014610b0357806382b12dd714610ae55780638456cb5914610a8b57806387188a0014610a2f57806391d14854146109e25780639822dded146109b5578063a217fddf14610999578063a7f8a5e214610954578063ac2e493614610923578063c06575f4146107aa578063c415b95c14610781578063c49baebe14610746578063c4a0158714610712578063c9a4d32f1461034a578063cdcdd5481461032d578063d2c35ce814610277578063d547741f14610236578063e1f1c4a7146102195763efc21e3f146101f757600080fd5b346102145760003660031901126102145760206040516121058152f35b600080fd5b346102145760003660031901126102145760206040516127108152f35b34610214576040366003190112610214576102756004356102556115ff565b90806000526001602052610270600160406000200154611986565b611b50565b005b3461021457602036600319011261021457610290611615565b610298611678565b6001600160a01b031680156102e8576020817fe5693914d19c789bdee50a362998c0bc8d035a835f9871da5d51152f0582c34f926001600160601b0360a01b600a541617600a55604051908152a1005b60405162461bcd60e51b815260206004820152601960248201527f496e76616c696420636f6c6c6563746f722061646472657373000000000000006044820152606490fd5b3461021457600036600319011261021457602060405161a4b18152f35b3461021457608036600319011261021457610363611615565b60249081356044356001600160a01b038116810361021457610383611d4a565b61038b611d06565b606435600052600460205260ff60406000205416156106f9576001600160a01b03811660009081526005602052604090205460ff16156106d85781156106c6576001600160a01b038316156106b4576127106103e960095484611bc6565b04906103f58284611cf9565b92604051926323b872dd60e01b602085015233878501523060448501528160648501526064845260a0840167ffffffffffffffff948082108683111761069f5760409190915261044e906001600160a01b038516611df2565b8061067e575b5060085492600019841461066957600184016008556040519360208501923360601b84526001600160601b031990818960601b16603488015260488701528460601b16606886015246607c860152606435609c86015260bc85015260bc84528360e08101109060e0850111176106545760e0830160405282519020936104dc60e08401611ab3565b3360e084015260018060a01b03166101008301528261012083015260018060a01b031661014082015246610160820152606435610180820152426101a082015260006101c0820152826101e082015260006102008201528260005260036020526102006009604060002060018060a01b0360e0850151166001600160601b0360a01b90818354161782556001820160018060a01b0361010087015116828254161790556101208501516002830155600382019060018060a01b036101408701511690825416179055610160840151600482015561018084015160058201556101a084015160068201556101c084015160078201556101e0840151600882015501910151600581101561063f576020945060ff8019835416911617905560405190815246838201526064356040820152817fcb59e257e7e6c29e3b2d154443821f4c7dfdee5401f775e13db6d7421c51d58060603393a36001600055604051908152f35b84634e487b7160e01b60005260216004526000fd5b85634e487b7160e01b60005260416004526000fd5b86634e487b7160e01b60005260116004526000fd5b600a5461069991906001600160a01b03908116908516611da0565b86610454565b88634e487b7160e01b60005260416004526000fd5b604051634e46966960e11b8152600490fd5b60405163162908e360e11b8152600490fd5b604051635f8b555b60e11b81526001600160a01b0390911660048201528390fd5b604051631874ab9360e31b815260643560048201528490fd5b34610214576020366003190112610214576004356000526007602052602060018060a01b0360406000205416604051908152f35b346102145760003660031901126102145760206040517f21702c8af46127c7fa207f89d0b0a8441bb32959a0ac7df790e9ab1a25c989268152f35b3461021457600036600319011261021457600a546040516001600160a01b039091168152602090f35b34610214576107b83661162b565b50506107c2611d4a565b6107ca61183f565b806000526003602052604060002090600660205260ff6040600020541661090b576009820160ff81541660058110156108f557600181036108ce5750610814600684015442611cf9565b9261082460028201948554611fda565b918360005260066020526002604060002060ff19906001828254161790558254161790558160078201558354918083018093116108b8577f43d0df41e1c07a3d313b4527a8a17595bfc156a6cc0d47045fe63b3aaffb2b47926040926108a160018060a01b03926001846003850154169301928484541690611da0565b541694549082519182526020820152a36001600055005b634e487b7160e01b600052601160045260246000fd5b60405163f924664d60e01b81526044916108ec9060048301906115f2565b60016024820152fd5b634e487b7160e01b600052602160045260246000fd5b602490604051906317cc742960e31b82526004820152fd5b34610214576020366003190112610214576004356000526006602052602060ff604060002054166040519015158152f35b34610214576000366003190112610214576040517f00000000000000000000000000000000000000000000000000000000000000006001600160a01b03168152602090f35b3461021457600036600319011261021457602060405160008152f35b346102145760203660031901126102145760206127106109d9600954600435611bc6565b04604051908152f35b34610214576040366003190112610214576109fb6115ff565b600435600052600160205260406000209060018060a01b0316600052602052602060ff604060002054166040519015158152f35b3461021457602036600319011261021457600435610a4b611678565b8060005260046020526040600020600160ff198254161790557fbba9d55e9fd1a441b1617724e2fdb76777d15ec77ab2b72ac15952cbe97085db600080a2005b3461021457600036600319011261021457610aa4611678565b610aac611d06565b600160ff1960025416176002557f62e78cea01bee320cd4e420270b5ea74000d11b0c9f74754ebdbfc544b05a2586020604051338152a1005b34610214576000366003190112610214576020600954604051908152f35b3461021457602036600319011261021457610b1c611615565b610b24611678565b6001600160a01b03166000818152600560205260408120805460ff191690557f4c910b69fe65a61f7531b9c5042b2329ca7179c77290aa7e2eb3afa3c8511fd39080a2005b34610214576020366003190112610214576001600160a01b03610b8a611615565b166000526005602052602060ff604060002054166040519015158152f35b3461021457602036600319011261021457610bc1611615565b610bc9611678565b6001600160a01b03166000818152600560205260408120805460ff191660011790557f784c8f4dbf0ffedd6e72c76501c545a70f8b203b30a26ce542bf92ba87c248a49080a2005b346102145760203660031901126102145760043560005260036020526101406040600020610cb760018060a01b0380835416928160018201541691600282015490600383015416600483015460058401549060068501549260078601549460ff6009600889015498015416976040519a8b5260208b015260408a01526060890152608088015260a087015260c086015260e08501526101008401526101208301906115f2565bf35b3461021457610cc73661162b565b90610cd061183f565b826000526003602052604060002060098101805460ff811660058110156108f557600281148015610da8575b610d81575060ff19166004179055600381015481546002909201547fd2b4dd79c80ad92da5a6dd7455df9e531b9ad078fe353998dc6fc5c442ddc34f94936040939092610d5692916001600160a01b039081169116611da0565b82825193849260208452816020850152848401376000828201840152601f01601f19168101030190a2005b60405163f924664d60e01b8152604491610d9f9060048301906115f2565b60006024820152fd5b5060048114610cfc565b3461021457600036600319011261021457602060ff600254166040519015158152f35b3461021457602036600319011261021457600435610df1611678565b6103e88111610e2b576020817f8c4d35e54a3f2ef1134138fd8ea3daee6a3c89e10d2665996babdf70261e2c7692600955604051908152a1005b6040516358d620b360e01b8152600490fd5b34610214576020366003190112610214576004356000526004602052602060ff604060002054166040519015158152f35b34610214576000366003190112610214576040517f00000000000000000000000000000000000000000000000000000000000000006001600160a01b03168152602090f35b346102145760003660031901126102145760206040517f7045adfe67d5f94dbfddcdb901e44bef55baacabb398c7cddda1bfd7620b15688152f35b3461021457600036600319011261021457602060405160028152f35b3461021457600036600319011261021457610f23611678565b60025460ff811615610f625760ff19166002557f5db9ee0a495bf2e6ff9c91a7834c1ba4fdd244a5e8aa4e537bd38aeae4b073aa6020604051338152a1005b60405162461bcd60e51b815260206004820152601460248201527314185d5cd8589b194e881b9bdd081c185d5cd95960621b6044820152606490fd5b3461021457604036600319011261021457610fb76115ff565b336001600160a01b03821603610fd35761027590600435611b50565b60405162461bcd60e51b815260206004820152602f60248201527f416363657373436f6e74726f6c3a2063616e206f6e6c792072656e6f756e636560448201526e103937b632b9903337b91039b2b63360891b6064820152608490fd5b3461021457602080600319360112610214576004357f21702c8af46127c7fa207f89d0b0a8441bb32959a0ac7df790e9ab1a25c9892680600052600190818452604060002033600052845260ff60406000205416156110e457508160005260038352600960406000200190815460ff811660058110156108f55780610d81575060ff191617905560405142815233927fd7b0f99d057bc9987014e38568de5d95ba76962296f6cf10df2e891fd78232d891a3005b9091506110f033611bea565b604051916110fd83611ae6565b604283528483019360603686378351156112585760308553835181101561125857607860218501536041905b8082116112145750506111d1576111cd9361117d936111b5936111a6604894604051978576020b1b1b2b9b9a1b7b73a3937b61d1030b1b1b7bab73a1604d1b8a978801528251928391603789019101611a90565b8401917001034b99036b4b9b9b4b733903937b6329607d1b603784015251809386840190611a90565b01036028810184520182611b02565b60405162461bcd60e51b815291829160048301611b24565b0390fd5b6064846040519062461bcd60e51b825280600483015260248201527f537472696e67733a20686578206c656e67746820696e73756666696369656e746044820152fd5b9091600f81166010811015611258576f181899199a1a9b1b9c1cb0b131b232b360811b901a6112438487611bd9565b5360041c9180156108b8576000190190611129565b634e487b7160e01b600052603260045260246000fd5b346102145760403660031901126102145760043561128a6115ff565b8160005260016020526112a4600160406000200154611986565b81600052600160205260406000209060018060a01b0316908160005260205260ff60406000205416156112d357005b8160005260016020526040600020816000526020526040600020600160ff1982541617905533917f2f8788117e7eff1d82e926ec794901d17c78024a50270940304540a733656f0d600080a4005b346102145760203660031901126102145760043560005260016020526020600160406000200154604051908152f35b3461021457600036600319011261021457602060405160898152f35b3461021457600036600319011261021457602060405160018152f35b346102145760403660031901126102145760206113a9602435600435611fda565b604051908152f35b34610214576020366003190112610214576004356113cd611678565b806000526004602052604060002060ff1981541690557f11a9d1a77f76361ed131c19b1dc5758504c51dbde2e49fc973a0ef9577ad13d5600080a2005b3461021457600036600319011261021457602060405160038152f35b346102145760203660031901126102145760043563ffffffff60e01b811680910361021457602090637965db0b60e01b811490811561146b575b506040519015158152f35b6301ffc9a760e01b14905082611460565b34610214576020366003190112610214576101208161149c600093611ab3565b8281528260208201528260408201528260608201528260808201528260a08201528260c08201528260e08201528261010082015201526004356000526003602052604060002060ff6009604051926114f384611ab3565b80546001600160a01b0390811685526001820154811660208601526002820154604086015260038201541660608501526004810154608085015260058082015460a0860152600682015460c0860152600782015460e086015260088201546101008601529101549190911691908210156108f55761014091610120820152610cb76101206040519260018060a01b03815116845260018060a01b0360208201511660208501526040810151604085015260018060a01b0360608201511660608501526080810151608085015260a081015160a085015260c081015160c085015260e081015160e085015261010081015161010085015201516101208301905b9060058210156108f55752565b602435906001600160a01b038216820361021457565b600435906001600160a01b038216820361021457565b6040600319820112610214576004359160243567ffffffffffffffff9283821161021457806023830112156102145781600401359384116102145760248483010111610214576024019190565b3360009081527fa6eef7e35abe7026729641147f7915573c7e97b47efa546f5f6e3230263bcb49602090815260408083205490929060019060ff16156116be5750505050565b6116c733611bea565b828551926116d484611ae6565b6042845285840194606036873784511561182b5760308653845182101561182b5790607860218601536041915b8183116117bd5750505061177b5761117d938593611765936117566048946111cd9951988576020b1b1b2b9b9a1b7b73a3937b61d1030b1b1b7bab73a1604d1b8b978801528251928391603789019101611a90565b01036028810185520183611b02565b5162461bcd60e51b815291829160048301611b24565b60648486519062461bcd60e51b825280600483015260248201527f537472696e67733a20686578206c656e67746820696e73756666696369656e746044820152fd5b909192600f81166010811015611817576f181899199a1a9b1b9c1cb0b131b232b360811b901a6117ed8588611bd9565b5360041c92801561180357600019019190611701565b634e487b7160e01b82526011600452602482fd5b634e487b7160e01b83526032600452602483fd5b634e487b7160e01b81526032600452602490fd5b3360009081527ff6cefd16e50e3a9e8a37ea00763412696ec6dfc8d1c400e69a0e851a5205e59a60209081526040808320549092906001907f7045adfe67d5f94dbfddcdb901e44bef55baacabb398c7cddda1bfd7620b15689060ff16156118a8575050505050565b6118b133611bea565b908551926118be84611ae6565b6042845285840194606036873784511561182b5760308653845182101561182b5790607860218601536041915b8183116119405750505061177b5761117d938593611765936117566048946111cd9951988576020b1b1b2b9b9a1b7b73a3937b61d1030b1b1b7bab73a1604d1b8b978801528251928391603789019101611a90565b909192600f81166010811015611817576f181899199a1a9b1b9c1cb0b131b232b360811b901a6119708588611bd9565b5360041c928015611803576000190191906118eb565b6000818152600190602091808352604093848320338452845260ff8584205416156119b2575050505050565b6119bb33611bea565b908551926119c884611ae6565b6042845285840194606036873784511561182b5760308653845182101561182b5790607860218601536041915b818311611a4a5750505061177b5761117d938593611765936117566048946111cd9951988576020b1b1b2b9b9a1b7b73a3937b61d1030b1b1b7bab73a1604d1b8b978801528251928391603789019101611a90565b909192600f81166010811015611817576f181899199a1a9b1b9c1cb0b131b232b360811b901a611a7a8588611bd9565b5360041c928015611803576000190191906119f5565b60005b838110611aa35750506000910152565b8181015183820152602001611a93565b610140810190811067ffffffffffffffff821117611ad057604052565b634e487b7160e01b600052604160045260246000fd5b6080810190811067ffffffffffffffff821117611ad057604052565b90601f8019910116810190811067ffffffffffffffff821117611ad057604052565b60409160208252611b448151809281602086015260208686019101611a90565b601f01601f1916010190565b906000918083526001602052604083209160018060a01b03169182845260205260ff604084205416611b8157505050565b8083526001602052604083208284526020526040832060ff1981541690557ff6391f5c32d9c69d2a47ea670b442974b53935d1edc7fd64eb21e047a839171b339380a4565b818102929181159184041417156108b857565b908151811015611258570160200190565b604051906060820182811067ffffffffffffffff821117611ad057604052602a82526020820160403682378251156112585760309053815160019081101561125857607860218401536029905b808211611c8b575050611c475790565b606460405162461bcd60e51b815260206004820152602060248201527f537472696e67733a20686578206c656e67746820696e73756666696369656e746044820152fd5b9091600f81166010811015611ce4576f181899199a1a9b1b9c1cb0b131b232b360811b901a611cba8486611bd9565b5360041c918015611ccf576000190190611c37565b60246000634e487b7160e01b81526011600452fd5b60246000634e487b7160e01b81526032600452fd5b919082039182116108b857565b60ff60025416611d1257565b60405162461bcd60e51b815260206004820152601060248201526f14185d5cd8589b194e881c185d5cd95960821b6044820152606490fd5b600260005414611d5b576002600055565b60405162461bcd60e51b815260206004820152601f60248201527f5265656e7472616e637947756172643a207265656e7472616e742063616c6c006044820152606490fd5b60405163a9059cbb60e01b60208201526001600160a01b039092166024830152604480830193909352918152608081019167ffffffffffffffff831182841017611ad057611df092604052611df2565b565b60018060a01b0316906040516040810167ffffffffffffffff9082811082821117611ad0576040526020938483527f5361666545524332303a206c6f772d6c6576656c2063616c6c206661696c6564858401526000808587829751910182855af1903d15611f3e573d928311611f2a5790611e8d93929160405192611e8088601f19601f8401160185611b02565b83523d868885013e611f49565b805191821591848315611eff575b505050905015611ea85750565b6084906040519062461bcd60e51b82526004820152602a60248201527f5361666545524332303a204552433230206f7065726174696f6e20646964206e6044820152691bdd081cdd58d8d9595960b21b6064820152fd5b919381809450010312611f2657820151908115158203611f23575080388084611e9b565b80fd5b5080fd5b634e487b7160e01b85526041600452602485fd5b90611e8d9392506060915b91929015611fab5750815115611f5d575090565b3b15611f665790565b60405162461bcd60e51b815260206004820152601d60248201527f416464726573733a2063616c6c20746f206e6f6e2d636f6e74726163740000006044820152606490fd5b825190915015611fbe5750805190602001fd5b60405162461bcd60e51b81529081906111cd9060048301611b24565b604051634b16524b60e11b8152906020826004817f00000000000000000000000000000000000000000000000000000000000000006001600160a01b03165afa91821561207c57600092612047575b509161203e6120439264496cebb80094611bc6565b611bc6565b0490565b90916020823d8211612074575b8161206160209383611b02565b81010312611f235750519061203e612029565b3d9150612054565b6040513d6000823e3d90fdfea26469706673582212201e3c36c324995f42cbfbc9c0305d8777464e494d5502f9eceb878775c9a7a4ea64736f6c634300081400332f8788117e7eff1d82e926ec794901d17c78024a50270940304540a733656f0d","opcodes":"PUSH1 0xC0 CALLVALUE PUSH3 0x2DF JUMPI PUSH1 0x1F PUSH3 0x23EE CODESIZE DUP2 SWAP1 SUB SWAP2 DUP3 ADD PUSH1 0x1F NOT AND DUP4 ADD SWAP3 SWAP2 SWAP1 PUSH1 0x1 PUSH1 0x1 PUSH1 0x40 SHL SUB DUP5 GT DUP4 DUP6 LT OR PUSH3 0x2E4 JUMPI DUP2 PUSH1 0x60 SWAP3 DUP5 SWAP3 PUSH1 0x40 SWAP7 DUP8 MSTORE DUP4 CODECOPY DUP2 ADD SUB SLT PUSH3 0x2DF JUMPI PUSH3 0x51 DUP2 PUSH3 0x2FA JUMP JUMPDEST SWAP1 PUSH1 0x20 PUSH3 0x6E DUP5 PUSH3 0x66 DUP4 DUP6 ADD PUSH3 0x2FA JUMP JUMPDEST SWAP4 ADD PUSH3 0x2FA JUMP JUMPDEST SWAP1 PUSH1 0x1 SWAP3 PUSH1 0x0 SWAP3 DUP5 DUP5 SSTORE PUSH1 0xFF NOT SWAP6 DUP7 PUSH1 0x2 SLOAD AND PUSH1 0x2 SSTORE PUSH1 0xA PUSH1 0x9 SSTORE PUSH1 0x1 DUP1 PUSH1 0xA0 SHL SUB DUP1 SWAP2 AND SWAP3 DUP4 ISZERO PUSH3 0x29B JUMPI DUP2 AND SWAP2 DUP3 ISZERO PUSH3 0x257 JUMPI AND SWAP2 DUP3 ISZERO PUSH3 0x213 JUMPI PUSH1 0x80 MSTORE PUSH1 0xA0 MSTORE PUSH1 0xA DUP1 SLOAD PUSH1 0x1 PUSH1 0x1 PUSH1 0xA0 SHL SUB NOT AND SWAP1 SWAP2 OR SWAP1 SSTORE DUP2 DUP1 MSTORE DUP3 DUP2 MSTORE DUP5 DUP3 KECCAK256 CALLER DUP4 MSTORE DUP2 MSTORE DUP5 DUP3 KECCAK256 SLOAD DUP6 SWAP3 SWAP2 PUSH1 0x4 SWAP2 PUSH1 0xFF AND ISZERO PUSH3 0x1DE JUMPI JUMPDEST PUSH32 0x7045ADFE67D5F94DBFDDCDB901E44BEF55BAACABB398C7CDDDA1BFD7620B1568 DUP1 DUP5 MSTORE DUP6 DUP3 MSTORE DUP5 DUP5 KECCAK256 CALLER DUP6 MSTORE DUP3 MSTORE PUSH1 0xFF DUP6 DUP6 KECCAK256 SLOAD AND ISZERO PUSH3 0x1A7 JUMPI JUMPDEST POP DUP5 DUP4 MSTORE MSTORE DUP2 DUP2 KECCAK256 DUP4 DUP6 DUP3 SLOAD AND OR SWAP1 SSTORE PUSH1 0x2 DUP2 MSTORE DUP2 DUP2 KECCAK256 DUP4 DUP6 DUP3 SLOAD AND OR SWAP1 SSTORE PUSH1 0x3 DUP2 MSTORE DUP2 DUP2 KECCAK256 DUP4 DUP6 DUP3 SLOAD AND OR SWAP1 SSTORE PUSH1 0x89 DUP2 MSTORE DUP2 DUP2 KECCAK256 DUP4 DUP6 DUP3 SLOAD AND OR SWAP1 SSTORE PUSH2 0xA4B1 DUP2 MSTORE DUP2 DUP2 KECCAK256 DUP4 DUP6 DUP3 SLOAD AND OR SWAP1 SSTORE PUSH2 0x2105 DUP2 MSTORE KECCAK256 SWAP2 DUP3 SLOAD AND OR SWAP1 SSTORE MLOAD PUSH2 0x20BE SWAP1 DUP2 PUSH3 0x310 DUP3 CODECOPY PUSH1 0x80 MLOAD DUP2 PUSH2 0xE84 ADD MSTORE PUSH1 0xA0 MLOAD DUP2 DUP2 DUP2 PUSH2 0x96A ADD MSTORE PUSH2 0x1FF0 ADD MSTORE RETURN JUMPDEST DUP1 DUP5 MSTORE DUP6 DUP3 MSTORE DUP5 DUP5 KECCAK256 CALLER DUP6 MSTORE DUP3 MSTORE DUP5 DUP5 KECCAK256 DUP7 DUP9 DUP3 SLOAD AND OR SWAP1 SSTORE CALLER SWAP1 CALLER SWAP1 PUSH1 0x0 DUP1 MLOAD PUSH1 0x20 PUSH3 0x23CE DUP4 CODECOPY DUP2 MLOAD SWAP2 MSTORE DUP7 DUP1 LOG4 CODESIZE PUSH3 0x126 JUMP JUMPDEST DUP3 DUP1 MSTORE DUP5 DUP2 MSTORE DUP4 DUP4 KECCAK256 CALLER DUP5 MSTORE DUP2 MSTORE DUP4 DUP4 KECCAK256 DUP6 DUP8 DUP3 SLOAD AND OR SWAP1 SSTORE CALLER CALLER DUP5 PUSH1 0x0 DUP1 MLOAD PUSH1 0x20 PUSH3 0x23CE DUP4 CODECOPY DUP2 MLOAD SWAP2 MSTORE DUP2 DUP1 LOG4 PUSH3 0xE9 JUMP JUMPDEST DUP8 MLOAD PUSH3 0x461BCD PUSH1 0xE5 SHL DUP2 MSTORE PUSH1 0x4 DUP2 ADD DUP6 SWAP1 MSTORE PUSH1 0x15 PUSH1 0x24 DUP3 ADD MSTORE PUSH32 0x496E76616C69642066656520636F6C6C6563746F720000000000000000000000 PUSH1 0x44 DUP3 ADD MSTORE PUSH1 0x64 SWAP1 REVERT JUMPDEST DUP9 MLOAD PUSH3 0x461BCD PUSH1 0xE5 SHL DUP2 MSTORE PUSH1 0x4 DUP2 ADD DUP7 SWAP1 MSTORE PUSH1 0x15 PUSH1 0x24 DUP3 ADD MSTORE PUSH32 0x496E76616C6964207661756C7420616464726573730000000000000000000000 PUSH1 0x44 DUP3 ADD MSTORE PUSH1 0x64 SWAP1 REVERT JUMPDEST DUP9 MLOAD PUSH3 0x461BCD PUSH1 0xE5 SHL DUP2 MSTORE PUSH1 0x4 DUP2 ADD DUP7 SWAP1 MSTORE PUSH1 0x16 PUSH1 0x24 DUP3 ADD MSTORE PUSH32 0x496E76616C696420657363726F77206164647265737300000000000000000000 PUSH1 0x44 DUP3 ADD MSTORE PUSH1 0x64 SWAP1 REVERT JUMPDEST PUSH1 0x0 DUP1 REVERT JUMPDEST PUSH4 0x4E487B71 PUSH1 0xE0 SHL PUSH1 0x0 MSTORE PUSH1 0x41 PUSH1 0x4 MSTORE PUSH1 0x24 PUSH1 0x0 REVERT JUMPDEST MLOAD SWAP1 PUSH1 0x1 PUSH1 0x1 PUSH1 0xA0 SHL SUB DUP3 AND DUP3 SUB PUSH3 0x2DF JUMPI JUMP INVALID PUSH1 0x80 DUP1 PUSH1 0x40 MSTORE PUSH1 0x4 CALLDATASIZE LT ISZERO PUSH2 0x13 JUMPI PUSH1 0x0 DUP1 REVERT JUMPDEST PUSH1 0x0 CALLDATALOAD PUSH1 0xE0 SHR SWAP1 DUP2 PUSH3 0x24A1B8 EQ PUSH2 0x147C JUMPI POP DUP1 PUSH4 0x1FFC9A7 EQ PUSH2 0x1426 JUMPI DUP1 PUSH4 0x67BD07A EQ PUSH2 0x140A JUMPI DUP1 PUSH4 0xC4844AA EQ PUSH2 0x13B1 JUMPI DUP1 PUSH4 0x17606024 EQ PUSH2 0x1388 JUMPI DUP1 PUSH4 0x1DAC56D3 EQ PUSH2 0x136C JUMPI DUP1 PUSH4 0x20EB5632 EQ PUSH2 0x1350 JUMPI DUP1 PUSH4 0x248A9CA3 EQ PUSH2 0x1321 JUMPI DUP1 PUSH4 0x2F2FF15D EQ PUSH2 0x126E JUMPI DUP1 PUSH4 0x34284E4B EQ PUSH2 0x1030 JUMPI DUP1 PUSH4 0x36568ABE EQ PUSH2 0xF9E JUMPI DUP1 PUSH4 0x3F4BA83A EQ PUSH2 0xF0A JUMPI DUP1 PUSH4 0x48BF1C51 EQ PUSH2 0xEEE JUMPI DUP1 PUSH4 0x4BE40FD1 EQ PUSH2 0xEB3 JUMPI DUP1 PUSH4 0x5221C1F0 EQ PUSH2 0xE3D JUMPI DUP1 PUSH4 0x53E589AC EQ PUSH2 0xE6E JUMPI DUP1 PUSH4 0x548D496F EQ PUSH2 0xE3D JUMPI DUP1 PUSH4 0x5A1C0366 EQ PUSH2 0xDD5 JUMPI DUP1 PUSH4 0x5C975ABB EQ PUSH2 0xDB2 JUMPI DUP1 PUSH4 0x68C4AC26 EQ PUSH2 0xB69 JUMPI DUP1 PUSH4 0x6C5556B7 EQ PUSH2 0xCB9 JUMPI DUP1 PUSH4 0x6C63F971 EQ PUSH2 0xC11 JUMPI DUP1 PUSH4 0x6D69FCAF EQ PUSH2 0xBA8 JUMPI DUP1 PUSH4 0x75151B63 EQ PUSH2 0xB69 JUMPI DUP1 PUSH4 0x76319190 EQ PUSH2 0xB03 JUMPI DUP1 PUSH4 0x82B12DD7 EQ PUSH2 0xAE5 JUMPI DUP1 PUSH4 0x8456CB59 EQ PUSH2 0xA8B JUMPI DUP1 PUSH4 0x87188A00 EQ PUSH2 0xA2F JUMPI DUP1 PUSH4 0x91D14854 EQ PUSH2 0x9E2 JUMPI DUP1 PUSH4 0x9822DDED EQ PUSH2 0x9B5 JUMPI DUP1 PUSH4 0xA217FDDF EQ PUSH2 0x999 JUMPI DUP1 PUSH4 0xA7F8A5E2 EQ PUSH2 0x954 JUMPI DUP1 PUSH4 0xAC2E4936 EQ PUSH2 0x923 JUMPI DUP1 PUSH4 0xC06575F4 EQ PUSH2 0x7AA JUMPI DUP1 PUSH4 0xC415B95C EQ PUSH2 0x781 JUMPI DUP1 PUSH4 0xC49BAEBE EQ PUSH2 0x746 JUMPI DUP1 PUSH4 0xC4A01587 EQ PUSH2 0x712 JUMPI DUP1 PUSH4 0xC9A4D32F EQ PUSH2 0x34A JUMPI DUP1 PUSH4 0xCDCDD548 EQ PUSH2 0x32D JUMPI DUP1 PUSH4 0xD2C35CE8 EQ PUSH2 0x277 JUMPI DUP1 PUSH4 0xD547741F EQ PUSH2 0x236 JUMPI DUP1 PUSH4 0xE1F1C4A7 EQ PUSH2 0x219 JUMPI PUSH4 0xEFC21E3F EQ PUSH2 0x1F7 JUMPI PUSH1 0x0 DUP1 REVERT JUMPDEST CALLVALUE PUSH2 0x214 JUMPI PUSH1 0x0 CALLDATASIZE PUSH1 0x3 NOT ADD SLT PUSH2 0x214 JUMPI PUSH1 0x20 PUSH1 0x40 MLOAD PUSH2 0x2105 DUP2 MSTORE RETURN JUMPDEST PUSH1 0x0 DUP1 REVERT JUMPDEST CALLVALUE PUSH2 0x214 JUMPI PUSH1 0x0 CALLDATASIZE PUSH1 0x3 NOT ADD SLT PUSH2 0x214 JUMPI PUSH1 0x20 PUSH1 0x40 MLOAD PUSH2 0x2710 DUP2 MSTORE RETURN JUMPDEST CALLVALUE PUSH2 0x214 JUMPI PUSH1 0x40 CALLDATASIZE PUSH1 0x3 NOT ADD SLT PUSH2 0x214 JUMPI PUSH2 0x275 PUSH1 0x4 CALLDATALOAD PUSH2 0x255 PUSH2 0x15FF JUMP JUMPDEST SWAP1 DUP1 PUSH1 0x0 MSTORE PUSH1 0x1 PUSH1 0x20 MSTORE PUSH2 0x270 PUSH1 0x1 PUSH1 0x40 PUSH1 0x0 KECCAK256 ADD SLOAD PUSH2 0x1986 JUMP JUMPDEST PUSH2 0x1B50 JUMP JUMPDEST STOP JUMPDEST CALLVALUE PUSH2 0x214 JUMPI PUSH1 0x20 CALLDATASIZE PUSH1 0x3 NOT ADD SLT PUSH2 0x214 JUMPI PUSH2 0x290 PUSH2 0x1615 JUMP JUMPDEST PUSH2 0x298 PUSH2 0x1678 JUMP JUMPDEST PUSH1 0x1 PUSH1 0x1 PUSH1 0xA0 SHL SUB AND DUP1 ISZERO PUSH2 0x2E8 JUMPI PUSH1 0x20 DUP2 PUSH32 0xE5693914D19C789BDEE50A362998C0BC8D035A835F9871DA5D51152F0582C34F SWAP3 PUSH1 0x1 PUSH1 0x1 PUSH1 0x60 SHL SUB PUSH1 0xA0 SHL PUSH1 0xA SLOAD AND OR PUSH1 0xA SSTORE PUSH1 0x40 MLOAD SWAP1 DUP2 MSTORE LOG1 STOP JUMPDEST PUSH1 0x40 MLOAD PUSH3 0x461BCD PUSH1 0xE5 SHL DUP2 MSTORE PUSH1 0x20 PUSH1 0x4 DUP3 ADD MSTORE PUSH1 0x19 PUSH1 0x24 DUP3 ADD MSTORE PUSH32 0x496E76616C696420636F6C6C6563746F72206164647265737300000000000000 PUSH1 0x44 DUP3 ADD MSTORE PUSH1 0x64 SWAP1 REVERT JUMPDEST CALLVALUE PUSH2 0x214 JUMPI PUSH1 0x0 CALLDATASIZE PUSH1 0x3 NOT ADD SLT PUSH2 0x214 JUMPI PUSH1 0x20 PUSH1 0x40 MLOAD PUSH2 0xA4B1 DUP2 MSTORE RETURN JUMPDEST CALLVALUE PUSH2 0x214 JUMPI PUSH1 0x80 CALLDATASIZE PUSH1 0x3 NOT ADD SLT PUSH2 0x214 JUMPI PUSH2 0x363 PUSH2 0x1615 JUMP JUMPDEST PUSH1 0x24 SWAP1 DUP2 CALLDATALOAD PUSH1 0x44 CALLDATALOAD PUSH1 0x1 PUSH1 0x1 PUSH1 0xA0 SHL SUB DUP2 AND DUP2 SUB PUSH2 0x214 JUMPI PUSH2 0x383 PUSH2 0x1D4A JUMP JUMPDEST PUSH2 0x38B PUSH2 0x1D06 JUMP JUMPDEST PUSH1 0x64 CALLDATALOAD PUSH1 0x0 MSTORE PUSH1 0x4 PUSH1 0x20 MSTORE PUSH1 0xFF PUSH1 0x40 PUSH1 0x0 KECCAK256 SLOAD AND ISZERO PUSH2 0x6F9 JUMPI PUSH1 0x1 PUSH1 0x1 PUSH1 0xA0 SHL SUB DUP2 AND PUSH1 0x0 SWAP1 DUP2 MSTORE PUSH1 0x5 PUSH1 0x20 MSTORE PUSH1 0x40 SWAP1 KECCAK256 SLOAD PUSH1 0xFF AND ISZERO PUSH2 0x6D8 JUMPI DUP2 ISZERO PUSH2 0x6C6 JUMPI PUSH1 0x1 PUSH1 0x1 PUSH1 0xA0 SHL SUB DUP4 AND ISZERO PUSH2 0x6B4 JUMPI PUSH2 0x2710 PUSH2 0x3E9 PUSH1 0x9 SLOAD DUP5 PUSH2 0x1BC6 JUMP JUMPDEST DIV SWAP1 PUSH2 0x3F5 DUP3 DUP5 PUSH2 0x1CF9 JUMP JUMPDEST SWAP3 PUSH1 0x40 MLOAD SWAP3 PUSH4 0x23B872DD PUSH1 0xE0 SHL PUSH1 0x20 DUP6 ADD MSTORE CALLER DUP8 DUP6 ADD MSTORE ADDRESS PUSH1 0x44 DUP6 ADD MSTORE DUP2 PUSH1 0x64 DUP6 ADD MSTORE PUSH1 0x64 DUP5 MSTORE PUSH1 0xA0 DUP5 ADD PUSH8 0xFFFFFFFFFFFFFFFF SWAP5 DUP1 DUP3 LT DUP7 DUP4 GT OR PUSH2 0x69F JUMPI PUSH1 0x40 SWAP2 SWAP1 SWAP2 MSTORE PUSH2 0x44E SWAP1 PUSH1 0x1 PUSH1 0x1 PUSH1 0xA0 SHL SUB DUP6 AND PUSH2 0x1DF2 JUMP JUMPDEST DUP1 PUSH2 0x67E JUMPI JUMPDEST POP PUSH1 0x8 SLOAD SWAP3 PUSH1 0x0 NOT DUP5 EQ PUSH2 0x669 JUMPI PUSH1 0x1 DUP5 ADD PUSH1 0x8 SSTORE PUSH1 0x40 MLOAD SWAP4 PUSH1 0x20 DUP6 ADD SWAP3 CALLER PUSH1 0x60 SHL DUP5 MSTORE PUSH1 0x1 PUSH1 0x1 PUSH1 0x60 SHL SUB NOT SWAP1 DUP2 DUP10 PUSH1 0x60 SHL AND PUSH1 0x34 DUP9 ADD MSTORE PUSH1 0x48 DUP8 ADD MSTORE DUP5 PUSH1 0x60 SHL AND PUSH1 0x68 DUP7 ADD MSTORE CHAINID PUSH1 0x7C DUP7 ADD MSTORE PUSH1 0x64 CALLDATALOAD PUSH1 0x9C DUP7 ADD MSTORE PUSH1 0xBC DUP6 ADD MSTORE PUSH1 0xBC DUP5 MSTORE DUP4 PUSH1 0xE0 DUP2 ADD LT SWAP1 PUSH1 0xE0 DUP6 ADD GT OR PUSH2 0x654 JUMPI PUSH1 0xE0 DUP4 ADD PUSH1 0x40 MSTORE DUP3 MLOAD SWAP1 KECCAK256 SWAP4 PUSH2 0x4DC PUSH1 0xE0 DUP5 ADD PUSH2 0x1AB3 JUMP JUMPDEST CALLER PUSH1 0xE0 DUP5 ADD MSTORE PUSH1 0x1 DUP1 PUSH1 0xA0 SHL SUB AND PUSH2 0x100 DUP4 ADD MSTORE DUP3 PUSH2 0x120 DUP4 ADD MSTORE PUSH1 0x1 DUP1 PUSH1 0xA0 SHL SUB AND PUSH2 0x140 DUP3 ADD MSTORE CHAINID PUSH2 0x160 DUP3 ADD MSTORE PUSH1 0x64 CALLDATALOAD PUSH2 0x180 DUP3 ADD MSTORE TIMESTAMP PUSH2 0x1A0 DUP3 ADD MSTORE PUSH1 0x0 PUSH2 0x1C0 DUP3 ADD MSTORE DUP3 PUSH2 0x1E0 DUP3 ADD MSTORE PUSH1 0x0 PUSH2 0x200 DUP3 ADD MSTORE DUP3 PUSH1 0x0 MSTORE PUSH1 0x3 PUSH1 0x20 MSTORE PUSH2 0x200 PUSH1 0x9 PUSH1 0x40 PUSH1 0x0 KECCAK256 PUSH1 0x1 DUP1 PUSH1 0xA0 SHL SUB PUSH1 0xE0 DUP6 ADD MLOAD AND PUSH1 0x1 PUSH1 0x1 PUSH1 0x60 SHL SUB PUSH1 0xA0 SHL SWAP1 DUP2 DUP4 SLOAD AND OR DUP3 SSTORE PUSH1 0x1 DUP3 ADD PUSH1 0x1 DUP1 PUSH1 0xA0 SHL SUB PUSH2 0x100 DUP8 ADD MLOAD AND DUP3 DUP3 SLOAD AND OR SWAP1 SSTORE PUSH2 0x120 DUP6 ADD MLOAD PUSH1 0x2 DUP4 ADD SSTORE PUSH1 0x3 DUP3 ADD SWAP1 PUSH1 0x1 DUP1 PUSH1 0xA0 SHL SUB PUSH2 0x140 DUP8 ADD MLOAD AND SWAP1 DUP3 SLOAD AND OR SWAP1 SSTORE PUSH2 0x160 DUP5 ADD MLOAD PUSH1 0x4 DUP3 ADD SSTORE PUSH2 0x180 DUP5 ADD MLOAD PUSH1 0x5 DUP3 ADD SSTORE PUSH2 0x1A0 DUP5 ADD MLOAD PUSH1 0x6 DUP3 ADD SSTORE PUSH2 0x1C0 DUP5 ADD MLOAD PUSH1 0x7 DUP3 ADD SSTORE PUSH2 0x1E0 DUP5 ADD MLOAD PUSH1 0x8 DUP3 ADD SSTORE ADD SWAP2 ADD MLOAD PUSH1 0x5 DUP2 LT ISZERO PUSH2 0x63F JUMPI PUSH1 0x20 SWAP5 POP PUSH1 0xFF DUP1 NOT DUP4 SLOAD AND SWAP2 AND OR SWAP1 SSTORE PUSH1 0x40 MLOAD SWAP1 DUP2 MSTORE CHAINID DUP4 DUP3 ADD MSTORE PUSH1 0x64 CALLDATALOAD PUSH1 0x40 DUP3 ADD MSTORE DUP2 PUSH32 0xCB59E257E7E6C29E3B2D154443821F4C7DFDEE5401F775E13DB6D7421C51D580 PUSH1 0x60 CALLER SWAP4 LOG3 PUSH1 0x1 PUSH1 0x0 SSTORE PUSH1 0x40 MLOAD SWAP1 DUP2 MSTORE RETURN JUMPDEST DUP5 PUSH4 0x4E487B71 PUSH1 0xE0 SHL PUSH1 0x0 MSTORE PUSH1 0x21 PUSH1 0x4 MSTORE PUSH1 0x0 REVERT JUMPDEST DUP6 PUSH4 0x4E487B71 PUSH1 0xE0 SHL PUSH1 0x0 MSTORE PUSH1 0x41 PUSH1 0x4 MSTORE PUSH1 0x0 REVERT JUMPDEST DUP7 PUSH4 0x4E487B71 PUSH1 0xE0 SHL PUSH1 0x0 MSTORE PUSH1 0x11 PUSH1 0x4 MSTORE PUSH1 0x0 REVERT JUMPDEST PUSH1 0xA SLOAD PUSH2 0x699 SWAP2 SWAP1 PUSH1 0x1 PUSH1 0x1 PUSH1 0xA0 SHL SUB SWAP1 DUP2 AND SWAP1 DUP6 AND PUSH2 0x1DA0 JUMP JUMPDEST DUP7 PUSH2 0x454 JUMP JUMPDEST DUP9 PUSH4 0x4E487B71 PUSH1 0xE0 SHL PUSH1 0x0 MSTORE PUSH1 0x41 PUSH1 0x4 MSTORE PUSH1 0x0 REVERT JUMPDEST PUSH1 0x40 MLOAD PUSH4 0x4E469669 PUSH1 0xE1 SHL DUP2 MSTORE PUSH1 0x4 SWAP1 REVERT JUMPDEST PUSH1 0x40 MLOAD PUSH4 0x162908E3 PUSH1 0xE1 SHL DUP2 MSTORE PUSH1 0x4 SWAP1 REVERT JUMPDEST PUSH1 0x40 MLOAD PUSH4 0x5F8B555B PUSH1 0xE1 SHL DUP2 MSTORE PUSH1 0x1 PUSH1 0x1 PUSH1 0xA0 SHL SUB SWAP1 SWAP2 AND PUSH1 0x4 DUP3 ADD MSTORE DUP4 SWAP1 REVERT JUMPDEST PUSH1 0x40 MLOAD PUSH4 0x1874AB93 PUSH1 0xE3 SHL DUP2 MSTORE PUSH1 0x64 CALLDATALOAD PUSH1 0x4 DUP3 ADD MSTORE DUP5 SWAP1 REVERT JUMPDEST CALLVALUE PUSH2 0x214 JUMPI PUSH1 0x20 CALLDATASIZE PUSH1 0x3 NOT ADD SLT PUSH2 0x214 JUMPI PUSH1 0x4 CALLDATALOAD PUSH1 0x0 MSTORE PUSH1 0x7 PUSH1 0x20 MSTORE PUSH1 0x20 PUSH1 0x1 DUP1 PUSH1 0xA0 SHL SUB PUSH1 0x40 PUSH1 0x0 KECCAK256 SLOAD AND PUSH1 0x40 MLOAD SWAP1 DUP2 MSTORE RETURN JUMPDEST CALLVALUE PUSH2 0x214 JUMPI PUSH1 0x0 CALLDATASIZE PUSH1 0x3 NOT ADD SLT PUSH2 0x214 JUMPI PUSH1 0x20 PUSH1 0x40 MLOAD PUSH32 0x21702C8AF46127C7FA207F89D0B0A8441BB32959A0AC7DF790E9AB1A25C98926 DUP2 MSTORE RETURN JUMPDEST CALLVALUE PUSH2 0x214 JUMPI PUSH1 0x0 CALLDATASIZE PUSH1 0x3 NOT ADD SLT PUSH2 0x214 JUMPI PUSH1 0xA SLOAD PUSH1 0x40 MLOAD PUSH1 0x1 PUSH1 0x1 PUSH1 0xA0 SHL SUB SWAP1 SWAP2 AND DUP2 MSTORE PUSH1 0x20 SWAP1 RETURN JUMPDEST CALLVALUE PUSH2 0x214 JUMPI PUSH2 0x7B8 CALLDATASIZE PUSH2 0x162B JUMP JUMPDEST POP POP PUSH2 0x7C2 PUSH2 0x1D4A JUMP JUMPDEST PUSH2 0x7CA PUSH2 0x183F JUMP JUMPDEST DUP1 PUSH1 0x0 MSTORE PUSH1 0x3 PUSH1 0x20 MSTORE PUSH1 0x40 PUSH1 0x0 KECCAK256 SWAP1 PUSH1 0x6 PUSH1 0x20 MSTORE PUSH1 0xFF PUSH1 0x40 PUSH1 0x0 KECCAK256 SLOAD AND PUSH2 0x90B JUMPI PUSH1 0x9 DUP3 ADD PUSH1 0xFF DUP2 SLOAD AND PUSH1 0x5 DUP2 LT ISZERO PUSH2 0x8F5 JUMPI PUSH1 0x1 DUP2 SUB PUSH2 0x8CE JUMPI POP PUSH2 0x814 PUSH1 0x6 DUP5 ADD SLOAD TIMESTAMP PUSH2 0x1CF9 JUMP JUMPDEST SWAP3 PUSH2 0x824 PUSH1 0x2 DUP3 ADD SWAP5 DUP6 SLOAD PUSH2 0x1FDA JUMP JUMPDEST SWAP2 DUP4 PUSH1 0x0 MSTORE PUSH1 0x6 PUSH1 0x20 MSTORE PUSH1 0x2 PUSH1 0x40 PUSH1 0x0 KECCAK256 PUSH1 0xFF NOT SWAP1 PUSH1 0x1 DUP3 DUP3 SLOAD AND OR SWAP1 SSTORE DUP3 SLOAD AND OR SWAP1 SSTORE DUP2 PUSH1 0x7 DUP3 ADD SSTORE DUP4 SLOAD SWAP2 DUP1 DUP4 ADD DUP1 SWAP4 GT PUSH2 0x8B8 JUMPI PUSH32 0x43D0DF41E1C07A3D313B4527A8A17595BFC156A6CC0D47045FE63B3AAFFB2B47 SWAP3 PUSH1 0x40 SWAP3 PUSH2 0x8A1 PUSH1 0x1 DUP1 PUSH1 0xA0 SHL SUB SWAP3 PUSH1 0x1 DUP5 PUSH1 0x3 DUP6 ADD SLOAD AND SWAP4 ADD SWAP3 DUP5 DUP5 SLOAD AND SWAP1 PUSH2 0x1DA0 JUMP JUMPDEST SLOAD AND SWAP5 SLOAD SWAP1 DUP3 MLOAD SWAP2 DUP3 MSTORE PUSH1 0x20 DUP3 ADD MSTORE LOG3 PUSH1 0x1 PUSH1 0x0 SSTORE STOP JUMPDEST PUSH4 0x4E487B71 PUSH1 0xE0 SHL PUSH1 0x0 MSTORE PUSH1 0x11 PUSH1 0x4 MSTORE PUSH1 0x24 PUSH1 0x0 REVERT JUMPDEST PUSH1 0x40 MLOAD PUSH4 0xF924664D PUSH1 0xE0 SHL DUP2 MSTORE PUSH1 0x44 SWAP2 PUSH2 0x8EC SWAP1 PUSH1 0x4 DUP4 ADD SWAP1 PUSH2 0x15F2 JUMP JUMPDEST PUSH1 0x1 PUSH1 0x24 DUP3 ADD MSTORE REVERT JUMPDEST PUSH4 0x4E487B71 PUSH1 0xE0 SHL PUSH1 0x0 MSTORE PUSH1 0x21 PUSH1 0x4 MSTORE PUSH1 0x24 PUSH1 0x0 REVERT JUMPDEST PUSH1 0x24 SWAP1 PUSH1 0x40 MLOAD SWAP1 PUSH4 0x17CC7429 PUSH1 0xE3 SHL DUP3 MSTORE PUSH1 0x4 DUP3 ADD MSTORE REVERT JUMPDEST CALLVALUE PUSH2 0x214 JUMPI PUSH1 0x20 CALLDATASIZE PUSH1 0x3 NOT ADD SLT PUSH2 0x214 JUMPI PUSH1 0x4 CALLDATALOAD PUSH1 0x0 MSTORE PUSH1 0x6 PUSH1 0x20 MSTORE PUSH1 0x20 PUSH1 0xFF PUSH1 0x40 PUSH1 0x0 KECCAK256 SLOAD AND PUSH1 0x40 MLOAD SWAP1 ISZERO ISZERO DUP2 MSTORE RETURN JUMPDEST CALLVALUE PUSH2 0x214 JUMPI PUSH1 0x0 CALLDATASIZE PUSH1 0x3 NOT ADD SLT PUSH2 0x214 JUMPI PUSH1 0x40 MLOAD PUSH32 0x0 PUSH1 0x1 PUSH1 0x1 PUSH1 0xA0 SHL SUB AND DUP2 MSTORE PUSH1 0x20 SWAP1 RETURN JUMPDEST CALLVALUE PUSH2 0x214 JUMPI PUSH1 0x0 CALLDATASIZE PUSH1 0x3 NOT ADD SLT PUSH2 0x214 JUMPI PUSH1 0x20 PUSH1 0x40 MLOAD PUSH1 0x0 DUP2 MSTORE RETURN JUMPDEST CALLVALUE PUSH2 0x214 JUMPI PUSH1 0x20 CALLDATASIZE PUSH1 0x3 NOT ADD SLT PUSH2 0x214 JUMPI PUSH1 0x20 PUSH2 0x2710 PUSH2 0x9D9 PUSH1 0x9 SLOAD PUSH1 0x4 CALLDATALOAD PUSH2 0x1BC6 JUMP JUMPDEST DIV PUSH1 0x40 MLOAD SWAP1 DUP2 MSTORE RETURN JUMPDEST CALLVALUE PUSH2 0x214 JUMPI PUSH1 0x40 CALLDATASIZE PUSH1 0x3 NOT ADD SLT PUSH2 0x214 JUMPI PUSH2 0x9FB PUSH2 0x15FF JUMP JUMPDEST PUSH1 0x4 CALLDATALOAD PUSH1 0x0 MSTORE PUSH1 0x1 PUSH1 0x20 MSTORE PUSH1 0x40 PUSH1 0x0 KECCAK256 SWAP1 PUSH1 0x1 DUP1 PUSH1 0xA0 SHL SUB AND PUSH1 0x0 MSTORE PUSH1 0x20 MSTORE PUSH1 0x20 PUSH1 0xFF PUSH1 0x40 PUSH1 0x0 KECCAK256 SLOAD AND PUSH1 0x40 MLOAD SWAP1 ISZERO ISZERO DUP2 MSTORE RETURN JUMPDEST CALLVALUE PUSH2 0x214 JUMPI PUSH1 0x20 CALLDATASIZE PUSH1 0x3 NOT ADD SLT PUSH2 0x214 JUMPI PUSH1 0x4 CALLDATALOAD PUSH2 0xA4B PUSH2 0x1678 JUMP JUMPDEST DUP1 PUSH1 0x0 MSTORE PUSH1 0x4 PUSH1 0x20 MSTORE PUSH1 0x40 PUSH1 0x0 KECCAK256 PUSH1 0x1 PUSH1 0xFF NOT DUP3 SLOAD AND OR SWAP1 SSTORE PUSH32 0xBBA9D55E9FD1A441B1617724E2FDB76777D15EC77AB2B72AC15952CBE97085DB PUSH1 0x0 DUP1 LOG2 STOP JUMPDEST CALLVALUE PUSH2 0x214 JUMPI PUSH1 0x0 CALLDATASIZE PUSH1 0x3 NOT ADD SLT PUSH2 0x214 JUMPI PUSH2 0xAA4 PUSH2 0x1678 JUMP JUMPDEST PUSH2 0xAAC PUSH2 0x1D06 JUMP JUMPDEST PUSH1 0x1 PUSH1 0xFF NOT PUSH1 0x2 SLOAD AND OR PUSH1 0x2 SSTORE PUSH32 0x62E78CEA01BEE320CD4E420270B5EA74000D11B0C9F74754EBDBFC544B05A258 PUSH1 0x20 PUSH1 0x40 MLOAD CALLER DUP2 MSTORE LOG1 STOP JUMPDEST CALLVALUE PUSH2 0x214 JUMPI PUSH1 0x0 CALLDATASIZE PUSH1 0x3 NOT ADD SLT PUSH2 0x214 JUMPI PUSH1 0x20 PUSH1 0x9 SLOAD PUSH1 0x40 MLOAD SWAP1 DUP2 MSTORE RETURN JUMPDEST CALLVALUE PUSH2 0x214 JUMPI PUSH1 0x20 CALLDATASIZE PUSH1 0x3 NOT ADD SLT PUSH2 0x214 JUMPI PUSH2 0xB1C PUSH2 0x1615 JUMP JUMPDEST PUSH2 0xB24 PUSH2 0x1678 JUMP JUMPDEST PUSH1 0x1 PUSH1 0x1 PUSH1 0xA0 SHL SUB AND PUSH1 0x0 DUP2 DUP2 MSTORE PUSH1 0x5 PUSH1 0x20 MSTORE PUSH1 0x40 DUP2 KECCAK256 DUP1 SLOAD PUSH1 0xFF NOT AND SWAP1 SSTORE PUSH32 0x4C910B69FE65A61F7531B9C5042B2329CA7179C77290AA7E2EB3AFA3C8511FD3 SWAP1 DUP1 LOG2 STOP JUMPDEST CALLVALUE PUSH2 0x214 JUMPI PUSH1 0x20 CALLDATASIZE PUSH1 0x3 NOT ADD SLT PUSH2 0x214 JUMPI PUSH1 0x1 PUSH1 0x1 PUSH1 0xA0 SHL SUB PUSH2 0xB8A PUSH2 0x1615 JUMP JUMPDEST AND PUSH1 0x0 MSTORE PUSH1 0x5 PUSH1 0x20 MSTORE PUSH1 0x20 PUSH1 0xFF PUSH1 0x40 PUSH1 0x0 KECCAK256 SLOAD AND PUSH1 0x40 MLOAD SWAP1 ISZERO ISZERO DUP2 MSTORE RETURN JUMPDEST CALLVALUE PUSH2 0x214 JUMPI PUSH1 0x20 CALLDATASIZE PUSH1 0x3 NOT ADD SLT PUSH2 0x214 JUMPI PUSH2 0xBC1 PUSH2 0x1615 JUMP JUMPDEST PUSH2 0xBC9 PUSH2 0x1678 JUMP JUMPDEST PUSH1 0x1 PUSH1 0x1 PUSH1 0xA0 SHL SUB AND PUSH1 0x0 DUP2 DUP2 MSTORE PUSH1 0x5 PUSH1 0x20 MSTORE PUSH1 0x40 DUP2 KECCAK256 DUP1 SLOAD PUSH1 0xFF NOT AND PUSH1 0x1 OR SWAP1 SSTORE PUSH32 0x784C8F4DBF0FFEDD6E72C76501C545A70F8B203B30A26CE542BF92BA87C248A4 SWAP1 DUP1 LOG2 STOP JUMPDEST CALLVALUE PUSH2 0x214 JUMPI PUSH1 0x20 CALLDATASIZE PUSH1 0x3 NOT ADD SLT PUSH2 0x214 JUMPI PUSH1 0x4 CALLDATALOAD PUSH1 0x0 MSTORE PUSH1 0x3 PUSH1 0x20 MSTORE PUSH2 0x140 PUSH1 0x40 PUSH1 0x0 KECCAK256 PUSH2 0xCB7 PUSH1 0x1 DUP1 PUSH1 0xA0 SHL SUB DUP1 DUP4 SLOAD AND SWAP3 DUP2 PUSH1 0x1 DUP3 ADD SLOAD AND SWAP2 PUSH1 0x2 DUP3 ADD SLOAD SWAP1 PUSH1 0x3 DUP4 ADD SLOAD AND PUSH1 0x4 DUP4 ADD SLOAD PUSH1 0x5 DUP5 ADD SLOAD SWAP1 PUSH1 0x6 DUP6 ADD SLOAD SWAP3 PUSH1 0x7 DUP7 ADD SLOAD SWAP5 PUSH1 0xFF PUSH1 0x9 PUSH1 0x8 DUP10 ADD SLOAD SWAP9 ADD SLOAD AND SWAP8 PUSH1 0x40 MLOAD SWAP11 DUP12 MSTORE PUSH1 0x20 DUP12 ADD MSTORE PUSH1 0x40 DUP11 ADD MSTORE PUSH1 0x60 DUP10 ADD MSTORE PUSH1 0x80 DUP9 ADD MSTORE PUSH1 0xA0 DUP8 ADD MSTORE PUSH1 0xC0 DUP7 ADD MSTORE PUSH1 0xE0 DUP6 ADD MSTORE PUSH2 0x100 DUP5 ADD MSTORE PUSH2 0x120 DUP4 ADD SWAP1 PUSH2 0x15F2 JUMP JUMPDEST RETURN JUMPDEST CALLVALUE PUSH2 0x214 JUMPI PUSH2 0xCC7 CALLDATASIZE PUSH2 0x162B JUMP JUMPDEST SWAP1 PUSH2 0xCD0 PUSH2 0x183F JUMP JUMPDEST DUP3 PUSH1 0x0 MSTORE PUSH1 0x3 PUSH1 0x20 MSTORE PUSH1 0x40 PUSH1 0x0 KECCAK256 PUSH1 0x9 DUP2 ADD DUP1 SLOAD PUSH1 0xFF DUP2 AND PUSH1 0x5 DUP2 LT ISZERO PUSH2 0x8F5 JUMPI PUSH1 0x2 DUP2 EQ DUP1 ISZERO PUSH2 0xDA8 JUMPI JUMPDEST PUSH2 0xD81 JUMPI POP PUSH1 0xFF NOT AND PUSH1 0x4 OR SWAP1 SSTORE PUSH1 0x3 DUP2 ADD SLOAD DUP2 SLOAD PUSH1 0x2 SWAP1 SWAP3 ADD SLOAD PUSH32 0xD2B4DD79C80AD92DA5A6DD7455DF9E531B9AD078FE353998DC6FC5C442DDC34F SWAP5 SWAP4 PUSH1 0x40 SWAP4 SWAP1 SWAP3 PUSH2 0xD56 SWAP3 SWAP2 PUSH1 0x1 PUSH1 0x1 PUSH1 0xA0 SHL SUB SWAP1 DUP2 AND SWAP2 AND PUSH2 0x1DA0 JUMP JUMPDEST DUP3 DUP3 MLOAD SWAP4 DUP5 SWAP3 PUSH1 0x20 DUP5 MSTORE DUP2 PUSH1 0x20 DUP6 ADD MSTORE DUP5 DUP5 ADD CALLDATACOPY PUSH1 0x0 DUP3 DUP3 ADD DUP5 ADD MSTORE PUSH1 0x1F ADD PUSH1 0x1F NOT AND DUP2 ADD SUB ADD SWAP1 LOG2 STOP JUMPDEST PUSH1 0x40 MLOAD PUSH4 0xF924664D PUSH1 0xE0 SHL DUP2 MSTORE PUSH1 0x44 SWAP2 PUSH2 0xD9F SWAP1 PUSH1 0x4 DUP4 ADD SWAP1 PUSH2 0x15F2 JUMP JUMPDEST PUSH1 0x0 PUSH1 0x24 DUP3 ADD MSTORE REVERT JUMPDEST POP PUSH1 0x4 DUP2 EQ PUSH2 0xCFC JUMP JUMPDEST CALLVALUE PUSH2 0x214 JUMPI PUSH1 0x0 CALLDATASIZE PUSH1 0x3 NOT ADD SLT PUSH2 0x214 JUMPI PUSH1 0x20 PUSH1 0xFF PUSH1 0x2 SLOAD AND PUSH1 0x40 MLOAD SWAP1 ISZERO ISZERO DUP2 MSTORE RETURN JUMPDEST CALLVALUE PUSH2 0x214 JUMPI PUSH1 0x20 CALLDATASIZE PUSH1 0x3 NOT ADD SLT PUSH2 0x214 JUMPI PUSH1 0x4 CALLDATALOAD PUSH2 0xDF1 PUSH2 0x1678 JUMP JUMPDEST PUSH2 0x3E8 DUP2 GT PUSH2 0xE2B JUMPI PUSH1 0x20 DUP2 PUSH32 0x8C4D35E54A3F2EF1134138FD8EA3DAEE6A3C89E10D2665996BABDF70261E2C76 SWAP3 PUSH1 0x9 SSTORE PUSH1 0x40 MLOAD SWAP1 DUP2 MSTORE LOG1 STOP JUMPDEST PUSH1 0x40 MLOAD PUSH4 0x58D620B3 PUSH1 0xE0 SHL DUP2 MSTORE PUSH1 0x4 SWAP1 REVERT JUMPDEST CALLVALUE PUSH2 0x214 JUMPI PUSH1 0x20 CALLDATASIZE PUSH1 0x3 NOT ADD SLT PUSH2 0x214 JUMPI PUSH1 0x4 CALLDATALOAD PUSH1 0x0 MSTORE PUSH1 0x4 PUSH1 0x20 MSTORE PUSH1 0x20 PUSH1 0xFF PUSH1 0x40 PUSH1 0x0 KECCAK256 SLOAD AND PUSH1 0x40 MLOAD SWAP1 ISZERO ISZERO DUP2 MSTORE RETURN JUMPDEST CALLVALUE PUSH2 0x214 JUMPI PUSH1 0x0 CALLDATASIZE PUSH1 0x3 NOT ADD SLT PUSH2 0x214 JUMPI PUSH1 0x40 MLOAD PUSH32 0x0 PUSH1 0x1 PUSH1 0x1 PUSH1 0xA0 SHL SUB AND DUP2 MSTORE PUSH1 0x20 SWAP1 RETURN JUMPDEST CALLVALUE PUSH2 0x214 JUMPI PUSH1 0x0 CALLDATASIZE PUSH1 0x3 NOT ADD SLT PUSH2 0x214 JUMPI PUSH1 0x20 PUSH1 0x40 MLOAD PUSH32 0x7045ADFE67D5F94DBFDDCDB901E44BEF55BAACABB398C7CDDDA1BFD7620B1568 DUP2 MSTORE RETURN JUMPDEST CALLVALUE PUSH2 0x214 JUMPI PUSH1 0x0 CALLDATASIZE PUSH1 0x3 NOT ADD SLT PUSH2 0x214 JUMPI PUSH1 0x20 PUSH1 0x40 MLOAD PUSH1 0x2 DUP2 MSTORE RETURN JUMPDEST CALLVALUE PUSH2 0x214 JUMPI PUSH1 0x0 CALLDATASIZE PUSH1 0x3 NOT ADD SLT PUSH2 0x214 JUMPI PUSH2 0xF23 PUSH2 0x1678 JUMP JUMPDEST PUSH1 0x2 SLOAD PUSH1 0xFF DUP2 AND ISZERO PUSH2 0xF62 JUMPI PUSH1 0xFF NOT AND PUSH1 0x2 SSTORE PUSH32 0x5DB9EE0A495BF2E6FF9C91A7834C1BA4FDD244A5E8AA4E537BD38AEAE4B073AA PUSH1 0x20 PUSH1 0x40 MLOAD CALLER DUP2 MSTORE LOG1 STOP JUMPDEST PUSH1 0x40 MLOAD PUSH3 0x461BCD PUSH1 0xE5 SHL DUP2 MSTORE PUSH1 0x20 PUSH1 0x4 DUP3 ADD MSTORE PUSH1 0x14 PUSH1 0x24 DUP3 ADD MSTORE PUSH20 0x14185D5CD8589B194E881B9BDD081C185D5CD959 PUSH1 0x62 SHL PUSH1 0x44 DUP3 ADD MSTORE PUSH1 0x64 SWAP1 REVERT JUMPDEST CALLVALUE PUSH2 0x214 JUMPI PUSH1 0x40 CALLDATASIZE PUSH1 0x3 NOT ADD SLT PUSH2 0x214 JUMPI PUSH2 0xFB7 PUSH2 0x15FF JUMP JUMPDEST CALLER PUSH1 0x1 PUSH1 0x1 PUSH1 0xA0 SHL SUB DUP3 AND SUB PUSH2 0xFD3 JUMPI PUSH2 0x275 SWAP1 PUSH1 0x4 CALLDATALOAD PUSH2 0x1B50 JUMP JUMPDEST PUSH1 0x40 MLOAD PUSH3 0x461BCD PUSH1 0xE5 SHL DUP2 MSTORE PUSH1 0x20 PUSH1 0x4 DUP3 ADD MSTORE PUSH1 0x2F PUSH1 0x24 DUP3 ADD MSTORE PUSH32 0x416363657373436F6E74726F6C3A2063616E206F6E6C792072656E6F756E6365 PUSH1 0x44 DUP3 ADD MSTORE PUSH15 0x103937B632B9903337B91039B2B633 PUSH1 0x89 SHL PUSH1 0x64 DUP3 ADD MSTORE PUSH1 0x84 SWAP1 REVERT JUMPDEST CALLVALUE PUSH2 0x214 JUMPI PUSH1 0x20 DUP1 PUSH1 0x3 NOT CALLDATASIZE ADD SLT PUSH2 0x214 JUMPI PUSH1 0x4 CALLDATALOAD PUSH32 0x21702C8AF46127C7FA207F89D0B0A8441BB32959A0AC7DF790E9AB1A25C98926 DUP1 PUSH1 0x0 MSTORE PUSH1 0x1 SWAP1 DUP2 DUP5 MSTORE PUSH1 0x40 PUSH1 0x0 KECCAK256 CALLER PUSH1 0x0 MSTORE DUP5 MSTORE PUSH1 0xFF PUSH1 0x40 PUSH1 0x0 KECCAK256 SLOAD AND ISZERO PUSH2 0x10E4 JUMPI POP DUP2 PUSH1 0x0 MSTORE PUSH1 0x3 DUP4 MSTORE PUSH1 0x9 PUSH1 0x40 PUSH1 0x0 KECCAK256 ADD SWAP1 DUP2 SLOAD PUSH1 0xFF DUP2 AND PUSH1 0x5 DUP2 LT ISZERO PUSH2 0x8F5 JUMPI DUP1 PUSH2 0xD81 JUMPI POP PUSH1 0xFF NOT AND OR SWAP1 SSTORE PUSH1 0x40 MLOAD TIMESTAMP DUP2 MSTORE CALLER SWAP3 PUSH32 0xD7B0F99D057BC9987014E38568DE5D95BA76962296F6CF10DF2E891FD78232D8 SWAP2 LOG3 STOP JUMPDEST SWAP1 SWAP2 POP PUSH2 0x10F0 CALLER PUSH2 0x1BEA JUMP JUMPDEST PUSH1 0x40 MLOAD SWAP2 PUSH2 0x10FD DUP4 PUSH2 0x1AE6 JUMP JUMPDEST PUSH1 0x42 DUP4 MSTORE DUP5 DUP4 ADD SWAP4 PUSH1 0x60 CALLDATASIZE DUP7 CALLDATACOPY DUP4 MLOAD ISZERO PUSH2 0x1258 JUMPI PUSH1 0x30 DUP6 MSTORE8 DUP4 MLOAD DUP2 LT ISZERO PUSH2 0x1258 JUMPI PUSH1 0x78 PUSH1 0x21 DUP6 ADD MSTORE8 PUSH1 0x41 SWAP1 JUMPDEST DUP1 DUP3 GT PUSH2 0x1214 JUMPI POP POP PUSH2 0x11D1 JUMPI PUSH2 0x11CD SWAP4 PUSH2 0x117D SWAP4 PUSH2 0x11B5 SWAP4 PUSH2 0x11A6 PUSH1 0x48 SWAP5 PUSH1 0x40 MLOAD SWAP8 DUP6 PUSH23 0x20B1B1B2B9B9A1B7B73A3937B61D1030B1B1B7BAB73A1 PUSH1 0x4D SHL DUP11 SWAP8 DUP9 ADD MSTORE DUP3 MLOAD SWAP3 DUP4 SWAP2 PUSH1 0x37 DUP10 ADD SWAP2 ADD PUSH2 0x1A90 JUMP JUMPDEST DUP5 ADD SWAP2 PUSH17 0x1034B99036B4B9B9B4B733903937B6329 PUSH1 0x7D SHL PUSH1 0x37 DUP5 ADD MSTORE MLOAD DUP1 SWAP4 DUP7 DUP5 ADD SWAP1 PUSH2 0x1A90 JUMP JUMPDEST ADD SUB PUSH1 0x28 DUP2 ADD DUP5 MSTORE ADD DUP3 PUSH2 0x1B02 JUMP JUMPDEST PUSH1 0x40 MLOAD PUSH3 0x461BCD PUSH1 0xE5 SHL DUP2 MSTORE SWAP2 DUP3 SWAP2 PUSH1 0x4 DUP4 ADD PUSH2 0x1B24 JUMP JUMPDEST SUB SWAP1 REVERT JUMPDEST PUSH1 0x64 DUP5 PUSH1 0x40 MLOAD SWAP1 PUSH3 0x461BCD PUSH1 0xE5 SHL DUP3 MSTORE DUP1 PUSH1 0x4 DUP4 ADD MSTORE PUSH1 0x24 DUP3 ADD MSTORE PUSH32 0x537472696E67733A20686578206C656E67746820696E73756666696369656E74 PUSH1 0x44 DUP3 ADD MSTORE REVERT JUMPDEST SWAP1 SWAP2 PUSH1 0xF DUP2 AND PUSH1 0x10 DUP2 LT ISZERO PUSH2 0x1258 JUMPI PUSH16 0x181899199A1A9B1B9C1CB0B131B232B3 PUSH1 0x81 SHL SWAP1 BYTE PUSH2 0x1243 DUP5 DUP8 PUSH2 0x1BD9 JUMP JUMPDEST MSTORE8 PUSH1 0x4 SHR SWAP2 DUP1 ISZERO PUSH2 0x8B8 JUMPI PUSH1 0x0 NOT ADD SWAP1 PUSH2 0x1129 JUMP JUMPDEST PUSH4 0x4E487B71 PUSH1 0xE0 SHL PUSH1 0x0 MSTORE PUSH1 0x32 PUSH1 0x4 MSTORE PUSH1 0x24 PUSH1 0x0 REVERT JUMPDEST CALLVALUE PUSH2 0x214 JUMPI PUSH1 0x40 CALLDATASIZE PUSH1 0x3 NOT ADD SLT PUSH2 0x214 JUMPI PUSH1 0x4 CALLDATALOAD PUSH2 0x128A PUSH2 0x15FF JUMP JUMPDEST DUP2 PUSH1 0x0 MSTORE PUSH1 0x1 PUSH1 0x20 MSTORE PUSH2 0x12A4 PUSH1 0x1 PUSH1 0x40 PUSH1 0x0 KECCAK256 ADD SLOAD PUSH2 0x1986 JUMP JUMPDEST DUP2 PUSH1 0x0 MSTORE PUSH1 0x1 PUSH1 0x20 MSTORE PUSH1 0x40 PUSH1 0x0 KECCAK256 SWAP1 PUSH1 0x1 DUP1 PUSH1 0xA0 SHL SUB AND SWAP1 DUP2 PUSH1 0x0 MSTORE PUSH1 0x20 MSTORE PUSH1 0xFF PUSH1 0x40 PUSH1 0x0 KECCAK256 SLOAD AND ISZERO PUSH2 0x12D3 JUMPI STOP JUMPDEST DUP2 PUSH1 0x0 MSTORE PUSH1 0x1 PUSH1 0x20 MSTORE PUSH1 0x40 PUSH1 0x0 KECCAK256 DUP2 PUSH1 0x0 MSTORE PUSH1 0x20 MSTORE PUSH1 0x40 PUSH1 0x0 KECCAK256 PUSH1 0x1 PUSH1 0xFF NOT DUP3 SLOAD AND OR SWAP1 SSTORE CALLER SWAP2 PUSH32 0x2F8788117E7EFF1D82E926EC794901D17C78024A50270940304540A733656F0D PUSH1 0x0 DUP1 LOG4 STOP JUMPDEST CALLVALUE PUSH2 0x214 JUMPI PUSH1 0x20 CALLDATASIZE PUSH1 0x3 NOT ADD SLT PUSH2 0x214 JUMPI PUSH1 0x4 CALLDATALOAD PUSH1 0x0 MSTORE PUSH1 0x1 PUSH1 0x20 MSTORE PUSH1 0x20 PUSH1 0x1 PUSH1 0x40 PUSH1 0x0 KECCAK256 ADD SLOAD PUSH1 0x40 MLOAD SWAP1 DUP2 MSTORE RETURN JUMPDEST CALLVALUE PUSH2 0x214 JUMPI PUSH1 0x0 CALLDATASIZE PUSH1 0x3 NOT ADD SLT PUSH2 0x214 JUMPI PUSH1 0x20 PUSH1 0x40 MLOAD PUSH1 0x89 DUP2 MSTORE RETURN JUMPDEST CALLVALUE PUSH2 0x214 JUMPI PUSH1 0x0 CALLDATASIZE PUSH1 0x3 NOT ADD SLT PUSH2 0x214 JUMPI PUSH1 0x20 PUSH1 0x40 MLOAD PUSH1 0x1 DUP2 MSTORE RETURN JUMPDEST CALLVALUE PUSH2 0x214 JUMPI PUSH1 0x40 CALLDATASIZE PUSH1 0x3 NOT ADD SLT PUSH2 0x214 JUMPI PUSH1 0x20 PUSH2 0x13A9 PUSH1 0x24 CALLDATALOAD PUSH1 0x4 CALLDATALOAD PUSH2 0x1FDA JUMP JUMPDEST PUSH1 0x40 MLOAD SWAP1 DUP2 MSTORE RETURN JUMPDEST CALLVALUE PUSH2 0x214 JUMPI PUSH1 0x20 CALLDATASIZE PUSH1 0x3 NOT ADD SLT PUSH2 0x214 JUMPI PUSH1 0x4 CALLDATALOAD PUSH2 0x13CD PUSH2 0x1678 JUMP JUMPDEST DUP1 PUSH1 0x0 MSTORE PUSH1 0x4 PUSH1 0x20 MSTORE PUSH1 0x40 PUSH1 0x0 KECCAK256 PUSH1 0xFF NOT DUP2 SLOAD AND SWAP1 SSTORE PUSH32 0x11A9D1A77F76361ED131C19B1DC5758504C51DBDE2E49FC973A0EF9577AD13D5 PUSH1 0x0 DUP1 LOG2 STOP JUMPDEST CALLVALUE PUSH2 0x214 JUMPI PUSH1 0x0 CALLDATASIZE PUSH1 0x3 NOT ADD SLT PUSH2 0x214 JUMPI PUSH1 0x20 PUSH1 0x40 MLOAD PUSH1 0x3 DUP2 MSTORE RETURN JUMPDEST CALLVALUE PUSH2 0x214 JUMPI PUSH1 0x20 CALLDATASIZE PUSH1 0x3 NOT ADD SLT PUSH2 0x214 JUMPI PUSH1 0x4 CALLDATALOAD PUSH4 0xFFFFFFFF PUSH1 0xE0 SHL DUP2 AND DUP1 SWAP2 SUB PUSH2 0x214 JUMPI PUSH1 0x20 SWAP1 PUSH4 0x7965DB0B PUSH1 0xE0 SHL DUP2 EQ SWAP1 DUP2 ISZERO PUSH2 0x146B JUMPI JUMPDEST POP PUSH1 0x40 MLOAD SWAP1 ISZERO ISZERO DUP2 MSTORE RETURN JUMPDEST PUSH4 0x1FFC9A7 PUSH1 0xE0 SHL EQ SWAP1 POP DUP3 PUSH2 0x1460 JUMP JUMPDEST CALLVALUE PUSH2 0x214 JUMPI PUSH1 0x20 CALLDATASIZE PUSH1 0x3 NOT ADD SLT PUSH2 0x214 JUMPI PUSH2 0x120 DUP2 PUSH2 0x149C PUSH1 0x0 SWAP4 PUSH2 0x1AB3 JUMP JUMPDEST DUP3 DUP2 MSTORE DUP3 PUSH1 0x20 DUP3 ADD MSTORE DUP3 PUSH1 0x40 DUP3 ADD MSTORE DUP3 PUSH1 0x60 DUP3 ADD MSTORE DUP3 PUSH1 0x80 DUP3 ADD MSTORE DUP3 PUSH1 0xA0 DUP3 ADD MSTORE DUP3 PUSH1 0xC0 DUP3 ADD MSTORE DUP3 PUSH1 0xE0 DUP3 ADD MSTORE DUP3 PUSH2 0x100 DUP3 ADD MSTORE ADD MSTORE PUSH1 0x4 CALLDATALOAD PUSH1 0x0 MSTORE PUSH1 0x3 PUSH1 0x20 MSTORE PUSH1 0x40 PUSH1 0x0 KECCAK256 PUSH1 0xFF PUSH1 0x9 PUSH1 0x40 MLOAD SWAP3 PUSH2 0x14F3 DUP5 PUSH2 0x1AB3 JUMP JUMPDEST DUP1 SLOAD PUSH1 0x1 PUSH1 0x1 PUSH1 0xA0 SHL SUB SWAP1 DUP2 AND DUP6 MSTORE PUSH1 0x1 DUP3 ADD SLOAD DUP2 AND PUSH1 0x20 DUP7 ADD MSTORE PUSH1 0x2 DUP3 ADD SLOAD PUSH1 0x40 DUP7 ADD MSTORE PUSH1 0x3 DUP3 ADD SLOAD AND PUSH1 0x60 DUP6 ADD MSTORE PUSH1 0x4 DUP2 ADD SLOAD PUSH1 0x80 DUP6 ADD MSTORE PUSH1 0x5 DUP1 DUP3 ADD SLOAD PUSH1 0xA0 DUP7 ADD MSTORE PUSH1 0x6 DUP3 ADD SLOAD PUSH1 0xC0 DUP7 ADD MSTORE PUSH1 0x7 DUP3 ADD SLOAD PUSH1 0xE0 DUP7 ADD MSTORE PUSH1 0x8 DUP3 ADD SLOAD PUSH2 0x100 DUP7 ADD MSTORE SWAP2 ADD SLOAD SWAP2 SWAP1 SWAP2 AND SWAP2 SWAP1 DUP3 LT ISZERO PUSH2 0x8F5 JUMPI PUSH2 0x140 SWAP2 PUSH2 0x120 DUP3 ADD MSTORE PUSH2 0xCB7 PUSH2 0x120 PUSH1 0x40 MLOAD SWAP3 PUSH1 0x1 DUP1 PUSH1 0xA0 SHL SUB DUP2 MLOAD AND DUP5 MSTORE PUSH1 0x1 DUP1 PUSH1 0xA0 SHL SUB PUSH1 0x20 DUP3 ADD MLOAD AND PUSH1 0x20 DUP6 ADD MSTORE PUSH1 0x40 DUP2 ADD MLOAD PUSH1 0x40 DUP6 ADD MSTORE PUSH1 0x1 DUP1 PUSH1 0xA0 SHL SUB PUSH1 0x60 DUP3 ADD MLOAD AND PUSH1 0x60 DUP6 ADD MSTORE PUSH1 0x80 DUP2 ADD MLOAD PUSH1 0x80 DUP6 ADD MSTORE PUSH1 0xA0 DUP2 ADD MLOAD PUSH1 0xA0 DUP6 ADD MSTORE PUSH1 0xC0 DUP2 ADD MLOAD PUSH1 0xC0 DUP6 ADD MSTORE PUSH1 0xE0 DUP2 ADD MLOAD PUSH1 0xE0 DUP6 ADD MSTORE PUSH2 0x100 DUP2 ADD MLOAD PUSH2 0x100 DUP6 ADD MSTORE ADD MLOAD PUSH2 0x120 DUP4 ADD SWAP1 JUMPDEST SWAP1 PUSH1 0x5 DUP3 LT ISZERO PUSH2 0x8F5 JUMPI MSTORE JUMP JUMPDEST PUSH1 0x24 CALLDATALOAD SWAP1 PUSH1 0x1 PUSH1 0x1 PUSH1 0xA0 SHL SUB DUP3 AND DUP3 SUB PUSH2 0x214 JUMPI JUMP JUMPDEST PUSH1 0x4 CALLDATALOAD SWAP1 PUSH1 0x1 PUSH1 0x1 PUSH1 0xA0 SHL SUB DUP3 AND DUP3 SUB PUSH2 0x214 JUMPI JUMP JUMPDEST PUSH1 0x40 PUSH1 0x3 NOT DUP3 ADD SLT PUSH2 0x214 JUMPI PUSH1 0x4 CALLDATALOAD SWAP2 PUSH1 0x24 CALLDATALOAD PUSH8 0xFFFFFFFFFFFFFFFF SWAP3 DUP4 DUP3 GT PUSH2 0x214 JUMPI DUP1 PUSH1 0x23 DUP4 ADD SLT ISZERO PUSH2 0x214 JUMPI DUP2 PUSH1 0x4 ADD CALLDATALOAD SWAP4 DUP5 GT PUSH2 0x214 JUMPI PUSH1 0x24 DUP5 DUP4 ADD ADD GT PUSH2 0x214 JUMPI PUSH1 0x24 ADD SWAP2 SWAP1 JUMP JUMPDEST CALLER PUSH1 0x0 SWAP1 DUP2 MSTORE PUSH32 0xA6EEF7E35ABE7026729641147F7915573C7E97B47EFA546F5F6E3230263BCB49 PUSH1 0x20 SWAP1 DUP2 MSTORE PUSH1 0x40 DUP1 DUP4 KECCAK256 SLOAD SWAP1 SWAP3 SWAP1 PUSH1 0x1 SWAP1 PUSH1 0xFF AND ISZERO PUSH2 0x16BE JUMPI POP POP POP POP JUMP JUMPDEST PUSH2 0x16C7 CALLER PUSH2 0x1BEA JUMP JUMPDEST DUP3 DUP6 MLOAD SWAP3 PUSH2 0x16D4 DUP5 PUSH2 0x1AE6 JUMP JUMPDEST PUSH1 0x42 DUP5 MSTORE DUP6 DUP5 ADD SWAP5 PUSH1 0x60 CALLDATASIZE DUP8 CALLDATACOPY DUP5 MLOAD ISZERO PUSH2 0x182B JUMPI PUSH1 0x30 DUP7 MSTORE8 DUP5 MLOAD DUP3 LT ISZERO PUSH2 0x182B JUMPI SWAP1 PUSH1 0x78 PUSH1 0x21 DUP7 ADD MSTORE8 PUSH1 0x41 SWAP2 JUMPDEST DUP2 DUP4 GT PUSH2 0x17BD JUMPI POP POP POP PUSH2 0x177B JUMPI PUSH2 0x117D SWAP4 DUP6 SWAP4 PUSH2 0x1765 SWAP4 PUSH2 0x1756 PUSH1 0x48 SWAP5 PUSH2 0x11CD SWAP10 MLOAD SWAP9 DUP6 PUSH23 0x20B1B1B2B9B9A1B7B73A3937B61D1030B1B1B7BAB73A1 PUSH1 0x4D SHL DUP12 SWAP8 DUP9 ADD MSTORE DUP3 MLOAD SWAP3 DUP4 SWAP2 PUSH1 0x37 DUP10 ADD SWAP2 ADD PUSH2 0x1A90 JUMP JUMPDEST ADD SUB PUSH1 0x28 DUP2 ADD DUP6 MSTORE ADD DUP4 PUSH2 0x1B02 JUMP JUMPDEST MLOAD PUSH3 0x461BCD PUSH1 0xE5 SHL DUP2 MSTORE SWAP2 DUP3 SWAP2 PUSH1 0x4 DUP4 ADD PUSH2 0x1B24 JUMP JUMPDEST PUSH1 0x64 DUP5 DUP7 MLOAD SWAP1 PUSH3 0x461BCD PUSH1 0xE5 SHL DUP3 MSTORE DUP1 PUSH1 0x4 DUP4 ADD MSTORE PUSH1 0x24 DUP3 ADD MSTORE PUSH32 0x537472696E67733A20686578206C656E67746820696E73756666696369656E74 PUSH1 0x44 DUP3 ADD MSTORE REVERT JUMPDEST SWAP1 SWAP2 SWAP3 PUSH1 0xF DUP2 AND PUSH1 0x10 DUP2 LT ISZERO PUSH2 0x1817 JUMPI PUSH16 0x181899199A1A9B1B9C1CB0B131B232B3 PUSH1 0x81 SHL SWAP1 BYTE PUSH2 0x17ED DUP6 DUP9 PUSH2 0x1BD9 JUMP JUMPDEST MSTORE8 PUSH1 0x4 SHR SWAP3 DUP1 ISZERO PUSH2 0x1803 JUMPI PUSH1 0x0 NOT ADD SWAP2 SWAP1 PUSH2 0x1701 JUMP JUMPDEST PUSH4 0x4E487B71 PUSH1 0xE0 SHL DUP3 MSTORE PUSH1 0x11 PUSH1 0x4 MSTORE PUSH1 0x24 DUP3 REVERT JUMPDEST PUSH4 0x4E487B71 PUSH1 0xE0 SHL DUP4 MSTORE PUSH1 0x32 PUSH1 0x4 MSTORE PUSH1 0x24 DUP4 REVERT JUMPDEST PUSH4 0x4E487B71 PUSH1 0xE0 SHL DUP2 MSTORE PUSH1 0x32 PUSH1 0x4 MSTORE PUSH1 0x24 SWAP1 REVERT JUMPDEST CALLER PUSH1 0x0 SWAP1 DUP2 MSTORE PUSH32 0xF6CEFD16E50E3A9E8A37EA00763412696EC6DFC8D1C400E69A0E851A5205E59A PUSH1 0x20 SWAP1 DUP2 MSTORE PUSH1 0x40 DUP1 DUP4 KECCAK256 SLOAD SWAP1 SWAP3 SWAP1 PUSH1 0x1 SWAP1 PUSH32 0x7045ADFE67D5F94DBFDDCDB901E44BEF55BAACABB398C7CDDDA1BFD7620B1568 SWAP1 PUSH1 0xFF AND ISZERO PUSH2 0x18A8 JUMPI POP POP POP POP POP JUMP JUMPDEST PUSH2 0x18B1 CALLER PUSH2 0x1BEA JUMP JUMPDEST SWAP1 DUP6 MLOAD SWAP3 PUSH2 0x18BE DUP5 PUSH2 0x1AE6 JUMP JUMPDEST PUSH1 0x42 DUP5 MSTORE DUP6 DUP5 ADD SWAP5 PUSH1 0x60 CALLDATASIZE DUP8 CALLDATACOPY DUP5 MLOAD ISZERO PUSH2 0x182B JUMPI PUSH1 0x30 DUP7 MSTORE8 DUP5 MLOAD DUP3 LT ISZERO PUSH2 0x182B JUMPI SWAP1 PUSH1 0x78 PUSH1 0x21 DUP7 ADD MSTORE8 PUSH1 0x41 SWAP2 JUMPDEST DUP2 DUP4 GT PUSH2 0x1940 JUMPI POP POP POP PUSH2 0x177B JUMPI PUSH2 0x117D SWAP4 DUP6 SWAP4 PUSH2 0x1765 SWAP4 PUSH2 0x1756 PUSH1 0x48 SWAP5 PUSH2 0x11CD SWAP10 MLOAD SWAP9 DUP6 PUSH23 0x20B1B1B2B9B9A1B7B73A3937B61D1030B1B1B7BAB73A1 PUSH1 0x4D SHL DUP12 SWAP8 DUP9 ADD MSTORE DUP3 MLOAD SWAP3 DUP4 SWAP2 PUSH1 0x37 DUP10 ADD SWAP2 ADD PUSH2 0x1A90 JUMP JUMPDEST SWAP1 SWAP2 SWAP3 PUSH1 0xF DUP2 AND PUSH1 0x10 DUP2 LT ISZERO PUSH2 0x1817 JUMPI PUSH16 0x181899199A1A9B1B9C1CB0B131B232B3 PUSH1 0x81 SHL SWAP1 BYTE PUSH2 0x1970 DUP6 DUP9 PUSH2 0x1BD9 JUMP JUMPDEST MSTORE8 PUSH1 0x4 SHR SWAP3 DUP1 ISZERO PUSH2 0x1803 JUMPI PUSH1 0x0 NOT ADD SWAP2 SWAP1 PUSH2 0x18EB JUMP JUMPDEST PUSH1 0x0 DUP2 DUP2 MSTORE PUSH1 0x1 SWAP1 PUSH1 0x20 SWAP2 DUP1 DUP4 MSTORE PUSH1 0x40 SWAP4 DUP5 DUP4 KECCAK256 CALLER DUP5 MSTORE DUP5 MSTORE PUSH1 0xFF DUP6 DUP5 KECCAK256 SLOAD AND ISZERO PUSH2 0x19B2 JUMPI POP POP POP POP POP JUMP JUMPDEST PUSH2 0x19BB CALLER PUSH2 0x1BEA JUMP JUMPDEST SWAP1 DUP6 MLOAD SWAP3 PUSH2 0x19C8 DUP5 PUSH2 0x1AE6 JUMP JUMPDEST PUSH1 0x42 DUP5 MSTORE DUP6 DUP5 ADD SWAP5 PUSH1 0x60 CALLDATASIZE DUP8 CALLDATACOPY DUP5 MLOAD ISZERO PUSH2 0x182B JUMPI PUSH1 0x30 DUP7 MSTORE8 DUP5 MLOAD DUP3 LT ISZERO PUSH2 0x182B JUMPI SWAP1 PUSH1 0x78 PUSH1 0x21 DUP7 ADD MSTORE8 PUSH1 0x41 SWAP2 JUMPDEST DUP2 DUP4 GT PUSH2 0x1A4A JUMPI POP POP POP PUSH2 0x177B JUMPI PUSH2 0x117D SWAP4 DUP6 SWAP4 PUSH2 0x1765 SWAP4 PUSH2 0x1756 PUSH1 0x48 SWAP5 PUSH2 0x11CD SWAP10 MLOAD SWAP9 DUP6 PUSH23 0x20B1B1B2B9B9A1B7B73A3937B61D1030B1B1B7BAB73A1 PUSH1 0x4D SHL DUP12 SWAP8 DUP9 ADD MSTORE DUP3 MLOAD SWAP3 DUP4 SWAP2 PUSH1 0x37 DUP10 ADD SWAP2 ADD PUSH2 0x1A90 JUMP JUMPDEST SWAP1 SWAP2 SWAP3 PUSH1 0xF DUP2 AND PUSH1 0x10 DUP2 LT ISZERO PUSH2 0x1817 JUMPI PUSH16 0x181899199A1A9B1B9C1CB0B131B232B3 PUSH1 0x81 SHL SWAP1 BYTE PUSH2 0x1A7A DUP6 DUP9 PUSH2 0x1BD9 JUMP JUMPDEST MSTORE8 PUSH1 0x4 SHR SWAP3 DUP1 ISZERO PUSH2 0x1803 JUMPI PUSH1 0x0 NOT ADD SWAP2 SWAP1 PUSH2 0x19F5 JUMP JUMPDEST PUSH1 0x0 JUMPDEST DUP4 DUP2 LT PUSH2 0x1AA3 JUMPI POP POP PUSH1 0x0 SWAP2 ADD MSTORE JUMP JUMPDEST DUP2 DUP2 ADD MLOAD DUP4 DUP3 ADD MSTORE PUSH1 0x20 ADD PUSH2 0x1A93 JUMP JUMPDEST PUSH2 0x140 DUP2 ADD SWAP1 DUP2 LT PUSH8 0xFFFFFFFFFFFFFFFF DUP3 GT OR PUSH2 0x1AD0 JUMPI PUSH1 0x40 MSTORE JUMP JUMPDEST PUSH4 0x4E487B71 PUSH1 0xE0 SHL PUSH1 0x0 MSTORE PUSH1 0x41 PUSH1 0x4 MSTORE PUSH1 0x24 PUSH1 0x0 REVERT JUMPDEST PUSH1 0x80 DUP2 ADD SWAP1 DUP2 LT PUSH8 0xFFFFFFFFFFFFFFFF DUP3 GT OR PUSH2 0x1AD0 JUMPI PUSH1 0x40 MSTORE JUMP JUMPDEST SWAP1 PUSH1 0x1F DUP1 NOT SWAP2 ADD AND DUP2 ADD SWAP1 DUP2 LT PUSH8 0xFFFFFFFFFFFFFFFF DUP3 GT OR PUSH2 0x1AD0 JUMPI PUSH1 0x40 MSTORE JUMP JUMPDEST PUSH1 0x40 SWAP2 PUSH1 0x20 DUP3 MSTORE PUSH2 0x1B44 DUP2 MLOAD DUP1 SWAP3 DUP2 PUSH1 0x20 DUP7 ADD MSTORE PUSH1 0x20 DUP7 DUP7 ADD SWAP2 ADD PUSH2 0x1A90 JUMP JUMPDEST PUSH1 0x1F ADD PUSH1 0x1F NOT AND ADD ADD SWAP1 JUMP JUMPDEST SWAP1 PUSH1 0x0 SWAP2 DUP1 DUP4 MSTORE PUSH1 0x1 PUSH1 0x20 MSTORE PUSH1 0x40 DUP4 KECCAK256 SWAP2 PUSH1 0x1 DUP1 PUSH1 0xA0 SHL SUB AND SWAP2 DUP3 DUP5 MSTORE PUSH1 0x20 MSTORE PUSH1 0xFF PUSH1 0x40 DUP5 KECCAK256 SLOAD AND PUSH2 0x1B81 JUMPI POP POP POP JUMP JUMPDEST DUP1 DUP4 MSTORE PUSH1 0x1 PUSH1 0x20 MSTORE PUSH1 0x40 DUP4 KECCAK256 DUP3 DUP5 MSTORE PUSH1 0x20 MSTORE PUSH1 0x40 DUP4 KECCAK256 PUSH1 0xFF NOT DUP2 SLOAD AND SWAP1 SSTORE PUSH32 0xF6391F5C32D9C69D2A47EA670B442974B53935D1EDC7FD64EB21E047A839171B CALLER SWAP4 DUP1 LOG4 JUMP JUMPDEST DUP2 DUP2 MUL SWAP3 SWAP2 DUP2 ISZERO SWAP2 DUP5 DIV EQ OR ISZERO PUSH2 0x8B8 JUMPI JUMP JUMPDEST SWAP1 DUP2 MLOAD DUP2 LT ISZERO PUSH2 0x1258 JUMPI ADD PUSH1 0x20 ADD SWAP1 JUMP JUMPDEST PUSH1 0x40 MLOAD SWAP1 PUSH1 0x60 DUP3 ADD DUP3 DUP2 LT PUSH8 0xFFFFFFFFFFFFFFFF DUP3 GT OR PUSH2 0x1AD0 JUMPI PUSH1 0x40 MSTORE PUSH1 0x2A DUP3 MSTORE PUSH1 0x20 DUP3 ADD PUSH1 0x40 CALLDATASIZE DUP3 CALLDATACOPY DUP3 MLOAD ISZERO PUSH2 0x1258 JUMPI PUSH1 0x30 SWAP1 MSTORE8 DUP2 MLOAD PUSH1 0x1 SWAP1 DUP2 LT ISZERO PUSH2 0x1258 JUMPI PUSH1 0x78 PUSH1 0x21 DUP5 ADD MSTORE8 PUSH1 0x29 SWAP1 JUMPDEST DUP1 DUP3 GT PUSH2 0x1C8B JUMPI POP POP PUSH2 0x1C47 JUMPI SWAP1 JUMP JUMPDEST PUSH1 0x64 PUSH1 0x40 MLOAD PUSH3 0x461BCD PUSH1 0xE5 SHL DUP2 MSTORE PUSH1 0x20 PUSH1 0x4 DUP3 ADD MSTORE PUSH1 0x20 PUSH1 0x24 DUP3 ADD MSTORE PUSH32 0x537472696E67733A20686578206C656E67746820696E73756666696369656E74 PUSH1 0x44 DUP3 ADD MSTORE REVERT JUMPDEST SWAP1 SWAP2 PUSH1 0xF DUP2 AND PUSH1 0x10 DUP2 LT ISZERO PUSH2 0x1CE4 JUMPI PUSH16 0x181899199A1A9B1B9C1CB0B131B232B3 PUSH1 0x81 SHL SWAP1 BYTE PUSH2 0x1CBA DUP5 DUP7 PUSH2 0x1BD9 JUMP JUMPDEST MSTORE8 PUSH1 0x4 SHR SWAP2 DUP1 ISZERO PUSH2 0x1CCF JUMPI PUSH1 0x0 NOT ADD SWAP1 PUSH2 0x1C37 JUMP JUMPDEST PUSH1 0x24 PUSH1 0x0 PUSH4 0x4E487B71 PUSH1 0xE0 SHL DUP2 MSTORE PUSH1 0x11 PUSH1 0x4 MSTORE REVERT JUMPDEST PUSH1 0x24 PUSH1 0x0 PUSH4 0x4E487B71 PUSH1 0xE0 SHL DUP2 MSTORE PUSH1 0x32 PUSH1 0x4 MSTORE REVERT JUMPDEST SWAP2 SWAP1 DUP3 SUB SWAP2 DUP3 GT PUSH2 0x8B8 JUMPI JUMP JUMPDEST PUSH1 0xFF PUSH1 0x2 SLOAD AND PUSH2 0x1D12 JUMPI JUMP JUMPDEST PUSH1 0x40 MLOAD PUSH3 0x461BCD PUSH1 0xE5 SHL DUP2 MSTORE PUSH1 0x20 PUSH1 0x4 DUP3 ADD MSTORE PUSH1 0x10 PUSH1 0x24 DUP3 ADD MSTORE PUSH16 0x14185D5CD8589B194E881C185D5CD959 PUSH1 0x82 SHL PUSH1 0x44 DUP3 ADD MSTORE PUSH1 0x64 SWAP1 REVERT JUMPDEST PUSH1 0x2 PUSH1 0x0 SLOAD EQ PUSH2 0x1D5B JUMPI PUSH1 0x2 PUSH1 0x0 SSTORE JUMP JUMPDEST PUSH1 0x40 MLOAD PUSH3 0x461BCD PUSH1 0xE5 SHL DUP2 MSTORE PUSH1 0x20 PUSH1 0x4 DUP3 ADD MSTORE PUSH1 0x1F PUSH1 0x24 DUP3 ADD MSTORE PUSH32 0x5265656E7472616E637947756172643A207265656E7472616E742063616C6C00 PUSH1 0x44 DUP3 ADD MSTORE PUSH1 0x64 SWAP1 REVERT JUMPDEST PUSH1 0x40 MLOAD PUSH4 0xA9059CBB PUSH1 0xE0 SHL PUSH1 0x20 DUP3 ADD MSTORE PUSH1 0x1 PUSH1 0x1 PUSH1 0xA0 SHL SUB SWAP1 SWAP3 AND PUSH1 0x24 DUP4 ADD MSTORE PUSH1 0x44 DUP1 DUP4 ADD SWAP4 SWAP1 SWAP4 MSTORE SWAP2 DUP2 MSTORE PUSH1 0x80 DUP2 ADD SWAP2 PUSH8 0xFFFFFFFFFFFFFFFF DUP4 GT DUP3 DUP5 LT OR PUSH2 0x1AD0 JUMPI PUSH2 0x1DF0 SWAP3 PUSH1 0x40 MSTORE PUSH2 0x1DF2 JUMP JUMPDEST JUMP JUMPDEST PUSH1 0x1 DUP1 PUSH1 0xA0 SHL SUB AND SWAP1 PUSH1 0x40 MLOAD PUSH1 0x40 DUP2 ADD PUSH8 0xFFFFFFFFFFFFFFFF SWAP1 DUP3 DUP2 LT DUP3 DUP3 GT OR PUSH2 0x1AD0 JUMPI PUSH1 0x40 MSTORE PUSH1 0x20 SWAP4 DUP5 DUP4 MSTORE PUSH32 0x5361666545524332303A206C6F772D6C6576656C2063616C6C206661696C6564 DUP6 DUP5 ADD MSTORE PUSH1 0x0 DUP1 DUP6 DUP8 DUP3 SWAP8 MLOAD SWAP2 ADD DUP3 DUP6 GAS CALL SWAP1 RETURNDATASIZE ISZERO PUSH2 0x1F3E JUMPI RETURNDATASIZE SWAP3 DUP4 GT PUSH2 0x1F2A JUMPI SWAP1 PUSH2 0x1E8D SWAP4 SWAP3 SWAP2 PUSH1 0x40 MLOAD SWAP3 PUSH2 0x1E80 DUP9 PUSH1 0x1F NOT PUSH1 0x1F DUP5 ADD AND ADD DUP6 PUSH2 0x1B02 JUMP JUMPDEST DUP4 MSTORE RETURNDATASIZE DUP7 DUP9 DUP6 ADD RETURNDATACOPY PUSH2 0x1F49 JUMP JUMPDEST DUP1 MLOAD SWAP2 DUP3 ISZERO SWAP2 DUP5 DUP4 ISZERO PUSH2 0x1EFF JUMPI JUMPDEST POP POP POP SWAP1 POP ISZERO PUSH2 0x1EA8 JUMPI POP JUMP JUMPDEST PUSH1 0x84 SWAP1 PUSH1 0x40 MLOAD SWAP1 PUSH3 0x461BCD PUSH1 0xE5 SHL DUP3 MSTORE PUSH1 0x4 DUP3 ADD MSTORE PUSH1 0x2A PUSH1 0x24 DUP3 ADD MSTORE PUSH32 0x5361666545524332303A204552433230206F7065726174696F6E20646964206E PUSH1 0x44 DUP3 ADD MSTORE PUSH10 0x1BDD081CDD58D8D95959 PUSH1 0xB2 SHL PUSH1 0x64 DUP3 ADD MSTORE REVERT JUMPDEST SWAP2 SWAP4 DUP2 DUP1 SWAP5 POP ADD SUB SLT PUSH2 0x1F26 JUMPI DUP3 ADD MLOAD SWAP1 DUP2 ISZERO ISZERO DUP3 SUB PUSH2 0x1F23 JUMPI POP DUP1 CODESIZE DUP1 DUP5 PUSH2 0x1E9B JUMP JUMPDEST DUP1 REVERT JUMPDEST POP DUP1 REVERT JUMPDEST PUSH4 0x4E487B71 PUSH1 0xE0 SHL DUP6 MSTORE PUSH1 0x41 PUSH1 0x4 MSTORE PUSH1 0x24 DUP6 REVERT JUMPDEST SWAP1 PUSH2 0x1E8D SWAP4 SWAP3 POP PUSH1 0x60 SWAP2 JUMPDEST SWAP2 SWAP3 SWAP1 ISZERO PUSH2 0x1FAB JUMPI POP DUP2 MLOAD ISZERO PUSH2 0x1F5D JUMPI POP SWAP1 JUMP JUMPDEST EXTCODESIZE ISZERO PUSH2 0x1F66 JUMPI SWAP1 JUMP JUMPDEST PUSH1 0x40 MLOAD PUSH3 0x461BCD PUSH1 0xE5 SHL DUP2 MSTORE PUSH1 0x20 PUSH1 0x4 DUP3 ADD MSTORE PUSH1 0x1D PUSH1 0x24 DUP3 ADD MSTORE PUSH32 0x416464726573733A2063616C6C20746F206E6F6E2D636F6E7472616374000000 PUSH1 0x44 DUP3 ADD MSTORE PUSH1 0x64 SWAP1 REVERT JUMPDEST DUP3 MLOAD SWAP1 SWAP2 POP ISZERO PUSH2 0x1FBE JUMPI POP DUP1 MLOAD SWAP1 PUSH1 0x20 ADD REVERT JUMPDEST PUSH1 0x40 MLOAD PUSH3 0x461BCD PUSH1 0xE5 SHL DUP2 MSTORE SWAP1 DUP2 SWAP1 PUSH2 0x11CD SWAP1 PUSH1 0x4 DUP4 ADD PUSH2 0x1B24 JUMP JUMPDEST PUSH1 0x40 MLOAD PUSH4 0x4B16524B PUSH1 0xE1 SHL DUP2 MSTORE SWAP1 PUSH1 0x20 DUP3 PUSH1 0x4 DUP2 PUSH32 0x0 PUSH1 0x1 PUSH1 0x1 PUSH1 0xA0 SHL SUB AND GAS STATICCALL SWAP2 DUP3 ISZERO PUSH2 0x207C JUMPI PUSH1 0x0 SWAP3 PUSH2 0x2047 JUMPI JUMPDEST POP SWAP2 PUSH2 0x203E PUSH2 0x2043 SWAP3 PUSH5 0x496CEBB800 SWAP5 PUSH2 0x1BC6 JUMP JUMPDEST PUSH2 0x1BC6 JUMP JUMPDEST DIV SWAP1 JUMP JUMPDEST SWAP1 SWAP2 PUSH1 0x20 DUP3 RETURNDATASIZE DUP3 GT PUSH2 0x2074 JUMPI JUMPDEST DUP2 PUSH2 0x2061 PUSH1 0x20 SWAP4 DUP4 PUSH2 0x1B02 JUMP JUMPDEST DUP2 ADD SUB SLT PUSH2 0x1F23 JUMPI POP MLOAD SWAP1 PUSH2 0x203E PUSH2 0x2029 JUMP JUMPDEST RETURNDATASIZE SWAP2 POP PUSH2 0x2054 JUMP JUMPDEST PUSH1 0x40 MLOAD RETURNDATASIZE PUSH1 0x0 DUP3 RETURNDATACOPY RETURNDATASIZE SWAP1 REVERT INVALID LOG2 PUSH5 0x6970667358 0x22 SLT KECCAK256 0x1E EXTCODECOPY CALLDATASIZE 0xC3 0x24 SWAP10 PUSH0 TIMESTAMP 0xCB 0xFB 0xC9 0xC0 ADDRESS 0x5D DUP8 PUSH24 0x464E494D5502F9ECEB878775C9A7A4EA64736F6C63430008 EQ STOP CALLER 0x2F DUP8 DUP9 GT PUSH31 0x7EFF1D82E926EC794901D17C78024A50270940304540A733656F0D00000000 "},"gasEstimates":{"creation":{"codeDepositCost":"1676400","executionCost":"infinite","totalCost":"infinite"},"external":{"ARBITRUM_CHAIN_ID()":"991","BASE_CHAIN_ID()":"1076","BASIS_POINTS()":"1057","BRIDGE_OPERATOR_ROLE()":"441","DEFAULT_ADMIN_ROLE()":"815","ETHEREUM_CHAIN_ID()":"265","POLYGON_CHAIN_ID()":"287","SOLANA_CHAIN_ID()":"199","VALIDATOR_ROLE()":"925","XRPL_CHAIN_ID()":"419","addSupportedChain(uint256)":"infinite","addSupportedToken(address)":"infinite","bridgeFee()":"2808","bridgeTransactions(bytes32)":"22033","calculateBridgeYield(uint256,uint256)":"infinite","chainValidators(uint256)":"3134","completeBridge(bytes32,bytes)":"infinite","estimateBridgeFee(uint256)":"2990","feeCollector()":"3030","getBridgeTransaction(bytes32)":"infinite","getRoleAdmin(bytes32)":"2484","grantRole(bytes32,address)":"infinite","hasRole(bytes32,address)":"3106","initiateBridge(address,uint256,address,uint256)":"infinite","isChainSupported(uint256)":"2644","isTokenSupported(address)":"2927","pause()":"infinite","paused()":"2666","processedTransactions(bytes32)":"3040","refundBridge(bytes32,string)":"infinite","removeSupportedChain(uint256)":"infinite","removeSupportedToken(address)":"infinite","renounceRole(bytes32,address)":"29008","revokeRole(bytes32,address)":"infinite","supportedChains(uint256)":"2688","supportedTokens(address)":"2839","supportsInterface(bytes4)":"301","unpause()":"infinite","updateBridgeFee(uint256)":"infinite","updateFeeCollector(address)":"infinite","validateBridgeTransaction(bytes32)":"infinite","yieldEscrow()":"infinite","yieldVault()":"infinite"}},"methodIdentifiers":{"ARBITRUM_CHAIN_ID()":"cdcdd548","BASE_CHAIN_ID()":"efc21e3f","BASIS_POINTS()":"e1f1c4a7","BRIDGE_OPERATOR_ROLE()":"4be40fd1","DEFAULT_ADMIN_ROLE()":"a217fddf","ETHEREUM_CHAIN_ID()":"1dac56d3","POLYGON_CHAIN_ID()":"20eb5632","SOLANA_CHAIN_ID()":"067bd07a","VALIDATOR_ROLE()":"c49baebe","XRPL_CHAIN_ID()":"48bf1c51","addSupportedChain(uint256)":"87188a00","addSupportedToken(address)":"6d69fcaf","bridgeFee()":"82b12dd7","bridgeTransactions(bytes32)":"6c63f971","calculateBridgeYield(uint256,uint256)":"17606024","chainValidators(uint256)":"c4a01587","completeBridge(bytes32,bytes)":"c06575f4","estimateBridgeFee(uint256)":"9822dded","feeCollector()":"c415b95c","getBridgeTransaction(bytes32)":"0024a1b8","getRoleAdmin(bytes32)":"248a9ca3","grantRole(bytes32,address)":"2f2ff15d","hasRole(bytes32,address)":"91d14854","initiateBridge(address,uint256,address,uint256)":"c9a4d32f","isChainSupported(uint256)":"5221c1f0","isTokenSupported(address)":"75151b63","pause()":"8456cb59","paused()":"5c975abb","processedTransactions(bytes32)":"ac2e4936","refundBridge(bytes32,string)":"6c5556b7","removeSupportedChain(uint256)":"0c4844aa","removeSupportedToken(address)":"76319190","renounceRole(bytes32,address)":"36568abe","revokeRole(bytes32,address)":"d547741f","supportedChains(uint256)":"548d496f","supportedTokens(address)":"68c4ac26","supportsInterface(bytes4)":"01ffc9a7","unpause()":"3f4ba83a","updateBridgeFee(uint256)":"5a1c0366","updateFeeCollector(address)":"d2c35ce8","validateBridgeTransaction(bytes32)":"34284e4b","yieldEscrow()":"53e589ac","yieldVault()":"a7f8a5e2"}},"storageLayout":{"storage":[{"astId":507,"contract":"src/CrossChainBridge.sol:CrossChainBridge","label":"_status","offset":0,"slot":"0","type":"t_uint256"},{"astId":24,"contract":"src/CrossChainBridge.sol:CrossChainBridge","label":"_roles","offset":0,"slot":"1","type":"t_mapping(t_bytes32,t_struct(RoleData)19_storage)"},{"astId":406,"contract":"src/CrossChainBridge.sol:CrossChainBridge","label":"_paused","offset":0,"slot":"2","type":"t_bool"},{"astId":3713,"contract":"src/CrossChainBridge.sol:CrossChainBridge","label":"bridgeTransactions","offset":0,"slot":"3","type":"t_mapping(t_bytes32,t_struct(BridgeTransaction)3702_storage)"},{"astId":3717,"contract":"src/CrossChainBridge.sol:CrossChainBridge","label":"supportedChains","offset":0,"slot":"4","type":"t_mapping(t_uint256,t_bool)"},{"astId":3721,"contract":"src/CrossChainBridge.sol:CrossChainBridge","label":"supportedTokens","offset":0,"slot":"5","type":"t_mapping(t_address,t_bool)"},{"astId":3725,"contract":"src/CrossChainBridge.sol:CrossChainBridge","label":"processedTransactions","offset":0,"slot":"6","type":"t_mapping(t_bytes32,t_bool)"},{"astId":3729,"contract":"src/CrossChainBridge.sol:CrossChainBridge","label":"chainValidators","offset":0,"slot":"7","type":"t_mapping(t_uint256,t_address)"},{"astId":3731,"contract":"src/CrossChainBridge.sol:CrossChainBridge","label":"transactionNonce","offset":0,"slot":"8","type":"t_uint256"},{"astId":3734,"contract":"src/CrossChainBridge.sol:CrossChainBridge","label":"bridgeFee","offset":0,"slot":"9","type":"t_uint256"},{"astId":3739,"contract":"src/CrossChainBridge.sol:CrossChainBridge","label":"feeCollector","offset":0,"slot":"10","type":"t_address"}],"types":{"t_address":{"encoding":"inplace","label":"address","numberOfBytes":"20"},"t_bool":{"encoding":"inplace","label":"bool","numberOfBytes":"1"},"t_bytes32":{"encoding":"inplace","label":"bytes32","numberOfBytes":"32"},"t_enum(BridgeStatus)3708":{"encoding":"inplace","label":"enum CrossChainBridge.BridgeStatus","numberOfBytes":"1"},"t_mapping(t_address,t_bool)":{"encoding":"mapping","key":"t_address","label":"mapping(address => bool)","numberOfBytes":"32","value":"t_bool"},"t_mapping(t_bytes32,t_bool)":{"encoding":"mapping","key":"t_bytes32","label":"mapping(bytes32 => bool)","numberOfBytes":"32","value":"t_bool"},"t_mapping(t_bytes32,t_struct(BridgeTransaction)3702_storage)":{"encoding":"mapping","key":"t_bytes32","label":"mapping(bytes32 => struct CrossChainBridge.BridgeTransaction)","numberOfBytes":"32","value":"t_struct(BridgeTransaction)3702_storage"},"t_mapping(t_bytes32,t_struct(RoleData)19_storage)":{"encoding":"mapping","key":"t_bytes32","label":"mapping(bytes32 => struct AccessControl.RoleData)","numberOfBytes":"32","value":"t_struct(RoleData)19_storage"},"t_mapping(t_uint256,t_address)":{"encoding":"mapping","key":"t_uint256","label":"mapping(uint256 => address)","numberOfBytes":"32","value":"t_address"},"t_mapping(t_uint256,t_bool)":{"encoding":"mapping","key":"t_uint256","label":"mapping(uint256 => bool)","numberOfBytes":"32","value":"t_bool"},"t_struct(BridgeTransaction)3702_storage":{"encoding":"inplace","label":"struct CrossChainBridge.BridgeTransaction","members":[{"astId":3682,"contract":"src/CrossChainBridge.sol:CrossChainBridge","label":"sender","offset":0,"slot":"0","type":"t_address"},{"astId":3684,"contract":"src/CrossChainBridge.sol:CrossChainBridge","label":"recipient","offset":0,"slot":"1","type":"t_address"},{"astId":3686,"contract":"src/CrossChainBridge.sol:CrossChainBridge","label":"amount","offset":0,"slot":"2","type":"t_uint256"},{"astId":3688,"contract":"src/CrossChainBridge.sol:CrossChainBridge","label":"token","offset":0,"slot":"3","type":"t_address"},{"astId":3690,"contract":"src/CrossChainBridge.sol:CrossChainBridge","label":"sourceChainId","offset":0,"slot":"4","type":"t_uint256"},{"astId":3692,"contract":"src/CrossChainBridge.sol:CrossChainBridge","label":"destinationChainId","offset":0,"slot":"5","type":"t_uint256"},{"astId":3694,"contract":"src/CrossChainBridge.sol:CrossChainBridge","label":"timestamp","offset":0,"slot":"6","type":"t_uint256"},{"astId":3696,"contract":"src/CrossChainBridge.sol:CrossChainBridge","label":"accruedYield","offset":0,"slot":"7","type":"t_uint256"},{"astId":3698,"contract":"src/CrossChainBridge.sol:CrossChainBridge","label":"transactionHash","offset":0,"slot":"8","type":"t_bytes32"},{"astId":3701,"contract":"src/CrossChainBridge.sol:CrossChainBridge","label":"status","offset":0,"slot":"9","type":"t_enum(BridgeStatus)3708"}],"numberOfBytes":"320"},"t_struct(RoleData)19_storage":{"encoding":"inplace","label":"struct AccessControl.RoleData","members":[{"astId":16,"contract":"src/CrossChainBridge.sol:CrossChainBridge","label":"members","offset":0,"slot":"0","type":"t_mapping(t_address,t_bool)"},{"astId":18,"contract":"src/CrossChainBridge.sol:CrossChainBridge","label":"adminRole","offset":0,"slot":"1","type":"t_bytes32"}],"numberOfBytes":"64"},"t_uint256":{"encoding":"inplace","label":"uint256","numberOfBytes":"32"}}},"userdoc":{"kind":"user","methods":{},"notice":"Supports Ethereum, XRPL, Solana, Polygon, Arbitrum, and Base","version":1}}}}