{"src/YieldEscrowOptimized.sol":{"YieldEscrowOptimized":{"abi":[{"inputs":[{"internalType":"address","name":"admin","type":"address"},{"internalType":"address","name":"feeRecipient_","type":"address"}],"stateMutability":"nonpayable","type":"constructor"},{"inputs":[],"name":"DepositNotFound","type":"error"},{"inputs":[],"name":"InvalidAddress","type":"error"},{"inputs":[],"name":"InvalidAmount","type":"error"},{"inputs":[],"name":"PaymentAlreadyProcessed","type":"error"},{"inputs":[],"name":"PaymentAlreadyReleased","type":"error"},{"inputs":[],"name":"TokenNotSupported","type":"error"},{"inputs":[],"name":"UnauthorizedRelease","type":"error"},{"anonymous":false,"inputs":[{"indexed":true,"internalType":"bytes32","name":"paymentHash","type":"bytes32"},{"indexed":true,"internalType":"address","name":"user","type":"address"},{"indexed":true,"internalType":"address","name":"merchant","type":"address"},{"indexed":false,"internalType":"address","name":"token","type":"address"},{"indexed":false,"internalType":"uint256","name":"amount","type":"uint256"},{"indexed":false,"internalType":"uint256","name":"depositIndex","type":"uint256"}],"name":"DepositCreated","type":"event"},{"anonymous":false,"inputs":[{"indexed":false,"internalType":"address","name":"account","type":"address"}],"name":"Paused","type":"event"},{"anonymous":false,"inputs":[{"indexed":true,"internalType":"bytes32","name":"paymentHash","type":"bytes32"},{"indexed":true,"internalType":"address","name":"user","type":"address"},{"indexed":true,"internalType":"address","name":"merchant","type":"address"},{"indexed":false,"internalType":"uint256","name":"amount","type":"uint256"}],"name":"PaymentReleased","type":"event"},{"anonymous":false,"inputs":[{"indexed":true,"internalType":"bytes32","name":"role","type":"bytes32"},{"indexed":true,"internalType":"bytes32","name":"previousAdminRole","type":"bytes32"},{"indexed":true,"internalType":"bytes32","name":"newAdminRole","type":"bytes32"}],"name":"RoleAdminChanged","type":"event"},{"anonymous":false,"inputs":[{"indexed":true,"internalType":"bytes32","name":"role","type":"bytes32"},{"indexed":true,"internalType":"address","name":"account","type":"address"},{"indexed":true,"internalType":"address","name":"sender","type":"address"}],"name":"RoleGranted","type":"event"},{"anonymous":false,"inputs":[{"indexed":true,"internalType":"bytes32","name":"role","type":"bytes32"},{"indexed":true,"internalType":"address","name":"account","type":"address"},{"indexed":true,"internalType":"address","name":"sender","type":"address"}],"name":"RoleRevoked","type":"event"},{"anonymous":false,"inputs":[{"indexed":true,"internalType":"address","name":"token","type":"address"},{"indexed":false,"internalType":"bool","name":"supported","type":"bool"}],"name":"TokenSupported","type":"event"},{"anonymous":false,"inputs":[{"indexed":false,"internalType":"address","name":"account","type":"address"}],"name":"Unpaused","type":"event"},{"inputs":[],"name":"ADMIN_ROLE","outputs":[{"internalType":"bytes32","name":"","type":"bytes32"}],"stateMutability":"view","type":"function"},{"inputs":[],"name":"DEFAULT_ADMIN_ROLE","outputs":[{"internalType":"bytes32","name":"","type":"bytes32"}],"stateMutability":"view","type":"function"},{"inputs":[{"internalType":"uint256","name":"amount","type":"uint256"},{"internalType":"address","name":"token","type":"address"},{"internalType":"address","name":"merchant","type":"address"},{"internalType":"bytes32","name":"paymentHash","type":"bytes32"}],"name":"createDeposit","outputs":[{"internalType":"uint256","name":"depositIndex","type":"uint256"}],"stateMutability":"nonpayable","type":"function"},{"inputs":[],"name":"feeRecipient","outputs":[{"internalType":"address","name":"","type":"address"}],"stateMutability":"view","type":"function"},{"inputs":[{"internalType":"address","name":"user","type":"address"},{"internalType":"uint256","name":"depositIndex","type":"uint256"}],"name":"getDeposit","outputs":[{"components":[{"internalType":"uint256","name":"amount","type":"uint256"},{"internalType":"address","name":"token","type":"address"},{"internalType":"bool","name":"released","type":"bool"},{"internalType":"uint32","name":"timestamp","type":"uint32"},{"internalType":"address","name":"merchant","type":"address"},{"internalType":"bytes32","name":"paymentHash","type":"bytes32"}],"internalType":"struct YieldEscrowOptimized.Deposit","name":"","type":"tuple"}],"stateMutability":"view","type":"function"},{"inputs":[{"internalType":"bytes32","name":"role","type":"bytes32"}],"name":"getRoleAdmin","outputs":[{"internalType":"bytes32","name":"","type":"bytes32"}],"stateMutability":"view","type":"function"},{"inputs":[{"internalType":"address","name":"user","type":"address"}],"name":"getUserDepositCount","outputs":[{"internalType":"uint256","name":"","type":"uint256"}],"stateMutability":"view","type":"function"},{"inputs":[{"internalType":"bytes32","name":"role","type":"bytes32"},{"internalType":"address","name":"account","type":"address"}],"name":"grantRole","outputs":[],"stateMutability":"nonpayable","type":"function"},{"inputs":[{"internalType":"bytes32","name":"role","type":"bytes32"},{"internalType":"address","name":"account","type":"address"}],"name":"hasRole","outputs":[{"internalType":"bool","name":"","type":"bool"}],"stateMutability":"view","type":"function"},{"inputs":[{"internalType":"bytes32","name":"paymentHash","type":"bytes32"}],"name":"isPaymentProcessed","outputs":[{"internalType":"bool","name":"","type":"bool"}],"stateMutability":"view","type":"function"},{"inputs":[],"name":"pause","outputs":[],"stateMutability":"nonpayable","type":"function"},{"inputs":[],"name":"paused","outputs":[{"internalType":"bool","name":"","type":"bool"}],"stateMutability":"view","type":"function"},{"inputs":[{"internalType":"bytes32","name":"","type":"bytes32"}],"name":"processedPaymentHashes","outputs":[{"internalType":"bool","name":"","type":"bool"}],"stateMutability":"view","type":"function"},{"inputs":[{"internalType":"address","name":"user","type":"address"},{"internalType":"uint256","name":"depositIndex","type":"uint256"}],"name":"releasePayment","outputs":[],"stateMutability":"nonpayable","type":"function"},{"inputs":[{"internalType":"bytes32","name":"role","type":"bytes32"},{"internalType":"address","name":"account","type":"address"}],"name":"renounceRole","outputs":[],"stateMutability":"nonpayable","type":"function"},{"inputs":[{"internalType":"bytes32","name":"role","type":"bytes32"},{"internalType":"address","name":"account","type":"address"}],"name":"revokeRole","outputs":[],"stateMutability":"nonpayable","type":"function"},{"inputs":[{"internalType":"address","name":"newFeeRecipient","type":"address"}],"name":"setFeeRecipient","outputs":[],"stateMutability":"nonpayable","type":"function"},{"inputs":[{"internalType":"address","name":"token","type":"address"},{"internalType":"bool","name":"supported","type":"bool"}],"name":"setSupportedToken","outputs":[],"stateMutability":"nonpayable","type":"function"},{"inputs":[{"internalType":"address","name":"","type":"address"}],"name":"supportedTokens","outputs":[{"internalType":"bool","name":"","type":"bool"}],"stateMutability":"view","type":"function"},{"inputs":[{"internalType":"bytes4","name":"interfaceId","type":"bytes4"}],"name":"supportsInterface","outputs":[{"internalType":"bool","name":"","type":"bool"}],"stateMutability":"view","type":"function"},{"inputs":[],"name":"unpause","outputs":[],"stateMutability":"nonpayable","type":"function"},{"inputs":[{"internalType":"address","name":"","type":"address"}],"name":"userDepositCount","outputs":[{"internalType":"uint256","name":"","type":"uint256"}],"stateMutability":"view","type":"function"},{"inputs":[{"internalType":"address","name":"","type":"address"},{"internalType":"uint256","name":"","type":"uint256"}],"name":"userDeposits","outputs":[{"internalType":"uint256","name":"amount","type":"uint256"},{"internalType":"address","name":"token","type":"address"},{"internalType":"bool","name":"released","type":"bool"},{"internalType":"uint32","name":"timestamp","type":"uint32"},{"internalType":"address","name":"merchant","type":"address"},{"internalType":"bytes32","name":"paymentHash","type":"bytes32"}],"stateMutability":"view","type":"function"}],"devdoc":{"details":"Gas-optimized version of YieldEscrow with <100k gas target for deposits  Optimizations applied: - Removed complex daily/user limit tracking  - Deferred yield strategy integration to post-deposit - Simplified data structures - Batched storage operations - Minimal validation for core functionality  TRADE-OFFS: - Less comprehensive risk management - Simpler yield integration - Reduced metadata capabilities  This is optimized for MVP deployment where gas efficiency is critical.","events":{"Paused(address)":{"details":"Emitted when the pause is triggered by `account`."},"RoleAdminChanged(bytes32,bytes32,bytes32)":{"details":"Emitted when `newAdminRole` is set as ``role``'s admin role, replacing `previousAdminRole` `DEFAULT_ADMIN_ROLE` is the starting admin for all roles, despite {RoleAdminChanged} not being emitted signaling this. _Available since v3.1._"},"RoleGranted(bytes32,address,address)":{"details":"Emitted when `account` is granted `role`. `sender` is the account that originated the contract call, an admin role bearer except when using {AccessControl-_setupRole}."},"RoleRevoked(bytes32,address,address)":{"details":"Emitted when `account` is revoked `role`. `sender` is the account that originated the contract call:   - if using `revokeRole`, it is the admin role bearer   - if using `renounceRole`, it is the role bearer (i.e. `account`)"},"Unpaused(address)":{"details":"Emitted when the pause is lifted by `account`."}},"kind":"dev","methods":{"constructor":{"details":"Initialize the optimized escrow contract","params":{"admin":"The address that will have admin privileges","feeRecipient_":"The address that will receive protocol fees"}},"createDeposit(uint256,address,address,bytes32)":{"details":"Ultra gas-optimized deposit function","params":{"amount":"The amount of tokens to deposit","merchant":"The merchant address for this payment","paymentHash":"Unique identifier for this payment","token":"The token address (must be supported)  "},"returns":{"depositIndex":"The index of the created deposit  EXTREME OPTIMIZATIONS: - Removed reentrancy guard (relies on external token behavior) - Removed pause functionality  - Minimal validation - Simplified struct packing - Single storage slot per deposit where possible  TARGET: <100k gas TRADE-OFF: Reduced security for extreme gas efficiency"}},"getDeposit(address,uint256)":{"details":"Get deposit details","params":{"depositIndex":"Deposit index","user":"User address"},"returns":{"_0":"Deposit struct"}},"getRoleAdmin(bytes32)":{"details":"Returns the admin role that controls `role`. See {grantRole} and {revokeRole}. To change a role's admin, use {_setRoleAdmin}."},"getUserDepositCount(address)":{"details":"Get user's total deposit count","params":{"user":"User address  "},"returns":{"_0":"Total number of deposits"}},"grantRole(bytes32,address)":{"details":"Grants `role` to `account`. If `account` had not been already granted `role`, emits a {RoleGranted} event. Requirements: - the caller must have ``role``'s admin role. May emit a {RoleGranted} event."},"hasRole(bytes32,address)":{"details":"Returns `true` if `account` has been granted `role`."},"isPaymentProcessed(bytes32)":{"details":"Check if payment hash was processed","params":{"paymentHash":"Payment hash to check"},"returns":{"_0":"Whether payment was processed"}},"pause()":{"details":"Emergency pause functionality"},"paused()":{"details":"Returns true if the contract is paused, and false otherwise."},"releasePayment(address,uint256)":{"details":"Releases payment to merchant (gas optimized)","params":{"depositIndex":"The deposit index to release","user":"The user who made the deposit"}},"renounceRole(bytes32,address)":{"details":"Revokes `role` from the calling account. Roles are often managed via {grantRole} and {revokeRole}: this function's purpose is to provide a mechanism for accounts to lose their privileges if they are compromised (such as when a trusted device is misplaced). If the calling account had been revoked `role`, emits a {RoleRevoked} event. Requirements: - the caller must be `account`. May emit a {RoleRevoked} event."},"revokeRole(bytes32,address)":{"details":"Revokes `role` from `account`. If `account` had been granted `role`, emits a {RoleRevoked} event. Requirements: - the caller must have ``role``'s admin role. May emit a {RoleRevoked} event."},"setFeeRecipient(address)":{"details":"Update fee recipient","params":{"newFeeRecipient":"New fee recipient address"}},"setSupportedToken(address,bool)":{"details":"Add or remove supported token","params":{"supported":"Whether token is supported","token":"Token address"}},"supportsInterface(bytes4)":{"details":"See {IERC165-supportsInterface}."},"unpause()":{"details":"Unpause functionality"}},"stateVariables":{"feeRecipient":{"details":"Protocol fee recipient address"},"processedPaymentHashes":{"details":"Processed payment hashes to prevent replay attacks"},"supportedTokens":{"details":"Supported tokens mapping (token => supported)"},"userDepositCount":{"details":"User deposit count: user => count"},"userDeposits":{"details":"User deposits: user => depositId => Deposit"}},"title":"YieldEscrowOptimized","version":1},"evm":{"bytecode":{"linkReferences":{},"object":"6080346200019c57620015d390601f38839003908101601f19168201906001600160401b03821183831017620001a157808391604095869485528339810103126200019c576200004f81620001b7565b906200005f6020809201620001b7565b60016000818155815460ff199081169092556001600160a01b0394929390928516918215801562000191575b620001805783805260028252868420838552825260ff87852054161562000149575b7fa49807205ce4d355092ef5a8a18f56e8913cf4a201fbe287825b095693c217759182855260028152878520848652815260ff8886205416156200010f575b600380546001600160a01b03191687891617905587516113e69081620001cd8239f35b828552600281528785209084865252600187852091825416179055600080516020620015b3833981519152339380a43880808080620000ec565b838052600282528684208385528252868420600182825416179055338385600080516020620015b38339815191528180a4620000ad565b865163e6c4247b60e01b8152600490fd5b50858516156200008b565b600080fd5b634e487b7160e01b600052604160045260246000fd5b51906001600160a01b03821682036200019c5756fe608060408181526004908136101561001657600080fd5b600092833560e01c90816301ffc9a714610cf75750806308f4333314610c715780631bae91a4146108c2578063248a9ca314610c465780632726b50614610b595780632f2ff15d14610aac57806336568abe14610a1a5780633f4ba83a14610984578063469048401461095b5780634a0ea4d7146102725780635c975abb1461093757806368c4ac26146108fa578063729c3e0e146108c257806375b238fc146108875780638456cb59146107f357806384e9abca146105a457806391d148541461055d578063966ecf3b1461029f57806399fcfb4314610272578063a217fddf14610253578063d547741f14610216578063e74b981b146101b95763e79864661461012157600080fd5b346101b557806003193601126101b557610139610d4b565b90602435918215158093036101b157610150610d7c565b6001600160a01b03169283156101a357916020917fd86c88b4a367d9b81a6e00c9d3f7d01657bffef358fa8968c91c045ae99f0d5293858752835280862060ff1981541660ff841617905551908152a280f35b905163e6c4247b60e01b8152fd5b8480fd5b8280fd5b5090346101b55760203660031901126101b5576101d4610d4b565b6101dc610d7c565b6001600160a01b03169182156102095750506bffffffffffffffffffffffff60a01b600354161760035580f35b5163e6c4247b60e01b8152fd5b50346101b557806003193601126101b557610250913561024b6001610239610d66565b93838752600260205286200154610f92565b61115b565b80f35b83823461026e578160031936011261026e5751908152602090f35b5080fd5b5090346101b55760203660031901126101b5578160209360ff923581526005855220541690519015158152f35b50346101b557806003193601126101b5576102b8610d4b565b600284541461051a576002845560018060a01b0380911691828552602090600682528086209260249384358852835281872095865494851561050b576001880180549660ff8860a01c166104fb5760028a019785895416928333036104eb5760ff60a01b198216600160a01b179055865163a9059cbb60e01b89820190815285820194909452604480820193909352918252608082019267ffffffffffffffff9291871691838511818610176104d95760c08101858110858211176104c75789528985527f5361666545524332303a206c6f772d6c6576656c2063616c6c206661696c656460a0820152518d9182919082855af1913d156104b9573d9081116104a757918c916103e794938951906103d98c601f19601f840116018361110d565b815280938b3d92013e61131f565b80519086821592831561048f575b5050501561043a575050907f8895f1b42dba89b953fe6fe74f5854edd2c96c7b2ac3123a216d9cca241225c69291600387015494541695549051908152a46001815580f35b835162461bcd60e51b8152918201859052602a908201527f5361666545524332303a204552433230206f7065726174696f6e20646964206e6044820152691bdd081cdd58d8d9595960b21b6064820152608490fd5b61049f9350820181019101611307565b3886816103f5565b634e487b7160e01b8d5260418652848dfd5b506103e7929160609161131f565b634e487b7160e01b8f5260418852868ffd5b634e487b7160e01b8e5260418752858efd5b87516311c5a7c360e11b81528690fd5b855163017cbd4560e61b81528490fd5b50825163411321ed60e01b8152fd5b815162461bcd60e51b8152602081850152601f60248201527f5265656e7472616e637947756172643a207265656e7472616e742063616c6c006044820152606490fd5b5090346101b557816003193601126101b5578160209360ff9261057e610d66565b90358252600286528282206001600160a01b039091168252855220549151911615158152f35b5082903461026e57608036600319011261026e578235916105c3610d66565b6001600160a01b0393604435858116939291908490036101b55760643591811580156107eb575b6107db5786169283815260209780895260ff8783205416156107cd578382526005895260ff87832054166107bf5733825260078952868220549787516323b872dd60e01b815233838201523060248201528460448201528a81606481878b5af180156107b557888c936003938993610788575b508b8d81519661066c886110bf565b8a8852808801928d8452808901928b845260608a019263ffffffff4216845260808b0197885260a08b01988952338d5260068152828d20918d52528a2097518855836001890193511683549260ff60a01b9051151560a01b169163ffffffff60a81b905160a81b169266ffffffffffffff60c81b161717179055600285019151166bffffffffffffffffffffffff60a01b825416179055519101553382526007895286822090815490600019821461077557509060018893920190558381526005895220600160ff1982541617905584519283528683015284848301527f9901cb80a9fc9d95ca736833266efdbac89fb6ccf596f4c47dd1804389be2a6f60603393a451908152f35b634e487b7160e01b845260119052602483fd5b6107a790863d88116107ae575b61079f818361110d565b810190611307565b508e61065d565b503d610795565b89513d86823e3d90fd5b865163424e8d7160e01b8152fd5b8651633dd1b30560e01b8152fd5b855163162908e360e11b81528890fd5b5084156105ea565b5090346101b557826003193601126101b55761080d610d7c565b6001549060ff821661085157507f62e78cea01bee320cd4e420270b5ea74000d11b0c9f74754ebdbfc544b05a25891600160209260ff19161760015551338152a180f35b606490602084519162461bcd60e51b8352820152601060248201526f14185d5cd8589b194e881c185d5cd95960821b6044820152fd5b83823461026e578160031936011261026e57602090517fa49807205ce4d355092ef5a8a18f56e8913cf4a201fbe287825b095693c217758152f35b83823461026e57602036600319011261026e5760209181906001600160a01b036108ea610d4b565b1681526007845220549051908152f35b5090346101b55760203660031901126101b55760209260ff918391906001600160a01b03610926610d4b565b168252855220541690519015158152f35b83823461026e578160031936011261026e5760209060ff6001541690519015158152f35b83823461026e578160031936011261026e5760035490516001600160a01b039091168152602090f35b5090346101b557826003193601126101b55761099e610d7c565b6001549060ff8216156109e0575060ff1916600155513381527f5db9ee0a495bf2e6ff9c91a7834c1ba4fdd244a5e8aa4e537bd38aeae4b073aa90602090a180f35b606490602084519162461bcd60e51b8352820152601460248201527314185d5cd8589b194e881b9bdd081c185d5cd95960621b6044820152fd5b5091903461026e578260031936011261026e57610a35610d66565b90336001600160a01b03831603610a515790610250913561115b565b608490602085519162461bcd60e51b8352820152602f60248201527f416363657373436f6e74726f6c3a2063616e206f6e6c792072656e6f756e636560448201526e103937b632b9903337b91039b2b63360891b6064820152fd5b5090346101b557816003193601126101b5573590610ac8610d66565b908284526002602052610ae060018286200154610f92565b828452600260209081528185206001600160a01b039093168086529290528084205460ff1615610b0e578380f35b82845260026020528084208285526020528320600160ff1982541617905533917f2f8788117e7eff1d82e926ec794901d17c78024a50270940304540a733656f0d8480a43880808380f35b83823461026e578060031936011261026e5760c09181610b77610d4b565b918060a08351610b86816110bf565b8281528260208201528285820152826060820152826080820152015260018060a01b038093168152600660205281812060243582526020522090825191610bcc836110bf565b8054938484526001820154906020850190848316825280860160ff8460a01c161515815285606088019363ffffffff809660a81c16855260a060038360028a0154169860808c01998a52015499019889528351998a52511660208901525115159087015251166060850152511660808301525160a0820152f35b5090346101b55760203660031901126101b55781602093600192358152600285522001549051908152f35b83823461026e578060031936011261026e5760c0916001600160a01b0390829082610c9a610d4b565b168152600660205281812060243582526020522063ffffffff8154936001830154906003856002860154169401549481519687528216602087015260ff8260a01c1615159086015260a81c166060840152608083015260a0820152f35b849084346101b55760203660031901126101b5573563ffffffff60e01b81168091036101b55760209250637965db0b60e01b8114908115610d3a575b5015158152f35b6301ffc9a760e01b14905083610d33565b600435906001600160a01b0382168203610d6157565b600080fd5b602435906001600160a01b0382168203610d6157565b3360009081527fe5ebfa64fca8d502a8e50c1edffd2c31ef4dad5b396e65d9f397fb028f74abc560209081526040808320549092907fa49807205ce4d355092ef5a8a18f56e8913cf4a201fbe287825b095693c217759060ff1615610de15750505050565b610dea336111f8565b845191610df6836110f1565b60428352848301936060368637835115610f7e5760308553835190600191821015610f7e5790607860218601536041915b818311610f1057505050610ece57610e7c938593610eb493610ea5604894610eca9951988576020b1b1b2b9b9a1b7b73a3937b61d1030b1b1b7bab73a1604d1b8b97880152825192839160378901910161109c565b8401917001034b99036b4b9b9b4b733903937b6329607d1b60378401525180938684019061109c565b0103602881018552018361110d565b5162461bcd60e51b81529182916004830161112f565b0390fd5b60648486519062461bcd60e51b825280600483015260248201527f537472696e67733a20686578206c656e67746820696e73756666696369656e746044820152fd5b909192600f81166010811015610f6a576f181899199a1a9b1b9c1cb0b131b232b360811b901a610f4085886111d1565b5360041c928015610f5657600019019190610e27565b634e487b7160e01b82526011600452602482fd5b634e487b7160e01b83526032600452602483fd5b634e487b7160e01b81526032600452602490fd5b600081815260209060028252604092838220338352835260ff848320541615610fbb5750505050565b610fc4336111f8565b845191610fd0836110f1565b60428352848301936060368637835115610f7e5760308553835190600191821015610f7e5790607860218601536041915b81831161105657505050610ece57610e7c938593610eb493610ea5604894610eca9951988576020b1b1b2b9b9a1b7b73a3937b61d1030b1b1b7bab73a1604d1b8b97880152825192839160378901910161109c565b909192600f81166010811015610f6a576f181899199a1a9b1b9c1cb0b131b232b360811b901a61108685886111d1565b5360041c928015610f5657600019019190611001565b60005b8381106110af5750506000910152565b818101518382015260200161109f565b60c0810190811067ffffffffffffffff8211176110db57604052565b634e487b7160e01b600052604160045260246000fd5b6080810190811067ffffffffffffffff8211176110db57604052565b90601f8019910116810190811067ffffffffffffffff8211176110db57604052565b6040916020825261114f815180928160208601526020868601910161109c565b601f01601f1916010190565b906000918083526002602052604083209160018060a01b03169182845260205260ff60408420541661118c57505050565b8083526002602052604083208284526020526040832060ff1981541690557ff6391f5c32d9c69d2a47ea670b442974b53935d1edc7fd64eb21e047a839171b339380a4565b9081518110156111e2570160200190565b634e487b7160e01b600052603260045260246000fd5b604051906060820182811067ffffffffffffffff8211176110db57604052602a82526020820160403682378251156111e2576030905381516001908110156111e257607860218401536029905b8082116112995750506112555790565b606460405162461bcd60e51b815260206004820152602060248201527f537472696e67733a20686578206c656e67746820696e73756666696369656e746044820152fd5b9091600f811660108110156112f2576f181899199a1a9b1b9c1cb0b131b232b360811b901a6112c884866111d1565b5360041c9180156112dd576000190190611245565b60246000634e487b7160e01b81526011600452fd5b60246000634e487b7160e01b81526032600452fd5b90816020910312610d6157518015158103610d615790565b919290156113815750815115611333575090565b3b1561133c5790565b60405162461bcd60e51b815260206004820152601d60248201527f416464726573733a2063616c6c20746f206e6f6e2d636f6e74726163740000006044820152606490fd5b8251909150156113945750805190602001fd5b60405162461bcd60e51b8152908190610eca906004830161112f56fea2646970667358221220a1264b543f4f416e6a6666fca13dfd671db59e0aedc54b4fd69ff3b40b25392f64736f6c634300081400332f8788117e7eff1d82e926ec794901d17c78024a50270940304540a733656f0d","opcodes":"PUSH1 0x80 CALLVALUE PUSH3 0x19C JUMPI PUSH3 0x15D3 SWAP1 PUSH1 0x1F CODESIZE DUP4 SWAP1 SUB SWAP1 DUP2 ADD PUSH1 0x1F NOT AND DUP3 ADD SWAP1 PUSH1 0x1 PUSH1 0x1 PUSH1 0x40 SHL SUB DUP3 GT DUP4 DUP4 LT OR PUSH3 0x1A1 JUMPI DUP1 DUP4 SWAP2 PUSH1 0x40 SWAP6 DUP7 SWAP5 DUP6 MSTORE DUP4 CODECOPY DUP2 ADD SUB SLT PUSH3 0x19C JUMPI PUSH3 0x4F DUP2 PUSH3 0x1B7 JUMP JUMPDEST SWAP1 PUSH3 0x5F PUSH1 0x20 DUP1 SWAP3 ADD PUSH3 0x1B7 JUMP JUMPDEST PUSH1 0x1 PUSH1 0x0 DUP2 DUP2 SSTORE DUP2 SLOAD PUSH1 0xFF NOT SWAP1 DUP2 AND SWAP1 SWAP3 SSTORE PUSH1 0x1 PUSH1 0x1 PUSH1 0xA0 SHL SUB SWAP5 SWAP3 SWAP4 SWAP1 SWAP3 DUP6 AND SWAP2 DUP3 ISZERO DUP1 ISZERO PUSH3 0x191 JUMPI JUMPDEST PUSH3 0x180 JUMPI DUP4 DUP1 MSTORE PUSH1 0x2 DUP3 MSTORE DUP7 DUP5 KECCAK256 DUP4 DUP6 MSTORE DUP3 MSTORE PUSH1 0xFF DUP8 DUP6 KECCAK256 SLOAD AND ISZERO PUSH3 0x149 JUMPI JUMPDEST PUSH32 0xA49807205CE4D355092EF5A8A18F56E8913CF4A201FBE287825B095693C21775 SWAP2 DUP3 DUP6 MSTORE PUSH1 0x2 DUP2 MSTORE DUP8 DUP6 KECCAK256 DUP5 DUP7 MSTORE DUP2 MSTORE PUSH1 0xFF DUP9 DUP7 KECCAK256 SLOAD AND ISZERO PUSH3 0x10F JUMPI JUMPDEST PUSH1 0x3 DUP1 SLOAD PUSH1 0x1 PUSH1 0x1 PUSH1 0xA0 SHL SUB NOT AND DUP8 DUP10 AND OR SWAP1 SSTORE DUP8 MLOAD PUSH2 0x13E6 SWAP1 DUP2 PUSH3 0x1CD DUP3 CODECOPY RETURN JUMPDEST DUP3 DUP6 MSTORE PUSH1 0x2 DUP2 MSTORE DUP8 DUP6 KECCAK256 SWAP1 DUP5 DUP7 MSTORE MSTORE PUSH1 0x1 DUP8 DUP6 KECCAK256 SWAP2 DUP3 SLOAD AND OR SWAP1 SSTORE PUSH1 0x0 DUP1 MLOAD PUSH1 0x20 PUSH3 0x15B3 DUP4 CODECOPY DUP2 MLOAD SWAP2 MSTORE CALLER SWAP4 DUP1 LOG4 CODESIZE DUP1 DUP1 DUP1 DUP1 PUSH3 0xEC JUMP JUMPDEST DUP4 DUP1 MSTORE PUSH1 0x2 DUP3 MSTORE DUP7 DUP5 KECCAK256 DUP4 DUP6 MSTORE DUP3 MSTORE DUP7 DUP5 KECCAK256 PUSH1 0x1 DUP3 DUP3 SLOAD AND OR SWAP1 SSTORE CALLER DUP4 DUP6 PUSH1 0x0 DUP1 MLOAD PUSH1 0x20 PUSH3 0x15B3 DUP4 CODECOPY DUP2 MLOAD SWAP2 MSTORE DUP2 DUP1 LOG4 PUSH3 0xAD JUMP JUMPDEST DUP7 MLOAD PUSH4 0xE6C4247B PUSH1 0xE0 SHL DUP2 MSTORE PUSH1 0x4 SWAP1 REVERT JUMPDEST POP DUP6 DUP6 AND ISZERO PUSH3 0x8B JUMP JUMPDEST PUSH1 0x0 DUP1 REVERT JUMPDEST PUSH4 0x4E487B71 PUSH1 0xE0 SHL PUSH1 0x0 MSTORE PUSH1 0x41 PUSH1 0x4 MSTORE PUSH1 0x24 PUSH1 0x0 REVERT JUMPDEST MLOAD SWAP1 PUSH1 0x1 PUSH1 0x1 PUSH1 0xA0 SHL SUB DUP3 AND DUP3 SUB PUSH3 0x19C JUMPI JUMP INVALID PUSH1 0x80 PUSH1 0x40 DUP2 DUP2 MSTORE PUSH1 0x4 SWAP1 DUP2 CALLDATASIZE LT ISZERO PUSH2 0x16 JUMPI PUSH1 0x0 DUP1 REVERT JUMPDEST PUSH1 0x0 SWAP3 DUP4 CALLDATALOAD PUSH1 0xE0 SHR SWAP1 DUP2 PUSH4 0x1FFC9A7 EQ PUSH2 0xCF7 JUMPI POP DUP1 PUSH4 0x8F43333 EQ PUSH2 0xC71 JUMPI DUP1 PUSH4 0x1BAE91A4 EQ PUSH2 0x8C2 JUMPI DUP1 PUSH4 0x248A9CA3 EQ PUSH2 0xC46 JUMPI DUP1 PUSH4 0x2726B506 EQ PUSH2 0xB59 JUMPI DUP1 PUSH4 0x2F2FF15D EQ PUSH2 0xAAC JUMPI DUP1 PUSH4 0x36568ABE EQ PUSH2 0xA1A JUMPI DUP1 PUSH4 0x3F4BA83A EQ PUSH2 0x984 JUMPI DUP1 PUSH4 0x46904840 EQ PUSH2 0x95B JUMPI DUP1 PUSH4 0x4A0EA4D7 EQ PUSH2 0x272 JUMPI DUP1 PUSH4 0x5C975ABB EQ PUSH2 0x937 JUMPI DUP1 PUSH4 0x68C4AC26 EQ PUSH2 0x8FA JUMPI DUP1 PUSH4 0x729C3E0E EQ PUSH2 0x8C2 JUMPI DUP1 PUSH4 0x75B238FC EQ PUSH2 0x887 JUMPI DUP1 PUSH4 0x8456CB59 EQ PUSH2 0x7F3 JUMPI DUP1 PUSH4 0x84E9ABCA EQ PUSH2 0x5A4 JUMPI DUP1 PUSH4 0x91D14854 EQ PUSH2 0x55D JUMPI DUP1 PUSH4 0x966ECF3B EQ PUSH2 0x29F JUMPI DUP1 PUSH4 0x99FCFB43 EQ PUSH2 0x272 JUMPI DUP1 PUSH4 0xA217FDDF EQ PUSH2 0x253 JUMPI DUP1 PUSH4 0xD547741F EQ PUSH2 0x216 JUMPI DUP1 PUSH4 0xE74B981B EQ PUSH2 0x1B9 JUMPI PUSH4 0xE7986466 EQ PUSH2 0x121 JUMPI PUSH1 0x0 DUP1 REVERT JUMPDEST CALLVALUE PUSH2 0x1B5 JUMPI DUP1 PUSH1 0x3 NOT CALLDATASIZE ADD SLT PUSH2 0x1B5 JUMPI PUSH2 0x139 PUSH2 0xD4B JUMP JUMPDEST SWAP1 PUSH1 0x24 CALLDATALOAD SWAP2 DUP3 ISZERO ISZERO DUP1 SWAP4 SUB PUSH2 0x1B1 JUMPI PUSH2 0x150 PUSH2 0xD7C JUMP JUMPDEST PUSH1 0x1 PUSH1 0x1 PUSH1 0xA0 SHL SUB AND SWAP3 DUP4 ISZERO PUSH2 0x1A3 JUMPI SWAP2 PUSH1 0x20 SWAP2 PUSH32 0xD86C88B4A367D9B81A6E00C9D3F7D01657BFFEF358FA8968C91C045AE99F0D52 SWAP4 DUP6 DUP8 MSTORE DUP4 MSTORE DUP1 DUP7 KECCAK256 PUSH1 0xFF NOT DUP2 SLOAD AND PUSH1 0xFF DUP5 AND OR SWAP1 SSTORE MLOAD SWAP1 DUP2 MSTORE LOG2 DUP1 RETURN JUMPDEST SWAP1 MLOAD PUSH4 0xE6C4247B PUSH1 0xE0 SHL DUP2 MSTORE REVERT JUMPDEST DUP5 DUP1 REVERT JUMPDEST DUP3 DUP1 REVERT JUMPDEST POP SWAP1 CALLVALUE PUSH2 0x1B5 JUMPI PUSH1 0x20 CALLDATASIZE PUSH1 0x3 NOT ADD SLT PUSH2 0x1B5 JUMPI PUSH2 0x1D4 PUSH2 0xD4B JUMP JUMPDEST PUSH2 0x1DC PUSH2 0xD7C JUMP JUMPDEST PUSH1 0x1 PUSH1 0x1 PUSH1 0xA0 SHL SUB AND SWAP2 DUP3 ISZERO PUSH2 0x209 JUMPI POP POP PUSH12 0xFFFFFFFFFFFFFFFFFFFFFFFF PUSH1 0xA0 SHL PUSH1 0x3 SLOAD AND OR PUSH1 0x3 SSTORE DUP1 RETURN JUMPDEST MLOAD PUSH4 0xE6C4247B PUSH1 0xE0 SHL DUP2 MSTORE REVERT JUMPDEST POP CALLVALUE PUSH2 0x1B5 JUMPI DUP1 PUSH1 0x3 NOT CALLDATASIZE ADD SLT PUSH2 0x1B5 JUMPI PUSH2 0x250 SWAP2 CALLDATALOAD PUSH2 0x24B PUSH1 0x1 PUSH2 0x239 PUSH2 0xD66 JUMP JUMPDEST SWAP4 DUP4 DUP8 MSTORE PUSH1 0x2 PUSH1 0x20 MSTORE DUP7 KECCAK256 ADD SLOAD PUSH2 0xF92 JUMP JUMPDEST PUSH2 0x115B JUMP JUMPDEST DUP1 RETURN JUMPDEST DUP4 DUP3 CALLVALUE PUSH2 0x26E JUMPI DUP2 PUSH1 0x3 NOT CALLDATASIZE ADD SLT PUSH2 0x26E JUMPI MLOAD SWAP1 DUP2 MSTORE PUSH1 0x20 SWAP1 RETURN JUMPDEST POP DUP1 REVERT JUMPDEST POP SWAP1 CALLVALUE PUSH2 0x1B5 JUMPI PUSH1 0x20 CALLDATASIZE PUSH1 0x3 NOT ADD SLT PUSH2 0x1B5 JUMPI DUP2 PUSH1 0x20 SWAP4 PUSH1 0xFF SWAP3 CALLDATALOAD DUP2 MSTORE PUSH1 0x5 DUP6 MSTORE KECCAK256 SLOAD AND SWAP1 MLOAD SWAP1 ISZERO ISZERO DUP2 MSTORE RETURN JUMPDEST POP CALLVALUE PUSH2 0x1B5 JUMPI DUP1 PUSH1 0x3 NOT CALLDATASIZE ADD SLT PUSH2 0x1B5 JUMPI PUSH2 0x2B8 PUSH2 0xD4B JUMP JUMPDEST PUSH1 0x2 DUP5 SLOAD EQ PUSH2 0x51A JUMPI PUSH1 0x2 DUP5 SSTORE PUSH1 0x1 DUP1 PUSH1 0xA0 SHL SUB DUP1 SWAP2 AND SWAP2 DUP3 DUP6 MSTORE PUSH1 0x20 SWAP1 PUSH1 0x6 DUP3 MSTORE DUP1 DUP7 KECCAK256 SWAP3 PUSH1 0x24 SWAP4 DUP5 CALLDATALOAD DUP9 MSTORE DUP4 MSTORE DUP2 DUP8 KECCAK256 SWAP6 DUP7 SLOAD SWAP5 DUP6 ISZERO PUSH2 0x50B JUMPI PUSH1 0x1 DUP9 ADD DUP1 SLOAD SWAP7 PUSH1 0xFF DUP9 PUSH1 0xA0 SHR AND PUSH2 0x4FB JUMPI PUSH1 0x2 DUP11 ADD SWAP8 DUP6 DUP10 SLOAD AND SWAP3 DUP4 CALLER SUB PUSH2 0x4EB JUMPI PUSH1 0xFF PUSH1 0xA0 SHL NOT DUP3 AND PUSH1 0x1 PUSH1 0xA0 SHL OR SWAP1 SSTORE DUP7 MLOAD PUSH4 0xA9059CBB PUSH1 0xE0 SHL DUP10 DUP3 ADD SWAP1 DUP2 MSTORE DUP6 DUP3 ADD SWAP5 SWAP1 SWAP5 MSTORE PUSH1 0x44 DUP1 DUP3 ADD SWAP4 SWAP1 SWAP4 MSTORE SWAP2 DUP3 MSTORE PUSH1 0x80 DUP3 ADD SWAP3 PUSH8 0xFFFFFFFFFFFFFFFF SWAP3 SWAP2 DUP8 AND SWAP2 DUP4 DUP6 GT DUP2 DUP7 LT OR PUSH2 0x4D9 JUMPI PUSH1 0xC0 DUP2 ADD DUP6 DUP2 LT DUP6 DUP3 GT OR PUSH2 0x4C7 JUMPI DUP10 MSTORE DUP10 DUP6 MSTORE PUSH32 0x5361666545524332303A206C6F772D6C6576656C2063616C6C206661696C6564 PUSH1 0xA0 DUP3 ADD MSTORE MLOAD DUP14 SWAP2 DUP3 SWAP2 SWAP1 DUP3 DUP6 GAS CALL SWAP2 RETURNDATASIZE ISZERO PUSH2 0x4B9 JUMPI RETURNDATASIZE SWAP1 DUP2 GT PUSH2 0x4A7 JUMPI SWAP2 DUP13 SWAP2 PUSH2 0x3E7 SWAP5 SWAP4 DUP10 MLOAD SWAP1 PUSH2 0x3D9 DUP13 PUSH1 0x1F NOT PUSH1 0x1F DUP5 ADD AND ADD DUP4 PUSH2 0x110D JUMP JUMPDEST DUP2 MSTORE DUP1 SWAP4 DUP12 RETURNDATASIZE SWAP3 ADD RETURNDATACOPY PUSH2 0x131F JUMP JUMPDEST DUP1 MLOAD SWAP1 DUP7 DUP3 ISZERO SWAP3 DUP4 ISZERO PUSH2 0x48F JUMPI JUMPDEST POP POP POP ISZERO PUSH2 0x43A JUMPI POP POP SWAP1 PUSH32 0x8895F1B42DBA89B953FE6FE74F5854EDD2C96C7B2AC3123A216D9CCA241225C6 SWAP3 SWAP2 PUSH1 0x3 DUP8 ADD SLOAD SWAP5 SLOAD AND SWAP6 SLOAD SWAP1 MLOAD SWAP1 DUP2 MSTORE LOG4 PUSH1 0x1 DUP2 SSTORE DUP1 RETURN JUMPDEST DUP4 MLOAD PUSH3 0x461BCD PUSH1 0xE5 SHL DUP2 MSTORE SWAP2 DUP3 ADD DUP6 SWAP1 MSTORE PUSH1 0x2A SWAP1 DUP3 ADD MSTORE PUSH32 0x5361666545524332303A204552433230206F7065726174696F6E20646964206E PUSH1 0x44 DUP3 ADD MSTORE PUSH10 0x1BDD081CDD58D8D95959 PUSH1 0xB2 SHL PUSH1 0x64 DUP3 ADD MSTORE PUSH1 0x84 SWAP1 REVERT JUMPDEST PUSH2 0x49F SWAP4 POP DUP3 ADD DUP2 ADD SWAP2 ADD PUSH2 0x1307 JUMP JUMPDEST CODESIZE DUP7 DUP2 PUSH2 0x3F5 JUMP JUMPDEST PUSH4 0x4E487B71 PUSH1 0xE0 SHL DUP14 MSTORE PUSH1 0x41 DUP7 MSTORE DUP5 DUP14 REVERT JUMPDEST POP PUSH2 0x3E7 SWAP3 SWAP2 PUSH1 0x60 SWAP2 PUSH2 0x131F JUMP JUMPDEST PUSH4 0x4E487B71 PUSH1 0xE0 SHL DUP16 MSTORE PUSH1 0x41 DUP9 MSTORE DUP7 DUP16 REVERT JUMPDEST PUSH4 0x4E487B71 PUSH1 0xE0 SHL DUP15 MSTORE PUSH1 0x41 DUP8 MSTORE DUP6 DUP15 REVERT JUMPDEST DUP8 MLOAD PUSH4 0x11C5A7C3 PUSH1 0xE1 SHL DUP2 MSTORE DUP7 SWAP1 REVERT JUMPDEST DUP6 MLOAD PUSH4 0x17CBD45 PUSH1 0xE6 SHL DUP2 MSTORE DUP5 SWAP1 REVERT JUMPDEST POP DUP3 MLOAD PUSH4 0x411321ED PUSH1 0xE0 SHL DUP2 MSTORE REVERT JUMPDEST DUP2 MLOAD PUSH3 0x461BCD PUSH1 0xE5 SHL DUP2 MSTORE PUSH1 0x20 DUP2 DUP6 ADD MSTORE PUSH1 0x1F PUSH1 0x24 DUP3 ADD MSTORE PUSH32 0x5265656E7472616E637947756172643A207265656E7472616E742063616C6C00 PUSH1 0x44 DUP3 ADD MSTORE PUSH1 0x64 SWAP1 REVERT JUMPDEST POP SWAP1 CALLVALUE PUSH2 0x1B5 JUMPI DUP2 PUSH1 0x3 NOT CALLDATASIZE ADD SLT PUSH2 0x1B5 JUMPI DUP2 PUSH1 0x20 SWAP4 PUSH1 0xFF SWAP3 PUSH2 0x57E PUSH2 0xD66 JUMP JUMPDEST SWAP1 CALLDATALOAD DUP3 MSTORE PUSH1 0x2 DUP7 MSTORE DUP3 DUP3 KECCAK256 PUSH1 0x1 PUSH1 0x1 PUSH1 0xA0 SHL SUB SWAP1 SWAP2 AND DUP3 MSTORE DUP6 MSTORE KECCAK256 SLOAD SWAP2 MLOAD SWAP2 AND ISZERO ISZERO DUP2 MSTORE RETURN JUMPDEST POP DUP3 SWAP1 CALLVALUE PUSH2 0x26E JUMPI PUSH1 0x80 CALLDATASIZE PUSH1 0x3 NOT ADD SLT PUSH2 0x26E JUMPI DUP3 CALLDATALOAD SWAP2 PUSH2 0x5C3 PUSH2 0xD66 JUMP JUMPDEST PUSH1 0x1 PUSH1 0x1 PUSH1 0xA0 SHL SUB SWAP4 PUSH1 0x44 CALLDATALOAD DUP6 DUP2 AND SWAP4 SWAP3 SWAP2 SWAP1 DUP5 SWAP1 SUB PUSH2 0x1B5 JUMPI PUSH1 0x64 CALLDATALOAD SWAP2 DUP2 ISZERO DUP1 ISZERO PUSH2 0x7EB JUMPI JUMPDEST PUSH2 0x7DB JUMPI DUP7 AND SWAP3 DUP4 DUP2 MSTORE PUSH1 0x20 SWAP8 DUP1 DUP10 MSTORE PUSH1 0xFF DUP8 DUP4 KECCAK256 SLOAD AND ISZERO PUSH2 0x7CD JUMPI DUP4 DUP3 MSTORE PUSH1 0x5 DUP10 MSTORE PUSH1 0xFF DUP8 DUP4 KECCAK256 SLOAD AND PUSH2 0x7BF JUMPI CALLER DUP3 MSTORE PUSH1 0x7 DUP10 MSTORE DUP7 DUP3 KECCAK256 SLOAD SWAP8 DUP8 MLOAD PUSH4 0x23B872DD PUSH1 0xE0 SHL DUP2 MSTORE CALLER DUP4 DUP3 ADD MSTORE ADDRESS PUSH1 0x24 DUP3 ADD MSTORE DUP5 PUSH1 0x44 DUP3 ADD MSTORE DUP11 DUP2 PUSH1 0x64 DUP2 DUP8 DUP12 GAS CALL DUP1 ISZERO PUSH2 0x7B5 JUMPI DUP9 DUP13 SWAP4 PUSH1 0x3 SWAP4 DUP10 SWAP4 PUSH2 0x788 JUMPI JUMPDEST POP DUP12 DUP14 DUP2 MLOAD SWAP7 PUSH2 0x66C DUP9 PUSH2 0x10BF JUMP JUMPDEST DUP11 DUP9 MSTORE DUP1 DUP9 ADD SWAP3 DUP14 DUP5 MSTORE DUP1 DUP10 ADD SWAP3 DUP12 DUP5 MSTORE PUSH1 0x60 DUP11 ADD SWAP3 PUSH4 0xFFFFFFFF TIMESTAMP AND DUP5 MSTORE PUSH1 0x80 DUP12 ADD SWAP8 DUP9 MSTORE PUSH1 0xA0 DUP12 ADD SWAP9 DUP10 MSTORE CALLER DUP14 MSTORE PUSH1 0x6 DUP2 MSTORE DUP3 DUP14 KECCAK256 SWAP2 DUP14 MSTORE MSTORE DUP11 KECCAK256 SWAP8 MLOAD DUP9 SSTORE DUP4 PUSH1 0x1 DUP10 ADD SWAP4 MLOAD AND DUP4 SLOAD SWAP3 PUSH1 0xFF PUSH1 0xA0 SHL SWAP1 MLOAD ISZERO ISZERO PUSH1 0xA0 SHL AND SWAP2 PUSH4 0xFFFFFFFF PUSH1 0xA8 SHL SWAP1 MLOAD PUSH1 0xA8 SHL AND SWAP3 PUSH7 0xFFFFFFFFFFFFFF PUSH1 0xC8 SHL AND OR OR OR SWAP1 SSTORE PUSH1 0x2 DUP6 ADD SWAP2 MLOAD AND PUSH12 0xFFFFFFFFFFFFFFFFFFFFFFFF PUSH1 0xA0 SHL DUP3 SLOAD AND OR SWAP1 SSTORE MLOAD SWAP2 ADD SSTORE CALLER DUP3 MSTORE PUSH1 0x7 DUP10 MSTORE DUP7 DUP3 KECCAK256 SWAP1 DUP2 SLOAD SWAP1 PUSH1 0x0 NOT DUP3 EQ PUSH2 0x775 JUMPI POP SWAP1 PUSH1 0x1 DUP9 SWAP4 SWAP3 ADD SWAP1 SSTORE DUP4 DUP2 MSTORE PUSH1 0x5 DUP10 MSTORE KECCAK256 PUSH1 0x1 PUSH1 0xFF NOT DUP3 SLOAD AND OR SWAP1 SSTORE DUP5 MLOAD SWAP3 DUP4 MSTORE DUP7 DUP4 ADD MSTORE DUP5 DUP5 DUP4 ADD MSTORE PUSH32 0x9901CB80A9FC9D95CA736833266EFDBAC89FB6CCF596F4C47DD1804389BE2A6F PUSH1 0x60 CALLER SWAP4 LOG4 MLOAD SWAP1 DUP2 MSTORE RETURN JUMPDEST PUSH4 0x4E487B71 PUSH1 0xE0 SHL DUP5 MSTORE PUSH1 0x11 SWAP1 MSTORE PUSH1 0x24 DUP4 REVERT JUMPDEST PUSH2 0x7A7 SWAP1 DUP7 RETURNDATASIZE DUP9 GT PUSH2 0x7AE JUMPI JUMPDEST PUSH2 0x79F DUP2 DUP4 PUSH2 0x110D JUMP JUMPDEST DUP2 ADD SWAP1 PUSH2 0x1307 JUMP JUMPDEST POP DUP15 PUSH2 0x65D JUMP JUMPDEST POP RETURNDATASIZE PUSH2 0x795 JUMP JUMPDEST DUP10 MLOAD RETURNDATASIZE DUP7 DUP3 RETURNDATACOPY RETURNDATASIZE SWAP1 REVERT JUMPDEST DUP7 MLOAD PUSH4 0x424E8D71 PUSH1 0xE0 SHL DUP2 MSTORE REVERT JUMPDEST DUP7 MLOAD PUSH4 0x3DD1B305 PUSH1 0xE0 SHL DUP2 MSTORE REVERT JUMPDEST DUP6 MLOAD PUSH4 0x162908E3 PUSH1 0xE1 SHL DUP2 MSTORE DUP9 SWAP1 REVERT JUMPDEST POP DUP5 ISZERO PUSH2 0x5EA JUMP JUMPDEST POP SWAP1 CALLVALUE PUSH2 0x1B5 JUMPI DUP3 PUSH1 0x3 NOT CALLDATASIZE ADD SLT PUSH2 0x1B5 JUMPI PUSH2 0x80D PUSH2 0xD7C JUMP JUMPDEST PUSH1 0x1 SLOAD SWAP1 PUSH1 0xFF DUP3 AND PUSH2 0x851 JUMPI POP PUSH32 0x62E78CEA01BEE320CD4E420270B5EA74000D11B0C9F74754EBDBFC544B05A258 SWAP2 PUSH1 0x1 PUSH1 0x20 SWAP3 PUSH1 0xFF NOT AND OR PUSH1 0x1 SSTORE MLOAD CALLER DUP2 MSTORE LOG1 DUP1 RETURN JUMPDEST PUSH1 0x64 SWAP1 PUSH1 0x20 DUP5 MLOAD SWAP2 PUSH3 0x461BCD PUSH1 0xE5 SHL DUP4 MSTORE DUP3 ADD MSTORE PUSH1 0x10 PUSH1 0x24 DUP3 ADD MSTORE PUSH16 0x14185D5CD8589B194E881C185D5CD959 PUSH1 0x82 SHL PUSH1 0x44 DUP3 ADD MSTORE REVERT JUMPDEST DUP4 DUP3 CALLVALUE PUSH2 0x26E JUMPI DUP2 PUSH1 0x3 NOT CALLDATASIZE ADD SLT PUSH2 0x26E JUMPI PUSH1 0x20 SWAP1 MLOAD PUSH32 0xA49807205CE4D355092EF5A8A18F56E8913CF4A201FBE287825B095693C21775 DUP2 MSTORE RETURN JUMPDEST DUP4 DUP3 CALLVALUE PUSH2 0x26E JUMPI PUSH1 0x20 CALLDATASIZE PUSH1 0x3 NOT ADD SLT PUSH2 0x26E JUMPI PUSH1 0x20 SWAP2 DUP2 SWAP1 PUSH1 0x1 PUSH1 0x1 PUSH1 0xA0 SHL SUB PUSH2 0x8EA PUSH2 0xD4B JUMP JUMPDEST AND DUP2 MSTORE PUSH1 0x7 DUP5 MSTORE KECCAK256 SLOAD SWAP1 MLOAD SWAP1 DUP2 MSTORE RETURN JUMPDEST POP SWAP1 CALLVALUE PUSH2 0x1B5 JUMPI PUSH1 0x20 CALLDATASIZE PUSH1 0x3 NOT ADD SLT PUSH2 0x1B5 JUMPI PUSH1 0x20 SWAP3 PUSH1 0xFF SWAP2 DUP4 SWAP2 SWAP1 PUSH1 0x1 PUSH1 0x1 PUSH1 0xA0 SHL SUB PUSH2 0x926 PUSH2 0xD4B JUMP JUMPDEST AND DUP3 MSTORE DUP6 MSTORE KECCAK256 SLOAD AND SWAP1 MLOAD SWAP1 ISZERO ISZERO DUP2 MSTORE RETURN JUMPDEST DUP4 DUP3 CALLVALUE PUSH2 0x26E JUMPI DUP2 PUSH1 0x3 NOT CALLDATASIZE ADD SLT PUSH2 0x26E JUMPI PUSH1 0x20 SWAP1 PUSH1 0xFF PUSH1 0x1 SLOAD AND SWAP1 MLOAD SWAP1 ISZERO ISZERO DUP2 MSTORE RETURN JUMPDEST DUP4 DUP3 CALLVALUE PUSH2 0x26E JUMPI DUP2 PUSH1 0x3 NOT CALLDATASIZE ADD SLT PUSH2 0x26E JUMPI PUSH1 0x3 SLOAD SWAP1 MLOAD PUSH1 0x1 PUSH1 0x1 PUSH1 0xA0 SHL SUB SWAP1 SWAP2 AND DUP2 MSTORE PUSH1 0x20 SWAP1 RETURN JUMPDEST POP SWAP1 CALLVALUE PUSH2 0x1B5 JUMPI DUP3 PUSH1 0x3 NOT CALLDATASIZE ADD SLT PUSH2 0x1B5 JUMPI PUSH2 0x99E PUSH2 0xD7C JUMP JUMPDEST PUSH1 0x1 SLOAD SWAP1 PUSH1 0xFF DUP3 AND ISZERO PUSH2 0x9E0 JUMPI POP PUSH1 0xFF NOT AND PUSH1 0x1 SSTORE MLOAD CALLER DUP2 MSTORE PUSH32 0x5DB9EE0A495BF2E6FF9C91A7834C1BA4FDD244A5E8AA4E537BD38AEAE4B073AA SWAP1 PUSH1 0x20 SWAP1 LOG1 DUP1 RETURN JUMPDEST PUSH1 0x64 SWAP1 PUSH1 0x20 DUP5 MLOAD SWAP2 PUSH3 0x461BCD PUSH1 0xE5 SHL DUP4 MSTORE DUP3 ADD MSTORE PUSH1 0x14 PUSH1 0x24 DUP3 ADD MSTORE PUSH20 0x14185D5CD8589B194E881B9BDD081C185D5CD959 PUSH1 0x62 SHL PUSH1 0x44 DUP3 ADD MSTORE REVERT JUMPDEST POP SWAP2 SWAP1 CALLVALUE PUSH2 0x26E JUMPI DUP3 PUSH1 0x3 NOT CALLDATASIZE ADD SLT PUSH2 0x26E JUMPI PUSH2 0xA35 PUSH2 0xD66 JUMP JUMPDEST SWAP1 CALLER PUSH1 0x1 PUSH1 0x1 PUSH1 0xA0 SHL SUB DUP4 AND SUB PUSH2 0xA51 JUMPI SWAP1 PUSH2 0x250 SWAP2 CALLDATALOAD PUSH2 0x115B JUMP JUMPDEST PUSH1 0x84 SWAP1 PUSH1 0x20 DUP6 MLOAD SWAP2 PUSH3 0x461BCD PUSH1 0xE5 SHL DUP4 MSTORE DUP3 ADD MSTORE PUSH1 0x2F PUSH1 0x24 DUP3 ADD MSTORE PUSH32 0x416363657373436F6E74726F6C3A2063616E206F6E6C792072656E6F756E6365 PUSH1 0x44 DUP3 ADD MSTORE PUSH15 0x103937B632B9903337B91039B2B633 PUSH1 0x89 SHL PUSH1 0x64 DUP3 ADD MSTORE REVERT JUMPDEST POP SWAP1 CALLVALUE PUSH2 0x1B5 JUMPI DUP2 PUSH1 0x3 NOT CALLDATASIZE ADD SLT PUSH2 0x1B5 JUMPI CALLDATALOAD SWAP1 PUSH2 0xAC8 PUSH2 0xD66 JUMP JUMPDEST SWAP1 DUP3 DUP5 MSTORE PUSH1 0x2 PUSH1 0x20 MSTORE PUSH2 0xAE0 PUSH1 0x1 DUP3 DUP7 KECCAK256 ADD SLOAD PUSH2 0xF92 JUMP JUMPDEST DUP3 DUP5 MSTORE PUSH1 0x2 PUSH1 0x20 SWAP1 DUP2 MSTORE DUP2 DUP6 KECCAK256 PUSH1 0x1 PUSH1 0x1 PUSH1 0xA0 SHL SUB SWAP1 SWAP4 AND DUP1 DUP7 MSTORE SWAP3 SWAP1 MSTORE DUP1 DUP5 KECCAK256 SLOAD PUSH1 0xFF AND ISZERO PUSH2 0xB0E JUMPI DUP4 DUP1 RETURN JUMPDEST DUP3 DUP5 MSTORE PUSH1 0x2 PUSH1 0x20 MSTORE DUP1 DUP5 KECCAK256 DUP3 DUP6 MSTORE PUSH1 0x20 MSTORE DUP4 KECCAK256 PUSH1 0x1 PUSH1 0xFF NOT DUP3 SLOAD AND OR SWAP1 SSTORE CALLER SWAP2 PUSH32 0x2F8788117E7EFF1D82E926EC794901D17C78024A50270940304540A733656F0D DUP5 DUP1 LOG4 CODESIZE DUP1 DUP1 DUP4 DUP1 RETURN JUMPDEST DUP4 DUP3 CALLVALUE PUSH2 0x26E JUMPI DUP1 PUSH1 0x3 NOT CALLDATASIZE ADD SLT PUSH2 0x26E JUMPI PUSH1 0xC0 SWAP2 DUP2 PUSH2 0xB77 PUSH2 0xD4B JUMP JUMPDEST SWAP2 DUP1 PUSH1 0xA0 DUP4 MLOAD PUSH2 0xB86 DUP2 PUSH2 0x10BF JUMP JUMPDEST DUP3 DUP2 MSTORE DUP3 PUSH1 0x20 DUP3 ADD MSTORE DUP3 DUP6 DUP3 ADD MSTORE DUP3 PUSH1 0x60 DUP3 ADD MSTORE DUP3 PUSH1 0x80 DUP3 ADD MSTORE ADD MSTORE PUSH1 0x1 DUP1 PUSH1 0xA0 SHL SUB DUP1 SWAP4 AND DUP2 MSTORE PUSH1 0x6 PUSH1 0x20 MSTORE DUP2 DUP2 KECCAK256 PUSH1 0x24 CALLDATALOAD DUP3 MSTORE PUSH1 0x20 MSTORE KECCAK256 SWAP1 DUP3 MLOAD SWAP2 PUSH2 0xBCC DUP4 PUSH2 0x10BF JUMP JUMPDEST DUP1 SLOAD SWAP4 DUP5 DUP5 MSTORE PUSH1 0x1 DUP3 ADD SLOAD SWAP1 PUSH1 0x20 DUP6 ADD SWAP1 DUP5 DUP4 AND DUP3 MSTORE DUP1 DUP7 ADD PUSH1 0xFF DUP5 PUSH1 0xA0 SHR AND ISZERO ISZERO DUP2 MSTORE DUP6 PUSH1 0x60 DUP9 ADD SWAP4 PUSH4 0xFFFFFFFF DUP1 SWAP7 PUSH1 0xA8 SHR AND DUP6 MSTORE PUSH1 0xA0 PUSH1 0x3 DUP4 PUSH1 0x2 DUP11 ADD SLOAD AND SWAP9 PUSH1 0x80 DUP13 ADD SWAP10 DUP11 MSTORE ADD SLOAD SWAP10 ADD SWAP9 DUP10 MSTORE DUP4 MLOAD SWAP10 DUP11 MSTORE MLOAD AND PUSH1 0x20 DUP10 ADD MSTORE MLOAD ISZERO ISZERO SWAP1 DUP8 ADD MSTORE MLOAD AND PUSH1 0x60 DUP6 ADD MSTORE MLOAD AND PUSH1 0x80 DUP4 ADD MSTORE MLOAD PUSH1 0xA0 DUP3 ADD MSTORE RETURN JUMPDEST POP SWAP1 CALLVALUE PUSH2 0x1B5 JUMPI PUSH1 0x20 CALLDATASIZE PUSH1 0x3 NOT ADD SLT PUSH2 0x1B5 JUMPI DUP2 PUSH1 0x20 SWAP4 PUSH1 0x1 SWAP3 CALLDATALOAD DUP2 MSTORE PUSH1 0x2 DUP6 MSTORE KECCAK256 ADD SLOAD SWAP1 MLOAD SWAP1 DUP2 MSTORE RETURN JUMPDEST DUP4 DUP3 CALLVALUE PUSH2 0x26E JUMPI DUP1 PUSH1 0x3 NOT CALLDATASIZE ADD SLT PUSH2 0x26E JUMPI PUSH1 0xC0 SWAP2 PUSH1 0x1 PUSH1 0x1 PUSH1 0xA0 SHL SUB SWAP1 DUP3 SWAP1 DUP3 PUSH2 0xC9A PUSH2 0xD4B JUMP JUMPDEST AND DUP2 MSTORE PUSH1 0x6 PUSH1 0x20 MSTORE DUP2 DUP2 KECCAK256 PUSH1 0x24 CALLDATALOAD DUP3 MSTORE PUSH1 0x20 MSTORE KECCAK256 PUSH4 0xFFFFFFFF DUP2 SLOAD SWAP4 PUSH1 0x1 DUP4 ADD SLOAD SWAP1 PUSH1 0x3 DUP6 PUSH1 0x2 DUP7 ADD SLOAD AND SWAP5 ADD SLOAD SWAP5 DUP2 MLOAD SWAP7 DUP8 MSTORE DUP3 AND PUSH1 0x20 DUP8 ADD MSTORE PUSH1 0xFF DUP3 PUSH1 0xA0 SHR AND ISZERO ISZERO SWAP1 DUP7 ADD MSTORE PUSH1 0xA8 SHR AND PUSH1 0x60 DUP5 ADD MSTORE PUSH1 0x80 DUP4 ADD MSTORE PUSH1 0xA0 DUP3 ADD MSTORE RETURN JUMPDEST DUP5 SWAP1 DUP5 CALLVALUE PUSH2 0x1B5 JUMPI PUSH1 0x20 CALLDATASIZE PUSH1 0x3 NOT ADD SLT PUSH2 0x1B5 JUMPI CALLDATALOAD PUSH4 0xFFFFFFFF PUSH1 0xE0 SHL DUP2 AND DUP1 SWAP2 SUB PUSH2 0x1B5 JUMPI PUSH1 0x20 SWAP3 POP PUSH4 0x7965DB0B PUSH1 0xE0 SHL DUP2 EQ SWAP1 DUP2 ISZERO PUSH2 0xD3A JUMPI JUMPDEST POP ISZERO ISZERO DUP2 MSTORE RETURN JUMPDEST PUSH4 0x1FFC9A7 PUSH1 0xE0 SHL EQ SWAP1 POP DUP4 PUSH2 0xD33 JUMP JUMPDEST PUSH1 0x4 CALLDATALOAD SWAP1 PUSH1 0x1 PUSH1 0x1 PUSH1 0xA0 SHL SUB DUP3 AND DUP3 SUB PUSH2 0xD61 JUMPI JUMP JUMPDEST PUSH1 0x0 DUP1 REVERT JUMPDEST PUSH1 0x24 CALLDATALOAD SWAP1 PUSH1 0x1 PUSH1 0x1 PUSH1 0xA0 SHL SUB DUP3 AND DUP3 SUB PUSH2 0xD61 JUMPI JUMP JUMPDEST CALLER PUSH1 0x0 SWAP1 DUP2 MSTORE PUSH32 0xE5EBFA64FCA8D502A8E50C1EDFFD2C31EF4DAD5B396E65D9F397FB028F74ABC5 PUSH1 0x20 SWAP1 DUP2 MSTORE PUSH1 0x40 DUP1 DUP4 KECCAK256 SLOAD SWAP1 SWAP3 SWAP1 PUSH32 0xA49807205CE4D355092EF5A8A18F56E8913CF4A201FBE287825B095693C21775 SWAP1 PUSH1 0xFF AND ISZERO PUSH2 0xDE1 JUMPI POP POP POP POP JUMP JUMPDEST PUSH2 0xDEA CALLER PUSH2 0x11F8 JUMP JUMPDEST DUP5 MLOAD SWAP2 PUSH2 0xDF6 DUP4 PUSH2 0x10F1 JUMP JUMPDEST PUSH1 0x42 DUP4 MSTORE DUP5 DUP4 ADD SWAP4 PUSH1 0x60 CALLDATASIZE DUP7 CALLDATACOPY DUP4 MLOAD ISZERO PUSH2 0xF7E JUMPI PUSH1 0x30 DUP6 MSTORE8 DUP4 MLOAD SWAP1 PUSH1 0x1 SWAP2 DUP3 LT ISZERO PUSH2 0xF7E JUMPI SWAP1 PUSH1 0x78 PUSH1 0x21 DUP7 ADD MSTORE8 PUSH1 0x41 SWAP2 JUMPDEST DUP2 DUP4 GT PUSH2 0xF10 JUMPI POP POP POP PUSH2 0xECE JUMPI PUSH2 0xE7C SWAP4 DUP6 SWAP4 PUSH2 0xEB4 SWAP4 PUSH2 0xEA5 PUSH1 0x48 SWAP5 PUSH2 0xECA SWAP10 MLOAD SWAP9 DUP6 PUSH23 0x20B1B1B2B9B9A1B7B73A3937B61D1030B1B1B7BAB73A1 PUSH1 0x4D SHL DUP12 SWAP8 DUP9 ADD MSTORE DUP3 MLOAD SWAP3 DUP4 SWAP2 PUSH1 0x37 DUP10 ADD SWAP2 ADD PUSH2 0x109C JUMP JUMPDEST DUP5 ADD SWAP2 PUSH17 0x1034B99036B4B9B9B4B733903937B6329 PUSH1 0x7D SHL PUSH1 0x37 DUP5 ADD MSTORE MLOAD DUP1 SWAP4 DUP7 DUP5 ADD SWAP1 PUSH2 0x109C JUMP JUMPDEST ADD SUB PUSH1 0x28 DUP2 ADD DUP6 MSTORE ADD DUP4 PUSH2 0x110D JUMP JUMPDEST MLOAD PUSH3 0x461BCD PUSH1 0xE5 SHL DUP2 MSTORE SWAP2 DUP3 SWAP2 PUSH1 0x4 DUP4 ADD PUSH2 0x112F JUMP JUMPDEST SUB SWAP1 REVERT JUMPDEST PUSH1 0x64 DUP5 DUP7 MLOAD SWAP1 PUSH3 0x461BCD PUSH1 0xE5 SHL DUP3 MSTORE DUP1 PUSH1 0x4 DUP4 ADD MSTORE PUSH1 0x24 DUP3 ADD MSTORE PUSH32 0x537472696E67733A20686578206C656E67746820696E73756666696369656E74 PUSH1 0x44 DUP3 ADD MSTORE REVERT JUMPDEST SWAP1 SWAP2 SWAP3 PUSH1 0xF DUP2 AND PUSH1 0x10 DUP2 LT ISZERO PUSH2 0xF6A JUMPI PUSH16 0x181899199A1A9B1B9C1CB0B131B232B3 PUSH1 0x81 SHL SWAP1 BYTE PUSH2 0xF40 DUP6 DUP9 PUSH2 0x11D1 JUMP JUMPDEST MSTORE8 PUSH1 0x4 SHR SWAP3 DUP1 ISZERO PUSH2 0xF56 JUMPI PUSH1 0x0 NOT ADD SWAP2 SWAP1 PUSH2 0xE27 JUMP JUMPDEST PUSH4 0x4E487B71 PUSH1 0xE0 SHL DUP3 MSTORE PUSH1 0x11 PUSH1 0x4 MSTORE PUSH1 0x24 DUP3 REVERT JUMPDEST PUSH4 0x4E487B71 PUSH1 0xE0 SHL DUP4 MSTORE PUSH1 0x32 PUSH1 0x4 MSTORE PUSH1 0x24 DUP4 REVERT JUMPDEST PUSH4 0x4E487B71 PUSH1 0xE0 SHL DUP2 MSTORE PUSH1 0x32 PUSH1 0x4 MSTORE PUSH1 0x24 SWAP1 REVERT JUMPDEST PUSH1 0x0 DUP2 DUP2 MSTORE PUSH1 0x20 SWAP1 PUSH1 0x2 DUP3 MSTORE PUSH1 0x40 SWAP3 DUP4 DUP3 KECCAK256 CALLER DUP4 MSTORE DUP4 MSTORE PUSH1 0xFF DUP5 DUP4 KECCAK256 SLOAD AND ISZERO PUSH2 0xFBB JUMPI POP POP POP POP JUMP JUMPDEST PUSH2 0xFC4 CALLER PUSH2 0x11F8 JUMP JUMPDEST DUP5 MLOAD SWAP2 PUSH2 0xFD0 DUP4 PUSH2 0x10F1 JUMP JUMPDEST PUSH1 0x42 DUP4 MSTORE DUP5 DUP4 ADD SWAP4 PUSH1 0x60 CALLDATASIZE DUP7 CALLDATACOPY DUP4 MLOAD ISZERO PUSH2 0xF7E JUMPI PUSH1 0x30 DUP6 MSTORE8 DUP4 MLOAD SWAP1 PUSH1 0x1 SWAP2 DUP3 LT ISZERO PUSH2 0xF7E JUMPI SWAP1 PUSH1 0x78 PUSH1 0x21 DUP7 ADD MSTORE8 PUSH1 0x41 SWAP2 JUMPDEST DUP2 DUP4 GT PUSH2 0x1056 JUMPI POP POP POP PUSH2 0xECE JUMPI PUSH2 0xE7C SWAP4 DUP6 SWAP4 PUSH2 0xEB4 SWAP4 PUSH2 0xEA5 PUSH1 0x48 SWAP5 PUSH2 0xECA SWAP10 MLOAD SWAP9 DUP6 PUSH23 0x20B1B1B2B9B9A1B7B73A3937B61D1030B1B1B7BAB73A1 PUSH1 0x4D SHL DUP12 SWAP8 DUP9 ADD MSTORE DUP3 MLOAD SWAP3 DUP4 SWAP2 PUSH1 0x37 DUP10 ADD SWAP2 ADD PUSH2 0x109C JUMP JUMPDEST SWAP1 SWAP2 SWAP3 PUSH1 0xF DUP2 AND PUSH1 0x10 DUP2 LT ISZERO PUSH2 0xF6A JUMPI PUSH16 0x181899199A1A9B1B9C1CB0B131B232B3 PUSH1 0x81 SHL SWAP1 BYTE PUSH2 0x1086 DUP6 DUP9 PUSH2 0x11D1 JUMP JUMPDEST MSTORE8 PUSH1 0x4 SHR SWAP3 DUP1 ISZERO PUSH2 0xF56 JUMPI PUSH1 0x0 NOT ADD SWAP2 SWAP1 PUSH2 0x1001 JUMP JUMPDEST PUSH1 0x0 JUMPDEST DUP4 DUP2 LT PUSH2 0x10AF JUMPI POP POP PUSH1 0x0 SWAP2 ADD MSTORE JUMP JUMPDEST DUP2 DUP2 ADD MLOAD DUP4 DUP3 ADD MSTORE PUSH1 0x20 ADD PUSH2 0x109F JUMP JUMPDEST PUSH1 0xC0 DUP2 ADD SWAP1 DUP2 LT PUSH8 0xFFFFFFFFFFFFFFFF DUP3 GT OR PUSH2 0x10DB JUMPI PUSH1 0x40 MSTORE JUMP JUMPDEST PUSH4 0x4E487B71 PUSH1 0xE0 SHL PUSH1 0x0 MSTORE PUSH1 0x41 PUSH1 0x4 MSTORE PUSH1 0x24 PUSH1 0x0 REVERT JUMPDEST PUSH1 0x80 DUP2 ADD SWAP1 DUP2 LT PUSH8 0xFFFFFFFFFFFFFFFF DUP3 GT OR PUSH2 0x10DB JUMPI PUSH1 0x40 MSTORE JUMP JUMPDEST SWAP1 PUSH1 0x1F DUP1 NOT SWAP2 ADD AND DUP2 ADD SWAP1 DUP2 LT PUSH8 0xFFFFFFFFFFFFFFFF DUP3 GT OR PUSH2 0x10DB JUMPI PUSH1 0x40 MSTORE JUMP JUMPDEST PUSH1 0x40 SWAP2 PUSH1 0x20 DUP3 MSTORE PUSH2 0x114F DUP2 MLOAD DUP1 SWAP3 DUP2 PUSH1 0x20 DUP7 ADD MSTORE PUSH1 0x20 DUP7 DUP7 ADD SWAP2 ADD PUSH2 0x109C JUMP JUMPDEST PUSH1 0x1F ADD PUSH1 0x1F NOT AND ADD ADD SWAP1 JUMP JUMPDEST SWAP1 PUSH1 0x0 SWAP2 DUP1 DUP4 MSTORE PUSH1 0x2 PUSH1 0x20 MSTORE PUSH1 0x40 DUP4 KECCAK256 SWAP2 PUSH1 0x1 DUP1 PUSH1 0xA0 SHL SUB AND SWAP2 DUP3 DUP5 MSTORE PUSH1 0x20 MSTORE PUSH1 0xFF PUSH1 0x40 DUP5 KECCAK256 SLOAD AND PUSH2 0x118C JUMPI POP POP POP JUMP JUMPDEST DUP1 DUP4 MSTORE PUSH1 0x2 PUSH1 0x20 MSTORE PUSH1 0x40 DUP4 KECCAK256 DUP3 DUP5 MSTORE PUSH1 0x20 MSTORE PUSH1 0x40 DUP4 KECCAK256 PUSH1 0xFF NOT DUP2 SLOAD AND SWAP1 SSTORE PUSH32 0xF6391F5C32D9C69D2A47EA670B442974B53935D1EDC7FD64EB21E047A839171B CALLER SWAP4 DUP1 LOG4 JUMP JUMPDEST SWAP1 DUP2 MLOAD DUP2 LT ISZERO PUSH2 0x11E2 JUMPI ADD PUSH1 0x20 ADD SWAP1 JUMP JUMPDEST PUSH4 0x4E487B71 PUSH1 0xE0 SHL PUSH1 0x0 MSTORE PUSH1 0x32 PUSH1 0x4 MSTORE PUSH1 0x24 PUSH1 0x0 REVERT JUMPDEST PUSH1 0x40 MLOAD SWAP1 PUSH1 0x60 DUP3 ADD DUP3 DUP2 LT PUSH8 0xFFFFFFFFFFFFFFFF DUP3 GT OR PUSH2 0x10DB JUMPI PUSH1 0x40 MSTORE PUSH1 0x2A DUP3 MSTORE PUSH1 0x20 DUP3 ADD PUSH1 0x40 CALLDATASIZE DUP3 CALLDATACOPY DUP3 MLOAD ISZERO PUSH2 0x11E2 JUMPI PUSH1 0x30 SWAP1 MSTORE8 DUP2 MLOAD PUSH1 0x1 SWAP1 DUP2 LT ISZERO PUSH2 0x11E2 JUMPI PUSH1 0x78 PUSH1 0x21 DUP5 ADD MSTORE8 PUSH1 0x29 SWAP1 JUMPDEST DUP1 DUP3 GT PUSH2 0x1299 JUMPI POP POP PUSH2 0x1255 JUMPI SWAP1 JUMP JUMPDEST PUSH1 0x64 PUSH1 0x40 MLOAD PUSH3 0x461BCD PUSH1 0xE5 SHL DUP2 MSTORE PUSH1 0x20 PUSH1 0x4 DUP3 ADD MSTORE PUSH1 0x20 PUSH1 0x24 DUP3 ADD MSTORE PUSH32 0x537472696E67733A20686578206C656E67746820696E73756666696369656E74 PUSH1 0x44 DUP3 ADD MSTORE REVERT JUMPDEST SWAP1 SWAP2 PUSH1 0xF DUP2 AND PUSH1 0x10 DUP2 LT ISZERO PUSH2 0x12F2 JUMPI PUSH16 0x181899199A1A9B1B9C1CB0B131B232B3 PUSH1 0x81 SHL SWAP1 BYTE PUSH2 0x12C8 DUP5 DUP7 PUSH2 0x11D1 JUMP JUMPDEST MSTORE8 PUSH1 0x4 SHR SWAP2 DUP1 ISZERO PUSH2 0x12DD JUMPI PUSH1 0x0 NOT ADD SWAP1 PUSH2 0x1245 JUMP JUMPDEST PUSH1 0x24 PUSH1 0x0 PUSH4 0x4E487B71 PUSH1 0xE0 SHL DUP2 MSTORE PUSH1 0x11 PUSH1 0x4 MSTORE REVERT JUMPDEST PUSH1 0x24 PUSH1 0x0 PUSH4 0x4E487B71 PUSH1 0xE0 SHL DUP2 MSTORE PUSH1 0x32 PUSH1 0x4 MSTORE REVERT JUMPDEST SWAP1 DUP2 PUSH1 0x20 SWAP2 SUB SLT PUSH2 0xD61 JUMPI MLOAD DUP1 ISZERO ISZERO DUP2 SUB PUSH2 0xD61 JUMPI SWAP1 JUMP JUMPDEST SWAP2 SWAP3 SWAP1 ISZERO PUSH2 0x1381 JUMPI POP DUP2 MLOAD ISZERO PUSH2 0x1333 JUMPI POP SWAP1 JUMP JUMPDEST EXTCODESIZE ISZERO PUSH2 0x133C JUMPI SWAP1 JUMP JUMPDEST PUSH1 0x40 MLOAD PUSH3 0x461BCD PUSH1 0xE5 SHL DUP2 MSTORE PUSH1 0x20 PUSH1 0x4 DUP3 ADD MSTORE PUSH1 0x1D PUSH1 0x24 DUP3 ADD MSTORE PUSH32 0x416464726573733A2063616C6C20746F206E6F6E2D636F6E7472616374000000 PUSH1 0x44 DUP3 ADD MSTORE PUSH1 0x64 SWAP1 REVERT JUMPDEST DUP3 MLOAD SWAP1 SWAP2 POP ISZERO PUSH2 0x1394 JUMPI POP DUP1 MLOAD SWAP1 PUSH1 0x20 ADD REVERT JUMPDEST PUSH1 0x40 MLOAD PUSH3 0x461BCD PUSH1 0xE5 SHL DUP2 MSTORE SWAP1 DUP2 SWAP1 PUSH2 0xECA SWAP1 PUSH1 0x4 DUP4 ADD PUSH2 0x112F JUMP INVALID LOG2 PUSH5 0x6970667358 0x22 SLT KECCAK256 LOG1 0x26 0x4B SLOAD EXTCODEHASH 0x4F COINBASE PUSH15 0x6A6666FCA13DFD671DB59E0AEDC54B 0x4F 0xD6 SWAP16 RETURN 0xB4 SIGNEXTEND 0x25 CODECOPY 0x2F PUSH5 0x736F6C6343 STOP ADDMOD EQ STOP CALLER 0x2F DUP8 DUP9 GT PUSH31 0x7EFF1D82E926EC794901D17C78024A50270940304540A733656F0D00000000 "},"gasEstimates":{"creation":{"codeDepositCost":"1018800","executionCost":"infinite","totalCost":"infinite"},"external":{"ADMIN_ROLE()":"462","DEFAULT_ADMIN_ROLE()":"594","createDeposit(uint256,address,address,bytes32)":"infinite","feeRecipient()":"2479","getDeposit(address,uint256)":"infinite","getRoleAdmin(bytes32)":"2416","getUserDepositCount(address)":"2477","grantRole(bytes32,address)":"infinite","hasRole(bytes32,address)":"2868","isPaymentProcessed(bytes32)":"2554","pause()":"infinite","paused()":"2514","processedPaymentHashes(bytes32)":"2752","releasePayment(address,uint256)":"infinite","renounceRole(bytes32,address)":"28949","revokeRole(bytes32,address)":"infinite","setFeeRecipient(address)":"infinite","setSupportedToken(address,bool)":"infinite","supportedTokens(address)":"2689","supportsInterface(bytes4)":"291","unpause()":"infinite","userDepositCount(address)":"2697","userDeposits(address,uint256)":"8986"}},"methodIdentifiers":{"ADMIN_ROLE()":"75b238fc","DEFAULT_ADMIN_ROLE()":"a217fddf","createDeposit(uint256,address,address,bytes32)":"84e9abca","feeRecipient()":"46904840","getDeposit(address,uint256)":"2726b506","getRoleAdmin(bytes32)":"248a9ca3","getUserDepositCount(address)":"1bae91a4","grantRole(bytes32,address)":"2f2ff15d","hasRole(bytes32,address)":"91d14854","isPaymentProcessed(bytes32)":"4a0ea4d7","pause()":"8456cb59","paused()":"5c975abb","processedPaymentHashes(bytes32)":"99fcfb43","releasePayment(address,uint256)":"966ecf3b","renounceRole(bytes32,address)":"36568abe","revokeRole(bytes32,address)":"d547741f","setFeeRecipient(address)":"e74b981b","setSupportedToken(address,bool)":"e7986466","supportedTokens(address)":"68c4ac26","supportsInterface(bytes4)":"01ffc9a7","unpause()":"3f4ba83a","userDepositCount(address)":"729c3e0e","userDeposits(address,uint256)":"08f43333"}},"storageLayout":{"storage":[{"astId":507,"contract":"src/YieldEscrowOptimized.sol:YieldEscrowOptimized","label":"_status","offset":0,"slot":"0","type":"t_uint256"},{"astId":406,"contract":"src/YieldEscrowOptimized.sol:YieldEscrowOptimized","label":"_paused","offset":0,"slot":"1","type":"t_bool"},{"astId":24,"contract":"src/YieldEscrowOptimized.sol:YieldEscrowOptimized","label":"_roles","offset":0,"slot":"2","type":"t_mapping(t_bytes32,t_struct(RoleData)19_storage)"},{"astId":2679,"contract":"src/YieldEscrowOptimized.sol:YieldEscrowOptimized","label":"feeRecipient","offset":0,"slot":"3","type":"t_address"},{"astId":2684,"contract":"src/YieldEscrowOptimized.sol:YieldEscrowOptimized","label":"supportedTokens","offset":0,"slot":"4","type":"t_mapping(t_address,t_bool)"},{"astId":2689,"contract":"src/YieldEscrowOptimized.sol:YieldEscrowOptimized","label":"processedPaymentHashes","offset":0,"slot":"5","type":"t_mapping(t_bytes32,t_bool)"},{"astId":2697,"contract":"src/YieldEscrowOptimized.sol:YieldEscrowOptimized","label":"userDeposits","offset":0,"slot":"6","type":"t_mapping(t_address,t_mapping(t_uint256,t_struct(Deposit)2716_storage))"},{"astId":2702,"contract":"src/YieldEscrowOptimized.sol:YieldEscrowOptimized","label":"userDepositCount","offset":0,"slot":"7","type":"t_mapping(t_address,t_uint256)"}],"types":{"t_address":{"encoding":"inplace","label":"address","numberOfBytes":"20"},"t_bool":{"encoding":"inplace","label":"bool","numberOfBytes":"1"},"t_bytes32":{"encoding":"inplace","label":"bytes32","numberOfBytes":"32"},"t_mapping(t_address,t_bool)":{"encoding":"mapping","key":"t_address","label":"mapping(address => bool)","numberOfBytes":"32","value":"t_bool"},"t_mapping(t_address,t_mapping(t_uint256,t_struct(Deposit)2716_storage))":{"encoding":"mapping","key":"t_address","label":"mapping(address => mapping(uint256 => struct YieldEscrowOptimized.Deposit))","numberOfBytes":"32","value":"t_mapping(t_uint256,t_struct(Deposit)2716_storage)"},"t_mapping(t_address,t_uint256)":{"encoding":"mapping","key":"t_address","label":"mapping(address => uint256)","numberOfBytes":"32","value":"t_uint256"},"t_mapping(t_bytes32,t_bool)":{"encoding":"mapping","key":"t_bytes32","label":"mapping(bytes32 => bool)","numberOfBytes":"32","value":"t_bool"},"t_mapping(t_bytes32,t_struct(RoleData)19_storage)":{"encoding":"mapping","key":"t_bytes32","label":"mapping(bytes32 => struct AccessControl.RoleData)","numberOfBytes":"32","value":"t_struct(RoleData)19_storage"},"t_mapping(t_uint256,t_struct(Deposit)2716_storage)":{"encoding":"mapping","key":"t_uint256","label":"mapping(uint256 => struct YieldEscrowOptimized.Deposit)","numberOfBytes":"32","value":"t_struct(Deposit)2716_storage"},"t_struct(Deposit)2716_storage":{"encoding":"inplace","label":"struct YieldEscrowOptimized.Deposit","members":[{"astId":2705,"contract":"src/YieldEscrowOptimized.sol:YieldEscrowOptimized","label":"amount","offset":0,"slot":"0","type":"t_uint256"},{"astId":2707,"contract":"src/YieldEscrowOptimized.sol:YieldEscrowOptimized","label":"token","offset":0,"slot":"1","type":"t_address"},{"astId":2709,"contract":"src/YieldEscrowOptimized.sol:YieldEscrowOptimized","label":"released","offset":20,"slot":"1","type":"t_bool"},{"astId":2711,"contract":"src/YieldEscrowOptimized.sol:YieldEscrowOptimized","label":"timestamp","offset":21,"slot":"1","type":"t_uint32"},{"astId":2713,"contract":"src/YieldEscrowOptimized.sol:YieldEscrowOptimized","label":"merchant","offset":0,"slot":"2","type":"t_address"},{"astId":2715,"contract":"src/YieldEscrowOptimized.sol:YieldEscrowOptimized","label":"paymentHash","offset":0,"slot":"3","type":"t_bytes32"}],"numberOfBytes":"128"},"t_struct(RoleData)19_storage":{"encoding":"inplace","label":"struct AccessControl.RoleData","members":[{"astId":16,"contract":"src/YieldEscrowOptimized.sol:YieldEscrowOptimized","label":"members","offset":0,"slot":"0","type":"t_mapping(t_address,t_bool)"},{"astId":18,"contract":"src/YieldEscrowOptimized.sol:YieldEscrowOptimized","label":"adminRole","offset":0,"slot":"1","type":"t_bytes32"}],"numberOfBytes":"64"},"t_uint256":{"encoding":"inplace","label":"uint256","numberOfBytes":"32"},"t_uint32":{"encoding":"inplace","label":"uint32","numberOfBytes":"4"}}},"userdoc":{"kind":"user","methods":{},"version":1}}}}