{"src/YieldEscrow.sol":{"YieldEscrow":{"abi":[{"inputs":[{"internalType":"address","name":"admin","type":"address"},{"internalType":"address","name":"feeRecipient_","type":"address"}],"stateMutability":"nonpayable","type":"constructor"},{"inputs":[],"name":"DailyLimitExceeded","type":"error"},{"inputs":[],"name":"DepositAlreadyReleased","type":"error"},{"inputs":[],"name":"DepositNotFound","type":"error"},{"inputs":[],"name":"InsufficientBalance","type":"error"},{"inputs":[],"name":"InvalidAddress","type":"error"},{"inputs":[],"name":"InvalidAmount","type":"error"},{"inputs":[],"name":"InvalidStrategy","type":"error"},{"inputs":[],"name":"InvalidToken","type":"error"},{"inputs":[],"name":"OnlyMerchantCanRelease","type":"error"},{"inputs":[],"name":"PaymentAlreadyProcessed","type":"error"},{"inputs":[],"name":"StrategyNotActive","type":"error"},{"inputs":[],"name":"TokenNotSupported","type":"error"},{"inputs":[],"name":"TransferFailed","type":"error"},{"inputs":[],"name":"UserLimitExceeded","type":"error"},{"inputs":[],"name":"YieldCalculationFailed","type":"error"},{"anonymous":false,"inputs":[{"indexed":true,"internalType":"bytes32","name":"paymentHash","type":"bytes32"},{"indexed":true,"internalType":"address","name":"user","type":"address"},{"indexed":true,"internalType":"address","name":"merchant","type":"address"},{"indexed":false,"internalType":"address","name":"token","type":"address"},{"indexed":false,"internalType":"uint256","name":"amount","type":"uint256"},{"indexed":false,"internalType":"address","name":"yieldStrategy","type":"address"},{"indexed":false,"internalType":"uint256","name":"depositIndex","type":"uint256"}],"name":"DepositCreated","type":"event"},{"anonymous":false,"inputs":[{"indexed":true,"internalType":"bytes32","name":"paymentHash","type":"bytes32"},{"indexed":true,"internalType":"address","name":"user","type":"address"},{"indexed":false,"internalType":"uint256","name":"amount","type":"uint256"},{"indexed":false,"internalType":"string","name":"reason","type":"string"}],"name":"EmergencyWithdrawal","type":"event"},{"anonymous":false,"inputs":[{"indexed":false,"internalType":"address","name":"account","type":"address"}],"name":"Paused","type":"event"},{"anonymous":false,"inputs":[{"indexed":true,"internalType":"bytes32","name":"paymentHash","type":"bytes32"},{"indexed":true,"internalType":"address","name":"user","type":"address"},{"indexed":true,"internalType":"address","name":"merchant","type":"address"},{"indexed":false,"internalType":"uint256","name":"amount","type":"uint256"},{"indexed":false,"internalType":"uint256","name":"yieldGenerated","type":"uint256"},{"indexed":false,"internalType":"uint256","name":"userYield","type":"uint256"},{"indexed":false,"internalType":"uint256","name":"merchantYield","type":"uint256"},{"indexed":false,"internalType":"uint256","name":"protocolYield","type":"uint256"}],"name":"PaymentReleased","type":"event"},{"anonymous":false,"inputs":[{"indexed":false,"internalType":"uint256","name":"oldFee","type":"uint256"},{"indexed":false,"internalType":"uint256","name":"newFee","type":"uint256"}],"name":"ProtocolFeeUpdated","type":"event"},{"anonymous":false,"inputs":[{"indexed":true,"internalType":"bytes32","name":"role","type":"bytes32"},{"indexed":true,"internalType":"bytes32","name":"previousAdminRole","type":"bytes32"},{"indexed":true,"internalType":"bytes32","name":"newAdminRole","type":"bytes32"}],"name":"RoleAdminChanged","type":"event"},{"anonymous":false,"inputs":[{"indexed":true,"internalType":"bytes32","name":"role","type":"bytes32"},{"indexed":true,"internalType":"address","name":"account","type":"address"},{"indexed":true,"internalType":"address","name":"sender","type":"address"}],"name":"RoleGranted","type":"event"},{"anonymous":false,"inputs":[{"indexed":true,"internalType":"bytes32","name":"role","type":"bytes32"},{"indexed":true,"internalType":"address","name":"account","type":"address"},{"indexed":true,"internalType":"address","name":"sender","type":"address"}],"name":"RoleRevoked","type":"event"},{"anonymous":false,"inputs":[{"indexed":true,"internalType":"address","name":"strategy","type":"address"},{"indexed":true,"internalType":"address","name":"token","type":"address"},{"indexed":false,"internalType":"string","name":"name","type":"string"}],"name":"StrategyAdded","type":"event"},{"anonymous":false,"inputs":[{"indexed":true,"internalType":"address","name":"strategy","type":"address"},{"indexed":false,"internalType":"string","name":"reason","type":"string"}],"name":"StrategyRemoved","type":"event"},{"anonymous":false,"inputs":[{"indexed":true,"internalType":"address","name":"token","type":"address"},{"indexed":false,"internalType":"string","name":"symbol","type":"string"}],"name":"TokenAdded","type":"event"},{"anonymous":false,"inputs":[{"indexed":false,"internalType":"address","name":"account","type":"address"}],"name":"Unpaused","type":"event"},{"anonymous":false,"inputs":[{"indexed":true,"internalType":"bytes32","name":"paymentHash","type":"bytes32"},{"indexed":true,"internalType":"address","name":"user","type":"address"},{"indexed":false,"internalType":"uint256","name":"yieldAmount","type":"uint256"},{"indexed":false,"internalType":"uint256","name":"newTotalYield","type":"uint256"}],"name":"YieldCalculated","type":"event"},{"anonymous":false,"inputs":[{"indexed":true,"internalType":"address","name":"user","type":"address"},{"indexed":false,"internalType":"uint256","name":"amount","type":"uint256"},{"indexed":false,"internalType":"address","name":"token","type":"address"}],"name":"YieldWithdrawn","type":"event"},{"inputs":[],"name":"ADMIN_ROLE","outputs":[{"internalType":"bytes32","name":"","type":"bytes32"}],"stateMutability":"view","type":"function"},{"inputs":[],"name":"BASIS_POINTS","outputs":[{"internalType":"uint256","name":"","type":"uint256"}],"stateMutability":"view","type":"function"},{"inputs":[],"name":"DEFAULT_ADMIN_ROLE","outputs":[{"internalType":"bytes32","name":"","type":"bytes32"}],"stateMutability":"view","type":"function"},{"inputs":[],"name":"MAX_DAILY_VOLUME","outputs":[{"internalType":"uint256","name":"","type":"uint256"}],"stateMutability":"view","type":"function"},{"inputs":[],"name":"MAX_DEPOSIT_PER_TX","outputs":[{"internalType":"uint256","name":"","type":"uint256"}],"stateMutability":"view","type":"function"},{"inputs":[],"name":"MERCHANT_ROLE","outputs":[{"internalType":"bytes32","name":"","type":"bytes32"}],"stateMutability":"view","type":"function"},{"inputs":[],"name":"MERCHANT_YIELD_PERCENTAGE","outputs":[{"internalType":"uint256","name":"","type":"uint256"}],"stateMutability":"view","type":"function"},{"inputs":[],"name":"MIN_DEPOSIT_AMOUNT","outputs":[{"internalType":"uint256","name":"","type":"uint256"}],"stateMutability":"view","type":"function"},{"inputs":[],"name":"OPERATOR_ROLE","outputs":[{"internalType":"bytes32","name":"","type":"bytes32"}],"stateMutability":"view","type":"function"},{"inputs":[],"name":"PROTOCOL_YIELD_PERCENTAGE","outputs":[{"internalType":"uint256","name":"","type":"uint256"}],"stateMutability":"view","type":"function"},{"inputs":[],"name":"SECONDS_PER_DAY","outputs":[{"internalType":"uint256","name":"","type":"uint256"}],"stateMutability":"view","type":"function"},{"inputs":[],"name":"STRATEGY_MANAGER_ROLE","outputs":[{"internalType":"bytes32","name":"","type":"bytes32"}],"stateMutability":"view","type":"function"},{"inputs":[],"name":"USER_YIELD_PERCENTAGE","outputs":[{"internalType":"uint256","name":"","type":"uint256"}],"stateMutability":"view","type":"function"},{"inputs":[{"internalType":"address","name":"","type":"address"}],"name":"activeStrategies","outputs":[{"internalType":"bool","name":"","type":"bool"}],"stateMutability":"view","type":"function"},{"inputs":[{"internalType":"address","name":"strategy","type":"address"},{"internalType":"address","name":"token","type":"address"},{"internalType":"string","name":"name","type":"string"}],"name":"addStrategy","outputs":[],"stateMutability":"nonpayable","type":"function"},{"inputs":[{"internalType":"address","name":"token","type":"address"},{"internalType":"string","name":"symbol","type":"string"}],"name":"addSupportedToken","outputs":[],"stateMutability":"nonpayable","type":"function"},{"inputs":[{"internalType":"address","name":"user","type":"address"},{"internalType":"uint256","name":"depositIndex","type":"uint256"}],"name":"calculateYield","outputs":[{"internalType":"uint256","name":"yieldAmount","type":"uint256"}],"stateMutability":"view","type":"function"},{"inputs":[{"internalType":"uint256","name":"amount","type":"uint256"},{"internalType":"address","name":"token","type":"address"},{"internalType":"address","name":"merchant","type":"address"},{"internalType":"address","name":"yieldStrategy","type":"address"},{"internalType":"bytes32","name":"paymentHash","type":"bytes32"},{"internalType":"string","name":"metadata","type":"string"}],"name":"createDeposit","outputs":[{"internalType":"uint256","name":"depositIndex","type":"uint256"}],"stateMutability":"nonpayable","type":"function"},{"inputs":[{"internalType":"uint256","name":"","type":"uint256"}],"name":"dailyVolume","outputs":[{"internalType":"uint256","name":"","type":"uint256"}],"stateMutability":"view","type":"function"},{"inputs":[],"name":"emergencyPause","outputs":[],"stateMutability":"nonpayable","type":"function"},{"inputs":[{"internalType":"uint256","name":"depositIndex","type":"uint256"},{"internalType":"string","name":"reason","type":"string"}],"name":"emergencyWithdraw","outputs":[],"stateMutability":"nonpayable","type":"function"},{"inputs":[],"name":"feeRecipient","outputs":[{"internalType":"address","name":"","type":"address"}],"stateMutability":"view","type":"function"},{"inputs":[{"internalType":"bytes32","name":"role","type":"bytes32"}],"name":"getRoleAdmin","outputs":[{"internalType":"bytes32","name":"","type":"bytes32"}],"stateMutability":"view","type":"function"},{"inputs":[{"internalType":"address","name":"strategy","type":"address"}],"name":"getStrategyMetrics","outputs":[{"components":[{"internalType":"uint256","name":"totalDeposited","type":"uint256"},{"internalType":"uint256","name":"totalYieldGenerated","type":"uint256"},{"internalType":"uint256","name":"averageAPY","type":"uint256"},{"internalType":"uint256","name":"lastUpdateTime","type":"uint256"}],"internalType":"struct YieldEscrow.StrategyMetrics","name":"metrics","type":"tuple"}],"stateMutability":"view","type":"function"},{"inputs":[],"name":"getTotalValueLocked","outputs":[{"internalType":"uint256","name":"tvl","type":"uint256"}],"stateMutability":"view","type":"function"},{"inputs":[{"internalType":"address","name":"user","type":"address"},{"internalType":"uint256","name":"depositIndex","type":"uint256"}],"name":"getUserDeposit","outputs":[{"components":[{"internalType":"uint256","name":"amount","type":"uint256"},{"internalType":"uint256","name":"timestamp","type":"uint256"},{"internalType":"address","name":"token","type":"address"},{"internalType":"address","name":"merchant","type":"address"},{"internalType":"address","name":"yieldStrategy","type":"address"},{"internalType":"uint256","name":"yieldAccrued","type":"uint256"},{"internalType":"uint256","name":"lastYieldUpdate","type":"uint256"},{"internalType":"bool","name":"released","type":"bool"},{"internalType":"bytes32","name":"paymentHash","type":"bytes32"},{"internalType":"string","name":"metadata","type":"string"}],"internalType":"struct YieldEscrow.Deposit","name":"deposit","type":"tuple"}],"stateMutability":"view","type":"function"},{"inputs":[{"internalType":"address","name":"user","type":"address"}],"name":"getUserDeposits","outputs":[{"components":[{"internalType":"uint256","name":"amount","type":"uint256"},{"internalType":"uint256","name":"timestamp","type":"uint256"},{"internalType":"address","name":"token","type":"address"},{"internalType":"address","name":"merchant","type":"address"},{"internalType":"address","name":"yieldStrategy","type":"address"},{"internalType":"uint256","name":"yieldAccrued","type":"uint256"},{"internalType":"uint256","name":"lastYieldUpdate","type":"uint256"},{"internalType":"bool","name":"released","type":"bool"},{"internalType":"bytes32","name":"paymentHash","type":"bytes32"},{"internalType":"string","name":"metadata","type":"string"}],"internalType":"struct YieldEscrow.Deposit[]","name":"deposits","type":"tuple[]"}],"stateMutability":"view","type":"function"},{"inputs":[{"internalType":"bytes32","name":"role","type":"bytes32"},{"internalType":"address","name":"account","type":"address"}],"name":"grantRole","outputs":[],"stateMutability":"nonpayable","type":"function"},{"inputs":[{"internalType":"bytes32","name":"role","type":"bytes32"},{"internalType":"address","name":"account","type":"address"}],"name":"hasRole","outputs":[{"internalType":"bool","name":"","type":"bool"}],"stateMutability":"view","type":"function"},{"inputs":[{"internalType":"address","name":"","type":"address"}],"name":"merchantBalances","outputs":[{"internalType":"uint256","name":"","type":"uint256"}],"stateMutability":"view","type":"function"},{"inputs":[],"name":"paused","outputs":[{"internalType":"bool","name":"","type":"bool"}],"stateMutability":"view","type":"function"},{"inputs":[{"internalType":"bytes32","name":"","type":"bytes32"}],"name":"processedPaymentHashes","outputs":[{"internalType":"bool","name":"","type":"bool"}],"stateMutability":"view","type":"function"},{"inputs":[],"name":"protocolBalance","outputs":[{"internalType":"uint256","name":"","type":"uint256"}],"stateMutability":"view","type":"function"},{"inputs":[],"name":"protocolFeeRate","outputs":[{"internalType":"uint256","name":"","type":"uint256"}],"stateMutability":"view","type":"function"},{"inputs":[{"internalType":"address","name":"user","type":"address"},{"internalType":"uint256","name":"depositIndex","type":"uint256"}],"name":"releasePayment","outputs":[],"stateMutability":"nonpayable","type":"function"},{"inputs":[{"internalType":"address","name":"strategy","type":"address"},{"internalType":"string","name":"reason","type":"string"}],"name":"removeStrategy","outputs":[],"stateMutability":"nonpayable","type":"function"},{"inputs":[{"internalType":"bytes32","name":"role","type":"bytes32"},{"internalType":"address","name":"account","type":"address"}],"name":"renounceRole","outputs":[],"stateMutability":"nonpayable","type":"function"},{"inputs":[{"internalType":"bytes32","name":"role","type":"bytes32"},{"internalType":"address","name":"account","type":"address"}],"name":"revokeRole","outputs":[],"stateMutability":"nonpayable","type":"function"},{"inputs":[{"internalType":"uint256","name":"","type":"uint256"}],"name":"strategyList","outputs":[{"internalType":"address","name":"","type":"address"}],"stateMutability":"view","type":"function"},{"inputs":[{"internalType":"address","name":"","type":"address"}],"name":"strategyMetrics","outputs":[{"internalType":"uint256","name":"totalDeposited","type":"uint256"},{"internalType":"uint256","name":"totalYieldGenerated","type":"uint256"},{"internalType":"uint256","name":"averageAPY","type":"uint256"},{"internalType":"uint256","name":"lastUpdateTime","type":"uint256"}],"stateMutability":"view","type":"function"},{"inputs":[{"internalType":"address","name":"","type":"address"}],"name":"supportedStrategies","outputs":[{"internalType":"contract IYieldStrategy","name":"","type":"address"}],"stateMutability":"view","type":"function"},{"inputs":[{"internalType":"address","name":"","type":"address"}],"name":"supportedTokens","outputs":[{"internalType":"bool","name":"","type":"bool"}],"stateMutability":"view","type":"function"},{"inputs":[{"internalType":"bytes4","name":"interfaceId","type":"bytes4"}],"name":"supportsInterface","outputs":[{"internalType":"bool","name":"","type":"bool"}],"stateMutability":"view","type":"function"},{"inputs":[{"internalType":"uint256","name":"","type":"uint256"}],"name":"tokenList","outputs":[{"internalType":"address","name":"","type":"address"}],"stateMutability":"view","type":"function"},{"inputs":[],"name":"unpause","outputs":[],"stateMutability":"nonpayable","type":"function"},{"inputs":[{"internalType":"uint256","name":"newFeeRate","type":"uint256"}],"name":"updateProtocolFeeRate","outputs":[],"stateMutability":"nonpayable","type":"function"},{"inputs":[{"internalType":"address","name":"","type":"address"}],"name":"userDailyVolume","outputs":[{"internalType":"uint256","name":"","type":"uint256"}],"stateMutability":"view","type":"function"},{"inputs":[{"internalType":"address","name":"","type":"address"}],"name":"userDepositCount","outputs":[{"internalType":"uint256","name":"","type":"uint256"}],"stateMutability":"view","type":"function"},{"inputs":[{"internalType":"address","name":"","type":"address"},{"internalType":"uint256","name":"","type":"uint256"}],"name":"userDeposits","outputs":[{"internalType":"uint256","name":"amount","type":"uint256"},{"internalType":"uint256","name":"timestamp","type":"uint256"},{"internalType":"address","name":"token","type":"address"},{"internalType":"address","name":"merchant","type":"address"},{"internalType":"address","name":"yieldStrategy","type":"address"},{"internalType":"uint256","name":"yieldAccrued","type":"uint256"},{"internalType":"uint256","name":"lastYieldUpdate","type":"uint256"},{"internalType":"bool","name":"released","type":"bool"},{"internalType":"bytes32","name":"paymentHash","type":"bytes32"},{"internalType":"string","name":"metadata","type":"string"}],"stateMutability":"view","type":"function"},{"inputs":[{"internalType":"address","name":"","type":"address"}],"name":"userYieldBalances","outputs":[{"internalType":"uint256","name":"","type":"uint256"}],"stateMutability":"view","type":"function"},{"inputs":[{"internalType":"address","name":"token","type":"address"},{"internalType":"uint256","name":"amount","type":"uint256"}],"name":"withdrawMerchantBalance","outputs":[],"stateMutability":"nonpayable","type":"function"},{"inputs":[{"internalType":"address","name":"token","type":"address"},{"internalType":"uint256","name":"amount","type":"uint256"}],"name":"withdrawProtocolFees","outputs":[],"stateMutability":"nonpayable","type":"function"},{"inputs":[{"internalType":"address","name":"token","type":"address"}],"name":"withdrawUserYield","outputs":[],"stateMutability":"nonpayable","type":"function"}],"devdoc":{"author":"YieldRails Team  Key Features: - Holds user deposits in escrow until merchant releases payment - Automatically generates yield through integrated strategies - Distributes yield: 70% to users, 20% to merchants, 10% to protocol - Supports multiple stablecoins and yield strategies - Gas-optimized for <100k gas per transaction - 100% test coverage with comprehensive security measures","details":"Main escrow contract for YieldRails that holds stablecoins and generates yield","events":{"Paused(address)":{"details":"Emitted when the pause is triggered by `account`."},"RoleAdminChanged(bytes32,bytes32,bytes32)":{"details":"Emitted when `newAdminRole` is set as ``role``'s admin role, replacing `previousAdminRole` `DEFAULT_ADMIN_ROLE` is the starting admin for all roles, despite {RoleAdminChanged} not being emitted signaling this. _Available since v3.1._"},"RoleGranted(bytes32,address,address)":{"details":"Emitted when `account` is granted `role`. `sender` is the account that originated the contract call, an admin role bearer except when using {AccessControl-_setupRole}."},"RoleRevoked(bytes32,address,address)":{"details":"Emitted when `account` is revoked `role`. `sender` is the account that originated the contract call:   - if using `revokeRole`, it is the admin role bearer   - if using `renounceRole`, it is the role bearer (i.e. `account`)"},"Unpaused(address)":{"details":"Emitted when the pause is lifted by `account`."}},"kind":"dev","methods":{"addStrategy(address,address,string)":{"details":"Adds a new yield strategy","params":{"name":"The strategy name","strategy":"The strategy contract address","token":"The token this strategy supports"}},"addSupportedToken(address,string)":{"details":"Adds a supported token","params":{"symbol":"The token symbol","token":"The token address"}},"calculateYield(address,uint256)":{"details":"Calculates yield for a specific deposit without updating state","params":{"depositIndex":"The deposit index","user":"The user address"},"returns":{"yieldAmount":"The calculated yield amount"}},"constructor":{"details":"Initialize the YieldEscrow contract","params":{"admin":"The address that will have admin privileges","feeRecipient_":"The address that will receive protocol fees"}},"createDeposit(uint256,address,address,address,bytes32,string)":{"details":"Creates a new deposit for payment processing with yield generation","params":{"amount":"The amount of tokens to deposit","merchant":"The merchant address for this payment","metadata":"Optional payment metadata","paymentHash":"Unique identifier for this payment","token":"The token address (must be supported)","yieldStrategy":"The yield strategy to use for this deposit"},"returns":{"depositIndex":"The index of the created deposit  Requirements: - Amount must be > 0 and <= MAX_DEPOSIT_PER_TX - Token must be supported - Merchant must not be zero address - Yield strategy must be active - Payment hash must be unique - Daily limits must not be exceeded"}},"emergencyPause()":{"details":"Emergency pause function (admin only)"},"emergencyWithdraw(uint256,string)":{"details":"Emergency withdrawal for users (only in extreme circumstances)","params":{"depositIndex":"The deposit index to withdraw","reason":"The reason for emergency withdrawal"}},"getRoleAdmin(bytes32)":{"details":"Returns the admin role that controls `role`. See {grantRole} and {revokeRole}. To change a role's admin, use {_setRoleAdmin}."},"getStrategyMetrics(address)":{"details":"Gets strategy performance metrics","params":{"strategy":"The strategy address"},"returns":{"metrics":"The strategy metrics"}},"getTotalValueLocked()":{"details":"Gets total value locked in the contract","returns":{"tvl":"The total value locked across all strategies"}},"getUserDeposit(address,uint256)":{"details":"Gets user's deposit information","params":{"depositIndex":"The deposit index","user":"The user address"},"returns":{"deposit":"The deposit information"}},"getUserDeposits(address)":{"details":"Gets all deposits for a user","params":{"user":"The user address"},"returns":{"deposits":"Array of user deposits"}},"grantRole(bytes32,address)":{"details":"Grants `role` to `account`. If `account` had not been already granted `role`, emits a {RoleGranted} event. Requirements: - the caller must have ``role``'s admin role. May emit a {RoleGranted} event."},"hasRole(bytes32,address)":{"details":"Returns `true` if `account` has been granted `role`."},"paused()":{"details":"Returns true if the contract is paused, and false otherwise."},"releasePayment(address,uint256)":{"details":"Releases payment to merchant with yield distribution","params":{"depositIndex":"The deposit index to release  Requirements: - Only the designated merchant can call this function - Deposit must not already be released - Yield calculation must succeed","user":"The user who made the deposit"}},"removeStrategy(address,string)":{"details":"Removes a yield strategy","params":{"reason":"The reason for removal","strategy":"The strategy to remove"}},"renounceRole(bytes32,address)":{"details":"Revokes `role` from the calling account. Roles are often managed via {grantRole} and {revokeRole}: this function's purpose is to provide a mechanism for accounts to lose their privileges if they are compromised (such as when a trusted device is misplaced). If the calling account had been revoked `role`, emits a {RoleRevoked} event. Requirements: - the caller must be `account`. May emit a {RoleRevoked} event."},"revokeRole(bytes32,address)":{"details":"Revokes `role` from `account`. If `account` had been granted `role`, emits a {RoleRevoked} event. Requirements: - the caller must have ``role``'s admin role. May emit a {RoleRevoked} event."},"supportsInterface(bytes4)":{"details":"See {IERC165-supportsInterface}."},"unpause()":{"details":"Resume operations (admin only)"},"updateProtocolFeeRate(uint256)":{"details":"Updates protocol fee rate","params":{"newFeeRate":"The new fee rate in basis points"}},"withdrawMerchantBalance(address,uint256)":{"details":"Allows merchants to withdraw their accumulated balances","params":{"amount":"The amount to withdraw (0 for all)","token":"The token to withdraw"}},"withdrawProtocolFees(address,uint256)":{"details":"Withdraws protocol fees","params":{"amount":"The amount to withdraw","token":"The token to withdraw"}},"withdrawUserYield(address)":{"details":"Allows users to withdraw their accumulated yield","params":{"token":"The token to withdraw yield in"}}},"title":"YieldEscrow","version":1},"evm":{"bytecode":{"linkReferences":{},"object":"6080346200019d576200322e90601f38839003908101601f19168201906001600160401b03821183831017620001a257808391604095869485528339810103126200019d576200004f81620001b8565b906200005f6020809201620001b8565b906000906001825560ff199081600154166001558260105560018060a01b03809516918215801562000192575b620001815783805260028252868420838552825260ff8785205416156200014a575b7fa49807205ce4d355092ef5a8a18f56e8913cf4a201fbe287825b095693c217759182855260028152878520848652815260ff88862054161562000110575b601180546001600160a01b03191687891617905587516130409081620001ce8239f35b8285526002815287852090848652526001878520918254161790556000805160206200320e833981519152339380a43880808080620000ed565b8380526002825286842083855282528684206001828254161790553383856000805160206200320e8339815191528180a4620000ae565b865163e6c4247b60e01b8152600490fd5b50858516156200008c565b600080fd5b634e487b7160e01b600052604160045260246000fd5b51906001600160a01b03821682036200019d5756fe608080604052600436101561001357600080fd5b60003560e01c90816301ffc9a7146120ec5750806308f43333146120155780630bd6b07014611f7457806314ae9d7d14611f575780631a7a73c214611f035780631ea30fef14611ee5578063248a9ca314611eb65780632a5bf6d214611dc45780632c178bd014611d855780632f2ff15d14611cd257806336568abe14611c40578063392fe6b214611c1f5780633cbb4668146119f65780633f4ba83a1461196257806341f1c0d91461194257806346904840146119195780634c54ef841461187a57806351858e271461182157806358f85880146118035780635c975abb146117e0578063607110581461171557806361e98db8146116f75780636340d55c1461169957806368c4ac261461165a578063720138e81461163b578063729c3e0e1461160157806374f0314f146115e357806375b238fc146115a85780637f3f16011461156e578063877c79a814610dda5780638ea447e614610d3957806391d1485414610cec578063943ca3b914610cc0578063966ecf3b146108ac57806399fcfb431461087b5780639ead722214610820578063a217fddf14610804578063a267526b146107c2578063ab36cb6614610788578063abcbe0b21461074d578063b26025aa146106a9578063b3d358391461066e578063b6e8502614610612578063d547741f146105d1578063d6fbf61c14610503578063dacf3df9146104e6578063e1f1c4a7146104c9578063e7f5165a1461048f578063ee3be5f514610454578063f54b7fb414610425578063f5b541a6146103ea578063f6727092146103cd5763f939be111461026657600080fd5b346103c85760603660031901126103c85761027f61213f565b610287612155565b6044356001600160401b0381116103c8576102a690369060040161239f565b926102af612661565b6001600160a01b0390811692831580156103be575b6103ac5783600052600a60205260ff6040600020541661039a578360005260096020526040600020846001600160601b0360a01b825416179055600a6020526040600020600160ff19825416179055600b54600160401b811015610384577f0a6d61c25dd73692b246d702e41b676092851383053847152454787009572ca19361035782600161037f9401600b5561240f565b81549060031b908689831b921b19161790556040519384936020855216966020840191612eee565b0390a3005b634e487b7160e01b600052604160045260246000fd5b604051632711b74d60e11b8152600490fd5b60405163e6c4247b60e01b8152600490fd5b50818116156102c4565b600080fd5b346103c85760003660031901126103c85760206040516107d08152f35b346103c85760003660031901126103c85760206040517f97667070c54ef182b0f5858b034beac1b6f3089aa2d3188bb1e8929f4fa9b9298152f35b346103c85760403660031901126103c857602061044c61044361213f565b60243590612db6565b604051908152f35b346103c85760203660031901126103c85760206001600160a01b038061047861213f565b166000526009825260406000205416604051908152f35b346103c85760203660031901126103c8576001600160a01b036104b061213f565b1660005260076020526020604060002054604051908152f35b346103c85760003660031901126103c85760206040516127108152f35b346103c85760003660031901126103c85760206040516103e88152f35b346103c85760203660031901126103c85761051c61213f565b610524612ac1565b6001600160a01b03166000818152600c602052604090205460ff16156105bf573360005260076020526040600020549081156105ad5733600052600760205260006040812055610575823383612ced565b60405191825260208201527f2e440ef4db71c471feb663084d681b2e02de7fd708ef717172f488d50067d1a060403392a26001600055005b604051631e9acf1760e31b8152600490fd5b604051633dd1b30560e01b8152600490fd5b346103c85760403660031901126103c8576106106004356105f0612155565b9080600052600260205261060b6001604060002001546127a6565b6128b1565b005b346103c85760203660031901126103c8576001600160a01b0361063361213f565b166000526012602052608060406000208054906001810154906003600282015491015491604051938452602084015260408301526060820152f35b346103c85760003660031901126103c85760206040517f3c4a2d89ed8b4cf4347fec87df1c38410f8fc538bf9fd64c10f2717bc0feff368152f35b346103c85760003660031901126103c857600080600b54905b8181106106d457602083604051908152f35b6106dd8161240f565b9060018060a01b03809154600393841b1c16600052602091600a835260ff60406000205416610718575b50505061071390612a6e565b6106c2565b6107449284969260129261072e6107139761240f565b9054911b1c166000525260406000205490612927565b92908480610707565b346103c85760003660031901126103c85760206040517f4170d100a3a3728ae51207936ee755ecaa64a7f6e9383c642ab204a136f90b1b8152f35b346103c85760203660031901126103c8576001600160a01b036107a961213f565b16600052600f6020526020604060002054604051908152f35b346103c85760203660031901126103c857600435600b548110156103c8576107eb60209161240f565b905460405160039290921b1c6001600160a01b03168152f35b346103c85760003660031901126103c857602060405160008152f35b346103c85760203660031901126103c857600435600d548110156103c857600d6000527fd7b6990105719101dabeb77144f2a3385c8033acd3af97e9423a695e81ad1eb501546040516001600160a01b039091168152602090f35b346103c85760203660031901126103c8576004356000526005602052602060ff604060002054166040519015158152f35b346103c85760403660031901126103c8576108c561213f565b602435906108d1612ac1565b6108d9612a7d565b60018060a01b03918282169182600052602060048152604060002054831015610cae57836000526003815261091283604060002061216b565b509460038601938185541633141580610c6b575b610c5957600787019060ff825416610c4757600861095c8892836000526003875261095581604060002061216b565b5097612db6565b9586600582015542600682015501547ff3122f87791d6eff15d1abbfc04281db2f68fe1e63071cc87f02dfb207365549604080518881528888820152a3805460ff19166001179055821592611b588181029082820414851715610c3157612710809104906107d08084029084820414871715610c315704916109e7836109e28484612ce0565b612ce0565b936109f3848b54612927565b8189541660005260068752610a0e6040600020918254612927565b905588600052600786526040600020610a28848254612927565b9055610a3685600854612927565b600855610a44828b54612927565b60048b019060008884845416602460405180948193632e1a7d4d60e01b83528760048401525af160009181610c02575b50610a8b576040516303302af560e51b8152600490fd5b10610bf05781905416806000526012875260406000209760018901610ab1858254612927565b90554260038a015515610b16575b507f4fd5c0b26e24b2b00b557765b057c3c07d8a2fb298ea4b3d87fe809d5e6571de96509060a0959493929160088b0154985416995494604051958652850152604084015260608301526080820152a46001600055005b8660049160405192838092634b16524b60e11b82525afa60009181610b90575b50907f4fd5c0b26e24b2b00b557765b057c3c07d8a2fb298ea4b3d87fe809d5e6571de9860a098979695949392610b75575b5050909192939495610abf565b6002610b849101918254612927565b60011c90558b80610b68565b97809796959493925088813d8311610be9575b610bad818361220e565b810103126103c8577f4fd5c0b26e24b2b00b557765b057c3c07d8a2fb298ea4b3d87fe809d5e6571de9860a09851929394959697985098610b36565b503d610ba3565b6040516312171d8360e31b8152600490fd5b9091508981813d8311610c2a575b610c1a818361220e565b810103126103c85751908e610a74565b503d610c10565b634e487b7160e01b600052601160045260246000fd5b604051637408912960e11b8152600490fd5b604051635ed15cf960e01b8152600490fd5b507f97667070c54ef182b0f5858b034beac1b6f3089aa2d3188bb1e8929f4fa9b92960005260028352604060002033600052835260ff6040600020541615610926565b60405163411321ed60e01b8152600490fd5b346103c85760203660031901126103c857600435600052600e6020526020604060002054604051908152f35b346103c85760403660031901126103c857610d05612155565b600435600052600260205260406000209060018060a01b0316600052602052602060ff604060002054166040519015158152f35b346103c857610d47366123cc565b9091610d51612661565b6001600160a01b03166000818152600a602052604090205490929060ff1615610dc8577fa214ec724672a94bf6c67d879945ada3446bdd623baed4584c515309b8573a2c9183600052600a602052604060002060ff198154169055610dc3604051928392602084526020840191612eee565b0390a2005b604051631b92e95360e31b8152600490fd5b346103c85760c03660031901126103c857610df3612155565b604435906001600160a01b03821682036103c8576064356001600160a01b03811690036103c85760a4356001600160401b0381116103c857610e3990369060040161239f565b610e44929192612ac1565b610e4c612a7d565b620f424060043510801561155e575b61154c576001600160a01b03821615801561153b575b8015611528575b6103ac576001600160a01b0382166000908152600c602052604090205460ff16156105bf576064356001600160a01b03166000908152600a602052604090205460ff1615610dc857608435600052600560205260ff6040600020541661151657620151804204600052600e6020526509184e72a000610efe600435604060002054612927565b116114f2573360005260046020526103e860406000205410156115045733600052600f60205265048c27395000610f3c600435604060002054612927565b116114f2576040516323b872dd60e01b60208201523360248201523060448201526004356064820152606481528060a08101106001600160401b0360a0830111176103845760a08101604052610f9b906001600160a01b038416612b17565b33600052600460205260406000205492600360205260406000209060405192610fc3846121f2565b600435845242602085018190526001600160a01b0386811660408701528881166060870152606435166080860152600060a0860181905260c086019190915260e085015260843561010085015261101981612934565b91611027604051938461220e565b81835236828201116103c8578160009260209283860137830101526101208301528054600160401b811015610384576110659160018201815561216b565b9190916114dc578061012091518355602081015160018401556002830160018060a01b03604083015116906001600160601b0360a01b91828254161790556003840160018060a01b0360608401511682825416179055600484019060018060a01b036080840151169082541617905560a0810151600584015560c081015160068401556007830160e0820151151560ff80198354169116179055610100810151600884015501518051906001600160401b0382116103845761112a600984015461219d565b601f8111611495575b50602090601f831160011461142557600992916000918361141a575b50508160011b916000199060031b1c1916179101555b336000526004602052604060002061117d8154612a6e565b905560843560005260056020526040600020600160ff1982541617905560043515801561139e575b1561133a5760405163095ea7b360e01b6020820152606480356001600160a01b0316602483015260043560448084019190915282526111f891906111e9908261220e565b6001600160a01b038316612b17565b60405163b6b55f2560e01b8152600480359082015260208160248160006064356001600160a01b03165af1801561132e57611303575b50602092620151804204600052600e845260406000206112516004358254612927565b905533600052600f8452604060002061126d6004358254612927565b905560018060a01b03606435166000526012845260406000206112936004358254612927565b815542600390910155604080516001600160a01b03938416815260043586820152606435841691810191909152606081018490529116903390608435907f75ab645e4be4b4ec5b3feaf8e588258ecfc0e501fa619998920a13ac2a17248190608090a46001600055604051908152f35b602090813d8311611327575b611319818361220e565b810103126103c8578361122e565b503d61130f565b6040513d6000823e3d90fd5b60405162461bcd60e51b815260206004820152603660248201527f5361666545524332303a20617070726f76652066726f6d206e6f6e2d7a65726f60448201527520746f206e6f6e2d7a65726f20616c6c6f77616e636560501b6064820152608490fd5b50604051636eb1769f60e11b81523060048201526001600160a01b03606435811660248301526020908290604490829086165afa90811561132e576000916113e8575b50156111a5565b90506020813d602011611412575b816114036020938361220e565b810103126103c85751846113e1565b3d91506113f6565b01519050878061114f565b906009840160005260206000209160005b601f198516811061147d5750918391600193600995601f19811610611464575b505050811b01910155611165565b015160001960f88460031b161c19169055878080611456565b91926020600181928685015181550194019201611436565b600984016000526020600020601f840160051c8101602085106114d5575b601f830160051c820181106114c9575050611133565b600081556001016114b3565b50806114b3565b634e487b7160e01b600052600060045260246000fd5b604051630652f4c560e21b8152600490fd5b6040516361eea57560e11b8152600490fd5b60405163424e8d7160e01b8152600490fd5b506064356001600160a01b031615610e78565b506001600160a01b03841615610e71565b60405163162908e360e11b8152600490fd5b5064e8d4a5100060043511610e5b565b346103c85760203660031901126103c8576001600160a01b0361158f61213f565b1660005260066020526020604060002054604051908152f35b346103c85760003660031901126103c85760206040517fa49807205ce4d355092ef5a8a18f56e8913cf4a201fbe287825b095693c217758152f35b346103c85760003660031901126103c8576020604051620151808152f35b346103c85760203660031901126103c8576001600160a01b0361162261213f565b1660005260046020526020604060002054604051908152f35b346103c85761061061164c366123cc565b91611655612446565b612f0f565b346103c85760203660031901126103c8576001600160a01b0361167b61213f565b16600052600c602052602060ff604060002054166040519015158152f35b346103c85760203660031901126103c8576004356116b5612446565b6103e8811161154c5760407fb404cac19fb1cbeff98d325795b08886e3cd8fe8cb1a2f193aac66f13fb239c391601054908060105582519182526020820152a1005b346103c85760003660031901126103c8576020600854604051908152f35b346103c85760403660031901126103c8576117b861173161213f565b602435604051611740816121f2565b6000815260006020820152600060408201526000606082015260006080820152600060a0820152600060c0820152600060e0820152600061010082015260606101208201529160018060a01b0316600052600460205260406000205481106117bc575b5060405191829160208352602083019061231d565b0390f35b6117da91506117d4906003602052604060002061216b565b50612d2e565b826117a3565b346103c85760003660031901126103c857602060ff600154166040519015158152f35b346103c85760003660031901126103c8576020601054604051908152f35b346103c85760003660031901126103c85761183a612446565b611842612a7d565b600160ff19815416176001557f62e78cea01bee320cd4e420270b5ea74000d11b0c9f74754ebdbfc544b05a2586020604051338152a1005b346103c85760403660031901126103c85761189361213f565b6024359061189f612ac1565b6001600160a01b03166000818152600c602052604090205490919060ff16156105bf573360005260066020526040600020549081156105ad57806119135750805b81116105ad5761190c913360005260066020526040600020611903838254612ce0565b90553390612ced565b6001600055005b906118e0565b346103c85760003660031901126103c8576011546040516001600160a01b039091168152602090f35b346103c85760003660031901126103c857602060405164e8d4a510008152f35b346103c85760003660031901126103c85761197b612446565b60015460ff8116156119ba5760ff19166001557f5db9ee0a495bf2e6ff9c91a7834c1ba4fdd244a5e8aa4e537bd38aeae4b073aa6020604051338152a1005b60405162461bcd60e51b815260206004820152601460248201527314185d5cd8589b194e881b9bdd081c185d5cd95960621b6044820152606490fd5b346103c85760403660031901126103c8576004356024356001600160401b0381116103c857611a2990369060040161239f565b91611a32612ac1565b3360005260209060048252604060002054811015610cae57611a60903360005260038352604060002061216b565b509060078201805460ff8116610c475760ff191660011790556004828101548354604051631bfc726f60e21b815230938101939093526001600160a01b03929183169184816024816000875af160009181611bf0575b50611ba85750600091602485926040519485938492632e1a7d4d60e01b845260048401525af160009181611b59575b507ff9a641acc5c9067014d12a6d17ed1f5ebaa0c5756ebb3d4c26d9a2cbac5baeba94611b4492600892611b4e5750611b29600080955b3390600285015416612ced565b01549460408051948594855284015233966040840191612eee565b0390a36001600055005b611b29908095611b1c565b9091508381813d8311611ba1575b611b71818361220e565b810103126103c85751907ff9a641acc5c9067014d12a6d17ed1f5ebaa0c5756ebb3d4c26d9a2cbac5baeba611ae5565b503d611b67565b611b44925094611b296008927ff9a641acc5c9067014d12a6d17ed1f5ebaa0c5756ebb3d4c26d9a2cbac5baeba97818111600014611be957505b8095611b1c565b9050611be2565b9091508581813d8311611c18575b611c08818361220e565b810103126103c857519089611ab6565b503d611bfe565b346103c85760003660031901126103c85760206040516509184e72a0008152f35b346103c85760403660031901126103c857611c59612155565b336001600160a01b03821603611c7557610610906004356128b1565b60405162461bcd60e51b815260206004820152602f60248201527f416363657373436f6e74726f6c3a2063616e206f6e6c792072656e6f756e636560448201526e103937b632b9903337b91039b2b63360891b6064820152608490fd5b346103c85760403660031901126103c857600435611cee612155565b816000526002602052611d086001604060002001546127a6565b81600052600260205260406000209060018060a01b0316908160005260205260ff6040600020541615611d3757005b8160005260026020526040600020816000526020526040600020600160ff1982541617905533917f2f8788117e7eff1d82e926ec794901d17c78024a50270940304540a733656f0d600080a4005b346103c85760203660031901126103c8576001600160a01b03611da661213f565b16600052600a602052602060ff604060002054166040519015158152f35b346103c8576020806003193601126103c8576001600160a01b03611de661213f565b166000526003815260406000208054906001600160401b03821161038457829060405192611e19838260051b018561220e565b8084528284018092600052836000206000915b838310611e935750505050604051918083019381845251809452604083019360408160051b85010192916000955b828710611e675785850386f35b909192938280611e83600193603f198a8203018652885161231d565b9601920196019592919092611e5a565b600a86600192611ea5859a999a612d2e565b815201920192019190959495611e2c565b346103c85760203660031901126103c85760043560005260026020526020600160406000200154604051908152f35b346103c85760003660031901126103c8576020604051620f42408152f35b346103c85760403660031901126103c857611f1c61213f565b602435611f27612446565b600854918282116105ad57611f3f8261061094612ce0565b6008556011546001600160a01b039081169116612ced565b346103c85760003660031901126103c8576020604051611b588152f35b346103c85760203660031901126103c857611f8d61213f565b60006060604051611f9d816121d7565b828152826020820152826040820152015260018060a01b0316600052601260205260806040600020604051611fd1816121d7565b815491828252600181015460208301908152606060036002840154936040860194855201549301928352604051938452516020840152516040830152516060820152f35b346103c85760403660031901126103c85761202e61213f565b6001600160a01b0390811660009081526003602052604090208054602435908110156103c85761205d9161216b565b50906117b882549160018401549381600282015416918060038301541690600483015416600583015460068401549160ff600786015416936120a660096008880154970161222f565b966040519a8b9a8b5260208b015260408a01526060890152608088015260a087015260c0860152151560e0850152610100840152610140806101208501528301906122f8565b346103c85760203660031901126103c8576004359063ffffffff60e01b82168092036103c857602091637965db0b60e01b811490811561212e575b5015158152f35b6301ffc9a760e01b14905083612127565b600435906001600160a01b03821682036103c857565b602435906001600160a01b03821682036103c857565b805482101561218757600052600a602060002091020190600090565b634e487b7160e01b600052603260045260246000fd5b90600182811c921680156121cd575b60208310146121b757565b634e487b7160e01b600052602260045260246000fd5b91607f16916121ac565b608081019081106001600160401b0382111761038457604052565b61014081019081106001600160401b0382111761038457604052565b90601f801991011681019081106001600160401b0382111761038457604052565b90604051918260008254926122438461219d565b9081845260019485811690816000146122b2575060011461226f575b505061226d9250038361220e565b565b9093915060005260209081600020936000915b81831061229a57505061226d9350820101388061225f565b85548884018501529485019487945091830191612282565b91505061226d94506020925060ff191682840152151560051b820101388061225f565b60005b8381106122e85750506000910152565b81810151838201526020016122d8565b90602091612311815180928185528580860191016122d5565b601f01601f1916010190565b9061239c91805182526020810151602083015260018060a01b03806040830151166040840152806060830151166060840152608082015116608083015260a081015160a083015260c081015160c083015260e0810151151560e083015261010080820151908301526101208091015191610140809282015201906122f8565b90565b9181601f840112156103c8578235916001600160401b0383116103c857602083818601950101116103c857565b9060406003198301126103c8576004356001600160a01b03811681036103c85791602435906001600160401b0382116103c85761240b9160040161239f565b9091565b600b5481101561218757600b6000527f0175b7a638427703f0dbe7bb9bbf987a2551717b34e79f33b5b1008d1fa01db90190600090565b3360009081527fe5ebfa64fca8d502a8e50c1edffd2c31ef4dad5b396e65d9f397fb028f74abc5602090815260408083205490927fa49807205ce4d355092ef5a8a18f56e8913cf4a201fbe287825b095693c217759160ff16156124aa5750505050565b6124b333612960565b918451906124c0826121d7565b6042825284820192606036853782511561264d576030845382519060019182101561264d5790607860218501536041915b8183116125df5750505061259d57604861259993869361257d9361256e985198899376020b1b1b2b9b9a1b7b73a3937b61d1030b1b1b7bab73a1604d1b8a860152612545815180928c6037890191016122d5565b8401917001034b99036b4b9b9b4b733903937b6329607d1b6037840152518093868401906122d5565b0103602881018752018561220e565b5192839262461bcd60e51b8452600484015260248301906122f8565b0390fd5b60648486519062461bcd60e51b825280600483015260248201527f537472696e67733a20686578206c656e67746820696e73756666696369656e746044820152fd5b909192600f81166010811015612639576f181899199a1a9b1b9c1cb0b131b232b360811b901a61260f858761294f565b5360041c928015612625576000190191906124f1565b634e487b7160e01b82526011600452602482fd5b634e487b7160e01b83526032600452602483fd5b634e487b7160e01b81526032600452602490fd5b3360009081527f5a10db7eb5fb087477f68987ff09c6ebb13410247d1a97126552f0c97385b266602090815260408083205490927f4170d100a3a3728ae51207936ee755ecaa64a7f6e9383c642ab204a136f90b1b9160ff16156126c55750505050565b6126ce33612960565b918451906126db826121d7565b6042825284820192606036853782511561264d576030845382519060019182101561264d5790607860218501536041915b8183116127605750505061259d57604861259993869361257d9361256e985198899376020b1b1b2b9b9a1b7b73a3937b61d1030b1b1b7bab73a1604d1b8a860152612545815180928c6037890191016122d5565b909192600f81166010811015612639576f181899199a1a9b1b9c1cb0b131b232b360811b901a612790858761294f565b5360041c9280156126255760001901919061270c565b60009080825260209060028252604092838120338252835260ff8482205416156127d05750505050565b6127d933612960565b918451906127e6826121d7565b6042825284820192606036853782511561264d576030845382519060019182101561264d5790607860218501536041915b81831161286b5750505061259d57604861259993869361257d9361256e985198899376020b1b1b2b9b9a1b7b73a3937b61d1030b1b1b7bab73a1604d1b8a860152612545815180928c6037890191016122d5565b909192600f81166010811015612639576f181899199a1a9b1b9c1cb0b131b232b360811b901a61289b858761294f565b5360041c92801561262557600019019190612817565b906000918083526002602052604083209160018060a01b03169182845260205260ff6040842054166128e257505050565b8083526002602052604083208284526020526040832060ff1981541690557ff6391f5c32d9c69d2a47ea670b442974b53935d1edc7fd64eb21e047a839171b339380a4565b91908201809211610c3157565b6001600160401b03811161038457601f01601f191660200190565b908151811015612187570160200190565b60405190606082018281106001600160401b0382111761038457604052602a82526020820160403682378251156121875760309053815160019081101561218757607860218401536029905b808211612a005750506129bc5790565b606460405162461bcd60e51b815260206004820152602060248201527f537472696e67733a20686578206c656e67746820696e73756666696369656e746044820152fd5b9091600f81166010811015612a59576f181899199a1a9b1b9c1cb0b131b232b360811b901a612a2f848661294f565b5360041c918015612a445760001901906129ac565b60246000634e487b7160e01b81526011600452fd5b60246000634e487b7160e01b81526032600452fd5b6000198114610c315760010190565b60ff60015416612a8957565b60405162461bcd60e51b815260206004820152601060248201526f14185d5cd8589b194e881c185d5cd95960821b6044820152606490fd5b600260005414612ad2576002600055565b60405162461bcd60e51b815260206004820152601f60248201527f5265656e7472616e637947756172643a207265656e7472616e742063616c6c006044820152606490fd5b60018060a01b03169060405160408101908082106001600160401b0383111761038457612ba6916040526020938482527f5361666545524332303a206c6f772d6c6576656c2063616c6c206661696c6564858301526000808587829751910182855af13d15612c43573d91612b8b83612934565b92612b99604051948561220e565b83523d868885013e612c47565b805191821591848315612c18575b505050905015612bc15750565b6084906040519062461bcd60e51b82526004820152602a60248201527f5361666545524332303a204552433230206f7065726174696f6e20646964206e6044820152691bdd081cdd58d8d9595960b21b6064820152fd5b919381809450010312612c3f57820151908115158203612c3c575080388084612bb4565b80fd5b5080fd5b6060915b91929015612ca95750815115612c5b575090565b3b15612c645790565b60405162461bcd60e51b815260206004820152601d60248201527f416464726573733a2063616c6c20746f206e6f6e2d636f6e74726163740000006044820152606490fd5b825190915015612cbc5750805190602001fd5b60405162461bcd60e51b8152602060048201529081906125999060248301906122f8565b91908203918211610c3157565b60405163a9059cbb60e01b60208201526001600160a01b0392909216602483015260448083019390935291815261226d91612d2960648361220e565b612b17565b90604051612d3b816121f2565b610120612db160098395805485526001810154602086015260018060a01b038060028301541660408701528060038301541660608701526004820154166080860152600581015460a0860152600681015460c086015260ff600782015416151560e086015260088101546101008601520161222f565b910152565b6001600160a01b0390811660009081526004602090815260408220549194939091811015612ee9576117d4612df291600384526040872061216b565b9160e0830151612edf5790602491608084018282825116604051958680926337be4ce960e11b82523060048301525afa879481612eac575b50612e3b575050505060a001519150565b5116855260129052604084205490811580612ea15760a0840151935191828102928184041490151715612e8d57612e795761239c9394500490612927565b634e487b7160e01b85526012600452602485fd5b634e487b7160e01b86526011600452602486fd5b50505060a001519150565b9094508381813d8311612ed8575b612ec4818361220e565b81010312612ed457519338612e2a565b8780fd5b503d612eba565b505060a001519150565b505050565b908060209392818452848401376000828201840152601f01601f1916010190565b9192916001600160a01b03169081156103ac57600093828552600c60205260408520805460ff81166130015760ff19166001179055600d54600160401b811015612fed576001810180600d55811015612fd957600d7f7afee0f1b802cc0f66c67890e26b4566251859cf2cd8de79b86aed7251d9756a949596527fd7b6990105719101dabeb77144f2a3385c8033acd3af97e9423a695e81ad1eb501846001600160601b0360a01b825416179055612fd4604051928392602084526020840191612eee565b0390a2565b634e487b7160e01b86526032600452602486fd5b634e487b7160e01b86526041600452602486fd5b5050505050905056fea264697066735822122024908f8f4c82ee583b250887b15ebb158b500b262237b876e736e5f791aa91ea64736f6c634300081400332f8788117e7eff1d82e926ec794901d17c78024a50270940304540a733656f0d","opcodes":"PUSH1 0x80 CALLVALUE PUSH3 0x19D JUMPI PUSH3 0x322E SWAP1 PUSH1 0x1F CODESIZE DUP4 SWAP1 SUB SWAP1 DUP2 ADD PUSH1 0x1F NOT AND DUP3 ADD SWAP1 PUSH1 0x1 PUSH1 0x1 PUSH1 0x40 SHL SUB DUP3 GT DUP4 DUP4 LT OR PUSH3 0x1A2 JUMPI DUP1 DUP4 SWAP2 PUSH1 0x40 SWAP6 DUP7 SWAP5 DUP6 MSTORE DUP4 CODECOPY DUP2 ADD SUB SLT PUSH3 0x19D JUMPI PUSH3 0x4F DUP2 PUSH3 0x1B8 JUMP JUMPDEST SWAP1 PUSH3 0x5F PUSH1 0x20 DUP1 SWAP3 ADD PUSH3 0x1B8 JUMP JUMPDEST SWAP1 PUSH1 0x0 SWAP1 PUSH1 0x1 DUP3 SSTORE PUSH1 0xFF NOT SWAP1 DUP2 PUSH1 0x1 SLOAD AND PUSH1 0x1 SSTORE DUP3 PUSH1 0x10 SSTORE PUSH1 0x1 DUP1 PUSH1 0xA0 SHL SUB DUP1 SWAP6 AND SWAP2 DUP3 ISZERO DUP1 ISZERO PUSH3 0x192 JUMPI JUMPDEST PUSH3 0x181 JUMPI DUP4 DUP1 MSTORE PUSH1 0x2 DUP3 MSTORE DUP7 DUP5 KECCAK256 DUP4 DUP6 MSTORE DUP3 MSTORE PUSH1 0xFF DUP8 DUP6 KECCAK256 SLOAD AND ISZERO PUSH3 0x14A JUMPI JUMPDEST PUSH32 0xA49807205CE4D355092EF5A8A18F56E8913CF4A201FBE287825B095693C21775 SWAP2 DUP3 DUP6 MSTORE PUSH1 0x2 DUP2 MSTORE DUP8 DUP6 KECCAK256 DUP5 DUP7 MSTORE DUP2 MSTORE PUSH1 0xFF DUP9 DUP7 KECCAK256 SLOAD AND ISZERO PUSH3 0x110 JUMPI JUMPDEST PUSH1 0x11 DUP1 SLOAD PUSH1 0x1 PUSH1 0x1 PUSH1 0xA0 SHL SUB NOT AND DUP8 DUP10 AND OR SWAP1 SSTORE DUP8 MLOAD PUSH2 0x3040 SWAP1 DUP2 PUSH3 0x1CE DUP3 CODECOPY RETURN JUMPDEST DUP3 DUP6 MSTORE PUSH1 0x2 DUP2 MSTORE DUP8 DUP6 KECCAK256 SWAP1 DUP5 DUP7 MSTORE MSTORE PUSH1 0x1 DUP8 DUP6 KECCAK256 SWAP2 DUP3 SLOAD AND OR SWAP1 SSTORE PUSH1 0x0 DUP1 MLOAD PUSH1 0x20 PUSH3 0x320E DUP4 CODECOPY DUP2 MLOAD SWAP2 MSTORE CALLER SWAP4 DUP1 LOG4 CODESIZE DUP1 DUP1 DUP1 DUP1 PUSH3 0xED JUMP JUMPDEST DUP4 DUP1 MSTORE PUSH1 0x2 DUP3 MSTORE DUP7 DUP5 KECCAK256 DUP4 DUP6 MSTORE DUP3 MSTORE DUP7 DUP5 KECCAK256 PUSH1 0x1 DUP3 DUP3 SLOAD AND OR SWAP1 SSTORE CALLER DUP4 DUP6 PUSH1 0x0 DUP1 MLOAD PUSH1 0x20 PUSH3 0x320E DUP4 CODECOPY DUP2 MLOAD SWAP2 MSTORE DUP2 DUP1 LOG4 PUSH3 0xAE JUMP JUMPDEST DUP7 MLOAD PUSH4 0xE6C4247B PUSH1 0xE0 SHL DUP2 MSTORE PUSH1 0x4 SWAP1 REVERT JUMPDEST POP DUP6 DUP6 AND ISZERO PUSH3 0x8C JUMP JUMPDEST PUSH1 0x0 DUP1 REVERT JUMPDEST PUSH4 0x4E487B71 PUSH1 0xE0 SHL PUSH1 0x0 MSTORE PUSH1 0x41 PUSH1 0x4 MSTORE PUSH1 0x24 PUSH1 0x0 REVERT JUMPDEST MLOAD SWAP1 PUSH1 0x1 PUSH1 0x1 PUSH1 0xA0 SHL SUB DUP3 AND DUP3 SUB PUSH3 0x19D JUMPI JUMP INVALID PUSH1 0x80 DUP1 PUSH1 0x40 MSTORE PUSH1 0x4 CALLDATASIZE LT ISZERO PUSH2 0x13 JUMPI PUSH1 0x0 DUP1 REVERT JUMPDEST PUSH1 0x0 CALLDATALOAD PUSH1 0xE0 SHR SWAP1 DUP2 PUSH4 0x1FFC9A7 EQ PUSH2 0x20EC JUMPI POP DUP1 PUSH4 0x8F43333 EQ PUSH2 0x2015 JUMPI DUP1 PUSH4 0xBD6B070 EQ PUSH2 0x1F74 JUMPI DUP1 PUSH4 0x14AE9D7D EQ PUSH2 0x1F57 JUMPI DUP1 PUSH4 0x1A7A73C2 EQ PUSH2 0x1F03 JUMPI DUP1 PUSH4 0x1EA30FEF EQ PUSH2 0x1EE5 JUMPI DUP1 PUSH4 0x248A9CA3 EQ PUSH2 0x1EB6 JUMPI DUP1 PUSH4 0x2A5BF6D2 EQ PUSH2 0x1DC4 JUMPI DUP1 PUSH4 0x2C178BD0 EQ PUSH2 0x1D85 JUMPI DUP1 PUSH4 0x2F2FF15D EQ PUSH2 0x1CD2 JUMPI DUP1 PUSH4 0x36568ABE EQ PUSH2 0x1C40 JUMPI DUP1 PUSH4 0x392FE6B2 EQ PUSH2 0x1C1F JUMPI DUP1 PUSH4 0x3CBB4668 EQ PUSH2 0x19F6 JUMPI DUP1 PUSH4 0x3F4BA83A EQ PUSH2 0x1962 JUMPI DUP1 PUSH4 0x41F1C0D9 EQ PUSH2 0x1942 JUMPI DUP1 PUSH4 0x46904840 EQ PUSH2 0x1919 JUMPI DUP1 PUSH4 0x4C54EF84 EQ PUSH2 0x187A JUMPI DUP1 PUSH4 0x51858E27 EQ PUSH2 0x1821 JUMPI DUP1 PUSH4 0x58F85880 EQ PUSH2 0x1803 JUMPI DUP1 PUSH4 0x5C975ABB EQ PUSH2 0x17E0 JUMPI DUP1 PUSH4 0x60711058 EQ PUSH2 0x1715 JUMPI DUP1 PUSH4 0x61E98DB8 EQ PUSH2 0x16F7 JUMPI DUP1 PUSH4 0x6340D55C EQ PUSH2 0x1699 JUMPI DUP1 PUSH4 0x68C4AC26 EQ PUSH2 0x165A JUMPI DUP1 PUSH4 0x720138E8 EQ PUSH2 0x163B JUMPI DUP1 PUSH4 0x729C3E0E EQ PUSH2 0x1601 JUMPI DUP1 PUSH4 0x74F0314F EQ PUSH2 0x15E3 JUMPI DUP1 PUSH4 0x75B238FC EQ PUSH2 0x15A8 JUMPI DUP1 PUSH4 0x7F3F1601 EQ PUSH2 0x156E JUMPI DUP1 PUSH4 0x877C79A8 EQ PUSH2 0xDDA JUMPI DUP1 PUSH4 0x8EA447E6 EQ PUSH2 0xD39 JUMPI DUP1 PUSH4 0x91D14854 EQ PUSH2 0xCEC JUMPI DUP1 PUSH4 0x943CA3B9 EQ PUSH2 0xCC0 JUMPI DUP1 PUSH4 0x966ECF3B EQ PUSH2 0x8AC JUMPI DUP1 PUSH4 0x99FCFB43 EQ PUSH2 0x87B JUMPI DUP1 PUSH4 0x9EAD7222 EQ PUSH2 0x820 JUMPI DUP1 PUSH4 0xA217FDDF EQ PUSH2 0x804 JUMPI DUP1 PUSH4 0xA267526B EQ PUSH2 0x7C2 JUMPI DUP1 PUSH4 0xAB36CB66 EQ PUSH2 0x788 JUMPI DUP1 PUSH4 0xABCBE0B2 EQ PUSH2 0x74D JUMPI DUP1 PUSH4 0xB26025AA EQ PUSH2 0x6A9 JUMPI DUP1 PUSH4 0xB3D35839 EQ PUSH2 0x66E JUMPI DUP1 PUSH4 0xB6E85026 EQ PUSH2 0x612 JUMPI DUP1 PUSH4 0xD547741F EQ PUSH2 0x5D1 JUMPI DUP1 PUSH4 0xD6FBF61C EQ PUSH2 0x503 JUMPI DUP1 PUSH4 0xDACF3DF9 EQ PUSH2 0x4E6 JUMPI DUP1 PUSH4 0xE1F1C4A7 EQ PUSH2 0x4C9 JUMPI DUP1 PUSH4 0xE7F5165A EQ PUSH2 0x48F JUMPI DUP1 PUSH4 0xEE3BE5F5 EQ PUSH2 0x454 JUMPI DUP1 PUSH4 0xF54B7FB4 EQ PUSH2 0x425 JUMPI DUP1 PUSH4 0xF5B541A6 EQ PUSH2 0x3EA JUMPI DUP1 PUSH4 0xF6727092 EQ PUSH2 0x3CD JUMPI PUSH4 0xF939BE11 EQ PUSH2 0x266 JUMPI PUSH1 0x0 DUP1 REVERT JUMPDEST CALLVALUE PUSH2 0x3C8 JUMPI PUSH1 0x60 CALLDATASIZE PUSH1 0x3 NOT ADD SLT PUSH2 0x3C8 JUMPI PUSH2 0x27F PUSH2 0x213F JUMP JUMPDEST PUSH2 0x287 PUSH2 0x2155 JUMP JUMPDEST PUSH1 0x44 CALLDATALOAD PUSH1 0x1 PUSH1 0x1 PUSH1 0x40 SHL SUB DUP2 GT PUSH2 0x3C8 JUMPI PUSH2 0x2A6 SWAP1 CALLDATASIZE SWAP1 PUSH1 0x4 ADD PUSH2 0x239F JUMP JUMPDEST SWAP3 PUSH2 0x2AF PUSH2 0x2661 JUMP JUMPDEST PUSH1 0x1 PUSH1 0x1 PUSH1 0xA0 SHL SUB SWAP1 DUP2 AND SWAP3 DUP4 ISZERO DUP1 ISZERO PUSH2 0x3BE JUMPI JUMPDEST PUSH2 0x3AC JUMPI DUP4 PUSH1 0x0 MSTORE PUSH1 0xA PUSH1 0x20 MSTORE PUSH1 0xFF PUSH1 0x40 PUSH1 0x0 KECCAK256 SLOAD AND PUSH2 0x39A JUMPI DUP4 PUSH1 0x0 MSTORE PUSH1 0x9 PUSH1 0x20 MSTORE PUSH1 0x40 PUSH1 0x0 KECCAK256 DUP5 PUSH1 0x1 PUSH1 0x1 PUSH1 0x60 SHL SUB PUSH1 0xA0 SHL DUP3 SLOAD AND OR SWAP1 SSTORE PUSH1 0xA PUSH1 0x20 MSTORE PUSH1 0x40 PUSH1 0x0 KECCAK256 PUSH1 0x1 PUSH1 0xFF NOT DUP3 SLOAD AND OR SWAP1 SSTORE PUSH1 0xB SLOAD PUSH1 0x1 PUSH1 0x40 SHL DUP2 LT ISZERO PUSH2 0x384 JUMPI PUSH32 0xA6D61C25DD73692B246D702E41B676092851383053847152454787009572CA1 SWAP4 PUSH2 0x357 DUP3 PUSH1 0x1 PUSH2 0x37F SWAP5 ADD PUSH1 0xB SSTORE PUSH2 0x240F JUMP JUMPDEST DUP2 SLOAD SWAP1 PUSH1 0x3 SHL SWAP1 DUP7 DUP10 DUP4 SHL SWAP3 SHL NOT AND OR SWAP1 SSTORE PUSH1 0x40 MLOAD SWAP4 DUP5 SWAP4 PUSH1 0x20 DUP6 MSTORE AND SWAP7 PUSH1 0x20 DUP5 ADD SWAP2 PUSH2 0x2EEE JUMP JUMPDEST SUB SWAP1 LOG3 STOP JUMPDEST PUSH4 0x4E487B71 PUSH1 0xE0 SHL PUSH1 0x0 MSTORE PUSH1 0x41 PUSH1 0x4 MSTORE PUSH1 0x24 PUSH1 0x0 REVERT JUMPDEST PUSH1 0x40 MLOAD PUSH4 0x2711B74D PUSH1 0xE1 SHL DUP2 MSTORE PUSH1 0x4 SWAP1 REVERT JUMPDEST PUSH1 0x40 MLOAD PUSH4 0xE6C4247B PUSH1 0xE0 SHL DUP2 MSTORE PUSH1 0x4 SWAP1 REVERT JUMPDEST POP DUP2 DUP2 AND ISZERO PUSH2 0x2C4 JUMP JUMPDEST PUSH1 0x0 DUP1 REVERT JUMPDEST CALLVALUE PUSH2 0x3C8 JUMPI PUSH1 0x0 CALLDATASIZE PUSH1 0x3 NOT ADD SLT PUSH2 0x3C8 JUMPI PUSH1 0x20 PUSH1 0x40 MLOAD PUSH2 0x7D0 DUP2 MSTORE RETURN JUMPDEST CALLVALUE PUSH2 0x3C8 JUMPI PUSH1 0x0 CALLDATASIZE PUSH1 0x3 NOT ADD SLT PUSH2 0x3C8 JUMPI PUSH1 0x20 PUSH1 0x40 MLOAD PUSH32 0x97667070C54EF182B0F5858B034BEAC1B6F3089AA2D3188BB1E8929F4FA9B929 DUP2 MSTORE RETURN JUMPDEST CALLVALUE PUSH2 0x3C8 JUMPI PUSH1 0x40 CALLDATASIZE PUSH1 0x3 NOT ADD SLT PUSH2 0x3C8 JUMPI PUSH1 0x20 PUSH2 0x44C PUSH2 0x443 PUSH2 0x213F JUMP JUMPDEST PUSH1 0x24 CALLDATALOAD SWAP1 PUSH2 0x2DB6 JUMP JUMPDEST PUSH1 0x40 MLOAD SWAP1 DUP2 MSTORE RETURN JUMPDEST CALLVALUE PUSH2 0x3C8 JUMPI PUSH1 0x20 CALLDATASIZE PUSH1 0x3 NOT ADD SLT PUSH2 0x3C8 JUMPI PUSH1 0x20 PUSH1 0x1 PUSH1 0x1 PUSH1 0xA0 SHL SUB DUP1 PUSH2 0x478 PUSH2 0x213F JUMP JUMPDEST AND PUSH1 0x0 MSTORE PUSH1 0x9 DUP3 MSTORE PUSH1 0x40 PUSH1 0x0 KECCAK256 SLOAD AND PUSH1 0x40 MLOAD SWAP1 DUP2 MSTORE RETURN JUMPDEST CALLVALUE PUSH2 0x3C8 JUMPI PUSH1 0x20 CALLDATASIZE PUSH1 0x3 NOT ADD SLT PUSH2 0x3C8 JUMPI PUSH1 0x1 PUSH1 0x1 PUSH1 0xA0 SHL SUB PUSH2 0x4B0 PUSH2 0x213F JUMP JUMPDEST AND PUSH1 0x0 MSTORE PUSH1 0x7 PUSH1 0x20 MSTORE PUSH1 0x20 PUSH1 0x40 PUSH1 0x0 KECCAK256 SLOAD PUSH1 0x40 MLOAD SWAP1 DUP2 MSTORE RETURN JUMPDEST CALLVALUE PUSH2 0x3C8 JUMPI PUSH1 0x0 CALLDATASIZE PUSH1 0x3 NOT ADD SLT PUSH2 0x3C8 JUMPI PUSH1 0x20 PUSH1 0x40 MLOAD PUSH2 0x2710 DUP2 MSTORE RETURN JUMPDEST CALLVALUE PUSH2 0x3C8 JUMPI PUSH1 0x0 CALLDATASIZE PUSH1 0x3 NOT ADD SLT PUSH2 0x3C8 JUMPI PUSH1 0x20 PUSH1 0x40 MLOAD PUSH2 0x3E8 DUP2 MSTORE RETURN JUMPDEST CALLVALUE PUSH2 0x3C8 JUMPI PUSH1 0x20 CALLDATASIZE PUSH1 0x3 NOT ADD SLT PUSH2 0x3C8 JUMPI PUSH2 0x51C PUSH2 0x213F JUMP JUMPDEST PUSH2 0x524 PUSH2 0x2AC1 JUMP JUMPDEST PUSH1 0x1 PUSH1 0x1 PUSH1 0xA0 SHL SUB AND PUSH1 0x0 DUP2 DUP2 MSTORE PUSH1 0xC PUSH1 0x20 MSTORE PUSH1 0x40 SWAP1 KECCAK256 SLOAD PUSH1 0xFF AND ISZERO PUSH2 0x5BF JUMPI CALLER PUSH1 0x0 MSTORE PUSH1 0x7 PUSH1 0x20 MSTORE PUSH1 0x40 PUSH1 0x0 KECCAK256 SLOAD SWAP1 DUP2 ISZERO PUSH2 0x5AD JUMPI CALLER PUSH1 0x0 MSTORE PUSH1 0x7 PUSH1 0x20 MSTORE PUSH1 0x0 PUSH1 0x40 DUP2 KECCAK256 SSTORE PUSH2 0x575 DUP3 CALLER DUP4 PUSH2 0x2CED JUMP JUMPDEST PUSH1 0x40 MLOAD SWAP2 DUP3 MSTORE PUSH1 0x20 DUP3 ADD MSTORE PUSH32 0x2E440EF4DB71C471FEB663084D681B2E02DE7FD708EF717172F488D50067D1A0 PUSH1 0x40 CALLER SWAP3 LOG2 PUSH1 0x1 PUSH1 0x0 SSTORE STOP JUMPDEST PUSH1 0x40 MLOAD PUSH4 0x1E9ACF17 PUSH1 0xE3 SHL DUP2 MSTORE PUSH1 0x4 SWAP1 REVERT JUMPDEST PUSH1 0x40 MLOAD PUSH4 0x3DD1B305 PUSH1 0xE0 SHL DUP2 MSTORE PUSH1 0x4 SWAP1 REVERT JUMPDEST CALLVALUE PUSH2 0x3C8 JUMPI PUSH1 0x40 CALLDATASIZE PUSH1 0x3 NOT ADD SLT PUSH2 0x3C8 JUMPI PUSH2 0x610 PUSH1 0x4 CALLDATALOAD PUSH2 0x5F0 PUSH2 0x2155 JUMP JUMPDEST SWAP1 DUP1 PUSH1 0x0 MSTORE PUSH1 0x2 PUSH1 0x20 MSTORE PUSH2 0x60B PUSH1 0x1 PUSH1 0x40 PUSH1 0x0 KECCAK256 ADD SLOAD PUSH2 0x27A6 JUMP JUMPDEST PUSH2 0x28B1 JUMP JUMPDEST STOP JUMPDEST CALLVALUE PUSH2 0x3C8 JUMPI PUSH1 0x20 CALLDATASIZE PUSH1 0x3 NOT ADD SLT PUSH2 0x3C8 JUMPI PUSH1 0x1 PUSH1 0x1 PUSH1 0xA0 SHL SUB PUSH2 0x633 PUSH2 0x213F JUMP JUMPDEST AND PUSH1 0x0 MSTORE PUSH1 0x12 PUSH1 0x20 MSTORE PUSH1 0x80 PUSH1 0x40 PUSH1 0x0 KECCAK256 DUP1 SLOAD SWAP1 PUSH1 0x1 DUP2 ADD SLOAD SWAP1 PUSH1 0x3 PUSH1 0x2 DUP3 ADD SLOAD SWAP2 ADD SLOAD SWAP2 PUSH1 0x40 MLOAD SWAP4 DUP5 MSTORE PUSH1 0x20 DUP5 ADD MSTORE PUSH1 0x40 DUP4 ADD MSTORE PUSH1 0x60 DUP3 ADD MSTORE RETURN JUMPDEST CALLVALUE PUSH2 0x3C8 JUMPI PUSH1 0x0 CALLDATASIZE PUSH1 0x3 NOT ADD SLT PUSH2 0x3C8 JUMPI PUSH1 0x20 PUSH1 0x40 MLOAD PUSH32 0x3C4A2D89ED8B4CF4347FEC87DF1C38410F8FC538BF9FD64C10F2717BC0FEFF36 DUP2 MSTORE RETURN JUMPDEST CALLVALUE PUSH2 0x3C8 JUMPI PUSH1 0x0 CALLDATASIZE PUSH1 0x3 NOT ADD SLT PUSH2 0x3C8 JUMPI PUSH1 0x0 DUP1 PUSH1 0xB SLOAD SWAP1 JUMPDEST DUP2 DUP2 LT PUSH2 0x6D4 JUMPI PUSH1 0x20 DUP4 PUSH1 0x40 MLOAD SWAP1 DUP2 MSTORE RETURN JUMPDEST PUSH2 0x6DD DUP2 PUSH2 0x240F JUMP JUMPDEST SWAP1 PUSH1 0x1 DUP1 PUSH1 0xA0 SHL SUB DUP1 SWAP2 SLOAD PUSH1 0x3 SWAP4 DUP5 SHL SHR AND PUSH1 0x0 MSTORE PUSH1 0x20 SWAP2 PUSH1 0xA DUP4 MSTORE PUSH1 0xFF PUSH1 0x40 PUSH1 0x0 KECCAK256 SLOAD AND PUSH2 0x718 JUMPI JUMPDEST POP POP POP PUSH2 0x713 SWAP1 PUSH2 0x2A6E JUMP JUMPDEST PUSH2 0x6C2 JUMP JUMPDEST PUSH2 0x744 SWAP3 DUP5 SWAP7 SWAP3 PUSH1 0x12 SWAP3 PUSH2 0x72E PUSH2 0x713 SWAP8 PUSH2 0x240F JUMP JUMPDEST SWAP1 SLOAD SWAP2 SHL SHR AND PUSH1 0x0 MSTORE MSTORE PUSH1 0x40 PUSH1 0x0 KECCAK256 SLOAD SWAP1 PUSH2 0x2927 JUMP JUMPDEST SWAP3 SWAP1 DUP5 DUP1 PUSH2 0x707 JUMP JUMPDEST CALLVALUE PUSH2 0x3C8 JUMPI PUSH1 0x0 CALLDATASIZE PUSH1 0x3 NOT ADD SLT PUSH2 0x3C8 JUMPI PUSH1 0x20 PUSH1 0x40 MLOAD PUSH32 0x4170D100A3A3728AE51207936EE755ECAA64A7F6E9383C642AB204A136F90B1B DUP2 MSTORE RETURN JUMPDEST CALLVALUE PUSH2 0x3C8 JUMPI PUSH1 0x20 CALLDATASIZE PUSH1 0x3 NOT ADD SLT PUSH2 0x3C8 JUMPI PUSH1 0x1 PUSH1 0x1 PUSH1 0xA0 SHL SUB PUSH2 0x7A9 PUSH2 0x213F JUMP JUMPDEST AND PUSH1 0x0 MSTORE PUSH1 0xF PUSH1 0x20 MSTORE PUSH1 0x20 PUSH1 0x40 PUSH1 0x0 KECCAK256 SLOAD PUSH1 0x40 MLOAD SWAP1 DUP2 MSTORE RETURN JUMPDEST CALLVALUE PUSH2 0x3C8 JUMPI PUSH1 0x20 CALLDATASIZE PUSH1 0x3 NOT ADD SLT PUSH2 0x3C8 JUMPI PUSH1 0x4 CALLDATALOAD PUSH1 0xB SLOAD DUP2 LT ISZERO PUSH2 0x3C8 JUMPI PUSH2 0x7EB PUSH1 0x20 SWAP2 PUSH2 0x240F JUMP JUMPDEST SWAP1 SLOAD PUSH1 0x40 MLOAD PUSH1 0x3 SWAP3 SWAP1 SWAP3 SHL SHR PUSH1 0x1 PUSH1 0x1 PUSH1 0xA0 SHL SUB AND DUP2 MSTORE RETURN JUMPDEST CALLVALUE PUSH2 0x3C8 JUMPI PUSH1 0x0 CALLDATASIZE PUSH1 0x3 NOT ADD SLT PUSH2 0x3C8 JUMPI PUSH1 0x20 PUSH1 0x40 MLOAD PUSH1 0x0 DUP2 MSTORE RETURN JUMPDEST CALLVALUE PUSH2 0x3C8 JUMPI PUSH1 0x20 CALLDATASIZE PUSH1 0x3 NOT ADD SLT PUSH2 0x3C8 JUMPI PUSH1 0x4 CALLDATALOAD PUSH1 0xD SLOAD DUP2 LT ISZERO PUSH2 0x3C8 JUMPI PUSH1 0xD PUSH1 0x0 MSTORE PUSH32 0xD7B6990105719101DABEB77144F2A3385C8033ACD3AF97E9423A695E81AD1EB5 ADD SLOAD PUSH1 0x40 MLOAD PUSH1 0x1 PUSH1 0x1 PUSH1 0xA0 SHL SUB SWAP1 SWAP2 AND DUP2 MSTORE PUSH1 0x20 SWAP1 RETURN JUMPDEST CALLVALUE PUSH2 0x3C8 JUMPI PUSH1 0x20 CALLDATASIZE PUSH1 0x3 NOT ADD SLT PUSH2 0x3C8 JUMPI PUSH1 0x4 CALLDATALOAD PUSH1 0x0 MSTORE PUSH1 0x5 PUSH1 0x20 MSTORE PUSH1 0x20 PUSH1 0xFF PUSH1 0x40 PUSH1 0x0 KECCAK256 SLOAD AND PUSH1 0x40 MLOAD SWAP1 ISZERO ISZERO DUP2 MSTORE RETURN JUMPDEST CALLVALUE PUSH2 0x3C8 JUMPI PUSH1 0x40 CALLDATASIZE PUSH1 0x3 NOT ADD SLT PUSH2 0x3C8 JUMPI PUSH2 0x8C5 PUSH2 0x213F JUMP JUMPDEST PUSH1 0x24 CALLDATALOAD SWAP1 PUSH2 0x8D1 PUSH2 0x2AC1 JUMP JUMPDEST PUSH2 0x8D9 PUSH2 0x2A7D JUMP JUMPDEST PUSH1 0x1 DUP1 PUSH1 0xA0 SHL SUB SWAP2 DUP3 DUP3 AND SWAP2 DUP3 PUSH1 0x0 MSTORE PUSH1 0x20 PUSH1 0x4 DUP2 MSTORE PUSH1 0x40 PUSH1 0x0 KECCAK256 SLOAD DUP4 LT ISZERO PUSH2 0xCAE JUMPI DUP4 PUSH1 0x0 MSTORE PUSH1 0x3 DUP2 MSTORE PUSH2 0x912 DUP4 PUSH1 0x40 PUSH1 0x0 KECCAK256 PUSH2 0x216B JUMP JUMPDEST POP SWAP5 PUSH1 0x3 DUP7 ADD SWAP4 DUP2 DUP6 SLOAD AND CALLER EQ ISZERO DUP1 PUSH2 0xC6B JUMPI JUMPDEST PUSH2 0xC59 JUMPI PUSH1 0x7 DUP8 ADD SWAP1 PUSH1 0xFF DUP3 SLOAD AND PUSH2 0xC47 JUMPI PUSH1 0x8 PUSH2 0x95C DUP9 SWAP3 DUP4 PUSH1 0x0 MSTORE PUSH1 0x3 DUP8 MSTORE PUSH2 0x955 DUP2 PUSH1 0x40 PUSH1 0x0 KECCAK256 PUSH2 0x216B JUMP JUMPDEST POP SWAP8 PUSH2 0x2DB6 JUMP JUMPDEST SWAP6 DUP7 PUSH1 0x5 DUP3 ADD SSTORE TIMESTAMP PUSH1 0x6 DUP3 ADD SSTORE ADD SLOAD PUSH32 0xF3122F87791D6EFF15D1ABBFC04281DB2F68FE1E63071CC87F02DFB207365549 PUSH1 0x40 DUP1 MLOAD DUP9 DUP2 MSTORE DUP9 DUP9 DUP3 ADD MSTORE LOG3 DUP1 SLOAD PUSH1 0xFF NOT AND PUSH1 0x1 OR SWAP1 SSTORE DUP3 ISZERO SWAP3 PUSH2 0x1B58 DUP2 DUP2 MUL SWAP1 DUP3 DUP3 DIV EQ DUP6 OR ISZERO PUSH2 0xC31 JUMPI PUSH2 0x2710 DUP1 SWAP2 DIV SWAP1 PUSH2 0x7D0 DUP1 DUP5 MUL SWAP1 DUP5 DUP3 DIV EQ DUP8 OR ISZERO PUSH2 0xC31 JUMPI DIV SWAP2 PUSH2 0x9E7 DUP4 PUSH2 0x9E2 DUP5 DUP5 PUSH2 0x2CE0 JUMP JUMPDEST PUSH2 0x2CE0 JUMP JUMPDEST SWAP4 PUSH2 0x9F3 DUP5 DUP12 SLOAD PUSH2 0x2927 JUMP JUMPDEST DUP2 DUP10 SLOAD AND PUSH1 0x0 MSTORE PUSH1 0x6 DUP8 MSTORE PUSH2 0xA0E PUSH1 0x40 PUSH1 0x0 KECCAK256 SWAP2 DUP3 SLOAD PUSH2 0x2927 JUMP JUMPDEST SWAP1 SSTORE DUP9 PUSH1 0x0 MSTORE PUSH1 0x7 DUP7 MSTORE PUSH1 0x40 PUSH1 0x0 KECCAK256 PUSH2 0xA28 DUP5 DUP3 SLOAD PUSH2 0x2927 JUMP JUMPDEST SWAP1 SSTORE PUSH2 0xA36 DUP6 PUSH1 0x8 SLOAD PUSH2 0x2927 JUMP JUMPDEST PUSH1 0x8 SSTORE PUSH2 0xA44 DUP3 DUP12 SLOAD PUSH2 0x2927 JUMP JUMPDEST PUSH1 0x4 DUP12 ADD SWAP1 PUSH1 0x0 DUP9 DUP5 DUP5 SLOAD AND PUSH1 0x24 PUSH1 0x40 MLOAD DUP1 SWAP5 DUP2 SWAP4 PUSH4 0x2E1A7D4D PUSH1 0xE0 SHL DUP4 MSTORE DUP8 PUSH1 0x4 DUP5 ADD MSTORE GAS CALL PUSH1 0x0 SWAP2 DUP2 PUSH2 0xC02 JUMPI JUMPDEST POP PUSH2 0xA8B JUMPI PUSH1 0x40 MLOAD PUSH4 0x3302AF5 PUSH1 0xE5 SHL DUP2 MSTORE PUSH1 0x4 SWAP1 REVERT JUMPDEST LT PUSH2 0xBF0 JUMPI DUP2 SWAP1 SLOAD AND DUP1 PUSH1 0x0 MSTORE PUSH1 0x12 DUP8 MSTORE PUSH1 0x40 PUSH1 0x0 KECCAK256 SWAP8 PUSH1 0x1 DUP10 ADD PUSH2 0xAB1 DUP6 DUP3 SLOAD PUSH2 0x2927 JUMP JUMPDEST SWAP1 SSTORE TIMESTAMP PUSH1 0x3 DUP11 ADD SSTORE ISZERO PUSH2 0xB16 JUMPI JUMPDEST POP PUSH32 0x4FD5C0B26E24B2B00B557765B057C3C07D8A2FB298EA4B3D87FE809D5E6571DE SWAP7 POP SWAP1 PUSH1 0xA0 SWAP6 SWAP5 SWAP4 SWAP3 SWAP2 PUSH1 0x8 DUP12 ADD SLOAD SWAP9 SLOAD AND SWAP10 SLOAD SWAP5 PUSH1 0x40 MLOAD SWAP6 DUP7 MSTORE DUP6 ADD MSTORE PUSH1 0x40 DUP5 ADD MSTORE PUSH1 0x60 DUP4 ADD MSTORE PUSH1 0x80 DUP3 ADD MSTORE LOG4 PUSH1 0x1 PUSH1 0x0 SSTORE STOP JUMPDEST DUP7 PUSH1 0x4 SWAP2 PUSH1 0x40 MLOAD SWAP3 DUP4 DUP1 SWAP3 PUSH4 0x4B16524B PUSH1 0xE1 SHL DUP3 MSTORE GAS STATICCALL PUSH1 0x0 SWAP2 DUP2 PUSH2 0xB90 JUMPI JUMPDEST POP SWAP1 PUSH32 0x4FD5C0B26E24B2B00B557765B057C3C07D8A2FB298EA4B3D87FE809D5E6571DE SWAP9 PUSH1 0xA0 SWAP9 SWAP8 SWAP7 SWAP6 SWAP5 SWAP4 SWAP3 PUSH2 0xB75 JUMPI JUMPDEST POP POP SWAP1 SWAP2 SWAP3 SWAP4 SWAP5 SWAP6 PUSH2 0xABF JUMP JUMPDEST PUSH1 0x2 PUSH2 0xB84 SWAP2 ADD SWAP2 DUP3 SLOAD PUSH2 0x2927 JUMP JUMPDEST PUSH1 0x1 SHR SWAP1 SSTORE DUP12 DUP1 PUSH2 0xB68 JUMP JUMPDEST SWAP8 DUP1 SWAP8 SWAP7 SWAP6 SWAP5 SWAP4 SWAP3 POP DUP9 DUP2 RETURNDATASIZE DUP4 GT PUSH2 0xBE9 JUMPI JUMPDEST PUSH2 0xBAD DUP2 DUP4 PUSH2 0x220E JUMP JUMPDEST DUP2 ADD SUB SLT PUSH2 0x3C8 JUMPI PUSH32 0x4FD5C0B26E24B2B00B557765B057C3C07D8A2FB298EA4B3D87FE809D5E6571DE SWAP9 PUSH1 0xA0 SWAP9 MLOAD SWAP3 SWAP4 SWAP5 SWAP6 SWAP7 SWAP8 SWAP9 POP SWAP9 PUSH2 0xB36 JUMP JUMPDEST POP RETURNDATASIZE PUSH2 0xBA3 JUMP JUMPDEST PUSH1 0x40 MLOAD PUSH4 0x12171D83 PUSH1 0xE3 SHL DUP2 MSTORE PUSH1 0x4 SWAP1 REVERT JUMPDEST SWAP1 SWAP2 POP DUP10 DUP2 DUP2 RETURNDATASIZE DUP4 GT PUSH2 0xC2A JUMPI JUMPDEST PUSH2 0xC1A DUP2 DUP4 PUSH2 0x220E JUMP JUMPDEST DUP2 ADD SUB SLT PUSH2 0x3C8 JUMPI MLOAD SWAP1 DUP15 PUSH2 0xA74 JUMP JUMPDEST POP RETURNDATASIZE PUSH2 0xC10 JUMP JUMPDEST PUSH4 0x4E487B71 PUSH1 0xE0 SHL PUSH1 0x0 MSTORE PUSH1 0x11 PUSH1 0x4 MSTORE PUSH1 0x24 PUSH1 0x0 REVERT JUMPDEST PUSH1 0x40 MLOAD PUSH4 0x74089129 PUSH1 0xE1 SHL DUP2 MSTORE PUSH1 0x4 SWAP1 REVERT JUMPDEST PUSH1 0x40 MLOAD PUSH4 0x5ED15CF9 PUSH1 0xE0 SHL DUP2 MSTORE PUSH1 0x4 SWAP1 REVERT JUMPDEST POP PUSH32 0x97667070C54EF182B0F5858B034BEAC1B6F3089AA2D3188BB1E8929F4FA9B929 PUSH1 0x0 MSTORE PUSH1 0x2 DUP4 MSTORE PUSH1 0x40 PUSH1 0x0 KECCAK256 CALLER PUSH1 0x0 MSTORE DUP4 MSTORE PUSH1 0xFF PUSH1 0x40 PUSH1 0x0 KECCAK256 SLOAD AND ISZERO PUSH2 0x926 JUMP JUMPDEST PUSH1 0x40 MLOAD PUSH4 0x411321ED PUSH1 0xE0 SHL DUP2 MSTORE PUSH1 0x4 SWAP1 REVERT JUMPDEST CALLVALUE PUSH2 0x3C8 JUMPI PUSH1 0x20 CALLDATASIZE PUSH1 0x3 NOT ADD SLT PUSH2 0x3C8 JUMPI PUSH1 0x4 CALLDATALOAD PUSH1 0x0 MSTORE PUSH1 0xE PUSH1 0x20 MSTORE PUSH1 0x20 PUSH1 0x40 PUSH1 0x0 KECCAK256 SLOAD PUSH1 0x40 MLOAD SWAP1 DUP2 MSTORE RETURN JUMPDEST CALLVALUE PUSH2 0x3C8 JUMPI PUSH1 0x40 CALLDATASIZE PUSH1 0x3 NOT ADD SLT PUSH2 0x3C8 JUMPI PUSH2 0xD05 PUSH2 0x2155 JUMP JUMPDEST PUSH1 0x4 CALLDATALOAD PUSH1 0x0 MSTORE PUSH1 0x2 PUSH1 0x20 MSTORE PUSH1 0x40 PUSH1 0x0 KECCAK256 SWAP1 PUSH1 0x1 DUP1 PUSH1 0xA0 SHL SUB AND PUSH1 0x0 MSTORE PUSH1 0x20 MSTORE PUSH1 0x20 PUSH1 0xFF PUSH1 0x40 PUSH1 0x0 KECCAK256 SLOAD AND PUSH1 0x40 MLOAD SWAP1 ISZERO ISZERO DUP2 MSTORE RETURN JUMPDEST CALLVALUE PUSH2 0x3C8 JUMPI PUSH2 0xD47 CALLDATASIZE PUSH2 0x23CC JUMP JUMPDEST SWAP1 SWAP2 PUSH2 0xD51 PUSH2 0x2661 JUMP JUMPDEST PUSH1 0x1 PUSH1 0x1 PUSH1 0xA0 SHL SUB AND PUSH1 0x0 DUP2 DUP2 MSTORE PUSH1 0xA PUSH1 0x20 MSTORE PUSH1 0x40 SWAP1 KECCAK256 SLOAD SWAP1 SWAP3 SWAP1 PUSH1 0xFF AND ISZERO PUSH2 0xDC8 JUMPI PUSH32 0xA214EC724672A94BF6C67D879945ADA3446BDD623BAED4584C515309B8573A2C SWAP2 DUP4 PUSH1 0x0 MSTORE PUSH1 0xA PUSH1 0x20 MSTORE PUSH1 0x40 PUSH1 0x0 KECCAK256 PUSH1 0xFF NOT DUP2 SLOAD AND SWAP1 SSTORE PUSH2 0xDC3 PUSH1 0x40 MLOAD SWAP3 DUP4 SWAP3 PUSH1 0x20 DUP5 MSTORE PUSH1 0x20 DUP5 ADD SWAP2 PUSH2 0x2EEE JUMP JUMPDEST SUB SWAP1 LOG2 STOP JUMPDEST PUSH1 0x40 MLOAD PUSH4 0x1B92E953 PUSH1 0xE3 SHL DUP2 MSTORE PUSH1 0x4 SWAP1 REVERT JUMPDEST CALLVALUE PUSH2 0x3C8 JUMPI PUSH1 0xC0 CALLDATASIZE PUSH1 0x3 NOT ADD SLT PUSH2 0x3C8 JUMPI PUSH2 0xDF3 PUSH2 0x2155 JUMP JUMPDEST PUSH1 0x44 CALLDATALOAD SWAP1 PUSH1 0x1 PUSH1 0x1 PUSH1 0xA0 SHL SUB DUP3 AND DUP3 SUB PUSH2 0x3C8 JUMPI PUSH1 0x64 CALLDATALOAD PUSH1 0x1 PUSH1 0x1 PUSH1 0xA0 SHL SUB DUP2 AND SWAP1 SUB PUSH2 0x3C8 JUMPI PUSH1 0xA4 CALLDATALOAD PUSH1 0x1 PUSH1 0x1 PUSH1 0x40 SHL SUB DUP2 GT PUSH2 0x3C8 JUMPI PUSH2 0xE39 SWAP1 CALLDATASIZE SWAP1 PUSH1 0x4 ADD PUSH2 0x239F JUMP JUMPDEST PUSH2 0xE44 SWAP3 SWAP2 SWAP3 PUSH2 0x2AC1 JUMP JUMPDEST PUSH2 0xE4C PUSH2 0x2A7D JUMP JUMPDEST PUSH3 0xF4240 PUSH1 0x4 CALLDATALOAD LT DUP1 ISZERO PUSH2 0x155E JUMPI JUMPDEST PUSH2 0x154C JUMPI PUSH1 0x1 PUSH1 0x1 PUSH1 0xA0 SHL SUB DUP3 AND ISZERO DUP1 ISZERO PUSH2 0x153B JUMPI JUMPDEST DUP1 ISZERO PUSH2 0x1528 JUMPI JUMPDEST PUSH2 0x3AC JUMPI PUSH1 0x1 PUSH1 0x1 PUSH1 0xA0 SHL SUB DUP3 AND PUSH1 0x0 SWAP1 DUP2 MSTORE PUSH1 0xC PUSH1 0x20 MSTORE PUSH1 0x40 SWAP1 KECCAK256 SLOAD PUSH1 0xFF AND ISZERO PUSH2 0x5BF JUMPI PUSH1 0x64 CALLDATALOAD PUSH1 0x1 PUSH1 0x1 PUSH1 0xA0 SHL SUB AND PUSH1 0x0 SWAP1 DUP2 MSTORE PUSH1 0xA PUSH1 0x20 MSTORE PUSH1 0x40 SWAP1 KECCAK256 SLOAD PUSH1 0xFF AND ISZERO PUSH2 0xDC8 JUMPI PUSH1 0x84 CALLDATALOAD PUSH1 0x0 MSTORE PUSH1 0x5 PUSH1 0x20 MSTORE PUSH1 0xFF PUSH1 0x40 PUSH1 0x0 KECCAK256 SLOAD AND PUSH2 0x1516 JUMPI PUSH3 0x15180 TIMESTAMP DIV PUSH1 0x0 MSTORE PUSH1 0xE PUSH1 0x20 MSTORE PUSH6 0x9184E72A000 PUSH2 0xEFE PUSH1 0x4 CALLDATALOAD PUSH1 0x40 PUSH1 0x0 KECCAK256 SLOAD PUSH2 0x2927 JUMP JUMPDEST GT PUSH2 0x14F2 JUMPI CALLER PUSH1 0x0 MSTORE PUSH1 0x4 PUSH1 0x20 MSTORE PUSH2 0x3E8 PUSH1 0x40 PUSH1 0x0 KECCAK256 SLOAD LT ISZERO PUSH2 0x1504 JUMPI CALLER PUSH1 0x0 MSTORE PUSH1 0xF PUSH1 0x20 MSTORE PUSH6 0x48C27395000 PUSH2 0xF3C PUSH1 0x4 CALLDATALOAD PUSH1 0x40 PUSH1 0x0 KECCAK256 SLOAD PUSH2 0x2927 JUMP JUMPDEST GT PUSH2 0x14F2 JUMPI PUSH1 0x40 MLOAD PUSH4 0x23B872DD PUSH1 0xE0 SHL PUSH1 0x20 DUP3 ADD MSTORE CALLER PUSH1 0x24 DUP3 ADD MSTORE ADDRESS PUSH1 0x44 DUP3 ADD MSTORE PUSH1 0x4 CALLDATALOAD PUSH1 0x64 DUP3 ADD MSTORE PUSH1 0x64 DUP2 MSTORE DUP1 PUSH1 0xA0 DUP2 ADD LT PUSH1 0x1 PUSH1 0x1 PUSH1 0x40 SHL SUB PUSH1 0xA0 DUP4 ADD GT OR PUSH2 0x384 JUMPI PUSH1 0xA0 DUP2 ADD PUSH1 0x40 MSTORE PUSH2 0xF9B SWAP1 PUSH1 0x1 PUSH1 0x1 PUSH1 0xA0 SHL SUB DUP5 AND PUSH2 0x2B17 JUMP JUMPDEST CALLER PUSH1 0x0 MSTORE PUSH1 0x4 PUSH1 0x20 MSTORE PUSH1 0x40 PUSH1 0x0 KECCAK256 SLOAD SWAP3 PUSH1 0x3 PUSH1 0x20 MSTORE PUSH1 0x40 PUSH1 0x0 KECCAK256 SWAP1 PUSH1 0x40 MLOAD SWAP3 PUSH2 0xFC3 DUP5 PUSH2 0x21F2 JUMP JUMPDEST PUSH1 0x4 CALLDATALOAD DUP5 MSTORE TIMESTAMP PUSH1 0x20 DUP6 ADD DUP2 SWAP1 MSTORE PUSH1 0x1 PUSH1 0x1 PUSH1 0xA0 SHL SUB DUP7 DUP2 AND PUSH1 0x40 DUP8 ADD MSTORE DUP9 DUP2 AND PUSH1 0x60 DUP8 ADD MSTORE PUSH1 0x64 CALLDATALOAD AND PUSH1 0x80 DUP7 ADD MSTORE PUSH1 0x0 PUSH1 0xA0 DUP7 ADD DUP2 SWAP1 MSTORE PUSH1 0xC0 DUP7 ADD SWAP2 SWAP1 SWAP2 MSTORE PUSH1 0xE0 DUP6 ADD MSTORE PUSH1 0x84 CALLDATALOAD PUSH2 0x100 DUP6 ADD MSTORE PUSH2 0x1019 DUP2 PUSH2 0x2934 JUMP JUMPDEST SWAP2 PUSH2 0x1027 PUSH1 0x40 MLOAD SWAP4 DUP5 PUSH2 0x220E JUMP JUMPDEST DUP2 DUP4 MSTORE CALLDATASIZE DUP3 DUP3 ADD GT PUSH2 0x3C8 JUMPI DUP2 PUSH1 0x0 SWAP3 PUSH1 0x20 SWAP3 DUP4 DUP7 ADD CALLDATACOPY DUP4 ADD ADD MSTORE PUSH2 0x120 DUP4 ADD MSTORE DUP1 SLOAD PUSH1 0x1 PUSH1 0x40 SHL DUP2 LT ISZERO PUSH2 0x384 JUMPI PUSH2 0x1065 SWAP2 PUSH1 0x1 DUP3 ADD DUP2 SSTORE PUSH2 0x216B JUMP JUMPDEST SWAP2 SWAP1 SWAP2 PUSH2 0x14DC JUMPI DUP1 PUSH2 0x120 SWAP2 MLOAD DUP4 SSTORE PUSH1 0x20 DUP2 ADD MLOAD PUSH1 0x1 DUP5 ADD SSTORE PUSH1 0x2 DUP4 ADD PUSH1 0x1 DUP1 PUSH1 0xA0 SHL SUB PUSH1 0x40 DUP4 ADD MLOAD AND SWAP1 PUSH1 0x1 PUSH1 0x1 PUSH1 0x60 SHL SUB PUSH1 0xA0 SHL SWAP2 DUP3 DUP3 SLOAD AND OR SWAP1 SSTORE PUSH1 0x3 DUP5 ADD PUSH1 0x1 DUP1 PUSH1 0xA0 SHL SUB PUSH1 0x60 DUP5 ADD MLOAD AND DUP3 DUP3 SLOAD AND OR SWAP1 SSTORE PUSH1 0x4 DUP5 ADD SWAP1 PUSH1 0x1 DUP1 PUSH1 0xA0 SHL SUB PUSH1 0x80 DUP5 ADD MLOAD AND SWAP1 DUP3 SLOAD AND OR SWAP1 SSTORE PUSH1 0xA0 DUP2 ADD MLOAD PUSH1 0x5 DUP5 ADD SSTORE PUSH1 0xC0 DUP2 ADD MLOAD PUSH1 0x6 DUP5 ADD SSTORE PUSH1 0x7 DUP4 ADD PUSH1 0xE0 DUP3 ADD MLOAD ISZERO ISZERO PUSH1 0xFF DUP1 NOT DUP4 SLOAD AND SWAP2 AND OR SWAP1 SSTORE PUSH2 0x100 DUP2 ADD MLOAD PUSH1 0x8 DUP5 ADD SSTORE ADD MLOAD DUP1 MLOAD SWAP1 PUSH1 0x1 PUSH1 0x1 PUSH1 0x40 SHL SUB DUP3 GT PUSH2 0x384 JUMPI PUSH2 0x112A PUSH1 0x9 DUP5 ADD SLOAD PUSH2 0x219D JUMP JUMPDEST PUSH1 0x1F DUP2 GT PUSH2 0x1495 JUMPI JUMPDEST POP PUSH1 0x20 SWAP1 PUSH1 0x1F DUP4 GT PUSH1 0x1 EQ PUSH2 0x1425 JUMPI PUSH1 0x9 SWAP3 SWAP2 PUSH1 0x0 SWAP2 DUP4 PUSH2 0x141A JUMPI JUMPDEST POP POP DUP2 PUSH1 0x1 SHL SWAP2 PUSH1 0x0 NOT SWAP1 PUSH1 0x3 SHL SHR NOT AND OR SWAP2 ADD SSTORE JUMPDEST CALLER PUSH1 0x0 MSTORE PUSH1 0x4 PUSH1 0x20 MSTORE PUSH1 0x40 PUSH1 0x0 KECCAK256 PUSH2 0x117D DUP2 SLOAD PUSH2 0x2A6E JUMP JUMPDEST SWAP1 SSTORE PUSH1 0x84 CALLDATALOAD PUSH1 0x0 MSTORE PUSH1 0x5 PUSH1 0x20 MSTORE PUSH1 0x40 PUSH1 0x0 KECCAK256 PUSH1 0x1 PUSH1 0xFF NOT DUP3 SLOAD AND OR SWAP1 SSTORE PUSH1 0x4 CALLDATALOAD ISZERO DUP1 ISZERO PUSH2 0x139E JUMPI JUMPDEST ISZERO PUSH2 0x133A JUMPI PUSH1 0x40 MLOAD PUSH4 0x95EA7B3 PUSH1 0xE0 SHL PUSH1 0x20 DUP3 ADD MSTORE PUSH1 0x64 DUP1 CALLDATALOAD PUSH1 0x1 PUSH1 0x1 PUSH1 0xA0 SHL SUB AND PUSH1 0x24 DUP4 ADD MSTORE PUSH1 0x4 CALLDATALOAD PUSH1 0x44 DUP1 DUP5 ADD SWAP2 SWAP1 SWAP2 MSTORE DUP3 MSTORE PUSH2 0x11F8 SWAP2 SWAP1 PUSH2 0x11E9 SWAP1 DUP3 PUSH2 0x220E JUMP JUMPDEST PUSH1 0x1 PUSH1 0x1 PUSH1 0xA0 SHL SUB DUP4 AND PUSH2 0x2B17 JUMP JUMPDEST PUSH1 0x40 MLOAD PUSH4 0xB6B55F25 PUSH1 0xE0 SHL DUP2 MSTORE PUSH1 0x4 DUP1 CALLDATALOAD SWAP1 DUP3 ADD MSTORE PUSH1 0x20 DUP2 PUSH1 0x24 DUP2 PUSH1 0x0 PUSH1 0x64 CALLDATALOAD PUSH1 0x1 PUSH1 0x1 PUSH1 0xA0 SHL SUB AND GAS CALL DUP1 ISZERO PUSH2 0x132E JUMPI PUSH2 0x1303 JUMPI JUMPDEST POP PUSH1 0x20 SWAP3 PUSH3 0x15180 TIMESTAMP DIV PUSH1 0x0 MSTORE PUSH1 0xE DUP5 MSTORE PUSH1 0x40 PUSH1 0x0 KECCAK256 PUSH2 0x1251 PUSH1 0x4 CALLDATALOAD DUP3 SLOAD PUSH2 0x2927 JUMP JUMPDEST SWAP1 SSTORE CALLER PUSH1 0x0 MSTORE PUSH1 0xF DUP5 MSTORE PUSH1 0x40 PUSH1 0x0 KECCAK256 PUSH2 0x126D PUSH1 0x4 CALLDATALOAD DUP3 SLOAD PUSH2 0x2927 JUMP JUMPDEST SWAP1 SSTORE PUSH1 0x1 DUP1 PUSH1 0xA0 SHL SUB PUSH1 0x64 CALLDATALOAD AND PUSH1 0x0 MSTORE PUSH1 0x12 DUP5 MSTORE PUSH1 0x40 PUSH1 0x0 KECCAK256 PUSH2 0x1293 PUSH1 0x4 CALLDATALOAD DUP3 SLOAD PUSH2 0x2927 JUMP JUMPDEST DUP2 SSTORE TIMESTAMP PUSH1 0x3 SWAP1 SWAP2 ADD SSTORE PUSH1 0x40 DUP1 MLOAD PUSH1 0x1 PUSH1 0x1 PUSH1 0xA0 SHL SUB SWAP4 DUP5 AND DUP2 MSTORE PUSH1 0x4 CALLDATALOAD DUP7 DUP3 ADD MSTORE PUSH1 0x64 CALLDATALOAD DUP5 AND SWAP2 DUP2 ADD SWAP2 SWAP1 SWAP2 MSTORE PUSH1 0x60 DUP2 ADD DUP5 SWAP1 MSTORE SWAP2 AND SWAP1 CALLER SWAP1 PUSH1 0x84 CALLDATALOAD SWAP1 PUSH32 0x75AB645E4BE4B4EC5B3FEAF8E588258ECFC0E501FA619998920A13AC2A172481 SWAP1 PUSH1 0x80 SWAP1 LOG4 PUSH1 0x1 PUSH1 0x0 SSTORE PUSH1 0x40 MLOAD SWAP1 DUP2 MSTORE RETURN JUMPDEST PUSH1 0x20 SWAP1 DUP2 RETURNDATASIZE DUP4 GT PUSH2 0x1327 JUMPI JUMPDEST PUSH2 0x1319 DUP2 DUP4 PUSH2 0x220E JUMP JUMPDEST DUP2 ADD SUB SLT PUSH2 0x3C8 JUMPI DUP4 PUSH2 0x122E JUMP JUMPDEST POP RETURNDATASIZE PUSH2 0x130F JUMP JUMPDEST PUSH1 0x40 MLOAD RETURNDATASIZE PUSH1 0x0 DUP3 RETURNDATACOPY RETURNDATASIZE SWAP1 REVERT JUMPDEST PUSH1 0x40 MLOAD PUSH3 0x461BCD PUSH1 0xE5 SHL DUP2 MSTORE PUSH1 0x20 PUSH1 0x4 DUP3 ADD MSTORE PUSH1 0x36 PUSH1 0x24 DUP3 ADD MSTORE PUSH32 0x5361666545524332303A20617070726F76652066726F6D206E6F6E2D7A65726F PUSH1 0x44 DUP3 ADD MSTORE PUSH22 0x20746F206E6F6E2D7A65726F20616C6C6F77616E6365 PUSH1 0x50 SHL PUSH1 0x64 DUP3 ADD MSTORE PUSH1 0x84 SWAP1 REVERT JUMPDEST POP PUSH1 0x40 MLOAD PUSH4 0x6EB1769F PUSH1 0xE1 SHL DUP2 MSTORE ADDRESS PUSH1 0x4 DUP3 ADD MSTORE PUSH1 0x1 PUSH1 0x1 PUSH1 0xA0 SHL SUB PUSH1 0x64 CALLDATALOAD DUP2 AND PUSH1 0x24 DUP4 ADD MSTORE PUSH1 0x20 SWAP1 DUP3 SWAP1 PUSH1 0x44 SWAP1 DUP3 SWAP1 DUP7 AND GAS STATICCALL SWAP1 DUP2 ISZERO PUSH2 0x132E JUMPI PUSH1 0x0 SWAP2 PUSH2 0x13E8 JUMPI JUMPDEST POP ISZERO PUSH2 0x11A5 JUMP JUMPDEST SWAP1 POP PUSH1 0x20 DUP2 RETURNDATASIZE PUSH1 0x20 GT PUSH2 0x1412 JUMPI JUMPDEST DUP2 PUSH2 0x1403 PUSH1 0x20 SWAP4 DUP4 PUSH2 0x220E JUMP JUMPDEST DUP2 ADD SUB SLT PUSH2 0x3C8 JUMPI MLOAD DUP5 PUSH2 0x13E1 JUMP JUMPDEST RETURNDATASIZE SWAP2 POP PUSH2 0x13F6 JUMP JUMPDEST ADD MLOAD SWAP1 POP DUP8 DUP1 PUSH2 0x114F JUMP JUMPDEST SWAP1 PUSH1 0x9 DUP5 ADD PUSH1 0x0 MSTORE PUSH1 0x20 PUSH1 0x0 KECCAK256 SWAP2 PUSH1 0x0 JUMPDEST PUSH1 0x1F NOT DUP6 AND DUP2 LT PUSH2 0x147D JUMPI POP SWAP2 DUP4 SWAP2 PUSH1 0x1 SWAP4 PUSH1 0x9 SWAP6 PUSH1 0x1F NOT DUP2 AND LT PUSH2 0x1464 JUMPI JUMPDEST POP POP POP DUP2 SHL ADD SWAP2 ADD SSTORE PUSH2 0x1165 JUMP JUMPDEST ADD MLOAD PUSH1 0x0 NOT PUSH1 0xF8 DUP5 PUSH1 0x3 SHL AND SHR NOT AND SWAP1 SSTORE DUP8 DUP1 DUP1 PUSH2 0x1456 JUMP JUMPDEST SWAP2 SWAP3 PUSH1 0x20 PUSH1 0x1 DUP2 SWAP3 DUP7 DUP6 ADD MLOAD DUP2 SSTORE ADD SWAP5 ADD SWAP3 ADD PUSH2 0x1436 JUMP JUMPDEST PUSH1 0x9 DUP5 ADD PUSH1 0x0 MSTORE PUSH1 0x20 PUSH1 0x0 KECCAK256 PUSH1 0x1F DUP5 ADD PUSH1 0x5 SHR DUP2 ADD PUSH1 0x20 DUP6 LT PUSH2 0x14D5 JUMPI JUMPDEST PUSH1 0x1F DUP4 ADD PUSH1 0x5 SHR DUP3 ADD DUP2 LT PUSH2 0x14C9 JUMPI POP POP PUSH2 0x1133 JUMP JUMPDEST PUSH1 0x0 DUP2 SSTORE PUSH1 0x1 ADD PUSH2 0x14B3 JUMP JUMPDEST POP DUP1 PUSH2 0x14B3 JUMP JUMPDEST PUSH4 0x4E487B71 PUSH1 0xE0 SHL PUSH1 0x0 MSTORE PUSH1 0x0 PUSH1 0x4 MSTORE PUSH1 0x24 PUSH1 0x0 REVERT JUMPDEST PUSH1 0x40 MLOAD PUSH4 0x652F4C5 PUSH1 0xE2 SHL DUP2 MSTORE PUSH1 0x4 SWAP1 REVERT JUMPDEST PUSH1 0x40 MLOAD PUSH4 0x61EEA575 PUSH1 0xE1 SHL DUP2 MSTORE PUSH1 0x4 SWAP1 REVERT JUMPDEST PUSH1 0x40 MLOAD PUSH4 0x424E8D71 PUSH1 0xE0 SHL DUP2 MSTORE PUSH1 0x4 SWAP1 REVERT JUMPDEST POP PUSH1 0x64 CALLDATALOAD PUSH1 0x1 PUSH1 0x1 PUSH1 0xA0 SHL SUB AND ISZERO PUSH2 0xE78 JUMP JUMPDEST POP PUSH1 0x1 PUSH1 0x1 PUSH1 0xA0 SHL SUB DUP5 AND ISZERO PUSH2 0xE71 JUMP JUMPDEST PUSH1 0x40 MLOAD PUSH4 0x162908E3 PUSH1 0xE1 SHL DUP2 MSTORE PUSH1 0x4 SWAP1 REVERT JUMPDEST POP PUSH5 0xE8D4A51000 PUSH1 0x4 CALLDATALOAD GT PUSH2 0xE5B JUMP JUMPDEST CALLVALUE PUSH2 0x3C8 JUMPI PUSH1 0x20 CALLDATASIZE PUSH1 0x3 NOT ADD SLT PUSH2 0x3C8 JUMPI PUSH1 0x1 PUSH1 0x1 PUSH1 0xA0 SHL SUB PUSH2 0x158F PUSH2 0x213F JUMP JUMPDEST AND PUSH1 0x0 MSTORE PUSH1 0x6 PUSH1 0x20 MSTORE PUSH1 0x20 PUSH1 0x40 PUSH1 0x0 KECCAK256 SLOAD PUSH1 0x40 MLOAD SWAP1 DUP2 MSTORE RETURN JUMPDEST CALLVALUE PUSH2 0x3C8 JUMPI PUSH1 0x0 CALLDATASIZE PUSH1 0x3 NOT ADD SLT PUSH2 0x3C8 JUMPI PUSH1 0x20 PUSH1 0x40 MLOAD PUSH32 0xA49807205CE4D355092EF5A8A18F56E8913CF4A201FBE287825B095693C21775 DUP2 MSTORE RETURN JUMPDEST CALLVALUE PUSH2 0x3C8 JUMPI PUSH1 0x0 CALLDATASIZE PUSH1 0x3 NOT ADD SLT PUSH2 0x3C8 JUMPI PUSH1 0x20 PUSH1 0x40 MLOAD PUSH3 0x15180 DUP2 MSTORE RETURN JUMPDEST CALLVALUE PUSH2 0x3C8 JUMPI PUSH1 0x20 CALLDATASIZE PUSH1 0x3 NOT ADD SLT PUSH2 0x3C8 JUMPI PUSH1 0x1 PUSH1 0x1 PUSH1 0xA0 SHL SUB PUSH2 0x1622 PUSH2 0x213F JUMP JUMPDEST AND PUSH1 0x0 MSTORE PUSH1 0x4 PUSH1 0x20 MSTORE PUSH1 0x20 PUSH1 0x40 PUSH1 0x0 KECCAK256 SLOAD PUSH1 0x40 MLOAD SWAP1 DUP2 MSTORE RETURN JUMPDEST CALLVALUE PUSH2 0x3C8 JUMPI PUSH2 0x610 PUSH2 0x164C CALLDATASIZE PUSH2 0x23CC JUMP JUMPDEST SWAP2 PUSH2 0x1655 PUSH2 0x2446 JUMP JUMPDEST PUSH2 0x2F0F JUMP JUMPDEST CALLVALUE PUSH2 0x3C8 JUMPI PUSH1 0x20 CALLDATASIZE PUSH1 0x3 NOT ADD SLT PUSH2 0x3C8 JUMPI PUSH1 0x1 PUSH1 0x1 PUSH1 0xA0 SHL SUB PUSH2 0x167B PUSH2 0x213F JUMP JUMPDEST AND PUSH1 0x0 MSTORE PUSH1 0xC PUSH1 0x20 MSTORE PUSH1 0x20 PUSH1 0xFF PUSH1 0x40 PUSH1 0x0 KECCAK256 SLOAD AND PUSH1 0x40 MLOAD SWAP1 ISZERO ISZERO DUP2 MSTORE RETURN JUMPDEST CALLVALUE PUSH2 0x3C8 JUMPI PUSH1 0x20 CALLDATASIZE PUSH1 0x3 NOT ADD SLT PUSH2 0x3C8 JUMPI PUSH1 0x4 CALLDATALOAD PUSH2 0x16B5 PUSH2 0x2446 JUMP JUMPDEST PUSH2 0x3E8 DUP2 GT PUSH2 0x154C JUMPI PUSH1 0x40 PUSH32 0xB404CAC19FB1CBEFF98D325795B08886E3CD8FE8CB1A2F193AAC66F13FB239C3 SWAP2 PUSH1 0x10 SLOAD SWAP1 DUP1 PUSH1 0x10 SSTORE DUP3 MLOAD SWAP2 DUP3 MSTORE PUSH1 0x20 DUP3 ADD MSTORE LOG1 STOP JUMPDEST CALLVALUE PUSH2 0x3C8 JUMPI PUSH1 0x0 CALLDATASIZE PUSH1 0x3 NOT ADD SLT PUSH2 0x3C8 JUMPI PUSH1 0x20 PUSH1 0x8 SLOAD PUSH1 0x40 MLOAD SWAP1 DUP2 MSTORE RETURN JUMPDEST CALLVALUE PUSH2 0x3C8 JUMPI PUSH1 0x40 CALLDATASIZE PUSH1 0x3 NOT ADD SLT PUSH2 0x3C8 JUMPI PUSH2 0x17B8 PUSH2 0x1731 PUSH2 0x213F JUMP JUMPDEST PUSH1 0x24 CALLDATALOAD PUSH1 0x40 MLOAD PUSH2 0x1740 DUP2 PUSH2 0x21F2 JUMP JUMPDEST PUSH1 0x0 DUP2 MSTORE PUSH1 0x0 PUSH1 0x20 DUP3 ADD MSTORE PUSH1 0x0 PUSH1 0x40 DUP3 ADD MSTORE PUSH1 0x0 PUSH1 0x60 DUP3 ADD MSTORE PUSH1 0x0 PUSH1 0x80 DUP3 ADD MSTORE PUSH1 0x0 PUSH1 0xA0 DUP3 ADD MSTORE PUSH1 0x0 PUSH1 0xC0 DUP3 ADD MSTORE PUSH1 0x0 PUSH1 0xE0 DUP3 ADD MSTORE PUSH1 0x0 PUSH2 0x100 DUP3 ADD MSTORE PUSH1 0x60 PUSH2 0x120 DUP3 ADD MSTORE SWAP2 PUSH1 0x1 DUP1 PUSH1 0xA0 SHL SUB AND PUSH1 0x0 MSTORE PUSH1 0x4 PUSH1 0x20 MSTORE PUSH1 0x40 PUSH1 0x0 KECCAK256 SLOAD DUP2 LT PUSH2 0x17BC JUMPI JUMPDEST POP PUSH1 0x40 MLOAD SWAP2 DUP3 SWAP2 PUSH1 0x20 DUP4 MSTORE PUSH1 0x20 DUP4 ADD SWAP1 PUSH2 0x231D JUMP JUMPDEST SUB SWAP1 RETURN JUMPDEST PUSH2 0x17DA SWAP2 POP PUSH2 0x17D4 SWAP1 PUSH1 0x3 PUSH1 0x20 MSTORE PUSH1 0x40 PUSH1 0x0 KECCAK256 PUSH2 0x216B JUMP JUMPDEST POP PUSH2 0x2D2E JUMP JUMPDEST DUP3 PUSH2 0x17A3 JUMP JUMPDEST CALLVALUE PUSH2 0x3C8 JUMPI PUSH1 0x0 CALLDATASIZE PUSH1 0x3 NOT ADD SLT PUSH2 0x3C8 JUMPI PUSH1 0x20 PUSH1 0xFF PUSH1 0x1 SLOAD AND PUSH1 0x40 MLOAD SWAP1 ISZERO ISZERO DUP2 MSTORE RETURN JUMPDEST CALLVALUE PUSH2 0x3C8 JUMPI PUSH1 0x0 CALLDATASIZE PUSH1 0x3 NOT ADD SLT PUSH2 0x3C8 JUMPI PUSH1 0x20 PUSH1 0x10 SLOAD PUSH1 0x40 MLOAD SWAP1 DUP2 MSTORE RETURN JUMPDEST CALLVALUE PUSH2 0x3C8 JUMPI PUSH1 0x0 CALLDATASIZE PUSH1 0x3 NOT ADD SLT PUSH2 0x3C8 JUMPI PUSH2 0x183A PUSH2 0x2446 JUMP JUMPDEST PUSH2 0x1842 PUSH2 0x2A7D JUMP JUMPDEST PUSH1 0x1 PUSH1 0xFF NOT DUP2 SLOAD AND OR PUSH1 0x1 SSTORE PUSH32 0x62E78CEA01BEE320CD4E420270B5EA74000D11B0C9F74754EBDBFC544B05A258 PUSH1 0x20 PUSH1 0x40 MLOAD CALLER DUP2 MSTORE LOG1 STOP JUMPDEST CALLVALUE PUSH2 0x3C8 JUMPI PUSH1 0x40 CALLDATASIZE PUSH1 0x3 NOT ADD SLT PUSH2 0x3C8 JUMPI PUSH2 0x1893 PUSH2 0x213F JUMP JUMPDEST PUSH1 0x24 CALLDATALOAD SWAP1 PUSH2 0x189F PUSH2 0x2AC1 JUMP JUMPDEST PUSH1 0x1 PUSH1 0x1 PUSH1 0xA0 SHL SUB AND PUSH1 0x0 DUP2 DUP2 MSTORE PUSH1 0xC PUSH1 0x20 MSTORE PUSH1 0x40 SWAP1 KECCAK256 SLOAD SWAP1 SWAP2 SWAP1 PUSH1 0xFF AND ISZERO PUSH2 0x5BF JUMPI CALLER PUSH1 0x0 MSTORE PUSH1 0x6 PUSH1 0x20 MSTORE PUSH1 0x40 PUSH1 0x0 KECCAK256 SLOAD SWAP1 DUP2 ISZERO PUSH2 0x5AD JUMPI DUP1 PUSH2 0x1913 JUMPI POP DUP1 JUMPDEST DUP2 GT PUSH2 0x5AD JUMPI PUSH2 0x190C SWAP2 CALLER PUSH1 0x0 MSTORE PUSH1 0x6 PUSH1 0x20 MSTORE PUSH1 0x40 PUSH1 0x0 KECCAK256 PUSH2 0x1903 DUP4 DUP3 SLOAD PUSH2 0x2CE0 JUMP JUMPDEST SWAP1 SSTORE CALLER SWAP1 PUSH2 0x2CED JUMP JUMPDEST PUSH1 0x1 PUSH1 0x0 SSTORE STOP JUMPDEST SWAP1 PUSH2 0x18E0 JUMP JUMPDEST CALLVALUE PUSH2 0x3C8 JUMPI PUSH1 0x0 CALLDATASIZE PUSH1 0x3 NOT ADD SLT PUSH2 0x3C8 JUMPI PUSH1 0x11 SLOAD PUSH1 0x40 MLOAD PUSH1 0x1 PUSH1 0x1 PUSH1 0xA0 SHL SUB SWAP1 SWAP2 AND DUP2 MSTORE PUSH1 0x20 SWAP1 RETURN JUMPDEST CALLVALUE PUSH2 0x3C8 JUMPI PUSH1 0x0 CALLDATASIZE PUSH1 0x3 NOT ADD SLT PUSH2 0x3C8 JUMPI PUSH1 0x20 PUSH1 0x40 MLOAD PUSH5 0xE8D4A51000 DUP2 MSTORE RETURN JUMPDEST CALLVALUE PUSH2 0x3C8 JUMPI PUSH1 0x0 CALLDATASIZE PUSH1 0x3 NOT ADD SLT PUSH2 0x3C8 JUMPI PUSH2 0x197B PUSH2 0x2446 JUMP JUMPDEST PUSH1 0x1 SLOAD PUSH1 0xFF DUP2 AND ISZERO PUSH2 0x19BA JUMPI PUSH1 0xFF NOT AND PUSH1 0x1 SSTORE PUSH32 0x5DB9EE0A495BF2E6FF9C91A7834C1BA4FDD244A5E8AA4E537BD38AEAE4B073AA PUSH1 0x20 PUSH1 0x40 MLOAD CALLER DUP2 MSTORE LOG1 STOP JUMPDEST PUSH1 0x40 MLOAD PUSH3 0x461BCD PUSH1 0xE5 SHL DUP2 MSTORE PUSH1 0x20 PUSH1 0x4 DUP3 ADD MSTORE PUSH1 0x14 PUSH1 0x24 DUP3 ADD MSTORE PUSH20 0x14185D5CD8589B194E881B9BDD081C185D5CD959 PUSH1 0x62 SHL PUSH1 0x44 DUP3 ADD MSTORE PUSH1 0x64 SWAP1 REVERT JUMPDEST CALLVALUE PUSH2 0x3C8 JUMPI PUSH1 0x40 CALLDATASIZE PUSH1 0x3 NOT ADD SLT PUSH2 0x3C8 JUMPI PUSH1 0x4 CALLDATALOAD PUSH1 0x24 CALLDATALOAD PUSH1 0x1 PUSH1 0x1 PUSH1 0x40 SHL SUB DUP2 GT PUSH2 0x3C8 JUMPI PUSH2 0x1A29 SWAP1 CALLDATASIZE SWAP1 PUSH1 0x4 ADD PUSH2 0x239F JUMP JUMPDEST SWAP2 PUSH2 0x1A32 PUSH2 0x2AC1 JUMP JUMPDEST CALLER PUSH1 0x0 MSTORE PUSH1 0x20 SWAP1 PUSH1 0x4 DUP3 MSTORE PUSH1 0x40 PUSH1 0x0 KECCAK256 SLOAD DUP2 LT ISZERO PUSH2 0xCAE JUMPI PUSH2 0x1A60 SWAP1 CALLER PUSH1 0x0 MSTORE PUSH1 0x3 DUP4 MSTORE PUSH1 0x40 PUSH1 0x0 KECCAK256 PUSH2 0x216B JUMP JUMPDEST POP SWAP1 PUSH1 0x7 DUP3 ADD DUP1 SLOAD PUSH1 0xFF DUP2 AND PUSH2 0xC47 JUMPI PUSH1 0xFF NOT AND PUSH1 0x1 OR SWAP1 SSTORE PUSH1 0x4 DUP3 DUP2 ADD SLOAD DUP4 SLOAD PUSH1 0x40 MLOAD PUSH4 0x1BFC726F PUSH1 0xE2 SHL DUP2 MSTORE ADDRESS SWAP4 DUP2 ADD SWAP4 SWAP1 SWAP4 MSTORE PUSH1 0x1 PUSH1 0x1 PUSH1 0xA0 SHL SUB SWAP3 SWAP2 DUP4 AND SWAP2 DUP5 DUP2 PUSH1 0x24 DUP2 PUSH1 0x0 DUP8 GAS CALL PUSH1 0x0 SWAP2 DUP2 PUSH2 0x1BF0 JUMPI JUMPDEST POP PUSH2 0x1BA8 JUMPI POP PUSH1 0x0 SWAP2 PUSH1 0x24 DUP6 SWAP3 PUSH1 0x40 MLOAD SWAP5 DUP6 SWAP4 DUP5 SWAP3 PUSH4 0x2E1A7D4D PUSH1 0xE0 SHL DUP5 MSTORE PUSH1 0x4 DUP5 ADD MSTORE GAS CALL PUSH1 0x0 SWAP2 DUP2 PUSH2 0x1B59 JUMPI JUMPDEST POP PUSH32 0xF9A641ACC5C9067014D12A6D17ED1F5EBAA0C5756EBB3D4C26D9A2CBAC5BAEBA SWAP5 PUSH2 0x1B44 SWAP3 PUSH1 0x8 SWAP3 PUSH2 0x1B4E JUMPI POP PUSH2 0x1B29 PUSH1 0x0 DUP1 SWAP6 JUMPDEST CALLER SWAP1 PUSH1 0x2 DUP6 ADD SLOAD AND PUSH2 0x2CED JUMP JUMPDEST ADD SLOAD SWAP5 PUSH1 0x40 DUP1 MLOAD SWAP5 DUP6 SWAP5 DUP6 MSTORE DUP5 ADD MSTORE CALLER SWAP7 PUSH1 0x40 DUP5 ADD SWAP2 PUSH2 0x2EEE JUMP JUMPDEST SUB SWAP1 LOG3 PUSH1 0x1 PUSH1 0x0 SSTORE STOP JUMPDEST PUSH2 0x1B29 SWAP1 DUP1 SWAP6 PUSH2 0x1B1C JUMP JUMPDEST SWAP1 SWAP2 POP DUP4 DUP2 DUP2 RETURNDATASIZE DUP4 GT PUSH2 0x1BA1 JUMPI JUMPDEST PUSH2 0x1B71 DUP2 DUP4 PUSH2 0x220E JUMP JUMPDEST DUP2 ADD SUB SLT PUSH2 0x3C8 JUMPI MLOAD SWAP1 PUSH32 0xF9A641ACC5C9067014D12A6D17ED1F5EBAA0C5756EBB3D4C26D9A2CBAC5BAEBA PUSH2 0x1AE5 JUMP JUMPDEST POP RETURNDATASIZE PUSH2 0x1B67 JUMP JUMPDEST PUSH2 0x1B44 SWAP3 POP SWAP5 PUSH2 0x1B29 PUSH1 0x8 SWAP3 PUSH32 0xF9A641ACC5C9067014D12A6D17ED1F5EBAA0C5756EBB3D4C26D9A2CBAC5BAEBA SWAP8 DUP2 DUP2 GT PUSH1 0x0 EQ PUSH2 0x1BE9 JUMPI POP JUMPDEST DUP1 SWAP6 PUSH2 0x1B1C JUMP JUMPDEST SWAP1 POP PUSH2 0x1BE2 JUMP JUMPDEST SWAP1 SWAP2 POP DUP6 DUP2 DUP2 RETURNDATASIZE DUP4 GT PUSH2 0x1C18 JUMPI JUMPDEST PUSH2 0x1C08 DUP2 DUP4 PUSH2 0x220E JUMP JUMPDEST DUP2 ADD SUB SLT PUSH2 0x3C8 JUMPI MLOAD SWAP1 DUP10 PUSH2 0x1AB6 JUMP JUMPDEST POP RETURNDATASIZE PUSH2 0x1BFE JUMP JUMPDEST CALLVALUE PUSH2 0x3C8 JUMPI PUSH1 0x0 CALLDATASIZE PUSH1 0x3 NOT ADD SLT PUSH2 0x3C8 JUMPI PUSH1 0x20 PUSH1 0x40 MLOAD PUSH6 0x9184E72A000 DUP2 MSTORE RETURN JUMPDEST CALLVALUE PUSH2 0x3C8 JUMPI PUSH1 0x40 CALLDATASIZE PUSH1 0x3 NOT ADD SLT PUSH2 0x3C8 JUMPI PUSH2 0x1C59 PUSH2 0x2155 JUMP JUMPDEST CALLER PUSH1 0x1 PUSH1 0x1 PUSH1 0xA0 SHL SUB DUP3 AND SUB PUSH2 0x1C75 JUMPI PUSH2 0x610 SWAP1 PUSH1 0x4 CALLDATALOAD PUSH2 0x28B1 JUMP JUMPDEST PUSH1 0x40 MLOAD PUSH3 0x461BCD PUSH1 0xE5 SHL DUP2 MSTORE PUSH1 0x20 PUSH1 0x4 DUP3 ADD MSTORE PUSH1 0x2F PUSH1 0x24 DUP3 ADD MSTORE PUSH32 0x416363657373436F6E74726F6C3A2063616E206F6E6C792072656E6F756E6365 PUSH1 0x44 DUP3 ADD MSTORE PUSH15 0x103937B632B9903337B91039B2B633 PUSH1 0x89 SHL PUSH1 0x64 DUP3 ADD MSTORE PUSH1 0x84 SWAP1 REVERT JUMPDEST CALLVALUE PUSH2 0x3C8 JUMPI PUSH1 0x40 CALLDATASIZE PUSH1 0x3 NOT ADD SLT PUSH2 0x3C8 JUMPI PUSH1 0x4 CALLDATALOAD PUSH2 0x1CEE PUSH2 0x2155 JUMP JUMPDEST DUP2 PUSH1 0x0 MSTORE PUSH1 0x2 PUSH1 0x20 MSTORE PUSH2 0x1D08 PUSH1 0x1 PUSH1 0x40 PUSH1 0x0 KECCAK256 ADD SLOAD PUSH2 0x27A6 JUMP JUMPDEST DUP2 PUSH1 0x0 MSTORE PUSH1 0x2 PUSH1 0x20 MSTORE PUSH1 0x40 PUSH1 0x0 KECCAK256 SWAP1 PUSH1 0x1 DUP1 PUSH1 0xA0 SHL SUB AND SWAP1 DUP2 PUSH1 0x0 MSTORE PUSH1 0x20 MSTORE PUSH1 0xFF PUSH1 0x40 PUSH1 0x0 KECCAK256 SLOAD AND ISZERO PUSH2 0x1D37 JUMPI STOP JUMPDEST DUP2 PUSH1 0x0 MSTORE PUSH1 0x2 PUSH1 0x20 MSTORE PUSH1 0x40 PUSH1 0x0 KECCAK256 DUP2 PUSH1 0x0 MSTORE PUSH1 0x20 MSTORE PUSH1 0x40 PUSH1 0x0 KECCAK256 PUSH1 0x1 PUSH1 0xFF NOT DUP3 SLOAD AND OR SWAP1 SSTORE CALLER SWAP2 PUSH32 0x2F8788117E7EFF1D82E926EC794901D17C78024A50270940304540A733656F0D PUSH1 0x0 DUP1 LOG4 STOP JUMPDEST CALLVALUE PUSH2 0x3C8 JUMPI PUSH1 0x20 CALLDATASIZE PUSH1 0x3 NOT ADD SLT PUSH2 0x3C8 JUMPI PUSH1 0x1 PUSH1 0x1 PUSH1 0xA0 SHL SUB PUSH2 0x1DA6 PUSH2 0x213F JUMP JUMPDEST AND PUSH1 0x0 MSTORE PUSH1 0xA PUSH1 0x20 MSTORE PUSH1 0x20 PUSH1 0xFF PUSH1 0x40 PUSH1 0x0 KECCAK256 SLOAD AND PUSH1 0x40 MLOAD SWAP1 ISZERO ISZERO DUP2 MSTORE RETURN JUMPDEST CALLVALUE PUSH2 0x3C8 JUMPI PUSH1 0x20 DUP1 PUSH1 0x3 NOT CALLDATASIZE ADD SLT PUSH2 0x3C8 JUMPI PUSH1 0x1 PUSH1 0x1 PUSH1 0xA0 SHL SUB PUSH2 0x1DE6 PUSH2 0x213F JUMP JUMPDEST AND PUSH1 0x0 MSTORE PUSH1 0x3 DUP2 MSTORE PUSH1 0x40 PUSH1 0x0 KECCAK256 DUP1 SLOAD SWAP1 PUSH1 0x1 PUSH1 0x1 PUSH1 0x40 SHL SUB DUP3 GT PUSH2 0x384 JUMPI DUP3 SWAP1 PUSH1 0x40 MLOAD SWAP3 PUSH2 0x1E19 DUP4 DUP3 PUSH1 0x5 SHL ADD DUP6 PUSH2 0x220E JUMP JUMPDEST DUP1 DUP5 MSTORE DUP3 DUP5 ADD DUP1 SWAP3 PUSH1 0x0 MSTORE DUP4 PUSH1 0x0 KECCAK256 PUSH1 0x0 SWAP2 JUMPDEST DUP4 DUP4 LT PUSH2 0x1E93 JUMPI POP POP POP POP PUSH1 0x40 MLOAD SWAP2 DUP1 DUP4 ADD SWAP4 DUP2 DUP5 MSTORE MLOAD DUP1 SWAP5 MSTORE PUSH1 0x40 DUP4 ADD SWAP4 PUSH1 0x40 DUP2 PUSH1 0x5 SHL DUP6 ADD ADD SWAP3 SWAP2 PUSH1 0x0 SWAP6 JUMPDEST DUP3 DUP8 LT PUSH2 0x1E67 JUMPI DUP6 DUP6 SUB DUP7 RETURN JUMPDEST SWAP1 SWAP2 SWAP3 SWAP4 DUP3 DUP1 PUSH2 0x1E83 PUSH1 0x1 SWAP4 PUSH1 0x3F NOT DUP11 DUP3 SUB ADD DUP7 MSTORE DUP9 MLOAD PUSH2 0x231D JUMP JUMPDEST SWAP7 ADD SWAP3 ADD SWAP7 ADD SWAP6 SWAP3 SWAP2 SWAP1 SWAP3 PUSH2 0x1E5A JUMP JUMPDEST PUSH1 0xA DUP7 PUSH1 0x1 SWAP3 PUSH2 0x1EA5 DUP6 SWAP11 SWAP10 SWAP11 PUSH2 0x2D2E JUMP JUMPDEST DUP2 MSTORE ADD SWAP3 ADD SWAP3 ADD SWAP2 SWAP1 SWAP6 SWAP5 SWAP6 PUSH2 0x1E2C JUMP JUMPDEST CALLVALUE PUSH2 0x3C8 JUMPI PUSH1 0x20 CALLDATASIZE PUSH1 0x3 NOT ADD SLT PUSH2 0x3C8 JUMPI PUSH1 0x4 CALLDATALOAD PUSH1 0x0 MSTORE PUSH1 0x2 PUSH1 0x20 MSTORE PUSH1 0x20 PUSH1 0x1 PUSH1 0x40 PUSH1 0x0 KECCAK256 ADD SLOAD PUSH1 0x40 MLOAD SWAP1 DUP2 MSTORE RETURN JUMPDEST CALLVALUE PUSH2 0x3C8 JUMPI PUSH1 0x0 CALLDATASIZE PUSH1 0x3 NOT ADD SLT PUSH2 0x3C8 JUMPI PUSH1 0x20 PUSH1 0x40 MLOAD PUSH3 0xF4240 DUP2 MSTORE RETURN JUMPDEST CALLVALUE PUSH2 0x3C8 JUMPI PUSH1 0x40 CALLDATASIZE PUSH1 0x3 NOT ADD SLT PUSH2 0x3C8 JUMPI PUSH2 0x1F1C PUSH2 0x213F JUMP JUMPDEST PUSH1 0x24 CALLDATALOAD PUSH2 0x1F27 PUSH2 0x2446 JUMP JUMPDEST PUSH1 0x8 SLOAD SWAP2 DUP3 DUP3 GT PUSH2 0x5AD JUMPI PUSH2 0x1F3F DUP3 PUSH2 0x610 SWAP5 PUSH2 0x2CE0 JUMP JUMPDEST PUSH1 0x8 SSTORE PUSH1 0x11 SLOAD PUSH1 0x1 PUSH1 0x1 PUSH1 0xA0 SHL SUB SWAP1 DUP2 AND SWAP2 AND PUSH2 0x2CED JUMP JUMPDEST CALLVALUE PUSH2 0x3C8 JUMPI PUSH1 0x0 CALLDATASIZE PUSH1 0x3 NOT ADD SLT PUSH2 0x3C8 JUMPI PUSH1 0x20 PUSH1 0x40 MLOAD PUSH2 0x1B58 DUP2 MSTORE RETURN JUMPDEST CALLVALUE PUSH2 0x3C8 JUMPI PUSH1 0x20 CALLDATASIZE PUSH1 0x3 NOT ADD SLT PUSH2 0x3C8 JUMPI PUSH2 0x1F8D PUSH2 0x213F JUMP JUMPDEST PUSH1 0x0 PUSH1 0x60 PUSH1 0x40 MLOAD PUSH2 0x1F9D DUP2 PUSH2 0x21D7 JUMP JUMPDEST DUP3 DUP2 MSTORE DUP3 PUSH1 0x20 DUP3 ADD MSTORE DUP3 PUSH1 0x40 DUP3 ADD MSTORE ADD MSTORE PUSH1 0x1 DUP1 PUSH1 0xA0 SHL SUB AND PUSH1 0x0 MSTORE PUSH1 0x12 PUSH1 0x20 MSTORE PUSH1 0x80 PUSH1 0x40 PUSH1 0x0 KECCAK256 PUSH1 0x40 MLOAD PUSH2 0x1FD1 DUP2 PUSH2 0x21D7 JUMP JUMPDEST DUP2 SLOAD SWAP2 DUP3 DUP3 MSTORE PUSH1 0x1 DUP2 ADD SLOAD PUSH1 0x20 DUP4 ADD SWAP1 DUP2 MSTORE PUSH1 0x60 PUSH1 0x3 PUSH1 0x2 DUP5 ADD SLOAD SWAP4 PUSH1 0x40 DUP7 ADD SWAP5 DUP6 MSTORE ADD SLOAD SWAP4 ADD SWAP3 DUP4 MSTORE PUSH1 0x40 MLOAD SWAP4 DUP5 MSTORE MLOAD PUSH1 0x20 DUP5 ADD MSTORE MLOAD PUSH1 0x40 DUP4 ADD MSTORE MLOAD PUSH1 0x60 DUP3 ADD MSTORE RETURN JUMPDEST CALLVALUE PUSH2 0x3C8 JUMPI PUSH1 0x40 CALLDATASIZE PUSH1 0x3 NOT ADD SLT PUSH2 0x3C8 JUMPI PUSH2 0x202E PUSH2 0x213F JUMP JUMPDEST PUSH1 0x1 PUSH1 0x1 PUSH1 0xA0 SHL SUB SWAP1 DUP2 AND PUSH1 0x0 SWAP1 DUP2 MSTORE PUSH1 0x3 PUSH1 0x20 MSTORE PUSH1 0x40 SWAP1 KECCAK256 DUP1 SLOAD PUSH1 0x24 CALLDATALOAD SWAP1 DUP2 LT ISZERO PUSH2 0x3C8 JUMPI PUSH2 0x205D SWAP2 PUSH2 0x216B JUMP JUMPDEST POP SWAP1 PUSH2 0x17B8 DUP3 SLOAD SWAP2 PUSH1 0x1 DUP5 ADD SLOAD SWAP4 DUP2 PUSH1 0x2 DUP3 ADD SLOAD AND SWAP2 DUP1 PUSH1 0x3 DUP4 ADD SLOAD AND SWAP1 PUSH1 0x4 DUP4 ADD SLOAD AND PUSH1 0x5 DUP4 ADD SLOAD PUSH1 0x6 DUP5 ADD SLOAD SWAP2 PUSH1 0xFF PUSH1 0x7 DUP7 ADD SLOAD AND SWAP4 PUSH2 0x20A6 PUSH1 0x9 PUSH1 0x8 DUP9 ADD SLOAD SWAP8 ADD PUSH2 0x222F JUMP JUMPDEST SWAP7 PUSH1 0x40 MLOAD SWAP11 DUP12 SWAP11 DUP12 MSTORE PUSH1 0x20 DUP12 ADD MSTORE PUSH1 0x40 DUP11 ADD MSTORE PUSH1 0x60 DUP10 ADD MSTORE PUSH1 0x80 DUP9 ADD MSTORE PUSH1 0xA0 DUP8 ADD MSTORE PUSH1 0xC0 DUP7 ADD MSTORE ISZERO ISZERO PUSH1 0xE0 DUP6 ADD MSTORE PUSH2 0x100 DUP5 ADD MSTORE PUSH2 0x140 DUP1 PUSH2 0x120 DUP6 ADD MSTORE DUP4 ADD SWAP1 PUSH2 0x22F8 JUMP JUMPDEST CALLVALUE PUSH2 0x3C8 JUMPI PUSH1 0x20 CALLDATASIZE PUSH1 0x3 NOT ADD SLT PUSH2 0x3C8 JUMPI PUSH1 0x4 CALLDATALOAD SWAP1 PUSH4 0xFFFFFFFF PUSH1 0xE0 SHL DUP3 AND DUP1 SWAP3 SUB PUSH2 0x3C8 JUMPI PUSH1 0x20 SWAP2 PUSH4 0x7965DB0B PUSH1 0xE0 SHL DUP2 EQ SWAP1 DUP2 ISZERO PUSH2 0x212E JUMPI JUMPDEST POP ISZERO ISZERO DUP2 MSTORE RETURN JUMPDEST PUSH4 0x1FFC9A7 PUSH1 0xE0 SHL EQ SWAP1 POP DUP4 PUSH2 0x2127 JUMP JUMPDEST PUSH1 0x4 CALLDATALOAD SWAP1 PUSH1 0x1 PUSH1 0x1 PUSH1 0xA0 SHL SUB DUP3 AND DUP3 SUB PUSH2 0x3C8 JUMPI JUMP JUMPDEST PUSH1 0x24 CALLDATALOAD SWAP1 PUSH1 0x1 PUSH1 0x1 PUSH1 0xA0 SHL SUB DUP3 AND DUP3 SUB PUSH2 0x3C8 JUMPI JUMP JUMPDEST DUP1 SLOAD DUP3 LT ISZERO PUSH2 0x2187 JUMPI PUSH1 0x0 MSTORE PUSH1 0xA PUSH1 0x20 PUSH1 0x0 KECCAK256 SWAP2 MUL ADD SWAP1 PUSH1 0x0 SWAP1 JUMP JUMPDEST PUSH4 0x4E487B71 PUSH1 0xE0 SHL PUSH1 0x0 MSTORE PUSH1 0x32 PUSH1 0x4 MSTORE PUSH1 0x24 PUSH1 0x0 REVERT JUMPDEST SWAP1 PUSH1 0x1 DUP3 DUP2 SHR SWAP3 AND DUP1 ISZERO PUSH2 0x21CD JUMPI JUMPDEST PUSH1 0x20 DUP4 LT EQ PUSH2 0x21B7 JUMPI JUMP JUMPDEST PUSH4 0x4E487B71 PUSH1 0xE0 SHL PUSH1 0x0 MSTORE PUSH1 0x22 PUSH1 0x4 MSTORE PUSH1 0x24 PUSH1 0x0 REVERT JUMPDEST SWAP2 PUSH1 0x7F AND SWAP2 PUSH2 0x21AC JUMP JUMPDEST PUSH1 0x80 DUP2 ADD SWAP1 DUP2 LT PUSH1 0x1 PUSH1 0x1 PUSH1 0x40 SHL SUB DUP3 GT OR PUSH2 0x384 JUMPI PUSH1 0x40 MSTORE JUMP JUMPDEST PUSH2 0x140 DUP2 ADD SWAP1 DUP2 LT PUSH1 0x1 PUSH1 0x1 PUSH1 0x40 SHL SUB DUP3 GT OR PUSH2 0x384 JUMPI PUSH1 0x40 MSTORE JUMP JUMPDEST SWAP1 PUSH1 0x1F DUP1 NOT SWAP2 ADD AND DUP2 ADD SWAP1 DUP2 LT PUSH1 0x1 PUSH1 0x1 PUSH1 0x40 SHL SUB DUP3 GT OR PUSH2 0x384 JUMPI PUSH1 0x40 MSTORE JUMP JUMPDEST SWAP1 PUSH1 0x40 MLOAD SWAP2 DUP3 PUSH1 0x0 DUP3 SLOAD SWAP3 PUSH2 0x2243 DUP5 PUSH2 0x219D JUMP JUMPDEST SWAP1 DUP2 DUP5 MSTORE PUSH1 0x1 SWAP5 DUP6 DUP2 AND SWAP1 DUP2 PUSH1 0x0 EQ PUSH2 0x22B2 JUMPI POP PUSH1 0x1 EQ PUSH2 0x226F JUMPI JUMPDEST POP POP PUSH2 0x226D SWAP3 POP SUB DUP4 PUSH2 0x220E JUMP JUMPDEST JUMP JUMPDEST SWAP1 SWAP4 SWAP2 POP PUSH1 0x0 MSTORE PUSH1 0x20 SWAP1 DUP2 PUSH1 0x0 KECCAK256 SWAP4 PUSH1 0x0 SWAP2 JUMPDEST DUP2 DUP4 LT PUSH2 0x229A JUMPI POP POP PUSH2 0x226D SWAP4 POP DUP3 ADD ADD CODESIZE DUP1 PUSH2 0x225F JUMP JUMPDEST DUP6 SLOAD DUP9 DUP5 ADD DUP6 ADD MSTORE SWAP5 DUP6 ADD SWAP5 DUP8 SWAP5 POP SWAP2 DUP4 ADD SWAP2 PUSH2 0x2282 JUMP JUMPDEST SWAP2 POP POP PUSH2 0x226D SWAP5 POP PUSH1 0x20 SWAP3 POP PUSH1 0xFF NOT AND DUP3 DUP5 ADD MSTORE ISZERO ISZERO PUSH1 0x5 SHL DUP3 ADD ADD CODESIZE DUP1 PUSH2 0x225F JUMP JUMPDEST PUSH1 0x0 JUMPDEST DUP4 DUP2 LT PUSH2 0x22E8 JUMPI POP POP PUSH1 0x0 SWAP2 ADD MSTORE JUMP JUMPDEST DUP2 DUP2 ADD MLOAD DUP4 DUP3 ADD MSTORE PUSH1 0x20 ADD PUSH2 0x22D8 JUMP JUMPDEST SWAP1 PUSH1 0x20 SWAP2 PUSH2 0x2311 DUP2 MLOAD DUP1 SWAP3 DUP2 DUP6 MSTORE DUP6 DUP1 DUP7 ADD SWAP2 ADD PUSH2 0x22D5 JUMP JUMPDEST PUSH1 0x1F ADD PUSH1 0x1F NOT AND ADD ADD SWAP1 JUMP JUMPDEST SWAP1 PUSH2 0x239C SWAP2 DUP1 MLOAD DUP3 MSTORE PUSH1 0x20 DUP2 ADD MLOAD PUSH1 0x20 DUP4 ADD MSTORE PUSH1 0x1 DUP1 PUSH1 0xA0 SHL SUB DUP1 PUSH1 0x40 DUP4 ADD MLOAD AND PUSH1 0x40 DUP5 ADD MSTORE DUP1 PUSH1 0x60 DUP4 ADD MLOAD AND PUSH1 0x60 DUP5 ADD MSTORE PUSH1 0x80 DUP3 ADD MLOAD AND PUSH1 0x80 DUP4 ADD MSTORE PUSH1 0xA0 DUP2 ADD MLOAD PUSH1 0xA0 DUP4 ADD MSTORE PUSH1 0xC0 DUP2 ADD MLOAD PUSH1 0xC0 DUP4 ADD MSTORE PUSH1 0xE0 DUP2 ADD MLOAD ISZERO ISZERO PUSH1 0xE0 DUP4 ADD MSTORE PUSH2 0x100 DUP1 DUP3 ADD MLOAD SWAP1 DUP4 ADD MSTORE PUSH2 0x120 DUP1 SWAP2 ADD MLOAD SWAP2 PUSH2 0x140 DUP1 SWAP3 DUP3 ADD MSTORE ADD SWAP1 PUSH2 0x22F8 JUMP JUMPDEST SWAP1 JUMP JUMPDEST SWAP2 DUP2 PUSH1 0x1F DUP5 ADD SLT ISZERO PUSH2 0x3C8 JUMPI DUP3 CALLDATALOAD SWAP2 PUSH1 0x1 PUSH1 0x1 PUSH1 0x40 SHL SUB DUP4 GT PUSH2 0x3C8 JUMPI PUSH1 0x20 DUP4 DUP2 DUP7 ADD SWAP6 ADD ADD GT PUSH2 0x3C8 JUMPI JUMP JUMPDEST SWAP1 PUSH1 0x40 PUSH1 0x3 NOT DUP4 ADD SLT PUSH2 0x3C8 JUMPI PUSH1 0x4 CALLDATALOAD PUSH1 0x1 PUSH1 0x1 PUSH1 0xA0 SHL SUB DUP2 AND DUP2 SUB PUSH2 0x3C8 JUMPI SWAP2 PUSH1 0x24 CALLDATALOAD SWAP1 PUSH1 0x1 PUSH1 0x1 PUSH1 0x40 SHL SUB DUP3 GT PUSH2 0x3C8 JUMPI PUSH2 0x240B SWAP2 PUSH1 0x4 ADD PUSH2 0x239F JUMP JUMPDEST SWAP1 SWAP2 JUMP JUMPDEST PUSH1 0xB SLOAD DUP2 LT ISZERO PUSH2 0x2187 JUMPI PUSH1 0xB PUSH1 0x0 MSTORE PUSH32 0x175B7A638427703F0DBE7BB9BBF987A2551717B34E79F33B5B1008D1FA01DB9 ADD SWAP1 PUSH1 0x0 SWAP1 JUMP JUMPDEST CALLER PUSH1 0x0 SWAP1 DUP2 MSTORE PUSH32 0xE5EBFA64FCA8D502A8E50C1EDFFD2C31EF4DAD5B396E65D9F397FB028F74ABC5 PUSH1 0x20 SWAP1 DUP2 MSTORE PUSH1 0x40 DUP1 DUP4 KECCAK256 SLOAD SWAP1 SWAP3 PUSH32 0xA49807205CE4D355092EF5A8A18F56E8913CF4A201FBE287825B095693C21775 SWAP2 PUSH1 0xFF AND ISZERO PUSH2 0x24AA JUMPI POP POP POP POP JUMP JUMPDEST PUSH2 0x24B3 CALLER PUSH2 0x2960 JUMP JUMPDEST SWAP2 DUP5 MLOAD SWAP1 PUSH2 0x24C0 DUP3 PUSH2 0x21D7 JUMP JUMPDEST PUSH1 0x42 DUP3 MSTORE DUP5 DUP3 ADD SWAP3 PUSH1 0x60 CALLDATASIZE DUP6 CALLDATACOPY DUP3 MLOAD ISZERO PUSH2 0x264D JUMPI PUSH1 0x30 DUP5 MSTORE8 DUP3 MLOAD SWAP1 PUSH1 0x1 SWAP2 DUP3 LT ISZERO PUSH2 0x264D JUMPI SWAP1 PUSH1 0x78 PUSH1 0x21 DUP6 ADD MSTORE8 PUSH1 0x41 SWAP2 JUMPDEST DUP2 DUP4 GT PUSH2 0x25DF JUMPI POP POP POP PUSH2 0x259D JUMPI PUSH1 0x48 PUSH2 0x2599 SWAP4 DUP7 SWAP4 PUSH2 0x257D SWAP4 PUSH2 0x256E SWAP9 MLOAD SWAP9 DUP10 SWAP4 PUSH23 0x20B1B1B2B9B9A1B7B73A3937B61D1030B1B1B7BAB73A1 PUSH1 0x4D SHL DUP11 DUP7 ADD MSTORE PUSH2 0x2545 DUP2 MLOAD DUP1 SWAP3 DUP13 PUSH1 0x37 DUP10 ADD SWAP2 ADD PUSH2 0x22D5 JUMP JUMPDEST DUP5 ADD SWAP2 PUSH17 0x1034B99036B4B9B9B4B733903937B6329 PUSH1 0x7D SHL PUSH1 0x37 DUP5 ADD MSTORE MLOAD DUP1 SWAP4 DUP7 DUP5 ADD SWAP1 PUSH2 0x22D5 JUMP JUMPDEST ADD SUB PUSH1 0x28 DUP2 ADD DUP8 MSTORE ADD DUP6 PUSH2 0x220E JUMP JUMPDEST MLOAD SWAP3 DUP4 SWAP3 PUSH3 0x461BCD PUSH1 0xE5 SHL DUP5 MSTORE PUSH1 0x4 DUP5 ADD MSTORE PUSH1 0x24 DUP4 ADD SWAP1 PUSH2 0x22F8 JUMP JUMPDEST SUB SWAP1 REVERT JUMPDEST PUSH1 0x64 DUP5 DUP7 MLOAD SWAP1 PUSH3 0x461BCD PUSH1 0xE5 SHL DUP3 MSTORE DUP1 PUSH1 0x4 DUP4 ADD MSTORE PUSH1 0x24 DUP3 ADD MSTORE PUSH32 0x537472696E67733A20686578206C656E67746820696E73756666696369656E74 PUSH1 0x44 DUP3 ADD MSTORE REVERT JUMPDEST SWAP1 SWAP2 SWAP3 PUSH1 0xF DUP2 AND PUSH1 0x10 DUP2 LT ISZERO PUSH2 0x2639 JUMPI PUSH16 0x181899199A1A9B1B9C1CB0B131B232B3 PUSH1 0x81 SHL SWAP1 BYTE PUSH2 0x260F DUP6 DUP8 PUSH2 0x294F JUMP JUMPDEST MSTORE8 PUSH1 0x4 SHR SWAP3 DUP1 ISZERO PUSH2 0x2625 JUMPI PUSH1 0x0 NOT ADD SWAP2 SWAP1 PUSH2 0x24F1 JUMP JUMPDEST PUSH4 0x4E487B71 PUSH1 0xE0 SHL DUP3 MSTORE PUSH1 0x11 PUSH1 0x4 MSTORE PUSH1 0x24 DUP3 REVERT JUMPDEST PUSH4 0x4E487B71 PUSH1 0xE0 SHL DUP4 MSTORE PUSH1 0x32 PUSH1 0x4 MSTORE PUSH1 0x24 DUP4 REVERT JUMPDEST PUSH4 0x4E487B71 PUSH1 0xE0 SHL DUP2 MSTORE PUSH1 0x32 PUSH1 0x4 MSTORE PUSH1 0x24 SWAP1 REVERT JUMPDEST CALLER PUSH1 0x0 SWAP1 DUP2 MSTORE PUSH32 0x5A10DB7EB5FB087477F68987FF09C6EBB13410247D1A97126552F0C97385B266 PUSH1 0x20 SWAP1 DUP2 MSTORE PUSH1 0x40 DUP1 DUP4 KECCAK256 SLOAD SWAP1 SWAP3 PUSH32 0x4170D100A3A3728AE51207936EE755ECAA64A7F6E9383C642AB204A136F90B1B SWAP2 PUSH1 0xFF AND ISZERO PUSH2 0x26C5 JUMPI POP POP POP POP JUMP JUMPDEST PUSH2 0x26CE CALLER PUSH2 0x2960 JUMP JUMPDEST SWAP2 DUP5 MLOAD SWAP1 PUSH2 0x26DB DUP3 PUSH2 0x21D7 JUMP JUMPDEST PUSH1 0x42 DUP3 MSTORE DUP5 DUP3 ADD SWAP3 PUSH1 0x60 CALLDATASIZE DUP6 CALLDATACOPY DUP3 MLOAD ISZERO PUSH2 0x264D JUMPI PUSH1 0x30 DUP5 MSTORE8 DUP3 MLOAD SWAP1 PUSH1 0x1 SWAP2 DUP3 LT ISZERO PUSH2 0x264D JUMPI SWAP1 PUSH1 0x78 PUSH1 0x21 DUP6 ADD MSTORE8 PUSH1 0x41 SWAP2 JUMPDEST DUP2 DUP4 GT PUSH2 0x2760 JUMPI POP POP POP PUSH2 0x259D JUMPI PUSH1 0x48 PUSH2 0x2599 SWAP4 DUP7 SWAP4 PUSH2 0x257D SWAP4 PUSH2 0x256E SWAP9 MLOAD SWAP9 DUP10 SWAP4 PUSH23 0x20B1B1B2B9B9A1B7B73A3937B61D1030B1B1B7BAB73A1 PUSH1 0x4D SHL DUP11 DUP7 ADD MSTORE PUSH2 0x2545 DUP2 MLOAD DUP1 SWAP3 DUP13 PUSH1 0x37 DUP10 ADD SWAP2 ADD PUSH2 0x22D5 JUMP JUMPDEST SWAP1 SWAP2 SWAP3 PUSH1 0xF DUP2 AND PUSH1 0x10 DUP2 LT ISZERO PUSH2 0x2639 JUMPI PUSH16 0x181899199A1A9B1B9C1CB0B131B232B3 PUSH1 0x81 SHL SWAP1 BYTE PUSH2 0x2790 DUP6 DUP8 PUSH2 0x294F JUMP JUMPDEST MSTORE8 PUSH1 0x4 SHR SWAP3 DUP1 ISZERO PUSH2 0x2625 JUMPI PUSH1 0x0 NOT ADD SWAP2 SWAP1 PUSH2 0x270C JUMP JUMPDEST PUSH1 0x0 SWAP1 DUP1 DUP3 MSTORE PUSH1 0x20 SWAP1 PUSH1 0x2 DUP3 MSTORE PUSH1 0x40 SWAP3 DUP4 DUP2 KECCAK256 CALLER DUP3 MSTORE DUP4 MSTORE PUSH1 0xFF DUP5 DUP3 KECCAK256 SLOAD AND ISZERO PUSH2 0x27D0 JUMPI POP POP POP POP JUMP JUMPDEST PUSH2 0x27D9 CALLER PUSH2 0x2960 JUMP JUMPDEST SWAP2 DUP5 MLOAD SWAP1 PUSH2 0x27E6 DUP3 PUSH2 0x21D7 JUMP JUMPDEST PUSH1 0x42 DUP3 MSTORE DUP5 DUP3 ADD SWAP3 PUSH1 0x60 CALLDATASIZE DUP6 CALLDATACOPY DUP3 MLOAD ISZERO PUSH2 0x264D JUMPI PUSH1 0x30 DUP5 MSTORE8 DUP3 MLOAD SWAP1 PUSH1 0x1 SWAP2 DUP3 LT ISZERO PUSH2 0x264D JUMPI SWAP1 PUSH1 0x78 PUSH1 0x21 DUP6 ADD MSTORE8 PUSH1 0x41 SWAP2 JUMPDEST DUP2 DUP4 GT PUSH2 0x286B JUMPI POP POP POP PUSH2 0x259D JUMPI PUSH1 0x48 PUSH2 0x2599 SWAP4 DUP7 SWAP4 PUSH2 0x257D SWAP4 PUSH2 0x256E SWAP9 MLOAD SWAP9 DUP10 SWAP4 PUSH23 0x20B1B1B2B9B9A1B7B73A3937B61D1030B1B1B7BAB73A1 PUSH1 0x4D SHL DUP11 DUP7 ADD MSTORE PUSH2 0x2545 DUP2 MLOAD DUP1 SWAP3 DUP13 PUSH1 0x37 DUP10 ADD SWAP2 ADD PUSH2 0x22D5 JUMP JUMPDEST SWAP1 SWAP2 SWAP3 PUSH1 0xF DUP2 AND PUSH1 0x10 DUP2 LT ISZERO PUSH2 0x2639 JUMPI PUSH16 0x181899199A1A9B1B9C1CB0B131B232B3 PUSH1 0x81 SHL SWAP1 BYTE PUSH2 0x289B DUP6 DUP8 PUSH2 0x294F JUMP JUMPDEST MSTORE8 PUSH1 0x4 SHR SWAP3 DUP1 ISZERO PUSH2 0x2625 JUMPI PUSH1 0x0 NOT ADD SWAP2 SWAP1 PUSH2 0x2817 JUMP JUMPDEST SWAP1 PUSH1 0x0 SWAP2 DUP1 DUP4 MSTORE PUSH1 0x2 PUSH1 0x20 MSTORE PUSH1 0x40 DUP4 KECCAK256 SWAP2 PUSH1 0x1 DUP1 PUSH1 0xA0 SHL SUB AND SWAP2 DUP3 DUP5 MSTORE PUSH1 0x20 MSTORE PUSH1 0xFF PUSH1 0x40 DUP5 KECCAK256 SLOAD AND PUSH2 0x28E2 JUMPI POP POP POP JUMP JUMPDEST DUP1 DUP4 MSTORE PUSH1 0x2 PUSH1 0x20 MSTORE PUSH1 0x40 DUP4 KECCAK256 DUP3 DUP5 MSTORE PUSH1 0x20 MSTORE PUSH1 0x40 DUP4 KECCAK256 PUSH1 0xFF NOT DUP2 SLOAD AND SWAP1 SSTORE PUSH32 0xF6391F5C32D9C69D2A47EA670B442974B53935D1EDC7FD64EB21E047A839171B CALLER SWAP4 DUP1 LOG4 JUMP JUMPDEST SWAP2 SWAP1 DUP3 ADD DUP1 SWAP3 GT PUSH2 0xC31 JUMPI JUMP JUMPDEST PUSH1 0x1 PUSH1 0x1 PUSH1 0x40 SHL SUB DUP2 GT PUSH2 0x384 JUMPI PUSH1 0x1F ADD PUSH1 0x1F NOT AND PUSH1 0x20 ADD SWAP1 JUMP JUMPDEST SWAP1 DUP2 MLOAD DUP2 LT ISZERO PUSH2 0x2187 JUMPI ADD PUSH1 0x20 ADD SWAP1 JUMP JUMPDEST PUSH1 0x40 MLOAD SWAP1 PUSH1 0x60 DUP3 ADD DUP3 DUP2 LT PUSH1 0x1 PUSH1 0x1 PUSH1 0x40 SHL SUB DUP3 GT OR PUSH2 0x384 JUMPI PUSH1 0x40 MSTORE PUSH1 0x2A DUP3 MSTORE PUSH1 0x20 DUP3 ADD PUSH1 0x40 CALLDATASIZE DUP3 CALLDATACOPY DUP3 MLOAD ISZERO PUSH2 0x2187 JUMPI PUSH1 0x30 SWAP1 MSTORE8 DUP2 MLOAD PUSH1 0x1 SWAP1 DUP2 LT ISZERO PUSH2 0x2187 JUMPI PUSH1 0x78 PUSH1 0x21 DUP5 ADD MSTORE8 PUSH1 0x29 SWAP1 JUMPDEST DUP1 DUP3 GT PUSH2 0x2A00 JUMPI POP POP PUSH2 0x29BC JUMPI SWAP1 JUMP JUMPDEST PUSH1 0x64 PUSH1 0x40 MLOAD PUSH3 0x461BCD PUSH1 0xE5 SHL DUP2 MSTORE PUSH1 0x20 PUSH1 0x4 DUP3 ADD MSTORE PUSH1 0x20 PUSH1 0x24 DUP3 ADD MSTORE PUSH32 0x537472696E67733A20686578206C656E67746820696E73756666696369656E74 PUSH1 0x44 DUP3 ADD MSTORE REVERT JUMPDEST SWAP1 SWAP2 PUSH1 0xF DUP2 AND PUSH1 0x10 DUP2 LT ISZERO PUSH2 0x2A59 JUMPI PUSH16 0x181899199A1A9B1B9C1CB0B131B232B3 PUSH1 0x81 SHL SWAP1 BYTE PUSH2 0x2A2F DUP5 DUP7 PUSH2 0x294F JUMP JUMPDEST MSTORE8 PUSH1 0x4 SHR SWAP2 DUP1 ISZERO PUSH2 0x2A44 JUMPI PUSH1 0x0 NOT ADD SWAP1 PUSH2 0x29AC JUMP JUMPDEST PUSH1 0x24 PUSH1 0x0 PUSH4 0x4E487B71 PUSH1 0xE0 SHL DUP2 MSTORE PUSH1 0x11 PUSH1 0x4 MSTORE REVERT JUMPDEST PUSH1 0x24 PUSH1 0x0 PUSH4 0x4E487B71 PUSH1 0xE0 SHL DUP2 MSTORE PUSH1 0x32 PUSH1 0x4 MSTORE REVERT JUMPDEST PUSH1 0x0 NOT DUP2 EQ PUSH2 0xC31 JUMPI PUSH1 0x1 ADD SWAP1 JUMP JUMPDEST PUSH1 0xFF PUSH1 0x1 SLOAD AND PUSH2 0x2A89 JUMPI JUMP JUMPDEST PUSH1 0x40 MLOAD PUSH3 0x461BCD PUSH1 0xE5 SHL DUP2 MSTORE PUSH1 0x20 PUSH1 0x4 DUP3 ADD MSTORE PUSH1 0x10 PUSH1 0x24 DUP3 ADD MSTORE PUSH16 0x14185D5CD8589B194E881C185D5CD959 PUSH1 0x82 SHL PUSH1 0x44 DUP3 ADD MSTORE PUSH1 0x64 SWAP1 REVERT JUMPDEST PUSH1 0x2 PUSH1 0x0 SLOAD EQ PUSH2 0x2AD2 JUMPI PUSH1 0x2 PUSH1 0x0 SSTORE JUMP JUMPDEST PUSH1 0x40 MLOAD PUSH3 0x461BCD PUSH1 0xE5 SHL DUP2 MSTORE PUSH1 0x20 PUSH1 0x4 DUP3 ADD MSTORE PUSH1 0x1F PUSH1 0x24 DUP3 ADD MSTORE PUSH32 0x5265656E7472616E637947756172643A207265656E7472616E742063616C6C00 PUSH1 0x44 DUP3 ADD MSTORE PUSH1 0x64 SWAP1 REVERT JUMPDEST PUSH1 0x1 DUP1 PUSH1 0xA0 SHL SUB AND SWAP1 PUSH1 0x40 MLOAD PUSH1 0x40 DUP2 ADD SWAP1 DUP1 DUP3 LT PUSH1 0x1 PUSH1 0x1 PUSH1 0x40 SHL SUB DUP4 GT OR PUSH2 0x384 JUMPI PUSH2 0x2BA6 SWAP2 PUSH1 0x40 MSTORE PUSH1 0x20 SWAP4 DUP5 DUP3 MSTORE PUSH32 0x5361666545524332303A206C6F772D6C6576656C2063616C6C206661696C6564 DUP6 DUP4 ADD MSTORE PUSH1 0x0 DUP1 DUP6 DUP8 DUP3 SWAP8 MLOAD SWAP2 ADD DUP3 DUP6 GAS CALL RETURNDATASIZE ISZERO PUSH2 0x2C43 JUMPI RETURNDATASIZE SWAP2 PUSH2 0x2B8B DUP4 PUSH2 0x2934 JUMP JUMPDEST SWAP3 PUSH2 0x2B99 PUSH1 0x40 MLOAD SWAP5 DUP6 PUSH2 0x220E JUMP JUMPDEST DUP4 MSTORE RETURNDATASIZE DUP7 DUP9 DUP6 ADD RETURNDATACOPY PUSH2 0x2C47 JUMP JUMPDEST DUP1 MLOAD SWAP2 DUP3 ISZERO SWAP2 DUP5 DUP4 ISZERO PUSH2 0x2C18 JUMPI JUMPDEST POP POP POP SWAP1 POP ISZERO PUSH2 0x2BC1 JUMPI POP JUMP JUMPDEST PUSH1 0x84 SWAP1 PUSH1 0x40 MLOAD SWAP1 PUSH3 0x461BCD PUSH1 0xE5 SHL DUP3 MSTORE PUSH1 0x4 DUP3 ADD MSTORE PUSH1 0x2A PUSH1 0x24 DUP3 ADD MSTORE PUSH32 0x5361666545524332303A204552433230206F7065726174696F6E20646964206E PUSH1 0x44 DUP3 ADD MSTORE PUSH10 0x1BDD081CDD58D8D95959 PUSH1 0xB2 SHL PUSH1 0x64 DUP3 ADD MSTORE REVERT JUMPDEST SWAP2 SWAP4 DUP2 DUP1 SWAP5 POP ADD SUB SLT PUSH2 0x2C3F JUMPI DUP3 ADD MLOAD SWAP1 DUP2 ISZERO ISZERO DUP3 SUB PUSH2 0x2C3C JUMPI POP DUP1 CODESIZE DUP1 DUP5 PUSH2 0x2BB4 JUMP JUMPDEST DUP1 REVERT JUMPDEST POP DUP1 REVERT JUMPDEST PUSH1 0x60 SWAP2 JUMPDEST SWAP2 SWAP3 SWAP1 ISZERO PUSH2 0x2CA9 JUMPI POP DUP2 MLOAD ISZERO PUSH2 0x2C5B JUMPI POP SWAP1 JUMP JUMPDEST EXTCODESIZE ISZERO PUSH2 0x2C64 JUMPI SWAP1 JUMP JUMPDEST PUSH1 0x40 MLOAD PUSH3 0x461BCD PUSH1 0xE5 SHL DUP2 MSTORE PUSH1 0x20 PUSH1 0x4 DUP3 ADD MSTORE PUSH1 0x1D PUSH1 0x24 DUP3 ADD MSTORE PUSH32 0x416464726573733A2063616C6C20746F206E6F6E2D636F6E7472616374000000 PUSH1 0x44 DUP3 ADD MSTORE PUSH1 0x64 SWAP1 REVERT JUMPDEST DUP3 MLOAD SWAP1 SWAP2 POP ISZERO PUSH2 0x2CBC JUMPI POP DUP1 MLOAD SWAP1 PUSH1 0x20 ADD REVERT JUMPDEST PUSH1 0x40 MLOAD PUSH3 0x461BCD PUSH1 0xE5 SHL DUP2 MSTORE PUSH1 0x20 PUSH1 0x4 DUP3 ADD MSTORE SWAP1 DUP2 SWAP1 PUSH2 0x2599 SWAP1 PUSH1 0x24 DUP4 ADD SWAP1 PUSH2 0x22F8 JUMP JUMPDEST SWAP2 SWAP1 DUP3 SUB SWAP2 DUP3 GT PUSH2 0xC31 JUMPI JUMP JUMPDEST PUSH1 0x40 MLOAD PUSH4 0xA9059CBB PUSH1 0xE0 SHL PUSH1 0x20 DUP3 ADD MSTORE PUSH1 0x1 PUSH1 0x1 PUSH1 0xA0 SHL SUB SWAP3 SWAP1 SWAP3 AND PUSH1 0x24 DUP4 ADD MSTORE PUSH1 0x44 DUP1 DUP4 ADD SWAP4 SWAP1 SWAP4 MSTORE SWAP2 DUP2 MSTORE PUSH2 0x226D SWAP2 PUSH2 0x2D29 PUSH1 0x64 DUP4 PUSH2 0x220E JUMP JUMPDEST PUSH2 0x2B17 JUMP JUMPDEST SWAP1 PUSH1 0x40 MLOAD PUSH2 0x2D3B DUP2 PUSH2 0x21F2 JUMP JUMPDEST PUSH2 0x120 PUSH2 0x2DB1 PUSH1 0x9 DUP4 SWAP6 DUP1 SLOAD DUP6 MSTORE PUSH1 0x1 DUP2 ADD SLOAD PUSH1 0x20 DUP7 ADD MSTORE PUSH1 0x1 DUP1 PUSH1 0xA0 SHL SUB DUP1 PUSH1 0x2 DUP4 ADD SLOAD AND PUSH1 0x40 DUP8 ADD MSTORE DUP1 PUSH1 0x3 DUP4 ADD SLOAD AND PUSH1 0x60 DUP8 ADD MSTORE PUSH1 0x4 DUP3 ADD SLOAD AND PUSH1 0x80 DUP7 ADD MSTORE PUSH1 0x5 DUP2 ADD SLOAD PUSH1 0xA0 DUP7 ADD MSTORE PUSH1 0x6 DUP2 ADD SLOAD PUSH1 0xC0 DUP7 ADD MSTORE PUSH1 0xFF PUSH1 0x7 DUP3 ADD SLOAD AND ISZERO ISZERO PUSH1 0xE0 DUP7 ADD MSTORE PUSH1 0x8 DUP2 ADD SLOAD PUSH2 0x100 DUP7 ADD MSTORE ADD PUSH2 0x222F JUMP JUMPDEST SWAP2 ADD MSTORE JUMP JUMPDEST PUSH1 0x1 PUSH1 0x1 PUSH1 0xA0 SHL SUB SWAP1 DUP2 AND PUSH1 0x0 SWAP1 DUP2 MSTORE PUSH1 0x4 PUSH1 0x20 SWAP1 DUP2 MSTORE PUSH1 0x40 DUP3 KECCAK256 SLOAD SWAP2 SWAP5 SWAP4 SWAP1 SWAP2 DUP2 LT ISZERO PUSH2 0x2EE9 JUMPI PUSH2 0x17D4 PUSH2 0x2DF2 SWAP2 PUSH1 0x3 DUP5 MSTORE PUSH1 0x40 DUP8 KECCAK256 PUSH2 0x216B JUMP JUMPDEST SWAP2 PUSH1 0xE0 DUP4 ADD MLOAD PUSH2 0x2EDF JUMPI SWAP1 PUSH1 0x24 SWAP2 PUSH1 0x80 DUP5 ADD DUP3 DUP3 DUP3 MLOAD AND PUSH1 0x40 MLOAD SWAP6 DUP7 DUP1 SWAP3 PUSH4 0x37BE4CE9 PUSH1 0xE1 SHL DUP3 MSTORE ADDRESS PUSH1 0x4 DUP4 ADD MSTORE GAS STATICCALL DUP8 SWAP5 DUP2 PUSH2 0x2EAC JUMPI JUMPDEST POP PUSH2 0x2E3B JUMPI POP POP POP POP PUSH1 0xA0 ADD MLOAD SWAP2 POP JUMP JUMPDEST MLOAD AND DUP6 MSTORE PUSH1 0x12 SWAP1 MSTORE PUSH1 0x40 DUP5 KECCAK256 SLOAD SWAP1 DUP2 ISZERO DUP1 PUSH2 0x2EA1 JUMPI PUSH1 0xA0 DUP5 ADD MLOAD SWAP4 MLOAD SWAP2 DUP3 DUP2 MUL SWAP3 DUP2 DUP5 DIV EQ SWAP1 ISZERO OR ISZERO PUSH2 0x2E8D JUMPI PUSH2 0x2E79 JUMPI PUSH2 0x239C SWAP4 SWAP5 POP DIV SWAP1 PUSH2 0x2927 JUMP JUMPDEST PUSH4 0x4E487B71 PUSH1 0xE0 SHL DUP6 MSTORE PUSH1 0x12 PUSH1 0x4 MSTORE PUSH1 0x24 DUP6 REVERT JUMPDEST PUSH4 0x4E487B71 PUSH1 0xE0 SHL DUP7 MSTORE PUSH1 0x11 PUSH1 0x4 MSTORE PUSH1 0x24 DUP7 REVERT JUMPDEST POP POP POP PUSH1 0xA0 ADD MLOAD SWAP2 POP JUMP JUMPDEST SWAP1 SWAP5 POP DUP4 DUP2 DUP2 RETURNDATASIZE DUP4 GT PUSH2 0x2ED8 JUMPI JUMPDEST PUSH2 0x2EC4 DUP2 DUP4 PUSH2 0x220E JUMP JUMPDEST DUP2 ADD SUB SLT PUSH2 0x2ED4 JUMPI MLOAD SWAP4 CODESIZE PUSH2 0x2E2A JUMP JUMPDEST DUP8 DUP1 REVERT JUMPDEST POP RETURNDATASIZE PUSH2 0x2EBA JUMP JUMPDEST POP POP PUSH1 0xA0 ADD MLOAD SWAP2 POP JUMP JUMPDEST POP POP POP JUMP JUMPDEST SWAP1 DUP1 PUSH1 0x20 SWAP4 SWAP3 DUP2 DUP5 MSTORE DUP5 DUP5 ADD CALLDATACOPY PUSH1 0x0 DUP3 DUP3 ADD DUP5 ADD MSTORE PUSH1 0x1F ADD PUSH1 0x1F NOT AND ADD ADD SWAP1 JUMP JUMPDEST SWAP2 SWAP3 SWAP2 PUSH1 0x1 PUSH1 0x1 PUSH1 0xA0 SHL SUB AND SWAP1 DUP2 ISZERO PUSH2 0x3AC JUMPI PUSH1 0x0 SWAP4 DUP3 DUP6 MSTORE PUSH1 0xC PUSH1 0x20 MSTORE PUSH1 0x40 DUP6 KECCAK256 DUP1 SLOAD PUSH1 0xFF DUP2 AND PUSH2 0x3001 JUMPI PUSH1 0xFF NOT AND PUSH1 0x1 OR SWAP1 SSTORE PUSH1 0xD SLOAD PUSH1 0x1 PUSH1 0x40 SHL DUP2 LT ISZERO PUSH2 0x2FED JUMPI PUSH1 0x1 DUP2 ADD DUP1 PUSH1 0xD SSTORE DUP2 LT ISZERO PUSH2 0x2FD9 JUMPI PUSH1 0xD PUSH32 0x7AFEE0F1B802CC0F66C67890E26B4566251859CF2CD8DE79B86AED7251D9756A SWAP5 SWAP6 SWAP7 MSTORE PUSH32 0xD7B6990105719101DABEB77144F2A3385C8033ACD3AF97E9423A695E81AD1EB5 ADD DUP5 PUSH1 0x1 PUSH1 0x1 PUSH1 0x60 SHL SUB PUSH1 0xA0 SHL DUP3 SLOAD AND OR SWAP1 SSTORE PUSH2 0x2FD4 PUSH1 0x40 MLOAD SWAP3 DUP4 SWAP3 PUSH1 0x20 DUP5 MSTORE PUSH1 0x20 DUP5 ADD SWAP2 PUSH2 0x2EEE JUMP JUMPDEST SUB SWAP1 LOG2 JUMP JUMPDEST PUSH4 0x4E487B71 PUSH1 0xE0 SHL DUP7 MSTORE PUSH1 0x32 PUSH1 0x4 MSTORE PUSH1 0x24 DUP7 REVERT JUMPDEST PUSH4 0x4E487B71 PUSH1 0xE0 SHL DUP7 MSTORE PUSH1 0x41 PUSH1 0x4 MSTORE PUSH1 0x24 DUP7 REVERT JUMPDEST POP POP POP POP POP SWAP1 POP JUMP INVALID LOG2 PUSH5 0x6970667358 0x22 SLT KECCAK256 0x24 SWAP1 DUP16 DUP16 0x4C DUP3 0xEE PC EXTCODESIZE 0x25 ADDMOD DUP8 0xB1 0x5E 0xBB ISZERO DUP12 POP SIGNEXTEND 0x26 0x22 CALLDATACOPY 0xB8 PUSH23 0xE736E5F791AA91EA64736F6C634300081400332F878811 PUSH31 0x7EFF1D82E926EC794901D17C78024A50270940304540A733656F0D00000000 "},"gasEstimates":{"creation":{"codeDepositCost":"2470400","executionCost":"infinite","totalCost":"infinite"},"external":{"ADMIN_ROLE()":"749","BASIS_POINTS()":"1167","DEFAULT_ADMIN_ROLE()":"947","MAX_DAILY_VOLUME()":"397","MAX_DEPOSIT_PER_TX()":"463","MERCHANT_ROLE()":"1057","MERCHANT_YIELD_PERCENTAGE()":"1277","MIN_DEPOSIT_AMOUNT()":"265","OPERATOR_ROLE()":"1255","PROTOCOL_YIELD_PERCENTAGE()":"1145","SECONDS_PER_DAY()":"727","STRATEGY_MANAGER_ROLE()":"1013","USER_YIELD_PERCENTAGE()":"221","activeStrategies(address)":"2597","addStrategy(address,address,string)":"infinite","addSupportedToken(address,string)":"infinite","calculateYield(address,uint256)":"infinite","createDeposit(uint256,address,address,address,bytes32,string)":"infinite","dailyVolume(uint256)":"3028","emergencyPause()":"infinite","emergencyWithdraw(uint256,string)":"infinite","feeRecipient()":"2612","getRoleAdmin(bytes32)":"2462","getStrategyMetrics(address)":"infinite","getTotalValueLocked()":"infinite","getUserDeposit(address,uint256)":"infinite","getUserDeposits(address)":"infinite","grantRole(bytes32,address)":"infinite","hasRole(bytes32,address)":"3172","merchantBalances(address)":"3025","paused()":"2688","processedPaymentHashes(bytes32)":"3084","protocolBalance()":"2720","protocolFeeRate()":"2654","releasePayment(address,uint256)":"infinite","removeStrategy(address,string)":"infinite","renounceRole(bytes32,address)":"29008","revokeRole(bytes32,address)":"infinite","strategyList(uint256)":"7412","strategyMetrics(address)":"9717","supportedStrategies(address)":"3471","supportedTokens(address)":"2927","supportsInterface(bytes4)":"271","tokenList(uint256)":"5195","unpause()":"infinite","updateProtocolFeeRate(uint256)":"infinite","userDailyVolume(address)":"3245","userDepositCount(address)":"2959","userDeposits(address,uint256)":"infinite","userYieldBalances(address)":"3443","withdrawMerchantBalance(address,uint256)":"infinite","withdrawProtocolFees(address,uint256)":"infinite","withdrawUserYield(address)":"infinite"},"internal":{"_calculateAndUpdateYield(address,uint256)":"infinite","_checkDailyLimits(uint256)":"infinite","_checkUserLimits(address,uint256)":"infinite","_emergencyWithdrawFromStrategy(address,uint256,address)":"infinite","_updateDailyVolume(uint256)":"infinite","_updateStrategyMetrics(address,uint256,uint256)":"infinite","_updateUserDailyVolume(address,uint256)":"infinite","_withdrawFromStrategy(address,uint256,address)":"infinite"}},"methodIdentifiers":{"ADMIN_ROLE()":"75b238fc","BASIS_POINTS()":"e1f1c4a7","DEFAULT_ADMIN_ROLE()":"a217fddf","MAX_DAILY_VOLUME()":"392fe6b2","MAX_DEPOSIT_PER_TX()":"41f1c0d9","MERCHANT_ROLE()":"b3d35839","MERCHANT_YIELD_PERCENTAGE()":"f6727092","MIN_DEPOSIT_AMOUNT()":"1ea30fef","OPERATOR_ROLE()":"f5b541a6","PROTOCOL_YIELD_PERCENTAGE()":"dacf3df9","SECONDS_PER_DAY()":"74f0314f","STRATEGY_MANAGER_ROLE()":"abcbe0b2","USER_YIELD_PERCENTAGE()":"14ae9d7d","activeStrategies(address)":"2c178bd0","addStrategy(address,address,string)":"f939be11","addSupportedToken(address,string)":"720138e8","calculateYield(address,uint256)":"f54b7fb4","createDeposit(uint256,address,address,address,bytes32,string)":"877c79a8","dailyVolume(uint256)":"943ca3b9","emergencyPause()":"51858e27","emergencyWithdraw(uint256,string)":"3cbb4668","feeRecipient()":"46904840","getRoleAdmin(bytes32)":"248a9ca3","getStrategyMetrics(address)":"0bd6b070","getTotalValueLocked()":"b26025aa","getUserDeposit(address,uint256)":"60711058","getUserDeposits(address)":"2a5bf6d2","grantRole(bytes32,address)":"2f2ff15d","hasRole(bytes32,address)":"91d14854","merchantBalances(address)":"7f3f1601","paused()":"5c975abb","processedPaymentHashes(bytes32)":"99fcfb43","protocolBalance()":"61e98db8","protocolFeeRate()":"58f85880","releasePayment(address,uint256)":"966ecf3b","removeStrategy(address,string)":"8ea447e6","renounceRole(bytes32,address)":"36568abe","revokeRole(bytes32,address)":"d547741f","strategyList(uint256)":"a267526b","strategyMetrics(address)":"b6e85026","supportedStrategies(address)":"ee3be5f5","supportedTokens(address)":"68c4ac26","supportsInterface(bytes4)":"01ffc9a7","tokenList(uint256)":"9ead7222","unpause()":"3f4ba83a","updateProtocolFeeRate(uint256)":"6340d55c","userDailyVolume(address)":"ab36cb66","userDepositCount(address)":"729c3e0e","userDeposits(address,uint256)":"08f43333","userYieldBalances(address)":"e7f5165a","withdrawMerchantBalance(address,uint256)":"4c54ef84","withdrawProtocolFees(address,uint256)":"1a7a73c2","withdrawUserYield(address)":"d6fbf61c"}},"storageLayout":{"storage":[{"astId":507,"contract":"src/YieldEscrow.sol:YieldEscrow","label":"_status","offset":0,"slot":"0","type":"t_uint256"},{"astId":406,"contract":"src/YieldEscrow.sol:YieldEscrow","label":"_paused","offset":0,"slot":"1","type":"t_bool"},{"astId":24,"contract":"src/YieldEscrow.sol:YieldEscrow","label":"_roles","offset":0,"slot":"2","type":"t_mapping(t_bytes32,t_struct(RoleData)19_storage)"},{"astId":3713,"contract":"src/YieldEscrow.sol:YieldEscrow","label":"userDeposits","offset":0,"slot":"3","type":"t_mapping(t_address,t_array(t_struct(Deposit)3785_storage)dyn_storage)"},{"astId":3717,"contract":"src/YieldEscrow.sol:YieldEscrow","label":"userDepositCount","offset":0,"slot":"4","type":"t_mapping(t_address,t_uint256)"},{"astId":3721,"contract":"src/YieldEscrow.sol:YieldEscrow","label":"processedPaymentHashes","offset":0,"slot":"5","type":"t_mapping(t_bytes32,t_bool)"},{"astId":3725,"contract":"src/YieldEscrow.sol:YieldEscrow","label":"merchantBalances","offset":0,"slot":"6","type":"t_mapping(t_address,t_uint256)"},{"astId":3729,"contract":"src/YieldEscrow.sol:YieldEscrow","label":"userYieldBalances","offset":0,"slot":"7","type":"t_mapping(t_address,t_uint256)"},{"astId":3731,"contract":"src/YieldEscrow.sol:YieldEscrow","label":"protocolBalance","offset":0,"slot":"8","type":"t_uint256"},{"astId":3736,"contract":"src/YieldEscrow.sol:YieldEscrow","label":"supportedStrategies","offset":0,"slot":"9","type":"t_mapping(t_address,t_contract(IYieldStrategy)7257)"},{"astId":3740,"contract":"src/YieldEscrow.sol:YieldEscrow","label":"activeStrategies","offset":0,"slot":"10","type":"t_mapping(t_address,t_bool)"},{"astId":3743,"contract":"src/YieldEscrow.sol:YieldEscrow","label":"strategyList","offset":0,"slot":"11","type":"t_array(t_address)dyn_storage"},{"astId":3747,"contract":"src/YieldEscrow.sol:YieldEscrow","label":"supportedTokens","offset":0,"slot":"12","type":"t_mapping(t_address,t_bool)"},{"astId":3750,"contract":"src/YieldEscrow.sol:YieldEscrow","label":"tokenList","offset":0,"slot":"13","type":"t_array(t_address)dyn_storage"},{"astId":3754,"contract":"src/YieldEscrow.sol:YieldEscrow","label":"dailyVolume","offset":0,"slot":"14","type":"t_mapping(t_uint256,t_uint256)"},{"astId":3758,"contract":"src/YieldEscrow.sol:YieldEscrow","label":"userDailyVolume","offset":0,"slot":"15","type":"t_mapping(t_address,t_uint256)"},{"astId":3761,"contract":"src/YieldEscrow.sol:YieldEscrow","label":"protocolFeeRate","offset":0,"slot":"16","type":"t_uint256"},{"astId":3763,"contract":"src/YieldEscrow.sol:YieldEscrow","label":"feeRecipient","offset":0,"slot":"17","type":"t_address"},{"astId":3800,"contract":"src/YieldEscrow.sol:YieldEscrow","label":"strategyMetrics","offset":0,"slot":"18","type":"t_mapping(t_address,t_struct(StrategyMetrics)3795_storage)"}],"types":{"t_address":{"encoding":"inplace","label":"address","numberOfBytes":"20"},"t_array(t_address)dyn_storage":{"base":"t_address","encoding":"dynamic_array","label":"address[]","numberOfBytes":"32"},"t_array(t_struct(Deposit)3785_storage)dyn_storage":{"base":"t_struct(Deposit)3785_storage","encoding":"dynamic_array","label":"struct YieldEscrow.Deposit[]","numberOfBytes":"32"},"t_bool":{"encoding":"inplace","label":"bool","numberOfBytes":"1"},"t_bytes32":{"encoding":"inplace","label":"bytes32","numberOfBytes":"32"},"t_contract(IYieldStrategy)7257":{"encoding":"inplace","label":"contract IYieldStrategy","numberOfBytes":"20"},"t_mapping(t_address,t_array(t_struct(Deposit)3785_storage)dyn_storage)":{"encoding":"mapping","key":"t_address","label":"mapping(address => struct YieldEscrow.Deposit[])","numberOfBytes":"32","value":"t_array(t_struct(Deposit)3785_storage)dyn_storage"},"t_mapping(t_address,t_bool)":{"encoding":"mapping","key":"t_address","label":"mapping(address => bool)","numberOfBytes":"32","value":"t_bool"},"t_mapping(t_address,t_contract(IYieldStrategy)7257)":{"encoding":"mapping","key":"t_address","label":"mapping(address => contract IYieldStrategy)","numberOfBytes":"32","value":"t_contract(IYieldStrategy)7257"},"t_mapping(t_address,t_struct(StrategyMetrics)3795_storage)":{"encoding":"mapping","key":"t_address","label":"mapping(address => struct YieldEscrow.StrategyMetrics)","numberOfBytes":"32","value":"t_struct(StrategyMetrics)3795_storage"},"t_mapping(t_address,t_uint256)":{"encoding":"mapping","key":"t_address","label":"mapping(address => uint256)","numberOfBytes":"32","value":"t_uint256"},"t_mapping(t_bytes32,t_bool)":{"encoding":"mapping","key":"t_bytes32","label":"mapping(bytes32 => bool)","numberOfBytes":"32","value":"t_bool"},"t_mapping(t_bytes32,t_struct(RoleData)19_storage)":{"encoding":"mapping","key":"t_bytes32","label":"mapping(bytes32 => struct AccessControl.RoleData)","numberOfBytes":"32","value":"t_struct(RoleData)19_storage"},"t_mapping(t_uint256,t_uint256)":{"encoding":"mapping","key":"t_uint256","label":"mapping(uint256 => uint256)","numberOfBytes":"32","value":"t_uint256"},"t_string_storage":{"encoding":"bytes","label":"string","numberOfBytes":"32"},"t_struct(Deposit)3785_storage":{"encoding":"inplace","label":"struct YieldEscrow.Deposit","members":[{"astId":3766,"contract":"src/YieldEscrow.sol:YieldEscrow","label":"amount","offset":0,"slot":"0","type":"t_uint256"},{"astId":3768,"contract":"src/YieldEscrow.sol:YieldEscrow","label":"timestamp","offset":0,"slot":"1","type":"t_uint256"},{"astId":3770,"contract":"src/YieldEscrow.sol:YieldEscrow","label":"token","offset":0,"slot":"2","type":"t_address"},{"astId":3772,"contract":"src/YieldEscrow.sol:YieldEscrow","label":"merchant","offset":0,"slot":"3","type":"t_address"},{"astId":3774,"contract":"src/YieldEscrow.sol:YieldEscrow","label":"yieldStrategy","offset":0,"slot":"4","type":"t_address"},{"astId":3776,"contract":"src/YieldEscrow.sol:YieldEscrow","label":"yieldAccrued","offset":0,"slot":"5","type":"t_uint256"},{"astId":3778,"contract":"src/YieldEscrow.sol:YieldEscrow","label":"lastYieldUpdate","offset":0,"slot":"6","type":"t_uint256"},{"astId":3780,"contract":"src/YieldEscrow.sol:YieldEscrow","label":"released","offset":0,"slot":"7","type":"t_bool"},{"astId":3782,"contract":"src/YieldEscrow.sol:YieldEscrow","label":"paymentHash","offset":0,"slot":"8","type":"t_bytes32"},{"astId":3784,"contract":"src/YieldEscrow.sol:YieldEscrow","label":"metadata","offset":0,"slot":"9","type":"t_string_storage"}],"numberOfBytes":"320"},"t_struct(RoleData)19_storage":{"encoding":"inplace","label":"struct AccessControl.RoleData","members":[{"astId":16,"contract":"src/YieldEscrow.sol:YieldEscrow","label":"members","offset":0,"slot":"0","type":"t_mapping(t_address,t_bool)"},{"astId":18,"contract":"src/YieldEscrow.sol:YieldEscrow","label":"adminRole","offset":0,"slot":"1","type":"t_bytes32"}],"numberOfBytes":"64"},"t_struct(StrategyMetrics)3795_storage":{"encoding":"inplace","label":"struct YieldEscrow.StrategyMetrics","members":[{"astId":3788,"contract":"src/YieldEscrow.sol:YieldEscrow","label":"totalDeposited","offset":0,"slot":"0","type":"t_uint256"},{"astId":3790,"contract":"src/YieldEscrow.sol:YieldEscrow","label":"totalYieldGenerated","offset":0,"slot":"1","type":"t_uint256"},{"astId":3792,"contract":"src/YieldEscrow.sol:YieldEscrow","label":"averageAPY","offset":0,"slot":"2","type":"t_uint256"},{"astId":3794,"contract":"src/YieldEscrow.sol:YieldEscrow","label":"lastUpdateTime","offset":0,"slot":"3","type":"t_uint256"}],"numberOfBytes":"128"},"t_uint256":{"encoding":"inplace","label":"uint256","numberOfBytes":"32"}}},"userdoc":{"kind":"user","methods":{},"notice":"This contract enables yield-powered payments with automatic yield distribution","version":1}}}}