{"src/mocks/MockYieldStrategy.sol":{"MockYieldStrategy":{"abi":[{"inputs":[{"internalType":"address","name":"_asset","type":"address"}],"stateMutability":"nonpayable","type":"constructor"},{"anonymous":false,"inputs":[{"indexed":true,"internalType":"address","name":"user","type":"address"},{"indexed":false,"internalType":"uint256","name":"amount","type":"uint256"},{"indexed":false,"internalType":"uint256","name":"shares","type":"uint256"}],"name":"Deposit","type":"event"},{"anonymous":false,"inputs":[{"indexed":false,"internalType":"string","name":"parameter","type":"string"},{"indexed":false,"internalType":"uint256","name":"oldValue","type":"uint256"},{"indexed":false,"internalType":"uint256","name":"newValue","type":"uint256"}],"name":"StrategyUpdated","type":"event"},{"anonymous":false,"inputs":[{"indexed":true,"internalType":"address","name":"user","type":"address"},{"indexed":false,"internalType":"uint256","name":"amount","type":"uint256"},{"indexed":false,"internalType":"uint256","name":"shares","type":"uint256"}],"name":"Withdrawal","type":"event"},{"anonymous":false,"inputs":[{"indexed":false,"internalType":"uint256","name":"yieldAmount","type":"uint256"},{"indexed":false,"internalType":"uint256","name":"newTotalAssets","type":"uint256"}],"name":"YieldHarvested","type":"event"},{"inputs":[],"name":"asset","outputs":[{"internalType":"address","name":"","type":"address"}],"stateMutability":"view","type":"function"},{"inputs":[{"internalType":"address","name":"user","type":"address"}],"name":"balanceOf","outputs":[{"internalType":"uint256","name":"","type":"uint256"}],"stateMutability":"view","type":"function"},{"inputs":[{"internalType":"address","name":"user","type":"address"}],"name":"calculateUserYield","outputs":[{"internalType":"uint256","name":"","type":"uint256"}],"stateMutability":"view","type":"function"},{"inputs":[{"internalType":"uint256","name":"principal","type":"uint256"},{"internalType":"uint256","name":"timeInSeconds","type":"uint256"}],"name":"calculateYield","outputs":[{"internalType":"uint256","name":"","type":"uint256"}],"stateMutability":"view","type":"function"},{"inputs":[{"internalType":"uint256","name":"shares","type":"uint256"}],"name":"convertToAssets","outputs":[{"internalType":"uint256","name":"","type":"uint256"}],"stateMutability":"view","type":"function"},{"inputs":[{"internalType":"uint256","name":"assets","type":"uint256"}],"name":"convertToShares","outputs":[{"internalType":"uint256","name":"","type":"uint256"}],"stateMutability":"view","type":"function"},{"inputs":[],"name":"currentAPY","outputs":[{"internalType":"uint256","name":"","type":"uint256"}],"stateMutability":"view","type":"function"},{"inputs":[{"internalType":"uint256","name":"amount","type":"uint256"}],"name":"deposit","outputs":[{"internalType":"uint256","name":"shares","type":"uint256"}],"stateMutability":"nonpayable","type":"function"},{"inputs":[{"internalType":"address","name":"user","type":"address"}],"name":"emergencyWithdraw","outputs":[{"internalType":"uint256","name":"amount","type":"uint256"}],"stateMutability":"nonpayable","type":"function"},{"inputs":[],"name":"getCurrentAPY","outputs":[{"internalType":"uint256","name":"","type":"uint256"}],"stateMutability":"view","type":"function"},{"inputs":[{"internalType":"uint256","name":"","type":"uint256"}],"name":"getPerformanceData","outputs":[{"internalType":"uint256","name":"","type":"uint256"}],"stateMutability":"view","type":"function"},{"inputs":[],"name":"getRiskScore","outputs":[{"internalType":"uint256","name":"","type":"uint256"}],"stateMutability":"pure","type":"function"},{"inputs":[],"name":"getStrategyInfo","outputs":[{"components":[{"internalType":"string","name":"name","type":"string"},{"internalType":"string","name":"description","type":"string"},{"internalType":"uint256","name":"totalAssets","type":"uint256"},{"internalType":"uint256","name":"totalShares","type":"uint256"},{"internalType":"uint256","name":"currentAPY","type":"uint256"},{"internalType":"uint256","name":"riskScore","type":"uint256"},{"internalType":"uint256","name":"lastHarvest","type":"uint256"},{"internalType":"bool","name":"active","type":"bool"}],"internalType":"struct IYieldStrategy.StrategyInfo","name":"","type":"tuple"}],"stateMutability":"view","type":"function"},{"inputs":[],"name":"getTotalYieldGenerated","outputs":[{"internalType":"uint256","name":"","type":"uint256"}],"stateMutability":"view","type":"function"},{"inputs":[],"name":"harvestYield","outputs":[{"internalType":"uint256","name":"","type":"uint256"}],"stateMutability":"nonpayable","type":"function"},{"inputs":[],"name":"isProfitable","outputs":[{"internalType":"bool","name":"","type":"bool"}],"stateMutability":"pure","type":"function"},{"inputs":[],"name":"maxCapacity","outputs":[{"internalType":"uint256","name":"","type":"uint256"}],"stateMutability":"pure","type":"function"},{"inputs":[],"name":"name","outputs":[{"internalType":"string","name":"","type":"string"}],"stateMutability":"view","type":"function"},{"inputs":[{"internalType":"uint256","name":"apy","type":"uint256"}],"name":"setCurrentAPY","outputs":[],"stateMutability":"nonpayable","type":"function"},{"inputs":[{"internalType":"string","name":"strategyName","type":"string"}],"name":"setName","outputs":[],"stateMutability":"nonpayable","type":"function"},{"inputs":[{"internalType":"bool","name":"shouldFail","type":"bool"}],"name":"setShouldFail","outputs":[],"stateMutability":"nonpayable","type":"function"},{"inputs":[{"internalType":"uint256","name":"amount","type":"uint256"}],"name":"setUserYield","outputs":[],"stateMutability":"nonpayable","type":"function"},{"inputs":[],"name":"totalAssets","outputs":[{"internalType":"uint256","name":"","type":"uint256"}],"stateMutability":"view","type":"function"},{"inputs":[],"name":"totalDeposited","outputs":[{"internalType":"uint256","name":"","type":"uint256"}],"stateMutability":"view","type":"function"},{"inputs":[],"name":"utilizationRate","outputs":[{"internalType":"uint256","name":"","type":"uint256"}],"stateMutability":"view","type":"function"},{"inputs":[{"internalType":"uint256","name":"shares","type":"uint256"}],"name":"withdraw","outputs":[{"internalType":"uint256","name":"amount","type":"uint256"}],"stateMutability":"nonpayable","type":"function"}],"devdoc":{"details":"Mock yield strategy for testing purposes","events":{"Deposit(address,uint256,uint256)":{"details":"Emitted when funds are deposited into the strategy","params":{"amount":"The amount deposited","shares":"The number of shares minted","user":"The address that deposited funds"}},"StrategyUpdated(string,uint256,uint256)":{"details":"Emitted when strategy parameters are updated","params":{"newValue":"The new value","oldValue":"The old value","parameter":"The parameter that was updated"}},"Withdrawal(address,uint256,uint256)":{"details":"Emitted when funds are withdrawn from the strategy","params":{"amount":"The amount withdrawn","shares":"The number of shares burned","user":"The address that withdrew funds"}},"YieldHarvested(uint256,uint256)":{"details":"Emitted when yield is harvested","params":{"newTotalAssets":"The new total assets under management","yieldAmount":"The amount of yield harvested"}}},"kind":"dev","methods":{"balanceOf(address)":{"details":"Gets the user's share balance","params":{"user":"The user address"},"returns":{"_0":"The user's share balance"}},"calculateUserYield(address)":{"details":"Calculates yield generated for a specific user","params":{"user":"The user address"},"returns":{"_0":"The amount of yield generated"}},"convertToAssets(uint256)":{"details":"Converts shares to assets","params":{"shares":"The number of shares"},"returns":{"_0":"The equivalent amount of assets"}},"convertToShares(uint256)":{"details":"Converts assets to shares","params":{"assets":"The amount of assets"},"returns":{"_0":"The equivalent number of shares"}},"deposit(uint256)":{"details":"Deposits assets into the yield strategy","params":{"amount":"The amount of assets to deposit"},"returns":{"shares":"The number of shares minted to the depositor"}},"emergencyWithdraw(address)":{"details":"Emergency withdrawal of all user funds (may incur penalties)","params":{"user":"The address to withdraw funds for"},"returns":{"amount":"The amount of assets withdrawn"}},"getCurrentAPY()":{"details":"Calculates the current APY of the strategy","returns":{"_0":"The current APY in basis points"}},"getRiskScore()":{"details":"Gets the strategy's risk score","returns":{"_0":"The risk score from 1-10 (1 = lowest risk)"}},"getStrategyInfo()":{"details":"Gets comprehensive strategy information","returns":{"_0":"The strategy information struct"}},"getTotalYieldGenerated()":{"details":"Calculates the total yield generated by the strategy","returns":{"_0":"The total yield generated"}},"harvestYield()":{"details":"Harvests yield from the underlying protocol","returns":{"_0":"The amount of yield harvested"}},"isProfitable()":{"details":"Checks if the strategy is profitable","returns":{"_0":"Whether the strategy is currently profitable"}},"maxCapacity()":{"details":"Gets the maximum capacity of the strategy","returns":{"_0":"The maximum amount of assets the strategy can handle"}},"totalAssets()":{"details":"Gets the total assets under management","returns":{"_0":"The total assets managed by this strategy"}},"utilizationRate()":{"details":"Gets the current utilization rate","returns":{"_0":"The utilization rate as a percentage (basis points)"}},"withdraw(uint256)":{"details":"Withdraws assets from the yield strategy","params":{"shares":"The number of shares to burn"},"returns":{"amount":"The amount of assets withdrawn"}}},"stateVariables":{"asset":{"details":"Gets the underlying asset address","return":"The address of the underlying asset (e.g., USDC)","returns":{"_0":"The address of the underlying asset (e.g., USDC)"}}},"title":"MockYieldStrategy","version":1},"evm":{"bytecode":{"linkReferences":{},"object":"60a03461011f57601f6110d538819003918201601f19168301916001600160401b038311848410176101245780849260209460405283398101031261011f57516001600160a01b038116810361011f5761019060045560ff1960055416600555608052600080546001908181811c91168015610115575b602082101461010157601f81116100d8575b7f4d6f636b2053747261746567790000000000000000000000000000000000001a8355604051610f9a908161013b82396080518181816103e0015281816108530152818161090c0152610efa0152f35b828052601f60208420910160051c8101905b8181106100f75750610088565b83815582016100ea565b634e487b7160e01b83526022600452602483fd5b90607f1690610076565b600080fd5b634e487b7160e01b600052604160045260246000fdfe6040608081526004908136101561001557600080fd5b600090813560e01c92836301e1d11414610aea578363043cbe5b14610aac57836306fdde03146109c657836307a2d13a146109a75783632b35f739146108825783632e1a7d4d1461089d5783633612ddda1461088257836338d52e0f1461083f57836339a243331461082557836339c1a8e8146108075783633fd18893146107ea57836359b6a0c9146107ce5783636c321c8a1461070c5783636f7c99d2146106975783636ff1c9bc1461066857836370a08231146106305783638b66268c146106165783639613092d146104c7578363962ca496146104c25783639a79d32b146104c2578363a5aa5c1214610493578363b6b55f2514610383578363c47f0027146101c2578363c6e6f5921461019957508263e8d991d11461014857505063ff50abdc1461014357600080fd5b610aea565b34610195578160031936011261019557602090600354907f3fb12fb590bb295327f3bfc48158ada0b1147f8f823e0c7a09b98b301d1867748160015481519085825286820152a151908152f35b5080fd5b91346101bf5760203660031901126101bf57506101b860209235610f29565b9051908152f35b80fd5b8290346101955760208060031936011261037f5767ffffffffffffffff91803583811161037b573660238201121561037b57808201359061020e61020583610bdc565b97519788610bba565b8187523660248383010111610377578186926024869301838a013787010152845192831161036457506102418354610bf8565b601f8111610303575b5080601f831160011461028457508293829392610279575b50508160011b916000199060031b1c191617815580f35b015190508380610262565b838052601f198316947f290decd9548b62a8d60345a988386fc84ba6bc95484008f6362f93160ef3e563929185905b8782106102eb5750508360019596106102d2575b505050811b01815580f35b015160001960f88460031b161c191690558380806102c7565b806001859682949686015181550195019301906102b3565b8380527f290decd9548b62a8d60345a988386fc84ba6bc95484008f6362f93160ef3e563601f840160051c81019183851061035a575b601f0160051c01905b81811061034f575061024a565b848155600101610342565b9091508190610339565b634e487b7160e01b845260419052602483fd5b8580fd5b8480fd5b8280fd5b92503461019557602036600319011261019557823581516323b872dd60e01b60208201523360248201523060448201528160648201526064815260a0810181811067ffffffffffffffff8211176104805783526020945061040d907f00000000000000000000000000000000000000000000000000000000000000006001600160a01b0316610c88565b8161041782610f29565b93338152600686522061042b848254610c7b565b905561043983600254610c7b565b60025561044881600154610c7b565b600155815190815282848201527f90890809c654f11d6e72a28fa60149770a0d11ec6c92319d6ceb2bb0a4ea1a15823392a251908152f35b634e487b7160e01b855260418652602485fd5b90503461019557602036600319011261019557358015158091036101955760ff80196005541691161760055580f35b610b4d565b903461037f578260031936011261037f5780516105d9936104e782610b6b565b6060825260e060209260608482015282858201528260608201528260808201528260a08201528260c0820152015260015491600254935481519461052a86610b6b565b825161053581610b9e565b600d81526c4d6f636b20537472617465677960981b85820152865282519161055c83610b9e565b601f83527f4d6f636b207969656c6420737472617465677920666f722074657374696e670085840152848701928352838701958652606087019182526080870190815260a0870191600183526105ec60c089019442865260e08a01966001885280519b8c9b8a8d52518c6101009b8c9101526101208d0190610b0d565b915190601f198c840301908c0152610b0d565b965160608901525160808801525160a08701525160c08601525160e0850152511515908301520390f35b905034610195576020366003190112610195573560035580f35b3461037f57602036600319011261037f57356001600160a01b0381169081900361037f57828291602094526006845220549051908152f35b3461037f57602036600319011261037f5735916001600160a01b03831683036101bf57506101b8602092610e9b565b82346101bf5760203660031901126101bf5781356001600160a01b038116036101bf575060ff600554166106d2576020826003549051908152f35b6020606492519162461bcd60e51b835282015260156024820152744d6f636b207374726174656779206661696c75726560581b6044820152fd5b91346101bf57806003193601126101bf57600154928315806107c2576127108086029586041417156107af576020835180926359b6a0c960e01b825281305afa9182156107a457809261076e575b50506101b890602093610c5b565b51908152f35b9091506020823d821161079c575b8161078960209383610bba565b810103126101bf575051826101b861075a565b3d915061077c565b8351903d90823e3d90fd5b634e487b7160e01b825260119052602490fd5b50506020925090610768565b5034610195578160031936011261019557516000198152602090f35b3461037f57602036600319011261037f5760209250549051908152f35b50346101955781600319360112610195576020906003549051908152f35b905034610195576020366003190112610195578035905580f35b5034610195578160031936011261019557517f00000000000000000000000000000000000000000000000000000000000000006001600160a01b03168152602090f35b50346101955781600319360112610195576020905160018152f35b925034610195576020928360031936011261037f578035903384526006855281838520541061096e5750816108d182610f4b565b9333815260068652206108e5828254610e3c565b90556108f381600254610e3c565b60025561090283600154610e3c565b60015561093983337f00000000000000000000000000000000000000000000000000000000000000006001600160a01b0316610e49565b815190838252848201527fdf273cb619d95419a9cd0ec88123a0538c85064229baa6363788f743fff90deb823392a251908152f35b825162461bcd60e51b81529081018590526013602482015272496e73756666696369656e742073686172657360681b6044820152606490fd5b91346101bf5760203660031901126101bf57506101b860209235610f4b565b50346101955781600319360112610195578051908280546109e681610bf8565b80855291600191808316908115610a845750600114610a28575b505050610a1282610a24940383610bba565b51918291602083526020830190610b0d565b0390f35b80809650527f290decd9548b62a8d60345a988386fc84ba6bc95484008f6362f93160ef3e5635b828610610a6c57505050610a12826020610a249582010194610a00565b80546020878701810191909152909501948101610a4f565b610a24975086935060209250610a1294915060ff191682840152151560051b82010194610a00565b91346101bf57816003193601126101bf57506301e13380610ae2602093612710610adc6024359280549035610c32565b04610c32565b049051908152f35b34610b08576000366003190112610b08576020600154604051908152f35b600080fd5b919082519283825260005b848110610b39575050826000602080949584010152601f8019910116010190565b602081830181015184830182015201610b18565b34610b08576000366003190112610b08576020600454604051908152f35b610100810190811067ffffffffffffffff821117610b8857604052565b634e487b7160e01b600052604160045260246000fd5b6040810190811067ffffffffffffffff821117610b8857604052565b90601f8019910116810190811067ffffffffffffffff821117610b8857604052565b67ffffffffffffffff8111610b8857601f01601f191660200190565b90600182811c92168015610c28575b6020831014610c1257565b634e487b7160e01b600052602260045260246000fd5b91607f1691610c07565b81810292918115918404141715610c4557565b634e487b7160e01b600052601160045260246000fd5b8115610c65570490565b634e487b7160e01b600052601260045260246000fd5b91908201809211610c4557565b60018060a01b031690610d05604051610ca081610b9e565b6020938482527f5361666545524332303a206c6f772d6c6576656c2063616c6c206661696c6564858301526000808587829751910182855af13d15610d9b573d91610cea83610bdc565b92610cf86040519485610bba565b83523d868885013e610d9f565b805191821591848315610d77575b505050905015610d205750565b6084906040519062461bcd60e51b82526004820152602a60248201527f5361666545524332303a204552433230206f7065726174696f6e20646964206e6044820152691bdd081cdd58d8d9595960b21b6064820152fd5b919381809450010312610195578201519081151582036101bf575080388084610d13565b6060915b91929015610e015750815115610db3575090565b3b15610dbc5790565b60405162461bcd60e51b815260206004820152601d60248201527f416464726573733a2063616c6c20746f206e6f6e2d636f6e74726163740000006044820152606490fd5b825190915015610e145750805190602001fd5b60405162461bcd60e51b815260206004820152908190610e38906024830190610b0d565b0390fd5b91908203918211610c4557565b60405163a9059cbb60e01b60208201526001600160a01b039092166024830152604480830193909352918152608081019167ffffffffffffffff831182841017610b8857610e9992604052610c88565b565b6001600160a01b03818116600081815260066020526040812054909390928315610f2257610ee684610ecf610f1f96610f4b565b968795815260066020526040812055600254610e3c565b600255610ef583600154610e3c565b6001557f000000000000000000000000000000000000000000000000000000000000000016610e49565b90565b5050505090565b6001548015610f4757610f42610f1f9260025490610c32565b610c5b565b5090565b6002548015610f4757610f42610f1f9260015490610c3256fea26469706673582212205aead6aa61a8b33ed75e86f933fed8c5f5a9239eb73f9d47710d96e9e11f9d5464736f6c63430008140033","opcodes":"PUSH1 0xA0 CALLVALUE PUSH2 0x11F JUMPI PUSH1 0x1F PUSH2 0x10D5 CODESIZE DUP2 SWAP1 SUB SWAP2 DUP3 ADD PUSH1 0x1F NOT AND DUP4 ADD SWAP2 PUSH1 0x1 PUSH1 0x1 PUSH1 0x40 SHL SUB DUP4 GT DUP5 DUP5 LT OR PUSH2 0x124 JUMPI DUP1 DUP5 SWAP3 PUSH1 0x20 SWAP5 PUSH1 0x40 MSTORE DUP4 CODECOPY DUP2 ADD SUB SLT PUSH2 0x11F JUMPI MLOAD PUSH1 0x1 PUSH1 0x1 PUSH1 0xA0 SHL SUB DUP2 AND DUP2 SUB PUSH2 0x11F JUMPI PUSH2 0x190 PUSH1 0x4 SSTORE PUSH1 0xFF NOT PUSH1 0x5 SLOAD AND PUSH1 0x5 SSTORE PUSH1 0x80 MSTORE PUSH1 0x0 DUP1 SLOAD PUSH1 0x1 SWAP1 DUP2 DUP2 DUP2 SHR SWAP2 AND DUP1 ISZERO PUSH2 0x115 JUMPI JUMPDEST PUSH1 0x20 DUP3 LT EQ PUSH2 0x101 JUMPI PUSH1 0x1F DUP2 GT PUSH2 0xD8 JUMPI JUMPDEST PUSH32 0x4D6F636B2053747261746567790000000000000000000000000000000000001A DUP4 SSTORE PUSH1 0x40 MLOAD PUSH2 0xF9A SWAP1 DUP2 PUSH2 0x13B DUP3 CODECOPY PUSH1 0x80 MLOAD DUP2 DUP2 DUP2 PUSH2 0x3E0 ADD MSTORE DUP2 DUP2 PUSH2 0x853 ADD MSTORE DUP2 DUP2 PUSH2 0x90C ADD MSTORE PUSH2 0xEFA ADD MSTORE RETURN JUMPDEST DUP3 DUP1 MSTORE PUSH1 0x1F PUSH1 0x20 DUP5 KECCAK256 SWAP2 ADD PUSH1 0x5 SHR DUP2 ADD SWAP1 JUMPDEST DUP2 DUP2 LT PUSH2 0xF7 JUMPI POP PUSH2 0x88 JUMP JUMPDEST DUP4 DUP2 SSTORE DUP3 ADD PUSH2 0xEA JUMP JUMPDEST PUSH4 0x4E487B71 PUSH1 0xE0 SHL DUP4 MSTORE PUSH1 0x22 PUSH1 0x4 MSTORE PUSH1 0x24 DUP4 REVERT JUMPDEST SWAP1 PUSH1 0x7F AND SWAP1 PUSH2 0x76 JUMP JUMPDEST PUSH1 0x0 DUP1 REVERT JUMPDEST PUSH4 0x4E487B71 PUSH1 0xE0 SHL PUSH1 0x0 MSTORE PUSH1 0x41 PUSH1 0x4 MSTORE PUSH1 0x24 PUSH1 0x0 REVERT INVALID PUSH1 0x40 PUSH1 0x80 DUP2 MSTORE PUSH1 0x4 SWAP1 DUP2 CALLDATASIZE LT ISZERO PUSH2 0x15 JUMPI PUSH1 0x0 DUP1 REVERT JUMPDEST PUSH1 0x0 SWAP1 DUP2 CALLDATALOAD PUSH1 0xE0 SHR SWAP3 DUP4 PUSH4 0x1E1D114 EQ PUSH2 0xAEA JUMPI DUP4 PUSH4 0x43CBE5B EQ PUSH2 0xAAC JUMPI DUP4 PUSH4 0x6FDDE03 EQ PUSH2 0x9C6 JUMPI DUP4 PUSH4 0x7A2D13A EQ PUSH2 0x9A7 JUMPI DUP4 PUSH4 0x2B35F739 EQ PUSH2 0x882 JUMPI DUP4 PUSH4 0x2E1A7D4D EQ PUSH2 0x89D JUMPI DUP4 PUSH4 0x3612DDDA EQ PUSH2 0x882 JUMPI DUP4 PUSH4 0x38D52E0F EQ PUSH2 0x83F JUMPI DUP4 PUSH4 0x39A24333 EQ PUSH2 0x825 JUMPI DUP4 PUSH4 0x39C1A8E8 EQ PUSH2 0x807 JUMPI DUP4 PUSH4 0x3FD18893 EQ PUSH2 0x7EA JUMPI DUP4 PUSH4 0x59B6A0C9 EQ PUSH2 0x7CE JUMPI DUP4 PUSH4 0x6C321C8A EQ PUSH2 0x70C JUMPI DUP4 PUSH4 0x6F7C99D2 EQ PUSH2 0x697 JUMPI DUP4 PUSH4 0x6FF1C9BC EQ PUSH2 0x668 JUMPI DUP4 PUSH4 0x70A08231 EQ PUSH2 0x630 JUMPI DUP4 PUSH4 0x8B66268C EQ PUSH2 0x616 JUMPI DUP4 PUSH4 0x9613092D EQ PUSH2 0x4C7 JUMPI DUP4 PUSH4 0x962CA496 EQ PUSH2 0x4C2 JUMPI DUP4 PUSH4 0x9A79D32B EQ PUSH2 0x4C2 JUMPI DUP4 PUSH4 0xA5AA5C12 EQ PUSH2 0x493 JUMPI DUP4 PUSH4 0xB6B55F25 EQ PUSH2 0x383 JUMPI DUP4 PUSH4 0xC47F0027 EQ PUSH2 0x1C2 JUMPI DUP4 PUSH4 0xC6E6F592 EQ PUSH2 0x199 JUMPI POP DUP3 PUSH4 0xE8D991D1 EQ PUSH2 0x148 JUMPI POP POP PUSH4 0xFF50ABDC EQ PUSH2 0x143 JUMPI PUSH1 0x0 DUP1 REVERT JUMPDEST PUSH2 0xAEA JUMP JUMPDEST CALLVALUE PUSH2 0x195 JUMPI DUP2 PUSH1 0x3 NOT CALLDATASIZE ADD SLT PUSH2 0x195 JUMPI PUSH1 0x20 SWAP1 PUSH1 0x3 SLOAD SWAP1 PUSH32 0x3FB12FB590BB295327F3BFC48158ADA0B1147F8F823E0C7A09B98B301D186774 DUP2 PUSH1 0x1 SLOAD DUP2 MLOAD SWAP1 DUP6 DUP3 MSTORE DUP7 DUP3 ADD MSTORE LOG1 MLOAD SWAP1 DUP2 MSTORE RETURN JUMPDEST POP DUP1 REVERT JUMPDEST SWAP2 CALLVALUE PUSH2 0x1BF JUMPI PUSH1 0x20 CALLDATASIZE PUSH1 0x3 NOT ADD SLT PUSH2 0x1BF JUMPI POP PUSH2 0x1B8 PUSH1 0x20 SWAP3 CALLDATALOAD PUSH2 0xF29 JUMP JUMPDEST SWAP1 MLOAD SWAP1 DUP2 MSTORE RETURN JUMPDEST DUP1 REVERT JUMPDEST DUP3 SWAP1 CALLVALUE PUSH2 0x195 JUMPI PUSH1 0x20 DUP1 PUSH1 0x3 NOT CALLDATASIZE ADD SLT PUSH2 0x37F JUMPI PUSH8 0xFFFFFFFFFFFFFFFF SWAP2 DUP1 CALLDATALOAD DUP4 DUP2 GT PUSH2 0x37B JUMPI CALLDATASIZE PUSH1 0x23 DUP3 ADD SLT ISZERO PUSH2 0x37B JUMPI DUP1 DUP3 ADD CALLDATALOAD SWAP1 PUSH2 0x20E PUSH2 0x205 DUP4 PUSH2 0xBDC JUMP JUMPDEST SWAP8 MLOAD SWAP8 DUP9 PUSH2 0xBBA JUMP JUMPDEST DUP2 DUP8 MSTORE CALLDATASIZE PUSH1 0x24 DUP4 DUP4 ADD ADD GT PUSH2 0x377 JUMPI DUP2 DUP7 SWAP3 PUSH1 0x24 DUP7 SWAP4 ADD DUP4 DUP11 ADD CALLDATACOPY DUP8 ADD ADD MSTORE DUP5 MLOAD SWAP3 DUP4 GT PUSH2 0x364 JUMPI POP PUSH2 0x241 DUP4 SLOAD PUSH2 0xBF8 JUMP JUMPDEST PUSH1 0x1F DUP2 GT PUSH2 0x303 JUMPI JUMPDEST POP DUP1 PUSH1 0x1F DUP4 GT PUSH1 0x1 EQ PUSH2 0x284 JUMPI POP DUP3 SWAP4 DUP3 SWAP4 SWAP3 PUSH2 0x279 JUMPI JUMPDEST POP POP DUP2 PUSH1 0x1 SHL SWAP2 PUSH1 0x0 NOT SWAP1 PUSH1 0x3 SHL SHR NOT AND OR DUP2 SSTORE DUP1 RETURN JUMPDEST ADD MLOAD SWAP1 POP DUP4 DUP1 PUSH2 0x262 JUMP JUMPDEST DUP4 DUP1 MSTORE PUSH1 0x1F NOT DUP4 AND SWAP5 PUSH32 0x290DECD9548B62A8D60345A988386FC84BA6BC95484008F6362F93160EF3E563 SWAP3 SWAP2 DUP6 SWAP1 JUMPDEST DUP8 DUP3 LT PUSH2 0x2EB JUMPI POP POP DUP4 PUSH1 0x1 SWAP6 SWAP7 LT PUSH2 0x2D2 JUMPI JUMPDEST POP POP POP DUP2 SHL ADD DUP2 SSTORE DUP1 RETURN JUMPDEST ADD MLOAD PUSH1 0x0 NOT PUSH1 0xF8 DUP5 PUSH1 0x3 SHL AND SHR NOT AND SWAP1 SSTORE DUP4 DUP1 DUP1 PUSH2 0x2C7 JUMP JUMPDEST DUP1 PUSH1 0x1 DUP6 SWAP7 DUP3 SWAP5 SWAP7 DUP7 ADD MLOAD DUP2 SSTORE ADD SWAP6 ADD SWAP4 ADD SWAP1 PUSH2 0x2B3 JUMP JUMPDEST DUP4 DUP1 MSTORE PUSH32 0x290DECD9548B62A8D60345A988386FC84BA6BC95484008F6362F93160EF3E563 PUSH1 0x1F DUP5 ADD PUSH1 0x5 SHR DUP2 ADD SWAP2 DUP4 DUP6 LT PUSH2 0x35A JUMPI JUMPDEST PUSH1 0x1F ADD PUSH1 0x5 SHR ADD SWAP1 JUMPDEST DUP2 DUP2 LT PUSH2 0x34F JUMPI POP PUSH2 0x24A JUMP JUMPDEST DUP5 DUP2 SSTORE PUSH1 0x1 ADD PUSH2 0x342 JUMP JUMPDEST SWAP1 SWAP2 POP DUP2 SWAP1 PUSH2 0x339 JUMP JUMPDEST PUSH4 0x4E487B71 PUSH1 0xE0 SHL DUP5 MSTORE PUSH1 0x41 SWAP1 MSTORE PUSH1 0x24 DUP4 REVERT JUMPDEST DUP6 DUP1 REVERT JUMPDEST DUP5 DUP1 REVERT JUMPDEST DUP3 DUP1 REVERT JUMPDEST SWAP3 POP CALLVALUE PUSH2 0x195 JUMPI PUSH1 0x20 CALLDATASIZE PUSH1 0x3 NOT ADD SLT PUSH2 0x195 JUMPI DUP3 CALLDATALOAD DUP2 MLOAD PUSH4 0x23B872DD PUSH1 0xE0 SHL PUSH1 0x20 DUP3 ADD MSTORE CALLER PUSH1 0x24 DUP3 ADD MSTORE ADDRESS PUSH1 0x44 DUP3 ADD MSTORE DUP2 PUSH1 0x64 DUP3 ADD MSTORE PUSH1 0x64 DUP2 MSTORE PUSH1 0xA0 DUP2 ADD DUP2 DUP2 LT PUSH8 0xFFFFFFFFFFFFFFFF DUP3 GT OR PUSH2 0x480 JUMPI DUP4 MSTORE PUSH1 0x20 SWAP5 POP PUSH2 0x40D SWAP1 PUSH32 0x0 PUSH1 0x1 PUSH1 0x1 PUSH1 0xA0 SHL SUB AND PUSH2 0xC88 JUMP JUMPDEST DUP2 PUSH2 0x417 DUP3 PUSH2 0xF29 JUMP JUMPDEST SWAP4 CALLER DUP2 MSTORE PUSH1 0x6 DUP7 MSTORE KECCAK256 PUSH2 0x42B DUP5 DUP3 SLOAD PUSH2 0xC7B JUMP JUMPDEST SWAP1 SSTORE PUSH2 0x439 DUP4 PUSH1 0x2 SLOAD PUSH2 0xC7B JUMP JUMPDEST PUSH1 0x2 SSTORE PUSH2 0x448 DUP2 PUSH1 0x1 SLOAD PUSH2 0xC7B JUMP JUMPDEST PUSH1 0x1 SSTORE DUP2 MLOAD SWAP1 DUP2 MSTORE DUP3 DUP5 DUP3 ADD MSTORE PUSH32 0x90890809C654F11D6E72A28FA60149770A0D11EC6C92319D6CEB2BB0A4EA1A15 DUP3 CALLER SWAP3 LOG2 MLOAD SWAP1 DUP2 MSTORE RETURN JUMPDEST PUSH4 0x4E487B71 PUSH1 0xE0 SHL DUP6 MSTORE PUSH1 0x41 DUP7 MSTORE PUSH1 0x24 DUP6 REVERT JUMPDEST SWAP1 POP CALLVALUE PUSH2 0x195 JUMPI PUSH1 0x20 CALLDATASIZE PUSH1 0x3 NOT ADD SLT PUSH2 0x195 JUMPI CALLDATALOAD DUP1 ISZERO ISZERO DUP1 SWAP2 SUB PUSH2 0x195 JUMPI PUSH1 0xFF DUP1 NOT PUSH1 0x5 SLOAD AND SWAP2 AND OR PUSH1 0x5 SSTORE DUP1 RETURN JUMPDEST PUSH2 0xB4D JUMP JUMPDEST SWAP1 CALLVALUE PUSH2 0x37F JUMPI DUP3 PUSH1 0x3 NOT CALLDATASIZE ADD SLT PUSH2 0x37F JUMPI DUP1 MLOAD PUSH2 0x5D9 SWAP4 PUSH2 0x4E7 DUP3 PUSH2 0xB6B JUMP JUMPDEST PUSH1 0x60 DUP3 MSTORE PUSH1 0xE0 PUSH1 0x20 SWAP3 PUSH1 0x60 DUP5 DUP3 ADD MSTORE DUP3 DUP6 DUP3 ADD MSTORE DUP3 PUSH1 0x60 DUP3 ADD MSTORE DUP3 PUSH1 0x80 DUP3 ADD MSTORE DUP3 PUSH1 0xA0 DUP3 ADD MSTORE DUP3 PUSH1 0xC0 DUP3 ADD MSTORE ADD MSTORE PUSH1 0x1 SLOAD SWAP2 PUSH1 0x2 SLOAD SWAP4 SLOAD DUP2 MLOAD SWAP5 PUSH2 0x52A DUP7 PUSH2 0xB6B JUMP JUMPDEST DUP3 MLOAD PUSH2 0x535 DUP2 PUSH2 0xB9E JUMP JUMPDEST PUSH1 0xD DUP2 MSTORE PUSH13 0x4D6F636B205374726174656779 PUSH1 0x98 SHL DUP6 DUP3 ADD MSTORE DUP7 MSTORE DUP3 MLOAD SWAP2 PUSH2 0x55C DUP4 PUSH2 0xB9E JUMP JUMPDEST PUSH1 0x1F DUP4 MSTORE PUSH32 0x4D6F636B207969656C6420737472617465677920666F722074657374696E6700 DUP6 DUP5 ADD MSTORE DUP5 DUP8 ADD SWAP3 DUP4 MSTORE DUP4 DUP8 ADD SWAP6 DUP7 MSTORE PUSH1 0x60 DUP8 ADD SWAP2 DUP3 MSTORE PUSH1 0x80 DUP8 ADD SWAP1 DUP2 MSTORE PUSH1 0xA0 DUP8 ADD SWAP2 PUSH1 0x1 DUP4 MSTORE PUSH2 0x5EC PUSH1 0xC0 DUP10 ADD SWAP5 TIMESTAMP DUP7 MSTORE PUSH1 0xE0 DUP11 ADD SWAP7 PUSH1 0x1 DUP9 MSTORE DUP1 MLOAD SWAP12 DUP13 SWAP12 DUP11 DUP14 MSTORE MLOAD DUP13 PUSH2 0x100 SWAP12 DUP13 SWAP2 ADD MSTORE PUSH2 0x120 DUP14 ADD SWAP1 PUSH2 0xB0D JUMP JUMPDEST SWAP2 MLOAD SWAP1 PUSH1 0x1F NOT DUP13 DUP5 SUB ADD SWAP1 DUP13 ADD MSTORE PUSH2 0xB0D JUMP JUMPDEST SWAP7 MLOAD PUSH1 0x60 DUP10 ADD MSTORE MLOAD PUSH1 0x80 DUP9 ADD MSTORE MLOAD PUSH1 0xA0 DUP8 ADD MSTORE MLOAD PUSH1 0xC0 DUP7 ADD MSTORE MLOAD PUSH1 0xE0 DUP6 ADD MSTORE MLOAD ISZERO ISZERO SWAP1 DUP4 ADD MSTORE SUB SWAP1 RETURN JUMPDEST SWAP1 POP CALLVALUE PUSH2 0x195 JUMPI PUSH1 0x20 CALLDATASIZE PUSH1 0x3 NOT ADD SLT PUSH2 0x195 JUMPI CALLDATALOAD PUSH1 0x3 SSTORE DUP1 RETURN JUMPDEST CALLVALUE PUSH2 0x37F JUMPI PUSH1 0x20 CALLDATASIZE PUSH1 0x3 NOT ADD SLT PUSH2 0x37F JUMPI CALLDATALOAD PUSH1 0x1 PUSH1 0x1 PUSH1 0xA0 SHL SUB DUP2 AND SWAP1 DUP2 SWAP1 SUB PUSH2 0x37F JUMPI DUP3 DUP3 SWAP2 PUSH1 0x20 SWAP5 MSTORE PUSH1 0x6 DUP5 MSTORE KECCAK256 SLOAD SWAP1 MLOAD SWAP1 DUP2 MSTORE RETURN JUMPDEST CALLVALUE PUSH2 0x37F JUMPI PUSH1 0x20 CALLDATASIZE PUSH1 0x3 NOT ADD SLT PUSH2 0x37F JUMPI CALLDATALOAD SWAP2 PUSH1 0x1 PUSH1 0x1 PUSH1 0xA0 SHL SUB DUP4 AND DUP4 SUB PUSH2 0x1BF JUMPI POP PUSH2 0x1B8 PUSH1 0x20 SWAP3 PUSH2 0xE9B JUMP JUMPDEST DUP3 CALLVALUE PUSH2 0x1BF JUMPI PUSH1 0x20 CALLDATASIZE PUSH1 0x3 NOT ADD SLT PUSH2 0x1BF JUMPI DUP2 CALLDATALOAD PUSH1 0x1 PUSH1 0x1 PUSH1 0xA0 SHL SUB DUP2 AND SUB PUSH2 0x1BF JUMPI POP PUSH1 0xFF PUSH1 0x5 SLOAD AND PUSH2 0x6D2 JUMPI PUSH1 0x20 DUP3 PUSH1 0x3 SLOAD SWAP1 MLOAD SWAP1 DUP2 MSTORE RETURN JUMPDEST PUSH1 0x20 PUSH1 0x64 SWAP3 MLOAD SWAP2 PUSH3 0x461BCD PUSH1 0xE5 SHL DUP4 MSTORE DUP3 ADD MSTORE PUSH1 0x15 PUSH1 0x24 DUP3 ADD MSTORE PUSH21 0x4D6F636B207374726174656779206661696C757265 PUSH1 0x58 SHL PUSH1 0x44 DUP3 ADD MSTORE REVERT JUMPDEST SWAP2 CALLVALUE PUSH2 0x1BF JUMPI DUP1 PUSH1 0x3 NOT CALLDATASIZE ADD SLT PUSH2 0x1BF JUMPI PUSH1 0x1 SLOAD SWAP3 DUP4 ISZERO DUP1 PUSH2 0x7C2 JUMPI PUSH2 0x2710 DUP1 DUP7 MUL SWAP6 DUP7 DIV EQ OR ISZERO PUSH2 0x7AF JUMPI PUSH1 0x20 DUP4 MLOAD DUP1 SWAP3 PUSH4 0x59B6A0C9 PUSH1 0xE0 SHL DUP3 MSTORE DUP2 ADDRESS GAS STATICCALL SWAP2 DUP3 ISZERO PUSH2 0x7A4 JUMPI DUP1 SWAP3 PUSH2 0x76E JUMPI JUMPDEST POP POP PUSH2 0x1B8 SWAP1 PUSH1 0x20 SWAP4 PUSH2 0xC5B JUMP JUMPDEST MLOAD SWAP1 DUP2 MSTORE RETURN JUMPDEST SWAP1 SWAP2 POP PUSH1 0x20 DUP3 RETURNDATASIZE DUP3 GT PUSH2 0x79C JUMPI JUMPDEST DUP2 PUSH2 0x789 PUSH1 0x20 SWAP4 DUP4 PUSH2 0xBBA JUMP JUMPDEST DUP2 ADD SUB SLT PUSH2 0x1BF JUMPI POP MLOAD DUP3 PUSH2 0x1B8 PUSH2 0x75A JUMP JUMPDEST RETURNDATASIZE SWAP2 POP PUSH2 0x77C JUMP JUMPDEST DUP4 MLOAD SWAP1 RETURNDATASIZE SWAP1 DUP3 RETURNDATACOPY RETURNDATASIZE SWAP1 REVERT JUMPDEST PUSH4 0x4E487B71 PUSH1 0xE0 SHL DUP3 MSTORE PUSH1 0x11 SWAP1 MSTORE PUSH1 0x24 SWAP1 REVERT JUMPDEST POP POP PUSH1 0x20 SWAP3 POP SWAP1 PUSH2 0x768 JUMP JUMPDEST POP CALLVALUE PUSH2 0x195 JUMPI DUP2 PUSH1 0x3 NOT CALLDATASIZE ADD SLT PUSH2 0x195 JUMPI MLOAD PUSH1 0x0 NOT DUP2 MSTORE PUSH1 0x20 SWAP1 RETURN JUMPDEST CALLVALUE PUSH2 0x37F JUMPI PUSH1 0x20 CALLDATASIZE PUSH1 0x3 NOT ADD SLT PUSH2 0x37F JUMPI PUSH1 0x20 SWAP3 POP SLOAD SWAP1 MLOAD SWAP1 DUP2 MSTORE RETURN JUMPDEST POP CALLVALUE PUSH2 0x195 JUMPI DUP2 PUSH1 0x3 NOT CALLDATASIZE ADD SLT PUSH2 0x195 JUMPI PUSH1 0x20 SWAP1 PUSH1 0x3 SLOAD SWAP1 MLOAD SWAP1 DUP2 MSTORE RETURN JUMPDEST SWAP1 POP CALLVALUE PUSH2 0x195 JUMPI PUSH1 0x20 CALLDATASIZE PUSH1 0x3 NOT ADD SLT PUSH2 0x195 JUMPI DUP1 CALLDATALOAD SWAP1 SSTORE DUP1 RETURN JUMPDEST POP CALLVALUE PUSH2 0x195 JUMPI DUP2 PUSH1 0x3 NOT CALLDATASIZE ADD SLT PUSH2 0x195 JUMPI MLOAD PUSH32 0x0 PUSH1 0x1 PUSH1 0x1 PUSH1 0xA0 SHL SUB AND DUP2 MSTORE PUSH1 0x20 SWAP1 RETURN JUMPDEST POP CALLVALUE PUSH2 0x195 JUMPI DUP2 PUSH1 0x3 NOT CALLDATASIZE ADD SLT PUSH2 0x195 JUMPI PUSH1 0x20 SWAP1 MLOAD PUSH1 0x1 DUP2 MSTORE RETURN JUMPDEST SWAP3 POP CALLVALUE PUSH2 0x195 JUMPI PUSH1 0x20 SWAP3 DUP4 PUSH1 0x3 NOT CALLDATASIZE ADD SLT PUSH2 0x37F JUMPI DUP1 CALLDATALOAD SWAP1 CALLER DUP5 MSTORE PUSH1 0x6 DUP6 MSTORE DUP2 DUP4 DUP6 KECCAK256 SLOAD LT PUSH2 0x96E JUMPI POP DUP2 PUSH2 0x8D1 DUP3 PUSH2 0xF4B JUMP JUMPDEST SWAP4 CALLER DUP2 MSTORE PUSH1 0x6 DUP7 MSTORE KECCAK256 PUSH2 0x8E5 DUP3 DUP3 SLOAD PUSH2 0xE3C JUMP JUMPDEST SWAP1 SSTORE PUSH2 0x8F3 DUP2 PUSH1 0x2 SLOAD PUSH2 0xE3C JUMP JUMPDEST PUSH1 0x2 SSTORE PUSH2 0x902 DUP4 PUSH1 0x1 SLOAD PUSH2 0xE3C JUMP JUMPDEST PUSH1 0x1 SSTORE PUSH2 0x939 DUP4 CALLER PUSH32 0x0 PUSH1 0x1 PUSH1 0x1 PUSH1 0xA0 SHL SUB AND PUSH2 0xE49 JUMP JUMPDEST DUP2 MLOAD SWAP1 DUP4 DUP3 MSTORE DUP5 DUP3 ADD MSTORE PUSH32 0xDF273CB619D95419A9CD0EC88123A0538C85064229BAA6363788F743FFF90DEB DUP3 CALLER SWAP3 LOG2 MLOAD SWAP1 DUP2 MSTORE RETURN JUMPDEST DUP3 MLOAD PUSH3 0x461BCD PUSH1 0xE5 SHL DUP2 MSTORE SWAP1 DUP2 ADD DUP6 SWAP1 MSTORE PUSH1 0x13 PUSH1 0x24 DUP3 ADD MSTORE PUSH19 0x496E73756666696369656E7420736861726573 PUSH1 0x68 SHL PUSH1 0x44 DUP3 ADD MSTORE PUSH1 0x64 SWAP1 REVERT JUMPDEST SWAP2 CALLVALUE PUSH2 0x1BF JUMPI PUSH1 0x20 CALLDATASIZE PUSH1 0x3 NOT ADD SLT PUSH2 0x1BF JUMPI POP PUSH2 0x1B8 PUSH1 0x20 SWAP3 CALLDATALOAD PUSH2 0xF4B JUMP JUMPDEST POP CALLVALUE PUSH2 0x195 JUMPI DUP2 PUSH1 0x3 NOT CALLDATASIZE ADD SLT PUSH2 0x195 JUMPI DUP1 MLOAD SWAP1 DUP3 DUP1 SLOAD PUSH2 0x9E6 DUP2 PUSH2 0xBF8 JUMP JUMPDEST DUP1 DUP6 MSTORE SWAP2 PUSH1 0x1 SWAP2 DUP1 DUP4 AND SWAP1 DUP2 ISZERO PUSH2 0xA84 JUMPI POP PUSH1 0x1 EQ PUSH2 0xA28 JUMPI JUMPDEST POP POP POP PUSH2 0xA12 DUP3 PUSH2 0xA24 SWAP5 SUB DUP4 PUSH2 0xBBA JUMP JUMPDEST MLOAD SWAP2 DUP3 SWAP2 PUSH1 0x20 DUP4 MSTORE PUSH1 0x20 DUP4 ADD SWAP1 PUSH2 0xB0D JUMP JUMPDEST SUB SWAP1 RETURN JUMPDEST DUP1 DUP1 SWAP7 POP MSTORE PUSH32 0x290DECD9548B62A8D60345A988386FC84BA6BC95484008F6362F93160EF3E563 JUMPDEST DUP3 DUP7 LT PUSH2 0xA6C JUMPI POP POP POP PUSH2 0xA12 DUP3 PUSH1 0x20 PUSH2 0xA24 SWAP6 DUP3 ADD ADD SWAP5 PUSH2 0xA00 JUMP JUMPDEST DUP1 SLOAD PUSH1 0x20 DUP8 DUP8 ADD DUP2 ADD SWAP2 SWAP1 SWAP2 MSTORE SWAP1 SWAP6 ADD SWAP5 DUP2 ADD PUSH2 0xA4F JUMP JUMPDEST PUSH2 0xA24 SWAP8 POP DUP7 SWAP4 POP PUSH1 0x20 SWAP3 POP PUSH2 0xA12 SWAP5 SWAP2 POP PUSH1 0xFF NOT AND DUP3 DUP5 ADD MSTORE ISZERO ISZERO PUSH1 0x5 SHL DUP3 ADD ADD SWAP5 PUSH2 0xA00 JUMP JUMPDEST SWAP2 CALLVALUE PUSH2 0x1BF JUMPI DUP2 PUSH1 0x3 NOT CALLDATASIZE ADD SLT PUSH2 0x1BF JUMPI POP PUSH4 0x1E13380 PUSH2 0xAE2 PUSH1 0x20 SWAP4 PUSH2 0x2710 PUSH2 0xADC PUSH1 0x24 CALLDATALOAD SWAP3 DUP1 SLOAD SWAP1 CALLDATALOAD PUSH2 0xC32 JUMP JUMPDEST DIV PUSH2 0xC32 JUMP JUMPDEST DIV SWAP1 MLOAD SWAP1 DUP2 MSTORE RETURN JUMPDEST CALLVALUE PUSH2 0xB08 JUMPI PUSH1 0x0 CALLDATASIZE PUSH1 0x3 NOT ADD SLT PUSH2 0xB08 JUMPI PUSH1 0x20 PUSH1 0x1 SLOAD PUSH1 0x40 MLOAD SWAP1 DUP2 MSTORE RETURN JUMPDEST PUSH1 0x0 DUP1 REVERT JUMPDEST SWAP2 SWAP1 DUP3 MLOAD SWAP3 DUP4 DUP3 MSTORE PUSH1 0x0 JUMPDEST DUP5 DUP2 LT PUSH2 0xB39 JUMPI POP POP DUP3 PUSH1 0x0 PUSH1 0x20 DUP1 SWAP5 SWAP6 DUP5 ADD ADD MSTORE PUSH1 0x1F DUP1 NOT SWAP2 ADD AND ADD ADD SWAP1 JUMP JUMPDEST PUSH1 0x20 DUP2 DUP4 ADD DUP2 ADD MLOAD DUP5 DUP4 ADD DUP3 ADD MSTORE ADD PUSH2 0xB18 JUMP JUMPDEST CALLVALUE PUSH2 0xB08 JUMPI PUSH1 0x0 CALLDATASIZE PUSH1 0x3 NOT ADD SLT PUSH2 0xB08 JUMPI PUSH1 0x20 PUSH1 0x4 SLOAD PUSH1 0x40 MLOAD SWAP1 DUP2 MSTORE RETURN JUMPDEST PUSH2 0x100 DUP2 ADD SWAP1 DUP2 LT PUSH8 0xFFFFFFFFFFFFFFFF DUP3 GT OR PUSH2 0xB88 JUMPI PUSH1 0x40 MSTORE JUMP JUMPDEST PUSH4 0x4E487B71 PUSH1 0xE0 SHL PUSH1 0x0 MSTORE PUSH1 0x41 PUSH1 0x4 MSTORE PUSH1 0x24 PUSH1 0x0 REVERT JUMPDEST PUSH1 0x40 DUP2 ADD SWAP1 DUP2 LT PUSH8 0xFFFFFFFFFFFFFFFF DUP3 GT OR PUSH2 0xB88 JUMPI PUSH1 0x40 MSTORE JUMP JUMPDEST SWAP1 PUSH1 0x1F DUP1 NOT SWAP2 ADD AND DUP2 ADD SWAP1 DUP2 LT PUSH8 0xFFFFFFFFFFFFFFFF DUP3 GT OR PUSH2 0xB88 JUMPI PUSH1 0x40 MSTORE JUMP JUMPDEST PUSH8 0xFFFFFFFFFFFFFFFF DUP2 GT PUSH2 0xB88 JUMPI PUSH1 0x1F ADD PUSH1 0x1F NOT AND PUSH1 0x20 ADD SWAP1 JUMP JUMPDEST SWAP1 PUSH1 0x1 DUP3 DUP2 SHR SWAP3 AND DUP1 ISZERO PUSH2 0xC28 JUMPI JUMPDEST PUSH1 0x20 DUP4 LT EQ PUSH2 0xC12 JUMPI JUMP JUMPDEST PUSH4 0x4E487B71 PUSH1 0xE0 SHL PUSH1 0x0 MSTORE PUSH1 0x22 PUSH1 0x4 MSTORE PUSH1 0x24 PUSH1 0x0 REVERT JUMPDEST SWAP2 PUSH1 0x7F AND SWAP2 PUSH2 0xC07 JUMP JUMPDEST DUP2 DUP2 MUL SWAP3 SWAP2 DUP2 ISZERO SWAP2 DUP5 DIV EQ OR ISZERO PUSH2 0xC45 JUMPI JUMP JUMPDEST PUSH4 0x4E487B71 PUSH1 0xE0 SHL PUSH1 0x0 MSTORE PUSH1 0x11 PUSH1 0x4 MSTORE PUSH1 0x24 PUSH1 0x0 REVERT JUMPDEST DUP2 ISZERO PUSH2 0xC65 JUMPI DIV SWAP1 JUMP JUMPDEST PUSH4 0x4E487B71 PUSH1 0xE0 SHL PUSH1 0x0 MSTORE PUSH1 0x12 PUSH1 0x4 MSTORE PUSH1 0x24 PUSH1 0x0 REVERT JUMPDEST SWAP2 SWAP1 DUP3 ADD DUP1 SWAP3 GT PUSH2 0xC45 JUMPI JUMP JUMPDEST PUSH1 0x1 DUP1 PUSH1 0xA0 SHL SUB AND SWAP1 PUSH2 0xD05 PUSH1 0x40 MLOAD PUSH2 0xCA0 DUP2 PUSH2 0xB9E JUMP JUMPDEST PUSH1 0x20 SWAP4 DUP5 DUP3 MSTORE PUSH32 0x5361666545524332303A206C6F772D6C6576656C2063616C6C206661696C6564 DUP6 DUP4 ADD MSTORE PUSH1 0x0 DUP1 DUP6 DUP8 DUP3 SWAP8 MLOAD SWAP2 ADD DUP3 DUP6 GAS CALL RETURNDATASIZE ISZERO PUSH2 0xD9B JUMPI RETURNDATASIZE SWAP2 PUSH2 0xCEA DUP4 PUSH2 0xBDC JUMP JUMPDEST SWAP3 PUSH2 0xCF8 PUSH1 0x40 MLOAD SWAP5 DUP6 PUSH2 0xBBA JUMP JUMPDEST DUP4 MSTORE RETURNDATASIZE DUP7 DUP9 DUP6 ADD RETURNDATACOPY PUSH2 0xD9F JUMP JUMPDEST DUP1 MLOAD SWAP2 DUP3 ISZERO SWAP2 DUP5 DUP4 ISZERO PUSH2 0xD77 JUMPI JUMPDEST POP POP POP SWAP1 POP ISZERO PUSH2 0xD20 JUMPI POP JUMP JUMPDEST PUSH1 0x84 SWAP1 PUSH1 0x40 MLOAD SWAP1 PUSH3 0x461BCD PUSH1 0xE5 SHL DUP3 MSTORE PUSH1 0x4 DUP3 ADD MSTORE PUSH1 0x2A PUSH1 0x24 DUP3 ADD MSTORE PUSH32 0x5361666545524332303A204552433230206F7065726174696F6E20646964206E PUSH1 0x44 DUP3 ADD MSTORE PUSH10 0x1BDD081CDD58D8D95959 PUSH1 0xB2 SHL PUSH1 0x64 DUP3 ADD MSTORE REVERT JUMPDEST SWAP2 SWAP4 DUP2 DUP1 SWAP5 POP ADD SUB SLT PUSH2 0x195 JUMPI DUP3 ADD MLOAD SWAP1 DUP2 ISZERO ISZERO DUP3 SUB PUSH2 0x1BF JUMPI POP DUP1 CODESIZE DUP1 DUP5 PUSH2 0xD13 JUMP JUMPDEST PUSH1 0x60 SWAP2 JUMPDEST SWAP2 SWAP3 SWAP1 ISZERO PUSH2 0xE01 JUMPI POP DUP2 MLOAD ISZERO PUSH2 0xDB3 JUMPI POP SWAP1 JUMP JUMPDEST EXTCODESIZE ISZERO PUSH2 0xDBC JUMPI SWAP1 JUMP JUMPDEST PUSH1 0x40 MLOAD PUSH3 0x461BCD PUSH1 0xE5 SHL DUP2 MSTORE PUSH1 0x20 PUSH1 0x4 DUP3 ADD MSTORE PUSH1 0x1D PUSH1 0x24 DUP3 ADD MSTORE PUSH32 0x416464726573733A2063616C6C20746F206E6F6E2D636F6E7472616374000000 PUSH1 0x44 DUP3 ADD MSTORE PUSH1 0x64 SWAP1 REVERT JUMPDEST DUP3 MLOAD SWAP1 SWAP2 POP ISZERO PUSH2 0xE14 JUMPI POP DUP1 MLOAD SWAP1 PUSH1 0x20 ADD REVERT JUMPDEST PUSH1 0x40 MLOAD PUSH3 0x461BCD PUSH1 0xE5 SHL DUP2 MSTORE PUSH1 0x20 PUSH1 0x4 DUP3 ADD MSTORE SWAP1 DUP2 SWAP1 PUSH2 0xE38 SWAP1 PUSH1 0x24 DUP4 ADD SWAP1 PUSH2 0xB0D JUMP JUMPDEST SUB SWAP1 REVERT JUMPDEST SWAP2 SWAP1 DUP3 SUB SWAP2 DUP3 GT PUSH2 0xC45 JUMPI JUMP JUMPDEST PUSH1 0x40 MLOAD PUSH4 0xA9059CBB PUSH1 0xE0 SHL PUSH1 0x20 DUP3 ADD MSTORE PUSH1 0x1 PUSH1 0x1 PUSH1 0xA0 SHL SUB SWAP1 SWAP3 AND PUSH1 0x24 DUP4 ADD MSTORE PUSH1 0x44 DUP1 DUP4 ADD SWAP4 SWAP1 SWAP4 MSTORE SWAP2 DUP2 MSTORE PUSH1 0x80 DUP2 ADD SWAP2 PUSH8 0xFFFFFFFFFFFFFFFF DUP4 GT DUP3 DUP5 LT OR PUSH2 0xB88 JUMPI PUSH2 0xE99 SWAP3 PUSH1 0x40 MSTORE PUSH2 0xC88 JUMP JUMPDEST JUMP JUMPDEST PUSH1 0x1 PUSH1 0x1 PUSH1 0xA0 SHL SUB DUP2 DUP2 AND PUSH1 0x0 DUP2 DUP2 MSTORE PUSH1 0x6 PUSH1 0x20 MSTORE PUSH1 0x40 DUP2 KECCAK256 SLOAD SWAP1 SWAP4 SWAP1 SWAP3 DUP4 ISZERO PUSH2 0xF22 JUMPI PUSH2 0xEE6 DUP5 PUSH2 0xECF PUSH2 0xF1F SWAP7 PUSH2 0xF4B JUMP JUMPDEST SWAP7 DUP8 SWAP6 DUP2 MSTORE PUSH1 0x6 PUSH1 0x20 MSTORE PUSH1 0x40 DUP2 KECCAK256 SSTORE PUSH1 0x2 SLOAD PUSH2 0xE3C JUMP JUMPDEST PUSH1 0x2 SSTORE PUSH2 0xEF5 DUP4 PUSH1 0x1 SLOAD PUSH2 0xE3C JUMP JUMPDEST PUSH1 0x1 SSTORE PUSH32 0x0 AND PUSH2 0xE49 JUMP JUMPDEST SWAP1 JUMP JUMPDEST POP POP POP POP SWAP1 JUMP JUMPDEST PUSH1 0x1 SLOAD DUP1 ISZERO PUSH2 0xF47 JUMPI PUSH2 0xF42 PUSH2 0xF1F SWAP3 PUSH1 0x2 SLOAD SWAP1 PUSH2 0xC32 JUMP JUMPDEST PUSH2 0xC5B JUMP JUMPDEST POP SWAP1 JUMP JUMPDEST PUSH1 0x2 SLOAD DUP1 ISZERO PUSH2 0xF47 JUMPI PUSH2 0xF42 PUSH2 0xF1F SWAP3 PUSH1 0x1 SLOAD SWAP1 PUSH2 0xC32 JUMP INVALID LOG2 PUSH5 0x6970667358 0x22 SLT KECCAK256 GAS 0xEA 0xD6 0xAA PUSH2 0xA8B3 RETURNDATACOPY 0xD7 0x5E DUP7 0xF9 CALLER INVALID 0xD8 0xC5 CREATE2 0xA9 0x23 SWAP15 0xB7 EXTCODEHASH SWAP14 SELFBALANCE PUSH18 0xD96E9E11F9D5464736F6C63430008140033 "},"gasEstimates":{"creation":{"codeDepositCost":"798800","executionCost":"infinite","totalCost":"infinite"},"external":{"asset()":"infinite","balanceOf(address)":"2710","calculateUserYield(address)":"4727","calculateYield(uint256,uint256)":"infinite","convertToAssets(uint256)":"4631","convertToShares(uint256)":"5071","currentAPY()":"2698","deposit(uint256)":"infinite","emergencyWithdraw(address)":"infinite","getCurrentAPY()":"2676","getPerformanceData(uint256)":"2490","getRiskScore()":"255","getStrategyInfo()":"infinite","getTotalYieldGenerated()":"2471","harvestYield()":"6205","isProfitable()":"299","maxCapacity()":"412","name()":"infinite","setCurrentAPY(uint256)":"22434","setName(string)":"infinite","setShouldFail(bool)":"24850","setUserYield(uint256)":"22607","totalAssets()":"2268","totalDeposited()":"2833","utilizationRate()":"infinite","withdraw(uint256)":"infinite"}},"methodIdentifiers":{"asset()":"38d52e0f","balanceOf(address)":"70a08231","calculateUserYield(address)":"6f7c99d2","calculateYield(uint256,uint256)":"043cbe5b","convertToAssets(uint256)":"07a2d13a","convertToShares(uint256)":"c6e6f592","currentAPY()":"9a79d32b","deposit(uint256)":"b6b55f25","emergencyWithdraw(address)":"6ff1c9bc","getCurrentAPY()":"962ca496","getPerformanceData(uint256)":"3fd18893","getRiskScore()":"2b35f739","getStrategyInfo()":"9613092d","getTotalYieldGenerated()":"39c1a8e8","harvestYield()":"e8d991d1","isProfitable()":"3612ddda","maxCapacity()":"59b6a0c9","name()":"06fdde03","setCurrentAPY(uint256)":"39a24333","setName(string)":"c47f0027","setShouldFail(bool)":"a5aa5c12","setUserYield(uint256)":"8b66268c","totalAssets()":"01e1d114","totalDeposited()":"ff50abdc","utilizationRate()":"6c321c8a","withdraw(uint256)":"2e1a7d4d"}},"storageLayout":{"storage":[{"astId":1017,"contract":"src/mocks/MockYieldStrategy.sol:MockYieldStrategy","label":"_name","offset":0,"slot":"0","type":"t_string_storage"},{"astId":1019,"contract":"src/mocks/MockYieldStrategy.sol:MockYieldStrategy","label":"_totalAssets","offset":0,"slot":"1","type":"t_uint256"},{"astId":1021,"contract":"src/mocks/MockYieldStrategy.sol:MockYieldStrategy","label":"_totalShares","offset":0,"slot":"2","type":"t_uint256"},{"astId":1023,"contract":"src/mocks/MockYieldStrategy.sol:MockYieldStrategy","label":"_userYield","offset":0,"slot":"3","type":"t_uint256"},{"astId":1026,"contract":"src/mocks/MockYieldStrategy.sol:MockYieldStrategy","label":"_currentAPY","offset":0,"slot":"4","type":"t_uint256"},{"astId":1029,"contract":"src/mocks/MockYieldStrategy.sol:MockYieldStrategy","label":"_shouldFail","offset":0,"slot":"5","type":"t_bool"},{"astId":1033,"contract":"src/mocks/MockYieldStrategy.sol:MockYieldStrategy","label":"_balances","offset":0,"slot":"6","type":"t_mapping(t_address,t_uint256)"}],"types":{"t_address":{"encoding":"inplace","label":"address","numberOfBytes":"20"},"t_bool":{"encoding":"inplace","label":"bool","numberOfBytes":"1"},"t_mapping(t_address,t_uint256)":{"encoding":"mapping","key":"t_address","label":"mapping(address => uint256)","numberOfBytes":"32","value":"t_uint256"},"t_string_storage":{"encoding":"bytes","label":"string","numberOfBytes":"32"},"t_uint256":{"encoding":"inplace","label":"uint256","numberOfBytes":"32"}}},"userdoc":{"kind":"user","methods":{},"version":1}}}}