{
  "_format": "hh-sol-artifact-1",
  "contractName": "CrossChainBridge",
  "sourceName": "src/CrossChainBridge.sol",
  "abi": [
    {
      "inputs": [
        {
          "internalType": "address",
          "name": "_yieldEscrow",
          "type": "address"
        },
        {
          "internalType": "address",
          "name": "_yieldVault",
          "type": "address"
        },
        {
          "internalType": "address",
          "name": "_feeCollector",
          "type": "address"
        }
      ],
      "stateMutability": "nonpayable",
      "type": "constructor"
    },
    {
      "inputs": [],
      "name": "InsufficientValidations",
      "type": "error"
    },
    {
      "inputs": [],
      "name": "InvalidAmount",
      "type": "error"
    },
    {
      "inputs": [],
      "name": "InvalidFee",
      "type": "error"
    },
    {
      "inputs": [],
      "name": "InvalidRecipient",
      "type": "error"
    },
    {
      "inputs": [
        {
          "internalType": "enum CrossChainBridge.BridgeStatus",
          "name": "current",
          "type": "uint8"
        },
        {
          "internalType": "enum CrossChainBridge.BridgeStatus",
          "name": "expected",
          "type": "uint8"
        }
      ],
      "name": "InvalidStatus",
      "type": "error"
    },
    {
      "inputs": [
        {
          "internalType": "bytes32",
          "name": "transactionId",
          "type": "bytes32"
        }
      ],
      "name": "TransactionAlreadyProcessed",
      "type": "error"
    },
    {
      "inputs": [],
      "name": "UnauthorizedValidator",
      "type": "error"
    },
    {
      "inputs": [
        {
          "internalType": "uint256",
          "name": "chainId",
          "type": "uint256"
        }
      ],
      "name": "UnsupportedChain",
      "type": "error"
    },
    {
      "inputs": [
        {
          "internalType": "address",
          "name": "token",
          "type": "address"
        }
      ],
      "name": "UnsupportedToken",
      "type": "error"
    },
    {
      "anonymous": false,
      "inputs": [
        {
          "indexed": true,
          "internalType": "bytes32",
          "name": "transactionId",
          "type": "bytes32"
        },
        {
          "indexed": true,
          "internalType": "address",
          "name": "recipient",
          "type": "address"
        },
        {
          "indexed": false,
          "internalType": "uint256",
          "name": "amount",
          "type": "uint256"
        },
        {
          "indexed": false,
          "internalType": "uint256",
          "name": "yield",
          "type": "uint256"
        }
      ],
      "name": "BridgeCompleted",
      "type": "event"
    },
    {
      "anonymous": false,
      "inputs": [
        {
          "indexed": true,
          "internalType": "bytes32",
          "name": "transactionId",
          "type": "bytes32"
        },
        {
          "indexed": false,
          "internalType": "string",
          "name": "reason",
          "type": "string"
        }
      ],
      "name": "BridgeFailed",
      "type": "event"
    },
    {
      "anonymous": false,
      "inputs": [
        {
          "indexed": true,
          "internalType": "bytes32",
          "name": "transactionId",
          "type": "bytes32"
        },
        {
          "indexed": true,
          "internalType": "address",
          "name": "sender",
          "type": "address"
        },
        {
          "indexed": false,
          "internalType": "uint256",
          "name": "amount",
          "type": "uint256"
        },
        {
          "indexed": false,
          "internalType": "uint256",
          "name": "sourceChainId",
          "type": "uint256"
        },
        {
          "indexed": false,
          "internalType": "uint256",
          "name": "destinationChainId",
          "type": "uint256"
        }
      ],
      "name": "BridgeInitiated",
      "type": "event"
    },
    {
      "anonymous": false,
      "inputs": [
        {
          "indexed": true,
          "internalType": "bytes32",
          "name": "transactionId",
          "type": "bytes32"
        },
        {
          "indexed": true,
          "internalType": "address",
          "name": "validator",
          "type": "address"
        },
        {
          "indexed": false,
          "internalType": "uint256",
          "name": "timestamp",
          "type": "uint256"
        }
      ],
      "name": "BridgeValidated",
      "type": "event"
    },
    {
      "anonymous": false,
      "inputs": [
        {
          "indexed": true,
          "internalType": "uint256",
          "name": "chainId",
          "type": "uint256"
        }
      ],
      "name": "ChainAdded",
      "type": "event"
    },
    {
      "anonymous": false,
      "inputs": [
        {
          "indexed": true,
          "internalType": "uint256",
          "name": "chainId",
          "type": "uint256"
        }
      ],
      "name": "ChainRemoved",
      "type": "event"
    },
    {
      "anonymous": false,
      "inputs": [
        {
          "indexed": false,
          "internalType": "address",
          "name": "newCollector",
          "type": "address"
        }
      ],
      "name": "FeeCollectorUpdated",
      "type": "event"
    },
    {
      "anonymous": false,
      "inputs": [
        {
          "indexed": false,
          "internalType": "uint256",
          "name": "newFee",
          "type": "uint256"
        }
      ],
      "name": "FeeUpdated",
      "type": "event"
    },
    {
      "anonymous": false,
      "inputs": [
        {
          "indexed": false,
          "internalType": "address",
          "name": "account",
          "type": "address"
        }
      ],
      "name": "Paused",
      "type": "event"
    },
    {
      "anonymous": false,
      "inputs": [
        {
          "indexed": true,
          "internalType": "bytes32",
          "name": "role",
          "type": "bytes32"
        },
        {
          "indexed": true,
          "internalType": "bytes32",
          "name": "previousAdminRole",
          "type": "bytes32"
        },
        {
          "indexed": true,
          "internalType": "bytes32",
          "name": "newAdminRole",
          "type": "bytes32"
        }
      ],
      "name": "RoleAdminChanged",
      "type": "event"
    },
    {
      "anonymous": false,
      "inputs": [
        {
          "indexed": true,
          "internalType": "bytes32",
          "name": "role",
          "type": "bytes32"
        },
        {
          "indexed": true,
          "internalType": "address",
          "name": "account",
          "type": "address"
        },
        {
          "indexed": true,
          "internalType": "address",
          "name": "sender",
          "type": "address"
        }
      ],
      "name": "RoleGranted",
      "type": "event"
    },
    {
      "anonymous": false,
      "inputs": [
        {
          "indexed": true,
          "internalType": "bytes32",
          "name": "role",
          "type": "bytes32"
        },
        {
          "indexed": true,
          "internalType": "address",
          "name": "account",
          "type": "address"
        },
        {
          "indexed": true,
          "internalType": "address",
          "name": "sender",
          "type": "address"
        }
      ],
      "name": "RoleRevoked",
      "type": "event"
    },
    {
      "anonymous": false,
      "inputs": [
        {
          "indexed": true,
          "internalType": "address",
          "name": "token",
          "type": "address"
        }
      ],
      "name": "TokenAdded",
      "type": "event"
    },
    {
      "anonymous": false,
      "inputs": [
        {
          "indexed": true,
          "internalType": "address",
          "name": "token",
          "type": "address"
        }
      ],
      "name": "TokenRemoved",
      "type": "event"
    },
    {
      "anonymous": false,
      "inputs": [
        {
          "indexed": false,
          "internalType": "address",
          "name": "account",
          "type": "address"
        }
      ],
      "name": "Unpaused",
      "type": "event"
    },
    {
      "inputs": [],
      "name": "ARBITRUM_CHAIN_ID",
      "outputs": [
        {
          "internalType": "uint256",
          "name": "",
          "type": "uint256"
        }
      ],
      "stateMutability": "view",
      "type": "function"
    },
    {
      "inputs": [],
      "name": "BASE_CHAIN_ID",
      "outputs": [
        {
          "internalType": "uint256",
          "name": "",
          "type": "uint256"
        }
      ],
      "stateMutability": "view",
      "type": "function"
    },
    {
      "inputs": [],
      "name": "BASIS_POINTS",
      "outputs": [
        {
          "internalType": "uint256",
          "name": "",
          "type": "uint256"
        }
      ],
      "stateMutability": "view",
      "type": "function"
    },
    {
      "inputs": [],
      "name": "BRIDGE_OPERATOR_ROLE",
      "outputs": [
        {
          "internalType": "bytes32",
          "name": "",
          "type": "bytes32"
        }
      ],
      "stateMutability": "view",
      "type": "function"
    },
    {
      "inputs": [],
      "name": "DEFAULT_ADMIN_ROLE",
      "outputs": [
        {
          "internalType": "bytes32",
          "name": "",
          "type": "bytes32"
        }
      ],
      "stateMutability": "view",
      "type": "function"
    },
    {
      "inputs": [],
      "name": "ETHEREUM_CHAIN_ID",
      "outputs": [
        {
          "internalType": "uint256",
          "name": "",
          "type": "uint256"
        }
      ],
      "stateMutability": "view",
      "type": "function"
    },
    {
      "inputs": [],
      "name": "POLYGON_CHAIN_ID",
      "outputs": [
        {
          "internalType": "uint256",
          "name": "",
          "type": "uint256"
        }
      ],
      "stateMutability": "view",
      "type": "function"
    },
    {
      "inputs": [],
      "name": "SOLANA_CHAIN_ID",
      "outputs": [
        {
          "internalType": "uint256",
          "name": "",
          "type": "uint256"
        }
      ],
      "stateMutability": "view",
      "type": "function"
    },
    {
      "inputs": [],
      "name": "VALIDATOR_ROLE",
      "outputs": [
        {
          "internalType": "bytes32",
          "name": "",
          "type": "bytes32"
        }
      ],
      "stateMutability": "view",
      "type": "function"
    },
    {
      "inputs": [],
      "name": "XRPL_CHAIN_ID",
      "outputs": [
        {
          "internalType": "uint256",
          "name": "",
          "type": "uint256"
        }
      ],
      "stateMutability": "view",
      "type": "function"
    },
    {
      "inputs": [
        {
          "internalType": "uint256",
          "name": "chainId",
          "type": "uint256"
        }
      ],
      "name": "addSupportedChain",
      "outputs": [],
      "stateMutability": "nonpayable",
      "type": "function"
    },
    {
      "inputs": [
        {
          "internalType": "address",
          "name": "token",
          "type": "address"
        }
      ],
      "name": "addSupportedToken",
      "outputs": [],
      "stateMutability": "nonpayable",
      "type": "function"
    },
    {
      "inputs": [],
      "name": "bridgeFee",
      "outputs": [
        {
          "internalType": "uint256",
          "name": "",
          "type": "uint256"
        }
      ],
      "stateMutability": "view",
      "type": "function"
    },
    {
      "inputs": [
        {
          "internalType": "bytes32",
          "name": "",
          "type": "bytes32"
        }
      ],
      "name": "bridgeTransactions",
      "outputs": [
        {
          "internalType": "address",
          "name": "sender",
          "type": "address"
        },
        {
          "internalType": "address",
          "name": "recipient",
          "type": "address"
        },
        {
          "internalType": "uint256",
          "name": "amount",
          "type": "uint256"
        },
        {
          "internalType": "address",
          "name": "token",
          "type": "address"
        },
        {
          "internalType": "uint256",
          "name": "sourceChainId",
          "type": "uint256"
        },
        {
          "internalType": "uint256",
          "name": "destinationChainId",
          "type": "uint256"
        },
        {
          "internalType": "uint256",
          "name": "timestamp",
          "type": "uint256"
        },
        {
          "internalType": "uint256",
          "name": "accruedYield",
          "type": "uint256"
        },
        {
          "internalType": "bytes32",
          "name": "transactionHash",
          "type": "bytes32"
        },
        {
          "internalType": "enum CrossChainBridge.BridgeStatus",
          "name": "status",
          "type": "uint8"
        }
      ],
      "stateMutability": "view",
      "type": "function"
    },
    {
      "inputs": [
        {
          "internalType": "uint256",
          "name": "amount",
          "type": "uint256"
        },
        {
          "internalType": "uint256",
          "name": "timeElapsed",
          "type": "uint256"
        }
      ],
      "name": "calculateBridgeYield",
      "outputs": [
        {
          "internalType": "uint256",
          "name": "",
          "type": "uint256"
        }
      ],
      "stateMutability": "view",
      "type": "function"
    },
    {
      "inputs": [
        {
          "internalType": "uint256",
          "name": "",
          "type": "uint256"
        }
      ],
      "name": "chainValidators",
      "outputs": [
        {
          "internalType": "address",
          "name": "",
          "type": "address"
        }
      ],
      "stateMutability": "view",
      "type": "function"
    },
    {
      "inputs": [
        {
          "internalType": "bytes32",
          "name": "transactionId",
          "type": "bytes32"
        },
        {
          "internalType": "bytes",
          "name": "sourceChainProof",
          "type": "bytes"
        }
      ],
      "name": "completeBridge",
      "outputs": [],
      "stateMutability": "nonpayable",
      "type": "function"
    },
    {
      "inputs": [
        {
          "internalType": "uint256",
          "name": "amount",
          "type": "uint256"
        }
      ],
      "name": "estimateBridgeFee",
      "outputs": [
        {
          "internalType": "uint256",
          "name": "",
          "type": "uint256"
        }
      ],
      "stateMutability": "view",
      "type": "function"
    },
    {
      "inputs": [],
      "name": "feeCollector",
      "outputs": [
        {
          "internalType": "address",
          "name": "",
          "type": "address"
        }
      ],
      "stateMutability": "view",
      "type": "function"
    },
    {
      "inputs": [
        {
          "internalType": "bytes32",
          "name": "transactionId",
          "type": "bytes32"
        }
      ],
      "name": "getBridgeTransaction",
      "outputs": [
        {
          "components": [
            {
              "internalType": "address",
              "name": "sender",
              "type": "address"
            },
            {
              "internalType": "address",
              "name": "recipient",
              "type": "address"
            },
            {
              "internalType": "uint256",
              "name": "amount",
              "type": "uint256"
            },
            {
              "internalType": "address",
              "name": "token",
              "type": "address"
            },
            {
              "internalType": "uint256",
              "name": "sourceChainId",
              "type": "uint256"
            },
            {
              "internalType": "uint256",
              "name": "destinationChainId",
              "type": "uint256"
            },
            {
              "internalType": "uint256",
              "name": "timestamp",
              "type": "uint256"
            },
            {
              "internalType": "uint256",
              "name": "accruedYield",
              "type": "uint256"
            },
            {
              "internalType": "bytes32",
              "name": "transactionHash",
              "type": "bytes32"
            },
            {
              "internalType": "enum CrossChainBridge.BridgeStatus",
              "name": "status",
              "type": "uint8"
            }
          ],
          "internalType": "struct CrossChainBridge.BridgeTransaction",
          "name": "",
          "type": "tuple"
        }
      ],
      "stateMutability": "view",
      "type": "function"
    },
    {
      "inputs": [
        {
          "internalType": "bytes32",
          "name": "role",
          "type": "bytes32"
        }
      ],
      "name": "getRoleAdmin",
      "outputs": [
        {
          "internalType": "bytes32",
          "name": "",
          "type": "bytes32"
        }
      ],
      "stateMutability": "view",
      "type": "function"
    },
    {
      "inputs": [
        {
          "internalType": "bytes32",
          "name": "role",
          "type": "bytes32"
        },
        {
          "internalType": "address",
          "name": "account",
          "type": "address"
        }
      ],
      "name": "grantRole",
      "outputs": [],
      "stateMutability": "nonpayable",
      "type": "function"
    },
    {
      "inputs": [
        {
          "internalType": "bytes32",
          "name": "role",
          "type": "bytes32"
        },
        {
          "internalType": "address",
          "name": "account",
          "type": "address"
        }
      ],
      "name": "hasRole",
      "outputs": [
        {
          "internalType": "bool",
          "name": "",
          "type": "bool"
        }
      ],
      "stateMutability": "view",
      "type": "function"
    },
    {
      "inputs": [
        {
          "internalType": "address",
          "name": "recipient",
          "type": "address"
        },
        {
          "internalType": "uint256",
          "name": "amount",
          "type": "uint256"
        },
        {
          "internalType": "address",
          "name": "token",
          "type": "address"
        },
        {
          "internalType": "uint256",
          "name": "destinationChainId",
          "type": "uint256"
        }
      ],
      "name": "initiateBridge",
      "outputs": [
        {
          "internalType": "bytes32",
          "name": "transactionId",
          "type": "bytes32"
        }
      ],
      "stateMutability": "nonpayable",
      "type": "function"
    },
    {
      "inputs": [
        {
          "internalType": "uint256",
          "name": "chainId",
          "type": "uint256"
        }
      ],
      "name": "isChainSupported",
      "outputs": [
        {
          "internalType": "bool",
          "name": "",
          "type": "bool"
        }
      ],
      "stateMutability": "view",
      "type": "function"
    },
    {
      "inputs": [
        {
          "internalType": "address",
          "name": "token",
          "type": "address"
        }
      ],
      "name": "isTokenSupported",
      "outputs": [
        {
          "internalType": "bool",
          "name": "",
          "type": "bool"
        }
      ],
      "stateMutability": "view",
      "type": "function"
    },
    {
      "inputs": [],
      "name": "pause",
      "outputs": [],
      "stateMutability": "nonpayable",
      "type": "function"
    },
    {
      "inputs": [],
      "name": "paused",
      "outputs": [
        {
          "internalType": "bool",
          "name": "",
          "type": "bool"
        }
      ],
      "stateMutability": "view",
      "type": "function"
    },
    {
      "inputs": [
        {
          "internalType": "bytes32",
          "name": "",
          "type": "bytes32"
        }
      ],
      "name": "processedTransactions",
      "outputs": [
        {
          "internalType": "bool",
          "name": "",
          "type": "bool"
        }
      ],
      "stateMutability": "view",
      "type": "function"
    },
    {
      "inputs": [
        {
          "internalType": "bytes32",
          "name": "transactionId",
          "type": "bytes32"
        },
        {
          "internalType": "string",
          "name": "reason",
          "type": "string"
        }
      ],
      "name": "refundBridge",
      "outputs": [],
      "stateMutability": "nonpayable",
      "type": "function"
    },
    {
      "inputs": [
        {
          "internalType": "uint256",
          "name": "chainId",
          "type": "uint256"
        }
      ],
      "name": "removeSupportedChain",
      "outputs": [],
      "stateMutability": "nonpayable",
      "type": "function"
    },
    {
      "inputs": [
        {
          "internalType": "address",
          "name": "token",
          "type": "address"
        }
      ],
      "name": "removeSupportedToken",
      "outputs": [],
      "stateMutability": "nonpayable",
      "type": "function"
    },
    {
      "inputs": [
        {
          "internalType": "bytes32",
          "name": "role",
          "type": "bytes32"
        },
        {
          "internalType": "address",
          "name": "account",
          "type": "address"
        }
      ],
      "name": "renounceRole",
      "outputs": [],
      "stateMutability": "nonpayable",
      "type": "function"
    },
    {
      "inputs": [
        {
          "internalType": "bytes32",
          "name": "role",
          "type": "bytes32"
        },
        {
          "internalType": "address",
          "name": "account",
          "type": "address"
        }
      ],
      "name": "revokeRole",
      "outputs": [],
      "stateMutability": "nonpayable",
      "type": "function"
    },
    {
      "inputs": [
        {
          "internalType": "uint256",
          "name": "",
          "type": "uint256"
        }
      ],
      "name": "supportedChains",
      "outputs": [
        {
          "internalType": "bool",
          "name": "",
          "type": "bool"
        }
      ],
      "stateMutability": "view",
      "type": "function"
    },
    {
      "inputs": [
        {
          "internalType": "address",
          "name": "",
          "type": "address"
        }
      ],
      "name": "supportedTokens",
      "outputs": [
        {
          "internalType": "bool",
          "name": "",
          "type": "bool"
        }
      ],
      "stateMutability": "view",
      "type": "function"
    },
    {
      "inputs": [
        {
          "internalType": "bytes4",
          "name": "interfaceId",
          "type": "bytes4"
        }
      ],
      "name": "supportsInterface",
      "outputs": [
        {
          "internalType": "bool",
          "name": "",
          "type": "bool"
        }
      ],
      "stateMutability": "view",
      "type": "function"
    },
    {
      "inputs": [],
      "name": "unpause",
      "outputs": [],
      "stateMutability": "nonpayable",
      "type": "function"
    },
    {
      "inputs": [
        {
          "internalType": "uint256",
          "name": "newFee",
          "type": "uint256"
        }
      ],
      "name": "updateBridgeFee",
      "outputs": [],
      "stateMutability": "nonpayable",
      "type": "function"
    },
    {
      "inputs": [
        {
          "internalType": "address",
          "name": "newCollector",
          "type": "address"
        }
      ],
      "name": "updateFeeCollector",
      "outputs": [],
      "stateMutability": "nonpayable",
      "type": "function"
    },
    {
      "inputs": [
        {
          "internalType": "bytes32",
          "name": "transactionId",
          "type": "bytes32"
        }
      ],
      "name": "validateBridgeTransaction",
      "outputs": [],
      "stateMutability": "nonpayable",
      "type": "function"
    },
    {
      "inputs": [],
      "name": "yieldEscrow",
      "outputs": [
        {
          "internalType": "contract YieldEscrow",
          "name": "",
          "type": "address"
        }
      ],
      "stateMutability": "view",
      "type": "function"
    },
    {
      "inputs": [],
      "name": "yieldVault",
      "outputs": [
        {
          "internalType": "contract YieldVault",
          "name": "",
          "type": "address"
        }
      ],
      "stateMutability": "view",
      "type": "function"
    }
  ],
  "bytecode": "0x60c034620002df57601f620023ee38819003918201601f191683019291906001600160401b03841183851017620002e4578160609284926040968752833981010312620002df576200005181620002fa565b9060206200006e8462000066838501620002fa565b9301620002fa565b9060019260009284845560ff19958660025416600255600a60095560018060a01b038091169283156200029b578116918215620002575716918215620002135760805260a052600a80546001600160a01b031916909117905581805282815284822033835281528482205485929160049160ff1615620001de575b7f7045adfe67d5f94dbfddcdb901e44bef55baacabb398c7cddda1bfd7620b1568808452858252848420338552825260ff858520541615620001a7575b5084835252818120838582541617905560028152818120838582541617905560038152818120838582541617905560898152818120838582541617905561a4b18152818120838582541617905561210581522091825416179055516120be908162000310823960805181610e84015260a05181818161096a0152611ff00152f35b8084528582528484203385528252848420868882541617905533903390600080516020620023ce8339815191528680a43862000126565b82805284815283832033845281528383208587825416179055333384600080516020620023ce8339815191528180a4620000e9565b875162461bcd60e51b815260048101859052601560248201527f496e76616c69642066656520636f6c6c6563746f7200000000000000000000006044820152606490fd5b885162461bcd60e51b815260048101869052601560248201527f496e76616c6964207661756c74206164647265737300000000000000000000006044820152606490fd5b885162461bcd60e51b815260048101869052601660248201527f496e76616c696420657363726f772061646472657373000000000000000000006044820152606490fd5b600080fd5b634e487b7160e01b600052604160045260246000fd5b51906001600160a01b0382168203620002df5756fe608080604052600436101561001357600080fd5b60003560e01c90816224a1b81461147c5750806301ffc9a714611426578063067bd07a1461140a5780630c4844aa146113b157806317606024146113885780631dac56d31461136c57806320eb563214611350578063248a9ca3146113215780632f2ff15d1461126e57806334284e4b1461103057806336568abe14610f9e5780633f4ba83a14610f0a57806348bf1c5114610eee5780634be40fd114610eb35780635221c1f014610e3d57806353e589ac14610e6e578063548d496f14610e3d5780635a1c036614610dd55780635c975abb14610db257806368c4ac2614610b695780636c5556b714610cb95780636c63f97114610c115780636d69fcaf14610ba857806375151b6314610b695780637631919014610b0357806382b12dd714610ae55780638456cb5914610a8b57806387188a0014610a2f57806391d14854146109e25780639822dded146109b5578063a217fddf14610999578063a7f8a5e214610954578063ac2e493614610923578063c06575f4146107aa578063c415b95c14610781578063c49baebe14610746578063c4a0158714610712578063c9a4d32f1461034a578063cdcdd5481461032d578063d2c35ce814610277578063d547741f14610236578063e1f1c4a7146102195763efc21e3f146101f757600080fd5b346102145760003660031901126102145760206040516121058152f35b600080fd5b346102145760003660031901126102145760206040516127108152f35b34610214576040366003190112610214576102756004356102556115ff565b90806000526001602052610270600160406000200154611986565b611b50565b005b3461021457602036600319011261021457610290611615565b610298611678565b6001600160a01b031680156102e8576020817fe5693914d19c789bdee50a362998c0bc8d035a835f9871da5d51152f0582c34f926001600160601b0360a01b600a541617600a55604051908152a1005b60405162461bcd60e51b815260206004820152601960248201527f496e76616c696420636f6c6c6563746f722061646472657373000000000000006044820152606490fd5b3461021457600036600319011261021457602060405161a4b18152f35b3461021457608036600319011261021457610363611615565b60249081356044356001600160a01b038116810361021457610383611d4a565b61038b611d06565b606435600052600460205260ff60406000205416156106f9576001600160a01b03811660009081526005602052604090205460ff16156106d85781156106c6576001600160a01b038316156106b4576127106103e960095484611bc6565b04906103f58284611cf9565b92604051926323b872dd60e01b602085015233878501523060448501528160648501526064845260a0840167ffffffffffffffff948082108683111761069f5760409190915261044e906001600160a01b038516611df2565b8061067e575b5060085492600019841461066957600184016008556040519360208501923360601b84526001600160601b031990818960601b16603488015260488701528460601b16606886015246607c860152606435609c86015260bc85015260bc84528360e08101109060e0850111176106545760e0830160405282519020936104dc60e08401611ab3565b3360e084015260018060a01b03166101008301528261012083015260018060a01b031661014082015246610160820152606435610180820152426101a082015260006101c0820152826101e082015260006102008201528260005260036020526102006009604060002060018060a01b0360e0850151166001600160601b0360a01b90818354161782556001820160018060a01b0361010087015116828254161790556101208501516002830155600382019060018060a01b036101408701511690825416179055610160840151600482015561018084015160058201556101a084015160068201556101c084015160078201556101e0840151600882015501910151600581101561063f576020945060ff8019835416911617905560405190815246838201526064356040820152817fcb59e257e7e6c29e3b2d154443821f4c7dfdee5401f775e13db6d7421c51d58060603393a36001600055604051908152f35b84634e487b7160e01b60005260216004526000fd5b85634e487b7160e01b60005260416004526000fd5b86634e487b7160e01b60005260116004526000fd5b600a5461069991906001600160a01b03908116908516611da0565b86610454565b88634e487b7160e01b60005260416004526000fd5b604051634e46966960e11b8152600490fd5b60405163162908e360e11b8152600490fd5b604051635f8b555b60e11b81526001600160a01b0390911660048201528390fd5b604051631874ab9360e31b815260643560048201528490fd5b34610214576020366003190112610214576004356000526007602052602060018060a01b0360406000205416604051908152f35b346102145760003660031901126102145760206040517f21702c8af46127c7fa207f89d0b0a8441bb32959a0ac7df790e9ab1a25c989268152f35b3461021457600036600319011261021457600a546040516001600160a01b039091168152602090f35b34610214576107b83661162b565b50506107c2611d4a565b6107ca61183f565b806000526003602052604060002090600660205260ff6040600020541661090b576009820160ff81541660058110156108f557600181036108ce5750610814600684015442611cf9565b9261082460028201948554611fda565b918360005260066020526002604060002060ff19906001828254161790558254161790558160078201558354918083018093116108b8577f43d0df41e1c07a3d313b4527a8a17595bfc156a6cc0d47045fe63b3aaffb2b47926040926108a160018060a01b03926001846003850154169301928484541690611da0565b541694549082519182526020820152a36001600055005b634e487b7160e01b600052601160045260246000fd5b60405163f924664d60e01b81526044916108ec9060048301906115f2565b60016024820152fd5b634e487b7160e01b600052602160045260246000fd5b602490604051906317cc742960e31b82526004820152fd5b34610214576020366003190112610214576004356000526006602052602060ff604060002054166040519015158152f35b34610214576000366003190112610214576040517f00000000000000000000000000000000000000000000000000000000000000006001600160a01b03168152602090f35b3461021457600036600319011261021457602060405160008152f35b346102145760203660031901126102145760206127106109d9600954600435611bc6565b04604051908152f35b34610214576040366003190112610214576109fb6115ff565b600435600052600160205260406000209060018060a01b0316600052602052602060ff604060002054166040519015158152f35b3461021457602036600319011261021457600435610a4b611678565b8060005260046020526040600020600160ff198254161790557fbba9d55e9fd1a441b1617724e2fdb76777d15ec77ab2b72ac15952cbe97085db600080a2005b3461021457600036600319011261021457610aa4611678565b610aac611d06565b600160ff1960025416176002557f62e78cea01bee320cd4e420270b5ea74000d11b0c9f74754ebdbfc544b05a2586020604051338152a1005b34610214576000366003190112610214576020600954604051908152f35b3461021457602036600319011261021457610b1c611615565b610b24611678565b6001600160a01b03166000818152600560205260408120805460ff191690557f4c910b69fe65a61f7531b9c5042b2329ca7179c77290aa7e2eb3afa3c8511fd39080a2005b34610214576020366003190112610214576001600160a01b03610b8a611615565b166000526005602052602060ff604060002054166040519015158152f35b3461021457602036600319011261021457610bc1611615565b610bc9611678565b6001600160a01b03166000818152600560205260408120805460ff191660011790557f784c8f4dbf0ffedd6e72c76501c545a70f8b203b30a26ce542bf92ba87c248a49080a2005b346102145760203660031901126102145760043560005260036020526101406040600020610cb760018060a01b0380835416928160018201541691600282015490600383015416600483015460058401549060068501549260078601549460ff6009600889015498015416976040519a8b5260208b015260408a01526060890152608088015260a087015260c086015260e08501526101008401526101208301906115f2565bf35b3461021457610cc73661162b565b90610cd061183f565b826000526003602052604060002060098101805460ff811660058110156108f557600281148015610da8575b610d81575060ff19166004179055600381015481546002909201547fd2b4dd79c80ad92da5a6dd7455df9e531b9ad078fe353998dc6fc5c442ddc34f94936040939092610d5692916001600160a01b039081169116611da0565b82825193849260208452816020850152848401376000828201840152601f01601f19168101030190a2005b60405163f924664d60e01b8152604491610d9f9060048301906115f2565b60006024820152fd5b5060048114610cfc565b3461021457600036600319011261021457602060ff600254166040519015158152f35b3461021457602036600319011261021457600435610df1611678565b6103e88111610e2b576020817f8c4d35e54a3f2ef1134138fd8ea3daee6a3c89e10d2665996babdf70261e2c7692600955604051908152a1005b6040516358d620b360e01b8152600490fd5b34610214576020366003190112610214576004356000526004602052602060ff604060002054166040519015158152f35b34610214576000366003190112610214576040517f00000000000000000000000000000000000000000000000000000000000000006001600160a01b03168152602090f35b346102145760003660031901126102145760206040517f7045adfe67d5f94dbfddcdb901e44bef55baacabb398c7cddda1bfd7620b15688152f35b3461021457600036600319011261021457602060405160028152f35b3461021457600036600319011261021457610f23611678565b60025460ff811615610f625760ff19166002557f5db9ee0a495bf2e6ff9c91a7834c1ba4fdd244a5e8aa4e537bd38aeae4b073aa6020604051338152a1005b60405162461bcd60e51b815260206004820152601460248201527314185d5cd8589b194e881b9bdd081c185d5cd95960621b6044820152606490fd5b3461021457604036600319011261021457610fb76115ff565b336001600160a01b03821603610fd35761027590600435611b50565b60405162461bcd60e51b815260206004820152602f60248201527f416363657373436f6e74726f6c3a2063616e206f6e6c792072656e6f756e636560448201526e103937b632b9903337b91039b2b63360891b6064820152608490fd5b3461021457602080600319360112610214576004357f21702c8af46127c7fa207f89d0b0a8441bb32959a0ac7df790e9ab1a25c9892680600052600190818452604060002033600052845260ff60406000205416156110e457508160005260038352600960406000200190815460ff811660058110156108f55780610d81575060ff191617905560405142815233927fd7b0f99d057bc9987014e38568de5d95ba76962296f6cf10df2e891fd78232d891a3005b9091506110f033611bea565b604051916110fd83611ae6565b604283528483019360603686378351156112585760308553835181101561125857607860218501536041905b8082116112145750506111d1576111cd9361117d936111b5936111a6604894604051978576020b1b1b2b9b9a1b7b73a3937b61d1030b1b1b7bab73a1604d1b8a978801528251928391603789019101611a90565b8401917001034b99036b4b9b9b4b733903937b6329607d1b603784015251809386840190611a90565b01036028810184520182611b02565b60405162461bcd60e51b815291829160048301611b24565b0390fd5b6064846040519062461bcd60e51b825280600483015260248201527f537472696e67733a20686578206c656e67746820696e73756666696369656e746044820152fd5b9091600f81166010811015611258576f181899199a1a9b1b9c1cb0b131b232b360811b901a6112438487611bd9565b5360041c9180156108b8576000190190611129565b634e487b7160e01b600052603260045260246000fd5b346102145760403660031901126102145760043561128a6115ff565b8160005260016020526112a4600160406000200154611986565b81600052600160205260406000209060018060a01b0316908160005260205260ff60406000205416156112d357005b8160005260016020526040600020816000526020526040600020600160ff1982541617905533917f2f8788117e7eff1d82e926ec794901d17c78024a50270940304540a733656f0d600080a4005b346102145760203660031901126102145760043560005260016020526020600160406000200154604051908152f35b3461021457600036600319011261021457602060405160898152f35b3461021457600036600319011261021457602060405160018152f35b346102145760403660031901126102145760206113a9602435600435611fda565b604051908152f35b34610214576020366003190112610214576004356113cd611678565b806000526004602052604060002060ff1981541690557f11a9d1a77f76361ed131c19b1dc5758504c51dbde2e49fc973a0ef9577ad13d5600080a2005b3461021457600036600319011261021457602060405160038152f35b346102145760203660031901126102145760043563ffffffff60e01b811680910361021457602090637965db0b60e01b811490811561146b575b506040519015158152f35b6301ffc9a760e01b14905082611460565b34610214576020366003190112610214576101208161149c600093611ab3565b8281528260208201528260408201528260608201528260808201528260a08201528260c08201528260e08201528261010082015201526004356000526003602052604060002060ff6009604051926114f384611ab3565b80546001600160a01b0390811685526001820154811660208601526002820154604086015260038201541660608501526004810154608085015260058082015460a0860152600682015460c0860152600782015460e086015260088201546101008601529101549190911691908210156108f55761014091610120820152610cb76101206040519260018060a01b03815116845260018060a01b0360208201511660208501526040810151604085015260018060a01b0360608201511660608501526080810151608085015260a081015160a085015260c081015160c085015260e081015160e085015261010081015161010085015201516101208301905b9060058210156108f55752565b602435906001600160a01b038216820361021457565b600435906001600160a01b038216820361021457565b6040600319820112610214576004359160243567ffffffffffffffff9283821161021457806023830112156102145781600401359384116102145760248483010111610214576024019190565b3360009081527fa6eef7e35abe7026729641147f7915573c7e97b47efa546f5f6e3230263bcb49602090815260408083205490929060019060ff16156116be5750505050565b6116c733611bea565b828551926116d484611ae6565b6042845285840194606036873784511561182b5760308653845182101561182b5790607860218601536041915b8183116117bd5750505061177b5761117d938593611765936117566048946111cd9951988576020b1b1b2b9b9a1b7b73a3937b61d1030b1b1b7bab73a1604d1b8b978801528251928391603789019101611a90565b01036028810185520183611b02565b5162461bcd60e51b815291829160048301611b24565b60648486519062461bcd60e51b825280600483015260248201527f537472696e67733a20686578206c656e67746820696e73756666696369656e746044820152fd5b909192600f81166010811015611817576f181899199a1a9b1b9c1cb0b131b232b360811b901a6117ed8588611bd9565b5360041c92801561180357600019019190611701565b634e487b7160e01b82526011600452602482fd5b634e487b7160e01b83526032600452602483fd5b634e487b7160e01b81526032600452602490fd5b3360009081527ff6cefd16e50e3a9e8a37ea00763412696ec6dfc8d1c400e69a0e851a5205e59a60209081526040808320549092906001907f7045adfe67d5f94dbfddcdb901e44bef55baacabb398c7cddda1bfd7620b15689060ff16156118a8575050505050565b6118b133611bea565b908551926118be84611ae6565b6042845285840194606036873784511561182b5760308653845182101561182b5790607860218601536041915b8183116119405750505061177b5761117d938593611765936117566048946111cd9951988576020b1b1b2b9b9a1b7b73a3937b61d1030b1b1b7bab73a1604d1b8b978801528251928391603789019101611a90565b909192600f81166010811015611817576f181899199a1a9b1b9c1cb0b131b232b360811b901a6119708588611bd9565b5360041c928015611803576000190191906118eb565b6000818152600190602091808352604093848320338452845260ff8584205416156119b2575050505050565b6119bb33611bea565b908551926119c884611ae6565b6042845285840194606036873784511561182b5760308653845182101561182b5790607860218601536041915b818311611a4a5750505061177b5761117d938593611765936117566048946111cd9951988576020b1b1b2b9b9a1b7b73a3937b61d1030b1b1b7bab73a1604d1b8b978801528251928391603789019101611a90565b909192600f81166010811015611817576f181899199a1a9b1b9c1cb0b131b232b360811b901a611a7a8588611bd9565b5360041c928015611803576000190191906119f5565b60005b838110611aa35750506000910152565b8181015183820152602001611a93565b610140810190811067ffffffffffffffff821117611ad057604052565b634e487b7160e01b600052604160045260246000fd5b6080810190811067ffffffffffffffff821117611ad057604052565b90601f8019910116810190811067ffffffffffffffff821117611ad057604052565b60409160208252611b448151809281602086015260208686019101611a90565b601f01601f1916010190565b906000918083526001602052604083209160018060a01b03169182845260205260ff604084205416611b8157505050565b8083526001602052604083208284526020526040832060ff1981541690557ff6391f5c32d9c69d2a47ea670b442974b53935d1edc7fd64eb21e047a839171b339380a4565b818102929181159184041417156108b857565b908151811015611258570160200190565b604051906060820182811067ffffffffffffffff821117611ad057604052602a82526020820160403682378251156112585760309053815160019081101561125857607860218401536029905b808211611c8b575050611c475790565b606460405162461bcd60e51b815260206004820152602060248201527f537472696e67733a20686578206c656e67746820696e73756666696369656e746044820152fd5b9091600f81166010811015611ce4576f181899199a1a9b1b9c1cb0b131b232b360811b901a611cba8486611bd9565b5360041c918015611ccf576000190190611c37565b60246000634e487b7160e01b81526011600452fd5b60246000634e487b7160e01b81526032600452fd5b919082039182116108b857565b60ff60025416611d1257565b60405162461bcd60e51b815260206004820152601060248201526f14185d5cd8589b194e881c185d5cd95960821b6044820152606490fd5b600260005414611d5b576002600055565b60405162461bcd60e51b815260206004820152601f60248201527f5265656e7472616e637947756172643a207265656e7472616e742063616c6c006044820152606490fd5b60405163a9059cbb60e01b60208201526001600160a01b039092166024830152604480830193909352918152608081019167ffffffffffffffff831182841017611ad057611df092604052611df2565b565b60018060a01b0316906040516040810167ffffffffffffffff9082811082821117611ad0576040526020938483527f5361666545524332303a206c6f772d6c6576656c2063616c6c206661696c6564858401526000808587829751910182855af1903d15611f3e573d928311611f2a5790611e8d93929160405192611e8088601f19601f8401160185611b02565b83523d868885013e611f49565b805191821591848315611eff575b505050905015611ea85750565b6084906040519062461bcd60e51b82526004820152602a60248201527f5361666545524332303a204552433230206f7065726174696f6e20646964206e6044820152691bdd081cdd58d8d9595960b21b6064820152fd5b919381809450010312611f2657820151908115158203611f23575080388084611e9b565b80fd5b5080fd5b634e487b7160e01b85526041600452602485fd5b90611e8d9392506060915b91929015611fab5750815115611f5d575090565b3b15611f665790565b60405162461bcd60e51b815260206004820152601d60248201527f416464726573733a2063616c6c20746f206e6f6e2d636f6e74726163740000006044820152606490fd5b825190915015611fbe5750805190602001fd5b60405162461bcd60e51b81529081906111cd9060048301611b24565b604051634b16524b60e11b8152906020826004817f00000000000000000000000000000000000000000000000000000000000000006001600160a01b03165afa91821561207c57600092612047575b509161203e6120439264496cebb80094611bc6565b611bc6565b0490565b90916020823d8211612074575b8161206160209383611b02565b81010312611f235750519061203e612029565b3d9150612054565b6040513d6000823e3d90fdfea26469706673582212201e3c36c324995f42cbfbc9c0305d8777464e494d5502f9eceb878775c9a7a4ea64736f6c634300081400332f8788117e7eff1d82e926ec794901d17c78024a50270940304540a733656f0d",
  "linkReferences": {},
  "deployedLinkReferences": {}
}