{
  "_format": "hh-sol-artifact-1",
  "contractName": "YieldEscrowUltra",
  "sourceName": "src/YieldEscrowUltra.sol",
  "abi": [
    {
      "inputs": [],
      "name": "DepositNotFound",
      "type": "error"
    },
    {
      "inputs": [],
      "name": "InvalidAmount",
      "type": "error"
    },
    {
      "inputs": [],
      "name": "PaymentProcessed",
      "type": "error"
    },
    {
      "inputs": [],
      "name": "TokenNotSupported",
      "type": "error"
    },
    {
      "inputs": [],
      "name": "Unauthorized",
      "type": "error"
    },
    {
      "anonymous": false,
      "inputs": [
        {
          "indexed": true,
          "internalType": "bytes32",
          "name": "paymentHash",
          "type": "bytes32"
        },
        {
          "indexed": true,
          "internalType": "address",
          "name": "user",
          "type": "address"
        },
        {
          "indexed": false,
          "internalType": "uint256",
          "name": "amount",
          "type": "uint256"
        }
      ],
      "name": "DepositCreated",
      "type": "event"
    },
    {
      "anonymous": false,
      "inputs": [
        {
          "indexed": true,
          "internalType": "bytes32",
          "name": "paymentHash",
          "type": "bytes32"
        },
        {
          "indexed": true,
          "internalType": "address",
          "name": "user",
          "type": "address"
        },
        {
          "indexed": false,
          "internalType": "uint256",
          "name": "amount",
          "type": "uint256"
        }
      ],
      "name": "PaymentReleased",
      "type": "event"
    },
    {
      "anonymous": false,
      "inputs": [
        {
          "indexed": true,
          "internalType": "address",
          "name": "token",
          "type": "address"
        },
        {
          "indexed": false,
          "internalType": "bool",
          "name": "supported",
          "type": "bool"
        }
      ],
      "name": "TokenSupported",
      "type": "event"
    },
    {
      "inputs": [
        {
          "internalType": "uint256",
          "name": "amount",
          "type": "uint256"
        },
        {
          "internalType": "address",
          "name": "token",
          "type": "address"
        },
        {
          "internalType": "address",
          "name": "merchant",
          "type": "address"
        },
        {
          "internalType": "bytes32",
          "name": "paymentHash",
          "type": "bytes32"
        }
      ],
      "name": "createDeposit",
      "outputs": [
        {
          "internalType": "uint256",
          "name": "depositIndex",
          "type": "uint256"
        }
      ],
      "stateMutability": "nonpayable",
      "type": "function"
    },
    {
      "inputs": [
        {
          "internalType": "address",
          "name": "",
          "type": "address"
        },
        {
          "internalType": "uint256",
          "name": "",
          "type": "uint256"
        }
      ],
      "name": "depositMeta",
      "outputs": [
        {
          "internalType": "address",
          "name": "token",
          "type": "address"
        },
        {
          "internalType": "address",
          "name": "merchant",
          "type": "address"
        }
      ],
      "stateMutability": "view",
      "type": "function"
    },
    {
      "inputs": [
        {
          "internalType": "address",
          "name": "user",
          "type": "address"
        },
        {
          "internalType": "uint256",
          "name": "depositIndex",
          "type": "uint256"
        }
      ],
      "name": "getDeposit",
      "outputs": [
        {
          "internalType": "uint256",
          "name": "amount",
          "type": "uint256"
        },
        {
          "internalType": "uint256",
          "name": "depositTimestamp",
          "type": "uint256"
        },
        {
          "internalType": "bool",
          "name": "released",
          "type": "bool"
        },
        {
          "internalType": "address",
          "name": "token",
          "type": "address"
        },
        {
          "internalType": "address",
          "name": "merchant",
          "type": "address"
        }
      ],
      "stateMutability": "view",
      "type": "function"
    },
    {
      "inputs": [
        {
          "internalType": "address",
          "name": "",
          "type": "address"
        },
        {
          "internalType": "uint256",
          "name": "",
          "type": "uint256"
        }
      ],
      "name": "packedDeposits",
      "outputs": [
        {
          "internalType": "uint256",
          "name": "",
          "type": "uint256"
        }
      ],
      "stateMutability": "view",
      "type": "function"
    },
    {
      "inputs": [
        {
          "internalType": "bytes32",
          "name": "",
          "type": "bytes32"
        }
      ],
      "name": "processedPaymentHashes",
      "outputs": [
        {
          "internalType": "bool",
          "name": "",
          "type": "bool"
        }
      ],
      "stateMutability": "view",
      "type": "function"
    },
    {
      "inputs": [
        {
          "internalType": "address",
          "name": "user",
          "type": "address"
        },
        {
          "internalType": "uint256",
          "name": "depositIndex",
          "type": "uint256"
        }
      ],
      "name": "releasePayment",
      "outputs": [],
      "stateMutability": "nonpayable",
      "type": "function"
    },
    {
      "inputs": [
        {
          "internalType": "address",
          "name": "token",
          "type": "address"
        },
        {
          "internalType": "bool",
          "name": "supported",
          "type": "bool"
        }
      ],
      "name": "setSupportedToken",
      "outputs": [],
      "stateMutability": "nonpayable",
      "type": "function"
    },
    {
      "inputs": [
        {
          "internalType": "address",
          "name": "",
          "type": "address"
        }
      ],
      "name": "supportedTokens",
      "outputs": [
        {
          "internalType": "bool",
          "name": "",
          "type": "bool"
        }
      ],
      "stateMutability": "view",
      "type": "function"
    },
    {
      "inputs": [
        {
          "internalType": "address",
          "name": "",
          "type": "address"
        }
      ],
      "name": "userDepositCount",
      "outputs": [
        {
          "internalType": "uint256",
          "name": "",
          "type": "uint256"
        }
      ],
      "stateMutability": "view",
      "type": "function"
    }
  ],
  "bytecode": "0x6080806040523461001657610797908161001c8239f35b600080fdfe604060808152600436101561001357600080fd5b600090813560e01c9182632726b506146100ad575050806368c4ac26146100a8578063729c3e0e146100a357806384e9abca1461009e578063966ecf3b1461009957806399fcfb4314610094578063b63de29f1461008f578063e79864661461008a5763f1adff0a1461008557600080fd5b6106ae565b610637565b6105ef565b6105be565b610468565b610220565b6101e6565b6101a7565b3461015d578160031936011261015d57610159610105836100cc610160565b6001600160a01b031680855260026020908152828620602435808852908252838720549287526003825283872090875290529320610739565b805160209182015194516001600160801b0385168152608085811c63ffffffff169382019390935260a094851c60ff16151560408201526001600160a01b0391821660608201529416908401528291820190565b0390f35b80fd5b600435906001600160a01b038216820361017657565b600080fd5b602435906001600160a01b038216820361017657565b604435906001600160a01b038216820361017657565b34610176576020366003190112610176576001600160a01b036101c8610160565b166000526000602052602060ff604060002054166040519015158152f35b34610176576020366003190112610176576001600160a01b03610207610160565b1660005260046020526020604060002054604051908152f35b3461017657608036600319011261017657600480359061023e61017b565b91610247610191565b906064358115801561045a575b6104495761028561028161027a8760018060a01b03166000526000602052604060002090565b5460ff1690565b1590565b610438576102a061027a826000526001602052604060002090565b610427573360009081526004602052604090205493604093600080606487516323b872dd60e01b81523386820152306024820152876044820152828b5af11561017657610159966103606103af9263ffffffff60801b4260801b166001600160801b038816176103358a6103263360018060a01b03166000526002602052604060002090565b90600052602052604060002090565b55610350610341610703565b6001600160a01b039094168452565b6001600160a01b03166020830152565b33600090815260036020526040902061037a908890610326565b815181546001600160a01b039182166001600160a01b0319918216178355602090930151600190920180549093169116179055565b602084510190848220913390528480510152600181540190556103ec6103df826000526001602052604060002090565b805460ff19166001179055565b825191825233917f2fc7f61216f4b9da63724a7ccba484452205b7cf651334640e3cd1120178600690602090a3519081529081906020820190565b60405163ea0e906b60e01b81528490fd5b604051633dd1b30560e01b81528490fd5b60405163162908e360e11b81528490fd5b50600160801b821015610254565b346101765760408060031936011261017657610482610160565b90602435906104a7826103268560018060a01b03166000526002602052604060002090565b549283156105ad576104d76104d2846103268460018060a01b03166000526003602052604060002090565b610739565b9160208301946104fc6104f0875160018060a01b031690565b6001600160a01b031690565b330361059d5760ff8160a01c16610176576001600160801b038116946044600097888097819582958984526002602052888420908452602052600160a01b17878320555191519186519263a9059cbb60e01b845260048401528960248401525af11561059957519283526001600160a01b0316917f1e170c3b430cc6fdcdaa453c42619ac587e13793aa81a489fab9ebd7019c2efb90602090a380f35b8280fd5b81516282b42960e81b8152600490fd5b815163411321ed60e01b8152600490fd5b34610176576020366003190112610176576004356000526001602052602060ff604060002054166040519015158152f35b34610176576040366003190112610176576001600160a01b03610610610160565b16600052600260205260406000206024356000526020526020604060002054604051908152f35b3461017657604036600319011261017657610650610160565b602435908115158092036101765760207fd86c88b4a367d9b81a6e00c9d3f7d01657bffef358fa8968c91c045ae99f0d529160018060a01b0316928360005260008252604060002060ff1981541660ff8316179055604051908152a2005b346101765760403660031901126101765760406001600160a01b03806106d2610160565b1660005260036020528160002060243560005260205281600020906001818354169201541682519182526020820152f35b604051906040820182811067ffffffffffffffff82111761072357604052565b634e487b7160e01b600052604160045260246000fd5b90610742610703565b82546001600160a01b039081168252600190930154909216602083015256fea26469706673582212204eebf82e18431aee5fd1e64d44b23d1e4efcca5890269b6f9050d47856a08ee064736f6c63430008140033",
  "linkReferences": {},
  "deployedLinkReferences": {}
}