{
  "_format": "hh-sol-artifact-1",
  "contractName": "YieldVault",
  "sourceName": "src/YieldVault.sol",
  "abi": [
    {
      "inputs": [
        {
          "internalType": "address",
          "name": "_asset",
          "type": "address"
        },
        {
          "internalType": "address",
          "name": "_admin",
          "type": "address"
        },
        {
          "internalType": "address",
          "name": "_feeRecipient",
          "type": "address"
        }
      ],
      "stateMutability": "nonpayable",
      "type": "constructor"
    },
    {
      "inputs": [],
      "name": "ExceedsRiskLimit",
      "type": "error"
    },
    {
      "inputs": [],
      "name": "InsufficientBalance",
      "type": "error"
    },
    {
      "inputs": [],
      "name": "InvalidAllocation",
      "type": "error"
    },
    {
      "inputs": [],
      "name": "InvalidAmount",
      "type": "error"
    },
    {
      "inputs": [],
      "name": "InvalidStrategy",
      "type": "error"
    },
    {
      "inputs": [],
      "name": "InvalidTarget",
      "type": "error"
    },
    {
      "inputs": [],
      "name": "MaxStrategiesReached",
      "type": "error"
    },
    {
      "inputs": [],
      "name": "RebalanceCooldownActive",
      "type": "error"
    },
    {
      "inputs": [],
      "name": "StrategyAlreadyExists",
      "type": "error"
    },
    {
      "inputs": [],
      "name": "StrategyNotActive",
      "type": "error"
    },
    {
      "inputs": [],
      "name": "TransferFailed",
      "type": "error"
    },
    {
      "anonymous": false,
      "inputs": [
        {
          "indexed": true,
          "internalType": "address",
          "name": "user",
          "type": "address"
        },
        {
          "indexed": false,
          "internalType": "uint256",
          "name": "assets",
          "type": "uint256"
        },
        {
          "indexed": false,
          "internalType": "uint256",
          "name": "shares",
          "type": "uint256"
        }
      ],
      "name": "Deposit",
      "type": "event"
    },
    {
      "anonymous": false,
      "inputs": [
        {
          "indexed": true,
          "internalType": "address",
          "name": "admin",
          "type": "address"
        },
        {
          "indexed": false,
          "internalType": "string",
          "name": "action",
          "type": "string"
        },
        {
          "indexed": true,
          "internalType": "address",
          "name": "strategy",
          "type": "address"
        },
        {
          "indexed": false,
          "internalType": "uint256",
          "name": "amount",
          "type": "uint256"
        }
      ],
      "name": "EmergencyAction",
      "type": "event"
    },
    {
      "anonymous": false,
      "inputs": [
        {
          "indexed": false,
          "internalType": "address",
          "name": "account",
          "type": "address"
        }
      ],
      "name": "Paused",
      "type": "event"
    },
    {
      "anonymous": false,
      "inputs": [
        {
          "indexed": true,
          "internalType": "address",
          "name": "strategy",
          "type": "address"
        },
        {
          "indexed": false,
          "internalType": "uint256",
          "name": "newAPY",
          "type": "uint256"
        },
        {
          "indexed": false,
          "internalType": "uint256",
          "name": "sharpeRatio",
          "type": "uint256"
        }
      ],
      "name": "PerformanceUpdated",
      "type": "event"
    },
    {
      "anonymous": false,
      "inputs": [
        {
          "indexed": true,
          "internalType": "address",
          "name": "rebalancer",
          "type": "address"
        },
        {
          "indexed": false,
          "internalType": "address[]",
          "name": "strategies",
          "type": "address[]"
        },
        {
          "indexed": false,
          "internalType": "uint256[]",
          "name": "oldAllocations",
          "type": "uint256[]"
        },
        {
          "indexed": false,
          "internalType": "uint256[]",
          "name": "newAllocations",
          "type": "uint256[]"
        },
        {
          "indexed": false,
          "internalType": "uint256",
          "name": "timestamp",
          "type": "uint256"
        }
      ],
      "name": "Rebalanced",
      "type": "event"
    },
    {
      "anonymous": false,
      "inputs": [
        {
          "indexed": true,
          "internalType": "bytes32",
          "name": "role",
          "type": "bytes32"
        },
        {
          "indexed": true,
          "internalType": "bytes32",
          "name": "previousAdminRole",
          "type": "bytes32"
        },
        {
          "indexed": true,
          "internalType": "bytes32",
          "name": "newAdminRole",
          "type": "bytes32"
        }
      ],
      "name": "RoleAdminChanged",
      "type": "event"
    },
    {
      "anonymous": false,
      "inputs": [
        {
          "indexed": true,
          "internalType": "bytes32",
          "name": "role",
          "type": "bytes32"
        },
        {
          "indexed": true,
          "internalType": "address",
          "name": "account",
          "type": "address"
        },
        {
          "indexed": true,
          "internalType": "address",
          "name": "sender",
          "type": "address"
        }
      ],
      "name": "RoleGranted",
      "type": "event"
    },
    {
      "anonymous": false,
      "inputs": [
        {
          "indexed": true,
          "internalType": "bytes32",
          "name": "role",
          "type": "bytes32"
        },
        {
          "indexed": true,
          "internalType": "address",
          "name": "account",
          "type": "address"
        },
        {
          "indexed": true,
          "internalType": "address",
          "name": "sender",
          "type": "address"
        }
      ],
      "name": "RoleRevoked",
      "type": "event"
    },
    {
      "anonymous": false,
      "inputs": [
        {
          "indexed": true,
          "internalType": "address",
          "name": "strategy",
          "type": "address"
        },
        {
          "indexed": false,
          "internalType": "string",
          "name": "name",
          "type": "string"
        },
        {
          "indexed": false,
          "internalType": "uint256",
          "name": "riskScore",
          "type": "uint256"
        },
        {
          "indexed": false,
          "internalType": "uint256",
          "name": "initialAllocation",
          "type": "uint256"
        }
      ],
      "name": "StrategyAdded",
      "type": "event"
    },
    {
      "anonymous": false,
      "inputs": [
        {
          "indexed": true,
          "internalType": "address",
          "name": "strategy",
          "type": "address"
        },
        {
          "indexed": false,
          "internalType": "string",
          "name": "reason",
          "type": "string"
        },
        {
          "indexed": false,
          "internalType": "uint256",
          "name": "fundsWithdrawn",
          "type": "uint256"
        }
      ],
      "name": "StrategyRemoved",
      "type": "event"
    },
    {
      "anonymous": false,
      "inputs": [
        {
          "indexed": false,
          "internalType": "address",
          "name": "account",
          "type": "address"
        }
      ],
      "name": "Unpaused",
      "type": "event"
    },
    {
      "anonymous": false,
      "inputs": [
        {
          "indexed": true,
          "internalType": "address",
          "name": "user",
          "type": "address"
        },
        {
          "indexed": false,
          "internalType": "uint256",
          "name": "assets",
          "type": "uint256"
        },
        {
          "indexed": false,
          "internalType": "uint256",
          "name": "shares",
          "type": "uint256"
        }
      ],
      "name": "Withdrawal",
      "type": "event"
    },
    {
      "anonymous": false,
      "inputs": [
        {
          "indexed": true,
          "internalType": "address",
          "name": "strategy",
          "type": "address"
        },
        {
          "indexed": false,
          "internalType": "uint256",
          "name": "yieldAmount",
          "type": "uint256"
        },
        {
          "indexed": false,
          "internalType": "uint256",
          "name": "newTotalYield",
          "type": "uint256"
        }
      ],
      "name": "YieldHarvested",
      "type": "event"
    },
    {
      "inputs": [],
      "name": "ADMIN_ROLE",
      "outputs": [
        {
          "internalType": "bytes32",
          "name": "",
          "type": "bytes32"
        }
      ],
      "stateMutability": "view",
      "type": "function"
    },
    {
      "inputs": [],
      "name": "BASIS_POINTS",
      "outputs": [
        {
          "internalType": "uint256",
          "name": "",
          "type": "uint256"
        }
      ],
      "stateMutability": "view",
      "type": "function"
    },
    {
      "inputs": [],
      "name": "DEFAULT_ADMIN_ROLE",
      "outputs": [
        {
          "internalType": "bytes32",
          "name": "",
          "type": "bytes32"
        }
      ],
      "stateMutability": "view",
      "type": "function"
    },
    {
      "inputs": [],
      "name": "MAX_ALLOCATION_PER_STRATEGY",
      "outputs": [
        {
          "internalType": "uint256",
          "name": "",
          "type": "uint256"
        }
      ],
      "stateMutability": "view",
      "type": "function"
    },
    {
      "inputs": [],
      "name": "MAX_STRATEGIES",
      "outputs": [
        {
          "internalType": "uint256",
          "name": "",
          "type": "uint256"
        }
      ],
      "stateMutability": "view",
      "type": "function"
    },
    {
      "inputs": [],
      "name": "MIN_REBALANCE_THRESHOLD",
      "outputs": [
        {
          "internalType": "uint256",
          "name": "",
          "type": "uint256"
        }
      ],
      "stateMutability": "view",
      "type": "function"
    },
    {
      "inputs": [],
      "name": "MIN_STRATEGY_ALLOCATION",
      "outputs": [
        {
          "internalType": "uint256",
          "name": "",
          "type": "uint256"
        }
      ],
      "stateMutability": "view",
      "type": "function"
    },
    {
      "inputs": [],
      "name": "PERFORMANCE_WINDOW",
      "outputs": [
        {
          "internalType": "uint256",
          "name": "",
          "type": "uint256"
        }
      ],
      "stateMutability": "view",
      "type": "function"
    },
    {
      "inputs": [],
      "name": "REBALANCER_ROLE",
      "outputs": [
        {
          "internalType": "bytes32",
          "name": "",
          "type": "bytes32"
        }
      ],
      "stateMutability": "view",
      "type": "function"
    },
    {
      "inputs": [],
      "name": "REBALANCE_COOLDOWN",
      "outputs": [
        {
          "internalType": "uint256",
          "name": "",
          "type": "uint256"
        }
      ],
      "stateMutability": "view",
      "type": "function"
    },
    {
      "inputs": [],
      "name": "STRATEGY_MANAGER_ROLE",
      "outputs": [
        {
          "internalType": "bytes32",
          "name": "",
          "type": "bytes32"
        }
      ],
      "stateMutability": "view",
      "type": "function"
    },
    {
      "inputs": [
        {
          "internalType": "address",
          "name": "",
          "type": "address"
        }
      ],
      "name": "activeStrategies",
      "outputs": [
        {
          "internalType": "bool",
          "name": "",
          "type": "bool"
        }
      ],
      "stateMutability": "view",
      "type": "function"
    },
    {
      "inputs": [
        {
          "internalType": "address",
          "name": "strategy",
          "type": "address"
        },
        {
          "internalType": "string",
          "name": "name",
          "type": "string"
        },
        {
          "internalType": "uint256",
          "name": "riskScore",
          "type": "uint256"
        },
        {
          "internalType": "uint256",
          "name": "initialAllocation",
          "type": "uint256"
        }
      ],
      "name": "addStrategy",
      "outputs": [],
      "stateMutability": "nonpayable",
      "type": "function"
    },
    {
      "inputs": [],
      "name": "asset",
      "outputs": [
        {
          "internalType": "contract IERC20",
          "name": "",
          "type": "address"
        }
      ],
      "stateMutability": "view",
      "type": "function"
    },
    {
      "inputs": [],
      "name": "autoRebalance",
      "outputs": [],
      "stateMutability": "nonpayable",
      "type": "function"
    },
    {
      "inputs": [],
      "name": "autoRebalanceEnabled",
      "outputs": [
        {
          "internalType": "bool",
          "name": "",
          "type": "bool"
        }
      ],
      "stateMutability": "view",
      "type": "function"
    },
    {
      "inputs": [
        {
          "internalType": "address",
          "name": "user",
          "type": "address"
        }
      ],
      "name": "balanceOf",
      "outputs": [
        {
          "internalType": "uint256",
          "name": "balance",
          "type": "uint256"
        }
      ],
      "stateMutability": "view",
      "type": "function"
    },
    {
      "inputs": [
        {
          "internalType": "uint256",
          "name": "shares",
          "type": "uint256"
        }
      ],
      "name": "convertToAssets",
      "outputs": [
        {
          "internalType": "uint256",
          "name": "assets",
          "type": "uint256"
        }
      ],
      "stateMutability": "view",
      "type": "function"
    },
    {
      "inputs": [
        {
          "internalType": "uint256",
          "name": "assets",
          "type": "uint256"
        }
      ],
      "name": "convertToShares",
      "outputs": [
        {
          "internalType": "uint256",
          "name": "shares",
          "type": "uint256"
        }
      ],
      "stateMutability": "view",
      "type": "function"
    },
    {
      "inputs": [
        {
          "internalType": "uint256",
          "name": "",
          "type": "uint256"
        }
      ],
      "name": "dailyYield",
      "outputs": [
        {
          "internalType": "uint256",
          "name": "",
          "type": "uint256"
        }
      ],
      "stateMutability": "view",
      "type": "function"
    },
    {
      "inputs": [
        {
          "internalType": "uint256",
          "name": "assets",
          "type": "uint256"
        }
      ],
      "name": "deposit",
      "outputs": [
        {
          "internalType": "uint256",
          "name": "shares",
          "type": "uint256"
        }
      ],
      "stateMutability": "nonpayable",
      "type": "function"
    },
    {
      "inputs": [],
      "name": "emergencyPause",
      "outputs": [],
      "stateMutability": "nonpayable",
      "type": "function"
    },
    {
      "inputs": [],
      "name": "feeRecipient",
      "outputs": [
        {
          "internalType": "address",
          "name": "",
          "type": "address"
        }
      ],
      "stateMutability": "view",
      "type": "function"
    },
    {
      "inputs": [],
      "name": "getCurrentAPY",
      "outputs": [
        {
          "internalType": "uint256",
          "name": "vaultAPY",
          "type": "uint256"
        }
      ],
      "stateMutability": "view",
      "type": "function"
    },
    {
      "inputs": [
        {
          "internalType": "bytes32",
          "name": "role",
          "type": "bytes32"
        }
      ],
      "name": "getRoleAdmin",
      "outputs": [
        {
          "internalType": "bytes32",
          "name": "",
          "type": "bytes32"
        }
      ],
      "stateMutability": "view",
      "type": "function"
    },
    {
      "inputs": [
        {
          "internalType": "address",
          "name": "strategy",
          "type": "address"
        }
      ],
      "name": "getStrategyInfo",
      "outputs": [
        {
          "components": [
            {
              "internalType": "contract IYieldStrategy",
              "name": "strategy",
              "type": "address"
            },
            {
              "internalType": "uint256",
              "name": "allocation",
              "type": "uint256"
            },
            {
              "internalType": "uint256",
              "name": "targetAllocation",
              "type": "uint256"
            },
            {
              "internalType": "uint256",
              "name": "totalDeposited",
              "type": "uint256"
            },
            {
              "internalType": "uint256",
              "name": "lastUpdate",
              "type": "uint256"
            },
            {
              "internalType": "bool",
              "name": "active",
              "type": "bool"
            },
            {
              "internalType": "uint256",
              "name": "riskScore",
              "type": "uint256"
            },
            {
              "internalType": "string",
              "name": "name",
              "type": "string"
            }
          ],
          "internalType": "struct YieldVault.StrategyInfo",
          "name": "info",
          "type": "tuple"
        }
      ],
      "stateMutability": "view",
      "type": "function"
    },
    {
      "inputs": [
        {
          "internalType": "address",
          "name": "strategy",
          "type": "address"
        }
      ],
      "name": "getStrategyPerformance",
      "outputs": [
        {
          "components": [
            {
              "internalType": "uint256",
              "name": "totalYieldGenerated",
              "type": "uint256"
            },
            {
              "internalType": "uint256",
              "name": "averageAPY",
              "type": "uint256"
            },
            {
              "internalType": "uint256",
              "name": "lastAPY",
              "type": "uint256"
            },
            {
              "internalType": "uint256[]",
              "name": "apyHistory",
              "type": "uint256[]"
            },
            {
              "internalType": "uint256",
              "name": "lastPerformanceUpdate",
              "type": "uint256"
            },
            {
              "internalType": "uint256",
              "name": "sharpeRatio",
              "type": "uint256"
            }
          ],
          "internalType": "struct YieldVault.PerformanceData",
          "name": "performance",
          "type": "tuple"
        }
      ],
      "stateMutability": "view",
      "type": "function"
    },
    {
      "inputs": [
        {
          "internalType": "bytes32",
          "name": "role",
          "type": "bytes32"
        },
        {
          "internalType": "address",
          "name": "account",
          "type": "address"
        }
      ],
      "name": "grantRole",
      "outputs": [],
      "stateMutability": "nonpayable",
      "type": "function"
    },
    {
      "inputs": [],
      "name": "harvestAll",
      "outputs": [
        {
          "internalType": "uint256",
          "name": "totalYieldHarvested",
          "type": "uint256"
        }
      ],
      "stateMutability": "nonpayable",
      "type": "function"
    },
    {
      "inputs": [
        {
          "internalType": "bytes32",
          "name": "role",
          "type": "bytes32"
        },
        {
          "internalType": "address",
          "name": "account",
          "type": "address"
        }
      ],
      "name": "hasRole",
      "outputs": [
        {
          "internalType": "bool",
          "name": "",
          "type": "bool"
        }
      ],
      "stateMutability": "view",
      "type": "function"
    },
    {
      "inputs": [],
      "name": "lastRebalance",
      "outputs": [
        {
          "internalType": "uint256",
          "name": "",
          "type": "uint256"
        }
      ],
      "stateMutability": "view",
      "type": "function"
    },
    {
      "inputs": [],
      "name": "managementFee",
      "outputs": [
        {
          "internalType": "uint256",
          "name": "",
          "type": "uint256"
        }
      ],
      "stateMutability": "view",
      "type": "function"
    },
    {
      "inputs": [],
      "name": "maxTotalRisk",
      "outputs": [
        {
          "internalType": "uint256",
          "name": "",
          "type": "uint256"
        }
      ],
      "stateMutability": "view",
      "type": "function"
    },
    {
      "inputs": [],
      "name": "paused",
      "outputs": [
        {
          "internalType": "bool",
          "name": "",
          "type": "bool"
        }
      ],
      "stateMutability": "view",
      "type": "function"
    },
    {
      "inputs": [],
      "name": "performanceFee",
      "outputs": [
        {
          "internalType": "uint256",
          "name": "",
          "type": "uint256"
        }
      ],
      "stateMutability": "view",
      "type": "function"
    },
    {
      "inputs": [
        {
          "internalType": "address[]",
          "name": "strategyAddresses",
          "type": "address[]"
        },
        {
          "internalType": "uint256[]",
          "name": "newAllocations",
          "type": "uint256[]"
        }
      ],
      "name": "rebalance",
      "outputs": [],
      "stateMutability": "nonpayable",
      "type": "function"
    },
    {
      "inputs": [
        {
          "internalType": "address",
          "name": "strategy",
          "type": "address"
        },
        {
          "internalType": "string",
          "name": "reason",
          "type": "string"
        }
      ],
      "name": "removeStrategy",
      "outputs": [],
      "stateMutability": "nonpayable",
      "type": "function"
    },
    {
      "inputs": [
        {
          "internalType": "bytes32",
          "name": "role",
          "type": "bytes32"
        },
        {
          "internalType": "address",
          "name": "account",
          "type": "address"
        }
      ],
      "name": "renounceRole",
      "outputs": [],
      "stateMutability": "nonpayable",
      "type": "function"
    },
    {
      "inputs": [
        {
          "internalType": "bytes32",
          "name": "role",
          "type": "bytes32"
        },
        {
          "internalType": "address",
          "name": "account",
          "type": "address"
        }
      ],
      "name": "revokeRole",
      "outputs": [],
      "stateMutability": "nonpayable",
      "type": "function"
    },
    {
      "inputs": [
        {
          "internalType": "address",
          "name": "",
          "type": "address"
        }
      ],
      "name": "strategies",
      "outputs": [
        {
          "internalType": "contract IYieldStrategy",
          "name": "strategy",
          "type": "address"
        },
        {
          "internalType": "uint256",
          "name": "allocation",
          "type": "uint256"
        },
        {
          "internalType": "uint256",
          "name": "targetAllocation",
          "type": "uint256"
        },
        {
          "internalType": "uint256",
          "name": "totalDeposited",
          "type": "uint256"
        },
        {
          "internalType": "uint256",
          "name": "lastUpdate",
          "type": "uint256"
        },
        {
          "internalType": "bool",
          "name": "active",
          "type": "bool"
        },
        {
          "internalType": "uint256",
          "name": "riskScore",
          "type": "uint256"
        },
        {
          "internalType": "string",
          "name": "name",
          "type": "string"
        }
      ],
      "stateMutability": "view",
      "type": "function"
    },
    {
      "inputs": [
        {
          "internalType": "uint256",
          "name": "",
          "type": "uint256"
        }
      ],
      "name": "strategyList",
      "outputs": [
        {
          "internalType": "address",
          "name": "",
          "type": "address"
        }
      ],
      "stateMutability": "view",
      "type": "function"
    },
    {
      "inputs": [
        {
          "internalType": "address",
          "name": "",
          "type": "address"
        }
      ],
      "name": "strategyPerformance",
      "outputs": [
        {
          "internalType": "uint256",
          "name": "totalYieldGenerated",
          "type": "uint256"
        },
        {
          "internalType": "uint256",
          "name": "averageAPY",
          "type": "uint256"
        },
        {
          "internalType": "uint256",
          "name": "lastAPY",
          "type": "uint256"
        },
        {
          "internalType": "uint256",
          "name": "lastPerformanceUpdate",
          "type": "uint256"
        },
        {
          "internalType": "uint256",
          "name": "sharpeRatio",
          "type": "uint256"
        }
      ],
      "stateMutability": "view",
      "type": "function"
    },
    {
      "inputs": [
        {
          "internalType": "bytes4",
          "name": "interfaceId",
          "type": "bytes4"
        }
      ],
      "name": "supportsInterface",
      "outputs": [
        {
          "internalType": "bool",
          "name": "",
          "type": "bool"
        }
      ],
      "stateMutability": "view",
      "type": "function"
    },
    {
      "inputs": [
        {
          "internalType": "address",
          "name": "",
          "type": "address"
        }
      ],
      "name": "targetAllocations",
      "outputs": [
        {
          "internalType": "uint256",
          "name": "",
          "type": "uint256"
        }
      ],
      "stateMutability": "view",
      "type": "function"
    },
    {
      "inputs": [],
      "name": "totalAssets",
      "outputs": [
        {
          "internalType": "uint256",
          "name": "",
          "type": "uint256"
        }
      ],
      "stateMutability": "view",
      "type": "function"
    },
    {
      "inputs": [],
      "name": "totalShares",
      "outputs": [
        {
          "internalType": "uint256",
          "name": "",
          "type": "uint256"
        }
      ],
      "stateMutability": "view",
      "type": "function"
    },
    {
      "inputs": [],
      "name": "unpause",
      "outputs": [],
      "stateMutability": "nonpayable",
      "type": "function"
    },
    {
      "inputs": [
        {
          "internalType": "uint256",
          "name": "_managementFee",
          "type": "uint256"
        },
        {
          "internalType": "uint256",
          "name": "_performanceFee",
          "type": "uint256"
        },
        {
          "internalType": "address",
          "name": "_feeRecipient",
          "type": "address"
        },
        {
          "internalType": "bool",
          "name": "_autoRebalanceEnabled",
          "type": "bool"
        }
      ],
      "name": "updateVaultParameters",
      "outputs": [],
      "stateMutability": "nonpayable",
      "type": "function"
    },
    {
      "inputs": [
        {
          "internalType": "uint256",
          "name": "shares",
          "type": "uint256"
        }
      ],
      "name": "withdraw",
      "outputs": [
        {
          "internalType": "uint256",
          "name": "assets",
          "type": "uint256"
        }
      ],
      "stateMutability": "nonpayable",
      "type": "function"
    }
  ],
  "bytecode": "0x60a034620002f957601f620038f538819003918201601f191683019291906001600160401b03841183851017620002fe578160609284926040968752833981010312620002f957620000518162000314565b906020916200006f846200006785850162000314565b930162000314565b600160009481865560ff199283835416835560c8600e556103e8600f5560056011558284601254161760125560018060a01b0380951680158015620002ee575b8015620002e3575b620002d257608052601080546001600160a01b0319169186169190911790558580526002808252878720959094168087529481528686205460ff16156200029d575b7fa49807205ce4d355092ef5a8a18f56e8913cf4a201fbe287825b095693c21775808752848252878720868852825260ff88882054161562000267575b507f4170d100a3a3728ae51207936ee755ecaa64a7f6e9383c642ab204a136f90b1b808752848252878720868852825260ff88882054161562000231575b507fccc64574297998b6c3edf6078cc5e01268465ff116954e3af02ff3a70a730f4693848752808252878720868852825260ff888820541615620001f9575b8742600c55516135ab90816200032a82396080518181816104fc015281816106280152818161078501528181610d1f0152818161163501528181611e27015261220a0152f35b8487528152868620908587525285852091825416179055600080516020620038d5833981519152339380a438808080808080620001b3565b80875284825287872086885282528787208385825416179055853391600080516020620038d58339815191528980a43862000174565b80875284825287872086885282528787208385825416179055853391600080516020620038d58339815191528980a43862000136565b85805283815286862085875281528686208284825416179055338587600080516020620038d58339815191528180a4620000f9565b885163162908e360e11b8152600490fd5b5085821615620000b7565b5085871615620000af565b600080fd5b634e487b7160e01b600052604160045260246000fd5b51906001600160a01b0382168203620002f95756fe608080604052600436101561001357600080fd5b60003560e01c90816301e1d1141461265d5750806301ffc9a71461260757806307a2d13a146125e95780630e7bd23114610391578063106b9ca1146125cb578063248a9ca31461259c5780632be01190146122c65780632c178bd0146122875780632e1a7d4d146120305780632f2ff15d14611f7d578063357ad7ad14611ee857806336568abe14611e5657806338d52e0f14611e1157806339ebf82314611d705780633a98ef3914611d525780633f4ba83a14611cbe5780634690484014611c95578063490b48f814611c5a57806351858e2714611c01578063527f116f1461155757806354192ad514611423578063552829021461140557806358d1d42a146113e75780635c975abb146113c457806364d60a7d146113a75780636b5cc2941461134157806370a082311461130757806375b238fc146112cc578063767f06ae146112b05780637a6efd47146110d957806387788782146110bb5780638ea447e614610dc85780638ed955b914610b485780638faee2a814610b2b57806391d1485414610ade578063962ca49614610948578063a217fddf1461092c578063a267526b146108ea578063a5ac4dd1146108c7578063a6f7f5d6146108a9578063abcbe0b21461086e578063b6b55f2514610480578063c6e6f5921461045a578063d547741f14610419578063dcdf92fb146103ed578063e1f1c4a7146103d0578063e8f8080c14610396578063ef434d61146103915763f51381da1461023a57600080fd5b3461038c5760208060031936011261038c576102546126c4565b600060a060405161026481612746565b8281528285820152826040820152606080820152826080820152015260018060a01b0316600052600a815260406000206040516102a081612746565b8154815260019283830154928183019384526002810154916040840192835260038201604051908183825491828152019160005283600020908960005b8281106103795750505050816102f491038261277c565b6060850190815260056004840154936080870194855201549360a086019485526040519683885260e08801965184890152516040880152516060870152519360c06080870152845180915281610100870195019160005b82811061036657845160a0890152855160c089015287870388f35b835187529581019592810192880161034b565b83548552938601939281019281016102dd565b600080fd5b612678565b3461038c57602036600319011261038c576001600160a01b036103b76126c4565b16600052600d6020526020604060002054604051908152f35b3461038c57600036600319011261038c5760206040516127108152f35b3461038c57602036600319011261038c57600435600052600b6020526020604060002054604051908152f35b3461038c57604036600319011261038c576104586004356104386126da565b90806000526002602052610453600160406000200154612daa565b612eb5565b005b3461038c57602036600319011261038c576020610478600435613408565b604051908152f35b3461038c57602036600319011261038c57610499613166565b6104a1613122565b6004351561085c576104b4600435613408565b6040516323b872dd60e01b602082015233602482015230604482015260043560648201526064815260a08101908082106001600160401b0383111761084657610520916040527f00000000000000000000000000000000000000000000000000000000000000006131bc565b3360005260086020526040600020610539828254612f3e565b905561054781600454612f3e565b600455610558600435600354612f3e565b60035560005b60065481101561080357610571816128b8565b60018060a01b0391549060031b1c169081600052600760205260ff604060002054166105a7575b6105a29150613106565b61055e565b600560205260406000206127106105c46001830154600435612f2b565b04908115801590816105da575b50505050610598565b90610762575b156106fe5760405163095ea7b360e01b602082018190526001600160a01b0386166024830152604480830185905282526000959092909161064c9061062660648261277c565b7f00000000000000000000000000000000000000000000000000000000000000006131bc565b805460405163b6b55f2560e01b8152600481018690529660209188916024918391906001600160a01b03165af195866106d3575b506105a2956106ba57506106b192506040519160208301526024820152600060448201526044815261062681612761565b838080806105d1565b6106cc92506003915001918254612f3e565b90556106b1565b602090813d83116106f7575b6106e9818361277c565b8101031261038c5787610680565b503d6106df565b60405162461bcd60e51b815260206004820152603660248201527f5361666545524332303a20617070726f76652066726f6d206e6f6e2d7a65726f60448201527520746f206e6f6e2d7a65726f20616c6c6f77616e636560501b6064820152608490fd5b50604051636eb1769f60e11b8152306004820152602481018590526020816044817f00000000000000000000000000000000000000000000000000000000000000006001600160a01b03165afa9081156107f7576000916107c5575b50156105e0565b90506020813d6020116107ef575b816107e06020938361277c565b8101031261038c5751866107be565b3d91506107d3565b6040513d6000823e3d90fd5b602082604051600435815281838201527f90890809c654f11d6e72a28fa60149770a0d11ec6c92319d6ceb2bb0a4ea1a1560403392a26001600055604051908152f35b634e487b7160e01b600052604160045260246000fd5b60405163162908e360e11b8152600490fd5b3461038c57600036600319011261038c5760206040517f4170d100a3a3728ae51207936ee755ecaa64a7f6e9383c642ab204a136f90b1b8152f35b3461038c57600036600319011261038c576020600e54604051908152f35b3461038c57600036600319011261038c57602060ff601254166040519015158152f35b3461038c57602036600319011261038c5760043560065481101561038c576109136020916128b8565b905460405160039290921b1c6001600160a01b03168152f35b3461038c57600036600319011261038c57602060405160008152f35b3461038c57600036600319011261038c57600080600091600060068054915b82811061099457602085878681610983575b5050604051908152f35b61098d92506133fe565b8280610979565b61099d816128b8565b60018060a09493941b03809354600392831b1c16600052600760209080825260ff9081604060002054166109df575b505050506109da9150613106565b610967565b948291610a496004969760059283865260406000209060405194610a028661272a565b8683541686526001830154998887019a8b526002840154604088015283015460608701528a830154608087015282015416151560a08501528a81015460c08501520161279d565b60e0820152511660405194858092634b16524b60e11b82525afa928391600094610aae575b5050610a7f5750506109da90613106565b90610a9e6109da939896610a98610aa494518094612f2b565b90612f3e565b95612f3e565b95878080806109cc565b9080929450813d8311610ad7575b610ac6818361277c565b8101031261038c5751918980610a6e565b503d610abc565b3461038c57604036600319011261038c57610af76126da565b600435600052600260205260406000209060018060a01b0316600052602052602060ff604060002054166040519015158152f35b3461038c57600036600319011261038c576020604051610e108152f35b3461038c57600036600319011261038c57610b61613166565b6000805b600654821015610ca357610b78826128b8565b929060018060a01b03938491549060031b1c16806000526020936007855260ff60406000205416610bb7575b5050610bb1919250613106565b90610b65565b846000916005825260408320541660046040518094819363e8d991d160e01b83525af160009181610c74575b50610bf5575050610bb1919250613106565b80610c0b575b5050610bb1919250829184610ba4565b604081610c3c7ff343dfc1e44c65296fb907b287e6e12133eb7945ba79ec463d65ef129757c2ff93610bb197612f3e565b9684600052600a80825283600020610c55848254612f3e565b90558560005281528260002054908351928352820152a2829184610bfb565b9091508581813d8311610c9c575b610c8c818361277c565b8101031261038c57519086610be3565b503d610c82565b620151804204600052602090600b82526040600020610cc3828254612f3e565b905580151580610cdc575b506001600055604051908152f35b600f54908115159081610dc0575b5015610cce57610cfd6127109183612f2b565b6040516370a0823160e01b81523060048201526001600160a01b0392909104907f00000000000000000000000000000000000000000000000000000000000000009085816024818786165afa9081156107f757600091610d93575b50828015159182610d88575b5050610d72575b5050610cce565b610d80926010541690613385565b828080610d6b565b101590508287610d64565b90508581813d8311610db9575b610daa818361277c565b8101031261038c575186610d58565b503d610da0565b905084610cea565b3461038c57604036600319011261038c57610de16126c4565b60249081356001600160401b03811161038c57610e0290369060040161288b565b610e0a612c65565b60018060a01b0380931692836000526020906007825260ff60406000205416156110a95784600052600582526040600020600091600390818301548581610fd2575b50508760005260078552604060002060ff1990818154169055600584019081541690556000600180940155600d855260006040812055826000905b610ed2575b887ff2f3b6b9f2a3bdce56fa5fd5304960564a1d25405f97dec9260b1165ac72850089898989610ec96040519485946040865260408601916130e5565b918301520390a2005b6006805480831015610fcb578a84610ee9856128b8565b905490881b1c1614610f06575050610f0090613106565b83610e87565b9394509260001991828201918211610fb657610f3584610f28610f54946128b8565b905490891b1c16916128b8565b90919082549060031b9160018060a01b03809116831b921b1916179055565b82548015610fa1577ff2f3b6b9f2a3bdce56fa5fd5304960564a1d25405f97dec9260b1165ac728500999a500192610f8b846128b8565b81939154921b1b19169055558594878080610e8c565b8a634e487b7160e01b60005260316004526000fd5b8b634e487b7160e01b60005260116004526000fd5b5050610e8c565b6000918b84875416916040519485938492632e1a7d4d60e01b845260048401525af16000918161107a575b506110735750600085828554168b60405180948193631bfc726f60e21b83523060048401525af160009181611044575b5061103c575b505b8985610e4c565b935089611033565b9091508681813d831161106c575b61105c818361277c565b8101031261038c5751908b61102d565b503d611052565b9350611035565b9091508681813d83116110a2575b611092818361277c565b8101031261038c5751908b610ffd565b503d611088565b604051631b92e95360e31b8152600490fd5b3461038c57600036600319011261038c576020600f54604051908152f35b3461038c57600036600319011261038c576110f2612905565b60ff80601254161561129e57600c54610e1081018091116112885742106112765760068054611120816130b3565b906000805b8281106112265750801580156111b2575b50505060005b82548110156111a4578061115261117f926128b8565b60018060a01b0391549060031b1c16806000526020600781528660406000205416611184575b5050613106565b61113c565b600d9061119184876133ea565b5192600052526040600020558580611178565b6111ac61350a565b42600c55005b611210576127100460005b8281101561113657806111d26111fa926128b8565b60018060a01b0391549060031b1c16600052600760205286604060002054166111ff57613106565b6111bd565b8261120a82876133ea565b52613106565b634e487b7160e01b600052601260045260246000fd5b61122f816128b8565b60018060a01b0391549060031b1c1660005260076020528560406000205416611261575b61125c90613106565b611125565b9061126e61125c91613106565b919050611253565b604051630a7d506f60e31b8152600490fd5b634e487b7160e01b600052601160045260246000fd5b60405163416aebb560e11b8152600490fd5b3461038c57600036600319011261038c576020604051600a8152f35b3461038c57600036600319011261038c5760206040517fa49807205ce4d355092ef5a8a18f56e8913cf4a201fbe287825b095693c217758152f35b3461038c57602036600319011261038c576001600160a01b036113286126c4565b1660005260086020526020604060002054604051908152f35b3461038c57602036600319011261038c576001600160a01b036113626126c4565b16600052600a60205260a06040600020805490600181015490600281015460056004830154920154926040519485526020850152604084015260608301526080820152f35b3461038c57600036600319011261038c5760206040516113888152f35b3461038c57600036600319011261038c57602060ff600154166040519015158152f35b3461038c57600036600319011261038c576020601154604051908152f35b3461038c57600036600319011261038c57602060405162093a808152f35b3461038c5760208060031936011261038c5761143d6126c4565b90606060e060405161144e8161272a565b600081526000848201526000604082015260008382015260006080820152600060a0820152600060c0820152015260018060a01b0380921660005260058152611553604060002091604051926114a38461272a565b84815416845260018101548285019081526002820154604086019081526003830154606087019081526004840154916080880192835260ff6005860154169360a089019415158552611503600760068801549760c08c019889520161279d565b9660e08a019788526040519a8b9a828c525116908a01525160408901525160608801525160808701525160a086015251151560c08501525160e08401525161010080840152610120830190612866565b0390f35b3461038c57608036600319011261038c576115706126c4565b6024356001600160401b03811161038c5761158f90369060040161288b565b90611598612c65565b6001600160a01b03831615611b69576001600160a01b03831660009081526007602052604090205460ff16611bef57600a6006541015611bdd57604435158015611bd1575b61085c5761138860643511611bbf576040516338d52e0f60e01b81526020816004816001600160a01b0388165afa60009181611b7b575b5061162b57604051632711b74d60e11b8152600490fd5b6001600160a01b037f00000000000000000000000000000000000000000000000000000000000000008116911603611b69576040516116698161272a565b6001600160a01b038416815260643560208201819052604082015260006060820152426080820152600160a082015260443560c08201526116a983612f4b565b6116b6604051918261277c565b838152368484011161038c578383602083013760006020858301015260e082015260018060a01b038416600052600560205260e060406000209160018060a01b038151166bffffffffffffffffffffffff60a01b845416178355602081015160018401556040810151600284015560608101516003840155608081015160048401556005830160a0820151151560ff8019835416911617905560c0810151600684015501518051906001600160401b0382116108465761177960078401546126f0565b601f8111611b29575b50602090601f8311600114611ab9576007929160009183611aae575b50508160011b916000199060031b1c1916179101555b6001600160a01b0383166000908152600760205260409020805460ff19166001179055600654600160401b8110156108465783610f358260016117fa94016006556128b8565b60018060a01b038316600052600d6020526064356040600020556040518060208101106001600160401b0360208301111761084657602081016040526000815260405161184681612746565b60008152602081019160008352604082016000815260608301918252426080840152600060a084015260018060a01b038716600052600a60205260406000209383518555516001850155516002840155518051906001600160401b03821161084657600160401b8211610846576020906003850154836003870155808410611a8e575b500160038401600052602060002060005b838110611a7a575050505060a08160806005930151600485015501519101556000806000600654905b8181106119995750508161196e575b50507fa60bb03b49d64a590d05814bbe4dc62875c4fe9a09567dc78c6de9ea38663b259161194d6040519283926060845260608401916130e5565b604435602083015260643560408301526001600160a01b03909416930390a2005b90611978916133fe565b60115410611987578380611912565b6040516373687cd760e11b8152600490fd5b6119a2816128b8565b60018060a01b0391549060031b1c16600052600760205260ff604060002054166119d5575b6119d090613106565b611903565b92611a726119d09160056020526020611a69604060002096610a98604051986119fd8a61272a565b80546001600160a01b03168a526001810154858b0152600281015460408b0152600381015460608b0152600481015460808b0152600581015460ff16151560a08b0152600681015460c08b0190815290611a599060070161279d565b60e08b015251848a015190612f2b565b95015190612f3e565b9390506119c7565b6001906020845194019381840155016118da565b611aa8906003870160005284846000209182019101613085565b886118c9565b01519050878061179e565b906007840160005260206000209160005b601f1985168110611b115750918391600193600795601f19811610611af8575b505050811b019101556117b4565b015160001960f88460031b161c19169055878080611aea565b91926020600181928685015181550194019201611aca565b611b5990600785016000526020600020601f850160051c81019160208610611b5f575b601f0160051c0190613085565b86611782565b9091508190611b4c565b604051632711b74d60e11b8152600490fd5b9091506020813d602011611bb7575b81611b976020938361277c565b8101031261038c57516001600160a01b038116810361038c579085611614565b3d9150611b8a565b6040516305d7ba1960e11b8152600490fd5b50600a604435116115dd565b604051631f62ca4f60e21b8152600490fd5b60405163c45546f760e01b8152600490fd5b3461038c57600036600319011261038c57611c1a612b20565b611c22613122565b600160ff19815416176001557f62e78cea01bee320cd4e420270b5ea74000d11b0c9f74754ebdbfc544b05a2586020604051338152a1005b3461038c57600036600319011261038c5760206040517fccc64574297998b6c3edf6078cc5e01268465ff116954e3af02ff3a70a730f468152f35b3461038c57600036600319011261038c576010546040516001600160a01b039091168152602090f35b3461038c57600036600319011261038c57611cd7612b20565b60015460ff811615611d165760ff19166001557f5db9ee0a495bf2e6ff9c91a7834c1ba4fdd244a5e8aa4e537bd38aeae4b073aa6020604051338152a1005b60405162461bcd60e51b815260206004820152601460248201527314185d5cd8589b194e881b9bdd081c185d5cd95960621b6044820152606490fd5b3461038c57600036600319011261038c576020600454604051908152f35b3461038c57602036600319011261038c576001600160a01b0380611d926126c4565b1660005260056020526040600020908154166115536001830154926002810154906003810154600482015460ff60058401541691611dd760076006860154950161279d565b9460405198899889526020890152604088015260608701526080860152151560a085015260c08401526101008060e0850152830190612866565b3461038c57600036600319011261038c576040517f00000000000000000000000000000000000000000000000000000000000000006001600160a01b03168152602090f35b3461038c57604036600319011261038c57611e6f6126da565b336001600160a01b03821603611e8b5761045890600435612eb5565b60405162461bcd60e51b815260206004820152602f60248201527f416363657373436f6e74726f6c3a2063616e206f6e6c792072656e6f756e636560448201526e103937b632b9903337b91039b2b63360891b6064820152608490fd5b3461038c57608036600319011261038c576004356044356001600160a01b038116906024359082900361038c576064359283151580940361038c57611f2b612b20565b6103e881118015611f72575b61085c57821561085c57600e55600f556bffffffffffffffffffffffff60a01b601054161760105560ff801960125416911617601255600080f35b506107d08211611f37565b3461038c57604036600319011261038c57600435611f996126da565b816000526002602052611fb3600160406000200154612daa565b81600052600260205260406000209060018060a01b0316908160005260205260ff6040600020541615611fe257005b8160005260026020526040600020816000526020526040600020600160ff1982541617905533917f2f8788117e7eff1d82e926ec794901d17c78024a50270940304540a733656f0d600080a4005b3461038c5760208060031936011261038c5760043561204d613166565b801561085c573360005260088252806040600020541061227557612070816134f5565b8060005b60065481108061226c575b156121c85761208d816128b8565b60018060a09493941b03809354600392831b1c166000526007875260ff604060002054166120c6575b506120c19150613106565b612074565b60058752604060002092876127106120e2600187015489612f2b565b049285019283548088106000146121c35750865b808210156121bb5750915b8261210f575b5050506120b6565b600094955416602460405180968193632e1a7d4d60e01b83528660048401525af16000938161218c575b5061214a575050506120c190613106565b918161216b61217b946120c196979454908181106000146121855790613115565b9055818110156121855790613115565b9186808781612107565b5080613115565b9093508881813d83116121b4575b6121a4818361277c565b8101031261038c57519289612139565b503d61219a565b905091612101565b6120f6565b505090336000526008835260406000206121e3828254613115565b90556121f181600454613115565b60045561220082600354613115565b60035561222e82337f0000000000000000000000000000000000000000000000000000000000000000613385565b60405190828252838201527fdf273cb619d95419a9cd0ec88123a0538c85064229baa6363788f743fff90deb60403392a26001600055604051908152f35b5081151561207f565b604051631e9acf1760e31b8152600490fd5b3461038c57602036600319011261038c576001600160a01b036122a86126c4565b166000526007602052602060ff604060002054166040519015158152f35b3461038c57604036600319011261038c576001600160401b0360043581811161038c576122f7903690600401612694565b9160243590811161038c57612310903690600401612694565b92909161231b612905565b600c54610e1081018091116112885742106112765783820361085c576000805b8581106125365750600080600654905b8181106124e55750508303611bbf5761271003611bbf5761236b826130b3565b9360005b8381106124aa575060005b838110612466575061238a61350a565b42600c55604051928060808501608086525260a0840192906000905b80821061243c575050506020918381038385015282808751928381520196019060005b8181106124285750505082850360408401528085526001600160fb1b03811161038c577f7255fc1a6ed23f2388aeff823d30ab1eefc7cb342f1481762f8e7bada20c5f2993839160051b809184880137426060830152339501030190a2005b8251885296840196918401916001016123c9565b90919384359060018060a01b03821680920361038c576001918152602080910195019201906123a6565b806124756124a59284886133c6565b356001600160a01b0361249161248c8489896133c6565b6133d6565b16600052600d602052604060002055613106565b61237a565b6124e0906001600160a01b036124c461248c8388886133c6565b16600052600560205260016040600020015461120a82896133ea565b61236f565b6124ee816128b8565b60018060a01b0391549060031b1c16600052600760205260ff60406000205416612521575b61251c90613106565b61234b565b9161252e61251c91613106565b929050612513565b906001600160a01b0361254d61248c8487876133c6565b16600052600760205260ff60406000205416156110a9576113886125728388886133c6565b3511611bbf576125916125979161258a8489896133c6565b3590612f3e565b91613106565b61233b565b3461038c57602036600319011261038c5760043560005260026020526020600160406000200154604051908152f35b3461038c57600036600319011261038c576020600c54604051908152f35b3461038c57602036600319011261038c5760206104786004356134f5565b3461038c57602036600319011261038c5760043563ffffffff60e01b811680910361038c57602090637965db0b60e01b811490811561264c575b506040519015158152f35b6301ffc9a760e01b14905082612641565b3461038c57600036600319011261038c576020906003548152f35b3461038c57600036600319011261038c57602060405160648152f35b9181601f8401121561038c578235916001600160401b03831161038c576020808501948460051b01011161038c57565b600435906001600160a01b038216820361038c57565b602435906001600160a01b038216820361038c57565b90600182811c92168015612720575b602083101461270a57565b634e487b7160e01b600052602260045260246000fd5b91607f16916126ff565b61010081019081106001600160401b0382111761084657604052565b60c081019081106001600160401b0382111761084657604052565b608081019081106001600160401b0382111761084657604052565b90601f801991011681019081106001600160401b0382111761084657604052565b90604051918260008254926127b1846126f0565b90818452600194858116908160001461282057506001146127dd575b50506127db9250038361277c565b565b9093915060005260209081600020936000915b8183106128085750506127db935082010138806127cd565b855488840185015294850194879450918301916127f0565b9150506127db94506020925060ff191682840152151560051b82010138806127cd565b60005b8381106128565750506000910152565b8181015183820152602001612846565b9060209161287f81518092818552858086019101612843565b601f01601f1916010190565b9181601f8401121561038c578235916001600160401b03831161038c576020838186019501011161038c57565b6006548110156128ef5760066000527ff652222313e28459528d920b65115c16c04f3efc82aaedc97be59f3f377c0d3f0190600090565b634e487b7160e01b600052603260045260246000fd5b3360009081527fd190f20293c25cf866c072dd5acee973f736c2049fca83b655cd3f77af4eadae602090815260408083205490927fccc64574297998b6c3edf6078cc5e01268465ff116954e3af02ff3a70a730f469160ff16156129695750505050565b61297233612f77565b9184519061297f82612761565b60428252848201926060368537825115612b0c5760308453825190600191821015612b0c5790607860218501536041915b818311612a9e57505050612a5c576048612a58938693612a3c93612a2d985198899376020b1b1b2b9b9a1b7b73a3937b61d1030b1b1b7bab73a1604d1b8a860152612a04815180928c603789019101612843565b8401917001034b99036b4b9b9b4b733903937b6329607d1b603784015251809386840190612843565b0103602881018752018561277c565b5192839262461bcd60e51b845260048401526024830190612866565b0390fd5b60648486519062461bcd60e51b825280600483015260248201527f537472696e67733a20686578206c656e67746820696e73756666696369656e746044820152fd5b909192600f81166010811015612af8576f181899199a1a9b1b9c1cb0b131b232b360811b901a612ace8587612f66565b5360041c928015612ae4576000190191906129b0565b634e487b7160e01b82526011600452602482fd5b634e487b7160e01b83526032600452602483fd5b634e487b7160e01b81526032600452602490fd5b3360009081527fe5ebfa64fca8d502a8e50c1edffd2c31ef4dad5b396e65d9f397fb028f74abc5602090815260408083205490927fa49807205ce4d355092ef5a8a18f56e8913cf4a201fbe287825b095693c217759160ff1615612b845750505050565b612b8d33612f77565b91845190612b9a82612761565b60428252848201926060368537825115612b0c5760308453825190600191821015612b0c5790607860218501536041915b818311612c1f57505050612a5c576048612a58938693612a3c93612a2d985198899376020b1b1b2b9b9a1b7b73a3937b61d1030b1b1b7bab73a1604d1b8a860152612a04815180928c603789019101612843565b909192600f81166010811015612af8576f181899199a1a9b1b9c1cb0b131b232b360811b901a612c4f8587612f66565b5360041c928015612ae457600019019190612bcb565b3360009081527f5a10db7eb5fb087477f68987ff09c6ebb13410247d1a97126552f0c97385b266602090815260408083205490927f4170d100a3a3728ae51207936ee755ecaa64a7f6e9383c642ab204a136f90b1b9160ff1615612cc95750505050565b612cd233612f77565b91845190612cdf82612761565b60428252848201926060368537825115612b0c5760308453825190600191821015612b0c5790607860218501536041915b818311612d6457505050612a5c576048612a58938693612a3c93612a2d985198899376020b1b1b2b9b9a1b7b73a3937b61d1030b1b1b7bab73a1604d1b8a860152612a04815180928c603789019101612843565b909192600f81166010811015612af8576f181899199a1a9b1b9c1cb0b131b232b360811b901a612d948587612f66565b5360041c928015612ae457600019019190612d10565b60009080825260209060028252604092838120338252835260ff848220541615612dd45750505050565b612ddd33612f77565b91845190612dea82612761565b60428252848201926060368537825115612b0c5760308453825190600191821015612b0c5790607860218501536041915b818311612e6f57505050612a5c576048612a58938693612a3c93612a2d985198899376020b1b1b2b9b9a1b7b73a3937b61d1030b1b1b7bab73a1604d1b8a860152612a04815180928c603789019101612843565b909192600f81166010811015612af8576f181899199a1a9b1b9c1cb0b131b232b360811b901a612e9f8587612f66565b5360041c928015612ae457600019019190612e1b565b906000918083526002602052604083209160018060a01b03169182845260205260ff604084205416612ee657505050565b8083526002602052604083208284526020526040832060ff1981541690557ff6391f5c32d9c69d2a47ea670b442974b53935d1edc7fd64eb21e047a839171b339380a4565b8181029291811591840414171561128857565b9190820180921161128857565b6001600160401b03811161084657601f01601f191660200190565b9081518110156128ef570160200190565b60405190606082018281106001600160401b0382111761084657604052602a82526020820160403682378251156128ef576030905381516001908110156128ef57607860218401536029905b808211613017575050612fd35790565b606460405162461bcd60e51b815260206004820152602060248201527f537472696e67733a20686578206c656e67746820696e73756666696369656e746044820152fd5b9091600f81166010811015613070576f181899199a1a9b1b9c1cb0b131b232b360811b901a6130468486612f66565b5360041c91801561305b576000190190612fc3565b60246000634e487b7160e01b81526011600452fd5b60246000634e487b7160e01b81526032600452fd5b818110613090575050565b60008155600101613085565b6001600160401b0381116108465760051b60200190565b906130bd8261309c565b6130ca604051918261277c565b82815280926130db601f199161309c565b0190602036910137565b908060209392818452848401376000828201840152601f01601f1916010190565b60001981146112885760010190565b9190820391821161128857565b60ff6001541661312e57565b60405162461bcd60e51b815260206004820152601060248201526f14185d5cd8589b194e881c185d5cd95960821b6044820152606490fd5b600260005414613177576002600055565b60405162461bcd60e51b815260206004820152601f60248201527f5265656e7472616e637947756172643a207265656e7472616e742063616c6c006044820152606490fd5b60018060a01b03169060405160408101908082106001600160401b038311176108465761324b916040526020938482527f5361666545524332303a206c6f772d6c6576656c2063616c6c206661696c6564858301526000808587829751910182855af13d156132e8573d9161323083612f4b565b9261323e604051948561277c565b83523d868885013e6132ec565b8051918215918483156132bd575b5050509050156132665750565b6084906040519062461bcd60e51b82526004820152602a60248201527f5361666545524332303a204552433230206f7065726174696f6e20646964206e6044820152691bdd081cdd58d8d9595960b21b6064820152fd5b9193818094500103126132e4578201519081151582036132e1575080388084613259565b80fd5b5080fd5b6060915b9192901561334e5750815115613300575090565b3b156133095790565b60405162461bcd60e51b815260206004820152601d60248201527f416464726573733a2063616c6c20746f206e6f6e2d636f6e74726163740000006044820152606490fd5b8251909150156133615750805190602001fd5b60405162461bcd60e51b815260206004820152908190612a58906024830190612866565b60405163a9059cbb60e01b60208201526001600160a01b039290921660248301526044808301939093529181526127db916133c160648361277c565b6131bc565b91908110156128ef5760051b0190565b356001600160a01b038116810361038c5790565b80518210156128ef5760209160051b010190565b8115611210570490565b6003548015801561342b575b6134275760045461342492613435565b90565b5090565b5060045415613414565b9160001982840992828102928380861095039480860395146134e857848311156134ab578291096001821901821680920460028082600302188083028203028083028203028083028203028083028203028083028203028092029003029360018380600003040190848311900302920304170290565b60405162461bcd60e51b81526020600482015260156024820152744d6174683a206d756c446976206f766572666c6f7760581b6044820152606490fd5b50509061342492506133fe565b60045480156134275760035461342492613435565b60005b6006548110156135725780613524613551926128b8565b60018060a01b0391549060031b1c16600052602060078152604060ff816000205416613556575050613106565b61350d565b600190600d835260058160002054935260002001553880611178565b5056fea264697066735822122079d5d7082309c0384cb5020fea1d6f9ca02c7024155079c594df970477bb61a364736f6c634300081400332f8788117e7eff1d82e926ec794901d17c78024a50270940304540a733656f0d",
  "linkReferences": {},
  "deployedLinkReferences": {}
}