{
  "_format": "hh-sol-artifact-1",
  "contractName": "YieldEscrowOptimized",
  "sourceName": "src/YieldEscrowOptimized.sol",
  "abi": [
    {
      "inputs": [
        {
          "internalType": "address",
          "name": "admin",
          "type": "address"
        },
        {
          "internalType": "address",
          "name": "feeRecipient_",
          "type": "address"
        }
      ],
      "stateMutability": "nonpayable",
      "type": "constructor"
    },
    {
      "inputs": [],
      "name": "DepositNotFound",
      "type": "error"
    },
    {
      "inputs": [],
      "name": "InvalidAddress",
      "type": "error"
    },
    {
      "inputs": [],
      "name": "InvalidAmount",
      "type": "error"
    },
    {
      "inputs": [],
      "name": "PaymentAlreadyProcessed",
      "type": "error"
    },
    {
      "inputs": [],
      "name": "PaymentAlreadyReleased",
      "type": "error"
    },
    {
      "inputs": [],
      "name": "TokenNotSupported",
      "type": "error"
    },
    {
      "inputs": [],
      "name": "UnauthorizedRelease",
      "type": "error"
    },
    {
      "anonymous": false,
      "inputs": [
        {
          "indexed": true,
          "internalType": "bytes32",
          "name": "paymentHash",
          "type": "bytes32"
        },
        {
          "indexed": true,
          "internalType": "address",
          "name": "user",
          "type": "address"
        },
        {
          "indexed": true,
          "internalType": "address",
          "name": "merchant",
          "type": "address"
        },
        {
          "indexed": false,
          "internalType": "address",
          "name": "token",
          "type": "address"
        },
        {
          "indexed": false,
          "internalType": "uint256",
          "name": "amount",
          "type": "uint256"
        },
        {
          "indexed": false,
          "internalType": "uint256",
          "name": "depositIndex",
          "type": "uint256"
        }
      ],
      "name": "DepositCreated",
      "type": "event"
    },
    {
      "anonymous": false,
      "inputs": [
        {
          "indexed": false,
          "internalType": "address",
          "name": "account",
          "type": "address"
        }
      ],
      "name": "Paused",
      "type": "event"
    },
    {
      "anonymous": false,
      "inputs": [
        {
          "indexed": true,
          "internalType": "bytes32",
          "name": "paymentHash",
          "type": "bytes32"
        },
        {
          "indexed": true,
          "internalType": "address",
          "name": "user",
          "type": "address"
        },
        {
          "indexed": true,
          "internalType": "address",
          "name": "merchant",
          "type": "address"
        },
        {
          "indexed": false,
          "internalType": "uint256",
          "name": "amount",
          "type": "uint256"
        }
      ],
      "name": "PaymentReleased",
      "type": "event"
    },
    {
      "anonymous": false,
      "inputs": [
        {
          "indexed": true,
          "internalType": "bytes32",
          "name": "role",
          "type": "bytes32"
        },
        {
          "indexed": true,
          "internalType": "bytes32",
          "name": "previousAdminRole",
          "type": "bytes32"
        },
        {
          "indexed": true,
          "internalType": "bytes32",
          "name": "newAdminRole",
          "type": "bytes32"
        }
      ],
      "name": "RoleAdminChanged",
      "type": "event"
    },
    {
      "anonymous": false,
      "inputs": [
        {
          "indexed": true,
          "internalType": "bytes32",
          "name": "role",
          "type": "bytes32"
        },
        {
          "indexed": true,
          "internalType": "address",
          "name": "account",
          "type": "address"
        },
        {
          "indexed": true,
          "internalType": "address",
          "name": "sender",
          "type": "address"
        }
      ],
      "name": "RoleGranted",
      "type": "event"
    },
    {
      "anonymous": false,
      "inputs": [
        {
          "indexed": true,
          "internalType": "bytes32",
          "name": "role",
          "type": "bytes32"
        },
        {
          "indexed": true,
          "internalType": "address",
          "name": "account",
          "type": "address"
        },
        {
          "indexed": true,
          "internalType": "address",
          "name": "sender",
          "type": "address"
        }
      ],
      "name": "RoleRevoked",
      "type": "event"
    },
    {
      "anonymous": false,
      "inputs": [
        {
          "indexed": true,
          "internalType": "address",
          "name": "token",
          "type": "address"
        },
        {
          "indexed": false,
          "internalType": "bool",
          "name": "supported",
          "type": "bool"
        }
      ],
      "name": "TokenSupported",
      "type": "event"
    },
    {
      "anonymous": false,
      "inputs": [
        {
          "indexed": false,
          "internalType": "address",
          "name": "account",
          "type": "address"
        }
      ],
      "name": "Unpaused",
      "type": "event"
    },
    {
      "inputs": [],
      "name": "ADMIN_ROLE",
      "outputs": [
        {
          "internalType": "bytes32",
          "name": "",
          "type": "bytes32"
        }
      ],
      "stateMutability": "view",
      "type": "function"
    },
    {
      "inputs": [],
      "name": "DEFAULT_ADMIN_ROLE",
      "outputs": [
        {
          "internalType": "bytes32",
          "name": "",
          "type": "bytes32"
        }
      ],
      "stateMutability": "view",
      "type": "function"
    },
    {
      "inputs": [
        {
          "internalType": "uint256",
          "name": "amount",
          "type": "uint256"
        },
        {
          "internalType": "address",
          "name": "token",
          "type": "address"
        },
        {
          "internalType": "address",
          "name": "merchant",
          "type": "address"
        },
        {
          "internalType": "bytes32",
          "name": "paymentHash",
          "type": "bytes32"
        }
      ],
      "name": "createDeposit",
      "outputs": [
        {
          "internalType": "uint256",
          "name": "depositIndex",
          "type": "uint256"
        }
      ],
      "stateMutability": "nonpayable",
      "type": "function"
    },
    {
      "inputs": [],
      "name": "feeRecipient",
      "outputs": [
        {
          "internalType": "address",
          "name": "",
          "type": "address"
        }
      ],
      "stateMutability": "view",
      "type": "function"
    },
    {
      "inputs": [
        {
          "internalType": "address",
          "name": "user",
          "type": "address"
        },
        {
          "internalType": "uint256",
          "name": "depositIndex",
          "type": "uint256"
        }
      ],
      "name": "getDeposit",
      "outputs": [
        {
          "components": [
            {
              "internalType": "uint256",
              "name": "amount",
              "type": "uint256"
            },
            {
              "internalType": "address",
              "name": "token",
              "type": "address"
            },
            {
              "internalType": "bool",
              "name": "released",
              "type": "bool"
            },
            {
              "internalType": "uint32",
              "name": "timestamp",
              "type": "uint32"
            },
            {
              "internalType": "address",
              "name": "merchant",
              "type": "address"
            },
            {
              "internalType": "bytes32",
              "name": "paymentHash",
              "type": "bytes32"
            }
          ],
          "internalType": "struct YieldEscrowOptimized.Deposit",
          "name": "",
          "type": "tuple"
        }
      ],
      "stateMutability": "view",
      "type": "function"
    },
    {
      "inputs": [
        {
          "internalType": "bytes32",
          "name": "role",
          "type": "bytes32"
        }
      ],
      "name": "getRoleAdmin",
      "outputs": [
        {
          "internalType": "bytes32",
          "name": "",
          "type": "bytes32"
        }
      ],
      "stateMutability": "view",
      "type": "function"
    },
    {
      "inputs": [
        {
          "internalType": "address",
          "name": "user",
          "type": "address"
        }
      ],
      "name": "getUserDepositCount",
      "outputs": [
        {
          "internalType": "uint256",
          "name": "",
          "type": "uint256"
        }
      ],
      "stateMutability": "view",
      "type": "function"
    },
    {
      "inputs": [
        {
          "internalType": "bytes32",
          "name": "role",
          "type": "bytes32"
        },
        {
          "internalType": "address",
          "name": "account",
          "type": "address"
        }
      ],
      "name": "grantRole",
      "outputs": [],
      "stateMutability": "nonpayable",
      "type": "function"
    },
    {
      "inputs": [
        {
          "internalType": "bytes32",
          "name": "role",
          "type": "bytes32"
        },
        {
          "internalType": "address",
          "name": "account",
          "type": "address"
        }
      ],
      "name": "hasRole",
      "outputs": [
        {
          "internalType": "bool",
          "name": "",
          "type": "bool"
        }
      ],
      "stateMutability": "view",
      "type": "function"
    },
    {
      "inputs": [
        {
          "internalType": "bytes32",
          "name": "paymentHash",
          "type": "bytes32"
        }
      ],
      "name": "isPaymentProcessed",
      "outputs": [
        {
          "internalType": "bool",
          "name": "",
          "type": "bool"
        }
      ],
      "stateMutability": "view",
      "type": "function"
    },
    {
      "inputs": [],
      "name": "pause",
      "outputs": [],
      "stateMutability": "nonpayable",
      "type": "function"
    },
    {
      "inputs": [],
      "name": "paused",
      "outputs": [
        {
          "internalType": "bool",
          "name": "",
          "type": "bool"
        }
      ],
      "stateMutability": "view",
      "type": "function"
    },
    {
      "inputs": [
        {
          "internalType": "bytes32",
          "name": "",
          "type": "bytes32"
        }
      ],
      "name": "processedPaymentHashes",
      "outputs": [
        {
          "internalType": "bool",
          "name": "",
          "type": "bool"
        }
      ],
      "stateMutability": "view",
      "type": "function"
    },
    {
      "inputs": [
        {
          "internalType": "address",
          "name": "user",
          "type": "address"
        },
        {
          "internalType": "uint256",
          "name": "depositIndex",
          "type": "uint256"
        }
      ],
      "name": "releasePayment",
      "outputs": [],
      "stateMutability": "nonpayable",
      "type": "function"
    },
    {
      "inputs": [
        {
          "internalType": "bytes32",
          "name": "role",
          "type": "bytes32"
        },
        {
          "internalType": "address",
          "name": "account",
          "type": "address"
        }
      ],
      "name": "renounceRole",
      "outputs": [],
      "stateMutability": "nonpayable",
      "type": "function"
    },
    {
      "inputs": [
        {
          "internalType": "bytes32",
          "name": "role",
          "type": "bytes32"
        },
        {
          "internalType": "address",
          "name": "account",
          "type": "address"
        }
      ],
      "name": "revokeRole",
      "outputs": [],
      "stateMutability": "nonpayable",
      "type": "function"
    },
    {
      "inputs": [
        {
          "internalType": "address",
          "name": "newFeeRecipient",
          "type": "address"
        }
      ],
      "name": "setFeeRecipient",
      "outputs": [],
      "stateMutability": "nonpayable",
      "type": "function"
    },
    {
      "inputs": [
        {
          "internalType": "address",
          "name": "token",
          "type": "address"
        },
        {
          "internalType": "bool",
          "name": "supported",
          "type": "bool"
        }
      ],
      "name": "setSupportedToken",
      "outputs": [],
      "stateMutability": "nonpayable",
      "type": "function"
    },
    {
      "inputs": [
        {
          "internalType": "address",
          "name": "",
          "type": "address"
        }
      ],
      "name": "supportedTokens",
      "outputs": [
        {
          "internalType": "bool",
          "name": "",
          "type": "bool"
        }
      ],
      "stateMutability": "view",
      "type": "function"
    },
    {
      "inputs": [
        {
          "internalType": "bytes4",
          "name": "interfaceId",
          "type": "bytes4"
        }
      ],
      "name": "supportsInterface",
      "outputs": [
        {
          "internalType": "bool",
          "name": "",
          "type": "bool"
        }
      ],
      "stateMutability": "view",
      "type": "function"
    },
    {
      "inputs": [],
      "name": "unpause",
      "outputs": [],
      "stateMutability": "nonpayable",
      "type": "function"
    },
    {
      "inputs": [
        {
          "internalType": "address",
          "name": "",
          "type": "address"
        }
      ],
      "name": "userDepositCount",
      "outputs": [
        {
          "internalType": "uint256",
          "name": "",
          "type": "uint256"
        }
      ],
      "stateMutability": "view",
      "type": "function"
    },
    {
      "inputs": [
        {
          "internalType": "address",
          "name": "",
          "type": "address"
        },
        {
          "internalType": "uint256",
          "name": "",
          "type": "uint256"
        }
      ],
      "name": "userDeposits",
      "outputs": [
        {
          "internalType": "uint256",
          "name": "amount",
          "type": "uint256"
        },
        {
          "internalType": "address",
          "name": "token",
          "type": "address"
        },
        {
          "internalType": "bool",
          "name": "released",
          "type": "bool"
        },
        {
          "internalType": "uint32",
          "name": "timestamp",
          "type": "uint32"
        },
        {
          "internalType": "address",
          "name": "merchant",
          "type": "address"
        },
        {
          "internalType": "bytes32",
          "name": "paymentHash",
          "type": "bytes32"
        }
      ],
      "stateMutability": "view",
      "type": "function"
    }
  ],
  "bytecode": "0x6080346200019c57620015d390601f38839003908101601f19168201906001600160401b03821183831017620001a157808391604095869485528339810103126200019c576200004f81620001b7565b906200005f6020809201620001b7565b60016000818155815460ff199081169092556001600160a01b0394929390928516918215801562000191575b620001805783805260028252868420838552825260ff87852054161562000149575b7fa49807205ce4d355092ef5a8a18f56e8913cf4a201fbe287825b095693c217759182855260028152878520848652815260ff8886205416156200010f575b600380546001600160a01b03191687891617905587516113e69081620001cd8239f35b828552600281528785209084865252600187852091825416179055600080516020620015b3833981519152339380a43880808080620000ec565b838052600282528684208385528252868420600182825416179055338385600080516020620015b38339815191528180a4620000ad565b865163e6c4247b60e01b8152600490fd5b50858516156200008b565b600080fd5b634e487b7160e01b600052604160045260246000fd5b51906001600160a01b03821682036200019c5756fe608060408181526004908136101561001657600080fd5b600092833560e01c90816301ffc9a714610cf75750806308f4333314610c715780631bae91a4146108c2578063248a9ca314610c465780632726b50614610b595780632f2ff15d14610aac57806336568abe14610a1a5780633f4ba83a14610984578063469048401461095b5780634a0ea4d7146102725780635c975abb1461093757806368c4ac26146108fa578063729c3e0e146108c257806375b238fc146108875780638456cb59146107f357806384e9abca146105a457806391d148541461055d578063966ecf3b1461029f57806399fcfb4314610272578063a217fddf14610253578063d547741f14610216578063e74b981b146101b95763e79864661461012157600080fd5b346101b557806003193601126101b557610139610d4b565b90602435918215158093036101b157610150610d7c565b6001600160a01b03169283156101a357916020917fd86c88b4a367d9b81a6e00c9d3f7d01657bffef358fa8968c91c045ae99f0d5293858752835280862060ff1981541660ff841617905551908152a280f35b905163e6c4247b60e01b8152fd5b8480fd5b8280fd5b5090346101b55760203660031901126101b5576101d4610d4b565b6101dc610d7c565b6001600160a01b03169182156102095750506bffffffffffffffffffffffff60a01b600354161760035580f35b5163e6c4247b60e01b8152fd5b50346101b557806003193601126101b557610250913561024b6001610239610d66565b93838752600260205286200154610f92565b61115b565b80f35b83823461026e578160031936011261026e5751908152602090f35b5080fd5b5090346101b55760203660031901126101b5578160209360ff923581526005855220541690519015158152f35b50346101b557806003193601126101b5576102b8610d4b565b600284541461051a576002845560018060a01b0380911691828552602090600682528086209260249384358852835281872095865494851561050b576001880180549660ff8860a01c166104fb5760028a019785895416928333036104eb5760ff60a01b198216600160a01b179055865163a9059cbb60e01b89820190815285820194909452604480820193909352918252608082019267ffffffffffffffff9291871691838511818610176104d95760c08101858110858211176104c75789528985527f5361666545524332303a206c6f772d6c6576656c2063616c6c206661696c656460a0820152518d9182919082855af1913d156104b9573d9081116104a757918c916103e794938951906103d98c601f19601f840116018361110d565b815280938b3d92013e61131f565b80519086821592831561048f575b5050501561043a575050907f8895f1b42dba89b953fe6fe74f5854edd2c96c7b2ac3123a216d9cca241225c69291600387015494541695549051908152a46001815580f35b835162461bcd60e51b8152918201859052602a908201527f5361666545524332303a204552433230206f7065726174696f6e20646964206e6044820152691bdd081cdd58d8d9595960b21b6064820152608490fd5b61049f9350820181019101611307565b3886816103f5565b634e487b7160e01b8d5260418652848dfd5b506103e7929160609161131f565b634e487b7160e01b8f5260418852868ffd5b634e487b7160e01b8e5260418752858efd5b87516311c5a7c360e11b81528690fd5b855163017cbd4560e61b81528490fd5b50825163411321ed60e01b8152fd5b815162461bcd60e51b8152602081850152601f60248201527f5265656e7472616e637947756172643a207265656e7472616e742063616c6c006044820152606490fd5b5090346101b557816003193601126101b5578160209360ff9261057e610d66565b90358252600286528282206001600160a01b039091168252855220549151911615158152f35b5082903461026e57608036600319011261026e578235916105c3610d66565b6001600160a01b0393604435858116939291908490036101b55760643591811580156107eb575b6107db5786169283815260209780895260ff8783205416156107cd578382526005895260ff87832054166107bf5733825260078952868220549787516323b872dd60e01b815233838201523060248201528460448201528a81606481878b5af180156107b557888c936003938993610788575b508b8d81519661066c886110bf565b8a8852808801928d8452808901928b845260608a019263ffffffff4216845260808b0197885260a08b01988952338d5260068152828d20918d52528a2097518855836001890193511683549260ff60a01b9051151560a01b169163ffffffff60a81b905160a81b169266ffffffffffffff60c81b161717179055600285019151166bffffffffffffffffffffffff60a01b825416179055519101553382526007895286822090815490600019821461077557509060018893920190558381526005895220600160ff1982541617905584519283528683015284848301527f9901cb80a9fc9d95ca736833266efdbac89fb6ccf596f4c47dd1804389be2a6f60603393a451908152f35b634e487b7160e01b845260119052602483fd5b6107a790863d88116107ae575b61079f818361110d565b810190611307565b508e61065d565b503d610795565b89513d86823e3d90fd5b865163424e8d7160e01b8152fd5b8651633dd1b30560e01b8152fd5b855163162908e360e11b81528890fd5b5084156105ea565b5090346101b557826003193601126101b55761080d610d7c565b6001549060ff821661085157507f62e78cea01bee320cd4e420270b5ea74000d11b0c9f74754ebdbfc544b05a25891600160209260ff19161760015551338152a180f35b606490602084519162461bcd60e51b8352820152601060248201526f14185d5cd8589b194e881c185d5cd95960821b6044820152fd5b83823461026e578160031936011261026e57602090517fa49807205ce4d355092ef5a8a18f56e8913cf4a201fbe287825b095693c217758152f35b83823461026e57602036600319011261026e5760209181906001600160a01b036108ea610d4b565b1681526007845220549051908152f35b5090346101b55760203660031901126101b55760209260ff918391906001600160a01b03610926610d4b565b168252855220541690519015158152f35b83823461026e578160031936011261026e5760209060ff6001541690519015158152f35b83823461026e578160031936011261026e5760035490516001600160a01b039091168152602090f35b5090346101b557826003193601126101b55761099e610d7c565b6001549060ff8216156109e0575060ff1916600155513381527f5db9ee0a495bf2e6ff9c91a7834c1ba4fdd244a5e8aa4e537bd38aeae4b073aa90602090a180f35b606490602084519162461bcd60e51b8352820152601460248201527314185d5cd8589b194e881b9bdd081c185d5cd95960621b6044820152fd5b5091903461026e578260031936011261026e57610a35610d66565b90336001600160a01b03831603610a515790610250913561115b565b608490602085519162461bcd60e51b8352820152602f60248201527f416363657373436f6e74726f6c3a2063616e206f6e6c792072656e6f756e636560448201526e103937b632b9903337b91039b2b63360891b6064820152fd5b5090346101b557816003193601126101b5573590610ac8610d66565b908284526002602052610ae060018286200154610f92565b828452600260209081528185206001600160a01b039093168086529290528084205460ff1615610b0e578380f35b82845260026020528084208285526020528320600160ff1982541617905533917f2f8788117e7eff1d82e926ec794901d17c78024a50270940304540a733656f0d8480a43880808380f35b83823461026e578060031936011261026e5760c09181610b77610d4b565b918060a08351610b86816110bf565b8281528260208201528285820152826060820152826080820152015260018060a01b038093168152600660205281812060243582526020522090825191610bcc836110bf565b8054938484526001820154906020850190848316825280860160ff8460a01c161515815285606088019363ffffffff809660a81c16855260a060038360028a0154169860808c01998a52015499019889528351998a52511660208901525115159087015251166060850152511660808301525160a0820152f35b5090346101b55760203660031901126101b55781602093600192358152600285522001549051908152f35b83823461026e578060031936011261026e5760c0916001600160a01b0390829082610c9a610d4b565b168152600660205281812060243582526020522063ffffffff8154936001830154906003856002860154169401549481519687528216602087015260ff8260a01c1615159086015260a81c166060840152608083015260a0820152f35b849084346101b55760203660031901126101b5573563ffffffff60e01b81168091036101b55760209250637965db0b60e01b8114908115610d3a575b5015158152f35b6301ffc9a760e01b14905083610d33565b600435906001600160a01b0382168203610d6157565b600080fd5b602435906001600160a01b0382168203610d6157565b3360009081527fe5ebfa64fca8d502a8e50c1edffd2c31ef4dad5b396e65d9f397fb028f74abc560209081526040808320549092907fa49807205ce4d355092ef5a8a18f56e8913cf4a201fbe287825b095693c217759060ff1615610de15750505050565b610dea336111f8565b845191610df6836110f1565b60428352848301936060368637835115610f7e5760308553835190600191821015610f7e5790607860218601536041915b818311610f1057505050610ece57610e7c938593610eb493610ea5604894610eca9951988576020b1b1b2b9b9a1b7b73a3937b61d1030b1b1b7bab73a1604d1b8b97880152825192839160378901910161109c565b8401917001034b99036b4b9b9b4b733903937b6329607d1b60378401525180938684019061109c565b0103602881018552018361110d565b5162461bcd60e51b81529182916004830161112f565b0390fd5b60648486519062461bcd60e51b825280600483015260248201527f537472696e67733a20686578206c656e67746820696e73756666696369656e746044820152fd5b909192600f81166010811015610f6a576f181899199a1a9b1b9c1cb0b131b232b360811b901a610f4085886111d1565b5360041c928015610f5657600019019190610e27565b634e487b7160e01b82526011600452602482fd5b634e487b7160e01b83526032600452602483fd5b634e487b7160e01b81526032600452602490fd5b600081815260209060028252604092838220338352835260ff848320541615610fbb5750505050565b610fc4336111f8565b845191610fd0836110f1565b60428352848301936060368637835115610f7e5760308553835190600191821015610f7e5790607860218601536041915b81831161105657505050610ece57610e7c938593610eb493610ea5604894610eca9951988576020b1b1b2b9b9a1b7b73a3937b61d1030b1b1b7bab73a1604d1b8b97880152825192839160378901910161109c565b909192600f81166010811015610f6a576f181899199a1a9b1b9c1cb0b131b232b360811b901a61108685886111d1565b5360041c928015610f5657600019019190611001565b60005b8381106110af5750506000910152565b818101518382015260200161109f565b60c0810190811067ffffffffffffffff8211176110db57604052565b634e487b7160e01b600052604160045260246000fd5b6080810190811067ffffffffffffffff8211176110db57604052565b90601f8019910116810190811067ffffffffffffffff8211176110db57604052565b6040916020825261114f815180928160208601526020868601910161109c565b601f01601f1916010190565b906000918083526002602052604083209160018060a01b03169182845260205260ff60408420541661118c57505050565b8083526002602052604083208284526020526040832060ff1981541690557ff6391f5c32d9c69d2a47ea670b442974b53935d1edc7fd64eb21e047a839171b339380a4565b9081518110156111e2570160200190565b634e487b7160e01b600052603260045260246000fd5b604051906060820182811067ffffffffffffffff8211176110db57604052602a82526020820160403682378251156111e2576030905381516001908110156111e257607860218401536029905b8082116112995750506112555790565b606460405162461bcd60e51b815260206004820152602060248201527f537472696e67733a20686578206c656e67746820696e73756666696369656e746044820152fd5b9091600f811660108110156112f2576f181899199a1a9b1b9c1cb0b131b232b360811b901a6112c884866111d1565b5360041c9180156112dd576000190190611245565b60246000634e487b7160e01b81526011600452fd5b60246000634e487b7160e01b81526032600452fd5b90816020910312610d6157518015158103610d615790565b919290156113815750815115611333575090565b3b1561133c5790565b60405162461bcd60e51b815260206004820152601d60248201527f416464726573733a2063616c6c20746f206e6f6e2d636f6e74726163740000006044820152606490fd5b8251909150156113945750805190602001fd5b60405162461bcd60e51b8152908190610eca906004830161112f56fea2646970667358221220a1264b543f4f416e6a6666fca13dfd671db59e0aedc54b4fd69ff3b40b25392f64736f6c634300081400332f8788117e7eff1d82e926ec794901d17c78024a50270940304540a733656f0d",
  "linkReferences": {},
  "deployedLinkReferences": {}
}